:10507200436865636B205349343433322E2E2E0D30
:105082000A004445564943455F545950453A203039
:105092007825782E0D0A000D0A00444556494345ED
:1050A2005F56455253494F4E3A20307825782E0D9F
:1050B2000A004445564943455F5354415455533AB7
:1050C2002061742069646C65206D6F64652E0D0A21
:1050D200004445564943455F5354415455533A2081
:1050E2006174205258206D6F64652E0D0A0044458C
:1050F200564943455F5354415455533A20617420F5
:105102005458206D6F64652E0D0A004372797374D2
:10511200616C204F7363696C6C61746F72204C6FA9
:1051220061642043617061636974616E63653A20F2
:1051320025780D0A0053493434333220494F20492F
:105142006E69742E2E2E2E2E2E0D0A00494F2049E6
:105152006E697420636F6D706C657465642E0D0AE0
:1051620000534934343332206973206E6F742066E1
:105172006F756E642E2E2E2E2E2E0D0A005349347C
:10518200343332204750494F496E697420636F6D42
:10519200706C6574652C636F6E66696720646576F2
:1051A2006963652E2E2E2E2E2E0D0A00436F6E661B
:1051B20069672052462E2E2E2E2E2E0D0A0053499E
:1051C20034343332496E697420636F6D706C657468
:1051D200652E0D0A002072657620496E7465727222
:1051E2007570740D0A002073656E6420496E7465D3
:1051F20072727570740D0A006D6F64652072656756
:0952020069737465723A0D0A002B
:107A3B00D3EF9400EE64809480400F7D817C14DC46
:0A7A4B00FEDDFAEF1F70E91E80E671
:017A5500220E
:077C9200C2C3D2B3D2B2223B
:097909009002CAEFF07D017F0E2F
:1079120090020FEDF0C2B3EF4480FF127C0590029B
:097922000FE0FF127C05D2B32234
:077B4D009002C9EFF07F0474
:0C7B5400C2B3127C057FFF127C05D2B387
:017B60002202
:1068B8007BFF7A507972127B89E4FF127B54900235
:1068C8000AEFF07BFF7A507984127B8990020AE004
:1068D800FF1277837BFF7A507999127B8990020A9D
:1068E800E0640860037F01227F01127B5490020A52
:1068F800EFF07BFF7A50799C127B8990020AE0FFC7
:106908001277837BFF7A507999127B897F02127BF9
:106918005490020AEFF0540F70087BFF7A5079B454
:10692800802290020AE0540FFFBF01087BFF7A50D3
:1069380079D3801090020AE0540FFFBF02097BFF51
:106948007A5079F0127B897F09127B5490020AEF02
:10695800F07BFF7A51790D127B8990020AE0FF12D1
:0D69680077837BFF7A507999127B897F003D
:0169750022FF
:106650007D537F751279127D4B7F76127912E4FD9E
:106660007F771279127D097F6E1279127DD57F6F47
:106670001279127D2C7F701279127D807F581279E9
:10668000127D1F7F6D1279127D207F721279127D2B
:106690002C7F1C1279127D417F201279127D607F40
:1066A000211279127D277F221279127D527F2312C7
:1066B0007912E4FD7F241279127D047F251279126C
:1066C0007D407F1D1279127D0A7F1E1279127D0F87
:1066D0007F2A1279127D037F1F1279127D607F69F4
:1066E0001279127D0C7F341279127D2A7F3512794E
:1066F000127D027F331279127D2D7F361279127D41
:10670000D47F371279127D8D7F30127912E4FD7FAC
:10671000321279127D637F711279127DB47F090282
:026720007912EC
:106976007BFF7A517937127B89127C927BFF7A51A1
:10698600794E127B897F147E0080131268B8EF60FF
:10699600127BFF7A517963127B897FF47E01127A2A
:1069A6003B80E87DCA7F0B1279127DCA7F0C127973
:1069B600127DCA7F0D1279127F0A7E00127A3B7B06
:1069C600FF7A51797F127B897F03127B54127B4DAC
:1069D6009002CAEFF07D807F071279127F147E0045
:1069E600127A3B7F03127B54127B4D9002CAEFF062
:1069F6007BFF7A5179AE127B891266507DFF7F0547
:106A06001279127DFF7F061279127F03127B5412D0
:106A16007B4D9002CAEFF07D077F05127912E4FDE7
:0E6A26007F061279127BFF7A5179C0027B89BC
:107B9C007F03127B54127B4D1279097D057F0702FE
:027BAC0079124C
:107A56007F03127B54127B4D9002CAEFF07D027FAA
:0B7A66000E1279127D097F07027912D1
:107BAE007F03127B54127B4D1279097D017F0702F0
:027BBE0079123A
:10726C0090020BEBF0A3EAF0A3E9F090020AEFF026
:01727C00FD14
:10727D007F3E127912E490020EF090020AE0FF9028
:10728D00020EE0FEC3EF6480F8EE64809850259006
:10729D00020BE0FBA3E0FAA3E0F9EEFF3395E08FDC
:1072AD0082F5831216EEFD7F7F12791290020EE0A9
:0772BD0004F080C6027A56BE
:106CFC007F07127B54900204EFF07F03127B541237
:106D0C007B4D9002CAEFF09002C9E030E15B7BFF53
:106D1C007A5179D7127B897F4B127B54900205EF05
:106D2C00F0BF0C2EE4900204F0900205E0FF9002FC
:106D3C0004E0C39F501C7F7F127B54900204E0241C
:106D4C0055F582E43402F583EFF0900204E004F090
:106D5C0080D77D027F08127912E4FD7F0812791228
:106D6C00127B9C9002537401F09002C9E030E20C4B
:0C6D7C007BFF7A5179E8127B89127B9C26
:016D880022E8
:1078C2007F07127B549002CFEFF07BFF7A5179FA57
:1078D200127B899002CFE0FF1277837BFF7A507987
:0478E20099027B8903
:0C3A20004902A600000001050107E000BB
:097C8100E4FB7D0E7FD0027A7154
:1067F400E4FD7FD0127ABFAD07ED54F0C4540F7599
:10680400F00AA4FFED540F2F9002A6F07D017FD073
:10681400127ABFAD07ED54F0C4540F75F00AA4FF0B
:10682400ED540F2F9002A7F07D027FD0127ABFADF6
:1068340007ED54F0C4540F75F00AA4FFED540F2F64
:106844009002A8F07D047FD0127ABFAD07ED54F01A
:10685400C4540F75F00AA4FFED540F2F9002A9F051
:106864007D037FD0127ABF9002AAEFF07D057FD01E
:10687400127ABFAD07ED5410C4540F75F00AA4FF8B
:10688400ED540F2F9002ABF07D067FD0127ABFAD8E
:1068940007ED54F0C4540F75F00AA424D0FFE5F0BA
:1068A4003407FEED540F7C002FFFEC3E9002ACF059
:0368B400A3EFF05F
:0168B70022BE
:10672200900216E0FF75F00A84C454F0FEEF75F093
:106732000A84E5F02EFBE4FD7FD0127A71900217F5
:10674200E0FF75F00A84C454F0FEEF75F00A84E5A8
:10675200F02EFB7D017FD0127A71900218E0FF7556
:10676200F00A84C454F0FEEF75F00A84E5F02EFBC3
:106772007D027FD0127A71900219E0FF75F00A84CF
:10678200C454F0FEEF75F00A84E5F02EFB7D047F21
:10679200D0127A7190021AE0FB7D037FD0127A71D7
:1067A20090021BE0FF75F00A84C454F0FEEF75F00E
:1067B2000A84E5F02EFB7D057FD0127A7190021DCE
:1067C200E02430FF90021CE034F8FE7C007D0A12C7
:1067D2001761EFC4F8540FC868FFAB07E0FEA3E0EF
:1067E200FF7C007D0A121761EB2DFB7D067FD00234
:0267F2007A71BA
:100026006C6364206275737920636865636B2E2E3A
:100036002E0D0A0000000000000000000000000075
:1000460000000000000000000018188888286A4E8A
:100056000CE8E80808181800000444446525341C18
:100066000E0F1D346444040000F8F888F8F8109068
:10007600901010FEFE101000001F1F081F1F00002A
:100086000343407F7F0000000020644C0800FEFE12
:10009600929292FEFE00000000303C0F437E7E7E70
:1000A6007E427E7E7E7E4000000000F8F828F8FA48
:1000B600AEACA8F8F82828000040703F4F42662EE4
:1000C6003A123A2E6642400000202020A0E060FF4F
:1000D600FFE0C060381800002030180E0741C0FF4E
:1000E6007F0103060C1810100080C0F0FE0E9090E1
:1000F600121E1CD0D01000000000007F7F40414F30
:100106004E607C5F4340400000F8F888F8F8109095
:10011600901010FEFE101000001F1F081F1F000089
:100126000343407F7F0000000000F0F20EECE42461
:100136002424E4E404FCFC0000007F7F000F0F0988
:1001460009090F4F407F7F0000808282FEFE828277
:100156008282FEFE82828000004060381F07000017
:1001660000007F7F0000000000001010121E1CF02F
:10017600F0181E16101000000041416131190F07DA
:10018600070F193161414100002038DFC74444445C
:10019600FCFC444444440400040404070704040427
:1001A600FFFF040404040404000000FEFE222222D1
:1001B60022222222FEFE000080C0703F0F020202B1
:1001C600020242C2FF7F0000000000FEFE82828221
:1001D600828282FEFE000000000000FFFF404040D9
:1001E600404040FFFF000000000000F8F88C8E8BB6
:1001F600898888F8F8000000000000FFFF444444A6
:10020600444444FFFF0000004044C4C444444450F6
:1002160010FFFF1010F0F000103C3F1314BCF870F4
:100226003E0F41C0C07F3F00101010FFFFB0B8D88E
:1002360068290F2E68E8B8180242C3FF7F40404283
:1002460042427E7E4242424040505E4E48FFFF4858
:100256004848F8F800FFFF0000003E3E02FFFF326C
:100266003E1E0F4FC0FF7F00000022323AAEA6E2CC
:100276006331198981010000004262331B4BC2FEC3
:100286007E020A1A336746002030BCEF733088C8F6
:10029600E8B99F8EA8E8C888226767321292C070B4
:1002A6003F0F003F7F40717100083830FFFF20206C
:1002B60020FFFF20222E2C2004040603FFFFC0701F
:1002C6003E0F071E3860C08000048484C46474DF57
:1002D6009F3464C484840400417939003C7C4042E4
:1002E6004E4C4070740D3931101C4C6434140507A3
:1002F6000604143464541C0C004040414141417FC3
:100306007F4141414140400000F8F943424242FAF0
:10031600FA42424242FEFE0000FFFF080C06033F7F
:100326003F03064CC8FF7F000000FEFE42424242E9
:10033600FAFA424242C2C20280E07F9FC060381E83
:10034600070140C0C07F3F000000F8F8888888FF9A
:10035600FF888888F8F80000808081C54C78303F97
:100366002F604040C181808090D27634FFFF347682
:10037600D2F0FF8F08F8F808829ADE776372DE8E75
:1003860080C0733F3F73C0801010FFFF9090FEFE49
:100396009292F2F2929E9E8042C2FF7F81E07F1F80
:1003A600FCFC474744FCFC00404042CECC40E0BE4B
:1003B6009E82829EBEA020200000003FBF98C843B8
:1003C6006F3C386E47C18080001717D5D557577DCB
:1003D6007D5757D5D51717004040407F7F55555557
:1003E6005555557F7F404040404042CECC00FCFCF6
:1003F600A4A42622A3E362000040603F3F785F5733
:10040600584D47474D5850400000FEFE02F2F2128A
:1004160012F2F202FEFE000000007F7F2027272452
:10042600242727207F7F000020305C4F57545454E8
:10043600545454D4D404040000000000000000000A
:100446000000000F3F70F0F08080C06030182CE78D
:10045600C70C183060C080800000000202020282D1
:10046600C2623A1E0600000040404242424242FE3C
:10047600FE424242424240408080C060301C0F0330
:10048600030F1C3060C080801010D0FFFF94F4EF83
:10049600AFA4A4AFEFE40400040703FFFF89CB6B0E
:1004A6003A1E1E3A6BCB88801010909090909090D8
:1004B60010FFFF1011171610002060603F3F10104C
:1004C60010030F1C3060F8F800002424242424FCB8
:1004D600FE22222323220000020202020242C2FF5F
:1004E6007F02020202020202000000BEBE2A2AEABF
:1004F600EA2A2A3E3E0000000044464B4949497F0D
:100506007F494949494140000004FFFF2424FFFF79
:1005160004FEFE2222FEFE0088C86F2F0919BFEFD7
:10052600783F0F42C2FF7F0080808080808080807D
:1005360080808080808080800000000000000000B5
:100546000000000000000000000008080808080875
:1005560008080808080800001010101010101010E5
:1005660010101010101010100004848484848484E9
:100576008484848484840400202020202020202059
:10058600202020202020202000FCFC0404FCFC0469
:1005960004FCFC0404FCFC00007F7F2C27232020A5
:1005A60020212322227F7F000002424242C2FE7E99
:1005B600424242C2C202020040404040787F474069
:1005C6004040407F7F4040402020202020202123A3
:1005D6002E2C202020202020004060301C0F0300FD
:1005E600000103061C7860004042CECC00445454FF
:1005F600547F7F545454444000007F7F3010FFFFE7
:10060600151555D5FF7F000088E87FDFC818D8DCB0
:1006160056D3D3969CD8D010091919FFFF05FFFFB2
:1006260092FFFF5FDFFF7F00000000000001E3FE96
:10063600FCE000000000000080C060301C0F0300DA
:1006460000030F3C70C08080109CCC44E4E495B756
:10065600E6643494C4D49C0C02027A7B4143437E04
:100666007E424243FBF800000484E4FC5CC4C402FE
:10067600F2F28282FEFE808002037F7F103F3F08F7
:1006860008080848C8C87F3F4070FFEF646C487F81
:100696007F48487F7F48484001017F7F3111FFFF37
:1006A60049494949FFFF00004042CECC00809E9E4A
:1006B600929292929E9E800000007F7FB494C464C2
:1006C600341F1F3464C48484101010FFFF9090F010
:1006D600F010FFFF10F0F0000444C6FF7F0100FF9A
:1006E600FF427F7F42FFFF004040C0DF5F55D5D508
:1006F6005555555F5F40404020607F3F3515FFFFF1
:10070600D76F393D6FC3808020202020202020FF16
:10071600FF202020202020208080C060301C0F0376
:10072600030F1C3060C08080000000E0E00000FF86
:10073600FF00002060C08000080C07030040C0FFD7
:100746007F00000000010F0E80E0F8FF07047474BC
:1007560055575654747404000000FFFF0303054503
:10076600C5FD7D0505050303206464B494BFBF8001
:100776009FBFA4A6A23A3800000000FFFF0A0A0A9B
:100786000A4ACAFF7F000000404042465CD8C07F4C
:100796007FC0D0584E4640408080C060381F07005A
:1007A600003F7F40404078784060F8FFF7F0B0DCCB
:1007B6005F77A4F45CCC80800000FFFF1F9F92D27D
:1007C6005B692D361A0800000484848484FCFC705E
:1007D600FCCF0B08F8F80808007F7F30101888C097
:1007E60061371E1E3761C08020303CEFE72424E2CB
:1007F600EE2CBFBF28EEE6000101017F7F3191CFCD
:100806006F301F1F306FCF80101C0C242424252727
:100816002624242424141C0C008181C1713F0F015D
:10082600017FFF8181F1F1000000F8F8888888884F
:1008360008FFFF090BCAC80880E07F1F10303F9FE2
:10084600C061371E3E67F9F80080E0F8FF073E3EBC
:1008560022E2E2223E3E0000010100FFFF31190DB7
:1008660007FFFF070D193120040484E4FC1F272429
:100876002424A4E464240404020301FFFF020242C8
:10088600C2FF7F020202020240445475E7E6745436
:1008960044FCFC44C4C6424020325ACAFF7F0A9A2E
:1008A600F27F1F00FFFF00000202F2F2929292FE18
:1008B600FE929292F2F202020404FFFF040404077D
:1008C600070444C4FF7F040400020E8CE0E0C070FD
:1008D6003FCFC8082838180002027E7F81C06038E2
:1008E6001E07071E3860C080000202020282C2F2A2
:1008F600FE4EC2820202020010180C06030100FF1F
:10090600FF000001030E0C0010180C87EF7C949476
:100916009C8F87ECFC948484040603FFFF0000028E
:100926000E4CC0FF7F00000000F8F923222222A20D
:10093600FAFA222222FEFE0000FFFF080C061331FF
:100946003F1F0040C0FF7F0000E0E0FFFF30288827
:10095600F87F0FE8E8088888010100FFFF101C8F68
:10096600C7673B1F1F7AE381203018FFF7545454A2
:10097600545454F4F4040400809090D94D5F7725C4
:1009860025755D4DC58080807E7E5AFEFE5A7E7E30
:100996002020FFFF222E2C20E9E9696F6765B5F557
:1009A600703E0F0F3E70C080404042CECC0000002B
:1009B60000FFFF00000000000000003FBFD86838BD
:1009C6001F07071F3860C0800000007F7F49494924
:1009D6004949497F7F00000081C1613D3D61C1FFFA
:1009E600FF8989898989818100028282C26232FAFD
:1009F600FE26226242C28200010101FCFC444445FB
:100A0600454444FCFC0001010484E4FC5CC4E4307D
:100A1600F8EF27E4F43CECE002037F7F103FBFE0F1
:100A26007F1F093F7FC9FF7F101C4C44444445C7C4
:100A3600C644444444541C0C80C0603E3E60407F23
:100A46007F44444444444040829A9E97FBFA52D2E3
:100A5600FE7E1212F3F11110000101FEFF93939333
:100A6600929292FEFF0300000040424242C2FE7E86
:100A7600C2C242424240400080C060301C0F0300A8
:100A86003F7F40404070700000F8F808080888FF73
:100A9600FF88080808F8F80000FFFF080C060301A5
:100AA6000001034ECCFF7F00101C4C643494C567D4
:100AB60066C4943464541C0C040406FEFF45444486
:100AC600444445FFFE06040400000000000000FF49
:100AD600FF080808080808080000FFFF41414141D7
:100AE60041414141FFFF00002030BCEF6338989040
:100AF60090FFFFD94B4A4840226767321212524094
:100B060060331F1C3663F9F80000F0F0101010FF78
:100B1600FF101010F0F0000000000F0F040404FF97
:100B2600FF0404040F0F0000040404F4F4D4F5A732
:100B3600A6F4D4F4F404040400FEFE02123A3E17AE
:100B4600131A3A72C2FE7E000000183C243C1800BC
:100B56000000000000000000E0380C06020301015E
:100B6600010101010101010101010101010101016F
:100B7600010101010101010101010101010101015F
:100B860001010101010302060C38E04040404040EB
:100B960040404040C000FF00000000000000000090
:100BA600000000000000000000000000000000003F
:100BB600000000000000000000000000000000002F
:100BC6000000000000000000FF40C0000000000020
:100BD6000000FF00FF000000000000000000000011
:100BE60000000000000000000000000000000000FF
:100BF60000000000000000000000000000000000EF
:100C0600000000000000FF00FF0000F0FFF0000001
:100C1600FF00FF00000000000000000000000000D0
:100C260000000000000000000000000000000000BE
:100C360000000000000000000000000000000000AE
:100C460000000000FF00FF001CFFFFFF1C00FF006C
:100C5600FF8000000000000000000000000000000F
:100C6600000000000000000000000000000000007E
:100C7600000000000000000000000000000000006E
:100C86000080FF705F0000FFFFFF00005F70000341
:100C9600060C08181010101010101010101010105C
:100CA600101010101010101010101010101010103E
:100CB600101010101010101010101018080C161329
:100CC6001808081010180818101010080000000066
:100CD600000000000000000000000000000000F816
:100CE600F8000000000030333300000000100C064E
:100CF600100C060000000000000000004040F84014
:100D0600F8400000043E053F05040000007088FC22
:100D160008300000001820FF211E0000F008F080B7
:100D26007008000000211C031E211E0000F08870C0
:100D3600000000001F2027281F21100000000000CF
:100D46000000000080B0F07000000000000000F01D
:100D5600FC0E02000000000F3F70400000061EF867
:100D6600E00000000060781F070000004040C0F06F
:100D7600F0C040400202030F0F030202000000F021
:100D8600F00000000101011F1F010101000202061F
:100D96000400000000000000000000000000000049
:100DA6000000000001010101010101000000000036
:100DB600000000000030303000000000000000009D
:100DC600C0F83C0C0060783F07010000E0F018080E
:100DD60018F0E0000F1F3020301F0F00001010F831
:100DE600F80000000020203F3F2020000070780817
:100DF60008F8F00000303C2E2331300000303888EF
:100E060088F8700000183820313F1E000080C0604E
:100E1600F8F80000060705243F3F240400F8F88888
:100E26008888080000193921313F1F00E0F09888B2
:100E3600889818000F1F3120313F1F0000383808EE
:100E4600E8F818000000003F3F00000070F898889E
:100E560098F870001E3F2121313F1E00F0F8080867
:100E660018F8E000313322323B1F07000000C0C0F3
:100E7600C00000000000303030000000000000809C
:100E860080000000000080E060000000000080E0BC
:100E9600701808000001030E1C302000404040403E
:100EA60040404000040404040404040000083870B0
:100EB600C08000000020381C060301007078080876
:100EC60018F8F0000000303737010000C0F0F8E8ED
:100ED600E8F8F0E0071F3F2727371F0B0000E0F870
:100EE600F8E00000203C3F23233F3C2008F8F88828
:100EF60088F87000203F3F20313F1E00E0F03808A0
:100F0600083838000F1F30202030100008F8F80885
:100F160018F0E000203F3F20301F0F0008F8F88847
:100F2600E8F81800203F3F202333300008F8F888FF
:100F3600E8E81810203F3F2003030000C0F03808FF
:100F460008383800071F3820223E1E0208F8F80825
:100F560008F8F808203F3F21213F3F20000808F805
:100F6600F80808000020203F3F202000000808F86D
:100F7600F8080800C0C080FF7F00000008F8F8C825
:100F8600E8381808203F3F21273E382008F8F8089F
:100F960000000000203F3F202030300008F8F80015
:100FA600F8F80800203F003F003F200008F8F8F856
:100FB600C8F8F808203F3F231F3F3F00E0F018081D
:100FC60018F0E0000F1F3020301F0F0008F8F80857
:100FD60008F8F000203F3F2101010000E0F018086A
:100FE60018F0E0000F1F3C247C7F4F0008F8F888BB
:100FF60088F87000203F3F21073E38200070F888AF
:101006000818180000303021233F1E00181808F871
:10101600F80818180000203F3F20000008F8F808DC
:1010260008F8F808001F3F20203F1F000878F888BE
:1010360088F8780800000F3F3F0F000008F8FCFC16
:10104600F8F8F80800073F3F3F3F07000838F8E880
:10105600E8F8180820303C2F2F3E38200838F8C80A
:10106600C8F838080000203F3F200000101808C8C4
:10107600F8380800303C2F2320301000000000FE16
:10108600FE0202000000007F7F404000001CFCE0E2
:1010960000000000000000031F7C6000000202FE4A
:1010A600FE0000000040407F7F00000000000406B4
:1010B6000604000000000000000000000000000020
:1010C60000000000808080808080808010161E0EC8
:1010D600000000000000000000000000000080800A
:1010E60080808000001D3D26223F3F2008F8F880C2
:1010F60080800000003F3F21203F1F0000008080CD
:1011060080808000001F3F31203111000000808068
:1011160088F8F800001F3F21203F3F200000808014
:1011260080800000001F3F22223313008080F0F8E9
:101136008898180000203F3F202000000000808093
:1011460080808000006BFF9497F3600008F8F880B9
:1011560080808000203F3F21203F3F2000808098F4
:10116600980000000020203F3F20200000008080E3
:101176009898000000C0C080FF7F000008F8F88043
:1011860080808000203F3F263F392000000808F875
:10119600F80000000020203F3F2020008080808053
:1011A60080808080203F3F203F3F203F808080809E
:1011B60080808000203F3F2100203F3F000080804C
:1011C60080800000001F3F31213F1F00808080800B
:1011D6008080000080FFFFA1303F1F00000080805C
:1011E60080808000001F3F21A0FFFF8080808080DC
:1011F6008080800020203F3F212101000000808068
:101206008080800000333724243D1900008080E070
:10121600E08080000000001F3F20200080808000CA
:1012260080808000003F3F20203F3F2080808080DC
:101236008080808000031F3C3C1F03008080C0C06C
:1012460080808080000F3F3F3F3F0F00808080807E
:101256008080800020313F2E3F31200080808080BA
:10126600808080808083CF7E3E0F0100008080805A
:0C127600808080000021393C27333000CC
:103A2C0060C000000000000000000000000000006A
:103A3C00000000000000000000000000000000007A
:103A4C00000000000000000000000000000000006A
:103A5C00000000000000000000000000000000005A
:103A6C00000000000000000000000000000000004A
:103A7C00000000000000000000000000000000003A
:103A8C00000000000000000000000000000000002A
:103A9C00000000000000000000000000000000001A
:103AAC00000000000000000000000000000000000A
:103ABC0000000000000000000000000000000000FA
:103ACC0000000000000000000000000000000000EA
:103ADC0000000000000000000000000000000000DA
:103AEC000000000060C000C00000000000000000EA
:103AFC0000000000000000000000000000000000BA
:103B0C0000000000000000000000000000000000A9
:103B1C000000000000000000000000000000000099
:103B2C000000000000000000000000000000000089
:103B3C000000000000000000000000000000000079
:103B4C000000000000000000000000000000000069
:103B5C000000000000000000000000000000000059
:103B6C000000000000000000000000000000000049
:103B7C000000000000000000000000000000000039
:103B8C000000000000000000000000000000000029
:103B9C000000000000000000000000000000000019
:083BAC00000000000000000011
:0479E6007F057E009B
:1079EA00D3EF9400EE9400400F7D147C32DCFEDD70
:0879FA00FAEF1F70EB1E80E89C
:017A02002261
:107BD200D3EF9400EE94004007EF1F70F31E80F085
:017BE2002280
:047CB10043BB60224F
:1074130090021EE0FF90021DE04440FBE4FD127465
:0C7423002F900221E044B8FBE4FD7F073D
:10742F00EF30E002C2C2EF30E102C291EF30E20270
:10743F00C292D2C6ED6004D2C58002C2C5C2C1AF2E
:10744F00038F80C2C6D2C2D291D2927F017E000238
:02745F0079EAC8
:0774F1009002A3E0FF7D0102
:1074F8007580FFEFB40104C2C2800EEFB40204C26B
:10750800918006EFB40402C292ED6004D2C58002F5
:10751800C2C5D2C100D2C600AC80C2C6C2C1D2C2E6
:0D752800D291D2927F017E00127BD2AF047F
:017535002233
:05721200900217EFF0EF
:107217007BFF7A007926127B89E4900218F09002AE
:1072270017E030E00DA3E0FBE4FD7F011274F8EBFB
:107237004FF0900217E030E10DA3E0FBE4FD7F0281
:107247001274F8EB4FF0900217E030E20DA3E0FB69
:10725700E4FD7F041274F8EB4FF0127C12900218D1
:04726700E020E7AC90
:01726B002200
:107BC000C2CA7F507E001279EAD2CA7FA07E00022C
:027BD00079EA50
:10792B007F07127212E4FAEA127428E4F9E4FB7D81
:10793B00017F0712742F09E9B440F20AEAB408E791
:01794B002219
:10787100C2CB1279E6127BC07B3E12742B1279E6E1
:107881007BC012742B1279E612792B1279E67B3FB9
:0978910012742B1279E6D2CB220D
:107536007F071272127B40E4FD7F0112742F7BBA23
:10754600E4FD7F0112742FE4FAE4F97BFF7D017FED
:107556000112742F09E9B440F27B40E4FD7F011269
:10756600742FEA240344B8FBE4FD7F0112742F0A4A
:04757600EAB401D59D
:01757A0022EE
:10757B007F071272127B40E4FD7F0212742F7BBADD
:10758B00E4FD7F0212742FE4FAE4F97BFF7D017FA7
:10759B000212742F09E9B440F27B40E4FD7F021222
:1075AB00742FEA240344B8FBE4FD7F0212742F0A04
:0475BB00EAB401D558
:0175BF0022A9
:105D0500900224EBF0A3EAF0A3E9F0900222EFF071
:035D1500A3EDF00B
:105D1800EF1425E0900222F0ED24FFFFE434FFFEAB
:105D2800EF7802CEC313CE13D8F9FF70079002297B
:105D380004F08016EFB401089002297402F0800A7A
:105D4800EFB402069002297404F0900223E0145480
:105D580003C454F0F0FE900229E0FFEE4440FBE457
:105D6800FD12742FE0FF900222E044B8FBE4FD121C
:105D7800742FE4900228F0900227E090022960181E
:105D8800E0FF900224E0FBA3E475F0011217CCA910
:105D9800F0FA1216D5F48015E0FF900224E0FBA378
:105DA800E475F0011217CCA9F0FA1216D5FB7D01A3
:105DB80012742F900228E004F0E0C3941040B890C9
:105DC8000229E0FF900223E04440FBE4FD12742F17
:105DD800900229E0FF900222E00444B8FBE4FD129F
:105DE800742FE4900228F0900227E09002296018AE
:105DF800E0FF900224E0FBA3E475F0011217CCA9A0
:105E0800F0FA1216D5F48015E0FF900224E0FBA307
:105E1800E475F0011217CCA9F0FA1216D5FB7D0132
:0F5E280012742F900228E004F0E0C3941040B8E9
:015E37002248
:055BCC00E0900241F031
:105BD10090023EEBF0A3EAF0A3E9F090023CEFF073
:035BE100A3EDF041
:105BE400EF1425E090023CF0ED24FFFFE434FFFEC7
:105BF400EF7803CEC313CE13D8F9FF700790024396
:105C040004F08016EFB401089002437402F0800A95
:105C1400EFB402069002437404F090023DE0145481
:105C24000775F008A4F0FE900243E0FFEE4440FB49
:105C3400E4FD12742FE0FF90023CE044B8FBE4FD65
:105C440012742FE4900242F0900241E0900243600B
:105C540018E0FF90023EE0FBA3E475F0011217CCBC
:105C6400A9F0FA1216D5F48015E0FF90023EE0FB8D
:105C7400A3E475F0011217CCA9F0FA1216D5FB7D36
:105C84000112742F900242E004F0E0C3940840B87B
:105C9400900243E0FF90023DE04440FBE4FD1274B7
:105CA4002F900243E0FF90023CE00444B8FBE4FD83
:105CB40012742FE4900242F0900241E0900243609B
:105CC40018E0FF90023EE0FBA3E475F0011217CC4C
:105CD400A9F0FA1216D5F48015E0FF90023EE0FB1D
:105CE400A3E475F0011217CCA9F0FA1216D5FB7DC6
:105CF4000112742F900242E004F0E0C3940840B80B
:015D0400227C
:10715800900218EFF0A3EDF0A3EBF0A3EAF0A3E997
:10716800F090021AE0FBA3E0FAA3E0F91216D5604A
:107178003D75F010A424D2F9740A35F0FA7BFF901B
:107188000218E0FFA3E0FD90021D125BCC900219EB
:10719800E004F0E0D3941840097401F0900218E07C
:0F71A80004F090021BE475F0011217B680B322B9
:0853900090020AEFF0A3EDF01A
:1053980078107C027D017BFF7A00793A7E007F0AD3
:1053A8001216AFE490021AF0A37409F0E4A3F0A374
:1053B800F0A312191F0000000190020CE0FCA3E00A
:1053C800FDA3E0FEA3E0FFEC33501690021C74012D
:1053D800F090020CA3A3A3E012185E90020C12191D
:1053E8001390020CE0FCA3E0FDA3E0FEA3E0FFECB9
:1053F8004D4E4F6074E47B0AFAF9F890020CA3A3AF
:10540800A3E0127604AC00AD01AE02AF0390021E19
:1054180012191390021EA3A3A3E02430FF90021ACE
:10542800E0FE04F074102EF582E43402F583EFF008
:1054380090020CE0FCA3E0FDA3E0FEA3E0FFE47B08
:105448000AFAF9F812760490020C12191390021A4B
:10545800E06402708CE0FF04F074102FF582E434ED
:1054680002F583742EF00253E990021AE0D39403F4
:10547800502AE0FF04F074102FF582E43402F5831B
:105488007430F090021AE0B402DFFF04F074102FB9
:10549800F582E43402F583742EF080CD90021CE08E
:1054A800601490021AE0FF04F074102FF582E434BF
:1054B80002F583742DF0E490021BF090021AE0FFCD
:1054C800A3E0FEC39F503F74102EF582E43402F52A
:1054D80083E075F010A424D2F9740A35F0FA7BFF42
:1054E80090020AE0FFA3E0FD14F0E4125BCD900205
:1054F8000BE0700A90020AE004F0A37418F090021E
:065508001BE004F080B579
:01550E00227A
:0B49D700900222EFF0A3EDF0A3EBF044
:1049E200782A7C027D017BFF7A0079447E007F0A6F
:1049F2001216AFE4900234F0A37409F0E4A3F0A31A
:104A0200F0A312191F00000001900225E0FCA3E0B0
:104A1200FDA3E0FEA3E0FFEC3350169002367401D2
:104A2200F0900225A3A3A3E012185E9002251219AA
:104A320013900224E0606F900224E0FF14F0EFD3A1
:104A420094005003024B16E47B0AFAF9F8A3E0FC47
:104A5200A3E0FDA3E0FEA3E0FF127604AC00AD01EB
:104A6200AE02AF03900238121913900238A3A3A327
:104A7200E02430FF900234E0FE04F0742A2EF58226
:104A8200E43402F583EFF0900225E0FCA3E0FDA3FD
:104A9200E0FEA3E0FFE47B0AFAF9F8127604900242
:104AA200251219138091900225E0FCA3E0FDA3E0FA
:104AB200FEA3E0FFEC4D4E4F605AE47B0AFAF9F890
:104AC200900225A3A3A3E0127604AC00AD01AE02CE
:104AD200AF03900238121913900238A3A3A3E02463
:104AE20030FF900234E0FE04F0742A2EF582E434A2
:104AF20002F583EFF0900225E0FCA3E0FDA3E0FEC7
:104B0200A3E0FFE47B0AFAF9F81276049002251278
:104B120019138092900236E06014900234E0FF0490
:104B2200F0742A2FF582E43402F583742DF0E490B8
:104B32000235F0900234E0FFA3E0FEC39F504174BF
:104B42002A2EF582E43402F583E075F010A424D213
:104B5200F9740A35F0FA7BFF900222E0FFA3E0FD30
:104B620014F0900229125BCC900223E0700A9002AA
:104B720022E004F0A37418F0900235E004F080B350
:014B82002210
:0A5A8E0090020EEDF0AC07A3EBF060
:105A9800E490021AF0EB24FFFFE434FFFEEF7803F2
:105AA800CEC313CE13D8F90490020FF0EC24FFFFF5
:105AB800E434FFFEEF7803CEC313CE13D8F9900277
:105AC80016F090020EE0FF14543F900217F0FDEF1D
:105AD80024FFFFE434FFFEEF7806CEC313CE13D8BD
:105AE800F9FF7401A807088002C333D8FCFF9002AD
:105AF80018F090021AF0ED4440FBE4FD12742F9068
:105B08000216127427E4900214F090020FE0FF903E
:105B18000214E0C39F4003025BCBE4A3F0900210A1
:105B2800E0FF900215E0FEC39F506AEEFF90020E60
:105B3800E02FFFE433CF24FFCF34FFFEEF7806CE0B
:105B4800C313CE13D8F975F00384AFF07401A80716
:105B5800088002C333D8FCFF900219F0A3E06F60FD
:105B68000E900219E0FFA3F07B40E4FD12742F9021
:105B78000219E0FF900211E0FBA3E475F00112178F
:105B8800CCA9F0FA1216D5FB7D0112742F900215DC
:105B9800E004F08088900218E0FF90021AF090026A
:105BA80017E04440FBE4FD12742F900214E0FF90CC
:105BB8000216E02F540704127428900214E004F02F
:035BC800025B126B
:015BCB0022B7
:0F40F600900299EFF090029BEBF090029AEDF0A0
:10410500E49002A5F0ED14543F9002A2F0FCED24DA
:10411500FFFFE434FFFEEF7806CEC313CE13D8F9C4
:10412500FF7401A807088002C333D8FCFF9002A3DF
:10413500F09002A5F0EC4440FBE4FD12742F9002D0
:1041450099E0141274281274F1E49002A0F0900220
:104155009BE0FF9002A0E0C39F4003024226E4A338
:10416500F090029CE0FF9002A1E0FEC39F40030295
:1041750041F6EEFF90029AE02FFFE433CF24FFCF04
:1041850034FFFEEF7806CEC313CE13D8F975F003CE
:1041950084AFF07401A807088002C333D8FCFF90F0
:1041A50002A4F0A3E06F600E9002A4E0FFA3F07BF1
:1041B50040E4FD12742F9002A41274F4AD0790022E
:1041C5009CE0FF9002A0E08FF0A4FFA3E07A002F0F
:1041D500FFEA35F0FE90029DE0FBA3E0FAA3E0F9CB
:1041E5008F828E83ED12172D9002A1E004F002411B
:1041F500669002A3E0FF9002A5F09002A2E0444081
:10420500FBE4FD12742F9002A0E0FF900299E02FCD
:1042150054071274281274F19002A0E004F00241D0
:10422500537F071272129002A2E04440FBE4FD7F27
:104235000212742F900299E01444B8FBE4FD7F024A
:1042450012742FE49002A0F090029BE0FF9002A070
:10425500E0C39F506EE4A3F090029CE0FF9002A1A2
:10426500E0FDC39F50319002A0E08FF0A47C002DAB
:10427500FFEC35F0FE90029DE0FBA3E0FAA3E0F928
:104285008F828E831216EEFB7D017F0212742F90B2
:1042950002A1E004F080C19002A2E04440FBE4FDED
:1042A5007F0212742F9002A0E0FF900299E02F5434
:1042B5000744B8FBE4FD7F0212742F9002A0E004CE
:0342C500F0808501
:0142C80022D3
:072E9900900218EDF0AC07F8
:102EA000E4900220F0EC24FFFFE434FFFEEF78030F
:102EB000CEC313CE13D8F9900221F0EC145407902E
:102EC0000224F0EC2B145407A3F0900224E0FDFF41
:102ED000EB2FFFE433FEEF7803CEC313CE13D8F904
:102EE000FFED2B540760047E0180027E00EE2FFF71
:102EF000900223F0900221E02F14A3F0900218E03A
:102F0000FD14543F90021DF0ED24FFFFE434FFFE5A
:102F1000EF7806CEC313CE13D8F9FF7401A80708C3
:102F20008002C333D8FC90021EF0900220F0900281
:102F300024E07003022FF112741390021E1274F435
:102F4000E490021BF090021AE0FFA3E0FEC39F4052
:102F500003022FE9EEFF900218E02FFFE433CF24A5
:102F6000FFCF34FFFEEF7806CEC313CE13D8F9752A
:102F7000F0038490021CE5F0F0E0FF7401A807085C
:102F80008002C333D8FCFF90021FF0A3E06F600EF5
:102F900090021FE0FFA3F07B40E4FD12742F90022B
:102FA0001F1274F490021BE0FE2400F582E434004A
:102FB000F583EFF074002EF582E43400F583C083CE
:102FC000C082E0FF900224E0FEC374079EFE747F7F
:102FD000A806088003A2E713D8FB5FD082D083F055
:102FE00090021BE004F0022F4590021EE0900220A8
:102FF000F0900225E070030230C290021EE0FF90C4
:10300000021DE04440FBE4FD12742F900222127472
:103010002790021E1274F4E490021BF090021AE052
:10302000FFA3E0FEC39F40030230BAEEFF900218F8
:10303000E02FFFE433CF24FFCF34FFFEEF7806CE3E
:10304000C313CE13D8F975F0038490021CE5F0F099
:10305000E0FF7401A807088002C333D8FCFF900288
:103060001FF0A3E06F600E90021FE0FFA3F07B4013
:10307000E4FD12742F90021F1274F490021BE0FE04
:1030800024C0F582E43400F583EFF074C02EF5829D
:10309000E43400F583C083C082E0FF900225E0FEA7
:1030A00074FFA806088002C333D8FC5FD082D083A7
:1030B000F090021BE004F002301C90021EE090022F
:1030C00020F0127413E4FA900223E0FFEAC39F4059
:1030D000030231DEE490021BF090021AE0FFA3E04D
:1030E000FEC39F40030231BAEEFF900218E02FFFAB
:1030F000E433CF24FFCF34FFFEEF7806CEC313CEE8
:1031000013D8F975F0038490021CE5F0F0E0FF7429
:1031100001A807088002C333D8FCFF90021FF0A368
:10312000E06F600E90021FE0FFA3F07B40E4FD1211
:10313000742F900224E0F9602EA3E0602A9002230D
:10314000E0B4012390021FE0FF90021BE0FE24C0C8
:10315000F582E43400F583E0FD74002EF582E4345A
:1031600000F583E04D8044E96018EA701590021F75
:10317000E0FF90021BE02400F582E43400F583E0D8
:103180008029900225E0601D900223E014B502150D
:1031900090021FE0FF90021BE024C0F582E434009F
:1031A000F583E0800690021FE0FFE4FB7D011274CE
:1031B0002F90021BE004F00230D990021EE0FF9035
:1031C0000220F090021DE04440FBE4FD12742F90B9
:0E31D0000221E02A5407041274280A0230C7B4
:0131DE0022CE
:0727BE00900212EDF0AC07E0
:1027C500E490021AF0900220F0EC24FFFFE434FFBD
:1027D500FEEF7803CEC313CE13D8F990021BF0ECAD
:1027E50014540790021EF0EC2B145407A3F090022A
:1027F5001EE0FDFFEB2FFFE433FEEF7803CEC3139E
:10280500CE13D8F9FFED2B540760047E0180027EBC
:1028150000EE2FFF90021DF090021BE02F14A3F095
:10282500900212E0FD14543F900217F0ED24FFFFD3
:10283500E434FFFEEF7806CEC313CE13D8F9FF7448
:1028450001A807088002C333D8FC900218F0900253
:102855001AF090021EE0700302292E900218E0FF84
:10286500900217E04440FBE4FD12742F90021B1206
:1028750074279002181274F4E4900215F090021473
:10288500E0FFA3E0FEC39F4003022926EEFF90026E
:1028950012E02FFFE433CF24FFCF34FFFEEF78069D
:1028A500CEC313CE13D8F975F00384900216E5F064
:1028B500F0E0FF7401A807088002C333D8FCFF903D
:1028C5000219F0A3E06F600E900219E0FFA3F07B00
:1028D50040E4FD12742F9002191274F4900215E071
:1028E500FE2400F582E43400F583EFF074002EF544
:1028F50082E43400F583C083C082E0FF90021EE0CD
:10290500FEC374079EFE7480A806088003A2E71321
:10291500D8FB4FD082D083F0900215E004F0022856
:1029250082900218E090021AF090021FE0700302F4
:102935002A11900218E0FF900217E04440FBE4FDE5
:1029450012742F90021C1274279002181274F4E46A
:10295500900215F0900214E0FFA3E0FEC39F400330
:10296500022A09EEFF900212E02FFFE433CF24FF85
:10297500CF34FFFEEF7806CEC313CE13D8F975F02A
:102985000384900216E5F0F0E0FF7401A8070880C3
:1029950002C333D8FCFF900219F0A3E06F600E90DC
:1029A5000219E0FFA3F07B40E4FD12742F90021999
:1029B5001274F4900215E024C0F582E43400F58326
:1029C500EFF01D90021FE0FEEDC39E500AA3E02527
:1029D500E04401F00D80EC900215E024C0F582E49E
:1029E5003400F583C083C082E0FF900220E0FEEF53
:1029F5004ED082D083F0E4900220F0900215E004DE
:102A0500F0022959900218E090021AF0900218E09D
:102A1500FF900217E04440FBE4FD12742F90021B67
:102A2500127427E4FA90021DE0FFEAC39F400302F7
:102A35002B42E4900215F0900214E0FFA3E0FEC3E0
:102A45009F4003022B1EEEFF900212E02FFFE4339E
:102A5500CF24FFCF34FFFEEF7806CEC313CE13D8B5
:102A6500F975F00384900216E5F0F0E0FF7401A813
:102A750007088002C333D8FCFF900219F0A3E06F6A
:102A8500600E900219E0FFA3F07B40E4FD12742F65
:102A950090021EE0F9602EA3E0602A90021DE0B4CA
:102AA5000123900219E0FF900215E0FE24C0F58293
:102AB500E43400F583E0FD74002EF582E43400F57E
:102AC50083E05D803CE96018EA7015900219E0FF2B
:102AD500900215E02400F582E43400F583E08021BE
:102AE50090021FE0601E90021DE014B502169002D0
:102AF50019E0FF900215E024C0F582E43400F58367
:102B0500E0FB8007900219E0FF7BFF7D0112742F27
:102B1500900215E004F0022A3C900218E0FF9002B2
:102B25001AF0900217E04440FBE4FD12742F900266
:0D2B35001BE02A5407041274280A022A2A01
:012B42002270
:10746100A2A282A082A482A182A382C84038127CF7
:1074710012A2A282A082A482A182A382C840242057
:10748100A0037F012220A2037F022220A4037F0602
:107491002220A1037F052220C8037F032220A3030A
:0974A1007F04227F00227F0022FB
:0B7C76004E4F2E003A0D0A000D0A00D0
:103BB40048027B000000000000000048028302026B
:063BC400020202020202EF
:017CB50022AC
:067B2100C2C47F017E00DA
:107B2700EF1FAC0670011E4C6005127CB580F12278
:06796C00D2C47F017E0081
:10797200EF1FAC0670011E4C600E127CB5127CB576
:09798200127CB5127CB580E822EC
:107AA600D3EF9400EE9400400F7D817C14DCFEDD64
:087AB600FAEF1F70EB1E80E8DF
:017ABE0022A5
:10789A00E4FDD2C47F01FE127972C2C47F647E0005
:1078AA00127972D2C47F0C7E00127972A2C4E433B8
:0878BA00FD7F587E0002797287
:107B6100C2C412796CA2C4E433FD7F047E00127991
:037B710072AF05EB
:017B740022EE
:107BE300C2C4EF24FF92C47F057E00127972D2C40F
:017BF300226F
:10798B007B08127B21EDC313FD12796C30C404ED1F
:0E799B004480FD7F0A7E00127972DBE6AF05A4
:0179A90022BB
:0279AA00AD0727
:1079AC007B08127B21ED1392C47F0A7E0012797240
:0B79BC00D2C4127B23EDC313FDDBE7F8
:0179C700229D
:05736F0090020AEFF09E
:10737400E4FAFFFDFC12789A7FCC1279AA7F4412BA
:1073840079AA7FC87E00127AA612789A7FCC1279E5
:10739400AA7FBE1279AA12798BAA0712798BEFFE03
:1073A4007C00E42AFFEC3EFE7D1912174FAC06ADBB
:0C73B40007EF7802CEC313CE13D8F9FF08
:0173C00022AA
:0B770C0090020AEBF0A3EAF0A3E9F002
:1077170012789A7F331279AAE4A3F012798B900238
:107727000AE0FBA3E0FAA3E0F9A3E0F58275830082
:10773700EF12172D90020DE004F0E0C3940840DB30
:01774700221F
:0B7C46007F089002837402F0A3DFFCB3
:017C51002210
:106F970090020AEEF0A3EFF07C277D101217611222
:106FA7007C9990020AE0FEA3E0FF7C037DE81217BC
:106FB700617C007D0A121761AF05127C9990020A65
:106FC700E0FEA3E0FF7C007D641217617C007D0A70
:106FD700121761AF05127C997F2E127C8A90020AE4
:106FE700E0FEA3E0FF7C007D0A1217617C007D0AAA
:106FF700121761AF05127C9990020AE0FEA3E0FF29
:0C7007007C007D0A121761AF05027C9925
:0570130090020AEFF0FD
:10701800E4A3F090020AE0FFA3E0C39F50687BFF5F
:107028007A7C7976127B8990020BE004FF127783D1
:107038007BFF7A7C797A127B89E490020CF09002CB
:107048000CE0FFC39408502D90020BE075F008A4E3
:10705800247BF582E43402F583E5822FF582E4355A
:1070680083F583E0FF1277837F20127C8A90020CDD
:10707800E004F080C97BFF7A7C797E127B899002DC
:067088000BE004F0808D16
:01708E0022DF
:107BF400E4F5CF75CDC030070475CED02275CE40E4
:017C0400225D
:0D7C05008FCFE5CD30E7FB75CDC0AFCF22AE
:107B7500438920759840758DDC858D8BE4F587D21A
:047B8500ACD28E22CE
:087C8A008F993099FDC2992287
:02778300AE074F
:10778500EEC4540FFDC36480948AED500424308008
:107795000424F62461FF127C8AEE540FFDC3648035
:1077A500948AED50042430800424F62461FF127C71
:0177B5008A49
:0177B60022B0
:077C9900EF2430FF027C8A9A
:107B89001216D5FF600C127C8A740129F9E43AFABD
:037B990080EE2259
:0D77E9009002C6EBF0A3EAF0A3E9F0AE07B2
:1077F600E4FDEDC39E501A9002C6E0FBA3E0FAA397
:10780600E0F98D827583001216EEFF127C8A0D80D8
:01781600E190
:01781700224E
:03002300027A035B
:067A0300C0E0C083C08258
:0F7A090030980CC298C2AF900203E599F0D2AF4B
:077A1800D082D083D0E032E0
:067CA000000000000022BC
:05000600D2B7D2B622C2
:06000E0012794C1279CEBC
:0F001400D2B6D2B7127CA0C2B6127CA0C2B7225D
:0C7C5200C2B6D2B7127CA0D2B6027CA051
:0679C80012001412794CBC
:1079CE00D2B7127CA030B608C2B7127CA07F0022BC
:0879DE00C2B7127CA07F012258
:0C7C5E00C2B6D2B7127CA0C2B7027CA054
:0C7C6A00D2B6D2B7127CA0C2B7027CA038
:10794C00E4FEEF30E703D38001C392B6EF25E0FFEE
:0F795C00D2B7127CA0C2B7127CA00EEEB408E323
:01796B0022F9
:10784500E4FED2B6FDEE25E0FED2B7127CA030B63E
:10785500034401FEC2B7127CA00DEDB408E7EF604A
:0B78650005127C5E8003127C6AAF06F7
:0178700022F5
:107A71001279C8AC07AF0512794C1279CEAF031257
:0A7A8100794C1279CE127C52AF044A
:017A8B0022D8
:027ABF00AC0712
:107AC1001279C8AF0512000EEC04FF12794C12793D
:067AD100CEE4FF1278452F
:017AD700228C
:1073C100AD071279C8EF7006127C527F012290023C
:1073D100B3E0FF12000EED04FF12794C1279CE904A
:1073E10002B4E0FF6026B4010BE4FF127845EF120E
:1073F100171B80107F01127845EF12171B740129AA
:10740100F9E43AFA9002B4E014F080D3127C527F8E
:02741100002257
:10768A001279C8EF7002801E9002B9E0FF12794C9D
:10769A001279CE9002BAE060221216D5FF12794C06
:1076AA001279CEEF7006127C527F0122740129F9F9
:1076BA00E43AFA9002BAE014F080D8127C527F00C1
:0176CA00229D
:103BCA004102C1004102C2004102C3004102C400D5
:043BDA004102C500DF
:0C7C12007FB27E787D0CDDFEDEFADFF62E
:017C1E002243
:0C7C1F007FB27EE67D0CDDFEDEFADFF6B3
:017C2B002236
:0C7C2C007FD97EAB7D49DDFEDEFADFF67D
:017C38002229
:1077B700EF24FE601214601714601C2403702090DD
:1077C70002C1E05401FF229002C1E05402FF22905F
:1077D70002C1E05404FF229002C1E05408FF227F57
:0277E70000227E
:1071B700EF24FE601D14602D14603D2403704B9076
:1071C70002C1E054FEF090020EA3A3A3E09002C216
:1071D700F0229002C1E054FDF090020EA3A3A3E0B9
:1071E7009002C3F0229002C1E054FBF090020EA37C
:1071F700A3A3E09002C4F0229002C1E054F7F090FC
:0B720700020EA3A3A3E09002C5F0223A
:1075C0009002C2E0600414F080079002C1E0440120
:1075D000F09002C3E0600414F080079002C1E04420
:1075E00002F09002C4E0600414F080079002C1E051
:1075F0004404F09002C5E0600314F0229002C1E060
:047600004408F02228
:1074AA00454550524F4D20736563746F72312068A1
:1074BA00617320646174612E0D0A00454550524F74
:1074CA004D20736563746F72322068617320646142
:1074DA0074612E0D0A00726F6F6D20697320636CE0
:0774EA0065616E2E0D0A0022
:0D7C3900E4F5C7F5C5F5C675C380F5C42296
:107AD80075C78375C5018FC4EEF5C375C65A75C6DB
:087AE800A50000AFC2127C39B9
:017AF0002273
:107A8C0075C78375C5028FC4EEF5C3AF058FC2757C
:0A7A9C00C65A75C6A50000027C3929
:107B370075C78375C5038FC4EEF5C375C65A75C679
:067B4700A50000027C39DC
:056AEE00900232EFF000
:106AF300E4900235F0A3F0EF30E03FE4900233F08E
:106B0300A3F0900233E0FEA3E0FFC3EE9402502A09
:106B1300127AD8EFF460137BFF7A7479AA127B8917
:106B2300900235E4F0A304F08010900234E004F006
:106B330070D0900233E004F080C8900232E030E17C
:106B430046E4A3F0A3F0900233E0FEA3E0FFC3EE1C
:106B530094025033E42FFFEE3402FE127AD8EFF49E
:106B630060157BFF7A7479C5127B89900235E0F05A
:106B7300A3E04402F08010900234E004F070C79068
:106B83000233E004F080BF900235E07002A3E070AE
:106B9300097BFF7A7479E0127B89900235A3E0FFC9
:016BA30022CF
:103BDE004C02550000000000000000000000004CE8
:103BEE00024700000000000000000000000041023B
:0C3BFE0053004102540043024401028DB8
:017CB60022AB
:017CB70022AA
:106E1500900257E0FEB41007A3E070037F0122EE55
:106E25006411706E900258E07068A3E0FF90024410
:106E3500E0FBA3E0FAA3E0F9EF12171B90025AE07A
:106E4500FF900244E0FBA3E0FAA3E0F9900001EF14
:106E550012172D90025BE090000212172D90025C34
:106E6500E090000312172D90025DE09000041217C8
:106E75002D90025EE090000512172D90025FE090C4
:106E8500000612172D900260E090000712172D7F63
:056E950002227F002233
:106C53006C6F63616C2074656D703A0D0A000D0AE8
:106C63000041444320646174613A0D0A006D617808
:106C7300206461746120736176652E0D0A0061746E
:106C83002030206C6576656C2E666C675F66756C6C
:106C93005F656D7479203A0D0A006D696E20646139
:106CA300746120736176652E0D0A005254206C6561
:106CB30076656C20646174612E0D0A006D696E2027
:106CC300646174612E0D0A006D61782064617461E2
:106CD3002E0D0A0063616C207065630D0A00706FEE
:106CE30073737720646174613A0D0A00666C6F7781
:096CF30020646174613A0D0A008D
:103C0A0048028D00000000024401FF44029522B8D8
:0A3C1A0022B841028C3241028B00F7
:1076CB007F0112736F900297EEF0A3EFF07BFF7ABE
:1076DB006C7953127B89900297E0FEA3E0FF126F47
:1076EB00977BFF7A6C7961127B89D3900298E09437
:1076FB0088900297E0941340077422F0A374B8F0BB
:01770B00225B
:107818007BFF7A6C7964127B89900291E0FF127782
:1078280083900292E0FF1277837BFF7A6C79611272
:0D7838007B89900291E0FEA3E0FDEDFF22B0
:1037A600900278E0FEA3E0FFC3900277E09FFD90D1
:1037B6000276E09EFCE4121525A804A905AA06AB2C
:1037C60007E4FFFE7DC87C4212148390020A121998
:1037D60013900278E0FCA3E0FDE412152590020E9A
:1037E600121913127818900212EEF0A3EFF090025D
:1037F60094E05410704F90028C7464F090028BE049
:1038060060030239EC04F0900212E0FFA3E090029C
:1038160076CFF0A3EFF07BFF7A6C7970127B8990FC
:103826000212E0FFA3E0900276CFF0A3EFF0781843
:103836007C027D017B017A02796E7E007F0D121675
:10384600AF7F068079900294E05401600302390D3F
:1038560090028CF07BFF7A6C7981127B8990028BC7
:10386600E0FF1277837BFF7A6C7961127B89900285
:103876008BE060030239EC04F0900212E0FFA3E053
:10388600900278CFF0A3EFF07BFF7A6C799D127BE4
:1038960089900278A3E0FF127783900212E0FFA3DB
:1038A600E0900278CFF0A3EFF078187C027D017BE0
:1038B600017A02796E7E007F0D1216AF7F07124DD8
:1038C6002B900278E0FEA3E0FFC3900277E09FFD15
:1038D600900276E09EFCE4121525A804A905AA0626
:1038E600AB07E4FFFE7DC87C4212148390020A12E5
:1038F6001913900278E0FCA3E0FDE412152590026E
:103906000E1219130239ECE490028BF0900212E0C9
:10391600FCA3E0FDEC12152590020EE0F8A3E0F9F9
:10392600A3E0FAA3E0FB12128512155E900212EED6
:10393600F0A3EFF0C3EE648094805007E490021287
:10394600F0A3F0900212E0FCA3E0FDEC1215259026
:10395600020AE0F8A3E0F9A3E0FAA3E0FB12137A67
:1039660012155E90028CEFF0D3946440037464F0F9
:103976007BFF7A6C79AE127B89900212E0FF339559
:10398600E0127783900212A3E0FF1277837BFF7A1F
:103996006C7961127B897BFF7A6C79BF127B899087
:1039A6000278A3E0FF1277837BFF7A6C7961127B42
:1039B600897BFF7A6C79CB127B89900276A3E0FF34
:1039C6001277837BFF7A6C7961127B897BFF7A6C35
:1039D60079D7127B8990028CE0FF1277837BFF7A7E
:1039E6006C7961127B897BFF7A6C79E1127B899015
:1039F6000294E0FF1277837BFF7A6C7961127B89F0
:103A06007BFF7A6C79EF127B89900293E0FF127745
:0A3A1600837BFF7A6C7961027B89E3
:106A34003A0020002A0021003F00484F4D45004302
:106A440000300031003200330034003500360037A6
:106A540000380039002E002500000000000000006E
:106A64000000000000000000000000000000000022
:106A74000000000000000000000000000000000012
:106A84000000000000000000000000000000000002
:106A940000000000000000000000000000000000F2
:106AA40000000000000000000000000000000000E2
:106AB40000000000000000000000000000000000D2
:106AC40000000000000000000000000000000000C2
:106AD400000000000000000000000000F0FFF000D3
:0A6AE4001CFFFFFF1C00FFFFFF0076
:103C2400C1064102C000C1054102BB004102BC0102
:0C3C34004102BD004102BE004102BF0081
:107AF100900295E0FEA3E0FFE4FCFD90020C121958
:087B0100137D167F0102539071
:107B0900900297E0FEA3E0FFE4FCFD90020C12193D
:087B1900137D0E7F040253905E
:0570F600900180EFF0A5
:1070FB0078817C017D017BFF7A6A795D7E007F82DE
:10710B001216AF900180E0602FB20530051B900284
:10711B00107405F0A374FFF0A3746AF0A374DFF08E
:10712B007B187D377F11025A8E90021A7405F07B03
:10713B00187D377F11022E9930051190021A7405B4
:0C714B00F07B187D377F11122E99C205D1
:017157002215
:10229F00E490020CF0A37406F0A314F0A312191F1C
:1022AF000000000090021312191F0000000090029E
:1022BF00C0E0707B90026EE070089002CB74210238
:1022CF0027B812792B7BFF7A0579EEE4900227F07D
:1022DF007D047F01125D057BFF7A06790EE4900283
:1022EF0027F07D057F01125D057BFF7A06792EE4CD
:1022FF00900227F07D067F01125D057BFF7A06793C
:10230F004EE4900227F07D077F01125D057BFF7A77
:10231F0006796EE4900227F07D087F01125D057B40
:10232F00FF7A6A7934E490021DF07D110223C59083
:10233F0002C0E0640360030223D212792B7BFF7A81
:10234F000579EEE4900227F07D047F01125D057B95
:10235F00FF7A06790EE4900227F07D057F01125D6A
:10236F00057BFF7A06792EE4900227F07D067F0128
:10237F00125D057BFF7A08798EE4900227F07D07C6
:10238F007F01125D057BFF7A06794EE4900227F0FC
:10239F007D087F01125D057BFF7A06796EE490025E
:1023AF0027F07D097F01125D057BFF7A6A7934E49E
:1023BF0090021DF07D137F0112715890020CE0FF07
:1023CF0012520B12746190020BEFF060F6E0FEB444
:1023DF0001089002CB74100227B8EE6403704F907F
:1023EF00020DE0FF04F0D3EF648094865038E025AF
:1023FF00E0FFC374139FFD7BFF7A6A7936E4900286
:10240F001DF07F0212715890020FE0FCA3E0FDA3B4
:10241F00E0FEA3E0FFE47B0AFAF9F81276049002DB
:10242F000F121913802090020D7406F0801890027D
:10243F000BE0FFB40506A3E014F0800AEFB4060624
:10244F0090020CE004F090020CE0FFD36480948AB9
:10245F004004E4F0800EC3EF648094805006900235
:10246F000C740AF090020CE0FF12520B90020BE07A
:10247F00640260030223D2A3E0B40A179002C0E003
:10248F009002CB700574100227B87421F0A374501A
:10249F000226E290020DE0FF14F0D3EF64809480E7
:1024AF00406790020FE0FCA3E0FDA3E0FEA3E0FF76
:1024BF00E47B0AFAF9F812180F90020F1219139011
:1024CF00020FE0F8A3E0F9A3E0FAA3E0FB90020CFF
:1024DF00E0FF3395E0FEFDFCEB2FFFEA3EFEE93D0A
:1024EF00FDE83CFC90020F12191390020DE025E05D
:1024FF00FFC374119FFD7BFF7A6A7938E490021D48
:10250F00F07F021271580223D29002C0E064036080
:10251F00030225FC7402F090020FE0FCA3E0FDA380
:10252F00E0FEA3E0FFA312191390021A74C0F07B10
:10253F00207D017F01122E997BFF7A0579EEE490C1
:10254F000227F07D037F01125D057BFF7A0879AECC
:10255F00E4900227F07D047F01125D057BFF7A086E
:10256F0079CEE4900227F07D057F01125D057BFF98
:10257F007A06790EE4900227F07D067F01125D0541
:10258F007BFF7A06792EE4900227F07D077F0112F8
:10259F005D057BFF7A08798EE4900227F07D087F36
:1025AF0001125D057BFF7A06794EE4900227F07DDC
:1025BF00097F01125D057BFF7A06796EE490022791
:1025CF00F07D0A7F01125D057BFF7A6A7934E49012
:1025DF00021DF07D157F0112715890020D7406F0E7
:1025EF0090020F12191F000000000223D29002C0A8
:1025FF00E0640260030226E6900213E0FCA3E0FD14
:10260F00A3E0FEA3E0FF90020FE0F8A3E0F9A3E040
:10261F00FAA3E0FBC312186C703E900213E0FCA308
:10262F00E0FDA3E0FEA3E0FF90026F1219137818EC
:10263F007C027D017B017A02796E7E007F0D12167E
:10264F00AF7F02124D2B9002CB7421F0A37450F088
:10265F009002C07401F0FF2290021A74C0F07B1038
:10266F007D017F11122E997BFF7A06794EE490023D
:10267F0027F07D057F02125D057BFF7A06796EE4F8
:10268F00900227F07D067F02125D057BFF7A0879A5
:10269F00EEE4900227F07D077F02125D057BFF7A43
:1026AF0009790EE4900227F07D087F02125D057B09
:1026BF00FF7A6A793AE490021DF07D117F02127160
:1026CF0058127C2C9002CB7421F0A37450F090021E
:1026DF00C07404F07F00229002C0E060030223D296
:1026EF0090020FE0FCA3E0FDA3E0FEA3E0FF900249
:1026FF006FE0F8A3E0F9A3E0FAA3E0FBC31218829E
:10270F00700C9002CB7421F0A3E4F07F01229002B1
:10271F001A74C0F07B107D017F11122E997BFF7A06
:10272F0006794EE4900227F07D057F02125D057B4E
:10273F00FF7A06796EE4900227F07D067F02125D24
:10274F00057BFF7A06798EE4900227F07D077F02E2
:10275F00125D057BFF7A0679AEE4900227F07D08C3
:10276F007F02125D057BFF7A6A793AE490021DF0D1
:10277F007D117F02127158127C2C90021A74C0F0D6
:10278F007B107D017F11122E9990020D7406F0902F
:10279F00020F12191F0000000090020EE014F060EB
:0E27AF00030223D29002CB7410F0A3E4F0FFDB
:0127BD0022F9
:106BA40090020B7401F0E4A3F012792B026C4512ED
:106BB4007461EF60FA64016004EFB4050A9002CBDB
:106BC4007410F0A3E4F022EFB4032090020BE0145D
:106BD400F0E0FEC36480948150067407F0A3802C17
:106BE400EEB4040590020C80238026EFB4042990AF
:106BF400020BE004F0E0FED3648094874007740144
:106C0400F0A3F0803CEEB4050890020C7401F0800F
:106C140030E490020CF08029EF64026004EFB406C3
:106C24002090020BE0FF3395E0FEEFC4F8540FC848
:106C340068FFEEC454F04844219002CBF0A3EFF077
:0F6C44002290020BE0FFA3E0FD121B23026BB3B3
:10629C0090020C7401F012792B7BFF7A04798EE456
:1062AC00900227F07D047F01125D057BFF7A047953
:1062BC00AEE4900227F07D057F01125D057BFF7A2D
:1062CC000379AEE4900227F07D067F01125D057B19
:1062DC00FF7A0379CEE4900227F07D077F01125DEF
:1062EC000590020CE0FF12568712746190020BEFBE
:1062FC00F060F6E0FFB401079002CB74108051EF10
:10630C00B405079002CB74218046EFB403139002BE
:10631C000CE014F0E0C364809480501A7402F08096
:10632C001590020BE0B4040EA3E004F0E0D36480FB
:10633C0094824002E4F090020CE0FF125687900227
:10634C000BE0640270A3A3E0FF700A9002CB7421EF
:10635C00F0A3E4F022EFB4010790027A7401800BF1
:10636C0090020CE06402708190027AF09002CB747F
:10637C0021F0A3E4F078187C027D017B017A02798C
:0C638C006EFE7F0D1216AF7F08124D2B25
:0163980022E2
:1044970090020B7403F0E4A3F012792B7BFF7A01EF
:1044A70079EEE4900227F07D027F01125D057BFF24
:1044B7007A02790EE4900227F07D037F01125D05F1
:1044C7007BFF7A0679CEE4900227F07D047F011204
:1044D7005D057BFF7A0079CEE4900227F07D057FAA
:1044E70001125D057BFF7A0079CEE4900227F07D0B
:1044F700067F01125D057BFF7A0079EEE4900227C3
:10450700F07D077F01125D057BFF7A0379AEE490AA
:104517000227F07D087F01125D057BFF7A0379CEC4
:10452700E4900227F07D097F01125D0502465412CF
:104537007461EF60FAB401089002CB74100246115F
:10454700EFB4051690020BE004F0E0D36480948387
:104557005003024654E4F0024654EFB406179002A3
:104567000BE014F0E0C36480948040030246547467
:1045770003F0024654EF6403704690020BE0FEB46A
:104587000106A3E004F08018EEB4020990020CE0E3
:10459700240AF0800BEEB4030790020CE02464F0C9
:1045A70090020CE0FEC364809480400BD3EE6480DD
:1045B70094E4500302465490020C7464F00246548B
:1045C700EF6404703590020BE0FEB40106A3E0141B
:1045D700F08018EEB4020990020CE024F6F0800B8C
:1045E700EEB4030790020CE0249CF090020CE0C3A9
:1045F700648094805057E4F08053EF6402704E90CB
:10460700020BE0700A9002CB7421F0A3E4F0229031
:104617000275E0FF90020CE0FDFB3395E0FAC3EB77
:104627009F7480F86A985025900274EDF09002CB41
:104637007421F0A3E4F078187C027D017B017A02F3
:10464700796EFE7F0D1216AF7F04024D2B90020C80
:0D465700E0FF90020BE0FD125E38024536D8
:1042C90090020B7403F0A37464F012792B7BFF7ACC
:1042D9000179EEE4900227F07D027F01125D057BF2
:1042E900FF7A02790EE4900227F07D037F01125DC7
:1042F900057BFF7A07794EE4900227F07D047F0160
:10430900125D057BFF7A0079CEE4900227F07D05E6
:104319007F01125D057BFF7A0079CEE4900227F0D8
:104329007D067F01125D057BFF7A0079EEE490023C
:1043390027F07D077F01125D057BFF7A0379AEE4E3
:10434900900227F07D087F01125D057BFF7A0379D2
:10435900CEE4900227F07D097F01125D05024487B2
:10436900127461EF60FAB401089002CB7410024430
:1043790044EFB4051690020BE004F0E0D364809496
:10438900835003024487E4F0024487EFB406179090
:10439900020BE014F0E0C364809480400302448778
:1043A9007403F0024487EF6403704690020BE0FE49
:1043B900B40106A3E004F08018EEB4020990020CDF
:1043C900E0240AF0800BEEB4030790020CE02464A9
:1043D900F090020CE0FEC364809480400BD3EE643D
:1043E9008094E4500302448790020C7464F0024400
:1043F90087EF6404703590020BE0FEB40106A3E078
:1044090014F08018EEB4020990020CE024F6F08052
:104419000BEEB4030790020CE0249CF090020CE030
:10442900C3648094805057E4F08053EF6402704E67
:1044390090020BE0700A9002CB7421F0A3E4F02201
:10444900900274E0FF90020CE0FDFB3395E0FAD393
:10445900EB9F7480F86A984025900275EDF0900200
:10446900CB7421F0A3E4F078187C027D017B017AFA
:1044790002796EFE7F0D1216AF7F05024D2B900259
:0E4489000CE0FF90020BE0FD125E380243696A
:1031DF0090020C7401F0780D7C02FDFB7A0279A647
:1031EF007E007F091216AF12792B7BFF7A0179CE01
:1031FF00E4900227F07D047F01125D057BFF7A05C5
:10320F00790EE4900227F07D057F01125D057BFFAB
:10321F007A01790EE4900227F07D067F01125D0599
:10322F007BFF7A01792EE4900227F07D077F011250
:10323F005D057BFF7A0379AEE4900227F07D087F6E
:10324F0001125D057BFF7A0379CEE4900227F07DB2
:10325F00097F01125D05900213E0FEA3E0FFE4FC7D
:10326F00FD900225121913E4900229F07B047D08CA
:10327F007F021249D77BFF7A01798EE4900227F003
:10328F007D057F02125D057BFF7A0179AEE4900226
:10329F0027F07D077F02125D057BFF7A0179CEE46F
:1032AF00900227F07D097F02125D057BFF7A6A7914
:1032BF0034E490021DF07D077F031271587BFF7A73
:1032CF006A7934E490021DF07D0A7F031271587BF6
:1032DF00FF7A0479EEE4900227F07D087F03125DF8
:1032EF00057BFF7A05790EE4900227F07D097F03B5
:1032FF00125D05122B4312746190020BEFF060F612
:10330F00E0FFB401089002CB741002351DEFB40634
:10331F001690020CE004F0E0D3648094895003020D
:10332F0034E1E4F00234E190020BE0FFB40515A3A1
:10333F00E014F0E0C36480948040030234E1740928
:10334F00F00234E1EF6403600302341F90020CE0DB
:10335F00FFB40210900214E004F07053900213E0D7
:10336F0004F0804BEFB40110900214E0240AF090A7
:10337F000213E03400F08037EFB40305900212809F
:10338F002BEFB404059002108022EFB405059002D4
:10339F000F8019EFB4060590020E8010EFB40705E9
:1033AF0090020D8007EFB40806900211E004F0D3ED
:1033BF00900214E09433900213E0940840077407CE
:1033CF00F0A374D0F0900212E0D3940C4003740178
:1033DF00F0900210E0D3941F40037401F090020F9D
:1033EF00E0D394174002E4F090020EE0D3943B40F8
:1033FF0002E4F090020DE0D3943B4002E4F090021F
:10340F0011E0D3940750030234E17401F00234E168
:10341F0090020BE0640460030234E1A3E0FFB40206
:10342F0008900214E024FF800AEFB40110900214F8
:10343F00E024F6F0900213E034FFF08037EFB4038E
:10344F0005900212802BEFB404059002108022EF3A
:10345F00B4050590020F8019EFB4060590020E8097
:10346F0010EFB4070590020D8007EFB40806900225
:10347F0011E014F0C3900214E094D0900213E09482
:10348F000750077408F0A37433F0900212E0C3944E
:10349F000150037401F0900210E0C39401500374C3
:1034AF0001F090020FE0D3941740037417F09002CD
:1034BF000EE0D3943B4003743BF090020DE0D394A5
:1034CF003B4003743BF0900211E0C394015003742E
:1034DF0007F0122B4390020BE064026003023305E6
:1034EF00A3E0FF70079002CB74218022EF64096084
:1034FF000302330578167C027D017B017A02790D78
:10350F00FE7F091216AF1267229002CB7421F0A32F
:02351F00E4F0D6
:013521002287
:104ED00090020B7401F0E4A3F090026EE090020DDA
:104EE000F09002C0E06401706612792B90020B749E
:104EF00002F07BFF7A0379AEE4900227F07D047F15
:104F000002125D057BFF7A0379CEE4900227F07DE3
:104F1000057F02125D057BFF7A08790EE490022777
:104F2000F07D067F02125D057BFF7A08792EE49002
:104F30000227F07D077F02125D057BFF7A6A793ACE
:104F4000E490021DF07D0F7F02127158127C2CE458
:104F50009002C0F012792B7BFF7A06794EE4900222
:104F600027F07D057F01125D057BFF7A06796EE4EF
:104F7000900227F07D067F01125D057BFF7A0379A1
:104F8000AEE4900227F07D077F01125D057BFF7A7A
:104F90000379CEE4900227F07D087F01125D0502BF
:104FA0005062127461EF60FAB401089002CB741081
:104FB00002505DEFB4031690020BE014F0C364805E
:104FC000948040030250627403F0025062EFB40414
:104FD0001490020BE004F0D36480948350030250D9
:104FE00062E4F0807DEF64056004EFB4061B90027C
:104FF0000BE06401706C90020DE070047E01800291
:105000007E0090020DEEF08059EF64027054900221
:105010000BE0FFB402109002CB7420F0A3E4F090F8
:1050200002C07403F022EFB4032890020DE0900256
:105030006EF09002CB7421F0A3E4F078187C027D2E
:10504000017B017A02796EFE7F0D1216AF7F01029D
:105050004D2B90020BE0700A9002CB7421F0A3E478
:10506000F02290020DE0FF90020BE0FD123ECE0216
:025070004FA24D
:105F540090020B7401F012792B7BFF7A07796EE4BF
:105F6400900227F07D047F01125D057BFF7A07799B
:105F74008EE4900227F07D057F01125D057BFF7A98
:105F84000379AEE4900227F07D067F01125D057B64
:105F9400FF7A0379CEE4900227F07D077F01125D3A
:105FA40005026064127461EF60FAB401089002CBD8
:105FB400741002605FEFB405089002CB7421026094
:105FC4005FEFB4031790020BE014F0E0C364809415
:105FD4008040030260647402F0026064EFB404124F
:105FE40090020BE004F0E0D3648094824072E4F009
:105FF400806EEF6402706990020BE0FF70079002FC
:10600400CB74218056EFB401289002737401F09090
:1060140002CB7421F0A3E4F0C2CB78187C027D019A
:106024007B017A02796EFE7F0D1216AF7F03024D5B
:106034002B90020BE0B40228E4900273F0D2CB78E8
:10604400187C027D017B017A02796EFE7F0D1216A7
:10605400AF7F03124D2B9002CB7421F0A3E4F02206
:0B60640090020BE0FF1257E8025FA85B
:10618A0090020B7401F0E4A3F012792B7BFF7A09D9
:10619A00794EE4900227F07D047F01125D057BFFB2
:1061AA007A09796EE4900227F07D057F01125D0578
:1061BA007BFF7A09798EE4900227F07D067F01122F
:1061CA005D057BFF7A0979AEE4900227F07D077FAF
:1061DA0001125D057BFF7A6A793CE490021DF07D2D
:1061EA000F7F0112715802628C127461EF60FAB467
:1061FA0001089002CB7410026287EF64056004EF15
:10620A00B4061990020BE064017077A3E070047E73
:10621A000180027E0090020CEEF08066EFB4031358
:10622A0090020BE014F0E0C364809480505474022E
:10623A00F0804FEFB4041290020BE004F0E0D36454
:10624A00809482403DE4F08039EF64027034900219
:10625A000BE0FF70079002CB74218021EFB4022279
:10626A0078187C027D017B017A0279617E007F0DBC
:10627A001216AFE4FF124D2B9002CB7421F0A3E467
:10628A00F02290020CE0FF90020BE0FD12550F0283
:02629A0061F3AE
:017CB80022A9
:0563990090020BEFF083
:10639E00A37401F0EFF4600330060DE490020BF0ED
:1063AE0012792B124828803F90020BE0FFB40506AD
:1063BE00A3E004F0800AEFB4060690020CE014F09D
:1063CE0090020CE0FFD36480948340057401F0804A
:1063DE000EC3EF64809481500690020C7403F0900B
:1063EE00020CE0FF12606F90020E12191F000000E7
:1063FE000A7F011271B712746190020BEFF0606B9D
:10640E0090020E12191F0000000A7F011271B79040
:10641E00020BE0FDB4020FA3E0FFEFC454F09002B4
:10642E00CBF0A3E4F022EDB40102804790020BE022
:10643E00FFB40506A3E004F0800AEFB4060690024E
:10644E000CE014F090020CE0FFD3648094834005BE
:10645E007401F0800EC3EF64809481500690020C9C
:10646E007403F090020CE0FF12606F7F011277B799
:0A647E00EF6083E49002CBF0A3F07E
:0164880022F1
:0564890090020DEFF090
:10648E009002BBE06F601790021A7440F07B107D93
:10649E00717F11122E9990020DE09002BBF09002C6
:1064AE000DE030E2087BFF7A0B792E800D90020D05
:1064BE00E030E01B7BFF7A0A79CEE4900227F07D74
:1064CE000A7F02125D057BFF7A0A79EE02656B90F8
:1064DE00020DE030E13E7BFF7A01794EE490022717
:1064EE00F07D087F02125D057BFF7A01796EE490E4
:1064FE000227F07D097F02125D057BFF7A06798EF9
:10650E00E4900227F07D0A7F02125D057BFF7A067A
:10651E0079AE804990020DE07BFF30E72A7A06794A
:10652E00CEE4900227F07D097F02125D057BFF7A93
:10653E000079CEE4900227F07D0A7F02125D057B82
:10654E00FF7A0B790E80167A0279EEE4900227F02C
:10655E007D0A7F02125D057BFF7A03790EE49002BD
:09656E0027F07D0B7F02125D0590
:016577002201
:05731B0090020DEFF0EF
:107320009002BCE06F601790021A7440F07B107DF1
:10733000717F21122E9990020DE09002BCF0900214
:107340000DE07BFF70067A0479CE80057A0179EE34
:10735000E4900227F07D0A7F03125D057BFF7A022D
:0E736000790EE4900227F07D0B7F03125D058D
:01736E0022FC
:10482800C206900210743EF0A374FFF0A3740BF05C
:10483800A3745EF07B2D7D017F01125A8E7BFF7A77
:1048480001790EE4900227F07D057F01125D057B5A
:10485800FF7A01792EE4900227F07D067F01125D30
:10486800057BFF7A6A7934E490021DF07D0D7F01A3
:104878001271589002A8E0FFE4FCFDFE9002251298
:104888001913E4900229F07B027D107F011249D7A9
:104898007BFF7A6A7934E490021DF07D117F011262
:1048A80071589002A7E0FFE4FCFDFE900225121962
:1048B80013E4900229F07B027D137F011249D77B14
:1048C800FF7A6A7934E490021DF07D147F01127139
:1048D800589002A6E0FFE4FCFDFE90022512191391
:1048E800E4900229F07B027D167F011249D77BFFF5
:1048F8007A0279AEE4900227F07D057F02125D0509
:104908007BFF7A0279CEE4900227F07D067F0212BF
:104918005D057BFF7A6A7934E490021DF07D0D7F96
:10492800021271589002CEE0FF1264897BFF7A046C
:10493800798EE4900227F07D057F03125D057BFFE9
:104948007A0479AEE4900227F07D067F03125D05B4
:104958007BFF7A6A7934E490021DF07D0D7F0312A3
:10496800715890027AE0FF12731B7BFF7A03792E4D
:10497800E4900227F07D027F04125D057BFF7A0335
:10498800794EE4900227F07D037F04125D057BFFDA
:104998007A0379AEE4900227F07D067F04125D0564
:1049A8007BFF7A0379CEE4900227F07D077F04121B
:1049B8005D057BFF7A6A793E90021D7401F07D13D4
:0F49C8007F0412715890028CE0FF7D01023522AE
:103C7800D2067BFF7A0079CEE4900227F07D037F9D
:103C880001125D057BFF7A0079EEE4900227F07D52
:103C9800047F01125D057BFF7A0179EEE49002272B
:103CA800F07D057F01125D057BFF7A02790EE490B5
:103CB8000227F07D067F01125D057BFF7A02792ECF
:103CC800E4900227F07D077F01125D057BFF7A02F1
:103CD800794EE4900227F07D087F01125D057BFF95
:103CE8007A02796EE4900227F07D097F01125D0562
:103CF8007BFF7A02798EE4900227F07D0A7F011219
:103D08005D059002ACE0FEA3E0FFE4FCFD90022517
:103D1800121913E4900229F07B047D0A7F021249EC
:103D2800D77BFF7A01798EE4900227F07D067F0227
:103D3800125D059002ABE0FFE4FCFDFE9002251247
:103D48001913E4900229F07B027D0E7F021249D7F5
:103D58007BFF7A0179AEE4900227F07D087F02129A
:103D68005D059002A9E0FFE4FCFDFE900225121912
:103D780013E4900229F07B027D127F021249D77B5F
:103D8800FF7A0179CEE4900227F07D0A7F02125D66
:103D9800059002A8E0FFE4FCFDFE9002251219132D
:103DA800E4900229F07B027D067F031249D77BFF4E
:103DB8007A6A7934E490021DF07D077F0312715806
:103DC8009002A7E0FFE4FCFDFE900225121913E41F
:103DD800900229F07B027D097F031249D77BFF7A85
:103DE8006A7934E490021DF07D0A7F0312715890BD
:103DF80002A6E0FFE4FCFDFE900225121913E490F0
:103E08000229F07B027D0C7F031249D77BFF7A04DD
:103E180079EEE4900227F07D087F03125D057BFFB1
:103E28007A05790EE4900227F07D097F03125D057B
:103E38009002AAE014B407005065903E5075F00354
:103E4800A4C58325F0C58373023E65023E6D023E1C
:103E580075023E7D023E85023E8D023E957BFF7ACD
:103E680005792E802E7BFF7A05794E80267BFF7A96
:103E780005796E801E7BFF7A05798E80167BFF7A26
:103E88000579AE800E7BFF7A0579CE80067BFF7AB6
:103E980004796EE4900227F07D0A7F03125D051213
:103EA8007B097BFF7A0B794EE4900241F07D0F7F0E
:103EB80004125BD17BFF7A6A7943E490021DF07D9E
:063EC800107F0402715896
:10708F009002A8E0FFE4FCFDFE900225121913E424
:10709F00900229F07B027D107F011249D79002A741
:1070AF00E0FFE4FCFDFE900225121913E490022983
:1070BF00F07B027D137F011249D79002A6E0FFE417
:1070CF00FCFDFE900225121913E4900229F07B02B9
:1070DF007D167F011249D79002CEE0FF126489908E
:0770EF00027AE0FF02731BAF
:1072C4009002A8E0FFE4FCFDFE900225121913E4ED
:1072D400900229F07B027D067F031249D79002A712
:1072E400E0FFE4FCFDFE900225121913E49002294C
:1072F400F07B027D097F031249D79002A6E0FFE4E8
:10730400FCFDFE900225121913E4900229F07B0281
:077314007D0C7F030249D745
:10606F00EF24FE606314700302612D2402600302AB
:10607F0061897BFF7A03792EE4900227F07D027FFE
:10608F0004125D057BFF7A03794EE4900227F07DC1
:10609F00037F04125D057BFF7A0379AEE49002273C
:1060AF00F07D067F04125D057BFF7A0379CEE490C5
:1060BF000227F07D077F04125D057BFF7A6A793E28
:1060CF0090021D74010261817BFF7A03792EE490A7
:1060DF000227F07D027F04125D057BFF7A03794E64
:1060EF00E4900227F07D037F04125D057BFF7A03A6
:1060FF0079AE9002277401F07D067F04125D057B57
:10610F00FF7A0379CE9002277401F07D077F041286
:10611F005D057BFF7A6A793EE490021D80547BFF18
:10612F007A03792E9002277401F07D027F04125DAD
:10613F00057BFF7A03794E9002277401F07D037F70
:10614F0004125D057BFF7A0379AEE4900227F07DA0
:10615F00067F04125D057BFF7A0379CEE490022758
:10616F00F07D077F04125D057BFF7A6A793EE4902C
:0B617F00021DF07D137F0412715822F6
:10520B00900217EFF07BFF7A6A7945700690021DCA
:10521B00048004E490021DF07D037F03127158900B
:10522B000217E07BFF7A6A7947B4010790021D747D
:10523B00018004E490021DF07D057F0312715890EC
:10524B000217E07BFF7A6A7949B4020790021D745A
:10525B00018004E490021DF07D077F0312715890CA
:10526B000217E07BFF7A6A794BB4030790021D7437
:10527B00018004E490021DF07D097F0312715890A8
:10528B000217E07BFF7A6A794DB4040790021D7414
:10529B00018004E490021DF07D0B7F031271589086
:1052AB000217E07BFF7A6A794FB4050790021D74F1
:1052BB00018004E490021DF07D0D7F031271589064
:1052CB000217E07BFF7A6A7951B4060790021D74CE
:1052DB00018004E490021DF07D0F7F031271589042
:1052EB000217E07BFF7A6A7953B4070790021D74AB
:1052FB00018004E490021DF07D117F031271589020
:10530B000217E07BFF7A6A7955B4080790021D7487
:10531B00018004E490021DF07D137F0312715890FD
:10532B000217E07BFF7A6A7957B4090790021D7464
:10533B00018004E490021DF07D157F0312715890DB
:10534B000217E07BFF7A0379EEB40A1A90022774F6
:10535B0001F07D0A7F04125D057BFF7A04790E90C4
:10536B00022774018016E4900227F07D0A7F041255
:10537B005D057BFF7A04790EE4900227F07D0B7FAD
:05538B0004125D052283
:1056870090020DEFF064017BFF7A6A7947703E90D4
:10569700021D04F0FD7F021271587BFF7A6A795967
:1056A70090021D7401F07D027F021271587BFF7A10
:1056B7000179EE9002277401F07D027F02125D05E9
:1056C7007BFF7A02790E9002277401803AE49002F8
:1056D7001DF07D017F021271587BFF7A6A7959E4C8
:1056E70090021DF07D027F021271587BFF7A0179CB
:1056F700EEE4900227F07D027F02125D057BFF7AC0
:1057070002790EE4900227F07D037F02125D059077
:10571700020DE064027BFF7A6A7949703E90021DB0
:1057270004F0FD7F031271587BFF7A6A7959900262
:105737001D7401F07D027F031271587BFF7A047993
:10574700CE9002277401F07D027F03125D057BFF77
:105757007A02790E9002277401803AE490021DF0D4
:105767007D017F031271587BFF7A6A7959E49002B1
:105777001DF07D027F031271587BFF7A0479CEE416
:10578700900227F07D027F03125D057BFF7A027985
:105797000EE4900227F07D037F03125D0590020D52
:1057A700E07BFF7A0379EE701990022704F07D0AF7
:1057B7007F04125D057BFF7A04790E90022774013E
:1057C7008016E4900227F07D0A7F04125D057BFFB7
:1057D7007A04790EE4900227F07D0B7F04125D05B1
:0157E700229F
:1057E80090020CEFF064017BFF7A6A7947703E9073
:1057F800021D04F0FD7F021271587BFF7A6A795905
:1058080090021D7401F07D027F021271587BFF7AAD
:105818000179EE9002277401F07D027F02125D0586
:105828007BFF7A02790E9002277401803AE4900295
:105838001DF07D017F021271587BFF7A6A7959E465
:1058480090021DF07D027F021271587BFF7A017968
:10585800EEE4900227F07D027F02125D057BFF7A5D
:1058680002790EE4900227F07D037F02125D059015
:10587800020CE064027BFF7A6A7949703E90021D4F
:1058880004F0FD7F031271587BFF7A6A7959900200
:105898001D7401F07D027F031271587BFF7A017934
:1058A8006E9002277401F07D027F03125D057BFF75
:1058B8007A09792E9002277401803AE490021DF04B
:1058C8007D017F031271587BFF7A6A7959E490024F
:1058D8001DF07D027F031271587BFF7A01796EE417
:1058E800900227F07D027F03125D057BFF7A09791C
:1058F8002EE4900227F07D037F03125D0590020CD1
:10590800E07BFF7A0379EE701990022704F07D0A94
:105918007F04125D057BFF7A04790E9002277401DB
:105928008016E4900227F07D0A7F04125D057BFF54
:105938007A04790EE4900227F07D0B7F04125D054E
:01594800223C
:055E380090020DEDF0E9
:105E3D00EF75F06484A3F0EF75F00A8475F00A84B1
:105E4D00A3E5F0F0EF75F00A84A3E5F0F090020EF3
:105E5D00E0FFBD0313E4FCFDFE9002251219139023
:105E6D0002297401F0FB8011E4FCFDFE9002251265
:105E7D001913E4900229F07B017D0A7F021249D7A4
:105E8D0090020DE090020FB40215E0FFE4FCFDFE60
:105E9D009002251219139002297401F0FB8013E072
:105EAD00FFE4FCFDFE900225121913E4900229F087
:105EBD007B017D0B7F021249D790020DE0900210FD
:105ECD00B40115E0FFE4FCFDFE90022512191390BC
:105EDD0002297401F0FB8013E0FFE4FCFDFE90024B
