:10243300436865636B205349343433322E2E2E0D9B
:102443000A004445564943455F545950453A2030A4
:102453007825782E0D0A000D0A0044455649434558
:102463005F56455253494F4E3A20307825782E0D0A
:102473000A004445564943455F5354415455533A22
:102483002061742069646C65206D6F64652E0D0A8C
:10249300004445564943455F5354415455533A20EC
:1024A3006174205258206D6F64652E0D0A004445F7
:1024B300564943455F5354415455533A2061742060
:1024C3005458206D6F64652E0D0A0043727973743E
:1024D300616C204F7363696C6C61746F72204C6F15
:1024E30061642043617061636974616E63653A205E
:1024F30025780D0A0053493434333220494F20499B
:102503006E69742E2E2E2E2E2E0D0A00494F204951
:102513006E697420636F6D706C657465642E0D0A4B
:1025230000534934343332206973206E6F7420664C
:102533006F756E642E2E2E2E2E2E0D0A00534934E7
:10254300343332204750494F496E697420636F6DAD
:10255300706C6574652C636F6E666967206465765D
:102563006963652E2E2E2E2E2E0D0A00436F6E6686
:1025730069672052462E2E2E2E2E2E0D0A00534909
:1025830034343332496E697420636F6D706C6574D3
:10259300652E0D0A005349343433325F536574207A
:1025A30052784D6F64652E2E2E2E2E2E0D0A00535B
:1025B30049343433325F5365742054784D6F646506
:1025C3002E2E2E2E2E2E0D0A005349343433325F15
:1025D3005365742049646C654D6F64652E2E2E2EF1
:1025E3002E2E0D0A005349343433325F53656E6423
:1025F300204649464F20646174612E2E2E2E0D0A0B
:10260300002072657620496E746572727570740D60
:102613000A002073656E6420496E7465727275706A
:10262300740D0A006D6F6465207265676973746564
:05263300723A0D0A00DF
:10431000D3EF9400EE64809480400F7D817C14DCA8
:0A432000FEDDFAEF1F70E91E80E6D3
:01432A002270
:0744D000C2C3D2B3D2B22235
:0942560090029AEFF07D017F0E49
:10425F0090020DEDF0C2B3EF4480FF12445A90026A
:09426F000DE0FF12445AD2B32203
:0743DC00900299EFF07F044D
:0C43E300C2B312445A7FFF12445AD2B3F6
:0143EF0022AB
:10381B007BFF7A247933124404E4FF1243E39002D2
:10382B0008EFF07BFF7A247945124404900208E0FC
:10383B00FF1240F27BFF7A24795A1244049002085B
:10384B00E0640860037F01227F011243E3900208CA
:10385B00EFF07BFF7A24795D124404900208E0FFBD
:10386B001240F27BFF7A24795A1244047F021243EE
:10387B00E3900208EFF0540F70087BFF7A24797500
:10388B008022900208E0540FFFBF01087BFF7A24CF
:10389B0079948010900208E0540FFFBF02097BFF60
:1038AB007A2479B11244047F091243E3900208EFA2
:1038BB00F07BFF7A2479CE124404900208E0FF12C9
:0D38CB0040F27BFF7A24795A1244047F00FA
:0138D80022CD
:1035B3007D537F7512425F7D4B7F7612425FE4FD40
:1035C3007F7712425F7D097F6E12425F7DD57F6FE9
:1035D30012425F7D2C7F7012425F7D807F581242C2
:1035E3005F7D1F7F6D12425F7D207F7212425F7D80
:1035F3002C7F1C12425F7D417F2012425F7D607FE2
:103603002112425F7D277F2212425F7D527F231268
:10361300425FE4FD7F2412425F7D047F2512425FF7
:103623007D407F1D12425F7D0A7F1E12425F7D0F28
:103633007F2A12425F7D037F1F12425F7D607F6995
:1036430012425F7D0C7F3412425F7D2A7F35124226
:103653005F7D027F3312425F7D2D7F3612425F7D95
:10366300D47F3712425F7D8D7F3012425FE4FD7F4E
:103673003212425F7D637F7112425F7DB47F090224
:02368300425FA4
:1038D9007BFF7A2479F81244041244D07BFF7A25BD
:1038E900790F1244047F147E00801312381BEF6095
:1038F900127BFF7A2579241244047FF47E01124356
:103909001080E87DCA7F0B12425F7DCA7F0C12428C
:103919005F7DCA7F0D12425F7F0A7E001243107BD2
:10392900FF7A2579401244047F031243E31243DCF2
:1039390090029AEFF07D807F0712425F7F147E002C
:103949001243107F031243E31243DC90029AEFF013
:103959007BFF7A25796F1244041235B37DFF7F0509
:1039690012425F7DFF7F0612425F7F031243E3121B
:1039790043DC90029AEFF07D077F0512425FE4FD78
:0E3989007F0612425F7BFF7A2579810244049B
:10432B007F031243E31243DC1242567D057F0712D3
:0B433B00425F7BFF7A25799802440462
:10420E007F031243E31243DC90029AEFF07D027FAC
:10421E000E12425F7D097F0712425F7BFF7A25797E
:04422E00B202440490
:104346007F031243E31243DC1242567D017F0712BC
:0B435600425F7BFF7A2579CC02440413
:103C4400900209EBF0A3EAF0A3E9F0900208EFF088
:013C5400FD72
:103C55007F3E12425FE490020CF0900208E0FF9074
:103C6500020CE0FEC3EF6480F8EE64809850259066
:103C75000209E0FBA3E0FAA3E0F9EEFF3395E08F3C
:103C850082F583121154FD7F7F12425F90020CE092
:103C950004F080C612420E7BFF7A2579E8024404BF
:103A4D007F071243E3900204EFF07F031243E3126A
:103A5D0043DC90029AEFF0900299E030E15B7BFF3E
:103A6D007A2679041244047F4B1243E3900205EF4A
:103A7D00F0BF0C2EE4900204F0900205E0FF9002DE
:103A8D0004E0C39F501C7F7F1243E3900204E024A7
:103A9D0040F582E43402F583EFF0900204E004F087
:103AAD0080D77D027F0812425FE4FD7F0812425FDE
:103ABD0012432B90023E7401F0900299E030E20C1B
:0C3ACD007BFF7A26791512440412432B6B
:013AD90022CA
:104232007F071243E390029DEFF07BFF7A267927F6
:1042420012440490029DE0FF1240F27BFF7A24792F
:044252005A024404C4
:0C22240049026E00000001050107E00007
:0944BF00E4FB7D0E7FD002436195
:10375700E4FD7FD012437CAD07ED54F0C4540F75E0
:10376700F00AA4FFED540F2F90026EF07D017FD079
:1037770012437CAD07ED54F0C4540F75F00AA4FF53
:10378700ED540F2F90026FF07D027FD012437CAD76
:1037970007ED54F0C4540F75F00AA4FFED540F2F32
:1037A700900270F07D047FD012437CAD07ED54F09A
:1037B700C4540F75F00AA4FFED540F2F900271F057
:1037C7007D037FD012437C900272EFF07D057FD09E
:1037D70012437CAD07ED5410C4540F75F00AA4FFD3
:1037E700ED540F2F900273F07D067FD012437CAD0E
:1037F70007ED54F0C4540F75F00AA424D0FFE5F088
:103807003407FEED540F7C002FFFEC3E900274F05E
:03381700A3EFF02C
:01381A00228B
:10368500900265E0FF75F00A84C454F0FEEF75F012
:103695000A84E5F02EFBE4FD7FD0124361900266BB
:1036A500E0FF75F00A84C454F0FEEF75F00A84E576
:1036B500F02EFB7D017FD0124361900267E0FF751C
:1036C500F00A84C454F0FEEF75F00A84E5F02EFB91
:1036D5007D027FD0124361900268E0FF75F00A8495
:1036E500C454F0FEEF75F00A84E5F02EFB7D047FEF
:1036F500D0124361900269E0FB7D037FD0124361E4
:1037050090026AE0FF75F00A84C454F0FEEF75F08C
:103715000A84E5F02EFB7D057FD012436190026C93
:10372500E02430FF90026BE034F8FE7C007D0A1245
:1037350011C7EFC4F8540FC868FFAB07E0FEA3E05C
:10374500FF7C007D0A1211C7EB2DFB7D067FD002A1
:023755004361CE
:1000260000000000000000000000000000000000CA
:10003600000000000018188888286A4E0CE8E808B6
:1000460008181800000444446525341C0E0F1D349E
:100056006444040000F8F888F8F81090901010FE38
:10006600FE101000001F1F081F1F00000343407FE3
:100076007F0000000020644C0800FEFE929292FE73
:10008600FE00000000303C0F437E7E7E7E427E7E78
:100096007E7E4000000000F8F828F8FAAEACA8F81A
:1000A600F82828000040703F4F42662E3A123A2E3A
:1000B6006642400000202020A0E060FFFFE0C06014
:1000C600381800002030180E0741C0FF7F010306D4
:1000D6000C1810100080C0F0FE0E9090121E1CD05E
:1000E600D01000000000007F7F40414F4E607C5FD3
:1000F6004340400000F8F888F8F81090901010FE81
:10010600FE101000001F1F081F1F00000343407F42
:100116007F0000000000F0F20EECE4242424E4E466
:1001260004FCFC0000007F7F000F0F0909090F4F38
:10013600407F7F0000808282FEFE82828282FEFEF7
:1001460082828000004060381F07000000007F7F29
:100156000000000000001010121E1CF0F0181E1601
:10016600101000000041416131190F07070F1931C6
:1001760061414100002038DFC7444444FCFC44444C
:10018600444404000404040707040404FFFF0404B1
:1001960004040404000000FEFE222222222222225F
:1001A600FEFE000080C0703F0F020202020242C241
:1001B600FF7F0000000000FEFE828282828282FEB5
:1001C600FE000000000000FFFF404040404040FFAE
:1001D600FF000000000000F8F88C8E8B898888F8F4
:1001E600F8000000000000FFFF444444444444FF7C
:1001F600FF0000004044C4C44444445010FFFF10B4
:1002060010F0F000103C3F1314BCF8703E0F41C0D4
:10021600C07F3F00101010FFFFB0B8D868290F2E1E
:1002260068E8B8180242C3FF7F40404242427E7EE1
:100236004242424040505E4E48FFFF484848F8F868
:1002460000FFFF0000003E3E02FFFF323E1E0F4F42
:10025600C0FF7F00000022323AAEA6E26331198960
:1002660081010000004262331B4BC2FE7E020A1A65
:10027600336746002030BCEF733088C8E8B99F8EDC
:10028600A8E8C888226767321292C0703F0F003F05
:100296007F40717100083830FFFF202020FFFF20CB
:1002A600222E2C2004040603FFFFC0703E0F071EFB
:1002B6003860C08000048484C46474DF9F3464C4DE
:1002C60084840400417939003C7C40424E4C4070A5
:1002D600740D3931101C4C643414050706041434AB
:1002E60064541C0C004040414141417F7F414141E3
:1002F6004140400000F8F943424242FAFA42424283
:1003060042FEFE0000FFFF080C06033F3F03064CBB
:10031600C8FF7F000000FEFE42424242FAFA424215
:1003260042C2C20280E07F9FC060381E070140C003
:10033600C07F3F000000F8F8888888FFFF8888881B
:10034600F8F80000808081C54C78303F2F6040402F
:10035600C181808090D27634FFFF3476D2F0FF8F51
:1003660008F8F808829ADE776372DE8E80C0733FE3
:100376003F73C0801010FFFF9090FEFE9292F2F243
:10038600929E9E8042C2FF7F81E07F1FFCFC474712
:1003960044FCFC00404042CECC40E0BE9E82829EA1
:1003A600BEA020200000003FBF98C8436F3C386EB7
:1003B60047C18080001717D5D557577D7D5757D52C
:1003C600D51717004040407F7F5555555555557FE9
:1003D6007F404040404042CECC00FCFCA4A42622F4
:1003E600A3E362000040603F3F785F57584D4747A0
:1003F6004D5850400000FEFE02F2F21212F2F202D6
:10040600FEFE000000007F7F2027272424272720C8
:100416007F7F000020305C4F57545454545454D4BA
:10042600D404040000000000000000000000000FDB
:100436003F70F0F08080C06030182CE7C70C183091
:1004460060C080800000000202020282C2623A1E80
:100456000600000040404242424242FEFE42424204
:10046600424240408080C060301C0F03030F1C30A6
:1004760060C080801010D0FFFF94F4EFAFA4A4AF4B
:10048600EFE40400040703FFFF89CB6B3A1E1E3A14
:100496006BCB8880101090909090909010FFFF107A
:1004A60011171610002060603F3F101010030F1C3C
:1004B6003060F8F800002424242424FCFE222223A1
:1004C60023220000020202020242C2FF7F0202024F
:1004D60002020202000000BEBE2A2AEAEA2A2A3ED8
:1004E6003E0000000044464B4949497F7F4949493F
:1004F600494140000004FFFF2424FFFF04FEFE22C2
:1005060022FEFE0088C86F2F0919BFEF783F0F4201
:10051600C2FF7F0080808080808080808080808095
:1005260080808080000000000000000000000000C5
:100536000000000000000808080808080808080865
:1005460008080000101010101010101010101010D5
:100556001010101000048484848484848484848429
:1005660084840400202020202020202020202020F9
:100576002020202000FCFC0404FCFC0404FCFC04F9
:1005860004FCFC00007F7F2C27232020202123222F
:10059600227F7F000002424242C2FE7E424242C2A7
:1005A600C202020040404040787F47404040407FC2
:1005B6007F40404020202020202021232E2C202058
:1005C60020202020004060301C0F0300000103069D
:1005D6001C7860004042CECC00445454547F7F5473
:1005E6005454444000007F7F3010FFFF151555D549
:1005F600FF7F000088E87FDFC818D8DC56D3D39683
:100606009CD8D010091919FFFF05FFFF92FFFF5F65
:10061600DFFF7F00000000000001E3FEFCE00000B9
:100626000000000080C060301C0F030000030F3C78
:1006360070C08080109CCC44E4E495B7E6643494A2
:10064600C4D49C0C02027A7B4143437E7E424243E1
:10065600FBF800000484E4FC5CC4C402F2F282826B
:10066600FEFE808002037F7F103F3F08080808488F
:10067600C8C87F3F4070FFEF646C487F7F48487F63
:100686007F48484001017F7F3111FFFF49494949B1
:10069600FFFF00004042CECC00809E9E9292929236
:1006A6009E9E800000007F7FB494C464341F1F3474
:1006B60064C484840000183C243C18000000000038
:1006C60000000000E0380C060203010101010101EF
:1006D6000101010101010101010101010101010104
:1006E60001010101010101010101010101010101F4
:1006F600010302060C38E040404040404040404084
:10070600C000FF0000000000000000000000000024
:1007160000000000000000000000000000000000D3
:1007260000000000000000000000000000000000C3
:1007360000000000FF40C000000000000000FF00B5
:10074600FF000000000000000000000000000000A4
:100756000000000000000000000000000000000093
:100766000000000000000000000000000000000083
:100776000000FF00FF0000F0FFF00000FF00FF0098
:100786000000000000000000000000000000000063
:100796000000000000000000000000000000000053
:1007A6000000000000000000000000000000000043
:1007B600FF00FF001CFFFFFF1C00FF00FF80000082
:1007C6000000000000000000000000000000000023
:1007D6000000000000000000000000000000000013
:1007E6000000000000000000000000000080FF7014
:1007F6005F0000FFFFFF00005F700003060C081893
:1008060010101010101010101010101010101010E2
:1008160010101010101010101010101010101010D2
:100826001010101010101018080C161318080810C5
:100836001018081810101008000000000000000032
:100846000000000000000000000000F8F8000000B2
:10085600000030333300000000100C06100C0600B8
:1008660000000000000000004040F840F840000092
:10087600043E053F05040000007088FC08300000B7
:10088600001820FF211E0000F008F080700800000C
:1008960000211C031E211E0000F0887000000000CD
:1008A6001F2027281F211000000000000000000064
:1008B60080B0F07000000000000000F0FC0E0200A6
:1008C6000000000F3F70400000061EF8E000000028
:1008D6000060781F070000004040C0F0F0C04040B4
:1008E6000202030F0F030202000000F0F0000000F6
:1008F6000101011F1F0101010002020604000000A0
:1009060000000000000000000000000000000000E1
:1009160001010101010101000000000000000000CA
:10092600003030300000000000000000C0F83C0C31
:100936000060783F07010000E0F0180818F0E000BA
:100946000F1F3020301F0F00001010F8F8000000B5
:100956000020203F3F2020000070780808F8F000B3
:1009660000303C2E233130000030388888F8700083
:1009760000183820313F1E000080C060F8F80000E3
:10098600060705243F3F240400F8F88888880800F5
:1009960000193921313F1F00E0F098888898180027
:1009A6000F1F3120313F1F0000383808E8F81800C3
:1009B6000000003F3F00000070F8988898F870002B
:1009C6001E3F2121313F1E00F0F8080818F8E0000C
:1009D600313322323B1F07000000C0C0C0000000B8
:1009E6000000303030000000000000808000000071
:1009F600000080E060000000000080E07018080041
:100A06000001030E1C3020004040404040404000A2
:100A1600040404040404040000083870C0800000C4
:100A26000020381C060301007078080818F8F0004A
:100A36000000303737010000C0F0F8E8E8F8F0E0D1
:100A4600071F3F2727371F0B0000E0F8F8E00000DC
:100A5600203C3F23233F3C2008F8F88888F87000A4
:100A6600203F3F20313F1E00E0F0380808383800AC
:100A76000F1F30202030100008F8F80818F0E000AA
:100A8600203F3F20301F0F0008F8F888E8F81800CC
:100A9600203F3F202333300008F8F888E8E8181094
:100AA600203F3F2003030000C0F038080838380014
:100AB600071F3820223E1E0208F8F80808F8F80832
:100AC600203F3F21213F3F20000808F8F808080092
:100AD6000020203F3F202000000808F8F808080002
:100AE600C0C080FF7F00000008F8F8C8E838180882
:100AF600203F3F21273E382008F8F8080000000074
:100B0600203F3F202030300008F8F800F8F80800B1
:100B1600203F003F003F200008F8F8F8C8F8F80822
:100B2600203F3F231F3F3F00E0F0180818F0E00089
:100B36000F1F3020301F0F0008F8F80808F8F000E3
:100B4600203F3F2101010000E0F0180818F0E00006
:100B56000F1F3C247C7F4F0008F8F88888F8700047
:100B6600203F3F21073E38200070F88808181800FB
:100B760000303021233F1E00181808F8F80818180E
:100B86000000203F3F20000008F8F80808F8F808A1
:100B9600001F3F20203F1F000878F88888F8780853
:100BA60000000F3F3F0F000008F8FCFCF8F8F808BB
:100BB60000073F3F3F3F07000838F8E8E8F8180805
:100BC60020303C2F2F3E38200838F8C8C8F838089F
:100BD6000000203F3F200000101808C8F838080021
:100BE600303C2F2320301000000000FEFE020200E1
:100BF6000000007F7F404000001CFCE00000000079
:100C0600000000031F7C6000000202FEFE000000E0
:100C16000040407F7F00000000000406060400003C
:100C260000000000000000000000000000000000BE
:100C3600808080808080808010161E0E000000005C
:100C4600000000000000000000008080808080001E
:100C5600001D3D26223F3F2008F8F88080800000D6
:100C6600003F3F21203F1F000000808080808000E1
:100C7600001F3F31203111000000808088F8F80005
:100C8600001F3F21203F3F20000080808080000021
:100C9600001F3F22223313008080F0F88898180046
:100CA60000203F3F202000000000808080808000E0
:100CB600006BFF9497F3600008F8F880808080004E
:100CC600203F3F21203F3F20008080989800000071
:100CD6000020203F3F2020000000808098980000E0
:100CE60000C0C080FF7F000008F8F8808080800088
:100CF600203F3F263F392000000808F8F800000092
:100D06000020203F3F2020008080808080808080DF
:100D1600203F3F203F3F203F8080808080808000B2
:100D2600203F3F2100203F3F000080808080000060
:100D3600001F3F31213F1F0080808080808000009F
:100D460080FFFFA1303F1F00000080808080800070
:100D5600001F3F21A0FFFF80808080808080800070
:100D660020203F3F212101000000808080808000FC
:100D760000333724243D1900008080E0E0808000A5
:100D86000000001F3F2020008080800080808000BF
:100D9600003F3F20203F3F208080808080808080F1
:100DA60000031F3C3C1F03008080C0C08080808001
:100DB600000F3F3F3F3F0F00808080808080800093
:100DC60020313F2E3F3120008080808080808080CF
:100DD6008083CF7E3E0F010000808080808080006F
:080DE6000021393C27333000E5
:1022300060C000000000000000000000000000007E
:10224000000000000000000000000000000000008E
:10225000000000000000000000000000000000007E
:10226000000000000000000000000000000000006E
:10227000000000000000000000000000000000005E
:10228000000000000000000000000000000000004E
:10229000000000000000000000000000000000003E
:1022A000000000000000000000000000000000002E
:1022B000000000000000000000000000000000001E
:1022C000000000000000000000000000000000000E
:1022D00000000000000000000000000000000000FE
:1022E00000000000000000000000000000000000EE
:1022F0000000000060C000C00000000000000000FE
:1023000000000000000000000000000000000000CD
:1023100000000000000000000000000000000000BD
:1023200000000000000000000000000000000000AD
:10233000000000000000000000000000000000009D
:10234000000000000000000000000000000000008D
:10235000000000000000000000000000000000007D
:10236000000000000000000000000000000000006D
:10237000000000000000000000000000000000005D
:10238000000000000000000000000000000000004D
:10239000000000000000000000000000000000003D
:1023A000000000000000000000000000000000002D
:0823B000000000000000000025
:0442D7007F057E00E1
:1042DB00D3EF9400EE9400400F7D147C32DCFEDDB6
:0842EB00FAEF1F70EB1E80E8E2
:0142F30022A8
:10442900D3EF9400EE94004007EF1F70F31E80F065
:014439002260
:0444EF0075BB602217
:103E0300900217E0FF900216E04440FBE4FD123EEF
:0C3E13001F90021AE044B8FBE4FD7F079A
:103E1F00EF30E002C2C2EF30E102C291EF30E202B6
:103E2F00C292D2C6ED6004D2C58002C2C5C2C1AF74
:103E3F00038F80C2C6D2C2D291D2927F017E00027E
:023E4F0042DB54
:073EE400900256E0FF7D0192
:103EEB007580FFEFB40104C2C2800EEFB40204C2AE
:103EFB00918006EFB40402C292ED6004D2C5800239
:103F0B00C2C5D2C100D2C600AC80C2C6C2C1D2C229
:0D3F1B00D291D2927F017E00124429AF04A2
:013F28002276
:02412600A907E7
:10412800E4FBE930E009E4FD7F01123EEBEFFBE937
:1041380030E10AE4FD7F02123EEBEB4FFBE930E28F
:0F4148000AE4FD7F04123EEBEB4FFBEB20E7D1C7
:014157002245
:10441700C2CA7F507E001242DBD2CA7FA07E000252
:0244270042DB76
:104278007F07124126E4FAEA123E18E4F9E4FB7DCE
:10428800017F07123E1F09E9B440F20AEAB408E7C1
:014298002203
:1041E500C2CB1242D71244177B3E123E1B1242D756
:1041F5007BC0123E1B1242D71242781242D77B3F38
:09420500123E1B1242D7D2CB225B
:103F29007F071241267B40E4FD7F01123E1F7BBAC9
:103F3900E4FD7F01123E1FE4FAE4F97BFF7D017F76
:103F490001123E1F09E9B440F27B40E4FD7F0112F2
:103F59003E1FEA240344B8FBE4FD7F01123E1F0A19
:043F6900EAB401D5E0
:013F6D002231
:103F6E007F071241267B40E4FD7F02123E1F7BBA83
:103F7E00E4FD7F02123E1FE4FAE4F97BFF7D017F30
:103F8E0002123E1F09E9B440F27B40E4FD7F0212AB
:103F9E003E1FEA240344B8FBE4FD7F02123E1F0AD3
:043FAE00EAB401D59B
:013FB20022EC
:10308800900212EBF0A3EAF0A3E9F0900210EFF03F
:03309800A3EDF0B5
:10309B00EF1425E0900210F0ED24FFFFE434FFFE67
:1030AB00EF7802CEC313CE13D8F9FF700790021737
:1030BB0004F08016EFB401089002177402F0800A36
:1030CB00EFB402069002177404F0900211E014544E
:1030DB0003C454F0F0FE900217E0FFEE4440FBE413
:1030EB00FD123E1FE0FF900210E044B8FBE4FD121E
:1030FB003E1FE4900216F0900215E0900217601844
:10310B00E0FF900212E0FBA3E475F001121232A96A
:10311B00F0FA12113BF48015E0FF900212E0FBA3D2
:10312B00E475F001121232A9F0FA12113BFB7D018A
:10313B00123E1F900216E004F0E0C3941040B890CA
:10314B000217E0FF900211E04440FBE4FD123E1F2A
:10315B00900217E0FF900210E00444B8FBE4FD126C
:10316B003E1FE4900216F0900215E09002176018D3
:10317B00E0FF900212E0FBA3E475F001121232A9FA
:10318B00F0FA12113BF48015E0FF900212E0FBA362
:10319B00E475F001121232A9F0FA12113BFB7D011A
:0F31AB00123E1F900216E004F0E0C3941040B8EB
:0131BA0022F2
:102CBC0075F010A4243EF9740635F0FA7BFFE0FFA2
:0A2CCC00A3E0FD14F0E490022CF0E8
:102CD600900229EBF0A3EAF0A3E9F0900227EFF0C7
:032CE600A3EDF06B
:102CE900EF1425E0900227F0ED24FFFFE434FFFE06
:102CF900EF7803CEC313CE13D8F9FF700790022ED5
:102D090004F08016EFB4010890022E7402F0800AD4
:102D1900EFB4020690022E7404F0900228E01454D5
:102D29000775F008A4F0FE90022EE0FFEE4440FB88
:102D3900E4FD123E1FE0FF900227E044B8FBE4FDEA
:102D4900123E1FE490022DF090022CE090022E60BA
:102D590018E0FF900229E0FBA3E475F0011212329A
:102D6900A9F0FA12113BF48015E0FF900229E0FB6B
:102D7900A3E475F001121232A9F0FA12113BFB7D9E
:102D890001123E1F90022DE004F0E0C3940840B800
:102D990090022EE0FF900228E04440FBE4FD123E41
:102DA9001F90022EE0FF900227E00444B8FBE4FDE7
:102DB900123E1FE490022DF090022CE090022E604A
:102DC90018E0FF900229E0FBA3E475F0011212322A
:102DD900A9F0FA12113BF48015E0FF900229E0FBFB
:102DE900A3E475F001121232A9F0FA12113BFB7D2E
:102DF90001123E1F90022DE004F0E0C3940840B890
:012E090022A6
:103CA500900211EFF0A3EDF0A3EBF0A3EAF0A3E986
:103CB500F0900213E0FBA3E0FAA3E0F912113B60D8
:103CC5003E75F010A4243EF9740635F0FA7BFF909A
:103CD5000211E0FFA3E0FD900216E0122CD2900243
:103CE50012E004F0E0D3941840097401F090021139
:103CF500E004F0900214E475F00112121C80B22267
:082B530090020AEFF0A3EDF07F
:102B5B0078107C027D017BFF7A0079267E007F0A4C
:102B6B00121115E490021AF0A37409F0E4A3F0A378
:102B7B00F0A31212C70000000190020CE0FCA3E0CE
:102B8B00FDA3E0FEA3E0FFEC33501690021C740192
:102B9B00F090020CA3A3A3E012129790020C121256
:102BAB00BB90020CE0FCA3E0FDA3E0FEA3E0FFEC76
:102BBB004D4E4F6074E47B0AFAF9F890020CA3A314
:102BCB00A3E0123FF7AC00AD01AE02AF0390021EC3
:102BDB001212BB90021EA3A3A3E02430FF90021A93
:102BEB00E0FE04F074102EF582E43402F583EFF06E
:102BFB0090020CE0FCA3E0FDA3E0FEA3E0FFE47B6E
:102C0B000AFAF9F8123FF790020C1212BB90021A53
:102C1B00E06402708CE0FF04F074102FF582E43452
:102C2B0002F583742EF0022BAC90021AE0D39403BE
:102C3B00502AE0FF04F074102FF582E43402F58380
:102C4B007430F090021AE0B402DFFF04F074102F1E
:102C5B00F582E43402F583742EF080CD90021CE0F3
:102C6B00601490021AE0FF04F074102FF582E43424
:102C7B0002F583742DF0E490021BF090021AE0FF32
:102C8B00A3E0FEC39F502974102EF582E43402F5A5
:102C9B0083E090020A122CBC90020BE0700A9002A7
:102CAB000AE004F0A37418F090021BE004F080CB50
:012CBB0022F6
:0B29BF0090020EEFF0A3EDF0A3EBF090
:1029CA0078157C027D017BFF7A0079307E007F0AD0
:1029DA00121115E490021FF0A37409F0E4A3F0A306
:1029EA00F0A31212C700000001900211E0FCA3E05C
:1029FA00FDA3E0FEA3E0FFEC335016900221740120
:102A0A00F0900211A3A3A3E01212979002111212DE
:102A1A00BB900210E0606F900210E0FF14F0EFD359
:102A2A0094005003022AFEE47B0AFAF9F8A3E0FCB8
:102A3A00A3E0FDA3E0FEA3E0FF123FF7AC00AD0167
:102A4A00AE02AF039002231212BB900223A3A3A3E8
:102A5A00E02430FF90021FE0FE04F074152EF58288
:102A6A00E43402F583EFF0900211E0FCA3E0FDA349
:102A7A00E0FEA3E0FFE47B0AFAF9F8123FF79002BE
:102A8A00111212BB8091900211E0FCA3E0FDA3E0B9
:102A9A00FEA3E0FFEC4D4E4F605AE47B0AFAF9F8C8
:102AAA00900211A3A3A3E0123FF7AC00AD01AE025E
:102ABA00AF039002231212BB900223A3A3A3E02424
:102ACA0030FF90021FE0FE04F074152EF582E43404
:102ADA0002F583EFF0900211E0FCA3E0FDA3E0FE13
:102AEA00A3E0FFE47B0AFAF9F8123FF79002111209
:102AFA0012BB8092900221E0601490021FE0FF0452
:102B0A00F074152FF582E43402F583742DF0E49005
:102B1A000220F090021FE0FFA3E0FEC39F50297439
:102B2A00152EF582E43402F583E090020E122CBCD5
:102B3A0090020FE0700A90020EE004F0A37418F0FD
:082B4A00900220E004F080CBB2
:012B52002260
:0A2F4A0090020BEDF0AC07A3EBF0D2
:102F5400E4900217F0EB24FFFFE434FFFEEF780364
:102F6400CEC313CE13D8F90490020CF0EC24FFFF67
:102F7400E434FFFEEF7803CEC313CE13D8F99002E6
:102F840013F090020BE0FF14543F900214F0FDEF95
:102F940024FFFFE434FFFEEF7806CEC313CE13D82C
:102FA400F9FF7401A807088002C333D8FCFF90021C
:102FB40015F0900217F0ED4440FBE4FD123E1F9023
:102FC4000213123E17E4900211F090020CE0FF90FD
:102FD4000211E0C39F4003023087E4A3F090020D86
:102FE400E0FF900212E0FEC39F506AEEFF90020BD6
:102FF400E02FFFE433CF24FFCF34FFFEEF7806CE7B
:10300400C313CE13D8F975F00384AFF07401A80785
:10301400088002C333D8FCFF900216F0A3E06F606F
:103024000E900216E0FFA3F07B40E4FD123E1F90D9
:103034000216E0FF90020EE0FBA3E475F001121209
:1030440032A9F0FA12113BFB7D01123E1F900212CD
:10305400E004F08088900215E0FF900217F09002DF
:1030640014E04440FBE4FD123E1F900211E0FF9087
:103074000213E02F540704123E18900211E004F0EA
:03308400022FCE4A
:013087002226
:0F26380090024CEFF090024EEBF090024DEDF05F
:10264700E4900258F0ED14543F900255F0FCED244D
:10265700FFFFE434FFFEEF7806CEC313CE13D8F99D
:10266700FF7401A807088002C333D8FCFF90025605
:10267700F0900258F0EC4440FBE4FD123E1F90023C
:102687004CE014123E18123EE4E4900253F090021C
:102697004EE0FF900253E0C39F4003022768E4A384
:1026A700F090024FE0FF900254E0FEC39F40030208
:1026B7002738EEFF90024DE02FFFE433CF24FFCF02
:1026C70034FFFEEF7806CEC313CE13D8F975F003A7
:1026D70084AFF07401A807088002C333D8FCFF90C9
:1026E7000257F0A3E06F600E900257E0FFA3F07B64
:1026F70040E4FD123E1F900257123EE7AD079002DD
:102707004FE0FF900253E08FF0A4FFA3E07A002F81
:10271700FFEA35F0FE900250E0FBA3E0FAA3E0F9F0
:102727008F828E83ED121193900254E004F00226FB
:10273700A8900256E0FF900258F0900255E04440FE
:10274700FBE4FD123E1F900253E0FF90024CE02F86
:102757005407123E18123EE4900253E004F002269A
:10276700957F07124126900255E04440FBE4FD7F28
:1027770002123E1F90024CE01444B8FBE4FD7F02B6
:10278700123E1FE4900253F090024EE0FF90025376
:10279700E0C39F506EE4A3F090024FE0FF90025415
:1027A700E0FDC39F5031900253E08FF0A47C002DD1
:1027B700FFEC35F0FE900250E0FBA3E0FAA3E0F94E
:1027C7008F828E83121154FB7D017F02123E1F9070
:1027D7000254E004F080C1900255E04440FBE4FD60
:1027E7007F02123E1F900253E0FF90024CE02F54ED
:1027F7000744B8FBE4FD7F02123E1F900253E0043A
:03280700F08085D9
:01280A0022AB
:07174B00900211EDF0AC0764
:10175200E4900219F0EC24FFFFE434FFFEEF78037B
:10176200CEC313CE13D8F990021AF0EC145407909A
:10177200021DF0EC2B145407A3F090021DE0FDFFB4
:10178200EB2FFFE433FEEF7803CEC313CE13D8F969
:10179200FFED2B540760047E0180027E00EE2FFFD6
:1017A20090021CF090021AE02F14A3F0900211E0B4
:1017B200FD14543F900216F0ED24FFFFE434FFFEC7
:1017C200EF7806CEC313CE13D8F9FF7401A8070829
:1017D2008002C333D8FC900217F0900219F09002F5
:1017E2001DE070030218A3123E03900217123EE797
:1017F200E4900214F0900213E0FFA3E0FEC39F40C6
:101802000302189BEEFF900211E02FFFE433CF2476
:10181200FFCF34FFFEEF7806CEC313CE13D8F9758F
:10182200F00384900215E5F0F0E0FF7401A80708C8
:101832008002C333D8FCFF900218F0A3E06F600E61
:10184200900218E0FFA3F07B40E4FD123E1F9002DD
:1018520018123EE7900214E0FE2400F582E4340000
:10186200F583EFF074002EF582E43400F583C08333
:10187200C082E0FF90021DE0FEC374079EFE747FEB
:10188200A806088003A2E713D8FB5FD082D083F0BA
:10189200900214E004F00217F7900217E090021988
:1018A200F090021EE07003021974900217E0FF909C
:1018B2000216E04440FBE4FD123E1F90021B123E62
:1018C20017900217123EE7E4900214F0900213E020
:1018D200FFA3E0FEC39F400302196CEEFF900211CA
:1018E200E02FFFE433CF24FFCF34FFFEEF7806CEA4
:1018F200C313CE13D8F975F00384900215E5F0F006
:10190200E0FF7401A807088002C333D8FCFF9002ED
:1019120018F0A3E06F600E900218E0FFA3F07B4086
:10192200E4FD123E1F900218123EE7900214E0FE00
:1019320024C0F582E43400F583EFF074C02EF58202
:10194200E43400F583C083C082E0FF90021EE0FE13
:1019520074FFA806088002C333D8FC5FD082D0830C
:10196200F0900214E004F00218CE900217E0900208
:1019720019F0123E03E4FA90021CE0FFEAC39F4012
:1019820003021A90E4900214F0900213E0FFA3E025
:10199200FEC39F4003021A6CEEFF900211E02FFF7C
:1019A200E433CF24FFCF34FFFEEF7806CEC313CE4D
:1019B20013D8F975F00384900215E5F0F0E0FF7496
:1019C20001A807088002C333D8FCFF900218F0A3D5
:1019D200E06F600E900218E0FFA3F07B40E4FD127E
:1019E2003E1F90021DE0F9602EA3E0602A90021CC7
:1019F200E0B40123900218E0FF900214E0FE24C03C
:101A0200F582E43400F583E0FD74002EF582E434BF
:101A120000F583E04D8044E96018EA7015900218E1
:101A2200E0FF900214E02400F582E43400F583E044
:101A3200802990021EE0601D90021CE014B5021580
:101A4200900218E0FF900214E024C0F582E4340012
:101A5200F583E08006900218E0FFE4FB7D01123E70
:101A62001F900214E004F002198B900217E0FF901D
:101A72000219F0900216E04440FBE4FD123E1F9072
:0E1A8200021AE02A540704123E180A021979CB
:011A90002233
:0713C60090020FEDF0AC07EF
:1013CD00E4900217F090021DF0EC24FFFFE434FFCF
:1013DD00FEEF7803CEC313CE13D8F9900218F0ECBC
:1013ED0014540790021BF0EC2B145407A3F0900239
:1013FD001BE0FDFFEB2FFFE433FEEF7803CEC313AD
:10140D00CE13D8F9FFED2B540760047E0180027EC8
:10141D0000EE2FFF90021AF0900218E02F14A3F0A7
:10142D0090020FE0FD14543F900214F0ED24FFFFE5
:10143D00E434FFFEEF7806CEC313CE13D8F9FF7454
:10144D0001A807088002C333D8FC900215F0900262
:10145D0017F090021BE07003021536900215E0FFA5
:10146D00900214E04440FBE4FD123E1F900218125E
:10147D003E17900215123EE7E4900212F090021111
:10148D00E0FFA3E0FEC39F400302152EEEFF900286
:10149D000FE02FFFE433CF24FFCF34FFFEEF7806AC
:1014AD00CEC313CE13D8F975F00384900213E5F073
:1014BD00F0E0FF7401A807088002C333D8FCFF9049
:1014CD000216F0A3E06F600E900216E0FFA3F07B12
:1014DD0040E4FD123E1F900216123EE7900212E00C
:1014ED00FE2400F582E43400F583EFF074002EF550
:1014FD0082E43400F583C083C082E0FF90021BE0DC
:10150D00FEC374079EFE7480A806088003A2E7132D
:10151D00D8FB4FD082D083F0900212E004F0021479
:10152D008A900215E0900217F090021CE070030201
:10153D001619900215E0FF900214E04440FBE4FD03
:10154D00123E1F900219123E17900215123EE7E44B
:10155D00900212F0900211E0FFA3E0FEC39F400342
:10156D00021611EEFF90020FE02FFFE433CF24FFA0
:10157D00CF34FFFEEF7806CEC313CE13D8F975F036
:10158D000384900213E5F0F0E0FF7401A8070880D2
:10159D0002C333D8FCFF900216F0A3E06F600E90EB
:1015AD000216E0FFA3F07B40E4FD123E1F900216F1
:1015BD00123EE7900212E024C0F582E43400F58378
:1015CD00EFF01D90021CE0FEEDC39E500AA3E02536
:1015DD00E04401F00D80EC900212E024C0F582E4AD
:1015ED003400F583C083C082E0FF90021DE0FEEF62
:1015FD004ED082D083F0E490021DF0900212E004F0
:10160D00F0021561900215E0900217F0900215E0BE
:10161D00FF900214E04440FBE4FD123E1F900218BF
:10162D00123E17E4FA90021AE0FFEAC39F4003024C
:10163D00174AE4900212F0900211E0FFA3E0FEC3FE
:10164D009F4003021726EEFF90020FE02FFFE433B9
:10165D00CF24FFCF34FFFEEF7806CEC313CE13D8C1
:10166D00F975F00384900213E5F0F0E0FF7401A822
:10167D0007088002C333D8FCFF900216F0A3E06F79
:10168D00600E900216E0FFA3F07B40E4FD123E1FBA
:10169D0090021BE0F9602EA3E0602A90021AE0B4DC
:1016AD000123900216E0FF900212E0FE24C0F582A5
:1016BD00E43400F583E0FD74002EF582E43400F58A
:1016CD0083E05D803CE96018EA7015900216E0FF3A
:1016DD00900212E02400F582E43400F583E08021CD
:1016ED0090021CE0601E90021AE014B502169002E2
:1016FD0016E0FF900212E024C0F582E43400F58379
:10170D00E0FB8007900216E0FF7BFF7D01123E1F7C
:10171D00900212E004F0021644900215E0FF9002D0
:10172D0017F0900214E04440FBE4FD123E1F9002BE
:0D173D0018E02A540704123E180A02163262
:01174A00227C
:103E9B00A2A282A082A482A182A382C8403812442B
:103EAB0067A2A282A082A482A182A382C8402420FE
:103EBB00A0037F012220A2037F022220A4037F06FE
:103ECB002220A1037F052220C8037F032220A30306
:093EDB007F04227F00227F0022F7
:10443A00E4F5CF75CDC030030475CED02275CE40D9
:01444A00224F
:0D445A008FCFE5CD30E7FB75CDC0AFCF2291
:1043F000438920759840758DDC858D8BE4F587D2D7
:04440000ACD28E228A
:0844C8008F993099FDC2992281
:0240F200AE0717
:1040F400EEC4540FFDC36480948AED5004243080D0
:104104000424F62461FF1244C8EE540FFDC36480F6
:10411400948AED50042430800424F62461FF124470
:01412400C8D2
:014125002277
:0744D700EF2430FF0244C88E
:1044040012113BFF600C1244C8740129F9E43AFA12
:0344140080EE2215
:0D418A00900296EBF0A3EAF0A3E9F0AE0777
:10419700E4FDEDC39E501A900296E0FBA3E0FAA35C
:1041A700E0F98D82758300121154FF1244C80D8007
:0141B700E126
:0141B80022E4
:030023000242F4A2
:0642F400C0E0C083C0829F
:0F42FA0030980CC298C2AF900203E599F0D2AF92
:07430900D082D083D0E03226
:0644DE00000000000022B6
:05000600D2B7D2B622C2
:06000E001242991242BFEC
:0F001400D2B6D2B71244DEC2B61244DEC2B72251
:0C449B00C2B6D2B71244DED2B60244DE34
:0642B900120014124299EC
:1042BF00D2B71244DE30B608C2B71244DE7F0022F6
:0842CF00C2B71244DE7F012298
:0C44A700C2B6D2B71244DEC2B70244DE37
:0C44B300D2B6D2B71244DEC2B70244DE1B
:10429900E4FEEF30E703D38001C392B6EF25E0FFD8
:0F42A900D2B71244DEC2B71244DE0EEEB408E301
:0142B80022E3
:1041B900E4FED2B6FDEE25E0FED2B71244DE30B6FB
:1041C900034401FEC2B71244DE0DEDB408E7EF6007
:0B41D900051244A780031244B3AF0698
:0141E40022B8
:104361001242B9AC07AF051242991242BFAF031214
:0A43710042991242BF12449BAF04B0
:01437B00221F
:02437C00AC078C
:10437E001242B9AF0512000EEC04FF12429912421E
:06438E00BFE4FF1241B97B
:014394002206
:103D6000AD071242B9EF700612449B7F0122900208
:103D700083E0FF12000EED04FF1242991242BF9041
:103D80000284E0FF6026B4010BE4FF1241B9EF1298
:103D9000118180107F011241B9EF12118174012944
:103DA000F9E43AFA900284E014F080D312449B7F45
:023DB0000022EF
:10403B001242B9EF7002801E900289E0FF12429982
:10404B001242BF90028AE0602212113BFF1242998A
:10405B001242BFEF700612449B7F0122740129F9B3
:10406B00E43AFA90028AE014F080D812449B7F0065
:01407B002222
:1023B80041029100410292004102930041029400BF
:0423C8004102950039
:0C4467007FB27E787D0CDDFEDEFADFF611
:014473002226
:0C4474007FB27EE67D0CDDFEDEFADFF696
:014480002219
:0C4481007FD97EAB7D49DDFEDEFADFF660
:01448D00220C
:10415800EF24FE601214601714601C240370209072
:104168000291E05401FF22900291E05402FF229054
:104178000291E05404FF22900291E05408FF227F4C
:02418800002213
:103D0500EF24FE601D14602D14603D2403704B905C
:103D15000291E054FEF090020BA3A3A3E09002925F
:103D2500F022900291E054FDF090020BA3A3A3E0D2
:103D3500900293F022900291E054FBF090020BA3C5
:103D4500A3A3E0900294F022900291E054F7F09042
:0B3D5500020BA3A3A3E0900295F02254
:103FB300900292E0600414F08007900291E04401C3
:103FC300F0900293E0600414F08007900291E044C3
:103FD30002F0900294E0600414F08007900291E0F4
:103FE3004404F0900295E0600314F022900291E003
:043FF3004408F0226C
:1023CC004C02400000000000000000000000004C27
:1023DC00023200000000000000000000000041027A
:0C23EC003E0041023F0043022F01025955
:0144F30022A6
:0144F40022A5
:1033EB00900242E0FE6410706CA3E07068A3E0FFF3
:1033FB0090022FE0FBA3E0FAA3E0F9EF121181900A
:10340B000245E0FF90022FE0FBA3E0FAA3E0F99066
:10341B000001EF121193900246E0900002121193FB
:10342B00900247E0900003121193900248E0900045
:10343B0004121193900249E090000512119390022F
:10344B004AE090000612119390024BE09000071295
:10345B0011937F0122EE6411706E900243E070684D
:10346B00A3E0FF90022FE0FBA3E0FAA3E0F9EF1239
:10347B001181900245E0FF90022FE0FBA3E0FAA33D
:10348B00E0F9900001EF121193900246E0900002D8
:10349B00121193900247E09000031211939002488F
:1034AB00E0900004121193900249E0900005121174
:1034BB009390024AE090000612119390024BE09019
:0B34CB0000071211937F02227F0022F5
:0F444B0041444320646174613A0D0A000D0A0078
:1023F800480259616162626363000044026122B865
:0224080022B8F8
:103DB200900259E0FEA3E0FDEDFF900261EEF0A358
:103DC200EFF090025BE0FEA3E0FDEDFF900263EEF8
:103DD200F0A3EFF0D3900262E09488900261E09445
:103DE2001340077422F0A374B8F0D3900264E094F5
:103DF20088900263E0941340077422F0A374B8F031
:013E0200229D
:103E510090025DE0FEA3E0FDEDFBAA06E4FEFDFCA1
:103E6100C39DF582EE9CF5837D64AF03AE02121112
:103E7100B5AD82AC831211C77BFF7A44794B1244F2
:103E81000490025DE0FF1240F290025EE0FF1240FA
:0A3E9100F27BFF7A447957024404E3
:103997003000310032003300340035003600370084
:1039A700380039003A0020002A002100484F4D45D1
:1039B7000043002500000000000000000000000098
:1039C70000000000000000000000000000000000F0
:1039D70000000000000000000000000000000000E0
:1039E70000000000000000000000000000000000D0
:1039F70000000000000000000000000000000000C0
:103A070000000000000000000000000000000000AF
:103A1700000000000000000000000000000000009F
:103A2700000000000000000000000000000000008F
:103A37000000000000000000F0FFF0001CFFFFFF87
:063A47001C00FFFFFF0060
:10240A0041027E00C10144027A0001E240C100415A
:0B241A000277004102780041027900C7
:053BE200900180EFF0EE
:103BE70078817C017D017BFF7A3979BC7E007F82F9
:103BF700121115900180E0602FB20030001B900277
:103C07000D7405F0A374FFF0A3743AF0A3743EF0AB
:103C17007B187D377F11022F4A9002137405F07BC2
:103C2700187D377F1102174B30001190021374056E
:0C3C3700F07B187D377F1112174BC20084
:013C4300225E
:102E0A00900210EFF07BFF7A3979977006900216DC
:102E1A00048004E4900216F07D027F04123CA5901F
:102E2A000210E07BFF7A397999B40107900216748F
:102E3A00018004E4900216F07D047F04123CA59000
:102E4A000210E07BFF7A39799BB40207900216746C
:102E5A00018004E4900216F07D067F04123CA590DE
:102E6A000210E07BFF7A39799DB403079002167449
:102E7A00018004E4900216F07D087F04123CA590BC
:102E8A000210E07BFF7A39799FB404079002167426
:102E9A00018004E4900216F07D0A7F04123CA5909A
:102EAA000210E07BFF7A3979A1B405079002167403
:102EBA00018004E4900216F07D0C7F04123CA59078
:102ECA000210E07BFF7A3979A3B4060790021674E0
:102EDA00018004E4900216F07D0E7F04123CA59056
:102EEA000210E07BFF7A3979A5B4070790021674BD
:102EFA00018004E4900216F07D107F04123CA59034
:102F0A000210E07BFF7A3979A7B408079002167499
:102F1A00018004E4900216F07D127F04123CA59011
:102F2A000210E07BFF7A3979A9B409079002167476
:102F3A00018004E4900216F07D147F04123CA5225D
:101A9100E4900209F0A37406F0A314F0A31212C794
:101AA100000000001242787BFF7A0579DAE49002A7
:101AB10015F07D047F011230887BFF7A0579FAE405
:101AC100900215F07D057F011230887BFF7A06793F
:101AD1001AE4900215F07D067F011230887BFF7AAF
:101AE10006793AE4900215F07D077F011230887B78
:101AF100FF7A06795AE4900215F07D087F011230D1
:101B0100887BFF7A3979ABE4900216F07D117F0171
:101B1100123CA57BFF7A3979979002167401F07D0A
:101B2100027F04123CA57BFF7A397999E490021671
:101B3100F07D047F04123CA57BFF7A39799BE49008
:101B41000216F07D067F04123CA57BFF7A39799D50
:101B5100E4900216F07D087F04123CA57BFF7A39E0
:101B6100799FE4900216F07D0A7F04123CA57BFF69
:101B71007A3979A1E4900216F07D0C7F04123CA51C
:101B81007BFF7A3979A3E4900216F07D0E7F04126F
:101B91003CA57BFF7A3979A5E4900216F07D107F90
:101BA10004123CA57BFF7A3979A7E4900216F07DF7
:101BB100127F04123CA57BFF7A3979A9E4900216C1
:101BC100F07D147F04021CCF123E9B900208EFF0BF
:101BD10060F6E0FEB40107E490027EF0FF22EE64BD
:101BE10003703290020AE0FF04F0D3EF6480948620
:101BF100501BE025E0FFC374139FFD7BFF7A397909
:101C0100ADE4900216F07F02123CA5802090020AFA
:101C11007406F08018900208E0FFB40506A3E014F2
:101C2100F0800AEFB40606900209E004F090020980
:101C3100E0FFD3648094894004E4F0800EC3EF6434
:101C410080948050069002097409F0900209E0FF27
:101C5100122E0A900208E064026003021BC990027E
:101C61000AE0FF14F0D3EF64809480406790020C87
:101C7100E0FCA3E0FDA3E0FEA3E0FFE47B0AFAF9A8
:101C8100F812124890020C1212BB90020CE0F8A359
:101C9100E0F9A3E0FAA3E0FB900209E0FF3395E04D
:101CA100FEFDFCEB2FFFEA3EFEE93DFDE83CFC902A
:101CB100020C1212BB90020AE025E0FFC374119FCF
:101CC100FD7BFF7A3979AFE4900216F07F02123C76
:101CD100A5021BC990027AE0FCA3E0FDA3E0FEA3EC
:101CE100E0FF90020CE0F8A3E0F9A3E0FAA3E0FB27
:101CF100C31212A5700990027E7402F07F01229036
:101D0100021374C0F07B107D017F1112174B7BFF12
:101D11007A06793AE4900215F07D057F0212308847
:101D21007BFF7A06795AE4900215F07D067F021254
:101D310030887BFF7A06797AE4900215F07D077F7F
:101D4100021230887BFF7A06799AE4900215F07DC1
:101D5100087F021230887BFF7A3979B1E49002164C
:101D6100F07D117F02123CA512448190021374C0D0
:101D7100F07B107D017F1112174B90020A7406F05F
:101D810090020C1212C70000000090020BE014F048
:061D91006003021BC9FF04
:011D97002229
:0D448E00C2C9124474D2C9E490027EF0222B
:0144F50022A4
:10439500900263E0FEA3E0FFE4FCFD90020C121224
:0843A500BB7D167F01022B53C2
:1043AD00900261E0FEA3E0FFE4FCFD90020C12120E
:0843BD00BB7D0E7F04022B53AF
:1032EA00EF24FE604A04600302338F7BFF7A03797E
:1032FA001AE4900215F07D027F041230887BFF7A6F
:10330A0003793AE4900215F07D037F041230887B3A
:10331A00FF7A03799A9002157401F07D067F0412F0
:10332A0030887BFF7A0379BA900215740180427B58
:10333A00FF7A03791A9002157401F07D027F041254
:10334A0030887BFF7A03793A9002157401F07D0385
:10335A007F041230887BFF7A03799AE4900215F091
:10336A007D067F041230887BFF7A0379BAE49002E3
:10337A0015F07D077F041230887BFF7A3979B3E430
:10338A0090021680537BFF7A03791AE4900215F0B3
:10339A007D027F041230887BFF7A03793AE4900237
:1033AA0015F07D037F041230887BFF7A03799AE453
:1033BA00900215F07D067F041230887BFF7A03792C
:1033CA00BAE4900215F07D077F041230887BFF7AF9
:1033DA003979B39002167401F07D137F04123CA56B
:0133EA0022C0
:0534D600900208EFF078
:1034DB00E4A3F030010812427812280B803E9002D0
:1034EB0008E0FFB40506A3E004F0800AEFB406067B
:1034FB00900209E014F0900209E0FFD364809482FB
:10350B004004E4F0800EC3EF648094805006900278
:10351B00097402F0900209E0FF1232EA90020B12DA
:10352B0012C70000000A7F01123D05123E9B90025C
:10353B0008EFF0606890020B1212C70000000A7FC0
:10354B0001123D05900208E0FEB4020C90027E745D
:10355B0001F0900209E0FF22EEB401037F002290FC
:10356B000208E0FFB40506A3E004F0800AEFB406FE
:10357B0006900209E014F0900209E0FFD3648094F6
:10358B00824004E4F0800EC3EF6480948050069078
:10359B0002097402F0900209E0FF1232EA7F011275
:0735AB004158EF60867F002C
:0135B20022F6
:10280B00C20190020D743EF0A374FFF0A37406F0A6
:10281B00A374CAF07B2D7D017F01122F4A7BFF7AB7
:10282B0000793AE4900215F07D057F011230887B28
:10283B00FF7A00795AE4900215F07D067F01123081
:10284B00887BFF7A0079BAE4900215F07D077F014F
:10285B001230887BFF7A00797AE4900215F07D08BC
:10286B007F011230887BFF7A3979ABE4900216F046
:10287B007D117F01123CA51243957BFF7A0679BA35
:10288B00E490022CF07D177F01122CD67BFF7A3956
:10289B0079B8E4900216F07D187F01123CA57BFFFE
:1028AB007A02799AE4900215F07D057F0212308846
:1028BB007BFF7A0279BAE4900215F07D067F021253
:1028CB0030887BFF7A3979ABE4900216F07D0D7F6F
:1028DB0002123CA57BFF7A0279DAE4900215F07DB7
:1028EB000A7F021230887BFF7A0279FAE490021594
:1028FB00F07D0B7F021230887BFF7A04797AE490AB
:10290B000215F07D057F031230887BFF7A04799ADC
:10291B00E4900215F07D067F031230887BFF7A3935
:10292B0079ABE4900216F07D0D7F03123CA57BFF83
:10293B007A0179DAE4900215F07D0A7F0312308870
:10294B007BFF7A0179FAE4900215F07D0B7F03127D
:10295B0030887BFF7A03791AE4900215F07D027FB1
:10296B00041230887BFF7A03793AE4900215F07DEC
:10297B00037F041230887BFF7A03799AE490021567
:10298B00F07D067F041230887BFF7A0379BAE490DE
:10299B000215F07D077F041230887BFF7A3979B3FB
:1029AB009002167401F07D137F04123CA57D017F0C
:0429BB0037021D982A
:101FEC00D2017BFF7A0079BAE4900215F07D037F71
:101FFC00011230887BFF7A0079DAE4900215F07DCB
:10200C00047F011230887BFF7A0179DAE4900215A3
:10201C00F07D057F011230887BFF7A0179FAE4901C
:10202C000215F07D067F011230887BFF7A02791A47
:10203C00E4900215F07D077F011230887BFF7A0255
:10204C00793AE4900215F07D087F011230887BFF0D
:10205C007A02795AE4900215F07D097F01123088DA
:10206C007BFF7A02797AE4900215F07D0A7F0112E7
:10207C003088900274E0FEA3E0FFE4FCFD900211B6
:10208C001212BB7B047D0A7F021229BF7BFF7A01EF
:10209C00797AE4900215F07D067F02123088900266
:1020AC0073E0FFE4FCFDFE9002111212BB7B027D7B
:1020BC000E7F021229BF7BFF7A01799AE4900215F8
:1020CC00F07D087F02123088900271E0FFE4FCFD85
:1020DC00FE9002111212BB7B027D127F021229BFED
:1020EC007BFF7A0179BAE4900215F07D0A7F021227
:1020FC003088900270E0FFE4FCFDFE900211121299
:10210C00BB7B027D067F031229BF7BFF7A3979AB3B
:10211C00E4900216F07D077F03123CA590026FE05D
:10212C00FFE4FCFDFE9002111212BB7B027D097FC5
:10213C00031229BF7BFF7A3979ABE4900216F07D4C
:10214C000A7F03123CA590026EE0FFE4FCFDFE90BA
:10215C0002111212BB7B027D0C7F031229BF7BFF85
:10216C007A0479DAE4900215F07D087F0312308846
:10217C007BFF7A0479FAE4900215F07D097F031253
:10218C003088900272E014B4070050659021A67557
:10219C00F003A4C58325F0C583730221BB0221C3C0
:1021AC000221CB0221D30221DB0221E30221EB7BB2
:1021BC00FF7A05791A802E7BFF7A05793A80267B87
:1021CC00FF7A05795A801E7BFF7A05797A80167B17
:1021DC00FF7A05799A800E7BFF7A0579BA80067BA7
:1021EC00FF7A04795AE4900215F07D0A7F031230CD
:1021FC00881243AD7BFF7A0679BAE490022CF07D0D
:10220C000F7F04122CD67BFF7A3979B8E490021632
:08221C00F07D107F04023CA5D7
:0A1D980090020BEDF090020AEFF04C
:101DA200E490020CF0AC07EC120F907BF67A2879E3
:101DB2001C7840120EE9E4FBFA7980783F120DF5A7
:101DC200120FC490020BE06005E4900278F09002DA
:101DD20078E0FEC3EF9E900277F0C3648094805057
:101DE2000D90020C7401F0900277E0F404F0E4909C
:101DF200020DF0900277E0FF3395E0FE90020DE0D5
:101E0200C39FEE6480F87480984003021F91900291
:101E12000CE0FF9002786005E014F08003E004F02B
:101E2200900278E024FE604A14606B147003021E74
:101E3200BC24DE7003021EE0147003021F03147040
:101E420003021F25147003021F4724286003021F88
:101E520055EF600F900213742BF07B017D057F2AF2
:101E6200021F6F9002117429F07B017D067F2B0205
:101E72001F8590020CE0600F900213742DF07B011D
:101E82007D047F29021F6F900211742BF07B017D6C
:101E9200057F2A021F8590020CE0600F90021374E6
:101EA2002DF07B017D047F28021F6F900211742D9B
:101EB200F07B017D047F29021F8590020CE0600FF8
:101EC200900213742FF07B017D037F27021F6F9016
:101ED2000211742DF07B017D047F28021F85900280
:101EE2000CE0600E900213742DF07B017D047F05DF
:101EF200807B900211742DF07B017D047F06021F0E
:101F02008590020CE0600E900213742BF07B017D31
:101F1200057F048058900211742DF07B017D047FAF
:101F220005806090020CE0600E9002137429F07B31
:101F3200017D067F038036900211742BF07B017DB8
:101F4200057F04803E9002117429F07B017D067F9B
:101F520003803090020CE09002786016E0FFC374B8
:101F62002B9FFF900213742FF07B017D0312174BFE
:101F72008014E0FFC3742C9FFF900211742FF07B3A
:101F8200017D031213C690020DE004F0021DF590CC
:101F9200020AE0FF3395E0FEFDFC9002111212BB33
:101FA200E4FB7D047F021229BF7BFF7A3979BAE410
:101FB200900216F07D057F02123CA590020AE0FF16
:101FC200B4631E900279E0FEC3EF9EC364809480E6
:101FD200500F9002117408F07B107D097F111213CB
:091FE200C690020AE0900279F0B9
:011FEB0022D3
:1043C50076616C69642064617461207265636569F6
:0743D5007665642E0D0A005D
:0D24250041029000C10244028C616263001C
:0544EA00D288D2A822D7
:0644E400758F10D2A92221
:1031BB00900207740AF0124481438E401244EA12C3
:1031CB0044E41243F0D20312443A1200061244EFC5
:1031DB001241E51244811244BF1238D912432BC25B
:1031EB0089C28BC299D2AF90020B1212C70000009A
:1031FB000A7F02123D0512280B123E9BEF603390A3
:10320B000207740AF0C2CB1234D6EF24FE6011040D
:10321B007011121A9112448E12427812280B8003ED
:10322B001244F590020B1212C70000000A7F021223
:10323B003D05900290E054F1F0309304E0F08028CB
:10324B0030940C200209900290E04402F080193077
:10325B00940C300209900290E04406F0800A20940E
:10326B0007900290E04404F0900290E0540E7F022D
:10327B00124158EF6083D2CB300146900234741068
:10328B00F0E4A3F09002327455F0A374AAF07B0122
:10329B007A0279327F0C123C4490023EE06017E4D4
:1032AB00F01233EBBF020F7BFF7A4379C512440454
:1032BB00123E51123DB212427812446712280B8013
:1032CB000C123757124278124467121FEC90020B04
:0F32DB001212C70000000A7F02123D05023204E2
:103B660090029BEEF0A3EFF07C277D101211C71296
:103B760044D790029BE0FEA3E0FF7C037DE8121190
:103B8600C77C007D0A1211C7AF051244D790029B6D
:103B9600E0FEA3E0FF7C007D641211C77C007D0A75
:103BA6001211C7AF051244D77F2E1244C890029B4C
:103BB600E0FEA3E0FF7C007D0A1211C77C007D0AAF
:103BC6001211C7AF051244D790029BE0FEA3E0FF97
:0C3BD6007C007D0A1211C7AF050244D725
:0300030002407C3C
:10407C00C0E0C0F0C083C082C0D075D000C000C00A
:10408C0001C002C003C004C005C006C007123A4DEF
:10409C00D007D006D005D004D003D002D001D00078
:0B40AC00D0D0D082D083D0F0D0E03222
:03000B000240B7F9
:1040B700C0E0C0F0C083C082C0D075D000C000C0CF
:1040C70001C002C003C004C005C006C007123FB349
:1040D700D007D006D005D004D003D002D001D0003D
:0B40E700D0D0D082D083D0F0D0E032E7
:100DEE00021030E86480F8E933E83360110460F0F3
:100DFE00ED33EC337009E8FCE9FDEAFEEBFF22046B
:100E0E0060DED3EB9FEA9EE99DE8C2E78CF0C2F765
:100E1E0095F0400CE8CCF8E9CDF9EACEFAEBCFFB31
:100E2E00120FFB85D0F05804700320D5B3E8047080
:100E3E00075002B2D502103A92D5EC0460F7E4CC1A
:100E4E00C0E0C398F8603B94186008400DD0E0FBFA
:100E5E00021012E4FBFAC9FC8028E830E406E4C96B
:100E6E00FBE4CAFCE830E305E4C9CACBFCE854074E
:100E7E006010F8C3E913F9EA13FAEB13FBEC13FC59
:100E8E00D8F130F52FC3E49CFCEF9BFFEE9AFEEDFC
:100E9E0099FDD0E0FBEF4E4D4C701222DB03021099
:100EAE0037EC2CFCEF33FFEE33FEED33FDED30E788
:100EBE00EB021012EF2BFFEE3AFEED39FDD0E0FB08
:100ECE0050130BBB000302103AED13FDEE13FEEFB1
:080EDE0013FFEC13FC021012DB
:100EE60002103AEC5D046005E85904700302103004
:100EF600120FFB580460F6EC4860F2EC7004FDFE3D
:100F0600FF22C860DB2481C85009C39860025006DE
:100F16000210379850CAF582E9294B4A7005AB8210
:100F260002102675F0007C1A7880C3EF9BEE9AEDCE
:100F360099400DC3EF9BFFEE9AFEED99FDE842F056
:100F4600DC23ACF0D0E0FFD0E0FED0E0FDAB8220A9
:100F5600E7101BEB60BAEC2CFCEF33FFEE33FEED33
:100F660033FD021012E803F830E705C0F075F00013
:100F7600EF2FFFEE33FEED33FD40B830E7C280AA17
:100F860075F020800E75F010800575F0087D007EE6
:100F9600007F003392D530D503121297EC33401000
:100FA600EF33FFEE33FEED33FDEC33FCD5F0ED22EF
:0E0FB600E5F0247EA2D513CC92E7CDCEFF222B
:100FC400EDD2E7CD33EC3392D524814006E4FFFE25
:100FD400FDFC22FCE4CFCECDCC24E0501174FF8084
:100FE400EDC3CC13CCCD13CDCE13CECF13CF047021
:070FF400F030D5DE02129778
:100FFB00E9D2E7C933E833F892D5EDD2E7CD33EC3C
:07100B0033FC5002B2D522B4
:10101200EC30E7100FBF000C0EBE00080DBD00043F
:101022000BEB6014A2D5EB13FCED92E7FD2274FFEB
:10103200FCFDFEFF22E480F8A2D574FF13FC7D8044
:03104200E480EF58
:03000000023ADAE7
:0C3ADA00787FE4F6D8FD758120023B21C6
:10104500E709F608DFFA8046E709F208DFFA803E8D
:1010550088828C83E709F0A3DFFA8032E309F6087A
:10106500DFFA8078E309F208DFFA807088828C83E2
:10107500E309F0A3DFFA806489828A83E0A3F60896
:10108500DFFA805889828A83E0A3F208DFFA804C70
:1010950080D280FA80C680D4806980F28033801047
:1010A50080A680EA809A80A880DA80E280CA8033B0
:1010B50089828A83ECFAE493A3C8C582C8CCC58328
:1010C500CCF0A3C8C582C8CCC583CCDFE9DEE780F8
:1010D5000D89828A83E493A3F608DFF9ECFAA9F077
:1010E500EDFB2289828A83ECFAE0A3C8C582C8CCCD
:1010F500C583CCF0A3C8C582C8CCC583CCDFEADEE6
:10110500E880DB89828A83E493A3F208DFF980CC47
:1011150088F0EF60010E4E60C388F0ED2402B40440
:101125000050B9F582EB2402B4040050AF232345E7
:0611350082239010957367
:10113B00BB010689828A83E0225002E722BBFE02B2
:09114B00E32289828A83E49322E5
:10115400BB010CE58229F582E5833AF583E0225050
:1011640006E92582F8E622BBFE06E92582F8E2229A
:0D117400E58229F582E5833AF583E49322B4
:10118100BB010689828A83F0225002F722BBFE014D
:02119100F32247
:10119300F8BB010DE58229F582E5833AF583E8F092
:1011A300225006E92582C8F622BBFE05E92582C83E
:0211B300F22226
:1011B500EF8DF0A4A8F0CF8CF0A428CE8DF0A42E4E
:0211C500FE2208
:1011C700BC000BBE0029EF8DF084FFADF022E4CC0C
:1011D700F875F008EF2FFFEE33FEEC33FCEE9DECD5
:1011E700984005FCEE9DFE0FD5F0E9E4CEFD22ED1B
:1011F700F8F5F0EE8420D21CFEADF075F008EF2F65
:10120700FFED33FD4007985006D5F0F222C398FD55
:051217000FD5F0EA22F2
:10121C00C5F0F8A3E028F0C5F0F8E582158270025D
:06122C001583E038F022FA
:10123200A3F8E0C5F025F0F0E5821582700215836F
:06124200E0C838F0E822CC
:10124800E88FF0A4CC8BF0A42CFCE98EF0A42CFC45
:101258008AF0EDA42CFCEA8EF0A4CDA8F08BF0A4C3
:101268002DCC3825F0FDE98FF0A42CCD35F0FCEB22
:101278008EF0A4FEA9F0EB8FF0A4CFC5F02ECD39E7
:0F128800FEE43CFCEAA42DCE35F0FDE43CFC2254
:103FF700C2D5E830E70FB2D5E4C39BFBE49AFAE4F5
:1040070099F9E498F8EC30E717B2D512402D12135E
:1040170034E4C39BFBE49AFAE499F9E498F8800343
:1040270012133430D50DE4C39FFFE49EFEE49DFDDB
:04403700E49CFC22E7
:0E129700C3E49FFFE49EFEE49DFDE49CFC2268
:1012A500EB9FF5F0EA9E42F0E99D42F0EC6480C8C0
:0612B50064809845F02260
:0C12BB00ECF0A3EDF0A3EEF0A3EFF022A6
:1012C700A8828583F0D083D0821212DE1212DE123A
:1012D70012DE1212DEE473E493A3C583C5F0C5835F
:1012E700C8C582C8F0A3C583C5F0C583C8C582C871
:0112F70022D4
:103AE6000231BBE493A3F8E493A34003F68001F20A
:103AF60008DFF48029E493A3F85407240CC8C333E1
:103B0600C4540F4420C8834004F456800146F6DFAF
:103B1600E4800B0102040810204080902224E47EF9
:103B2600019360BCA3FF543F30E509541FFEE493A4
:103B3600A360010ECF54C025E060A840B8E493A36B
:103B4600FAE493A3F8E493A3C8C582C8CAC583CA96
:103B5600F0A3C8C582C8CAC583CADFE9DEE780BE4E
:0124320000A9
:1012F80075F008758200EF2FFFEE33FECD33CDCCAD
:1013080033CCC58233C5829BED9AEC99E58298402F
:101318000CF582EE9BFEED9AFDEC99FC0FD5F0D60C
:10132800E4CEFBE4CDFAE4CCF9A88222B800C1B936
:101338000059BA002DEC8BF084CFCECDFCE5F0CB74
:10134800F97818EF2FFFEE33FEED33FDEC33FCEBAD
:1013580033FB10D703994004EB99FB0FD8E5E4F968
:10136800FA227818EF2FFFEE33FEED33FDEC33FC55
:10137800C933C910D7059BE99A4007EC9BFCE99A49
:10138800F90FD8E0E4C9FAE4CCFB2275F010EF2F8E
:10139800FFEE33FEED33FDCC33CCC833C810D7078E
:1013A8009BEC9AE899400AED9BFDEC9AFCE899F8C9
:0E13B8000FD5F0DAE4CDFBE4CCFAE4C8F9225C
:00000001FF
