:104DFD00436865636B205349343433322E2E2E0DA8
:104E0D000A004445564943455F545950453A2030B0
:104E1D007825782E0D0A000D0A0044455649434564
:104E2D005F56455253494F4E3A20307825782E0D16
:104E3D000A004445564943455F5354415455533A2E
:104E4D002061742069646C65206D6F64652E0D0A98
:104E5D00004445564943455F5354415455533A20F8
:104E6D006174205258206D6F64652E0D0A00444503
:104E7D00564943455F5354415455533A206174206C
:104E8D005458206D6F64652E0D0A0043727973744A
:104E9D00616C204F7363696C6C61746F72204C6F21
:104EAD0061642043617061636974616E63653A206A
:104EBD0025780D0A0053493434333220494F2049A7
:104ECD006E69742E2E2E2E2E2E0D0A00494F20495E
:104EDD006E697420636F6D706C657465642E0D0A58
:104EED0000534934343332206973206E6F74206659
:104EFD006F756E642E2E2E2E2E2E0D0A00534934F4
:104F0D00343332204750494F496E697420636F6DB9
:104F1D00706C6574652C636F6E6669672064657669
:104F2D006963652E2E2E2E2E2E0D0A00436F6E6692
:104F3D0069672052462E2E2E2E2E2E0D0A00534915
:104F4D0034343332496E697420636F6D706C6574DF
:104F5D00652E0D0A002072657620496E7465727299
:104F6D007570740D0A002073656E6420496E74654A
:104F7D0072727570740D0A006D6F646520726567CD
:094F8D0069737465723A0D0A00A3
:1078EF00D3EF9400EE64809480400F7D817C14DC94
:0A78FF00FEDDFAEF1F70E91E80E6BF
:01790900225B
:077B7700C2C3D2B3D2B22257
:0977D9009002CEEFF07D017F0E5D
:1077E20090020FEDF0C2B3EF4480FF127AEA9002EA
:0977F2000FE0FF127AEAD2B32283
:077A32009002CDEFF07F048C
:0C7A3900C2B3127AEA7FFF127AEAD2B3DD
:017A4500221E
:106934007BFF7A4D79FD127A6EE4FF127A39900268
:106944000AEFF07BFF7A4E790F127A6E90020AE01A
:10695400FF1276537BFF7A4E7924127A6E90020AE4
:10696400E0640860037F01227F01127A3990020AF1
:10697400EFF07BFF7A4E7927127A6E90020AE0FFDD
:106984001276537BFF7A4E7924127A6E7F02127A42
:106994003990020AEFF0540F70087BFF7A4E793F6A
:1069A400802290020AE0540FFFBF01087BFF7A4E59
:1069B400795E801090020AE0540FFFBF02097BFF4A
:1069C4007A4E797B127A6E7F09127A3990020AEF35
:1069D400F07BFF7A4E7998127A6E90020AE0FF12E9
:0D69E40076537BFF7A4E7924127A6E7F0085
:0169F1002283
:106602007D537F751277E27D4B7F761277E2E4FD50
:106612007F771277E27D097F6E1277E27DD57F6FF9
:106622001277E27D2C7F701277E27D807F5812779D
:10663200E27D1F7F6D1277E27D207F721277E27D0D
:106642002C7F1C1277E27D417F201277E27D607FF2
:10665200211277E27D277F221277E27D527F231279
:1066620077E2E4FD7F241277E27D047F251277E250
:106672007D407F1D1277E27D0A7F1E1277E27D0F39
:106682007F2A1277E27D037F1F1277E27D607F69A6
:106692001277E27D0C7F341277E27D2A7F35127702
:1066A200E27D027F331277E27D2D7F361277E27D23
:1066B200D47F371277E27D8D7F301277E2E4FD7F5F
:1066C200321277E27D637F711277E27DB47F090235
:0266D20077E26D
:1069F2007BFF7A4E79C2127A6E127B777BFF7A4ED8
:106A020079D9127A6E7F147E008013126934EF6096
:106A1200127BFF7A4E79EE127A6E7FF47E01127843
:106A2200EF80E87DCA7F0B1277E27DCA7F0C127776
:106A3200E27DCA7F0D1277E27F0A7E001278EF7B39
:106A4200FF7A4F790A127A6E7F03127A39127A32FA
:106A52009002CEEFF07D807F071277E27F147E00F6
:106A62001278EF7F03127A39127A329002CEEFF067
:106A72007BFF7A4F7939127A6E1266027DFF7F05AB
:106A82001277E27DFF7F061277E27F03127A3912D4
:106A92007A329002CEEFF07D077F051277E2E4FDB5
:0E6AA2007F061277E27BFF7A4F794B027A6E05
:107A81007F03127A39127A321277D97D057F070284
:027A910077E29A
:10790A007F03127A39127A329002CEEFF07D027F2B
:0B791A000E1277E27D097F070277E282
:107A93007F03127A39127A321277D97D017F070276
:027AA30077E288
:10713C0090020BEBF0A3EAF0A3E9F090020AEFF057
:01714C00FD45
:10714D007F3E1277E2E490020EF090020AE0FF908B
:10715D00020EE0FEC3EF6480F8EE64809850259037
:10716D00020BE0FBA3E0FAA3E0F9EEFF3395E08F0D
:10717D0082F5831216EAFD7F7F1277E290020EE010
:07718D0004F080C602790A3C
:106CCF007F07127A39900204EFF07F03127A39129C
:106CDF007A329002CEEFF09002CDE030E15B7BFF95
:106CEF007A4F7962127A6E7F4B127A39900205EFE2
:106CFF00F0BF0C2EE4900204F0900205E0FF90022A
:106D0F0004E0C39F501C7F7F127A39900204E02465
:106D1F0055F582E43402F583EFF0900204E004F0BD
:106D2F0080D77D027F081277E2E4FD7F081277E2B9
:106D3F00127A819002537401F09002CDE030E20C90
:0C6D4F007BFF7A4F7973127A6E127A8102
:016D5B002215
:107792007F07127A399002D3EFF07BFF7A4F798517
:1077A200127A6E9002D3E0FF1276537BFF7A4E7903
:0477B20024027A6EC5
:0C37A2004902AA00000001050107E00038
:097B6600E4FB7D0E7FD0027925BD
:10687000E4FD7FD0127973AD07ED54F0C4540F7569
:10688000F00AA4FFED540F2F9002AAF07D017FD0F3
:10689000127973AD07ED54F0C4540F75F00AA4FFDC
:1068A000ED540F2F9002ABF07D027FD0127973ADC3
:1068B00007ED54F0C4540F75F00AA4FFED540F2FE8
:1068C0009002ACF07D047FD0127973AD07ED54F0E7
:1068D000C4540F75F00AA4FFED540F2F9002ADF0D1
:1068E0007D037FD01279739002AEEFF07D057FD0EB
:1068F000127973AD07ED5410C4540F75F00AA4FF5C
:10690000ED540F2F9002AFF07D067FD0127973AD5A
:1069100007ED54F0C4540F75F00AA424D0FFE5F03D
:106920003407FEED540F7C002FFFEC3E9002B0F0D8
:03693000A3EFF0E2
:016933002241
:1066D400900216E0FF75F00A84C454F0FEEF75F0E2
:1066E4000A84E5F02EFBE4FD7FD012792590021791
:1066F400E0FF75F00A84C454F0FEEF75F00A84E5F7
:10670400F02EFB7D017FD0127925900218E0FF75F1
:10671400F00A84C454F0FEEF75F00A84E5F02EFB11
:106724007D027FD0127925900219E0FF75F00A846A
:10673400C454F0FEEF75F00A84E5F02EFB7D047F6F
:10674400D012792590021AE0FB7D037FD0127925BF
:1067540090021BE0FF75F00A84C454F0FEEF75F05C
:106764000A84E5F02EFB7D057FD012792590021D69
:10677400E02430FF90021CE034F8FE7C007D0A1215
:10678400175DEFC4F8540FC868FFAB07E0FEA3E041
:10679400FF7C007D0A12175DEB2DFB7D067FD00286
:0267A400792555
:100026006275737920636865636B2E2E2E0D0A0048
:1000360000000000000000000000000000000000BA
:10004600000000000018188888286A4E0CE8E808A6
:1000560008181800000444446525341C0E0F1D348E
:100066006444040000F8F888F8F81090901010FE28
:10007600FE101000001F1F081F1F00000343407FD3
:100086007F0000000020644C0800FEFE929292FE63
:10009600FE00000000303C0F437E7E7E7E427E7E68
:1000A6007E7E4000000000F8F828F8FAAEACA8F80A
:1000B600F82828000040703F4F42662E3A123A2E2A
:1000C6006642400000202020A0E060FFFFE0C06004
:1000D600381800002030180E0741C0FF7F010306C4
:1000E6000C1810100080C0F0FE0E9090121E1CD04E
:1000F600D01000000000007F7F40414F4E607C5FC3
:100106004340400000F8F888F8F81090901010FE70
:10011600FE101000001F1F081F1F00000343407F32
:100126007F0000000000F0F20EECE4242424E4E456
:1001360004FCFC0000007F7F000F0F0909090F4F28
:10014600407F7F0000808282FEFE82828282FEFEE7
:1001560082828000004060381F07000000007F7F19
:100166000000000000001010121E1CF0F0181E16F1
:10017600101000000041416131190F07070F1931B6
:1001860061414100002038DFC7444444FCFC44443C
:10019600444404000404040707040404FFFF0404A1
:1001A60004040404000000FEFE222222222222224F
:1001B600FEFE000080C0703F0F020202020242C231
:1001C600FF7F0000000000FEFE828282828282FEA5
:1001D600FE000000000000FFFF404040404040FF9E
:1001E600FF000000000000F8F88C8E8B898888F8E4
:1001F600F8000000000000FFFF444444444444FF6C
:10020600FF0000004044C4C44444445010FFFF10A3
:1002160010F0F000103C3F1314BCF8703E0F41C0C4
:10022600C07F3F00101010FFFFB0B8D868290F2E0E
:1002360068E8B8180242C3FF7F40404242427E7ED1
:100246004242424040505E4E48FFFF484848F8F858
:1002560000FFFF0000003E3E02FFFF323E1E0F4F32
:10026600C0FF7F00000022323AAEA6E26331198950
:1002760081010000004262331B4BC2FE7E020A1A55
:10028600336746002030BCEF733088C8E8B99F8ECC
:10029600A8E8C888226767321292C0703F0F003FF5
:1002A6007F40717100083830FFFF202020FFFF20BB
:1002B600222E2C2004040603FFFFC0703E0F071EEB
:1002C6003860C08000048484C46474DF9F3464C4CE
:1002D60084840400417939003C7C40424E4C407095
:1002E600740D3931101C4C6434140507060414349B
:1002F60064541C0C004040414141417F7F414141D3
:100306004140400000F8F943424242FAFA42424272
:1003160042FEFE0000FFFF080C06033F3F03064CAB
:10032600C8FF7F000000FEFE42424242FAFA424205
:1003360042C2C20280E07F9FC060381E070140C0F3
:10034600C07F3F000000F8F8888888FFFF8888880B
:10035600F8F80000808081C54C78303F2F6040401F
:10036600C181808090D27634FFFF3476D2F0FF8F41
:1003760008F8F808829ADE776372DE8E80C0733FD3
:100386003F73C0801010FFFF9090FEFE9292F2F233
:10039600929E9E8042C2FF7F81E07F1FFCFC474702
:1003A60044FCFC00404042CECC40E0BE9E82829E91
:1003B600BEA020200000003FBF98C8436F3C386EA7
:1003C60047C18080001717D5D557577D7D5757D51C
:1003D600D51717004040407F7F5555555555557FD9
:1003E6007F404040404042CECC00FCFCA4A42622E4
:1003F600A3E362000040603F3F785F57584D474790
:100406004D5850400000FEFE02F2F21212F2F202C5
:10041600FEFE000000007F7F2027272424272720B8
:100426007F7F000020305C4F57545454545454D4AA
:10043600D404040000000000000000000000000FCB
:100446003F70F0F08080C06030182CE7C70C183081
:1004560060C080800000000202020282C2623A1E70
:100466000600000040404242424242FEFE424242F4
:10047600424240408080C060301C0F03030F1C3096
:1004860060C080801010D0FFFF94F4EFAFA4A4AF3B
:10049600EFE40400040703FFFF89CB6B3A1E1E3A04
:1004A6006BCB8880101090909090909010FFFF106A
:1004B60011171610002060603F3F101010030F1C2C
:1004C6003060F8F800002424242424FCFE22222391
:1004D60023220000020202020242C2FF7F0202023F
:1004E60002020202000000BEBE2A2AEAEA2A2A3EC8
:1004F6003E0000000044464B4949497F7F4949492F
:10050600494140000004FFFF2424FFFF04FEFE22B1
:1005160022FEFE0088C86F2F0919BFEF783F0F42F1
:10052600C2FF7F0080808080808080808080808085
:1005360080808080000000000000000000000000B5
:100546000000000000000808080808080808080855
:1005560008080000101010101010101010101010C5
:100566001010101000048484848484848484848419
:1005760084840400202020202020202020202020E9
:100586002020202000FCFC0404FCFC0404FCFC04E9
:1005960004FCFC00007F7F2C27232020202123221F
:1005A600227F7F000002424242C2FE7E424242C297
:1005B600C202020040404040787F47404040407FB2
:1005C6007F40404020202020202021232E2C202048
:1005D60020202020004060301C0F0300000103068D
:1005E6001C7860004042CECC00445454547F7F5463
:1005F6005454444000007F7F3010FFFF151555D539
:10060600FF7F000088E87FDFC818D8DC56D3D39672
:100616009CD8D010091919FFFF05FFFF92FFFF5F55
:10062600DFFF7F00000000000001E3FEFCE00000A9
:100636000000000080C060301C0F030000030F3C68
:1006460070C08080109CCC44E4E495B7E664349492
:10065600C4D49C0C02027A7B4143437E7E424243D1
:10066600FBF800000484E4FC5CC4C402F2F282825B
:10067600FEFE808002037F7F103F3F08080808487F
:10068600C8C87F3F4070FFEF646C487F7F48487F53
:100696007F48484001017F7F3111FFFF49494949A1
:1006A600FFFF00004042CECC00809E9E9292929226
:1006B6009E9E800000007F7FB494C464341F1F3464
:1006C60064C48484101010FFFF9090F0F010FFFFB8
:1006D60010F0F0000444C6FF7F0100FFFF427F7F59
:1006E60042FFFF004040C0DF5F55D5D55555555FE9
:1006F6005F40404020607F3F3515FFFFD76F393D93
:100706006FC3808020202020202020FFFF20202073
:10071600202020208080C060301C0F03030F1C3077
:1007260060C08080000000E0E00000FFFF000020C5
:1007360060C08000080C07030040C0FF7F00000077
:1007460000010F0E80E0F8FF0704747455575654E5
:10075600747404000000FFFF03030545C5FD7D0515
:1007660005050303206464B494BFBF809FBFA4A69D
:10077600A23A3800000000FFFF0A0A0A0A4ACAFF26
:100786007F000000404042465CD8C07F7FC0D05802
:100796004E4640408080C060381F0700003F7F40C3
:1007A600404078784060F8FFF7F0B0DC5F77A4F45B
:1007B6005CCC80800000FFFF1F9F92D25B692D36C4
:1007C6001A0800000484848484FCFC70FCCF0B08A7
:1007D600F8F80808007F7F30101888C061371E1EA1
:1007E6003761C08020303CEFE72424E2EE2CBFBF07
:1007F60028EEE6000101017F7F3191CF6F301F1F88
:10080600306FCF80101C0C24242425272624242472
:1008160024141C0C008181C1713F0F01017FFF81EF
:1008260081F1F1000000F8F88888888808FFFF0940
:100836000BCAC80880E07F1F10303F9FC061371E7B
:100846003E67F9F80080E0F8FF073E3E22E2E2222A
:100856003E3E0000010100FFFF31190D07FFFF07B3
:100866000D193120040484E4FC1F27242424A4E465
:1008760064240404020301FFFF020242C2FF7F0256
:100886000202020240445475E7E6745444FCFC44F8
:10089600C4C6424020325ACAFF7F0A9AF27F1F001E
:1008A600FFFF00000202F2F2929292FEFE929292F4
:1008B600F2F202020404FFFF04040407070444C41E
:1008C600FF7F040400020E8CE0E0C0703FCFC80832
:1008D6002838180002027E7F81C060381E07071E76
:1008E6003860C080000202020282C2F2FE4EC2825C
:1008F6000202020010180C06030100FFFF000001AF
:10090600030E0C0010180C87EF7C94949C8F87ECD8
:10091600FC948484040603FFFF0000020E4CC0FF13
:100926007F00000000F8F923222222A2FAFA2222EE
:1009360022FEFE0000FFFF080C0613313F1F004099
:10094600C0FF7F0000E0E0FFFF302888F87F0FE857
:10095600E8088888010100FFFF101C8FC7673B1F4E
:100966001F7AE381203018FFF7545454545454F43A
:10097600F4040400809090D94D5F772525755D4D70
:10098600C58080807E7E5AFEFE5A7E7E2020FFFF36
:10099600222E2C20E9E9696F6765B5F5703E0F0FC9
:1009A6003E70C080404042CECC00000000FFFF00F9
:1009B600000000000000003FBFD868381F07071F6F
:1009C6003860C0800000007F7F4949494949497F16
:1009D6007F00000081C1613D3D61C1FFFF898989BA
:1009E6008989818100028282C26232FAFE262262EF
:1009F60042C28200010101FCFC444445454444FCDA
:100A0600FC0001010484E4FC5CC4E430F8EF27E454
:100A1600F43CECE002037F7F103FBFE07F1F093FFD
:100A26007FC9FF7F101C4C44444445C7C644444418
:100A360044541C0C80C0603E3E60407F7F4444446A
:100A460044444040829A9E97FBFA52D2FE7E12128E
:100A5600F3F11110000101FEFF939393929292FE1F
:100A6600FF0300000040424242C2FE7EC2C2424232
:100A76004240400080C060301C0F03003F7F404072
:100A86004070700000F8F808080888FFFF8808081A
:100A960008F8F80000FFFF080C0603010001034EEA
:100AA600CCFF7F00101C4C643494C56766C4943434
:100AB60064541C0C040406FEFF454444444445FFAC
:100AC600FE06040400000000000000FFFF080808FE
:100AD600080808080000FFFF4141414141414141EA
:100AE600FFFF00002030BCEF6338989090FFFFD9DD
:100AF6004B4A4840226767321212524060331F1C2D
:100B06003663F9F80000F0F0101010FFFF10101017
:100B1600F0F0000000000F0F040404FFFF040404BB
:100B26000F0F0000040404F4F4D4F5A7A6F4D4F4DB
:100B3600F404040400FEFE02123A3E17131A3A7237
:100B4600C2FE7E000000183C243C18000000000095
:100B560000000000E0380C0602030101010101015A
:100B6600010101010101010101010101010101016F
:100B7600010101010101010101010101010101015F
:100B8600010302060C38E0404040404040404040EF
:100B9600C000FF0000000000000000000000000090
:100BA600000000000000000000000000000000003F
:100BB600000000000000000000000000000000002F
:100BC60000000000FF40C000000000000000FF0021
:100BD600FF00000000000000000000000000000010
:100BE60000000000000000000000000000000000FF
:100BF60000000000000000000000000000000000EF
:100C06000000FF00FF0000F0FFF00000FF00FF0003
:100C160000000000000000000000000000000000CE
:100C260000000000000000000000000000000000BE
:100C360000000000000000000000000000000000AE
:100C4600FF00FF001CFFFFFF1C00FF00FF800000ED
:100C5600000000000000000000000000000000008E
:100C6600000000000000000000000000000000007E
:100C76000000000000000000000000000080FF707F
:100C86005F0000FFFFFF00005F700003060C0818FE
:100C9600101010101010101010101010101010104E
:100CA600101010101010101010101010101010103E
:100CB6001010101010101018080C16131808081031
:100CC600101808181010100800000000000000009E
:100CD6000000000000000000000000F8F80000001E
:100CE600000030333300000000100C06100C060024
:100CF60000000000000000004040F840F8400000FE
:100D0600043E053F05040000007088FC0830000022
:100D1600001820FF211E0000F008F0807008000077
:100D260000211C031E211E0000F088700000000038
:100D36001F2027281F2110000000000000000000CF
:100D460080B0F07000000000000000F0FC0E020011
:100D56000000000F3F70400000061EF8E000000093
:100D66000060781F070000004040C0F0F0C040401F
:100D76000202030F0F030202000000F0F000000061
:100D86000101011F1F01010100020206040000000B
:100D9600000000000000000000000000000000004D
:100DA6000101010101010100000000000000000036
:100DB600003030300000000000000000C0F83C0C9D
:100DC6000060783F07010000E0F0180818F0E00026
:100DD6000F1F3020301F0F00001010F8F800000021
:100DE6000020203F3F2020000070780808F8F0001F
:100DF60000303C2E233130000030388888F87000EF
:100E060000183820313F1E000080C060F8F800004E
:100E1600060705243F3F240400F8F8888888080060
:100E260000193921313F1F00E0F098888898180092
:100E36000F1F3120313F1F0000383808E8F818002E
:100E46000000003F3F00000070F8988898F8700096
:100E56001E3F2121313F1E00F0F8080818F8E00077
:100E6600313322323B1F07000000C0C0C000000023
:100E760000003030300000000000008080000000DC
:100E8600000080E060000000000080E070180800AC
:100E96000001030E1C30200040404040404040000E
:100EA600040404040404040000083870C080000030
:100EB6000020381C060301007078080818F8F000B6
:100EC6000000303737010000C0F0F8E8E8F8F0E03D
:100ED600071F3F2727371F0B0000E0F8F8E0000048
:100EE600203C3F23233F3C2008F8F88888F8700010
:100EF600203F3F20313F1E00E0F038080838380018
:100F06000F1F30202030100008F8F80818F0E00015
:100F1600203F3F20301F0F0008F8F888E8F8180037
:100F2600203F3F202333300008F8F888E8E81810FF
:100F3600203F3F2003030000C0F03808083838007F
:100F4600071F3820223E1E0208F8F80808F8F8089D
:100F5600203F3F21213F3F20000808F8F8080800FD
:100F66000020203F3F202000000808F8F80808006D
:100F7600C0C080FF7F00000008F8F8C8E8381808ED
:100F8600203F3F21273E382008F8F80800000000DF
:100F9600203F3F202030300008F8F800F8F808001D
:100FA600203F003F003F200008F8F8F8C8F8F8088E
:100FB600203F3F231F3F3F00E0F0180818F0E000F5
:100FC6000F1F3020301F0F0008F8F80808F8F0004F
:100FD600203F3F2101010000E0F0180818F0E00072
:100FE6000F1F3C247C7F4F0008F8F88888F87000B3
:100FF600203F3F21073E38200070F8880818180067
:1010060000303021233F1E00181808F8F808181879
:101016000000203F3F20000008F8F80808F8F8080C
:10102600001F3F20203F1F000878F88888F87808BE
:1010360000000F3F3F0F000008F8FCFCF8F8F80826
:1010460000073F3F3F3F07000838F8E8E8F8180870
:1010560020303C2F2F3E38200838F8C8C8F838080A
:101066000000203F3F200000101808C8F83808008C
:10107600303C2F2320301000000000FEFE0202004C
:101086000000007F7F404000001CFCE000000000E4
:10109600000000031F7C6000000202FEFE0000004C
:1010A6000040407F7F0000000000040606040000A8
:1010B600000000000000000000000000000000002A
:1010C600808080808080808010161E0E00000000C8
:1010D600000000000000000000008080808080008A
:1010E600001D3D26223F3F2008F8F8808080000042
:1010F600003F3F21203F1F0000008080808080004D
:10110600001F3F31203111000000808088F8F80070
:10111600001F3F21203F3F2000008080808000008C
:10112600001F3F22223313008080F0F888981800B1
:1011360000203F3F2020000000008080808080004B
:10114600006BFF9497F3600008F8F88080808000B9
:10115600203F3F21203F3F200080809898000000DC
:101166000020203F3F20200000008080989800004B
:1011760000C0C080FF7F000008F8F88080808000F3
:10118600203F3F263F392000000808F8F8000000FD
:101196000020203F3F20200080808080808080804B
:1011A600203F3F203F3F203F80808080808080001E
:1011B600203F3F2100203F3F0000808080800000CC
:1011C600001F3F31213F1F0080808080808000000B
:1011D60080FFFFA1303F1F000000808080808000DC
:1011E600001F3F21A0FFFF808080808080808000DC
:1011F60020203F3F21210100000080808080800068
:1012060000333724243D1900008080E0E080800010
:101216000000001F3F20200080808000808080002A
:10122600003F3F20203F3F2080808080808080805C
:1012360000031F3C3C1F03008080C0C0808080806C
:10124600000F3F3F3F3F0F008080808080808000FE
:1012560020313F2E3F31200080808080808080803A
:101266008083CF7E3E0F01000080808080808000DA
:081276000021393C2733300050
:1037AE0060C00000000000000000000000000000EB
:1037BE0000000000000000000000000000000000FB
:1037CE0000000000000000000000000000000000EB
:1037DE0000000000000000000000000000000000DB
:1037EE0000000000000000000000000000000000CB
:1037FE0000000000000000000000000000000000BB
:10380E0000000000000000000000000000000000AA
:10381E00000000000000000000000000000000009A
:10382E00000000000000000000000000000000008A
:10383E00000000000000000000000000000000007A
:10384E00000000000000000000000000000000006A
:10385E00000000000000000000000000000000005A
:10386E000000000060C000C000000000000000006A
:10387E00000000000000000000000000000000003A
:10388E00000000000000000000000000000000002A
:10389E00000000000000000000000000000000001A
:1038AE00000000000000000000000000000000000A
:1038BE0000000000000000000000000000000000FA
:1038CE0000000000000000000000000000000000EA
:1038DE0000000000000000000000000000000000DA
:1038EE0000000000000000000000000000000000CA
:1038FE0000000000000000000000000000000000BA
:10390E0000000000000000000000000000000000A9
:10391E000000000000000000000000000000000099
:08392E00000000000000000091
:0478B6007F057E00CC
:1078BA00D3EF9400EE9400400F7D147C32DCFEDDA1
:0878CA00FAEF1F70EB1E80E8CD
:0178D2002293
:107AB700D3EF9400EE94004007EF1F70F31E80F0A1
:017AC700229C
:047B960043BB60226B
:1072E30090021EE0FF90021DE04440FBE4FD127299
:0C72F300FF900221E044B8FBE4FD7F079F
:1072FF00EF30E002C2C2EF30E102C291EF30E202A2
:10730F00C292D2C6ED6004D2C58002C2C5C2C1AF5F
:10731F00038F80C2C6D2C2D291D2927F017E000269
:02732F0078BA2A
:0773C1009002A7E0FF7D012F
:1073C8007580FFEFB40104C2C2800EEFB40204C29C
:1073D800918006EFB40402C292ED6004D2C5800227
:1073E800C2C5D2C100D2C600AC80C2C6C2C1D2C218
:0D73F800D291D2927F017E00127AB7AF04CD
:017405002264
:0570E200900217EFF021
:1070E7007BFF7A007926127A6EE4900218F09002FC
:1070F70017E030E00DA3E0FBE4FD7F011273C8EB5E
:107107004FF0900217E030E10DA3E0FBE4FD7F02B2
:107117001273C8EB4FF0900217E030E20DA3E0FBCB
:10712700E4FD7F041273C8EB4FF0127AF790021850
:04713700E020E7ACC1
:01713B002231
:107AA500C2CA7F507E001278BAD2CA7FA07E000279
:027AB50078BA9D
:1077FB007F071270E2E4FAEA1272F8E4F9E4FB7D17
:10780B00017F071272FF09E9B440F20AEAB408E7F4
:01781B00224A
:10774100C2CB1278B6127AA57B3E1272FB1278B6C2
:107751007BC01272FB1278B61277FB1278B67B3FB0
:097761001272FB1278B6D2CB22A1
:107406007F071270E27B40E4FD7F011272FF7BBAB8
:10741600E4FD7F011272FFE4FAE4F97BFF7D017F50
:10742600011272FF09E9B440F27B40E4FD7F0112CC
:1074360072FFEA240344B8FBE4FD7F011272FF0ADF
:04744600EAB401D5CE
:01744A00221F
:10744B007F071270E27B40E4FD7F021272FF7BBA72
:10745B00E4FD7F021272FFE4FAE4F97BFF7D017F0A
:10746B00021272FF09E9B440F27B40E4FD7F021285
:10747B0072FFEA240344B8FBE4FD7F021272FF0A99
:04748B00EAB401D589
:01748F0022DA
:105BCC00900224EBF0A3EAF0A3E9F0900222EFF0AC
:035BDC00A3EDF046
:105BDF00EF1425E0900222F0ED24FFFFE434FFFEE6
:105BEF00EF7802CEC313CE13D8F9FF7007900229B6
:105BFF0004F08016EFB401089002297402F0800AB5
:105C0F00EFB402069002297404F0900223E01454BA
:105C1F0003C454F0F0FE900229E0FFEE4440FBE491
:105C2F00FD1272FFE0FF900222E044B8FBE4FD1288
:105C3F0072FFE4900228F0900227E090022960188A
:105C4F00E0FF900224E0FBA3E475F0011217C8A94E
:105C5F00F0FA1216D1F48015E0FF900224E0FBA3B6
:105C6F00E475F0011217C8A9F0FA1216D1FB7D01E5
:105C7F001272FF900228E004F0E0C3941040B89035
:105C8F000229E0FF900223E04440FBE4FD1272FF83
:105C9F00900229E0FF900222E00444B8FBE4FD12D9
:105CAF0072FFE4900228F0900227E090022960181A
:105CBF00E0FF900224E0FBA3E475F0011217C8A9DE
:105CCF00F0FA1216D1F48015E0FF900224E0FBA346
:105CDF00E475F0011217C8A9F0FA1216D1FB7D0175
:0F5CEF001272FF900228E004F0E0C3941040B856
:015CFE002283
:055A9300E0900241F06B
:105A980090023EEBF0A3EAF0A3E9F090023CEFF0AD
:035AA800A3EDF07B
:105AAB00EF1425E090023CF0ED24FFFFE434FFFE01
:105ABB00EF7803CEC313CE13D8F9FF7007900243D0
:105ACB0004F08016EFB401089002437402F0800AD0
:105ADB00EFB402069002437404F090023DE01454BC
:105AEB000775F008A4F0FE900243E0FFEE4440FB84
:105AFB00E4FD1272FFE0FF90023CE044B8FBE4FDD2
:105B0B001272FFE4900242F0900241E09002436077
:105B1B0018E0FF90023EE0FBA3E475F0011217C8FA
:105B2B00A9F0FA1216D1F48015E0FF90023EE0FBCB
:105B3B00A3E475F0011217C8A9F0FA1216D1FB7D78
:105B4B00011272FF900242E004F0E0C3940840B8E7
:105B5B00900243E0FF90023DE04440FBE4FD1272F3
:105B6B00FF900243E0FF90023CE00444B8FBE4FDED
:105B7B001272FFE4900242F0900241E09002436007
:105B8B0018E0FF90023EE0FBA3E475F0011217C88A
:105B9B00A9F0FA1216D1F48015E0FF90023EE0FB5B
:105BAB00A3E475F0011217C8A9F0FA1216D1FB7D08
:105BBB00011272FF900242E004F0E0C3940840B877
:015BCB0022B7
:10702800900218EFF0A3EDF0A3EBF0A3EAF0A3E9C8
:10703800F090021AE0FBA3E0FAA3E0F91216D1607F
:107048003D75F010A424CEF9740A35F0FA7BFF9050
:107058000218E0FFA3E0FD90021D125A9390021956
:10706800E004F0E0D3941840097401F0900218E0AD
:0F70780004F090021BE475F0011217B280B322EE
:08511B0090020AEFF0A3EDF091
:1051230078107C027D017BFF7A0079367E007F0A4E
:105133001216ABE490021AF0A37409F0E4A3F0A3EF
:10514300F0A312191B0000000190020CE0FCA3E085
:10515300FDA3E0FEA3E0FFEC33501690021C7401A4
:10516300F090020CA3A3A3E012185A90020C121998
:105173000F90020CE0FCA3E0FDA3E0FEA3E0FFEC34
:105183004D4E4F6074E47B0AFAF9F890020CA3A326
:10519300A3E01274D4AC00AD01AE02AF0390021EC3
:1051A30012190F90021EA3A3A3E02430FF90021A4A
:1051B300E0FE04F074102EF582E43402F583EFF080
:1051C30090020CE0FCA3E0FDA3E0FEA3E0FFE47B80
:1051D3000AFAF9F81274D490020C12190F90021AF9
:1051E300E06402708CE0FF04F074102FF582E43465
:1051F30002F583742EF002517490021AE0D39403E3
:10520300502AE0FF04F074102FF582E43402F58392
:105213007430F090021AE0B402DFFF04F074102F30
:10522300F582E43402F583742EF080CD90021CE005
:10523300601490021AE0FF04F074102FF582E43436
:1052430002F583742DF0E490021BF090021AE0FF44
:10525300A3E0FEC39F503F74102EF582E43402F5A1
:1052630083E075F010A424CEF9740A35F0FA7BFFBD
:1052730090020AE0FFA3E0FD14F0E4125A949002B6
:105283000BE0700A90020AE004F0A37418F0900295
:065293001BE004F080B5F1
:0152990022F2
:0B476200900222EFF0A3EDF0A3EBF0BB
:10476D00782A7C027D017BFF7A0079407E007F0AEA
:10477D001216ABE4900234F0A37409F0E4A3F0A395
:10478D00F0A312191B00000001900225E0FCA3E02C
:10479D00FDA3E0FEA3E0FFEC33501690023674014A
:1047AD00F0900225A3A3A3E012185A900225121926
:1047BD000F900224E0606F900224E0FF14F0EFD31D
:1047CD00940050030248A1E47B0AFAF9F8A3E0FC37
:1047DD00A3E0FDA3E0FEA3E0FF1274D4AC00AD0195
:1047ED00AE02AF0390023812190F900238A3A3A3A3
:1047FD00E02430FF900234E0FE04F0742A2EF5829E
:10480D00E43402F583EFF0900225E0FCA3E0FDA374
:10481D00E0FEA3E0FFE47B0AFAF9F81274D49002EB
:10482D002512190F8091900225E0FCA3E0FDA3E075
:10483D00FEA3E0FFEC4D4E4F605AE47B0AFAF9F807
:10484D00900225A3A3A3E01274D4AC00AD01AE0277
:10485D00AF0390023812190F900238A3A3A3E024DE
:10486D0030FF900234E0FE04F0742A2EF582E43419
:10487D0002F583EFF0900225E0FCA3E0FDA3E0FE3E
:10488D00A3E0FFE47B0AFAF9F81274D49002251222
:10489D00190F8092900236E06014900234E0FF040C
:1048AD00F0742A2FF582E43402F583742DF0E49030
:1048BD000235F0900234E0FFA3E0FEC39F50417437
:1048CD002A2EF582E43402F583E075F010A424CE8F
:1048DD00F9740A35F0FA7BFF900222E0FFA3E0FDA8
:1048ED0014F0900229125A93900223E0700A90025C
:1048FD0022E004F0A37418F0900235E004F080B3C8
:01490D002287
:0A58190090020EEDF0AC07A3EBF0D7
:10582300E490021AF0EB24FFFFE434FFFEEF780369
:10583300CEC313CE13D8F90490020FF0EC24FFFF6C
:10584300E434FFFEEF7803CEC313CE13D8F99002EE
:1058530016F090020EE0FF14543F900217F0FDEF94
:1058630024FFFFE434FFFEEF7806CEC313CE13D834
:10587300F9FF7401A807088002C333D8FCFF900224
:1058830018F090021AF0ED4440FBE4FD1272FF9011
:1058930002161272F7E4900214F090020FE0FF90E8
:1058A3000214E0C39F4003025956E4A3F090021090
:1058B300E0FF900215E0FEC39F506AEEFF90020ED8
:1058C300E02FFFE433CF24FFCF34FFFEEF7806CE83
:1058D300C313CE13D8F975F00384AFF07401A8078E
:1058E300088002C333D8FCFF900219F0A3E06F6075
:1058F3000E900219E0FFA3F07B40E4FD1272FF90CB
:105903000219E0FF900211E0FBA3E475F001121706
:10591300C8A9F0FA1216D1FB7D011272FF9002158D
:10592300E004F08088900218E0FF90021AF09002E1
:1059330017E04440FBE4FD1272FF900214E0FF9075
:105943000216E02F5407041272F8900214E004F0D8
:0359530002589D5A
:01595600222E
:0F3E820090029DEFF090029FEBF090029EEDF00A
:103E9100E49002A9F0ED14543F9002A6F0FCED2449
:103EA100FFFFE434FFFEEF7806CEC313CE13D8F93B
:103EB100FF7401A807088002C333D8FCFF9002A752
:103EC100F09002A9F0EC4440FBE4FD1272FF900275
:103ED1009DE0141272F81273C1E49002A4F09002F2
:103EE1009FE0FF9002A4E0C39F4003023FB2E4A31E
:103EF100F09002A0E0FF9002A5E0FEC39F40030204
:103F01003F82EEFF90029EE02FFFE433CF24FFCFEC
:103F110034FFFEEF7806CEC313CE13D8F975F00344
:103F210084AFF07401A807088002C333D8FCFF9066
:103F310002A8F0A3E06F600E9002A8E0FFA3F07B5F
:103F410040E4FD1272FF9002A81273C4AD07900203
:103F5100A0E0FF9002A4E08FF0A4FFA3E07A002F7D
:103F6100FFEA35F0FE9002A1E0FBA3E0FAA3E0F93D
:103F71008F828E83ED1217299002A5E004F0023E94
:103F8100F29002A7E0FF9002A9F09002A6E044405F
:103F9100FBE4FD1272FF9002A4E0FF90029DE02F6E
:103FA10054071272F81273C19002A4E004F0023EA9
:103FB100DF7F071270E29002A6E04440FBE4FD7F40
:103FC100021272FF90029DE01444B8FBE4FD7F02EF
:103FD1001272FFE49002A4F090029FE0FF9002A40D
:103FE100E0C39F506EE4A3F09002A0E0FF9002A511
:103FF100E0FDC39F50319002A4E08FF0A47C002D1E
:10400100FFEC35F0FE9002A1E0FBA3E0FAA3E0F99A
:104011008F828E831216EAFB7D017F021272FF905E
:1040210002A5E004F080C19002A6E04440FBE4FD5B
:104031007F021272FF9002A4E0FF90029DE02F54D4
:104041000744B8FBE4FD7F021272FF9002A4E00472
:03405100F0808577
:014054002249
:072E9500900218EDF0AC07FC
:102E9C00E4900220F0EC24FFFFE434FFFEEF780313
:102EAC00CEC313CE13D8F9900221F0EC1454079032
:102EBC000224F0EC2B145407A3F0900224E0FDFF45
:102ECC00EB2FFFE433FEEF7803CEC313CE13D8F908
:102EDC00FFED2B540760047E0180027E00EE2FFF75
:102EEC00900223F0900221E02F14A3F0900218E03E
:102EFC00FD14543F90021DF0ED24FFFFE434FFFE5F
:102F0C00EF7806CEC313CE13D8F9FF7401A80708C7
:102F1C008002C333D8FC90021EF0900220F0900285
:102F2C0024E07003022FED1272E390021E1273C4A0
:102F3C00E490021BF090021AE0FFA3E0FEC39F4056
:102F4C0003022FE5EEFF900218E02FFFE433CF24AD
:102F5C00FFCF34FFFEEF7806CEC313CE13D8F9752E
:102F6C00F0038490021CE5F0F0E0FF7401A8070860
:102F7C008002C333D8FCFF90021FF0A3E06F600EF9
:102F8C0090021FE0FFA3F07B40E4FD1272FF900261
:102F9C001F1273C490021BE0FE2400F582E434007F
:102FAC00F583EFF074002EF582E43400F583C083D2
:102FBC00C082E0FF900224E0FEC374079EFE747F83
:102FCC00A806088003A2E713D8FB5FD082D083F059
:102FDC0090021BE004F0022F4190021EE0900220B0
:102FEC00F0900225E070030230BE90021EE0FF90CC
:102FFC00021DE04440FBE4FD1272FF9002221272AB
:10300C00F790021E1273C4E490021BF090021AE0B7
:10301C00FFA3E0FEC39F40030230B6EEFF90021800
:10302C00E02FFFE433CF24FFCF34FFFEEF7806CE42
:10303C00C313CE13D8F975F0038490021CE5F0F09D
:10304C00E0FF7401A807088002C333D8FCFF90028C
:10305C001FF0A3E06F600E90021FE0FFA3F07B4017
:10306C00E4FD1272FF90021F1273C490021BE0FE6B
:10307C0024C0F582E43400F583EFF074C02EF582A1
:10308C00E43400F583C083C082E0FF900225E0FEAB
:10309C0074FFA806088002C333D8FC5FD082D083AB
:1030AC00F090021BE004F002301890021EE0900237
:1030BC0020F01272E3E4FA900223E0FFEAC39F408F
:1030CC00030231DAE490021BF090021AE0FFA3E055
:1030DC00FEC39F40030231B6EEFF900218E02FFFB3
:1030EC00E433CF24FFCF34FFFEEF7806CEC313CEEC
:1030FC0013D8F975F0038490021CE5F0F0E0FF742E
:10310C0001A807088002C333D8FCFF90021FF0A36C
:10311C00E06F600E90021FE0FFA3F07B40E4FD1215
:10312C0072FF900224E0F9602EA3E0602A90022343
:10313C00E0B4012390021FE0FF90021BE0FE24C0CC
:10314C00F582E43400F583E0FD74002EF582E4345E
:10315C0000F583E04D8044E96018EA701590021F79
:10316C00E0FF90021BE02400F582E43400F583E0DC
:10317C008029900225E0601D900223E014B5021511
:10318C0090021FE0FF90021BE024C0F582E43400A3
:10319C00F583E0800690021FE0FFE4FB7D011272D4
:1031AC00FF90021BE004F00230D590021EE0FF906D
:1031BC000220F090021DE04440FBE4FD1272FF90EF
:0E31CC000221E02A5407041272F80A0230C3EE
:0131DA0022D2
:0727BA00900212EDF0AC07E4
:1027C100E490021AF0900220F0EC24FFFFE434FFC1
:1027D100FEEF7803CEC313CE13D8F990021BF0ECB1
:1027E10014540790021EF0EC2B145407A3F090022E
:1027F1001EE0FDFFEB2FFFE433FEEF7803CEC313A2
:10280100CE13D8F9FFED2B540760047E0180027EC0
:1028110000EE2FFF90021DF090021BE02F14A3F099
:10282100900212E0FD14543F900217F0ED24FFFFD7
:10283100E434FFFEEF7806CEC313CE13D8F9FF744C
:1028410001A807088002C333D8FC900218F0900257
:102851001AF090021EE0700302292A900218E0FF8C
:10286100900217E04440FBE4FD1272FF90021B123C
:1028710072F79002181273C4E4900215F0900214DA
:10288100E0FFA3E0FEC39F4003022922EEFF900276
:1028910012E02FFFE433CF24FFCF34FFFEEF7806A1
:1028A100CEC313CE13D8F975F00384900216E5F068
:1028B100F0E0FF7401A807088002C333D8FCFF9041
:1028C1000219F0A3E06F600E900219E0FFA3F07B04
:1028D10040E4FD1272FF9002191273C4900215E0D8
:1028E100FE2400F582E43400F583EFF074002EF548
:1028F10082E43400F583C083C082E0FF90021EE0D1
:10290100FEC374079EFE7480A806088003A2E71325
:10291100D8FB4FD082D083F0900215E004F002285A
:102921007E900218E090021AF090021FE0700302FC
:102931002A0D900218E0FF900217E04440FBE4FDED
:102941001272FF90021C1272F79002181273C4E403
:10295100900215F0900214E0FFA3E0FEC39F400334
:10296100022A05EEFF900212E02FFFE433CF24FF8D
:10297100CF34FFFEEF7806CEC313CE13D8F975F02E
:102981000384900216E5F0F0E0FF7401A8070880C7
:1029910002C333D8FCFF900219F0A3E06F600E90E0
:1029A1000219E0FFA3F07B40E4FD1272FF900219CF
:1029B1001273C4900215E024C0F582E43400F5835B
:1029C100EFF01D90021FE0FEEDC39E500AA3E0252B
:1029D100E04401F00D80EC900215E024C0F582E4A2
:1029E1003400F583C083C082E0FF900220E0FEEF57
:1029F1004ED082D083F0E4900220F0900215E004E2
:102A0100F0022955900218E090021AF0900218E0A5
:102A1100FF900217E04440FBE4FD1272FF90021B9D
:102A21001272F7E4FA90021DE0FFEAC39F4003022D
:102A31002B3EE4900215F0900214E0FFA3E0FEC3E8
:102A41009F4003022B1AEEFF900212E02FFFE433A6
:102A5100CF24FFCF34FFFEEF7806CEC313CE13D8B9
:102A6100F975F00384900216E5F0F0E0FF7401A817
:102A710007088002C333D8FCFF900219F0A3E06F6E
:102A8100600E900219E0FFA3F07B40E4FD1272FF9B
:102A910090021EE0F9602EA3E0602A90021DE0B4CE
:102AA1000123900219E0FF900215E0FE24C0F58297
:102AB100E43400F583E0FD74002EF582E43400F582
:102AC10083E05D803CE96018EA7015900219E0FF2F
:102AD100900215E02400F582E43400F583E08021C2
:102AE10090021FE0601E90021DE014B502169002D4
:102AF10019E0FF900215E024C0F582E43400F5836B
:102B0100E0FB8007900219E0FF7BFF7D011272FF5D
:102B1100900215E004F0022A38900218E0FF9002BA
:102B21001AF0900217E04440FBE4FD1272FF90029C
:0D2B31001BE02A5407041272F80A022A263B
:012B3E002274
:10733100A2A282A082A482A182A382C84038127A2A
:10734100F7A2A282A082A482A182A382C8402420A3
:10735100A0037F012220A2037F022220A4037F0633
:107361002220A1037F052220C8037F032220A3033B
:097371007F04227F00227F00222C
:0B7B5B004E4F2E003A0D0A000D0A00EC
:1039360048028D00000000000000004802950202C7
:063946000202020202026F
:017B9A0022C8
:067A0600C2C47F017E00F6
:107A0C00EF1FAC0670011E4C6005127B9A80F122B0
:06783C00D2C47F017E00B2
:10784200EF1FAC0670011E4C600E127B9A127B9ADF
:09785200127B9A127B9A80E82255
:10795A00D3EF9400EE9400400F7D817C14DCFEDDB1
:08796A00FAEF1F70EB1E80E82C
:0179720022F2
:10776A00E4FDD2C47F01FE127842C2C47F647E0067
:10777A00127842D2C47F0C7E00127842A2C4E4334B
:08778A00FD7F587E00027842E9
:107A4600C2C412783CA2C4E433FD7F047E001278DF
:037A560042AF0537
:017A5900220A
:107AC800C2C4EF24FF92C47F057E00127842D2C45C
:017AD800228B
:10785B007B08127A06EDC313FD12783C30C404ED9D
:0E786B004480FD7F0A7E00127842DBE6AF0506
:0178790022EC
:02787A00AD0758
:10787C007B08127A06ED1392C47F0A7E00127842BE
:0B788C00D2C4127A08EDC313FDDBE745
:0178970022CE
:05723F0090020AEFF0CF
:10724400E4FAFFFDFC12776A7FCC12787A7F44124D
:10725400787A7FC87E0012795A12776A7FCC1278C6
:107264007A7FBE12787A12785BAA0712785BEFFEF7
:107274007C00E42AFFEC3EFE7D1912174BAC06ADF0
:0C72840007EF7802CEC313CE13D8F9FF39
:0172900022DB
:0B75DC0090020AEBF0A3EAF0A3E9F034
:1075E70012776A7F3312787AE4A3F012785B9002FD
:1075F7000AE0FBA3E0FAA3E0F9A3E0F582758300B4
:10760700EF12172990020DE004F0E0C3940840DB65
:017617002250
:0B7B2B007F089002957402F0A3DFFCBD
:017B3600222C
:106E670090020AEEF0A3EFF07C277D1012175D1257
:106E77007B7E90020AE0FEA3E0FF7C037DE8121709
:106E87005D7C007D0A12175DAF05127B7E90020ABA
:106E9700E0FEA3E0FF7C007D6412175D7C007D0AA5
:106EA70012175DAF05127B7E7F2E127B6F90020A51
:106EB700E0FEA3E0FF7C007D0A12175D7C007D0ADF
:106EC70012175DAF05127B7E90020AE0FEA3E0FF7A
:0C6ED7007C007D0A12175DAF05027B7E77
:056EE30090020AEFF02F
:106EE800E4A3F090020AE0FFA3E0C39F50687BFF91
:106EF8007A7B795B127A6E90020BE004FF1276536C
:106F08007BFF7A7B795F127A6EE490020CF0900234
:106F18000CE0FFC39408502D90020BE075F008A414
:106F2800248DF582E43402F583E5822FF582E43579
:106F380083F583E0FF1276537F20127B6F90020C5B
:106F4800E004F080C97BFF7A7B7963127A6E900245
:066F58000BE004F0808D47
:016F5E002210
:107AD900E4F5CF75CDC030070475CED02275CE4000
:017AE900227A
:0D7AEA008FCFE5CD30E7FB75CDC0AFCF22CB
:107A5A00438920759840758DDC858D8BE4F587D236
:047A6A00ACD28E22EA
:087B6F008F993099FDC29922A3
:02765300AE0780
:10765500EEC4540FFDC36480948AED500424308039
:107665000424F62461FF127B6FEE540FFDC3648082
:10767500948AED50042430800424F62461FF127BA3
:017685006F95
:0176860022E1
:077B7E00EF2430FF027B6FD2
:107A6E001216D1FF600C127B6F740129F9E43AFAF9
:037A7E0080EE2275
:0D76B9009002CAEBF0A3EAF0A3E9F0AE07DF
:1076C600E4FDEDC39E501A9002CAE0FBA3E0FAA3C4
:1076D600E0F98D827583001216EAFF127B6F0D802A
:0176E600E1C2
:0176E7002280
:030023000278D38D
:0678D300C0E0C083C0828A
:0F78D90030980CC298C2AF900203E599F0D2AF7D
:0778E800D082D083D0E03212
:067B8500000000000022D8
:05000600D2B7D2B622C2
:06000E0012781C12789E1E
:0F001400D2B6D2B7127B85C2B6127B85C2B72295
:0C7B3700C2B6D2B7127B85D2B6027B85A5
:0678980012001412781C1E
:10789E00D2B7127B8530B608C2B7127B857F002225
:0878AE00C2B7127B857F0122A5
:0C7B4300C2B6D2B7127B85C2B7027B85A8
:0C7B4F00D2B6D2B7127B85C2B7027B858C
:10781C00E4FEEF30E703D38001C392B6EF25E0FF1F
:0F782C00D2B7127B85C2B7127B850EEEB408E38C
:01783B00222A
:10771500E4FED2B6FDEE25E0FED2B7127B8530B68B
:10772500034401FEC2B7127B850DEDB408E7EF6097
:0B77350005127B438003127B4FAF0660
:017740002226
:10792500127898AC07AF0512781C12789EAF031237
:0A793500781C12789E127B37AF0415
:01793F002225
:02797300AC075F
:10797500127898AF0512000EEC04FF12781C1278ED
:067985009EE4FF127715DD
:01798B0022D9
:10729100AD07127898EF7006127B377F01229002BA
:1072A100B7E0FF12000EED04FF12781C12789E90D9
:1072B10002B8E0FF6026B4010BE4FF127715EF126C
:1072C100171780107F01127715EF12171774012914
:1072D100F9E43AFA9002B8E014F080D3127B377FD8
:0272E100002289
:10755A00127898EF7002801E9002BDE0FF12781C2C
:10756A0012789E9002BEE060221216D1FF12781C99
:10757A0012789EEF7006127B377F0122740129F977
:10758A00E43AFA9002BEE014F080D8127B377F000A
:01759A0022CE
:10394C004102C5004102C6004102C7004102C80045
:04395C004102C9005B
:0C7AF7007FB27E787D0CDDFEDEFADFF64B
:017B0300225F
:0C7B04007FB27EE67D0CDDFEDEFADFF6CF
:017B10002252
:0C7B11007FD97EAB7D49DDFEDEFADFF699
:017B1D002245
:10768700EF24FE601214601714601C24037020900E
:1076970002C5E05401FF229002C5E05402FF229088
:1076A70002C5E05404FF229002C5E05408FF227F80
:0276B7000022AF
:10708700EF24FE601D14602D14603D2403704B90A7
:1070970002C5E054FEF090020EA3A3A3E09002C63F
:1070A700F0229002C5E054FDF090020EA3A3A3E0E6
:1070B7009002C7F0229002C5E054FBF090020EA3A5
:1070C700A3A3E09002C8F0229002C5E054F7F09025
:0B70D700020EA3A3A3E09002C9F02268
:107490009002C6E0600414F080079002C5E0440149
:1074A000F09002C7E0600414F080079002C5E04449
:1074B00002F09002C8E0600414F080079002C5E07A
:1074C0004404F09002C9E0600314F0229002C5E089
:0474D0004408F0225A
:10737A00454550524F4D20736563746F72312068D2
:10738A00617320646174612E0D0A00454550524FA5
:10739A004D20736563746F72322068617320646173
:1073AA0074612E0D0A00726F6F6D20697320636C11
:0773BA0065616E2E0D0A0053
:0D7B1E00E4F5C7F5C5F5C675C380F5C422B2
:10798C0075C78375C5018FC4EEF5C375C65A75C628
:08799C00A50000AFC2127B1E22
:0179A40022C0
:1079400075C78375C5028FC4EEF5C3AF058FC275C9
:0A795000C65A75C6A50000027B1E92
:107A1C0075C78375C5038FC4EEF5C375C65A75C695
:067A2C00A50000027B1E14
:056B6A00900232EFF083
:106B6F00E4900235F0A3F0EF30E03FE4900233F011
:106B7F00A3F0900233E0FEA3E0FFC3EE9402502A8D
:106B8F0012798CEFF460137BFF7A73797A127A6E35
:106B9F00900235E4F0A304F08010900234E004F08A
:106BAF0070D0900233E004F080C8900232E030E100
:106BBF0046E4A3F0A3F0900233E0FEA3E0FFC3EEA0
:106BCF0094025033E42FFFEE3402FE12798CEFF46F
:106BDF0060157BFF7A737995127A6E900235E0F02B
:106BEF00A3E04402F08010900234E004F070C790EC
:106BFF000233E004F080BF900235E07002A3E07032
:106C0F00097BFF7A7379B0127A6E900235A3E0FF99
:016C1F002252
:103960004C02550000000000000000000000004C68
:1039700002470000000000000000000000004102BB
:0C39800053004102540043024401028144
:017B9B0022C7
:017B9C0022C6
:10643F00900257E0FE6410706CA3E07068A3E0FF59
:10644F00900244E0FBA3E0FAA3E0F9EF12171790D4
:10645F00025AE0FF900244E0FBA3E0FAA3E0F990B8
:10646F000001EF12172990025BE09000021217292A
:10647F0090025CE090000312172990025DE09000FB
:10648F000412172990025EE090000512172990025E
:10649F005FE0900006121729900260E0900007124B
:1064AF0017297F0122EE6411706E900258E0706818
:1064BF00A3E0FF900244E0FBA3E0FAA3E0F9EF12A0
:1064CF00171790025AE0FF900244E0FBA3E0FAA3F3
:1064DF00E0F9900001EF12172990025BE0900002A3
:1064EF0012172990025CE090000312172990025DA9
:1064FF00E090000412172990025EE0900005121739
:10650F002990025FE0900006121729900260E09038
:0B651F0000071217297F02227F0022D4
:1079BE0074656D70323A0D0A000D0A004144432081
:0879CE00646174613A0D0A00C6
:10398C0048028100000000024401FF44028922B871
:10399C0022B84102803241027B0042027C03FF428A
:0439AC00027E009AFD
:10759B007F0112723F90028BEEF0A3EFF07BFF7A2C
:1075AB007979BE127A6E90028BE0FEA3E0FF126E29
:1075BB00677BFF7A7979C7127A6ED390028CE0944D
:1075CB008890028BE0941340077422F0A374B8F0F8
:0175DB00228D
:1076E8007BFF7A7979CA127A6E900285E0FF12766A
:1076F80053900286E0FF1276537BFF7A7979C7129E
:0D7708007A6E900285E0FEA3E0FDEDFF2209
:105957001276E890020AEEF0A3EFF0900288E020BA
:10596700E4409002807464F090027BE06003025A86
:105977009204F090020AE0FEA3E0FF90027CEEF0B2
:10598700A3EFF0900276EEF0A3EFF078187C027D9B
:10599700017B017A02796E7E007F0D1216AB7F06BE
:1059A7008044900288E020E040E4900280F090027A
:1059B7007BE06003025A9204F090020AE0FEA3E043
:1059C700FF90027EEEF0A3EFF0900278EEF0A3EFE7
:1059D700F078187C027D017B017A02796E7E007F68
:1059E7000D1216AB7F07024AB6E490027BF09002D5
:1059F7007EE0FEA3E0FFC390027DE09FFD90027C66
:105A0700E09EFCE4121521A804A905AA06AB07E449
:105A1700FFFE7DC87C4212147F90020C12190F9072
:105A2700027EE0FCA3E0FDE412152190020CE0F8F1
:105A3700A3E0F9A3E0FAA3E0FB1213769002101299
:105A4700190F90020AE0FCA3E0FDE4121521900271
:105A57000CE0F8A3E0F9A3E0FAA3E0FB12137690B9
:105A67000210E0F8A3E0F9A3E0FAA3E0FB12128525
:105A770012155A900280EFF0C394005002E4F090A0
:0B5A87000280E0D3946440037464F0DC
:015A920022F1
:106AB0003A0020002A0021003F00484F4D45004386
:106AC000003000310032003300340035003600372A
:106AD00000380039002E00250000000000000000F2
:106AE00000000000000000000000000000000000A6
:106AF0000000000000000000000000000000000096
:106B00000000000000000000000000000000000085
:106B10000000000000000000000000000000000075
:106B20000000000000000000000000000000000065
:106B30000000000000000000000000000000000055
:106B40000000000000000000000000000000000045
:106B5000000000000000000000000000F0FFF00056
:0A6B60001CFFFFFF1C00FFFFFF00F9
:1039B000C1064102C400C1054102BF004102C0016D
:0C39C0004102C1004102C2004102C300EC
:1079D600900289E0FEA3E0FFE4FCFD90020C121980
:0879E6000F7D167F0102511B09
:1079EE0090028BE0FEA3E0FFE4FCFD90020C121966
:0879FE000F7D0E7F0402511BF6
:056FC600900180EFF0D6
:106FCB0078817C017D017BFF7A6A79D97E007F8293
:106FDB001216AB900180E0602FB20530051B9002BA
:106FEB00107405F0A374FFF0A3746BF0A3745BF043
:106FFB007B187D377F1102581990021A7405F07BAC
:10700B00187D377F11022E9530051190021A7405E9
:0C701B00F07B187D377F11122E95C20506
:017027002246
:10229B00E490020CF0A37406F0A314F0A312191B24
:1022AB000000000090021312191B000000009002A6
:1022BB00C4E0707B90026EE070089002CF74210234
:1022CB0027B41277FB7BFF7A0579EAE4900227F0BB
:1022DB007D047F01125BCC7BFF7A06790AE49002C6
:1022EB0027F07D057F01125BCC7BFF7A06792AE410
:1022FB00900227F07D067F01125BCC7BFF7A06797B
:10230B004AE4900227F07D077F01125BCC7BFF7ABA
:10231B0006796AE4900227F07D087F01125BCC7B83
:10232B00FF7A6A79B0E490021DF07D110223C1900F
:10233B0002C4E0640360030223CE1277FB7BFF7AB7
:10234B000579EAE4900227F07D047F01125BCC7BD8
:10235B00FF7A06790AE4900227F07D057F01125B74
:10236B00CC7BFF7A06792AE4900227F07D067F0169
:10237B00125BCC7BFF7A08798AE4900227F07D0709
:10238B007F01125BCC7BFF7A06794AE4900227F03F
:10239B007D087F01125BCC7BFF7A06796AE49002A1
:1023AB0027F07D097F01125BCC7BFF7A6A79B0E461
:1023BB0090021DF07D137F0112702890020CE0FF3C
:1023CB00124F9612733190020BEFF060F6E0FEB4F1
:1023DB0001089002CF74100227B4EE6403704F9083
:1023EB00020DE0FF04F0D3EF648094865038E025B3
:1023FB00E0FFC374139FFD7BFF7A6A79B2E490020E
:10240B001DF07F0212702890020FE0FCA3E0FDA3E9
:10241B00E0FEA3E0FFE47B0AFAF9F81274D4900211
:10242B000F12190F802090020D7406F08018900285
:10243B000BE0FFB40506A3E014F0800AEFB4060628
:10244B0090020CE004F090020CE0FFD36480948ABD
:10245B004004E4F0800EC3EF648094805006900239
:10246B000C740AF090020CE0FF124F9690020BE0F6
:10247B00640260030223CEA3E0B40A179002C4E007
:10248B009002CF700574100227B47421F0A374501E
:10249B000226DE90020DE0FF14F0D3EF64809480EF
:1024AB00406790020FE0FCA3E0FDA3E0FEA3E0FF7A
:1024BB00E47B0AFAF9F812180B90020F12190F901D
:1024CB00020FE0F8A3E0F9A3E0FAA3E0FB90020C03
:1024DB00E0FF3395E0FEFDFCEB2FFFEA3EFEE93D0E
:1024EB00FDE83CFC90020F12190F90020DE025E065
:1024FB00FFC374119FFD7BFF7A6A79B4E490021DD0
:10250B00F07F021270280223CE9002C4E0640360B5
:10251B00030225F87402F090020FE0FCA3E0FDA388
:10252B00E0FEA3E0FFA312190F90021A74C0F07B18
:10253B00207D017F01122E957BFF7A0579EAE490CD
:10254B000227F07D037F01125BCC7BFF7A0879AA0F
:10255B00E4900227F07D047F01125BCC7BFF7A08AD
:10256B0079CAE4900227F07D057F01125BCC7BFFDB
:10257B007A06790AE4900227F07D067F01125BCC84
:10258B007BFF7A06792AE4900227F07D077F011200
:10259B005BCC7BFF7A08798AE4900227F07D087F79
:1025AB0001125BCC7BFF7A06794AE4900227F07D1F
:1025BB00097F01125BCC7BFF7A06796AE4900227D4
:1025CB00F07D0A7F01125BCC7BFF7A6A79B0E490D5
:1025DB00021DF07D157F0112702890020D7406F01C
:1025EB0090020F12191B000000000223CE9002C4B0
:1025FB00E0640260030226E2900213E0FCA3E0FD1C
:10260B00A3E0FEA3E0FF90020FE0F8A3E0F9A3E044
:10261B00FAA3E0FBC3121868703E900213E0FCA310
:10262B00E0FDA3E0FEA3E0FF90026F12190F7818F4
:10263B007C027D017B017A02796E7E007F0D121682
:10264B00AB7F02124AB69002CF7421F0A37450F004
:10265B009002C47401F0FF2290021A74C0F07B1038
:10266B007D017F11122E957BFF7A06794AE4900249
:10267B0027F07D057F02125BCC7BFF7A06796AE43B
:10268B00900227F07D067F02125BCC7BFF7A0879E4
:10269B00EAE4900227F07D077F02125BCC7BFF7A86
:1026AB0009790AE4900227F07D087F02125BCC7B4C
:1026BB00FF7A6A79B6E490021DF07D117F021270E9
:1026CB0028127B119002CF7421F0A37450F090026A
:1026DB00C47404F07F00229002C4E060030223CE96
:1026EB0090020FE0FCA3E0FDA3E0FEA3E0FF90024D
:1026FB006FE0F8A3E0F9A3E0FAA3E0FBC312187EA6
:10270B00700C9002CF7421F0A3E4F07F01229002B1
:10271B001A74C0F07B107D017F11122E957BFF7A0E
:10272B0006794AE4900227F07D057F02125BCC7B91
:10273B00FF7A06796AE4900227F07D067F02125B2E
:10274B00CC7BFF7A06798AE4900227F07D077F0223
:10275B00125BCC7BFF7A0679AAE4900227F07D0806
:10276B007F02125BCC7BFF7A6A79B6E490021DF094
:10277B007D117F02127028127B1190021A74C0F027
:10278B007B107D017F11122E9590020D7406F09037
:10279B00020F12191B0000000090020EE014F060F3
:0E27AB00030223CE9002CF7410F0A3E4F0FFDF
:0127B90022FD
:106C200090020B7401F0E4A3F01277FB026CC11226
:106C30007331EF60FA64016004EFB4050A9002CF8B
:106C40007410F0A3E4F022EFB4032090020BE014E0
:106C5000F0E0FEC36480948150067407F0A3802C9A
:106C6000EEB4040590020C80238026EFB404299032
:106C7000020BE004F0E0FED36480948740077401C7
:106C8000F0A3F0803CEEB4050890020C7401F08093
:106C900030E490020CF08029EF64026004EFB40647
:106CA0002090020BE0FF3395E0FEEFC4F8540FC8CC
:106CB00068FFEEC454F04844219002CFF0A3EFF0F7
:0F6CC0002290020BE0FFA3E0FD121B1F026C2FBE
:1061630090020C7401F01277FB7BFF7A04798AE4C6
:10617300900227F07D047F01125BCC7BFF7A0479C8
:10618300AAE4900227F07D057F01125BCC7BFF7AA6
:106193000379AAE4900227F07D067F01125BCC7B92
:1061A300FF7A0379CAE4900227F07D077F01125B2F
:1061B300CC90020CE0FF12541212733190020BEFD9
:1061C300F060F6E0FFB401079002CF74108051EF46
:1061D300B405079002CF74218046EFB403139002F5
:1061E3000CE014F0E0C364809480501A7402F080D1
:1061F3001590020BE0B4040EA3E004F0E0D3648036
:1062030094824002E4F090020CE0FF1254129002D8
:106213000BE0640270A3A3E0FF700A9002CF742125
:10622300F0A3E4F022EFB4010790027A7401800B2B
:1062330090020CE06402708190027AF09002CF74B5
:1062430021F0A3E4F078187C027D017B017A0279C6
:0C6253006EFE7F0D1216AB7F08124AB6DB
:01625F00221C
:1042230090020B7403F0E4A3F01277FB7BFF7A0197
:1042330079EAE4900227F07D027F01125BCC7BFFD9
:104243007A02790AE4900227F07D037F01125BCCA6
:104253007BFF7A0679CAE4900227F07D047F01127E
:104263005BCC7BFF7A0079CAE4900227F07D057F5F
:1042730001125BCC7BFF7A0079CAE4900227F07DC0
:10428300067F01125BCC7BFF7A0079EAE490022778
:10429300F07D077F01125BCC7BFF7A0379AAE49060
:1042A3000227F07D087F01125BCC7BFF7A0379CA7A
:1042B300E4900227F07D097F01125BCC0243E012F8
:1042C3007331EF60FAB401089002CF741002439D7A
:1042D300EFB4051690020BE004F0E0D364809483FE
:1042E30050030243E0E4F00243E0EFB40617900208
:1042F3000BE014F0E0C36480948040030243E07455
:1043030003F00243E0EF6403704690020BE0FEB457
:104313000106A3E004F08018EEB4020990020CE059
:10432300240AF0800BEEB4030790020CE02464F03F
:1043330090020CE0FEC364809480400BD3EE648053
:1043430094E450030243E090020C7464F00243E0EF
:10435300EF6404703590020BE0FEB40106A3E01491
:10436300F08018EEB4020990020CE024F6F0800B02
:10437300EEB4030790020CE0249CF090020CE0C31F
:10438300648094805057E4F08053EF6402704E9041
:10439300020BE0700A9002CF7421F0A3E4F02290A4
:1043A3000275E0FF90020CE0FDFB3395E0FAC3EBEE
:1043B3009F7480F86A985025900274EDF09002CFB4
:1043C3007421F0A3E4F078187C027D017B017A026A
:1043D300796EFE7F0D1216AB7F04024AB690020C73
:0D43E300E0FF90020BE0FD125CFF0242C201
:1040550090020B7403F0A37464F01277FB7BFF7A74
:104065000179EAE4900227F07D027F01125BCC7BA7
:10407500FF7A02790AE4900227F07D037F01125B43
:10408500CC7BFF7A07794AE4900227F07D047F0113
:10409500125BCC7BFF7A0079CAE4900227F07D059C
:1040A5007F01125BCC7BFF7A0079CAE4900227F08E
:1040B5007D067F01125BCC7BFF7A0079EAE49002F2
:1040C50027F07D077F01125BCC7BFF7A0379AAE499
:1040D500900227F07D087F01125BCC7BFF7A037984
:1040E500CAE4900227F07D097F01125BCC024213DE
:1040F500127331EF60FAB401089002CF74100241D7
:10410500D0EFB4051690020BE004F0E0D364809480
:10411500835003024213E4F0024213EFB4061790F2
:10412500020BE014F0E0C364809480400302421364
:104135007403F0024213EF6403704690020BE0FE35
:10414500B40106A3E004F08018EEB4020990020C55
:10415500E0240AF0800BEEB4030790020CE024641F
:10416500F090020CE0FEC364809480400BD3EE64B3
:104175008094E4500302421390020C7464F00242EE
:1041850013EF6404703590020BE0FEB40106A3E062
:1041950014F08018EEB4020990020CE024F6F080C9
:1041A5000BEEB4030790020CE0249CF090020CE0A7
:1041B500C3648094805057E4F08053EF6402704EDE
:1041C50090020BE0700A9002CF7421F0A3E4F02274
:1041D500900274E0FF90020CE0FDFB3395E0FAD30A
:1041E500EB9F7480F86A984025900275EDF0900277
:1041F500CF7421F0A3E4F078187C027D017B017A6D
:1042050002796EFE7F0D1216AB7F05024AB690024B
:0E4215000CE0FF90020BE0FD125CFF0240F592
:1031DB0090020C7401F0780D7C02FDFB7A0279AA47
:1031EB007E007F091216AB1277FB7BFF7A0179CA3F
:1031FB00E4900227F07D047F01125BCC7BFF7A0504
:10320B00790AE4900227F07D057F01125BCC7BFFEE
:10321B007A01790AE4900227F07D067F01125BCCDC
:10322B007BFF7A01792AE4900227F07D077F011258
:10323B005BCC7BFF7A0379AAE4900227F07D087FB1
:10324B0001125BCC7BFF7A0379CAE4900227F07DF5
:10325B00097F01125BCC900213E0FEA3E0FFE4FCBC
:10326B00FD90022512190FE4900229F07B047D08D2
:10327B007F021247627BFF7A01798AE4900227F082
:10328B007D057F02125BCC7BFF7A0179AAE4900269
:10329B0027F07D077F02125BCC7BFF7A0179CAE4B2
:1032AB00900227F07D097F02125BCC7BFF7A6A7953
:1032BB00B0E490021DF07D077F031270287BFF7A2C
:1032CB006A79B0E490021DF07D0A7F031270287BAF
:1032DB00FF7A0479EAE4900227F07D087F03125B02
:1032EB00CC7BFF7A05790AE4900227F07D097F03F6
:1032FB00125BCC122B3F12733190020BEFF060F686
:10330B00E0FFB401089002CF7410023519EFB40638
:10331B001690020CE004F0E0D36480948950030211
:10332B0034DDE4F00234DD90020BE0FFB40515A3AD
:10333B00E014F0E0C36480948040030234DD740930
:10334B00F00234DDEF6403600302341B90020CE0E7
:10335B00FFB40210900214E004F07053900213E0DB
:10336B0004F0804BEFB40110900214E0240AF090AB
:10337B000213E03400F08037EFB4030590021280A3
:10338B002BEFB404059002108022EFB405059002D8
:10339B000F8019EFB4060590020E8010EFB40705ED
:1033AB0090020D8007EFB40806900211E004F0D3F1
:1033BB00900214E09433900213E0940840077407D2
:1033CB00F0A374D0F0900212E0D3940C400374017C
:1033DB00F0900210E0D3941F40037401F090020FA1
:1033EB00E0D394174002E4F090020EE0D3943B40FC
:1033FB0002E4F090020DE0D3943B4002E4F0900223
:10340B0011E0D3940750030234DD7401F00234DD74
:10341B0090020BE0640460030234DDA3E0FFB4020E
:10342B0008900214E024FF800AEFB40110900214FC
:10343B00E024F6F0900213E034FFF08037EFB40392
:10344B0005900212802BEFB404059002108022EF3E
:10345B00B4050590020F8019EFB4060590020E809B
:10346B0010EFB4070590020D8007EFB40806900229
:10347B0011E014F0C3900214E094D0900213E09486
:10348B000750077408F0A37433F0900212E0C39452
:10349B000150037401F0900210E0C39401500374C7
:1034AB0001F090020FE0D3941740037417F09002D1
:1034BB000EE0D3943B4003743BF090020DE0D394A9
:1034CB003B4003743BF0900211E0C3940150037432
:1034DB0007F0122B3F90020BE064026003023301F2
:1034EB00A3E0FF70079002CF74218022EF64096084
:1034FB000302330178167C027D017B017A02790D80
:10350B00FE7F091216AB1266D49002CF7421F0A382
:02351B00E4F0DA
:01351D00228B
:104C5B0090020B7401F0E4A3F090026EE090020D51
:104C6B00F09002C4E0640170661277FB90020B7443
:104C7B0002F07BFF7A0379AAE4900227F07D047F90
:104C8B0002125BCC7BFF7A0379CAE4900227F07D9A
:104C9B00057F02125BCC7BFF7A08790AE49002272E
:104CAB00F07D067F02125BCC7BFF7A08792AE490B9
:104CBB000227F07D077F02125BCC7BFF7A6A79B605
:104CCB00E490021DF07D0F7F02127028127B11E41D
:104CDB009002C4F01277FB7BFF7A06794AE49002CC
:104CEB0027F07D057F01125BCC7BFF7A06796AE4A6
:104CFB00900227F07D067F01125BCC7BFF7A037954
:104D0B00AAE4900227F07D077F01125BCC7BFF7A30
:104D1B000379CAE4900227F07D087F01125BCC0275
:104D2B004DED127331EF60FAB401089002CF74109D
:104D3B00024DE8EFB4031690020BE014F0C364804D
:104D4B0094804003024DED7403F0024DEDEFB4047B
:104D5B001490020BE004F0D3648094835003024D53
:104D6B00EDE4F0807DEF64056004EFB4061B900268
:104D7B000BE06401706C90020DE070047E01800208
:104D8B007E0090020DEEF08059EF64027054900299
:104D9B000BE0FFB402109002CF7420F0A3E4F0906C
:104DAB0002C47403F022EFB4032890020DE09002CA
:104DBB006EF09002CF7421F0A3E4F078187C027DA2
:104DCB00017B017A02796EFE7F0D1216AB7F010219
:104DDB004AB690020BE0700A9002CF7421F0A3E464
:104DEB00F02290020DE0FF90020BE0FD123C5A0204
:024DFB004D2D3C
:105E1B0090020B7401F01277FB7BFF7A07796AE42F
:105E2B00900227F07D047F01125BCC7BFF7A077910
:105E3B008AE4900227F07D057F01125BCC7BFF7A11
:105E4B000379AAE4900227F07D067F01125BCC7BDD
:105E5B00FF7A0379CAE4900227F07D077F01125B7A
:105E6B00CC025F2B127331EF60FAB401089002CFB2
:105E7B007410025F26EFB405089002CF7421025F05
:105E8B0026EFB4031790020BE014F0E0C364809488
:105E9B00804003025F2B7402F0025F2BEFB40412FD
:105EAB0090020BE004F0E0D3648094824072E4F043
:105EBB00806EEF6402706990020BE0FF7007900236
:105ECB00CF74218056EFB401289002737401F090C7
:105EDB0002CF7421F0A3E4F0C2CB78187C027D01D1
:105EEB007B017A02796EFE7F0D1216AB7F03024A9D
:105EFB00B690020BE0B40228E4900273F0D2CB7898
:105F0B00187C027D017B017A02796EFE7F0D1216E1
:105F1B00AB7F03124AB69002CF7421F0A3E4F022B8
:0B5F2B0090020BE0FF125573025E6F46
:1060510090020B7401F0E4A3F01277FB7BFF7A0945
:10606100794AE4900227F07D047F01125BCC7BFF2B
:106071007A09796AE4900227F07D057F01125BCCF1
:106081007BFF7A09798AE4900227F07D067F01126D
:106091005BCC7BFF7A0979AAE4900227F07D077F28
:1060A10001125BCC7BFF7A6A79B8E490021DF07D26
:1060B1000F7F01127028026153127331EF60FAB43D
:1060C10001089002CF741002614EEF64056004EF85
:1060D100B4061990020BE064017077A3E070047EAE
:1060E1000180027E0090020CEEF08066EFB4031393
:1060F10090020BE014F0E0C3648094805054740269
:10610100F0804FEFB4041290020BE004F0E0D3648E
:10611100809482403DE4F08039EF64027034900253
:106121000BE0FF70079002CF74218021EFB40222AF
:1061310078187C027D017B017A0279617E007F0DF6
:106141001216ABE4FF124AB69002CF7421F0A3E419
:10615100F02290020CE0FF90020BE0FD12529A0235
:0261610060BA22
:017B9D0022C5
:0562600090020BEFF0BD
:10626500A37401F0EFF4600330060DE490020BF027
:106275001277FB1245B3803F90020BE0FFB4050691
:10628500A3E004F0800AEFB4060690020CE014F0D7
:1062950090020CE0FFD36480948340057401F08084
:1062A5000EC3EF64809481500690020C7403F09045
:1062B500020CE0FF125F3690020E12191B0000005F
:1062C5000A7F0112708712733190020BEFF0606B39
:1062D50090020E12191B0000000A7F0112708790B0
:1062E500020BE0FDB4020FA3E0FFEFC454F09002EF
:1062F500CFF0A3E4F022EDB40102804790020BE059
:10630500FFB40506A3E004F0800AEFB40606900288
:106315000CE014F090020CE0FFD3648094834005F8
:106325007401F0800EC3EF64809481500690020CD6
:106335007403F090020CE0FF125F367F011276873E
:0A634500EF6083E49002CFF0A3F0B4
:01634F00222B
:0563500090020DEFF0CA
:106355009002BFE06F601790021A7440F07B107DC9
:10636500717F11122E9590020DE09002BFF0900200
:106375000DE030E2087BFF7A0B792A800D90020D43
:10638500E030E01B7BFF7A0A79CAE4900227F07DB2
:106395000A7F02125BCC7BFF7A0A79EA02643290AB
:1063A500020DE030E13E7BFF7A01794AE490022755
:1063B500F07D087F02125BCC7BFF7A01796AE4905D
:1063C5000227F07D097F02125BCC7BFF7A06798A72
:1063D500E4900227F07D0A7F02125BCC7BFF7A06F0
:1063E50079AA804990020DE07BFF30E72A7A067989
:1063F500CAE4900227F07D097F02125BCC7BFF7A0D
:106405000079CAE4900227F07D0A7F02125BCC7BFB
:10641500FF7A0B790A80167A0279EAE4900227F06E
:106425007D0A7F02125BCC7BFF7A03790AE4900236
:0964350027F07D0B7F02125BCC05
:01643E00223B
:0571EB0090020DEFF021
:1071F0009002C0E06F601790021A7440F07B107D1F
:10720000717F21122E9590020DE09002C0F0900245
:107210000DE07BFF70067A0479CA80057A0179EA6D
:10722000E4900227F07D0A7F03125BCC7BFF7A0299
:0E723000790AE4900227F07D0B7F03125BCCFD
:01723E00222D
:1045B300C206900210743EF0A374FFF0A3740BF0D4
:1045C300A3745AF07B2D7D017F011258197BFF7A6A
:1045D30001790AE4900227F07D057F01125BCC7B11
:1045E300FF7A01792AE4900227F07D067F01125BAE
:1045F300CC7BFF7A6A79B0E490021DF07D0D7F01D8
:104603001270289002ACE0FFE4FCFDFE900225123C
:10461300190FE4900229F07B027D107F011247629B
:104623007BFF7A6A79B0E490021DF07D117F01125D
:1046330070289002ABE0FFE4FCFDFE900225121906
:104643000FE4900229F07B027D137F011247627B06
:10465300FF7A6A79B0E490021DF07D147F01127035
:10466300289002AAE0FFE4FCFDFE90022512190F38
:10467300E4900229F07B027D167F011247627BFFE3
:104683007A0279AAE4900227F07D057F02125BCCBF
:104693007BFF7A0279CAE4900227F07D067F02123B
:1046A3005BCC7BFF7A6A79B0E490021DF07D0D7FCD
:1046B300021270289002D2E0FF1263507BFF7A044B
:1046C300798AE4900227F07D057F03125BCC7BFFA0
:1046D3007A0479AAE4900227F07D067F03125BCC6B
:1046E3007BFF7A6A79B0E490021DF07D0D7F03129F
:1046F300702890027AE0FF1271EB7BFF7A03792A2C
:10470300E4900227F07D027F04125BCC7BFF7A03E7
:10471300794AE4900227F07D037F04125BCC7BFF90
:104723007A0379AAE4900227F07D067F04125BCC1A
:104733007BFF7A0379CAE4900227F07D077F041296
:104743005BCC7BFF7A6A79BA90021D7401F07D130A
:0F4753007F04127028900280E0FF7D0102351E66
:103A0400D2067BFF7A0079CAE4900227F07D037F17
:103A140001125BCC7BFF7A0079EAE4900227F07D07
:103A2400047F01125BCC7BFF7A0179EAE4900227E0
:103A3400F07D057F01125BCC7BFF7A02790AE4906A
:103A44000227F07D067F01125BCC7BFF7A02792A84
:103A5400E4900227F07D077F01125BCC7BFF7A02A2
:103A6400794AE4900227F07D087F01125BCC7BFF4A
:103A74007A02796AE4900227F07D097F01125BCC17
:103A84007BFF7A02798AE4900227F07D0A7F011293
:103A94005BCC9002B0E0FEA3E0FFE4FCFD900225C5
:103AA40012190FE4900229F07B047D0A7F02124769
:103AB400627BFF7A01798AE4900227F07D067F0217
:103AC400125BCC9002AFE0FFE4FCFDFE90022512F5
:103AD400190FE4900229F07B027D0E7F02124762E7
:103AE4007BFF7A0179AAE4900227F07D087F021215
:103AF4005BCC9002ADE0FFE4FCFDFE9002251219C0
:103B04000FE4900229F07B027D127F021247627B50
:103B1400FF7A0179CAE4900227F07D0A7F02125BE2
:103B2400CC9002ACE0FFE4FCFDFE90022512190FDC
:103B3400E4900229F07B027D067F031247627BFF3B
:103B44007A6A79B0E490021DF07D077F0312702831
:103B54009002ABE0FFE4FCFDFE90022512190FE495
:103B6400900229F07B027D097F031247627BFF7A72
:103B74006A79B0E490021DF07D0A7F0312702890E8
:103B840002AAE0FFE4FCFDFE90022512190FE49066
:103B94000229F07B027D0C7F031247627BFF7A04CB
:103BA40079EAE4900227F07D087F03125BCC7BFF67
:103BB4007A05790AE4900227F07D097F03125BCC31
:103BC4009002AEE014B407005065903BDC75F0033E
:103BD400A4C58325F0C58373023BF1023BF9023C83
:103BE40001023C09023C11023C19023C217BFF7A90
:103BF40005792A802E7BFF7A05794A80267BFF7A15
:103C040005796A801E7BFF7A05798A80167BFF7AA4
:103C14000579AA800E7BFF7A0579CA80067BFF7A34
:103C240004796AE4900227F07D0A7F03125BCC12C8
:103C340079EE7BFF7A0B794AE4900241F07D0F7FA5
:103C440004125A987BFF7A6A79BFE490021DF07DD2
:063C5400107F040270283D
:106F5F009002ACE0FFE4FCFDFE90022512190FE455
:106F6F00900229F07B027D107F011247629002ABE5
:106F7F00E0FFE4FCFDFE90022512190FE4900229B8
:106F8F00F07B027D137F011247629002AAE0FFE4BB
:106F9F00FCFDFE90022512190FE4900229F07B02EE
:106FAF007D167F011247629002D2E0FF126350906C
:076FBF00027AE0FF0271EB12
:107194009002ACE0FFE4FCFDFE90022512190FE41E
:1071A400900229F07B027D067F031247629002ABB6
:1071B400E0FFE4FCFDFE90022512190FE490022981
:1071C400F07B027D097F031247629002AAE0FFE48C
:1071D400FCFDFE90022512190FE4900229F07B02B7
:0771E4007D0C7F03024762EE
:105F3600EF24FE6063147003025FF4240260030220
:105F460060507BFF7A03792AE4900227F07D027F76
:105F560004125BCC7BFF7A03794AE4900227F07D3A
:105F6600037F04125BCC7BFF7A0379AAE4900227B5
:105F7600F07D067F04125BCC7BFF7A0379CAE4903E
:105F86000227F07D077F04125BCC7BFF7A6A79BA21
:105F960090021D74010260487BFF7A03792AE4901F
:105FA6000227F07D027F04125BCC7BFF7A03794ADD
:105FB600E4900227F07D037F04125BCC7BFF7A031B
:105FC60079AA9002277401F07D067F04125BCC7BD0
:105FD600FF7A0379CA9002277401F07D077F0412C5
:105FE6005BCC7BFF7A6A79BAE490021D80547BFF12
:105FF6007A03792A9002277401F07D027F04125BEE
:10600600CC7BFF7A03794A9002277401F07D037FE7
:1060160004125BCC7BFF7A0379AAE4900227F07D19
:10602600067F04125BCC7BFF7A0379CAE4900227D1
:10603600F07D077F04125BCC7BFF7A6A79BAE49025
:0B604600021DF07D137F041270282261
:104F9600900217EFF07BFF7A6A79C1700690021DC6
:104FA600048004E490021DF07D037F0312702890B4
:104FB6000217E07BFF7A6A79C3B4010790021D7479
:104FC600018004E490021DF07D057F031270289095
:104FD6000217E07BFF7A6A79C5B4020790021D7456
:104FE600018004E490021DF07D077F031270289073
:104FF6000217E07BFF7A6A79C7B4030790021D7433
:10500600018004E490021DF07D097F031270289050
:105016000217E07BFF7A6A79C9B4040790021D740F
:10502600018004E490021DF07D0B7F03127028902E
:105036000217E07BFF7A6A79CBB4050790021D74EC
:10504600018004E490021DF07D0D7F03127028900C
:105056000217E07BFF7A6A79CDB4060790021D74C9
:10506600018004E490021DF07D0F7F0312702890EA
:105076000217E07BFF7A6A79CFB4070790021D74A6
:10508600018004E490021DF07D117F0312702890C8
:105096000217E07BFF7A6A79D1B4080790021D7483
:1050A600018004E490021DF07D137F0312702890A6
:1050B6000217E07BFF7A6A79D3B4090790021D7460
:1050C600018004E490021DF07D157F031270289084
:1050D6000217E07BFF7A0379EAB40A1A9002277472
:1050E60001F07D0A7F04125BCC7BFF7A04790A907B
:1050F600022774018016E4900227F07D0A7F0412CD
:105106005BCC7BFF7A04790AE4900227F07D0B7F63
:0551160004125BCC2235
:1054120090020DEFF064017BFF7A6A79C3703E90CF
:10542200021D04F0FD7F021270287BFF7A6A79D593
:1054320090021D7401F07D027F021270287BFF7AB8
:105442000179EA9002277401F07D027F02125BCC9F
:105452007BFF7A02790A9002277401803AE4900273
:105462001DF07D017F021270287BFF7A6A79D5E4F4
:1054720090021DF07D027F021270287BFF7A017973
:10548200EAE4900227F07D027F02125BCC7BFF7A76
:1054920002790AE4900227F07D037F02125BCC902E
:1054A200020DE064027BFF7A6A79C5703E90021DAC
:1054B20004F0FD7F031270287BFF7A6A79D590028F
:1054C2001D7401F07D027F031270287BFF7A04793C
:1054D200CA9002277401F07D027F03125BCC7BFF2E
:1054E2007A02790A9002277401803AE490021DF050
:1054F2007D017F031270287BFF7A6A79D5E49002DE
:105502001DF07D027F031270287BFF7A0479CAE4C2
:10551200900227F07D027F03125BCC7BFF7A027937
:105522000AE4900227F07D037F03125BCC90020D08
:10553200E07BFF7A0379EA701990022704F07D0A72
:105542007F04125BCC7BFF7A04790A9002277401F4
:105552008016E4900227F07D0A7F04125BCC7BFF69
:105562007A04790AE4900227F07D0B7F04125BCC67
:015572002216
:1055730090020CEFF064017BFF7A6A79C3703E906E
:10558300021D04F0FD7F021270287BFF7A6A79D531
:1055930090021D7401F07D027F021270287BFF7A56
:1055A3000179EA9002277401F07D027F02125BCC3D
:1055B3007BFF7A02790A9002277401803AE4900211
:1055C3001DF07D017F021270287BFF7A6A79D5E492
:1055D30090021DF07D027F021270287BFF7A017911
:1055E300EAE4900227F07D027F02125BCC7BFF7A14
:1055F30002790AE4900227F07D037F02125BCC90CC
:10560300020CE064027BFF7A6A79C5703E90021D4A
:1056130004F0FD7F031270287BFF7A6A79D590022C
:105623001D7401F07D027F031270287BFF7A0179DC
:105633006A9002277401F07D027F03125BCC7BFF2B
:105643007A09792A9002277401803AE490021DF0C6
:105653007D017F031270287BFF7A6A79D5E490027B
:105663001DF07D027F031270287BFF7A01796AE4C3
:10567300900227F07D027F03125BCC7BFF7A0979CE
:105683002AE4900227F07D037F03125BCC90020C87
:10569300E07BFF7A0379EA701990022704F07D0A10
:1056A3007F04125BCC7BFF7A04790A900227740192
:1056B3008016E4900227F07D0A7F04125BCC7BFF07
:1056C3007A04790AE4900227F07D0B7F04125BCC05
:0156D30022B4
:055CFF0090020DEDF024
:105D0400EF75F06484A3F0EF75F00A8475F00A84EB
:105D1400A3E5F0F0EF75F00A84A3E5F0F090020E2D
:105D2400E0FFBD0313E4FCFDFE90022512190F9061
:105D340002297401F0FB8011E4FCFDFE900225129F
:105D4400190FE4900229F07B017D0A7F0212476259
:105D540090020DE090020FB40215E0FFE4FCFDFE9A
:105D640090022512190F9002297401F0FB8013E0B0
:105D7400FFE4FCFDFE90022512190FE4900229F0C5
:105D84007B017D0B7F0212476290020DE0900210AE
:105D9400B40115E0FFE4FCFDFE90022512190F90FA
:105DA40002297401F0FB8013E0FFE4FCFDFE900285
:105DB4002512190FE4900229F07B017D0C7F021259
:105DC400476290020DE07BFF7A0379EA7019900232
:105DD4002704F07D0A7F04125BCC7BFF7A04790AE6
:105DE40090022774018016E4900227F07D0A7F0454
:105DF400125BCC7BFF7A04790AE4900227F07D0BD6
:105E04007F04125BCC7BFF7A6A79D7E490021DF0A1
:075E14007D0D7F02027028E2
:102B3F0078167C027D017B017A02790D7E007F0978
:0B2B4F001216AB90020CE090021FF089
:102B5A0090021CE0FAA3E0FB7C007D0AFFAE0212A1
:102B6A00175D7C007D0A12175D900220EDF07C0053
:102B7A007D0AAF03AE0212175DA3EDF090021FE0CB
:102B8A00B40116A3E0FFE4FCFDFE90022512190F22
:102B9A009002297401F0FB8016900220E0FFE4FC09
:102BAA00FDFE90022512190FE4900229F07B017DA7
:102BBA00077F0212476290021FE0900221B40215B9
:102BCA00E0FFE4FCFDFE90022512190F9002297421
:102BDA0001F0FB8013E0FFE4FCFDFE9002251219D0
:102BEA000FE4900229F07B017D087F021247629070
:102BFA00021FE090021BB40313E0FFE4FCFDFE9009
:102C0A00022512190F90022974018010E0FFE4FCDA
:102C1A00FDFE90022512190FE4900229F07B027D35
:102C2A000C7F0212476290021FE0900219B404134B
