:102B7C00436865636B205349343433322E2E2E0D4B
:102B8C000A004445564943455F545950453A203054
:102B9C007825782E0D0A000D0A0044455649434508
:102BAC005F56455253494F4E3A20307825782E0DBA
:102BBC000A004445564943455F5354415455533AD2
:102BCC002061742069646C65206D6F64652E0D0A3C
:102BDC00004445564943455F5354415455533A209C
:102BEC006174205258206D6F64652E0D0A004445A7
:102BFC00564943455F5354415455533A2061742010
:102C0C005458206D6F64652E0D0A004372797374ED
:102C1C00616C204F7363696C6C61746F72204C6FC4
:102C2C0061642043617061636974616E63653A200D
:102C3C0025780D0A0053493434333220494F20494A
:102C4C006E69742E2E2E2E2E2E0D0A00494F204901
:102C5C006E697420636F6D706C657465642E0D0AFB
:102C6C0000534934343332206973206E6F742066FC
:102C7C006F756E642E2E2E2E2E2E0D0A0053493497
:102C8C00343332204750494F496E697420636F6D5D
:102C9C00706C6574652C636F6E666967206465760D
:102CAC006963652E2E2E2E2E2E0D0A00436F6E6636
:102CBC0069672052462E2E2E2E2E2E0D0A005349B9
:102CCC0034343332496E697420636F6D706C657483
:102CDC00652E0D0A005349343433325F536574202A
:102CEC0052784D6F64652E2E2E2E2E2E0D0A00530B
:102CFC0049343433325F5365742054784D6F6465B6
:102D0C002E2E2E2E2E2E0D0A005349343433325FC4
:102D1C005365742049646C654D6F64652E2E2E2EA0
:102D2C002E2E0D0A005349343433325F53656E64D2
:102D3C00204649464F20646174612E2E2E2E0D0ABA
:102D4C00002072657620496E746572727570740D10
:102D5C000A002073656E6420496E7465727275701A
:102D6C00740D0A006D6F6465207265676973746514
:052D7C00723A0D0A008F
:104E9B00D3EF9400EE64809480400F7D817C14DC12
:0A4EAB00FEDDFAEF1F70E91E80E63D
:014EB50022DA
:0750A400C2C3D2B3D2B22255
:094DE10090029BEFF07D017F0EB2
:104DEA0090020EEDF0C2B3EF4480FF12502E9002F3
:094DFA000EE0FF12502ED2B3228C
:074FB00090029AEFF07F046C
:0C4FB700C2B312502E7FFF12502ED2B356
:014FC30022CB
:104171007BFF7A2B797C124FD8E4FF124FB7900264
:1041810009EFF07BFF7A2B798E124FD8900209E06C
:10419100FF124C7D7BFF7A2B79A3124FD890020935
:1041A100E0640860037F01227F01124FB79002098A
:1041B100EFF07BFF7A2B79A6124FD8900209E0FF2E
:1041C100124C7D7BFF7A2B79A3124FD87F02124FBD
:1041D100B7900209EFF0540F70087BFF7A2B79BE7C
:1041E1008022900209E0540FFFBF01087BFF7A2B68
:1041F10079DD8010900209E0540FFFBF02097BFFB7
:104201007A2B79FA124FD87F09124FB7900209EF32
:10421100F07BFF7A2C7917124FD8900209E0FF1238
:0D4221004C7D7BFF7A2B79A3124FD87F00D4
:01422E00226D
:103F09007D537F75124DEA7D4B7F76124DEAE4FDB4
:103F19007F77124DEA7D097F6E124DEA7DD57F6F5D
:103F2900124DEA7D2C7F70124DEA7D807F58124D2B
:103F3900EA7D1F7F6D124DEA7D207F72124DEA7D69
:103F49002C7F1C124DEA7D417F20124DEA7D607F56
:103F590021124DEA7D277F22124DEA7D527F2312DD
:103F69004DEAE4FD7F24124DEA7D047F25124DEAD6
:103F79007D407F1D124DEA7D0A7F1E124DEA7D0F9D
:103F89007F2A124DEA7D037F1F124DEA7D607F690A
:103F9900124DEA7D0C7F34124DEA7D2A7F35124D90
:103FA900EA7D027F33124DEA7D2D7F36124DEA7D7F
:103FB900D47F37124DEA7D8D7F30124DEAE4FD7FC3
:103FC90032124DEA7D637F71124DEA7DB47F090299
:023FD9004DEAAF
:10422F007BFF7A2C7941124FD81250A47BFF7A2C46
:10423F007958124FD87F147E008013124171EF60AE
:10424F00127BFF7A2C796D124FD87FF47E01124EBC
:10425F009B80E87DCA7F0B124DEA7DCA7F0C124D01
:10426F00EA7DCA7F0D124DEA7F0A7E00124E9B7BBC
:10427F00FF7A2C7989124FD87F03124FB7124FB0A4
:10428F0090029BEFF07D807F07124DEA7F147E0036
:10429F00124E9B7F03124FB7124FB090029BEFF05D
:1042AF007BFF7A2C79B8124FD8123F097DFF7F051B
:1042BF00124DEA7DFF7F06124DEA7F03124FB712B0
:1042CF004FB090029BEFF07D077F05124DEAE4FDA2
:0E42DF007F06124DEA7BFF7A2C79CA024FD877
:104EB6007F03124FB7124FB0124DE17D057F0712E7
:0B4EC6004DEA7BFF7A2C79E1024FD807
:104D99007F03124FB7124FB090029BEFF07D027F55
:104DA9000E124DEA7D097F07124DEA7BFF7A2C79B5
:044DB900FB024FD8D2
:104ED1007F03124FB7124FB0124DE17D017F0712D0
:0B4EE1004DEA7BFF7A2D7915024FD8B7
:1047CF0090020AEBF0A3EAF0A3E9F0900209EFF0F0
:0147DF00FDDC
:1047E0007F3E124DEAE490020DF0900209E0FF9046
:1047F000020DE0FEC3EF6480F8EE648098502590CF
:10480000020AE0FBA3E0FAA3E0F9EEFF3395E08FA4
:1048100082F5831218E0FD7F7F124DEA90020DE0D1
:1048200004F080C6124D997BFF7A2D7931024FD862
:104504007F07124FB7900204EFF07F03124FB712E8
:104514004FB090029BEFF090029AE030E15B7BFF9A
:104524007A2D794D124FD87F4B124FB7900205EF79
:10453400F0BF0C2EE4900204F0900205E0FF90021C
:1045440004E0C39F501C7F7F124FB7900204E02405
:1045540041F582E43402F583EFF0900204E004F0C4
:1045640080D77D027F08124DEAE4FD7F08124DEAF0
:10457400124EB690023F7401F090029AE030E20CC1
:0C4584007BFF7A2D795E124FD8124EB6E4
:014590002208
:104DBD007F07124FB79002A0EFF07BFF7A2D79702D
:104DCD00124FD89002A0E0FF124C7D7BFF7A2B7919
:044DDD00A3024FD806
:0C29680049026F00000001050107E000BB
:09509300E4FB7D0E7FD0024EEC1F
:1040AD00E4FD7FD0124F21AD07ED54F0C4540F75D0
:1040BD00F00AA4FFED540F2F90026FF07D017FD019
:1040CD00124F21AD07ED54F0C4540F75F00AA4FF43
:1040DD00ED540F2F900270F07D027FD0124F21AD65
:1040ED0007ED54F0C4540F75F00AA4FFED540F2FD3
:1040FD00900271F07D047FD0124F21AD07ED54F089
:10410D00C4540F75F00AA4FFED540F2F900272F0F6
:10411D007D037FD0124F21900273EFF07D057FD08C
:10412D00124F21AD07ED5410C4540F75F00AA4FFC2
:10413D00ED540F2F900274F07D067FD0124F21ADFC
:10414D0007ED54F0C4540F75F00AA424D0FFE5F028
:10415D003407FEED540F7C002FFFEC3E900275F0FE
:03416D00A3EFF0CD
:01417000222C
:103FDB00900266E0FF75F00A84C454F0FEEF75F0B2
:103FEB000A84E5F02EFBE4FD7FD0124EEC900267C5
:103FFB00E0FF75F00A84C454F0FEEF75F00A84E517
:10400B00F02EFB7D017FD0124EEC900268E0FF7525
:10401B00F00A84C454F0FEEF75F00A84E5F02EFB31
:10402B007D027FD0124EEC900269E0FF75F00A849E
:10403B00C454F0FEEF75F00A84E5F02EFB7D047F8F
:10404B00D0124EEC90026AE0FB7D037FD0124EEC57
:10405B0090026BE0FF75F00A84C454F0FEEF75F02C
:10406B000A84E5F02EFB7D057FD0124EEC90026D9D
:10407B00E02430FF90026CE034F8FE7C007D0A12E5
:10408B001953EFC4F8540FC868FFAB07E0FEA3E069
:10409B00FF7C007D0A121953EB2DFB7D067FD002AE
:0240AB004EECD9
:1000260000000000000000000000000000000000CA
:10003600000000000018188888286A4E0CE8E808B6
:1000460008181800000444446525341C0E0F1D349E
:100056006444040000F8F888F8F81090901010FE38
:10006600FE101000001F1F081F1F00000343407FE3
:100076007F0000000020644C0800FEFE929292FE73
:10008600FE00000000303C0F437E7E7E7E427E7E78
:100096007E7E4000000000F8F828F8FAAEACA8F81A
:1000A600F82828000040703F4F42662E3A123A2E3A
:1000B6006642400000202020A0E060FFFFE0C06014
:1000C600381800002030180E0741C0FF7F010306D4
:1000D6000C1810100080C0F0FE0E9090121E1CD05E
:1000E600D01000000000007F7F40414F4E607C5FD3
:1000F6004340400000F8F888F8F81090901010FE81
:10010600FE101000001F1F081F1F00000343407F42
:100116007F0000000000F0F20EECE4242424E4E466
:1001260004FCFC0000007F7F000F0F0909090F4F38
:10013600407F7F0000808282FEFE82828282FEFEF7
:1001460082828000004060381F07000000007F7F29
:100156000000000000001010121E1CF0F0181E1601
:10016600101000000041416131190F07070F1931C6
:1001760061414100002038DFC7444444FCFC44444C
:10018600444404000404040707040404FFFF0404B1
:1001960004040404000000FEFE222222222222225F
:1001A600FEFE000080C0703F0F020202020242C241
:1001B600FF7F0000000000FEFE828282828282FEB5
:1001C600FE000000000000FFFF404040404040FFAE
:1001D600FF000000000000F8F88C8E8B898888F8F4
:1001E600F8000000000000FFFF444444444444FF7C
:1001F600FF0000004044C4C44444445010FFFF10B4
:1002060010F0F000103C3F1314BCF8703E0F41C0D4
:10021600C07F3F00101010FFFFB0B8D868290F2E1E
:1002260068E8B8180242C3FF7F40404242427E7EE1
:100236004242424040505E4E48FFFF484848F8F868
:1002460000FFFF0000003E3E02FFFF323E1E0F4F42
:10025600C0FF7F00000022323AAEA6E26331198960
:1002660081010000004262331B4BC2FE7E020A1A65
:10027600336746002030BCEF733088C8E8B99F8EDC
:10028600A8E8C888226767321292C0703F0F003F05
:100296007F40717100083830FFFF202020FFFF20CB
:1002A600222E2C2004040603FFFFC0703E0F071EFB
:1002B6003860C08000048484C46474DF9F3464C4DE
:1002C60084840400417939003C7C40424E4C4070A5
:1002D600740D3931101C4C643414050706041434AB
:1002E60064541C0C004040414141417F7F414141E3
:1002F6004140400000F8F943424242FAFA42424283
:1003060042FEFE0000FFFF080C06033F3F03064CBB
:10031600C8FF7F000000FEFE42424242FAFA424215
:1003260042C2C20280E07F9FC060381E070140C003
:10033600C07F3F000000F8F8888888FFFF8888881B
:10034600F8F80000808081C54C78303F2F6040402F
:10035600C181808090D27634FFFF3476D2F0FF8F51
:1003660008F8F808829ADE776372DE8E80C0733FE3
:100376003F73C0801010FFFF9090FEFE9292F2F243
:10038600929E9E8042C2FF7F81E07F1FFCFC474712
:1003960044FCFC00404042CECC40E0BE9E82829EA1
:1003A600BEA020200000003FBF98C8436F3C386EB7
:1003B60047C18080001717D5D557577D7D5757D52C
:1003C600D51717004040407F7F5555555555557FE9
:1003D6007F404040404042CECC00FCFCA4A42622F4
:1003E600A3E362000040603F3F785F57584D4747A0
:1003F6004D5850400000FEFE02F2F21212F2F202D6
:10040600FEFE000000007F7F2027272424272720C8
:100416007F7F000020305C4F57545454545454D4BA
:10042600D404040000000000000000000000000FDB
:100436003F70F0F08080C06030182CE7C70C183091
:1004460060C080800000000202020282C2623A1E80
:100456000600000040404242424242FEFE42424204
:10046600424240408080C060301C0F03030F1C30A6
:1004760060C080801010D0FFFF94F4EFAFA4A4AF4B
:10048600EFE40400040703FFFF89CB6B3A1E1E3A14
:100496006BCB8880101090909090909010FFFF107A
:1004A60011171610002060603F3F101010030F1C3C
:1004B6003060F8F800002424242424FCFE222223A1
:1004C60023220000020202020242C2FF7F0202024F
:1004D60002020202000000BEBE2A2AEAEA2A2A3ED8
:1004E6003E0000000044464B4949497F7F4949493F
:1004F600494140000004FFFF2424FFFF04FEFE22C2
:1005060022FEFE0088C86F2F0919BFEF783F0F4201
:10051600C2FF7F0080808080808080808080808095
:1005260080808080000000000000000000000000C5
:100536000000000000000808080808080808080865
:1005460008080000101010101010101010101010D5
:100556001010101000048484848484848484848429
:1005660084840400202020202020202020202020F9
:100576002020202000FCFC0404FCFC0404FCFC04F9
:1005860004FCFC00007F7F2C27232020202123222F
:10059600227F7F000002424242C2FE7E424242C2A7
:1005A600C202020040404040787F47404040407FC2
:1005B6007F40404020202020202021232E2C202058
:1005C60020202020004060301C0F0300000103069D
:1005D6001C7860004042CECC00445454547F7F5473
:1005E6005454444000007F7F3010FFFF151555D549
:1005F600FF7F000088E87FDFC818D8DC56D3D39683
:100606009CD8D010091919FFFF05FFFF92FFFF5F65
:10061600DFFF7F00000000000001E3FEFCE00000B9
:100626000000000080C060301C0F030000030F3C78
:1006360070C08080109CCC44E4E495B7E6643494A2
:10064600C4D49C0C02027A7B4143437E7E424243E1
:10065600FBF800000484E4FC5CC4C402F2F282826B
:10066600FEFE808002037F7F103F3F08080808488F
:10067600C8C87F3F4070FFEF646C487F7F48487F63
:100686007F48484001017F7F3111FFFF49494949B1
:10069600FFFF00004042CECC00809E9E9292929236
:1006A6009E9E800000007F7FB494C464341F1F3474
:1006B60064C48484101010FFFF9090F0F010FFFFC8
:1006C60010F0F0000444C6FF7F0100FFFF427F7F69
:1006D60042FFFF004040C0DF5F55D5D55555555FF9
:1006E6005F40404020607F3F3515FFFFD76F393DA3
:1006F6006FC3808020202020202020FFFF20202084
:10070600202020208080C060301C0F03030F1C3087
:1007160060C08080000000E0E00000FFFF000020D5
:1007260060C08000080C07030040C0FF7F00000087
:1007360000010F0E80E0F8FF0704747455575654F5
:10074600747404000000FFFF03030545C5FD7D0525
:1007560005050303206464B494BFBF809FBFA4A6AD
:10076600A23A3800000000FFFF0A0A0A0A4ACAFF36
:100776007F000000404042465CD8C07F7FC0D05812
:100786004E4640408080C060381F0700003F7F40D3
:10079600404078780000183C243C18000000000017
:1007A60000000000E0380C0602030101010101010E
:1007B6000101010101010101010101010101010123
:1007C6000101010101010101010101010101010113
:1007D600010302060C38E0404040404040404040A3
:1007E600C000FF0000000000000000000000000044
:1007F60000000000000000000000000000000000F3
:1008060000000000000000000000000000000000E2
:1008160000000000FF40C000000000000000FF00D4
:10082600FF000000000000000000000000000000C3
:1008360000000000000000000000000000000000B2
:1008460000000000000000000000000000000000A2
:100856000000FF00FF0000F0FFF00000FF00FF00B7
:100866000000000000000000000000000000000082
:100876000000000000000000000000000000000072
:100886000000000000000000000000000000000062
:10089600FF00FF001CFFFFFF1C00FF00FF800000A1
:1008A6000000000000000000000000000000000042
:1008B6000000000000000000000000000000000032
:1008C6000000000000000000000000000080FF7033
:1008D6005F0000FFFFFF00005F700003060C0818B2
:1008E6001010101010101010101010101010101002
:1008F60010101010101010101010101010101010F2
:100906001010101010101018080C161318080810E4
:100916001018081810101008000000000000000051
:100926000000000000000000000000F8F8000000D1
:10093600000030333300000000100C06100C0600D7
:1009460000000000000000004040F840F8400000B1
:10095600043E053F05040000007088FC08300000D6
:10096600001820FF211E0000F008F080700800002B
:1009760000211C031E211E0000F0887000000000EC
:100986001F2027281F211000000000000000000083
:1009960080B0F07000000000000000F0FC0E0200C5
:1009A6000000000F3F70400000061EF8E000000047
:1009B6000060781F070000004040C0F0F0C04040D3
:1009C6000202030F0F030202000000F0F000000015
:1009D6000101011F1F0101010002020604000000BF
:1009E6000000000000000000000000000000000001
:1009F60001010101010101000000000000000000EA
:100A0600003030300000000000000000C0F83C0C50
:100A16000060783F07010000E0F0180818F0E000D9
:100A26000F1F3020301F0F00001010F8F8000000D4
:100A36000020203F3F2020000070780808F8F000D2
:100A460000303C2E233130000030388888F87000A2
:100A560000183820313F1E000080C060F8F8000002
:100A6600060705243F3F240400F8F8888888080014
:100A760000193921313F1F00E0F098888898180046
:100A86000F1F3120313F1F0000383808E8F81800E2
:100A96000000003F3F00000070F8988898F870004A
:100AA6001E3F2121313F1E00F0F8080818F8E0002B
:100AB600313322323B1F07000000C0C0C0000000D7
:100AC6000000303030000000000000808000000090
:100AD600000080E060000000000080E07018080060
:100AE6000001030E1C3020004040404040404000C2
:100AF600040404040404040000083870C0800000E4
:100B06000020381C060301007078080818F8F00069
:100B16000000303737010000C0F0F8E8E8F8F0E0F0
:100B2600071F3F2727371F0B0000E0F8F8E00000FB
:100B3600203C3F23233F3C2008F8F88888F87000C3
:100B4600203F3F20313F1E00E0F0380808383800CB
:100B56000F1F30202030100008F8F80818F0E000C9
:100B6600203F3F20301F0F0008F8F888E8F81800EB
:100B7600203F3F202333300008F8F888E8E81810B3
:100B8600203F3F2003030000C0F038080838380033
:100B9600071F3820223E1E0208F8F80808F8F80851
:100BA600203F3F21213F3F20000808F8F8080800B1
:100BB6000020203F3F202000000808F8F808080021
:100BC600C0C080FF7F00000008F8F8C8E8381808A1
:100BD600203F3F21273E382008F8F8080000000093
:100BE600203F3F202030300008F8F800F8F80800D1
:100BF600203F003F003F200008F8F8F8C8F8F80842
:100C0600203F3F231F3F3F00E0F0180818F0E000A8
:100C16000F1F3020301F0F0008F8F80808F8F00002
:100C2600203F3F2101010000E0F0180818F0E00025
:100C36000F1F3C247C7F4F0008F8F88888F8700066
:100C4600203F3F21073E38200070F888081818001A
:100C560000303021233F1E00181808F8F80818182D
:100C66000000203F3F20000008F8F80808F8F808C0
:100C7600001F3F20203F1F000878F88888F8780872
:100C860000000F3F3F0F000008F8FCFCF8F8F808DA
:100C960000073F3F3F3F07000838F8E8E8F8180824
:100CA60020303C2F2F3E38200838F8C8C8F83808BE
:100CB6000000203F3F200000101808C8F838080040
:100CC600303C2F2320301000000000FEFE02020000
:100CD6000000007F7F404000001CFCE00000000098
:100CE600000000031F7C6000000202FEFE00000000
:100CF6000040407F7F00000000000406060400005C
:100D060000000000000000000000000000000000DD
:100D1600808080808080808010161E0E000000007B
:100D2600000000000000000000008080808080003D
:100D3600001D3D26223F3F2008F8F88080800000F5
:100D4600003F3F21203F1F00000080808080800000
:100D5600001F3F31203111000000808088F8F80024
:100D6600001F3F21203F3F20000080808080000040
:100D7600001F3F22223313008080F0F88898180065
:100D860000203F3F202000000000808080808000FF
:100D9600006BFF9497F3600008F8F880808080006D
:100DA600203F3F21203F3F20008080989800000090
:100DB6000020203F3F2020000000808098980000FF
:100DC60000C0C080FF7F000008F8F88080808000A7
:100DD600203F3F263F392000000808F8F8000000B1
:100DE6000020203F3F2020008080808080808080FF
:100DF600203F3F203F3F203F8080808080808000D2
:100E0600203F3F2100203F3F00008080808000007F
:100E1600001F3F31213F1F008080808080800000BE
:100E260080FFFFA1303F1F0000008080808080008F
:100E3600001F3F21A0FFFF8080808080808080008F
:100E460020203F3F2121010000008080808080001B
:100E560000333724243D1900008080E0E0808000C4
:100E66000000001F3F2020008080800080808000DE
:100E7600003F3F20203F3F20808080808080808010
:100E860000031F3C3C1F03008080C0C08080808020
:100E9600000F3F3F3F3F0F008080808080808000B2
:100EA60020313F2E3F3120008080808080808080EE
:100EB6008083CF7E3E0F010000808080808080008E
:080EC6000021393C2733300004
:1029740060C0000000000000000000000000000033
:102984000000000000000000000000000000000043
:102994000000000000000000000000000000000033
:1029A4000000000000000000000000000000000023
:1029B4000000000000000000000000000000000013
:1029C4000000000000000000000000000000000003
:1029D40000000000000000000000000000000000F3
:1029E40000000000000000000000000000000000E3
:1029F40000000000000000000000000000000000D3
:102A040000000000000000000000000000000000C2
:102A140000000000000000000000000000000000B2
:102A240000000000000000000000000000000000A2
:102A34000000000060C000C00000000000000000B2
:102A44000000000000000000000000000000000082
:102A54000000000000000000000000000000000072
:102A64000000000000000000000000000000000062
:102A74000000000000000000000000000000000052
:102A84000000000000000000000000000000000042
:102A94000000000000000000000000000000000032
:102AA4000000000000000000000000000000000022
:102AB4000000000000000000000000000000000012
:102AC4000000000000000000000000000000000002
:102AD40000000000000000000000000000000000F2
:102AE40000000000000000000000000000000000E2
:082AF4000000000000000000DA
:044E62007F057E004A
:104E6600D3EF9400EE9400400F7D147C32DCFEDD1F
:084E7600FAEF1F70EB1E80E84B
:014E7E002211
:104FFD00D3EF9400EE94004007EF1F70F31E80F086
:01500D002280
:0450C30075BB602237
:10498E00900218E0FF900217E04440FBE4FD12494C
:0C499E00AA90021BE044B8FBE4FD7F0778
:1049AA00EF30E002C2C2EF30E102C291EF30E20220
:1049BA00C292D2C6ED6004D2C58002C2C5C2C1AFDE
:1049CA00038F80C2C6D2C2D291D2927F017E0002E8
:0249DA004E6627
:074A6F00900257E0FF7D01FA
:104A76007580FFEFB40104C2C2800EEFB40204C217
:104A8600918006EFB40402C292ED6004D2C58002A2
:104A9600C2C5D2C100D2C600AC80C2C6C2C1D2C293
:0D4AA600D291D2927F017E00124FFDAF042D
:014AB30022E0
:024CB100A90751
:104CB300E4FBE930E009E4FD7F01124A76EFFBE90A
:104CC30030E10AE4FD7F02124A76EB4FFBE930E262
:0F4CD3000AE4FD7F04124A76EB4FFBEB20E7D19A
:014CE20022AF
:104FEB00C2CA7F507E00124E66D2CA7FA07E0002DC
:024FFB004E6600
:104E03007F07124CB1E4FAEA1249A3E4F9E4FB7D0B
:104E1300017F071249AA09E9B440F20AEAB408E794
:014E2300226C
:104D7000C2CB124E62124FEB7B3E1249A6124E621C
:104D80007BC01249A6124E62124E03124E627B3F46
:094D90001249A6124E62D2CB2298
:104AB4007F07124CB17B40E4FD7F011249AA7BBA07
:104AC400E4FD7F011249AAE4FAE4F97BFF7D017F4A
:104AD400011249AA09E9B440F27B40E4FD7F0112C6
:104AE40049AAEA240344B8FBE4FD7F011249AA0A57
:044AF400EAB401D54A
:014AF800229B
:104AF9007F07124CB17B40E4FD7F021249AA7BBAC1
:104B0900E4FD7F021249AAE4FAE4F97BFF7D017F03
:104B1900021249AA09E9B440F27B40E4FD7F02127E
:104B290049AAEA240344B8FBE4FD7F021249AA0A10
:044B3900EAB401D504
:014B3D002255
:103ACF00900213EBF0A3EAF0A3E9F0900211EFF0EC
:033ADF00A3EDF064
:103AE200EF1425E0900211F0ED24FFFFE434FFFE15
:103AF200EF7802CEC313CE13D8F9FF7007900218E5
:103B020004F08016EFB401089002187402F0800AE3
:103B1200EFB402069002187404F0900212E01454FA
:103B220003C454F0F0FE900218E0FFEE4440FBE4C0
:103B3200FD1249AAE0FF900211E044B8FBE4FD1235
:103B420049AAE4900217F0900216E0900218601859
:103B5200E0FF900213E0FBA3E475F0011219BEA985
:103B6200F0FA1218C7F48015E0FF900213E0FBA3ED
:103B7200E475F0011219BEA9F0FA1218C7FB7D0113
:103B82001249AA900217E004F0E0C3941040B890E2
:103B92000218E0FF900212E04440FBE4FD1249AA41
:103BA200900218E0FF900211E00444B8FBE4FD1219
:103BB20049AAE4900217F0900216E09002186018E9
:103BC200E0FF900213E0FBA3E475F0011219BEA915
:103BD200F0FA1218C7F48015E0FF900213E0FBA37D
:103BE200E475F0011219BEA9F0FA1218C7FB7D01A3
:0F3BF2001249AA900217E004F0E0C3941040B803
:013C010022A0
:1037030075F010A4241EF9740735F0FA7BFFE0FF6F
:0A371300A3E0FD14F0E490022DF095
:10371D0090022AEBF0A3EAF0A3E9F0900228EFF073
:03372D00A3EDF019
:10373000EF1425E0900228F0ED24FFFFE434FFFEB3
:10374000EF7803CEC313CE13D8F9FF700790022F82
:1037500004F08016EFB4010890022F7402F0800A82
:10376000EFB4020690022F7404F0900229E0145482
:103770000775F008A4F0FE90022FE0FFEE4440FB36
:10378000E4FD1249AAE0FF900228E044B8FBE4FD02
:103790001249AAE490022EF090022DE090022F60D0
:1037A00018E0FF90022AE0FBA3E475F0011219BEB5
:1037B000A9F0FA1218C7F48015E0FF90022AE0FB86
:1037C000A3E475F0011219BEA9F0FA1218C7FB7D27
:1037D000011249AA90022EE004F0E0C3940840B818
:1037E00090022FE0FF900229E04440FBE4FD1249E3
:1037F000AA90022FE0FF900228E00444B8FBE4FD09
:103800001249AAE490022EF090022DE090022F605F
:1038100018E0FF90022AE0FBA3E475F0011219BE44
:10382000A9F0FA1218C7F48015E0FF90022AE0FB15
:10383000A3E475F0011219BEA9F0FA1218C7FB7DB6
:10384000011249AA90022EE004F0E0C3940840B8A7
:013850002255
:10483000900212EFF0A3EDF0A3EBF0A3EAF0A3E9EE
:10484000F0900214E0FBA3E0FAA3E0F91218C760AD
:104850003E75F010A4241EF9740735F0FA7BFF9022
:104860000212E0FFA3E0FD900217E0123719900258
:1048700013E004F0E0D3941840097401F0900212A0
:10488000E004F0900215E475F0011219A880B2223C
:08359A0090020BEFF0A3EDF02D
:1035A20078117C027D017BFF7A0079267E007F0AFA
:1035B2001218A1E490021BF0A37409F0E4A3F0A393
:1035C200F0A3121A530000000190020DE0FCA3E0E8
:1035D200FDA3E0FEA3E0FFEC33501690021D740140
:1035E200F090020DA3A3A3E0121A2390020D121A67
:1035F2004790020DE0FCA3E0FDA3E0FEA3E0FFEC98
:103602004D4E4F6074E47B0AFAF9F890020DA3A3C1
:10361200A3E0124B82AC00AD01AE02AF0390021FD9
:10362200121A4790021FA3A3A3E02430FF90021BAB
:10363200E0FE04F074112EF582E43402F583EFF01B
:1036420090020DE0FCA3E0FDA3E0FEA3E0FFE47B1B
:103652000AFAF9F8124B8290020D121A4790021BD5
:10366200E06402708CE0FF04F074112FF582E43400
:1036720002F583742EF00235F390021BE0D394031B
:10368200502AE0FF04F074112FF582E43402F5832E
:103692007430F090021BE0B402DFFF04F074112FCB
:1036A200F582E43402F583742EF080CD90021DE0A1
:1036B200601490021BE0FF04F074112FF582E434D1
:1036C20002F583742DF0E490021CF090021BE0FFDF
:1036D200A3E0FEC39F502974112EF582E43402F553
:1036E20083E090020B12370390020CE0700A900202
:1036F2000BE004F0A37418F090021CE004F080CBFD
:0137020022A4
:0B31080090020FEFF0A3EDF0A3EBF03E
:1031130078167C027D017BFF7A0079307E007F0A7E
:103123001218A1E4900220F0A37409F0E4A3F0A321
:10313300F0A3121A5300000001900212E0FCA3E076
:10314300FDA3E0FEA3E0FFEC3350169002227401CE
:10315300F0900212A3A3A3E0121A23900212121AF0
:1031630047900211E0606F900211E0FF14F0EFD37B
:1031730094005003023247E47B0AFAF9F8A3E0FC17
:10318300A3E0FDA3E0FEA3E0FF124B82AC00AD0180
:10319300AE02AF03900224121A47900224A3A3A302
:1031A300E02430FF900220E0FE04F074162EF58236
:1031B300E43402F583EFF0900212E0FCA3E0FDA3F8
:1031C300E0FEA3E0FFE47B0AFAF9F8124B829002D7
:1031D30012121A478091900212E0FCA3E0FDA3E0D3
:1031E300FEA3E0FFEC4D4E4F605AE47B0AFAF9F878
:1031F300900212A3A3A3E0124B82AC00AD01AE0276
:10320300AF03900224121A47900224A3A3A3E0243D
:1032130030FF900220E0FE04F074162EF582E434B1
:1032230002F583EFF0900212E0FCA3E0FDA3E0FEC1
:10323300A3E0FFE47B0AFAF9F8124B829002121220
:103243001A478092900222E06014900220E0FF046B
:10325300F074162FF582E43402F583742DF0E490B4
:103263000221F0900220E0FFA3E0FEC39F502974E7
:10327300162EF582E43402F583E090020F12370331
:10328300900210E0700A90020FE004F0A37418F0AB
:08329300900221E004F080CB61
:01329B002210
:0A39910090020CEDF0AC07A3EBF080
:10399B00E4900218F0EB24FFFFE434FFFEEF780312
:1039AB00CEC313CE13D8F90490020DF0EC24FFFF15
:1039BB00E434FFFEEF7803CEC313CE13D8F9900295
:1039CB0014F090020CE0FF14543F900215F0FDEF41
:1039DB0024FFFFE434FFFEEF7806CEC313CE13D8DB
:1039EB00F9FF7401A807088002C333D8FCFF9002CB
:1039FB0016F0900218F0ED4440FBE4FD1249AA903A
:103A0B0002141249A2E4900212F090020DE0FF9012
:103A1B000212E0C39F4003023ACEE4A3F090020EE1
:103A2B00E0FF900213E0FEC39F506AEEFF90020C82
:103A3B00E02FFFE433CF24FFCF34FFFEEF7806CE29
:103A4B00C313CE13D8F975F00384AFF07401A80734
:103A5B00088002C333D8FCFF900217F0A3E06F601D
:103A6B000E900217E0FFA3F07B40E4FD1249AA90F1
:103A7B000217E0FF90020FE0FBA3E475F0011219AF
:103A8B00BEA9F0FA1218C7FB7D011249AA900213C6
:103A9B00E004F08088900216E0FF900218F090028C
:103AAB0015E04440FBE4FD1249AA900212E0FF909E
:103ABB000214E02F5407041249A3900212E004F001
:033ACB00023A15A7
:013ACE0022D5
:0F2D810090024DEFF090024FEBF090024EEDF00C
:102D9000E4900259F0ED14543F900256F0FCED24FB
:102DA000FFFFE434FFFEEF7806CEC313CE13D8F94D
:102DB000FF7401A807088002C333D8FCFF900257B4
:102DC000F0900259F0EC4440FBE4FD1249AA900255
:102DD0004DE0141249A3124A6FE4900254F090029D
:102DE0004FE0FF900254E0C39F4003022EB1E4A3E2
:102DF000F0900250E0FF900255E0FEC39F400302B6
:102E00002E81EEFF90024EE02FFFE433CF24FFCF60
:102E100034FFFEEF7806CEC313CE13D8F975F00356
:102E200084AFF07401A807088002C333D8FCFF9078
:102E30000258F0A3E06F600E900258E0FFA3F07B11
:102E400040E4FD1249AA900258124A72AD0790025E
:102E500050E0FF900254E08FF0A4FFA3E07A002F2F
:102E6000FFEA35F0FE900251E0FBA3E0FAA3E0F99F
:102E70008F828E83ED12191F900255E004F0022D0F
:102E8000F1900257E0FF900259F0900256E0444062
:102E9000FBE4FD1249AA900254E0FF90024DE02F9E
:102EA00054071249A3124A6F900254E004F0022D15
:102EB000DE7F07124CB1900256E04440FBE4FD7FF8
:102EC000021249AA90024DE01444B8FBE4FD7F02CF
:102ED0001249AAE4900254F090024FE0FF9002548D
:102EE000E0C39F506EE4A3F0900250E0FF900255C3
:102EF000E0FDC39F5031900254E08FF0A47C002D80
:102F0000FFEC35F0FE900251E0FBA3E0FAA3E0F9FC
:102F10008F828E831218E0FB7D017F021249AA90F6
:102F20000255E004F080C1900256E04440FBE4FD0D
:102F30007F021249AA900254E0FF90024DE02F5404
:102F40000744B8FBE4FD7F021249AA900254E00452
:032F5000F0808589
:012F5300225B
:071F0400900212EDF0AC07A2
:101F0B00E490021AF0EC24FFFFE434FFFEEF7803B9
:101F1B00CEC313CE13D8F990021BF0EC14540790D8
:101F2B00021EF0EC2B145407A3F090021EE0FDFFF1
:101F3B00EB2FFFE433FEEF7803CEC313CE13D8F9A8
:101F4B00FFED2B540760047E0180027E00EE2FFF15
:101F5B0090021DF090021BE02F14A3F0900212E0F0
:101F6B00FD14543F900217F0ED24FFFFE434FFFE05
:101F7B00EF7806CEC313CE13D8F9FF7401A8070868
:101F8B008002C333D8FC900218F090021AF0900232
:101F9B001EE0700302205C12498E900218124A72E6
:101FAB00E4900215F0900214E0FFA3E0FEC39F4003
:101FBB0003022054EEFF900212E02FFFE433CF24F4
:101FCB00FFCF34FFFEEF7806CEC313CE13D8F975CF
:101FDB00F00384900216E5F0F0E0FF7401A8070807
:101FEB008002C333D8FCFF900219F0A3E06F600EA0
:101FFB00900219E0FFA3F07B40E4FD1249AA900286
:10200B0019124A72900215E0FE2400F582E43400A6
:10201B00F583EFF074002EF582E43400F583C08372
:10202B00C082E0FF90021EE0FEC374079EFE747F29
:10203B00A806088003A2E713D8FB5FD082D083F0F9
:10204B00900215E004F0021FB0900218E090021A03
:10205B00F090021FE0700302212D900218E0FF9018
:10206B000217E04440FBE4FD1249AA90021C1249FE
:10207B00A2900218124A72E4900215F0900214E03A
:10208B00FFA3E0FEC39F4003022125EEFF90021247
:10209B00E02FFFE433CF24FFCF34FFFEEF7806CEE3
:1020AB00C313CE13D8F975F00384900216E5F0F044
:1020BB00E0FF7401A807088002C333D8FCFF90022D
:1020CB0019F0A3E06F600E900219E0FFA3F07B40C4
:1020DB00E4FD1249AA900219124A72900215E0FE11
:1020EB0024C0F582E43400F583EFF074C02EF58242
:1020FB00E43400F583C083C082E0FF90021FE0FE52
:10210B0074FFA806088002C333D8FC5FD082D0834B
:10211B00F0900215E004F0022087900218E0900284
:10212B001AF012498EE4FA90021DE0FFEAC39F40B9
:10213B0003022249E4900215F0900214E0FFA3E0A1
:10214B00FEC39F4003022225EEFF900212E02FFFF9
:10215B00E433CF24FFCF34FFFEEF7806CEC313CE8C
:10216B0013D8F975F00384900216E5F0F0E0FF74D4
:10217B0001A807088002C333D8FCFF900219F0A313
:10218B00E06F600E900219E0FFA3F07B40E4FD12BC
:10219B0049AA90021EE0F9602EA3E0602A90021D6E
:1021AB00E0B40123900219E0FF900215E0FE24C079
:1021BB00F582E43400F583E0FD74002EF582E434FF
:1021CB0000F583E04D8044E96018EA701590021920
:1021DB00E0FF900215E02400F582E43400F583E083
:1021EB00802990021FE0601D90021DE014B50215BE
:1021FB00900219E0FF900215E024C0F582E4340050
:10220B00F583E08006900219E0FFE4FB7D011249A3
:10221B00AA900215E004F0022144900218E0FF900E
:10222B00021AF0900217E04440FBE4FD1249AA9019
:0E223B00021BE02A5407041249A30A022132B2
:012249002272
:071B7F00900210EDF0AC072D
:101B8600E4900218F090021EF0EC24FFFFE434FF0C
:101B9600FEEF7803CEC313CE13D8F9900219F0ECFA
:101BA60014540790021CF0EC2B145407A3F0900277
:101BB6001CE0FDFFEB2FFFE433FEEF7803CEC313EB
:101BC600CE13D8F9FFED2B540760047E0180027E08
:101BD60000EE2FFF90021BF0900219E02F14A3F0E5
:101BE600900210E0FD14543F900215F0ED24FFFF23
:101BF600E434FFFEEF7806CEC313CE13D8F9FF7494
:101C060001A807088002C333D8FC900216F09002A0
:101C160018F090021CE07003021CEF900216E0FF21
:101C2600900215E04440FBE4FD1249AA9002191205
:101C360049A2900216124A72E4900213F090021220
:101C4600E0FFA3E0FEC39F4003021CE7EEFF900205
:101C560010E02FFFE433CF24FFCF34FFFEEF7806EA
:101C6600CEC313CE13D8F975F00384900214E5F0B1
:101C7600F0E0FF7401A807088002C333D8FCFF9088
:101C86000217F0A3E06F600E900217E0FFA3F07B4F
:101C960040E4FD1249AA900217124A72900213E01C
:101CA600FE2400F582E43400F583EFF074002EF58F
:101CB60082E43400F583C083C082E0FF90021CE01A
:101CC600FEC374079EFE7480A806088003A2E7136D
:101CD600D8FB4FD082D083F0900213E004F0021CB0
:101CE60043900216E0900218F090021DE070030285
:101CF6001DD2900216E0FF900215E04440FBE4FD81
:101D06001249AA90021A1249A2900216124A72E4C5
:101D1600900213F0900212E0FFA3E0FEC39F40037F
:101D2600021DCAEEFF900210E02FFFE433CF24FF1E
:101D3600CF34FFFEEF7806CEC313CE13D8F975F075
:101D46000384900214E5F0F0E0FF7401A807088010
:101D560002C333D8FCFF900217F0A3E06F600E9029
:101D66000217E0FFA3F07B40E4FD1249AA90021798
:101D7600124A72900213E024C0F582E43400F5831F
:101D8600EFF01D90021DE0FEEDC39E500AA3E02574
:101D9600E04401F00D80EC900213E024C0F582E4EB
:101DA6003400F583C083C082E0FF90021EE0FEEFA0
:101DB6004ED082D083F0E490021EF0900213E0042D
:101DC600F0021D1A900216E0900218F0900216E03A
:101DD600FF900215E04440FBE4FD1249AA90021967
:101DE6001249A2E4FA90021BE0FFEAC39F400302F5
:101DF6001F03E4900213F0900212E0FFA3E0FEC37B
:101E06009F4003021EDFEEFF900210E02FFFE43337
:101E1600CF24FFCF34FFFEEF7806CEC313CE13D800
:101E2600F975F00384900214E5F0F0E0FF7401A860
:101E360007088002C333D8FCFF900217F0A3E06FB7
:101E4600600E900217E0FFA3F07B40E4FD1249AA62
:101E560090021CE0F9602EA3E0602A90021BE0B419
:101E66000123900217E0FF900213E0FE24C0F582E2
:101E7600E43400F583E0FD74002EF582E43400F5C9
:101E860083E05D803CE96018EA7015900217E0FF78
:101E9600900213E02400F582E43400F583E080210B
:101EA60090021DE0601E90021BE014B5021690021F
:101EB60017E0FF900213E024C0F582E43400F583B6
:101EC600E0FB8007900217E0FF7BFF7D011249AA25
:101ED600900213E004F0021DFD900216E0FF90024E
:101EE60018F0900215E04440FBE4FD1249AA900266
:0D1EF60019E02A5407041249A30A021DEB4B
:011F030022BB
:104A2600A2A282A082A482A182A382C84038125088
:104A36003BA2A282A082A482A182A382C840242093
:104A4600A0037F012220A2037F022220A4037F0667
:104A56002220A1037F052220C8037F032220A3036F
:094A66007F04227F00227F002260
:10500E00E4F5CF75CDC030030475CED02275CE40F9
:01501E00226F
:0D502E008FCFE5CD30E7FB75CDC0AFCF22B1
:104FC400438920759840758DDC858D8BE4F587D2F7
:044FD400ACD28E22AB
:08509C008F993099FDC29922A1
:024C7D00AE0780
:104C7F00EEC4540FFDC36480948AED500424308039
:104C8F000424F62461FF12509CEE540FFDC3648080
:104C9F00948AED50042430800424F62461FF1250CE
:014CAF009C68
:014CB00022E1
:0750AB00EF2430FF02509CCE
:104FD8001218C7FF600C12509C740129F9E43AFAC0
:034FE80080EE2236
:0D4D1500900297EBF0A3EAF0A3E9F0AE07DF
:104D2200E4FDEDC39E501A900297E0FBA3E0FAA3C4
:104D3200E0F98D827583001218E0FF12509C0D80FD
:014D4200E18F
:014D4300224D
:03002300024E7F0B
:064E7F00C0E0C083C08208
:0F4E850030980CC298C2AF900203E599F0D2AFFB
:074E9400D082D083D0E03290
:0650B200000000000022D6
:05000600D2B7D2B622C2
:06000E00124E24124E4ABE
:0F001400D2B6D2B71250B2C2B61250B2C2B72291
:0C506F00C2B6D2B71250B2D2B60250B294
:064E4400120014124E24BE
:104E4A00D2B71250B230B608C2B71250B27F00229F
:084E5A00C2B71250B27F012221
:0C507B00C2B6D2B71250B2C2B70250B297
:0C508700D2B6D2B71250B2C2B70250B27B
:104E2400E4FEEF30E703D38001C392B6EF25E0FF41
:0F4E3400D2B71250B2C2B71250B20EEEB408E3AA
:014E4300224C
:104D4400E4FED2B6FDEE25E0FED2B71250B230B684
:104D5400034401FEC2B71250B20DEDB408E7EF6090
:0B4D64000512507B8003125087AF0641
:014D6F002221
:104EEC00124E44AC07AF05124E24124E4AAF0312B9
:0A4EFC004E24124E4A12506FAF040C
:014F06002288
:024F2100AC07DB
:104F2300124E44AF0512000EEC04FF124E24124E33
:064F33004AE4FF124D44A8
:014F39002255
:1048EB00AD07124E44EF700612506F7F01229002FB
:1048FB0084E0FF12000EED04FF124E24124E4A907C
:10490B000285E0FF6026B4010BE4FF124D44EF1269
:10491B00190D80107F01124D44EF12190D740129EE
:10492B00F9E43AFA900285E014F080D312506F7FCD
:02493B00002258
:104BC600124E44EF7002801E90028AE0FF124E24BD
:104BD600124E4A90028BE060221218C7FF124E2432
:104BE600124E4AEF700612506F7F0122740129F9A6
:104BF600E43AFA90028BE014F080D812506F7F00EE
:014C0600228B
:102AFC004102920041029300410294004102950070
:042B0C0041029600EC
:0C503B007FB27E967D0CDDFEDEFADFF613
:015047002246
:0C5048007FB27EE67D0CDDFEDEFADFF6B6
:015054002239
:0C5055007FD97EAB7D49DDFEDEFADFF680
:01506100222C
:104CE300EF24FE601214601714601C2403702090DC
:104CF3000292E05401FF22900292E05402FF2290BC
:104D03000292E05404FF22900292E05408FF227FB3
:024D130000227C
:10489000EF24FE601D14602D14603D2403704B90C6
:1048A0000292E054FEF090020CA3A3A3E0900293C6
:1048B000F022900292E054FDF090020CA3A3A3E03A
:1048C000900294F022900292E054FBF090020CA32C
:1048D000A3A3E0900295F022900292E054F7F090AA
:0B48E000020CA3A3A3E0900296F022BC
:104B3E00900293E0600414F08007900292E044012A
:104B4E00F0900294E0600414F08007900292E0442A
:104B5E0002F0900295E0600414F08007900292E05B
:104B6E004404F0900296E0600314F022900292E06A
:044B7E004408F022D5
:10469900454550524F4D20736563746F72312068E0
:1046A900617320646174612E0D0A00454550524FB3
:1046B9004D20736563746F723120697320636C6573
:1046C900616E2E0D0A00454550524F4D20736563AA
:1046D900746F72322068616520646174612E0D0AFD
:1046E90000454550524F4D20736563746F723220F7
:0C46F900697320636C65616E2E0D0A0071
:0D506200E4F5C7F5C5F5C675C380F5C42299
:104F3A0075C78375C5018FC4EEF5C375C65A75C6A4
:084F4A00A50000AFC212506285
:014F5200223C
:104F070075C78375C5028FC4EEF5C3AF058FC2752C
:0A4F1700C65A75C6A50000025062DC
:104F9A0075C78375C5038FC4EEF5C375C65A75C642
:064FAA00A50000025062A8
:1043A800E490020BF0A3F0E4900209F0A3F090026D
:1043B80009E0FEA3E0FFC3EE94025028124F3AEF43
:1043C800F460117BFF7A467999124FD890020BE47A
:1043D800F0A304F090020AE004F070D2900209E021
:1043E80004F080CA90020BE07002A3E070B97BFF72
:1043F8007A4679B4124FD8E4900209F0A3F09002FB
:1044080009E0FEA3E0FFC3EE9402502FE42FFFEE75
:104418003402FE124F3AEFF460117BFF7A4679CFEF
:10442800124FD890020BE4F0A304F090020AE004C3
:10443800F070CB900209E004F080C390020BE070AA
:0E44480002A3E070B27BFF7A4679EA024FD8F9
:102B10004C02410000000000000000000000004CDA
:102B2000023300000000000000000000000041022D
:0C2B30003F004102400043023001025A05
:0150C70022C6
:0150C80022C5
:103E1E00900243E0FE6410706CA3E07068A3E0FFB4
:103E2E00900230E0FBA3E0FAA3E0F9EF12190D9037
:103E3E000246E0FF900230E0FBA3E0FAA3E0F99027
:103E4E000001EF12191F900247E090000212191F95
:103E5E00900248E090000312191F900249E0900072
:103E6E000412191F90024AE090000512191F9002C9
:103E7E004BE090000612191F90024CE090000712C2
:103E8E00191F7F0122EE6411706E900244E070687B
:103E9E00A3E0FF900230E0FBA3E0FAA3E0F9EF12FB
:103EAE00190D900246E0FF900230E0FBA3E0FAA36A
:103EBE00E0F9900001EF12191F900247E090000206
:103ECE0012191F900248E090000312191F90024928
:103EDE00E090000412191F90024AE090000512199A
:103EEE001F90024BE090000612191F90024CE090BA
:0B3EFE00000712191F7F02227F002224
:0F501F0041444320646174613A0D0A000D0A0098
:102B3C0048025A616162626363000044026222B817
:022B4C0022B8AD
:10493D0090025AE0FEA3E0FDEDFF900262EEF0A3BF
:10494D00EFF090025CE0FEA3E0FDEDFF900264EE5F
:10495D00F0A3EFF0D3900263E09488900262E094AC
:10496D001340077422F0A374B8F0D3900265E0945D
:10497D0088900264E0941340077422F0A374B8F099
:01498D002207
:1049DC0090025EE0FEA3E0FDEDFBAA06E4FEFDFC0A
:1049EC00C39DF582EE9CF5837D64AF03AE02121974
:1049FC0041AD82AC831219537BFF7A50791F124F51
:104A0C00D890025EE0FF124C7D90025FE0FF124CEA
:0A4A1C007D7BFF7A50792B024FD802
:1042ED003000310032003300340035003600370025
:1042FD00380039003A0020002A0021002E00484FD6
:10430D004D45000A0D00430025000000000000008F
:10431D000000000000000000000000000000000090
:10432D000000000000000000000000000000000080
:10433D000000000000000000000000000000000070
:10434D000000000000000000000000000000000060
:10435D000000000000000000000000000000000050
:10436D000000000000000000000000000000000040
:10437D000000000000000000000000000000000030
:10438D0000000000000000000000000000F0FFF041
:0B439D00001CFFFFFF1C00FFFFFF00E3
:102B4E00C10141027F0044027B0001E240C100410D
:0B2B5E000278004102790041027A0079
:05476D00900180EFF057
:1047720078817C017D017BFF7A4379177E007F82FD
:104782001218A1900180E0602FB20030001B90024D
:104792000E7405F0A374FFF0A37443F0A37499F0B0
:1047A2007B187D377F110239919002147405F07BDA
:1047B200187D377F11021F04300011900214740516
:0C47C200F07B187D377F11121F04C2002D
:0147CE0022C8
:10385100900211EFF07BFF7A4279ED70069002172A
:10386100048004E4900217F07D037F041248309035
:103871000211E07BFF7A4279EFB4010790021774DD
:10388100018004E4900217F07D057F041248309016
:103891000211E07BFF7A4279F1B4020790021774BA
:1038A100018004E4900217F07D077F0412483090F4
:1038B1000211E07BFF7A4279F3B403079002177497
:1038C100018004E4900217F07D097F0412483090D2
:1038D1000211E07BFF7A4279F5B404079002177474
:1038E100018004E4900217F07D0B7F0412483090B0
:1038F1000211E07BFF7A4279F7B405079002177451
:10390100018004E4900217F07D0D7F04124830908D
:103911000211E07BFF7A4279F9B40607900217742D
:10392100018004E4900217F07D0F7F04124830906B
:103931000211E07BFF7A4279FBB40707900217740A
:10394100018004E4900217F07D117F041248309049
:103951000211E07BFF7A4279FDB4080790021774E7
:10396100018004E4900217F07D137F041248309027
:103971000211E07BFF7A4279FFB4090790021774C4
:10398100018004E4900217F07D157F041248302273
:10224A00E490020AF0A37406F0A314F0A3121A533E
:10225A000000000090027FE0700890029C74210246
:10226A0024D6124E037BFF7A0579DAE4900216F03F
:10227A007D047F01123ACF7BFF7A0579FAE4900256
:10228A0016F07D057F01123ACF7BFF7A06791AE4B0
:10229A00900216F07D067F01123ACF7BFF7A06790B
:1022AA003AE4900216F07D077F01123ACF7BFF7A5B
:1022BA0006795AE4900216F07D087F01123ACF7B24
:1022CA00FF7A437901E4900217F07D117F011248E9
:1022DA003090020AE0FF123851124A26900209EFA2
:1022EA00F060F6E0FEB4010890029C74100224D655
:1022FA00EE6403704F90020BE0FF04F0D3EF6480AA
:10230A0094865038E025E0FFC374139FFD7BFF7A63
:10231A00437903E4900217F07F0212483090020DCD
:10232A00E0FCA3E0FDA3E0FEA3E0FFE47B0AFAF9E8
:10233A00F8124B8290020D121A47802090020B74F9
:10234A0006F08018900209E0FFB40506A3E014F035
:10235A00800AEFB4060690020AE004F090020AE04E
:10236A00FFD3648094894004E4F0800EC3EF648054
:10237A009480500690020A7409F090020AE0FF1253
:10238A003851900209E0640260030222E390020BD2
:10239A00E0FF14F0D3EF64809480406790020DE070
:1023AA00FCA3E0FDA3E0FEA3E0FFE47B0AFAF9F850
:1023BA001219D490020D121A4790020DE0F8A3E008
:1023CA00F9A3E0FAA3E0FB90020AE0FF3395E0FEEE
:1023DA00FDFCEB2FFFEA3EFEE93DFDE83CFC9002E6
:1023EA000D121A4790020BE025E0FFC374119FFDFE
:1023FA007BFF7A437905E4900217F07F0212483096
:10240A000222E390027BE0FCA3E0FDA3E0FEA3E04E
:10241A00FF90020DE0F8A3E0F9A3E0FAA3E0FBC302
:10242A00121A31700C90029C7421F0A3E4F07F011F
:10243A002290021474C0F07B107D017F11121F04D8
:10244A007BFF7A06793AE4900216F07D057F021244
:10245A003ACF7BFF7A06795AE4900216F07D067F1E
:10246A0002123ACF7BFF7A06797AE4900216F07D5F
:10247A00077F02123ACF7BFF7A06799AE490021616
:10248A00F07D087F02123ACF7BFF7A437907E49006
:10249A000217F07D117F0212483012505590021433
:1024AA0074C0F07B107D017F11121F0490020B741F
:1024BA0006F090020D121A530000000090020CE080
:1024CA0014F060030222E390029C7410F0A3E4F07B
:0124DA00FF02
:0124DB0022DE
:080ECE0090020AE0FFA3E0FD21
:100ED60090020CEFF0ED6003124E0390020CE0FF5F
:100EE600C36480948540030213CAEF64017BFF7AD2
:100EF6004279EF706390021704F0FDFF1248307BD1
:100F0600FF7A4379099002177401F07D02FF1248B7
:100F1600307BFF7A04797A9002167401F07D02FF25
:100F2600123ACF7BFF7A04799A9002167401F07D0B
:100F360003FF123ACF7BFF7A03799A900216740167
:100F4600F07D04FF123ACF7BFF7A0379BA9002163E
:100F56007401F07D05FF8063E4900217F07D017F48
:100F6600011248307BFF7A437909E4900217F07D3D
:100F7600027F011248307BFF7A04797AE4900216E8
:100F8600F07D027F01123ACF7BFF7A04799AE490D2
:100F96000216F07D037F01123ACF7BFF7A03799A1E
:100FA600E4900216F07D047F01123ACF7BFF7A03AC
:100FB60079BAE4900216F07D057F01123ACF9002CD
:100FC6000CE064027BFF7A4279F16003021086909E
:100FD600021704F0FD7F021248307BFF7A4379093D
:100FE6009002177401F07D027F021248307BFF7A6F
:100FF6000179DA9002167401F07D027F02123ACF6F
:101006007BFF7A0179FA9002167401F07D037F0264
:10101600123ACF7BFF7A0679BA9002167401F07DF8
:10102600047F02123ACF7BFF7A0079BA90021674D7
:1010360001F07D057F02123ACF7BFF7A0079BA90E4
:1010460002167401F07D067F02123ACF7BFF7A000A
:1010560079DA9002167401F07D077F02123ACF7B8F
:10106600FF7A03799A9002167401F07D087F0212C6
:101076003ACF7BFF7A0379BA900216740102112CDB
:10108600E4900217F07D017F021248307BFF7A431D
:101096007909E4900217F07D027F021248307BFF47
:1010A6007A0179DAE4900216F07D027F02123ACFD5
:1010B6007BFF7A0179FAE4900216F07D037F021233
:1010C6003ACF7BFF7A0679BAE4900216F07D047F68
:1010D60002123ACF7BFF7A0079BAE4900216F07DCD
:1010E600057F02123ACF7BFF7A0079BAE4900216A6
:1010F600F07D067F02123ACF7BFF7A0079DAE49020
:101106000216F07D077F02123ACF7BFF7A03799AA7
:10111600E4900216F07D087F02123ACF7BFF7A0335
:1011260079BAE4900216F07D097F02123ACF900256
:101136000CE064037BFF7A4279F360030211F690B8
:10114600021704F0FD7F031248307BFF7A437909CA
:101156009002177401F07D027F031248307BFF7AFC
:101166000179DA9002167401F07D027F03123ACFFC
:101176007BFF7A0179FA9002167401F07D037F03F2
:10118600123ACF7BFF7A07793A9002167401F07D06
:10119600047F03123ACF7BFF7A0079BA9002167465
:1011A60001F07D057F03123ACF7BFF7A0079BA9072
:1011B60002167401F07D067F03123ACF7BFF7A0098
:1011C60079DA9002167401F07D077F03123ACF7B1D
:1011D600FF7A03799A9002167401F07D087F031254
:1011E6003ACF7BFF7A0379BA900216740102129CF9
:1011F600E4900217F07D017F031248307BFF7A43AB
:101206007909E4900217F07D027F031248307BFFD4
:101216007A0179DAE4900216F07D027F03123ACF62
:101226007BFF7A0179FAE4900216F07D037F0312C0
:101236003ACF7BFF7A07793AE4900216F07D047F75
:1012460003123ACF7BFF7A0079BAE4900216F07D5A
:10125600057F03123ACF7BFF7A0079BAE490021633
:10126600F07D067F03123ACF7BFF7A0079DAE490AD
:101276000216F07D077F03123ACF7BFF7A03799A35
:10128600E4900216F07D087F03123ACF7BFF7A03C3
:1012960079BAE4900216F07D097F03123ACF9002E4
:1012A6000CE064047BFF7A4279F5600302134090F8
:1012B600021704F0FD7F041248307BFF7A43790958
:1012C6009002177401F07D027F041248307BFF7A8A
:1012D6000179BA9002167401F07D027F04123ACFAA
:1012E6007BFF7A0479FA9002167401F07D037F047D
:1012F600123ACF7BFF7A0079FA9002167401F07DDC
:10130600047F04123ACF7BFF7A01791A9002167491
:1013160001F07D057F04123ACF7BFF7A03799A901C
:1013260002167401F07D067F04123ACF7BFF7A0322
:1013360079BA90021674010213C2E4900217F07D86
:10134600017F041248307BFF7A437909E490021743
:10135600F07D027F041248307BFF7A0179BAE4906F
:101366000216F07D027F04123ACF7BFF7A0479FAE7
:10137600E4900216F07D037F04123ACF7BFF7A00D9
:1013860079FAE4900216F07D047F04123ACF7BFFCF
:101396007A01791AE4900216F07D057F04123ACF9D
:1013A6007BFF7A03799AE4900216F07D067F041299
:1013B6003ACF7BFF7A0379BAE4900216F07D077F75
:1013C6000402157690020CE064057BFF7A4279F7F9
:1013D600706390021704F0FDFF1248307BFF7A43DA
:1013E60079099002177401F07D02FF1248307BFFE5
:1013F6007A06793A9002167401F07D02FF123ACF0E
:101406007BFF7A06795A9002167401F07D03FF126B
:101416003ACF7BFF7A03799A9002167401F07D0425
:10142600FF123ACF7BFF7A0379BA9002167401F065
:101436007D05FF8063E4900217F07D017F0112486D
:10144600307BFF7A437909E4900217F07D027F0131
:101456001248307BFF7A06793AE4900216F07D0254
:101466007F01123ACF7BFF7A06795AE4900216F092
:101476007D037F01123ACF7BFF7A03799AE49002CB
:1014860016F07D047F01123ACF7BFF7A0379BAE426
:10149600900216F07D057F01123ACF90020CE064AF
:1014A600067BFF7A4279F9706490021704F0FD7F9B
:1014B600021248307BFF7A4379099002177401F0D3
:1014C6007D027F021248307BFF7A07795A90021616
:1014D6007401F07D027F02123ACF7BFF7A07797A98
:1014E6009002167401F07D037F02123ACF7BFF7AD9
:1014F60003799A9002167401F07D047F02123ACFA6
:101506007BFF7A0379BA9002167401805EE490023A
:1015160017F07D017F021248307BFF7A437909E498
:10152600900217F07D027F021248307BFF7A07791E
:101536005AE4900216F07D027F02123ACF7BFF7AC0
:1015460007797AE4900216F07D037F02123ACF7B88
:10155600FF7A03799AE4900216F07D047F02123A2C
:10156600CF7BFF7A0379BAE4900216F07D057F02FD
:04157600123ACF2234
:1044560090020A7401F0E4A3F0124E03120ECE127B
:104466004A26900209EFF060F6E0FF64016004EF6F
:10447600B4050A90029C7410F0A3E4F022EFB40392
:104486002090020AE014F0E0FFC364809481500695
:104496007406F0A3802DEFB4040590020B802480EF
:1044A60027900209E0B40425A3E004F0E0FFD364FA
:1044B60080948640077401F0A3F08011EFB40508DC
:1044C60090020B7401F08005E490020BF0120ECE00
:1044D600900209E0FF64026005EF640670819002B5
:1044E6000AE0FF3395E0FEEFC4F8540FC868FFEE0C
:0D44F600C454F048442190029CF0A3EFF064
:014503002295
:1034300090020BEFF07BFF7A04797AE4900216F0A9
:103440007D047F01123ACF7BFF7A04799AE49002DF
:1034500016F07D057F01123ACF7BFF7A03799AE45B
:10346000900216F07D067F01123ACF7BFF7A037936
:10347000BAE4900216F07D077F01123ACF90020B5A
:10348000E064017BFF7A4279EF703E90021704F00E
:10349000FD7F021248307BFF7A437909900217744E
:1034A00001F07D027F021248307BFF7A0179DA90C9
:1034B00002167401F07D027F02123ACF7BFF7A017F
:1034C00079FA9002167401803AE4900217F07D01B7
:1034D0007F021248307BFF7A437909E4900217F0AB
:1034E0007D027F021248307BFF7A0179DAE4900294
:1034F00016F07D027F02123ACF7BFF7A0179FAE45F
:10350000900216F07D037F02123ACF90020BE06426
:10351000027BFF7A4279F1703E90021704F0FD7F42
:10352000031248307BFF7A4379099002177401F047
:103530007D027F031248307BFF7A0479BA9002162D
:103540007401F07D027F03123ACF7BFF7A0179FA92
:103550009002167401803AE4900217F07D017F0317
:103560001248307BFF7A437909E4900217F07D021C
:103570007F031248307BFF7A0479BAE4900216F098
:103580007D027F03123ACF7BFF7A0179FAE4900241
:0A35900016F07D037F03123ACF22EC
:1047050090020A7401F0124E0390020AE0FF12347F
:1047150030124A26900209EFF060F6E0FFB401027C
:10472500803CEFB4031390020AE014F0E0C3648008
:104735009481501B7402F08016900209E0B4040FB6
:10474500A3E004F0E0D36480948240037401F09008
:10475500020AE0FF123430900209E0B402B390027D
:074765009C7410F0A3E4F0C6
:01476C00222A
:0150C90022C4
:104F5300900264E0FEA3E0FFE4FCFD90020D121A50
:084F6300477D167F0102359A1B
:104F6B00900262E0FEA3E0FFE4FCFD90020D121A3A
:084F7B00477D0E7F0402359A08
:103C0200EF24FE6063147003023CC02402600302CE
:103C12003D1C7BFF7A03791AE4900216F07D027F45
:103C220004123ACF7BFF7A03793AE4900216F07DD0
:103C3200037F04123ACF7BFF7A03799AE49002164B
:103C4200F07D067F04123ACF7BFF7A0379BAE490C3
:103C52000216F07D077F04123ACF7BFF7A43790B7D
:103C62009002177401023D147BFF7A03791AE490E3
:103C72000216F07D027F04123ACF7BFF7A03793A73
:103C8200E4900216F07D037F04123ACF7BFF7A03A1
:103C9200799A9002167401F07D067F04123ACF7B66
:103CA200FF7A0379BA9002167401F07D077F04123D
:103CB2003ACF7BFF7A43790BE490021780547BFF63
:103CC2007A03791A9002167401F07D027F04123A87
:103CD200CF7BFF7A03793A9002167401F07D037F5D
:103CE20004123ACF7BFF7A03799AE4900216F07DB0
:103CF200067F04123ACF7BFF7A0379BAE490021668
:103D0200F07D077F04123ACF7BFF7A43790BE49070
:0B3D12000217F07D137F0412483022DE
:053D1D00900209EFF027
:103D2200A37401F0EFF4600330010DE4900209F096
:103D3200124E03122F548050900209E0FF124C7D64
:103D42007BFF7A437910124FD8900209E0FFB40545
:103D520006A3E004F0800AEFB4060690020AE0141B
:103D6200F090020AE0FFD36480948340057401F06E
:103D7200800EC3EF64809481500690020A7403F0AF
:103D820090020AE0FF123C0290020C121A53000049
:103D9200000A7F01124890124A26900209EFF06051
:103DA2006B90020C121A530000000A7F0112489015
:103DB200900209E0FDB4020FA3E0FFEFC454F090BB
:103DC200029CF0A3E4F022EDB401028047900209C4
:103DD200E0FFB40506A3E004F0800AEFB406069003
:103DE200020AE014F090020AE0FFD3648094834058
:103DF200057401F0800EC3EF648094815006900236
:103E02000A7403F090020AE0FF123C027F01124C96
:0B3E1200E3EF6083E490029CF0A3F05B
:013E1D002282
:102F5400C20190020E743EF0A374FFF0A37407F054
:102F6400A374AAF07B2D7D017F011239917BFF7A36
:102F740000793AE4900216F07D057F01123ACF7B86
:102F8400FF7A00795AE4900216F07D067F01123A26
:102F9400CF7BFF7A0079BAE4900216F07D077F01B7
:102FA400123ACF7BFF7A00797AE4900216F07D081A
:102FB4007F01123ACF7BFF7A437901E4900217F044
:102FC4007D117F01124830124F537BFF7A07799AA3
:102FD400E490022DF07D177F0112371D7BFF7A43A9
:102FE4007913E4900217F07D187F011248307BFFBB
:102FF4007A02799AE4900216F07D057F02123ACFA4
:103004007BFF7A0279BAE4900216F07D067F021201
:103014003ACF7BFF7A437901E4900217F07D0D7F6C
:10302400021248307BFF7A0279DAE4900216F07DCE
:103034000A7F02123ACF7BFF7A0279FAE4900216F1
:10304400F07D0B7F02123ACF7BFF7A04797AE49009
:103054000216F07D057F03123ACF7BFF7A04799A3A
:10306400E4900216F07D067F03123ACF7BFF7A4389
:103074007901E4900217F07D0D7F031248307BFF45
:103084007A0179DAE4900216F07D0A7F03123ACFCE
:103094007BFF7A0179FAE4900216F07D0B7F03122C
:1030A4003ACF7BFF7A03791AE4900216F07D027F0F
:1030B40004123ACF7BFF7A03793AE4900216F07D4A
:1030C400037F04123ACF7BFF7A03799AE4900216C5
:1030D400F07D067F04123ACF7BFF7A0379BAE4903D
:1030E4000216F07D077F04123ACF7BFF7A43790BF7
:1030F4009002177401F07D137F041248307D017F24
:04310400370224DC8E
:10273000D2017BFF7A0079BAE4900216F07D037F24
:1027400001123ACF7BFF7A0079DAE4900216F07D2D
:10275000047F01123ACF7BFF7A0179DAE490021606
:10276000F07D057F01123ACF7BFF7A0179FAE49080
:102770000216F07D067F01123ACF7BFF7A02791AAA
:10278000E4900216F07D077F01123ACF7BFF7A02B8
:10279000793AE4900216F07D087F01123ACF7BFF70
:1027A0007A02795AE4900216F07D097F01123ACF3D
:1027B0007BFF7A02797AE4900216F07D0A7F01129B
:1027C0003ACF900275E0FEA3E0FFE4FCFD90021218
:1027D000121A477B047D0A7F021231087BFF7A01BF
:1027E000797AE4900216F07D067F02123ACF9002C9
:1027F00074E0FFE4FCFDFE900212121A477B027D9A
:102800000E7F021231087BFF7A01799AE49002165A
:10281000F07D087F02123ACF900272E0FFE4FCFDE7
:10282000FE900212121A477B027D127F02123108BB
:102830007BFF7A0179BAE4900216F07D0A7F0212DA
:102840003ACF900271E0FFE4FCFDFE900212121AF2
:10285000477B027D067F031231087BFF7A437901B3
:10286000E4900217F07D077F03124830900270E079
:10287000FFE4FCFDFE900212121A477B027D097FE5
:10288000031231087BFF7A437901E4900217F07D4F
:102890000A7F0312483090026FE0FFE4FCFDFE90D7
:1028A0000212121A477B027D0C7F031231087BFF54
:1028B0007A0479DAE4900216F07D087F03123ACFA9
:1028C0007BFF7A0479FAE4900216F07D097F031207
:1028D0003ACF900273E014B4070050659028EA756F
:1028E000F003A4C58325F0C583730228FF022907DE
:1028F00002290F02291702291F02292702292F7BEB
:10290000FF7A05791A802E7BFF7A05793A80267B3B
:10291000FF7A05795A801E7BFF7A05797A80167BCB
:10292000FF7A05799A800E7BFF7A0579BA80067B5B
:10293000FF7A04795AE4900216F07D0A7F03123A76
:10294000CF124F6B7BFF7A07799AE490022DF07DCE
:102950000F7F0412371D7BFF7A437913E49002172F
:08296000F07D107F04024830F5
:0A24DC0090020CEDF090020BEFF0FF
:1024E600E490020DF0AC07EC12171C7BF67A287903
:1024F6001C7840121675E4FBFA7980783F12158134
:1025060012175090020CE06005E4900279F09002F8
:1025160079E0FEC3EF9E900278F0C3648094805009
:102526000D90020D7401F0900278E0F404F0E4904E
:10253600020EF0900278E0FF3395E0FE90020EE086
:10254600C39FEE6480F874809840030226D59002FB
:102556000DE0FF9002796005E014F08003E004F0DE
:10256600900279E024FE604A14606B147003022620
:102576000024DE700302262414700302264714701A
:102586000302266914700302268B242860030226A0
:1025960099EF600F900214742BF07B017D057F2A62
:1025A6000226B39002127429F07B017D067F2B026E
:1025B60026C990020DE0600F900214742DF07B0185
:1025C6007D047F290226B3900212742BF07B017DD5
:1025D600057F2A0226C990020DE0600F900214744E
:1025E6002DF07B017D047F280226B3900212742D04
:1025F600F07B017D047F290226C990020DE0600F61
:10260600900214742FF07B017D037F270226B3907E
:102616000212742DF07B017D047F280226C99002E8
:102626000DE0600E900214742DF07B017D047F0591
:10263600807B900212742DF07B017D047F060226BA
:10264600C990020DE0600E900214742BF07B017DA0
:10265600057F048058900212742DF07B017D047F63
:1026660005806090020DE0600E9002147429F07BE4
:10267600017D067F038036900212742BF07B017D6C
:10268600057F04803E9002127429F07B017D067F4F
:1026960003803090020DE09002796016E0FFC3746B
:1026A6002B9FFF900214742FF07B017D03121F04F1
:1026B6008014E0FFC3742C9FFF900212742FF07BEE
:1026C600017D03121B7F90020EE004F00225399073
:1026D600020BE0FF3395E0FEFDFC900212121A4752
:1026E600E4FB7D047F021231087BFF7A437915E40F
:1026F600900217F07D057F0212483090020BE0FF32
:10270600B4631E90027AE0FEC3EF9EC36480948099
:10271600500F9002127408F07B107D097F11121B76
:092726007F90020BE090027AF0B2
:01272F002287
:052B690042029C000087
:104F830076616C696420646174612072656365692C
:074F93007665642E0D0A0093
:0D2B6E0041029100C10244028D61626300CA
:0550BE00D288D2A822F7
:0650B800758F10D2A92241
:10329C00E4900208F0125055438E40124FC4124372
:1032AC00A81250BE1250B8D20312500E12000612C1
:1032BC0050C3124D7012505512509312422F124E91
:1032CC00B6C289C28BC299D2AF90020C121A5300AB
:1032DC000000057F02124890122F5490029CE0705F
:1032EC0002A3E07017124A26900207EFF06013C297
:1032FC00CB90029C7410F0A3E4F08006900207744B
:10330C00FFF090029CE0FEA3E08EF0121A84332AA8
:10331C00100033432000334830000000334B900240
:10332C0007E0FF123D1D90020C121A530000000A18
:10333C007F02124890800812224A80031250C990D2
:10334C00029CE0FEA3E07008EE24DF7003124456EA
:10335C0090029CE0FEA3E08EF0121A8433702110D0
:10336C0000003373124705900291E054F1F0309352
:10337C0004E0F0802830940C200209900291E04483
:10338C0002F0801930940C300209900291E044064E
:10339C00F0800A209407900291E04404F09002918E
:1033AC00E0540E7F02124CE3EF70030232E79002FE
:1033BC009CE07002A3E060030232E7D2CB300146FE
:1033CC009002357410F0E4A3F09002337455F0A31E
:1033DC0074AAF07B017A0279337F0C1247CF9002EA
:1033EC003FE06017E4F0123E1EBF020F7BFF7A4FE6
:1033FC007983124FD81249DC12493D124E031250F8
:10340C003B122F54800C1240AD124E0312503B1243
:10341C00273090020C121A530000000A7F02124847
:04342C00900232E7F1
:10461D0090029EEEF0A3EFF07C277D10121953123D
:10462D0050AB90029EE0FEA3E0FF7C037DE81219E3
:10463D00537C007D0A121953AF051250AB90029EA8
:10464D00E0FEA3E0FF7C007D641219537C007D0A1F
:10465D00121953AF051250AB7F2E12509C90029E33
:10466D00E0FEA3E0FF7C007D0A1219537C007D0A59
:10467D00121953AF051250AB90029EE0FEA3E0FF5E
:0C468D007C007D0A121953AF050250ABEF
:03000300024C07A5
:104C0700C0E0C0F0C083C082C0D075D000C000C073
:104C170001C002C003C004C005C006C00712450496
:104C2700D007D006D005D004D003D002D001D000E1
:0B4C3700D0D0D082D083D0F0D0E0328B
:03000B00024C4262
:104C4200C0E0C0F0C083C082C0D075D000C000C038
:104C520001C002C003C004C005C006C007124B3E1B
:104C6200D007D006D005D004D003D002D001D000A6
:0B4C7200D0D0D082D083D0F0D0E03250
:10157A000217BCE86480F8E933E83360110460F0CC
:10158A00ED33EC337009E8FCE9FDEAFEEBFF2204D7
:10159A0060DED3EB9FEA9EE99DE8C2E78CF0C2F7D2
:1015AA0095F0400CE8CCF8E9CDF9EACEFAEBCFFB9E
:1015BA0012178785D0F05804700320D5B3E8047059
:1015CA00075002B2D50217C692D5EC0460F7E4CCF4
:1015DA00C0E0C398F8603B94186008400DD0E0FB67
:1015EA0002179EE4FBFAC9FC8028E830E406E4C945
:1015FA00FBE4CAFCE830E305E4C9CACBFCE85407BB
:10160A006010F8C3E913F9EA13FAEB13FBEC13FCC5
:10161A00D8F130F52FC3E49CFCEF9BFFEE9AFEED68
:10162A0099FDD0E0FBEF4E4D4C701222DB030217FE
:10163A00C3EC2CFCEF33FFEE33FEED33FDED30E768
:10164A00EB02179EEF2BFFEE3AFEED39FDD0E0FBE1
:10165A0050130BBB00030217C6ED13FDEE13FEEF8A
:08166A0013FFEC13FC02179EB4
:101672000217C6EC5D046005E8590470030217BC4A
:10168200121787580460F6EC4860F2EC7004FDFE15
:10169200FF22C860DB2481C85009C398600250064B
:1016A2000217C39850CAF582E9294B4A7005AB82EA
:1016B2000217B275F0007C1A7880C3EF9BEE9AEDA8
:1016C20099400DC3EF9BFFEE9AFEED99FDE842F0C3
:1016D200DC23ACF0D0E0FFD0E0FED0E0FDAB822016
:1016E200E7101BEB60BAEC2CFCEF33FFEE33FEEDA0
:1016F20033FD02179EE803F830E705C0F075F000ED
:10170200EF2FFFEE33FEED33FD40B830E7C280AA83
:1017120075F020800E75F010800575F0087D007E52
:10172200007F003392D530D503121A23EC334010D8
:10173200EF33FFEE33FEED33FDEC33FCD5F0ED225B
:0E174200E5F0247EA2D513CC92E7CDCEFF2297
:10175000EDD2E7CD33EC3392D524814006E4FFFE91
:10176000FDFC22FCE4CFCECDCC24E0501174FF80F0
:10177000EDC3CC13CCCD13CDCE13CECF13CF04708D
:07178000F030D5DE021A2350
:10178700E9D2E7C933E833F892D5EDD2E7CD33ECA8
:0717970033FC5002B2D52221
:10179E00EC30E7100FBF000C0EBE00080DBD0004AC
:1017AE000BEB6014A2D5EB13FCED92E7FD2274FF58
:1017BE00FCFDFEFF22E480F8A2D574FF13FC7D80B1
:0317CE00E480EFC5
:0300000002459125
:0C459100787FE4F6D8FD7581200245D843
:1017D100E709F608DFFA8046E709F208DFFA803EFA
:1017E10088828C83E709F0A3DFFA8032E309F608E7
:1017F100DFFA8078E309F208DFFA807088828C834F
:10180100E309F0A3DFFA806489828A83E0A3F60802
:10181100DFFA805889828A83E0A3F208DFFA804CDC
:1018210080D280FA80C680D4806980F280338010B3
:1018310080A680EA809A80A880DA80E280CA80331C
:1018410089828A83ECFAE493A3C8C582C8CCC58394
:10185100CCF0A3C8C582C8CCC583CCDFE9DEE78064
:101861000D89828A83E493A3F608DFF9ECFAA9F0E3
:10187100EDFB2289828A83ECFAE0A3C8C582C8CC39
:10188100C583CCF0A3C8C582C8CCC583CCDFEADE52
:10189100E880DB89828A83E493A3F208DFF980CCB4
:1018A10088F0EF60010E4E60C388F0ED2402B404AD
:1018B1000050B9F582EB2402B4040050AF23234554
:0618C10082239018217340
:1018C700BB010689828A83E0225002E722BBFE021F
:0918D700E32289828A83E4932252
:1018E000BB010CE58229F582E5833AF583E02250BD
:1018F00006E92582F8E622BBFE06E92582F8E22207
:0D190000E58229F582E5833AF583E4932220
:10190D00BB010689828A83F0225002F722BBFE01B9
:02191D00F322B3
:10191F00F8BB010DE58229F582E5833AF583E8F0FE
:10192F00225006E92582C8F622BBFE05E92582C8AA
:02193F00F22292
:10194100EF8DF0A4A8F0CF8CF0A428CE8DF0A42EBA
:02195100FE2274
:10195300BC000BBE0029EF8DF084FFADF022E4CC78
:10196300F875F008EF2FFFEE33FEEC33FCEE9DEC41
:10197300984005FCEE9DFE0FD5F0E9E4CEFD22ED87
:10198300F8F5F0EE8420D21CFEADF075F008EF2FD1
:10199300FFED33FD4007985006D5F0F222C398FDC2
:0519A3000FD5F0EA225F
:1019A800C5F0F8A3E028F0C5F0F8E58215827002CA
:0619B8001583E038F02267
:1019BE00A3F8E0C5F025F0F0E582158270021583DC
:0619CE00E0C838F0E82239
:1019D400E88FF0A4CC8BF0A42CFCE98EF0A42CFCB2
:1019E4008AF0EDA42CFCEA8EF0A4CDA8F08BF0A430
:1019F4002DCC3825F0FDE98FF0A42CCD35F0FCEB8F
:101A04008EF0A4FEA9F0EB8FF0A4CFC5F02ECD3953
:0F1A1400FEE43CFCEAA42DCE35F0FDE43CFC22C0
:104B8200C2D5E830E70FB2D5E4C39BFBE49AFAE45E
:104B920099F9E498F8EC30E717B2D5124BB8121A2B
:104BA200EDE4C39BFBE49AFAE499F9E498F88003F4
:104BB200121AED30D50DE4C39FFFE49EFEE49DFD85
:044BC200E49CFC2251
:0E1A2300C3E49FFFE49EFEE49DFDE49CFC22D4
:101A3100EB9FF5F0EA9E42F0E99D42F0EC6480C82C
:061A410064809845F022CC
:0C1A4700ECF0A3EDF0A3EEF0A3EFF02212
:101A5300A8828583F0D083D082121A6A121A6A127E
:101A63001A6A121A6AE473E493A3C583C5F0C583A3
:101A7300C8C582C8F0A3C583C5F0C583C8C582C8DD
:011A83002240
:101A8400D083D082F8E4937012740193700DA3A3F1
:101A940093F8740193F5828883E473740293B5F028
:0D1AA400067403936860E9A3A3A3A380D890
:10459D0002329CE493A3F8E493A34003F68001F266
:1045AD0008DFF48029E493A3F85407240CC8C3331F
:1045BD00C4540F4420C8834004F456800146F6DFEE
:1045CD00E4800B0102040810204080902968E47EED
:1045DD00019360BCA3FF543F30E509541FFEE493E3
:1045ED00A360010ECF54C025E060A840B8E493A3AA
:1045FD00FAE493A3F8E493A3C8C582C8CAC583CAD5
:10460D00F0A3C8C582C8CAC583CADFE9DEE780BE8C
:012B7B000059
:101AB10075F008758200EF2FFFEE33FECD33CDCCEC
:101AC10033CCC58233C5829BED9AEC99E58298406F
:101AD1000CF582EE9BFEED9AFDEC99FC0FD5F0D64C
:101AE100E4CEFBE4CDFAE4CCF9A88222B800C1B976
:101AF1000059BA002DEC8BF084CFCECDFCE5F0CBB4
:101B0100F97818EF2FFFEE33FEED33FDEC33FCEBEC
:101B110033FB10D703994004EB99FB0FD8E5E4F9A7
:101B2100FA227818EF2FFFEE33FEED33FDEC33FC94
:101B3100C933C910D7059BE99A4007EC9BFCE99A88
:101B4100F90FD8E0E4C9FAE4CCFB2275F010EF2FCD
:101B5100FFEE33FEED33FDCC33CCC833C810D707CD
:101B61009BEC9AE899400AED9BFDEC9AFCE899F808
:0E1B71000FD5F0DAE4CDFBE4CCFAE4C8F9229B
:00000001FF
