:10245000436865636B205349343433322E2E2E0D7E
:102460000A004445564943455F545950453A203087
:102470007825782E0D0A000D0A004445564943453B
:102480005F56455253494F4E3A20307825782E0DED
:102490000A004445564943455F5354415455533A05
:1024A0002061742069646C65206D6F64652E0D0A6F
:1024B000004445564943455F5354415455533A20CF
:1024C0006174205258206D6F64652E0D0A004445DA
:1024D000564943455F5354415455533A2061742043
:1024E0005458206D6F64652E0D0A00437279737421
:1024F000616C204F7363696C6C61746F72204C6FF8
:1025000061642043617061636974616E63653A2040
:1025100025780D0A0053493434333220494F20497D
:102520006E69742E2E2E2E2E2E0D0A00494F204934
:102530006E697420636F6D706C657465642E0D0A2E
:1025400000534934343332206973206E6F7420662F
:102550006F756E642E2E2E2E2E2E0D0A00534934CA
:10256000343332204750494F496E697420636F6D90
:10257000706C6574652C636F6E6669672064657640
:102580006963652E2E2E2E2E2E0D0A00436F6E6669
:1025900069672052462E2E2E2E2E2E0D0A005349EC
:1025A00034343332496E697420636F6D706C6574B6
:1025B000652E0D0A005349343433325F536574205D
:1025C00052784D6F64652E2E2E2E2E2E0D0A00533E
:1025D00049343433325F5365742054784D6F6465E9
:1025E0002E2E2E2E2E2E0D0A005349343433325FF8
:1025F0005365742049646C654D6F64652E2E2E2ED4
:102600002E2E0D0A005349343433325F53656E6405
:10261000204649464F20646174612E2E2E2E0D0AED
:10262000002072657620496E746572727570740D43
:102630000A002073656E6420496E7465727275704D
:10264000740D0A006D6F6465207265676973746547
:05265000723A0D0A00C2
:10444300D3EF9400EE64809480400F7D817C14DC74
:0A445300FEDDFAEF1F70E91E80E69F
:01445D00223C
:07465900C2C3D2B3D2B222AA
:0943890090029AEFF07D017F0E15
:1043920090020DEDF0C2B3EF4480FF1245D69002B9
:0943A2000DE0FF1245D6D2B32252
:07455800900299EFF07F04CF
:0C455F00C2B31245D67FFF1245D6D2B37E
:01456B00222D
:103834007BFF7A247950124580E4FF12455F9002A1
:1038440008EFF07BFF7A247962124580900208E049
:10385400FF1242257BFF7A24797712458090020873
:10386400E0640860037F01227F0112455F90020833
:10387400EFF07BFF7A24797A124580900208E0FF0A
:103884001242257BFF7A2479771245807F02124504
:103894005F900208EFF0540F70087BFF7A2479924E
:1038A4008022900208E0540FFFBF01087BFF7A24B6
:1038B40079B18010900208E0540FFFBF02097BFF2A
:1038C4007A2479CE1245807F0912455F900208EF71
:1038D400F07BFF7A2479EB124580900208E0FF1216
:0D38E40042257BFF7A2479771245807F0012
:0138F10022B4
:1035CC007D537F751243927D4B7F76124392E4FDBF
:1035DC007F771243927D097F6E1243927DD57F6F68
:1035EC001243927D2C7F701243927D807F58124340
:1035FC00927D1F7F6D1243927D207F721243927DCC
:10360C002C7F1C1243927D417F201243927D607F60
:10361C00211243927D277F221243927D527F2312E7
:10362C004392E4FD7F241243927D047F2512439242
:10363C007D407F1D1243927D0A7F1E1243927D0FA7
:10364C007F2A1243927D037F1F1243927D607F6914
:10365C001243927D0C7F341243927D2A7F351243A4
:10366C00927D027F331243927D2D7F361243927DE1
:10367C00D47F371243927D8D7F30124392E4FD7FCD
:10368C00321243927D637F711243927DB47F0902A3
:02369C00439257
:1038F2007BFF7A2579151245801246597BFF7A257E
:10390200792C1245807F147E008013123834EF60C8
:10391200127BFF7A2579411245807FF47E011244A1
:103922004380E87DCA7F0B1243927DCA7F0C12430B
:10393200927DCA7F0D1243927F0A7E001244437B1E
:10394200FF7A25795D1245807F0312455F12455843
:1039520090029AEFF07D807F071243927F147E00DF
:103962001244437F0312455F12455890029AEFF0CA
:103972007BFF7A25798C1245801235CC7DFF7F053D
:103982001243927DFF7F061243927F0312455F121C
:10399200455890029AEFF07D077F05124392E4FDAD
:0E39A2007F061243927BFF7A25799E024580B4
:10445E007F0312455F1245581243897D057F07126F
:0B446E0043927BFF7A2579B502458060
:104341007F0312455F12455890029AEFF07D027F7C
:104351000E1243927D097F071243927BFF7A2579E2
:04436100CF024580C2
:104479007F0312455F1245581243897D017F071258
:0B44890043927BFF7A2579E902458011
:103D7700900209EBF0A3EAF0A3E9F0900208EFF054
:013D8700FD3E
:103D88007F3E124392E490020CF0900208E0FF900C
:103D9800020CE0FEC3EF6480F8EE64809850259032
:103DA8000209E0FBA3E0FAA3E0F9EEFF3395E08F08
:103DB80082F583121154FD7F7F12439290020CE02A
:103DC80004F080C61243417BFF7A267905024580BC
:103B14007F0712455F900204EFF07F0312455F12A6
:103B2400455890029AEFF0900299E030E15B7BFFF8
:103B34007A2679211245807F4B12455F900205EF6A
:103B4400F0BF0C2EE4900204F0900205E0FF900216
:103B540004E0C39F501C7F7F12455F900204E02461
:103B640040F582E43402F583EFF0900204E004F0BF
:103B740080D77D027F08124392E4FD7F08124392AE
:103B840012445E90023E7401F0900299E030E20C1F
:0C3B94007BFF7A26793212458012445ED5
:013BA0002202
:104365007F0712455F90029DEFF07BFF7A26794427
:1043750012458090029DE0FF1242257BFF7A247949
:0443850077024580F6
:0C22410049026E00000001050107E000EA
:09464800E4FB7D0E7FD0024494D6
:10377000E4FD7FD01244C9AD07ED54F0C4540F7579
:10378000F00AA4FFED540F2F90026EF07D017FD060
:103790001244C9AD07ED54F0C4540F75F00AA4FFEC
:1037A000ED540F2F90026FF07D027FD01244C9AD0F
:1037B00007ED54F0C4540F75F00AA4FFED540F2F19
:1037C000900270F07D047FD01244C9AD07ED54F033
:1037D000C4540F75F00AA4FFED540F2F900271F03E
:1037E0007D037FD01244C9900272EFF07D057FD037
:1037F0001244C9AD07ED5410C4540F75F00AA4FF6C
:10380000ED540F2F900273F07D067FD01244C9ADA6
:1038100007ED54F0C4540F75F00AA424D0FFE5F06E
:103820003407FEED540F7C002FFFEC3E900274F045
:03383000A3EFF013
:013833002272
:10369E00900265E0FF75F00A84C454F0FEEF75F0F9
:1036AE000A84E5F02EFBE4FD7FD01244949002666E
:1036BE00E0FF75F00A84C454F0FEEF75F00A84E55D
:1036CE00F02EFB7D017FD0124494900267E0FF75CF
:1036DE00F00A84C454F0FEEF75F00A84E5F02EFB78
:1036EE007D027FD0124494900268E0FF75F00A8448
:1036FE00C454F0FEEF75F00A84E5F02EFB7D047FD6
:10370E00D0124494900269E0FB7D037FD012449462
:10371E0090026AE0FF75F00A84C454F0FEEF75F073
:10372E000A84E5F02EFB7D057FD012449490026C46
:10373E00E02430FF90026BE034F8FE7C007D0A122C
:10374E0011C7EFC4F8540FC868FFAB07E0FEA3E043
:10375E00FF7C007D0A1211C7EB2DFB7D067FD00288
:02376E00449481
:1000260000000000000000000000000000000000CA
:10003600000000000018188888286A4E0CE8E808B6
:1000460008181800000444446525341C0E0F1D349E
:100056006444040000F8F888F8F81090901010FE38
:10006600FE101000001F1F081F1F00000343407FE3
:100076007F0000000020644C0800FEFE929292FE73
:10008600FE00000000303C0F437E7E7E7E427E7E78
:100096007E7E4000000000F8F828F8FAAEACA8F81A
:1000A600F82828000040703F4F42662E3A123A2E3A
:1000B6006642400000202020A0E060FFFFE0C06014
:1000C600381800002030180E0741C0FF7F010306D4
:1000D6000C1810100080C0F0FE0E9090121E1CD05E
:1000E600D01000000000007F7F40414F4E607C5FD3
:1000F6004340400000F8F888F8F81090901010FE81
:10010600FE101000001F1F081F1F00000343407F42
:100116007F0000000000F0F20EECE4242424E4E466
:1001260004FCFC0000007F7F000F0F0909090F4F38
:10013600407F7F0000808282FEFE82828282FEFEF7
:1001460082828000004060381F07000000007F7F29
:100156000000000000001010121E1CF0F0181E1601
:10016600101000000041416131190F07070F1931C6
:1001760061414100002038DFC7444444FCFC44444C
:10018600444404000404040707040404FFFF0404B1
:1001960004040404000000FEFE222222222222225F
:1001A600FEFE000080C0703F0F020202020242C241
:1001B600FF7F0000000000FEFE828282828282FEB5
:1001C600FE000000000000FFFF404040404040FFAE
:1001D600FF000000000000F8F88C8E8B898888F8F4
:1001E600F8000000000000FFFF444444444444FF7C
:1001F600FF0000004044C4C44444445010FFFF10B4
:1002060010F0F000103C3F1314BCF8703E0F41C0D4
:10021600C07F3F00101010FFFFB0B8D868290F2E1E
:1002260068E8B8180242C3FF7F40404242427E7EE1
:100236004242424040505E4E48FFFF484848F8F868
:1002460000FFFF0000003E3E02FFFF323E1E0F4F42
:10025600C0FF7F00000022323AAEA6E26331198960
:1002660081010000004262331B4BC2FE7E020A1A65
:10027600336746002030BCEF733088C8E8B99F8EDC
:10028600A8E8C888226767321292C0703F0F003F05
:100296007F40717100083830FFFF202020FFFF20CB
:1002A600222E2C2004040603FFFFC0703E0F071EFB
:1002B6003860C08000048484C46474DF9F3464C4DE
:1002C60084840400417939003C7C40424E4C4070A5
:1002D600740D3931101C4C643414050706041434AB
:1002E60064541C0C004040414141417F7F414141E3
:1002F6004140400000F8F943424242FAFA42424283
:1003060042FEFE0000FFFF080C06033F3F03064CBB
:10031600C8FF7F000000FEFE42424242FAFA424215
:1003260042C2C20280E07F9FC060381E070140C003
:10033600C07F3F000000F8F8888888FFFF8888881B
:10034600F8F80000808081C54C78303F2F6040402F
:10035600C181808090D27634FFFF3476D2F0FF8F51
:1003660008F8F808829ADE776372DE8E80C0733FE3
:100376003F73C0801010FFFF9090FEFE9292F2F243
:10038600929E9E8042C2FF7F81E07F1FFCFC474712
:1003960044FCFC00404042CECC40E0BE9E82829EA1
:1003A600BEA020200000003FBF98C8436F3C386EB7
:1003B60047C18080001717D5D557577D7D5757D52C
:1003C600D51717004040407F7F5555555555557FE9
:1003D6007F404040404042CECC00FCFCA4A42622F4
:1003E600A3E362000040603F3F785F57584D4747A0
:1003F6004D5850400000FEFE02F2F21212F2F202D6
:10040600FEFE000000007F7F2027272424272720C8
:100416007F7F000020305C4F57545454545454D4BA
:10042600D404040000000000000000000000000FDB
:100436003F70F0F08080C06030182CE7C70C183091
:1004460060C080800000000202020282C2623A1E80
:100456000600000040404242424242FEFE42424204
:10046600424240408080C060301C0F03030F1C30A6
:1004760060C080801010D0FFFF94F4EFAFA4A4AF4B
:10048600EFE40400040703FFFF89CB6B3A1E1E3A14
:100496006BCB8880101090909090909010FFFF107A
:1004A60011171610002060603F3F101010030F1C3C
:1004B6003060F8F800002424242424FCFE222223A1
:1004C60023220000020202020242C2FF7F0202024F
:1004D60002020202000000BEBE2A2AEAEA2A2A3ED8
:1004E6003E0000000044464B4949497F7F4949493F
:1004F600494140000004FFFF2424FFFF04FEFE22C2
:1005060022FEFE0088C86F2F0919BFEF783F0F4201
:10051600C2FF7F0080808080808080808080808095
:1005260080808080000000000000000000000000C5
:100536000000000000000808080808080808080865
:1005460008080000101010101010101010101010D5
:100556001010101000048484848484848484848429
:1005660084840400202020202020202020202020F9
:100576002020202000FCFC0404FCFC0404FCFC04F9
:1005860004FCFC00007F7F2C27232020202123222F
:10059600227F7F000002424242C2FE7E424242C2A7
:1005A600C202020040404040787F47404040407FC2
:1005B6007F40404020202020202021232E2C202058
:1005C60020202020004060301C0F0300000103069D
:1005D6001C7860004042CECC00445454547F7F5473
:1005E6005454444000007F7F3010FFFF151555D549
:1005F600FF7F000088E87FDFC818D8DC56D3D39683
:100606009CD8D010091919FFFF05FFFF92FFFF5F65
:10061600DFFF7F00000000000001E3FEFCE00000B9
:100626000000000080C060301C0F030000030F3C78
:1006360070C08080109CCC44E4E495B7E6643494A2
:10064600C4D49C0C02027A7B4143437E7E424243E1
:10065600FBF800000484E4FC5CC4C402F2F282826B
:10066600FEFE808002037F7F103F3F08080808488F
:10067600C8C87F3F4070FFEF646C487F7F48487F63
:100686007F48484001017F7F3111FFFF49494949B1
:10069600FFFF00004042CECC00809E9E9292929236
:1006A6009E9E800000007F7FB494C464341F1F3474
:1006B60064C484840000183C243C18000000000038
:1006C60000000000E0380C060203010101010101EF
:1006D6000101010101010101010101010101010104
:1006E60001010101010101010101010101010101F4
:1006F600010302060C38E040404040404040404084
:10070600C000FF0000000000000000000000000024
:1007160000000000000000000000000000000000D3
:1007260000000000000000000000000000000000C3
:1007360000000000FF40C000000000000000FF00B5
:10074600FF000000000000000000000000000000A4
:100756000000000000000000000000000000000093
:100766000000000000000000000000000000000083
:100776000000FF00FF0000F0FFF00000FF00FF0098
:100786000000000000000000000000000000000063
:100796000000000000000000000000000000000053
:1007A6000000000000000000000000000000000043
:1007B600FF00FF001CFFFFFF1C00FF00FF80000082
:1007C6000000000000000000000000000000000023
:1007D6000000000000000000000000000000000013
:1007E6000000000000000000000000000080FF7014
:1007F6005F0000FFFFFF00005F700003060C081893
:1008060010101010101010101010101010101010E2
:1008160010101010101010101010101010101010D2
:100826001010101010101018080C161318080810C5
:100836001018081810101008000000000000000032
:100846000000000000000000000000F8F8000000B2
:10085600000030333300000000100C06100C0600B8
:1008660000000000000000004040F840F840000092
:10087600043E053F05040000007088FC08300000B7
:10088600001820FF211E0000F008F080700800000C
:1008960000211C031E211E0000F0887000000000CD
:1008A6001F2027281F211000000000000000000064
:1008B60080B0F07000000000000000F0FC0E0200A6
:1008C6000000000F3F70400000061EF8E000000028
:1008D6000060781F070000004040C0F0F0C04040B4
:1008E6000202030F0F030202000000F0F0000000F6
:1008F6000101011F1F0101010002020604000000A0
:1009060000000000000000000000000000000000E1
:1009160001010101010101000000000000000000CA
:10092600003030300000000000000000C0F83C0C31
:100936000060783F07010000E0F0180818F0E000BA
:100946000F1F3020301F0F00001010F8F8000000B5
:100956000020203F3F2020000070780808F8F000B3
:1009660000303C2E233130000030388888F8700083
:1009760000183820313F1E000080C060F8F80000E3
:10098600060705243F3F240400F8F88888880800F5
:1009960000193921313F1F00E0F098888898180027
:1009A6000F1F3120313F1F0000383808E8F81800C3
:1009B6000000003F3F00000070F8988898F870002B
:1009C6001E3F2121313F1E00F0F8080818F8E0000C
:1009D600313322323B1F07000000C0C0C0000000B8
:1009E6000000303030000000000000808000000071
:1009F600000080E060000000000080E07018080041
:100A06000001030E1C3020004040404040404000A2
:100A1600040404040404040000083870C0800000C4
:100A26000020381C060301007078080818F8F0004A
:100A36000000303737010000C0F0F8E8E8F8F0E0D1
:100A4600071F3F2727371F0B0000E0F8F8E00000DC
:100A5600203C3F23233F3C2008F8F88888F87000A4
:100A6600203F3F20313F1E00E0F0380808383800AC
:100A76000F1F30202030100008F8F80818F0E000AA
:100A8600203F3F20301F0F0008F8F888E8F81800CC
:100A9600203F3F202333300008F8F888E8E8181094
:100AA600203F3F2003030000C0F038080838380014
:100AB600071F3820223E1E0208F8F80808F8F80832
:100AC600203F3F21213F3F20000808F8F808080092
:100AD6000020203F3F202000000808F8F808080002
:100AE600C0C080FF7F00000008F8F8C8E838180882
:100AF600203F3F21273E382008F8F8080000000074
:100B0600203F3F202030300008F8F800F8F80800B1
:100B1600203F003F003F200008F8F8F8C8F8F80822
:100B2600203F3F231F3F3F00E0F0180818F0E00089
:100B36000F1F3020301F0F0008F8F80808F8F000E3
:100B4600203F3F2101010000E0F0180818F0E00006
:100B56000F1F3C247C7F4F0008F8F88888F8700047
:100B6600203F3F21073E38200070F88808181800FB
:100B760000303021233F1E00181808F8F80818180E
:100B86000000203F3F20000008F8F80808F8F808A1
:100B9600001F3F20203F1F000878F88888F8780853
:100BA60000000F3F3F0F000008F8FCFCF8F8F808BB
:100BB60000073F3F3F3F07000838F8E8E8F8180805
:100BC60020303C2F2F3E38200838F8C8C8F838089F
:100BD6000000203F3F200000101808C8F838080021
:100BE600303C2F2320301000000000FEFE020200E1
:100BF6000000007F7F404000001CFCE00000000079
:100C0600000000031F7C6000000202FEFE000000E0
:100C16000040407F7F00000000000406060400003C
:100C260000000000000000000000000000000000BE
:100C3600808080808080808010161E0E000000005C
:100C4600000000000000000000008080808080001E
:100C5600001D3D26223F3F2008F8F88080800000D6
:100C6600003F3F21203F1F000000808080808000E1
:100C7600001F3F31203111000000808088F8F80005
:100C8600001F3F21203F3F20000080808080000021
:100C9600001F3F22223313008080F0F88898180046
:100CA60000203F3F202000000000808080808000E0
:100CB600006BFF9497F3600008F8F880808080004E
:100CC600203F3F21203F3F20008080989800000071
:100CD6000020203F3F2020000000808098980000E0
:100CE60000C0C080FF7F000008F8F8808080800088
:100CF600203F3F263F392000000808F8F800000092
:100D06000020203F3F2020008080808080808080DF
:100D1600203F3F203F3F203F8080808080808000B2
:100D2600203F3F2100203F3F000080808080000060
:100D3600001F3F31213F1F0080808080808000009F
:100D460080FFFFA1303F1F00000080808080800070
:100D5600001F3F21A0FFFF80808080808080800070
:100D660020203F3F212101000000808080808000FC
:100D760000333724243D1900008080E0E0808000A5
:100D86000000001F3F2020008080800080808000BF
:100D9600003F3F20203F3F208080808080808080F1
:100DA60000031F3C3C1F03008080C0C08080808001
:100DB600000F3F3F3F3F0F00808080808080800093
:100DC60020313F2E3F3120008080808080808080CF
:100DD6008083CF7E3E0F010000808080808080006F
:080DE6000021393C27333000E5
:10224D0060C0000000000000000000000000000061
:10225D000000000000000000000000000000000071
:10226D000000000000000000000000000000000061
:10227D000000000000000000000000000000000051
:10228D000000000000000000000000000000000041
:10229D000000000000000000000000000000000031
:1022AD000000000000000000000000000000000021
:1022BD000000000000000000000000000000000011
:1022CD000000000000000000000000000000000001
:1022DD0000000000000000000000000000000000F1
:1022ED0000000000000000000000000000000000E1
:1022FD0000000000000000000000000000000000D1
:10230D000000000060C000C00000000000000000E0
:10231D0000000000000000000000000000000000B0
:10232D0000000000000000000000000000000000A0
:10233D000000000000000000000000000000000090
:10234D000000000000000000000000000000000080
:10235D000000000000000000000000000000000070
:10236D000000000000000000000000000000000060
:10237D000000000000000000000000000000000050
:10238D000000000000000000000000000000000040
:10239D000000000000000000000000000000000030
:1023AD000000000000000000000000000000000020
:1023BD000000000000000000000000000000000010
:0823CD00000000000000000008
:04440A007F057E00AC
:10440E00D3EF9400EE9400400F7D147C32DCFEDD81
:08441E00FAEF1F70EB1E80E8AD
:014426002273
:1045A500D3EF9400EE94004007EF1F70F31E80F0E8
:0145B50022E3
:0446780075BB60228C
:103F3600900217E0FF900216E04440FBE4FD123FBA
:0C3F46005290021AE044B8FBE4FD7F0733
:103F5200EF30E002C2C2EF30E102C291EF30E20282
:103F6200C292D2C6ED6004D2C58002C2C5C2C1AF40
:103F7200038F80C2C6D2C2D291D2927F017E00024A
:023F8200440EEB
:07401700900256E0FF7D015D
:10401E007580FFEFB40104C2C2800EEFB40204C279
:10402E00918006EFB40402C292ED6004D2C5800204
:10403E00C2C5D2C100D2C600AC80C2C6C2C1D2C2F5
:0D404E00D291D2927F017E001245A5AF04F1
:01405B002242
:02425900A907B3
:10425B00E4FBE930E009E4FD7F0112401EEFFBE9CE
:10426B0030E10AE4FD7F0212401EEB4FFBE930E226
:0F427B000AE4FD7F0412401EEB4FFBEB20E7D15E
:01428A002211
:10459300C2CA7F507E0012440ED2CA7FA07E0002A0
:0245A300440EC4
:1043AB007F07124259E4FAEA123F4BE4F9E4FB7D32
:1043BB00017F07123F5209E9B440F20AEAB408E759
:0143CB0022CF
:10431800C2CB12440A1245937B3E123F4E12440A06
:104328007BC0123F4E12440A1243AB12440A7B3F31
:09433800123F4E12440AD2CB22BE
:10405C007F071242597B40E4FD7F01123F527BBA2D
:10406C00E4FD7F01123F52E4FAE4F97BFF7D017F0E
:10407C0001123F5209E9B440F27B40E4FD7F01128A
:10408C003F52EA240344B8FBE4FD7F01123F520A7D
:04409C00EAB401D5AC
:0140A00022FD
:1040A1007F071242597B40E4FD7F02123F527BBAE7
:1040B100E4FD7F02123F52E4FAE4F97BFF7D017FC8
:1040C10002123F5209E9B440F27B40E4FD7F021243
:1040D1003F52EA240344B8FBE4FD7F02123F520A37
:0440E100EAB401D567
:0140E50022B8
:1030A500900212EBF0A3EAF0A3E9F0900210EFF022
:0330B500A3EDF098
:1030B800EF1425E0900210F0ED24FFFFE434FFFE4A
:1030C800EF7802CEC313CE13D8F9FF70079002171A
:1030D80004F08016EFB401089002177402F0800A19
:1030E800EFB402069002177404F0900211E0145431
:1030F80003C454F0F0FE900217E0FFEE4440FBE4F6
:10310800FD123F52E0FF900210E044B8FBE4FD12CC
:103118003F52E4900216F0900215E09002176018F2
:10312800E0FF900212E0FBA3E475F001121232A94D
:10313800F0FA12113BF48015E0FF900212E0FBA3B5
:10314800E475F001121232A9F0FA12113BFB7D016D
:10315800123F52900216E004F0E0C3941040B89079
:103168000217E0FF900211E04440FBE4FD123F52D9
:10317800900217E0FF900210E00444B8FBE4FD124F
:103188003F52E4900216F0900215E0900217601882
:10319800E0FF900212E0FBA3E475F001121232A9DD
:1031A800F0FA12113BF48015E0FF900212E0FBA345
:1031B800E475F001121232A9F0FA12113BFB7D01FD
:0F31C800123F52900216E004F0E0C3941040B89A
:0131D70022D5
:102CD90075F010A4243EF9740635F0FA7BFFE0FF85
:0A2CE900A3E0FD14F0E490022CF0CB
:102CF300900229EBF0A3EAF0A3E9F0900227EFF0AA
:032D0300A3EDF04D
:102D0600EF1425E0900227F0ED24FFFFE434FFFEE8
:102D1600EF7803CEC313CE13D8F9FF700790022EB7
:102D260004F08016EFB4010890022E7402F0800AB7
:102D3600EFB4020690022E7404F0900228E01454B8
:102D46000775F008A4F0FE90022EE0FFEE4440FB6B
:102D5600E4FD123F52E0FF900227E044B8FBE4FD99
:102D6600123F52E490022DF090022CE090022E6069
:102D760018E0FF900229E0FBA3E475F0011212327D
:102D8600A9F0FA12113BF48015E0FF900229E0FB4E
:102D9600A3E475F001121232A9F0FA12113BFB7D81
:102DA60001123F5290022DE004F0E0C3940840B8AF
:102DB60090022EE0FF900228E04440FBE4FD123F23
:102DC6005290022EE0FF900227E00444B8FBE4FD97
:102DD600123F52E490022DF090022CE090022E60F9
:102DE60018E0FF900229E0FBA3E475F0011212320D
:102DF600A9F0FA12113BF48015E0FF900229E0FBDE
:102E0600A3E475F001121232A9F0FA12113BFB7D10
:102E160001123F5290022DE004F0E0C3940840B83E
:012E26002289
:103DD800900211EFF0A3EDF0A3EBF0A3EAF0A3E952
:103DE800F0900213E0FBA3E0FAA3E0F912113B60A4
:103DF8003E75F010A4243EF9740635F0FA7BFF9066
:103E08000211E0FFA3E0FD900216E0122CEF9002F1
:103E180012E004F0E0D3941840097401F090021104
:103E2800E004F0900214E475F00112121C80B22232
:082B700090020AEFF0A3EDF062
:102B780078107C027D017BFF7A0079267E007F0A2F
:102B8800121115E490021AF0A37409F0E4A3F0A35B
:102B9800F0A31212C70000000190020CE0FCA3E0B1
:102BA800FDA3E0FEA3E0FFEC33501690021C740175
:102BB800F090020CA3A3A3E012129790020C121239
:102BC800BB90020CE0FCA3E0FDA3E0FEA3E0FFEC59
:102BD8004D4E4F6074E47B0AFAF9F890020CA3A3F7
:102BE800A3E012412AAC00AD01AE02AF0390021E71
:102BF8001212BB90021EA3A3A3E02430FF90021A76
:102C0800E0FE04F074102EF582E43402F583EFF050
:102C180090020CE0FCA3E0FDA3E0FEA3E0FFE47B50
:102C28000AFAF9F812412A90020C1212BB90021A01
:102C3800E06402708CE0FF04F074102FF582E43435
:102C480002F583742EF0022BC990021AE0D3940384
:102C5800502AE0FF04F074102FF582E43402F58363
:102C68007430F090021AE0B402DFFF04F074102F01
:102C7800F582E43402F583742EF080CD90021CE0D6
:102C8800601490021AE0FF04F074102FF582E43407
:102C980002F583742DF0E490021BF090021AE0FF15
:102CA800A3E0FEC39F502974102EF582E43402F588
:102CB80083E090020A122CD990020BE0700A90026D
:102CC8000AE004F0A37418F090021BE004F080CB33
:012CD80022D9
:0B29DC0090020EEFF0A3EDF0A3EBF073
:1029E70078157C027D017BFF7A0079307E007F0AB3
:1029F700121115E490021FF0A37409F0E4A3F0A3E9
:102A0700F0A31212C700000001900211E0FCA3E03E
:102A1700FDA3E0FEA3E0FFEC335016900221740102
:102A2700F0900211A3A3A3E01212979002111212C1
:102A3700BB900210E0606F900210E0FF14F0EFD33C
:102A470094005003022B1BE47B0AFAF9F8A3E0FC7D
:102A5700A3E0FDA3E0FEA3E0FF12412AAC00AD0115
:102A6700AE02AF039002231212BB900223A3A3A3CB
:102A7700E02430FF90021FE0FE04F074152EF5826B
:102A8700E43402F583EFF0900211E0FCA3E0FDA32C
:102A9700E0FEA3E0FFE47B0AFAF9F812412A90026C
:102AA700111212BB8091900211E0FCA3E0FDA3E09C
:102AB700FEA3E0FFEC4D4E4F605AE47B0AFAF9F8AB
:102AC700900211A3A3A3E012412AAC00AD01AE020C
:102AD700AF039002231212BB900223A3A3A3E02407
:102AE70030FF90021FE0FE04F074152EF582E434E7
:102AF70002F583EFF0900211E0FCA3E0FDA3E0FEF6
:102B0700A3E0FFE47B0AFAF9F812412A90021112B6
:102B170012BB8092900221E0601490021FE0FF0434
:102B2700F074152FF582E43402F583742DF0E490E8
:102B37000220F090021FE0FFA3E0FEC39F5029741C
:102B4700152EF582E43402F583E090020E122CD99B
:102B570090020FE0700A90020EE004F0A37418F0E0
:082B6700900220E004F080CB95
:012B6F002243
:0A2F670090020BEDF0AC07A3EBF0B5
:102F7100E4900217F0EB24FFFFE434FFFEEF780347
:102F8100CEC313CE13D8F90490020CF0EC24FFFF4A
:102F9100E434FFFEEF7803CEC313CE13D8F99002C9
:102FA10013F090020BE0FF14543F900214F0FDEF78
:102FB10024FFFFE434FFFEEF7806CEC313CE13D80F
:102FC100F9FF7401A807088002C333D8FCFF9002FF
:102FD10015F0900217F0ED4440FBE4FD123F5290D2
:102FE1000213123F4AE4900211F090020CE0FF90AC
:102FF1000211E0C39F40030230A4E4A3F090020D4C
:10300100E0FF900212E0FEC39F506AEEFF90020BB8
:10301100E02FFFE433CF24FFCF34FFFEEF7806CE5D
:10302100C313CE13D8F975F00384AFF07401A80768
:10303100088002C333D8FCFF900216F0A3E06F6052
:103041000E900216E0FFA3F07B40E4FD123F529088
:103051000216E0FF90020EE0FBA3E475F0011212EC
:1030610032A9F0FA12113BFB7D01123F529002127C
:10307100E004F08088900215E0FF900217F09002C2
:1030810014E04440FBE4FD123F52900211E0FF9036
:103091000213E02F540704123F4B900211E004F099
:0330A100022FEB10
:0130A4002209
:0F26550090024CEFF090024EEBF090024DEDF042
:10266400E4900258F0ED14543F900255F0FCED2430
:10267400FFFFE434FFFEEF7806CEC313CE13D8F980
:10268400FF7401A807088002C333D8FCFF900256E8
:10269400F0900258F0EC4440FBE4FD123F529002EB
:1026A4004CE014123F4B124017E4900253F0900296
:1026B4004EE0FF900253E0C39F4003022785E4A34A
:1026C400F090024FE0FF900254E0FEC39F400302EB
:1026D4002755EEFF90024DE02FFFE433CF24FFCFC8
:1026E40034FFFEEF7806CEC313CE13D8F975F0038A
:1026F40084AFF07401A807088002C333D8FCFF90AC
:102704000257F0A3E06F600E900257E0FFA3F07B46
:1027140040E4FD123F5290025712401AAD07900256
:102724004FE0FF900253E08FF0A4FFA3E07A002F64
:10273400FFEA35F0FE900250E0FBA3E0FAA3E0F9D3
:102744008F828E83ED121193900254E004F00226DE
:10275400C5900256E0FF900258F0900255E04440C4
:10276400FBE4FD123F52900253E0FF90024CE02F35
:102774005407123F4B124017900253E004F0022614
:10278400B27F07124259900255E04440FBE4FD7FBA
:1027940002123F5290024CE01444B8FBE4FD7F0265
:1027A400123F52E4900253F090024EE0FF90025325
:1027B400E0C39F506EE4A3F090024FE0FF900254F8
:1027C400E0FDC39F5031900253E08FF0A47C002DB4
:1027D400FFEC35F0FE900250E0FBA3E0FAA3E0F931
:1027E4008F828E83121154FB7D017F02123F52901F
:1027F4000254E004F080C1900255E04440FBE4FD43
:102804007F02123F52900253E0FF90024CE02F549B
:102814000744B8FBE4FD7F02123F52900253E004E8
:03282400F08085BC
:01282700228E
:07174B00900211EDF0AC0764
:10175200E4900219F0EC24FFFFE434FFFEEF78037B
:10176200CEC313CE13D8F990021AF0EC145407909A
:10177200021DF0EC2B145407A3F090021DE0FDFFB4
:10178200EB2FFFE433FEEF7803CEC313CE13D8F969
:10179200FFED2B540760047E0180027E00EE2FFFD6
:1017A20090021CF090021AE02F14A3F0900211E0B4
:1017B200FD14543F900216F0ED24FFFFE434FFFEC7
:1017C200EF7806CEC313CE13D8F9FF7401A8070829
:1017D2008002C333D8FC900217F0900219F09002F5
:1017E2001DE070030218A3123F3690021712401A2E
:1017F200E4900214F0900213E0FFA3E0FEC39F40C6
:101802000302189BEEFF900211E02FFFE433CF2476
:10181200FFCF34FFFEEF7806CEC313CE13D8F9758F
:10182200F00384900215E5F0F0E0FF7401A80708C8
:101832008002C333D8FCFF900218F0A3E06F600E61
:10184200900218E0FFA3F07B40E4FD123F529002A9
:101852001812401A900214E0FE2400F582E43400CB
:10186200F583EFF074002EF582E43400F583C08333
:10187200C082E0FF90021DE0FEC374079EFE747FEB
:10188200A806088003A2E713D8FB5FD082D083F0BA
:10189200900214E004F00217F7900217E090021988
:1018A200F090021EE07003021974900217E0FF909C
:1018B2000216E04440FBE4FD123F5290021B123F2D
:1018C2004A90021712401AE4900214F0900213E0B8
:1018D200FFA3E0FEC39F400302196CEEFF900211CA
:1018E200E02FFFE433CF24FFCF34FFFEEF7806CEA4
:1018F200C313CE13D8F975F00384900215E5F0F006
:10190200E0FF7401A807088002C333D8FCFF9002ED
:1019120018F0A3E06F600E900218E0FFA3F07B4086
:10192200E4FD123F5290021812401A900214E0FE97
:1019320024C0F582E43400F583EFF074C02EF58202
:10194200E43400F583C083C082E0FF90021EE0FE13
:1019520074FFA806088002C333D8FC5FD082D0830C
:10196200F0900214E004F00218CE900217E0900208
:1019720019F0123F36E4FA90021CE0FFEAC39F40DE
:1019820003021A90E4900214F0900213E0FFA3E025
:10199200FEC39F4003021A6CEEFF900211E02FFF7C
:1019A200E433CF24FFCF34FFFEEF7806CEC313CE4D
:1019B20013D8F975F00384900215E5F0F0E0FF7496
:1019C20001A807088002C333D8FCFF900218F0A3D5
:1019D200E06F600E900218E0FFA3F07B40E4FD127E
:1019E2003F5290021DE0F9602EA3E0602A90021C93
:1019F200E0B40123900218E0FF900214E0FE24C03C
:101A0200F582E43400F583E0FD74002EF582E434BF
:101A120000F583E04D8044E96018EA7015900218E1
:101A2200E0FF900214E02400F582E43400F583E044
:101A3200802990021EE0601D90021CE014B5021580
:101A4200900218E0FF900214E024C0F582E4340012
:101A5200F583E08006900218E0FFE4FB7D01123F6F
:101A620052900214E004F002198B900217E0FF90EA
:101A72000219F0900216E04440FBE4FD123F52903E
:0E1A8200021AE02A540704123F4B0A02197997
:011A90002233
:0713C60090020FEDF0AC07EF
:1013CD00E4900217F090021DF0EC24FFFFE434FFCF
:1013DD00FEEF7803CEC313CE13D8F9900218F0ECBC
:1013ED0014540790021BF0EC2B145407A3F0900239
:1013FD001BE0FDFFEB2FFFE433FEEF7803CEC313AD
:10140D00CE13D8F9FFED2B540760047E0180027EC8
:10141D0000EE2FFF90021AF0900218E02F14A3F0A7
:10142D0090020FE0FD14543F900214F0ED24FFFFE5
:10143D00E434FFFEEF7806CEC313CE13D8F9FF7454
:10144D0001A807088002C333D8FC900215F0900262
:10145D0017F090021BE07003021536900215E0FFA5
:10146D00900214E04440FBE4FD123F52900218122A
:10147D003F4A90021512401AE4900212F0900211A8
:10148D00E0FFA3E0FEC39F400302152EEEFF900286
:10149D000FE02FFFE433CF24FFCF34FFFEEF7806AC
:1014AD00CEC313CE13D8F975F00384900213E5F073
:1014BD00F0E0FF7401A807088002C333D8FCFF9049
:1014CD000216F0A3E06F600E900216E0FFA3F07B12
:1014DD0040E4FD123F5290021612401A900212E0A3
:1014ED00FE2400F582E43400F583EFF074002EF550
:1014FD0082E43400F583C083C082E0FF90021BE0DC
:10150D00FEC374079EFE7480A806088003A2E7132D
:10151D00D8FB4FD082D083F0900212E004F0021479
:10152D008A900215E0900217F090021CE070030201
:10153D001619900215E0FF900214E04440FBE4FD03
:10154D00123F52900219123F4A90021512401AE4AE
:10155D00900212F0900211E0FFA3E0FEC39F400342
:10156D00021611EEFF90020FE02FFFE433CF24FFA0
:10157D00CF34FFFEEF7806CEC313CE13D8F975F036
:10158D000384900213E5F0F0E0FF7401A8070880D2
:10159D0002C333D8FCFF900216F0A3E06F600E90EB
:1015AD000216E0FFA3F07B40E4FD123F52900216BD
:1015BD0012401A900212E024C0F582E43400F58343
:1015CD00EFF01D90021CE0FEEDC39E500AA3E02536
:1015DD00E04401F00D80EC900212E024C0F582E4AD
:1015ED003400F583C083C082E0FF90021DE0FEEF62
:1015FD004ED082D083F0E490021DF0900212E004F0
:10160D00F0021561900215E0900217F0900215E0BE
:10161D00FF900214E04440FBE4FD123F529002188B
:10162D00123F4AE4FA90021AE0FFEAC39F40030218
:10163D00174AE4900212F0900211E0FFA3E0FEC3FE
:10164D009F4003021726EEFF90020FE02FFFE433B9
:10165D00CF24FFCF34FFFEEF7806CEC313CE13D8C1
:10166D00F975F00384900213E5F0F0E0FF7401A822
:10167D0007088002C333D8FCFF900216F0A3E06F79
:10168D00600E900216E0FFA3F07B40E4FD123F5286
:10169D0090021BE0F9602EA3E0602A90021AE0B4DC
:1016AD000123900216E0FF900212E0FE24C0F582A5
:1016BD00E43400F583E0FD74002EF582E43400F58A
:1016CD0083E05D803CE96018EA7015900216E0FF3A
:1016DD00900212E02400F582E43400F583E08021CD
:1016ED0090021CE0601E90021AE014B502169002E2
:1016FD0016E0FF900212E024C0F582E43400F58379
:10170D00E0FB8007900216E0FF7BFF7D01123F5248
:10171D00900212E004F0021644900215E0FF9002D0
:10172D0017F0900214E04440FBE4FD123F5290028A
:0D173D0018E02A540704123F4B0A0216322E
:01174A00227C
:103FCE00A2A282A082A482A182A382C840381245F6
:103FDE00E3A2A282A082A482A182A382C84024204E
:103FEE00A0037F012220A2037F022220A4037F06CA
:103FFE002220A1037F052220C8037F032220A303D2
:09400E007F04227F00227F0022C2
:1045B600E4F5CF75CDC030030475CED02275CE405C
:0145C60022D2
:0D45D6008FCFE5CD30E7FB75CDC0AFCF2214
:10456C00438920759840758DDC858D8BE4F587D259
:04457C00ACD28E220D
:084651008F993099FDC29922F6
:02422500AE07E2
:10422700EEC4540FFDC36480948AED50042430809B
:104237000424F62461FF124651EE540FFDC3648037
:10424700948AED50042430800424F62461FF12463A
:014257005115
:014258002243
:07466000EF2430FF02465178
:1045800012113BFF600C124651740129F9E43AFA0A
:0345900080EE2298
:0D42BD00900296EBF0A3EAF0A3E9F0AE0743
:1042CA00E4FDEDC39E501A900296E0FBA3E0FAA328
:1042DA00E0F98D82758300121154FF1246510D8048
:0142EA00E1F2
:0142EB0022B0
:030023000244276D
:06442700C0E0C083C0826A
:0F442D0030980CC298C2AF900203E599F0D2AF5D
:07443C00D082D083D0E032F2
:064667000000000000222B
:05000600D2B7D2B622C2
:06000E001243CC1243F284
:0F001400D2B6D2B7124667C2B6124667C2B7223B
:0C462400C2B6D2B7124667D2B602466793
:0643EC001200141243CC84
:1043F200D2B712466730B608C2B71246677F0022AC
:08440200C2B71246677F0122D8
:0C463000C2B6D2B7124667C2B702466796
:0C463C00D2B6D2B7124667C2B70246677A
:1043CC00E4FEEF30E703D38001C392B6EF25E0FFA4
:0F43DC00D2B7124667C2B71246670EEEB408E3B7
:0143EB0022AF
:1042EC00E4FED2B6FDEE25E0FED2B712466730B63C
:1042FC00034401FEC2B71246670DEDB408E7EF6048
:0B430C0005124630800312463CAF064D
:014317002283
:104494001243ECAC07AF051243CC1243F2AF031244
:0A44A40043CC1243F2124624AF0489
:0144AE0022EB
:0244C900AC073E
:1044CB001243ECAF0512000EEC04FF1243CC124367
:0644DB00F2E4FF1242ECC6
:0144E10022B8
:103E9300AD071243ECEF70061246247F0122900215
:103EA30083E0FF12000EED04FF1243CC1243F290A5
:103EB3000284E0FF6026B4010BE4FF1242ECEF1230
:103EC300118180107F011242ECEF121181740129DC
:103ED300F9E43AFA900284E014F080D31246247F86
:023EE3000022BB
:10416E001243ECEF7002801E900289E0FF1243CCE6
:10417E001243F290028AE0602212113BFF1243CCEE
:10418E001243F2EF70061246247F0122740129F9C0
:10419E00E43AFA90028AE014F080D81246247F00A6
:0141AE0022EE
:1023D50041029100410292004102930041029400A2
:0423E500410295001C
:0C45E3007FB27E787D0CDDFEDEFADFF694
:0145EF0022A9
:0C45F0007FB27EE67D0CDDFEDEFADFF619
:0145FC00229C
:0C45FD007FD97EAB7D49DDFEDEFADFF6E3
:01460900228E
:10428B00EF24FE601214601714601C24037020903E
:10429B000291E05401FF22900291E05402FF229020
:1042AB000291E05404FF22900291E05408FF227F18
:0242BB000022DF
:103E3800EF24FE601D14602D14603D2403704B9028
:103E48000291E054FEF090020BA3A3A3E09002922B
:103E5800F022900291E054FDF090020BA3A3A3E09E
:103E6800900293F022900291E054FBF090020BA391
:103E7800A3A3E0900294F022900291E054F7F0900E
:0B3E8800020BA3A3A3E0900295F02220
:1040E600900292E0600414F08007900291E044018F
:1040F600F0900293E0600414F08007900291E0448F
:1041060002F0900294E0600414F08007900291E0BF
:104116004404F0900295E0600314F022900291E0CE
:044126004408F02237
:103CA900454550524F4D20736563746F72312068DA
:103CB900617320646174612E0D0A00454550524FAD
:103CC9004D20736563746F723120697320636C656D
:103CD900616E2E0D0A00454550524F4D20736563A4
:103CE900746F72322068616520646174612E0D0AF7
:103CF90000454550524F4D20736563746F723220F1
:0C3D0900697320636C65616E2E0D0A006A
:0D460A00E4F5C7F5C5F5C675C380F5C422FB
:1044E20075C78375C5018FC4EEF5C375C65A75C607
:0844F200A50000AFC212460A4A
:0144FA00229F
:1044AF0075C78375C5028FC4EEF5C3AF058FC2758F
:0A44BF00C65A75C6A5000002460AA1
:1045420075C78375C5038FC4EEF5C375C65A75C6A4
:06455200A5000002460A6C
:103A6600E490020AF0A3F0E4900208F0A3F09002BA
:103A760008E0FEA3E0FFC3EE940250281244E2EFF2
:103A8600F460117BFF7A3C79A912458090020AE422
:103A9600F0A304F0900209E004F070D2900208E06E
:103AA60004F080CA90020AE07002A3E070B97BFFBE
:103AB6007A3C79C4124580E4900208F0A3F09002A3
:103AC60008E0FEA3E0FFC3EE9402502FE42FFFEEC2
:103AD6003402FE1244E2EFF460117BFF7A3C79DF98
:103AE60012458090020AE4F0A304F0900209E00473
:103AF600F070CB900208E004F080C390020AE070F8
:0E3B060002A3E070B27BFF7A3C79FA024580A0
:1023E9004C02400000000000000000000000004C0A
:1023F900023200000000000000000000000041025D
:0C2409003E0041023F0043022F01025937
:01467C00221B
:01467D00221A
:10340400900242E0FE6410706CA3E07068A3E0FFD9
:1034140090022FE0FBA3E0FAA3E0F9EF12118190F0
:103424000245E0FF90022FE0FBA3E0FAA3E0F9904D
:103434000001EF121193900246E0900002121193E2
:10344400900247E0900003121193900248E090002C
:1034540004121193900249E0900005121193900216
:103464004AE090000612119390024BE0900007127C
:1034740011937F0122EE6411706E900243E0706834
:10348400A3E0FF90022FE0FBA3E0FAA3E0F9EF1220
:103494001181900245E0FF90022FE0FBA3E0FAA324
:1034A400E0F9900001EF121193900246E0900002BF
:1034B400121193900247E090000312119390024876
:1034C400E0900004121193900249E090000512115B
:1034D4009390024AE090000612119390024BE09000
:0B34E40000071211937F02227F0022DC
:0F45C70041444320646174613A0D0A000D0A00FB
:10241500480259616162626363000044026122B847
:0224250022B8DB
:103EE500900259E0FEA3E0FDEDFF900261EEF0A324
:103EF500EFF090025BE0FEA3E0FDEDFF900263EEC4
:103F0500F0A3EFF0D3900262E09488900261E09410
:103F15001340077422F0A374B8F0D3900264E094C0
:103F250088900263E0941340077422F0A374B8F0FC
:013F35002269
:103F840090025DE0FEA3E0FDEDFBAA06E4FEFDFC6D
:103F9400C39DF582EE9CF5837D64AF03AE021211DE
:103FA400B5AD82AC831211C77BFF7A4579C7124540
:103FB4008090025DE0FF12422590025EE0FF124213
:0A3FC400257BFF7A4579D302458082
:1039B000300031003200330034003500360037006B
:1039C000380039003A0020002A002100484F4D45B8
:1039D000004300250000000000000000000000007F
:1039E00000000000000000000000000000000000D7
:1039F00000000000000000000000000000000000C7
:103A000000000000000000000000000000000000B6
:103A100000000000000000000000000000000000A6
:103A20000000000000000000000000000000000096
:103A30000000000000000000000000000000000086
:103A40000000000000000000000000000000000076
:103A50000000000000000000F0FFF0001CFFFFFF6E
:063A60001C00FFFFFF0047
:1024270041027E00C10144027A0001E240C100413D
:0B2437000277004102780041027900AA
:053D1500900180EFF0B9
:103D1A0078817C017D017BFF7A3979D57E007F82AB
:103D2A00121115900180E0602FB20030001B900242
:103D3A000D7405F0A374FFF0A3743AF0A37457F05E
:103D4A007B187D377F11022F679002137405F07B71
:103D5A00187D377F1102174B30001190021374053A
:0C3D6A00F07B187D377F1112174BC20050
:013D7600222A
:102E2700900210EFF07BFF7A3979B07006900216A6
:102E3700048004E4900216F07D037F04123DD890CD
:102E47000210E07BFF7A3979B2B401079002167459
:102E5700018004E4900216F07D057F04123DD890AE
:102E67000210E07BFF7A3979B4B402079002167436
:102E7700018004E4900216F07D077F04123DD8908C
:102E87000210E07BFF7A3979B6B403079002167413
:102E9700018004E4900216F07D097F04123DD8906A
:102EA7000210E07BFF7A3979B8B4040790021674F0
:102EB700018004E4900216F07D0B7F04123DD89048
:102EC7000210E07BFF7A3979BAB4050790021674CD
:102ED700018004E4900216F07D0D7F04123DD89026
:102EE7000210E07BFF7A3979BCB4060790021674AA
:102EF700018004E4900216F07D0F7F04123DD89004
:102F07000210E07BFF7A3979BEB407079002167486
:102F1700018004E4900216F07D117F04123DD890E1
:102F27000210E07BFF7A3979C0B408079002167463
:102F3700018004E4900216F07D137F04123DD890BF
:102F47000210E07BFF7A3979C2B409079002167440
:102F5700018004E4900216F07D157F04123DD8220B
:101A9100E4900209F0A37406F0A314F0A31212C794
:101AA100000000001243AB7BFF7A0579DAE4900273
:101AB10015F07D047F011230A57BFF7A0579FAE4E8
:101AC100900215F07D057F011230A57BFF7A067922
:101AD1001AE4900215F07D067F011230A57BFF7A92
:101AE10006793AE4900215F07D077F011230A57B5B
:101AF100FF7A06795AE4900215F07D087F011230D1
:101B0100A57BFF7A3979C4E4900216F07D117F013B
:101B1100123DD87BFF7A3979B09002167401F07DBD
:101B2100037F04123DD87BFF7A3979B2E490021623
:101B3100F07D057F04123DD87BFF7A3979B4E490BA
:101B41000216F07D077F04123DD87BFF7A3979B602
:101B5100E4900216F07D097F04123DD87BFF7A39AB
:101B610079B8E4900216F07D0B7F04123DD87BFF1B
:101B71007A3979BAE4900216F07D0D7F04123DD8CE
:101B81007BFF7A3979BCE4900216F07D0F7F041255
:101B91003DD87BFF7A3979BEE4900216F07D117F42
:101BA10004123DD87BFF7A3979C0E4900216F07DAA
:101BB100137F04123DD87BFF7A3979C2E490021673
:101BC100F07D157F04021CEC123FCE900208EFF06D
:101BD10060F6E0FEB40107E490027EF0FF22EE64BD
:101BE10003704F90020AE0FF04F0D3EF6480948603
:101BF1005038E025E0FFC374139FFD7BFF7A3979EC
:101C0100C6E4900216F07F02123DD890020CE0FC6F
:101C1100A3E0FDA3E0FEA3E0FFE47B0AFAF9F812DA
:101C2100412A90020C1212BB802090020A7406F025
:101C31008018900208E0FFB40506A3E014F0800AC2
:101C4100EFB40606900209E004F0900209E0FFD328
:101C5100648094894004E4F0800EC3EF6480948032
:101C610050069002097409F0900209E0FF122E2734
:101C7100900208E064026003021BC990020AE0FFBF
:101C810014F0D3EF64809480406790020CE0FCA3D1
:101C9100E0FDA3E0FEA3E0FFE47B0AFAF9F81212EB
:101CA1004890020C1212BB90020CE0F8A3E0F9A3D9
:101CB100E0FAA3E0FB900209E0FF3395E0FEFDFCB2
:101CC100EB2FFFEA3EFEE93DFDE83CFC90020C12E1
:101CD10012BB90020AE025E0FFC374119FFD7BFF58
:101CE1007A3979C8E4900216F07F02123DD8021BBE
:101CF100C990027AE0FCA3E0FDA3E0FEA3E0FF901F
:101D0100020CE0F8A3E0F9A3E0FAA3E0FBC312128E
:101D1100A5700990027E7402F07F01229002137473
:101D2100C0F07B107D017F1112174B7BFF7A067982
:101D31003AE4900215F07D057F021230A57BFF7A0F
:101D410006795AE4900215F07D067F021230A57BD8
:101D5100FF7A06797AE4900215F07D077F0212304E
:101D6100A57BFF7A06799AE4900215F07D087F023F
:101D71001230A57BFF7A3979CAE4900216F07D1101
:101D81007F02123DD81245FD90021374C0F07B1002
:101D91007D017F1112174B90020A7406F090020C1C
:101DA1001212C70000000090020BE014F060030261
:031DB1001BC9FF4C
:011DB400220C
:0D461700C2C91245F0D2C9E490027EF02223
:01467E002219
:1044FB00900263E0FEA3E0FFE4FCFD90020C1212BD
:08450B00BB7D167F01022B703D
:10451300900261E0FEA3E0FFE4FCFD90020C1212A6
:08452300BB7D0E7F04022B702A
:10330300EF24FE604A0460030233A87BFF7A03794B
:103313001AE4900215F07D027F041230A57BFF7A38
:1033230003793AE4900215F07D037F041230A57B04
:10333300FF7A03799A9002157401F07D067F0412D7
:1033430030A57BFF7A0379BA900215740180427B22
:10335300FF7A03791A9002157401F07D027F04123B
:1033630030A57BFF7A03793A9002157401F07D034F
:103373007F041230A57BFF7A03799AE4900215F05B
:103383007D067F041230A57BFF7A0379BAE49002AD
:1033930015F07D077F041230A57BFF7A3979CCE4E1
:1033A30090021680537BFF7A03791AE4900215F09A
:1033B3007D027F041230A57BFF7A03793AE4900201
:1033C30015F07D037F041230A57BFF7A03799AE41D
:1033D300900215F07D067F041230A57BFF7A0379F6
:1033E300BAE4900215F07D077F041230A57BFF7AC3
:1033F3003979CC9002167401F07D137F04123DD805
:0134030022A6
:0534EF00900208EFF05F
:1034F400E4A3F03001081243AB122828803E900266
:1035040008E0FFB40506A3E004F0800AEFB4060661
:10351400900209E014F0900209E0FFD364809482E1
:103524004004E4F0800EC3EF64809480500690025F
:10353400097402F0900209E0FF12330390020B12A7
:1035440012C70000000A7F01123E38123FCE9002DB
:1035540008EFF0606890020B1212C70000000A7FA7
:1035640001123E38900208E0FEB4020C90027E7410
:1035740001F0900209E0FF22EEB401037F002290E3
:103584000208E0FFB40506A3E004F0800AEFB406E5
:1035940006900209E014F0900209E0FFD3648094DD
:1035A400824004E4F0800EC3EF648094805006905F
:1035B40002097402F0900209E0FF1233037F011242
:0735C400428BEF60867F00DF
:0135CB0022DD
:10282800C20190020D743EF0A374FFF0A37406F089
:10283800A374CAF07B2D7D017F01122F677BFF7A7D
:1028480000793AE4900215F07D057F011230A57BEE
:10285800FF7A00795AE4900215F07D067F01123064
:10286800A57BFF7A0079BAE4900215F07D077F0115
:102878001230A57BFF7A00797AE4900215F07D0882
:102888007F011230A57BFF7A3979C4E4900216F0F3
:102898007D117F01123DD81244FB7BFF7A0679BA7D
:1028A800E490022CF07D177F01122CF37BFF7A391C
:1028B80079D1E4900216F07D187F01123DD87BFF94
:1028C8007A02799AE4900215F07D057F021230A50C
:1028D8007BFF7A0279BAE4900215F07D067F021236
:1028E80030A57BFF7A3979C4E4900216F07D0D7F1C
:1028F80002123DD87BFF7A0279DAE4900215F07D66
:102908000A7F021230A57BFF7A0279FAE490021559
:10291800F07D0B7F021230A57BFF7A04797AE49070
:102928000215F07D057F031230A57BFF7A04799AA2
:10293800E4900215F07D067F031230A57BFF7A39FB
:1029480079C4E4900216F07D0D7F03123DD87BFF19
:102958007A0179DAE4900215F07D0A7F031230A536
:102968007BFF7A0179FAE4900215F07D0B7F031260
:1029780030A57BFF7A03791AE4900215F07D027F77
:10298800041230A57BFF7A03793AE4900215F07DB2
:10299800037F041230A57BFF7A03799AE49002152D
:1029A800F07D067F041230A57BFF7A0379BAE490A4
:1029B8000215F07D077F041230A57BFF7A3979CCA8
:1029C8009002167401F07D137F04123DD87D017FBB
:0429D80037021DB5F0
:10200900D2017BFF7A0079BAE4900215F07D037F53
:10201900011230A57BFF7A0079DAE4900215F07D90
:10202900047F011230A57BFF7A0179DAE490021569
:10203900F07D057F011230A57BFF7A0179FAE490E2
:102049000215F07D067F011230A57BFF7A02791A0D
:10205900E4900215F07D077F011230A57BFF7A021B
:10206900793AE4900215F07D087F011230A57BFFD3
:102079007A02795AE4900215F07D097F011230A5A0
:102089007BFF7A02797AE4900215F07D0A7F0112CA
:1020990030A5900274E0FEA3E0FFE4FCFD9002117C
:1020A9001212BB7B047D0A7F021229DC7BFF7A01B5
:1020B900797AE4900215F07D067F021230A590022C
:1020C90073E0FFE4FCFDFE9002111212BB7B027D5E
:1020D9000E7F021229DC7BFF7A01799AE4900215BE
:1020E900F07D087F021230A5900271E0FFE4FCFD4B
:1020F900FE9002111212BB7B027D127F021229DCB3
:102109007BFF7A0179BAE4900215F07D0A7F021209
:1021190030A5900270E0FFE4FCFDFE90021112125E
:10212900BB7B027D067F031229DC7BFF7A3979C4E8
:10213900E4900216F07D077F03123DD890026FE00C
:10214900FFE4FCFDFE9002111212BB7B027D097FA8
:10215900031229DC7BFF7A3979C4E4900216F07DF9
:102169000A7F03123DD890026EE0FFE4FCFDFE9069
:1021790002111212BB7B027D0C7F031229DC7BFF4B
:102189007A0479DAE4900215F07D087F031230A50C
:102199007BFF7A0479FAE4900215F07D097F031236
:1021A90030A5900272E014B4070050659021C37500
:1021B900F003A4C58325F0C583730221D80221E069
:1021C9000221E80221F00221F80222000222087B02
:1021D900FF7A05791A802E7BFF7A05793A80267B6A
:1021E900FF7A05795A801E7BFF7A05797A80167BFA
:1021F900FF7A05799A800E7BFF7A0579BA80067B8A
:10220900FF7A04795AE4900215F07D0A7F031230AF
:10221900A51245137BFF7A0679BAE490022CF07D6A
:102229000F7F04122CF37BFF7A3979D1E4900216DF
:08223900F07D107F04023DD886
:0A1DB50090020BEDF090020AEFF02F
:101DBF00E490020CF0AC07EC120F907BF67A2879C6
:101DCF001C7840120EE9E4FBFA7980783F120DF58A
:101DDF00120FC490020BE06005E4900278F09002BD
:101DEF0078E0FEC3EF9E900277F0C364809480503A
:101DFF000D90020C7401F0900277E0F404F0E4907F
:101E0F00020DF0900277E0FF3395E0FE90020DE0B7
:101E1F00C39FEE6480F87480984003021FAE900257
:101E2F000CE0FF9002786005E014F08003E004F00E
:101E3F00900278E024FE604A14606B147003021E57
:101E4F00D924DE7003021EFD147003021F201470CC
:101E5F0003021F42147003021F6424286003021F31
:101E6F0072EF600F900213742BF07B017D057F2AB8
:101E7F00021F8C9002117429F07B017D067F2B02CB
:101E8F001FA290020CE0600F900213742DF07B01E3
:101E9F007D047F29021F8C900211742BF07B017D32
:101EAF00057F2A021FA290020CE0600F90021374AC
:101EBF002DF07B017D047F28021F8C900211742D61
:101ECF00F07B017D047F29021FA290020CE0600FBE
:101EDF00900213742FF07B017D037F27021F8C90DC
:101EEF000211742DF07B017D047F28021FA2900246
:101EFF000CE0600E900213742DF07B017D047F05C2
:101F0F00807B900211742DF07B017D047F06021FF0
:101F1F00A290020CE0600E900213742BF07B017DF7
:101F2F00057F048058900211742DF07B017D047F92
:101F3F0005806090020CE0600E9002137429F07B14
:101F4F00017D067F038036900211742BF07B017D9B
:101F5F00057F04803E9002117429F07B017D067F7E
:101F6F0003803090020CE09002786016E0FFC3749B
:101F7F002B9FFF900213742FF07B017D0312174BE1
:101F8F008014E0FFC3742C9FFF900211742FF07B1D
:101F9F00017D031213C690020DE004F0021E129091
:101FAF00020AE0FF3395E0FEFDFC9002111212BB16
:101FBF00E4FB7D047F021229DC7BFF7A3979D3E4BD
:101FCF00900216F07D057F02123DD890020AE0FFC5
:101FDF00B4631E900279E0FEC3EF9EC364809480C9
:101FEF00500F9002117408F07B107D097F111213AE
:091FFF00C690020AE0900279F09C
:0120080022B5
:10452B0076616C696420646174612072656365698E
:07453B007665642E0D0A00F5
:0D24420041029000C10244028C61626300FF
:05467300D288D2A8224C
:06466D00758F10D2A92296
:1031D800E4900207F01245FD438E4012456C123A06
:1031E8006612467312466DD2031245B612000612D5
:1031F80046781243181245FD1246481238F2124416
:103208005EC289C28BC299D2AF90020B1212C7005C
:103218000000057F02123E38122828123FCEEF60C8
:103228002DC2CB1234EFEF24FE6011047011121A74
:10323800911246171243AB122828800312467E903B
:10324800020B1212C70000000A7F02123E389002D9
:1032580090E054F1F0309304E0F0802830940C2092
:103268000209900290E04402F0801930940C300278
:1032780009900290E04406F0800A2094079002909A
:10328800E04404F0900290E0540E7F0212428BEF6B
:103298006089D2CB3001469002347410F0E4A3F078
:1032A8009002327455F0A374AAF07B017A02793245
:1032B8007F0C123D7790023EE06017E4F012340470
:1032C800BF020F7BFF7A45792B124580123F84128B
:1032D8003EE51243AB1245E3122828800C123770E2
:1032E8001243AB1245E312200990020B1212C700D9
:0B32F80000000A7F02123E3802322361
:103C2D0090029BEEF0A3EFF07C277D101211C712CE
:103C3D00466090029BE0FEA3E0FF7C037DE812113D
:103C4D00C77C007D0A1211C7AF0512466090029B1A
:103C5D00E0FEA3E0FF7C007D641211C77C007D0AAD
:103C6D001211C7AF051246607F2E12465190029B6E
:103C7D00E0FEA3E0FF7C007D0A1211C77C007D0AE7
:103C8D001211C7AF0512466090029BE0FEA3E0FF44
:0C3C9D007C007D0A1211C7AF05024660D2
:030003000241AF08
:1041AF00C0E0C0F0C083C082C0D075D000C000C0D6
:1041BF0001C002C003C004C005C006C007123B14F3
:1041CF00D007D006D005D004D003D002D001D00044
:0B41DF00D0D0D082D083D0F0D0E032EE
:03000B000241EAC5
:1041EA00C0E0C0F0C083C082C0D075D000C000C09B
:1041FA0001C002C003C004C005C006C0071240E6E1
:10420A00D007D006D005D004D003D002D001D00008
:0B421A00D0D0D082D083D0F0D0E032B2
:100DEE00021030E86480F8E933E83360110460F0F3
:100DFE00ED33EC337009E8FCE9FDEAFEEBFF22046B
:100E0E0060DED3EB9FEA9EE99DE8C2E78CF0C2F765
:100E1E0095F0400CE8CCF8E9CDF9EACEFAEBCFFB31
:100E2E00120FFB85D0F05804700320D5B3E8047080
:100E3E00075002B2D502103A92D5EC0460F7E4CC1A
:100E4E00C0E0C398F8603B94186008400DD0E0FBFA
:100E5E00021012E4FBFAC9FC8028E830E406E4C96B
:100E6E00FBE4CAFCE830E305E4C9CACBFCE854074E
:100E7E006010F8C3E913F9EA13FAEB13FBEC13FC59
:100E8E00D8F130F52FC3E49CFCEF9BFFEE9AFEEDFC
:100E9E0099FDD0E0FBEF4E4D4C701222DB03021099
:100EAE0037EC2CFCEF33FFEE33FEED33FDED30E788
:100EBE00EB021012EF2BFFEE3AFEED39FDD0E0FB08
:100ECE0050130BBB000302103AED13FDEE13FEEFB1
:080EDE0013FFEC13FC021012DB
:100EE60002103AEC5D046005E85904700302103004
:100EF600120FFB580460F6EC4860F2EC7004FDFE3D
:100F0600FF22C860DB2481C85009C39860025006DE
:100F16000210379850CAF582E9294B4A7005AB8210
:100F260002102675F0007C1A7880C3EF9BEE9AEDCE
:100F360099400DC3EF9BFFEE9AFEED99FDE842F056
:100F4600DC23ACF0D0E0FFD0E0FED0E0FDAB8220A9
:100F5600E7101BEB60BAEC2CFCEF33FFEE33FEED33
:100F660033FD021012E803F830E705C0F075F00013
:100F7600EF2FFFEE33FEED33FD40B830E7C280AA17
:100F860075F020800E75F010800575F0087D007EE6
:100F9600007F003392D530D503121297EC33401000
:100FA600EF33FFEE33FEED33FDEC33FCD5F0ED22EF
:0E0FB600E5F0247EA2D513CC92E7CDCEFF222B
:100FC400EDD2E7CD33EC3392D524814006E4FFFE25
:100FD400FDFC22FCE4CFCECDCC24E0501174FF8084
:100FE400EDC3CC13CCCD13CDCE13CECF13CF047021
:070FF400F030D5DE02129778
:100FFB00E9D2E7C933E833F892D5EDD2E7CD33EC3C
:07100B0033FC5002B2D522B4
:10101200EC30E7100FBF000C0EBE00080DBD00043F
:101022000BEB6014A2D5EB13FCED92E7FD2274FFEB
:10103200FCFDFEFF22E480F8A2D574FF13FC7D8044
:03104200E480EF58
:03000000023BA11F
:0C3BA100787FE4F6D8FD758120023BE837
:10104500E709F608DFFA8046E709F208DFFA803E8D
:1010550088828C83E709F0A3DFFA8032E309F6087A
:10106500DFFA8078E309F208DFFA807088828C83E2
:10107500E309F0A3DFFA806489828A83E0A3F60896
:10108500DFFA805889828A83E0A3F208DFFA804C70
:1010950080D280FA80C680D4806980F28033801047
:1010A50080A680EA809A80A880DA80E280CA8033B0
:1010B50089828A83ECFAE493A3C8C582C8CCC58328
:1010C500CCF0A3C8C582C8CCC583CCDFE9DEE780F8
:1010D5000D89828A83E493A3F608DFF9ECFAA9F077
:1010E500EDFB2289828A83ECFAE0A3C8C582C8CCCD
:1010F500C583CCF0A3C8C582C8CCC583CCDFEADEE6
:10110500E880DB89828A83E493A3F208DFF980CC47
:1011150088F0EF60010E4E60C388F0ED2402B40440
:101125000050B9F582EB2402B4040050AF232345E7
:0611350082239010957367
:10113B00BB010689828A83E0225002E722BBFE02B2
:09114B00E32289828A83E49322E5
:10115400BB010CE58229F582E5833AF583E0225050
:1011640006E92582F8E622BBFE06E92582F8E2229A
:0D117400E58229F582E5833AF583E49322B4
:10118100BB010689828A83F0225002F722BBFE014D
:02119100F32247
:10119300F8BB010DE58229F582E5833AF583E8F092
:1011A300225006E92582C8F622BBFE05E92582C83E
:0211B300F22226
:1011B500EF8DF0A4A8F0CF8CF0A428CE8DF0A42E4E
:0211C500FE2208
:1011C700BC000BBE0029EF8DF084FFADF022E4CC0C
:1011D700F875F008EF2FFFEE33FEEC33FCEE9DECD5
:1011E700984005FCEE9DFE0FD5F0E9E4CEFD22ED1B
:1011F700F8F5F0EE8420D21CFEADF075F008EF2F65
:10120700FFED33FD4007985006D5F0F222C398FD55
:051217000FD5F0EA22F2
:10121C00C5F0F8A3E028F0C5F0F8E582158270025D
:06122C001583E038F022FA
:10123200A3F8E0C5F025F0F0E5821582700215836F
:06124200E0C838F0E822CC
:10124800E88FF0A4CC8BF0A42CFCE98EF0A42CFC45
:101258008AF0EDA42CFCEA8EF0A4CDA8F08BF0A4C3
:101268002DCC3825F0FDE98FF0A42CCD35F0FCEB22
:101278008EF0A4FEA9F0EB8FF0A4CFC5F02ECD39E7
:0F128800FEE43CFCEAA42DCE35F0FDE43CFC2254
:10412A00C2D5E830E70FB2D5E4C39BFBE49AFAE4C0
:10413A0099F9E498F8EC30E717B2D51241601213F6
:10414A0034E4C39BFBE49AFAE499F9E498F880030F
:10415A0012133430D50DE4C39FFFE49EFEE49DFDA7
:04416A00E49CFC22B3
:0E129700C3E49FFFE49EFEE49DFDE49CFC2268
:1012A500EB9FF5F0EA9E42F0E99D42F0EC6480C8C0
:0612B50064809845F02260
:0C12BB00ECF0A3EDF0A3EEF0A3EFF022A6
:1012C700A8828583F0D083D0821212DE1212DE123A
:1012D70012DE1212DEE473E493A3C583C5F0C5835F
:1012E700C8C582C8F0A3C583C5F0C583C8C582C871
:0112F70022D4
:103BAD000231D8E493A3F8E493A34003F68001F225
:103BBD0008DFF48029E493A3F85407240CC8C33319
:103BCD00C4540F4420C8834004F456800146F6DFE8
:103BDD00E4800B0102040810204080902241E47E15
:103BED00019360BCA3FF543F30E509541FFEE493DD
:103BFD00A360010ECF54C025E060A840B8E493A3A4
:103C0D00FAE493A3F8E493A3C8C582C8CAC583CACE
:103C1D00F0A3C8C582C8CAC583CADFE9DEE780BE86
:01244F00008C
:1012F80075F008758200EF2FFFEE33FECD33CDCCAD
:1013080033CCC58233C5829BED9AEC99E58298402F
:101318000CF582EE9BFEED9AFDEC99FC0FD5F0D60C
:10132800E4CEFBE4CDFAE4CCF9A88222B800C1B936
:101338000059BA002DEC8BF084CFCECDFCE5F0CB74
:10134800F97818EF2FFFEE33FEED33FDEC33FCEBAD
:1013580033FB10D703994004EB99FB0FD8E5E4F968
:10136800FA227818EF2FFFEE33FEED33FDEC33FC55
:10137800C933C910D7059BE99A4007EC9BFCE99A49
:10138800F90FD8E0E4C9FAE4CCFB2275F010EF2F8E
:10139800FFEE33FEED33FDCC33CCC833C810D7078E
:1013A8009BEC9AE899400AED9BFDEC9AFCE899F8C9
:0E13B8000FD5F0DAE4CDFBE4CCFAE4C8F9225C
:00000001FF
