:10222A00436865636B205349343433322E2E2E0DA6
:10223A000A004445564943455F545950453A2030AF
:10224A007825782E0D0A000D0A0044455649434563
:10225A005F56455253494F4E3A20307825782E0D15
:10226A000A004445564943455F5354415455533A2D
:10227A002061742069646C65206D6F64652E0D0A97
:10228A00004445564943455F5354415455533A20F7
:10229A006174205258206D6F64652E0D0A00444502
:1022AA00564943455F5354415455533A206174206B
:1022BA005458206D6F64652E0D0A00437279737449
:1022CA00616C204F7363696C6C61746F72204C6F20
:1022DA0061642043617061636974616E63653A2069
:1022EA0025780D0A0053493434333220494F2049A6
:1022FA006E69742E2E2E2E2E2E0D0A00494F20495D
:10230A006E697420636F6D706C657465642E0D0A56
:10231A0000534934343332206973206E6F74206657
:10232A006F756E642E2E2E2E2E2E0D0A00534934F2
:10233A00343332204750494F496E697420636F6DB8
:10234A00706C6574652C636F6E6669672064657668
:10235A006963652E2E2E2E2E2E0D0A00436F6E6691
:10236A0069672052462E2E2E2E2E2E0D0A00534914
:10237A0034343332496E697420636F6D706C6574DE
:10238A00652E0D0A005349343433325F5365742085
:10239A0052784D6F64652E2E2E2E2E2E0D0A005366
:1023AA0049343433325F5365742054784D6F646511
:1023BA002E2E2E2E2E2E0D0A005349343433325F20
:1023CA005365742049646C654D6F64652E2E2E2EFC
:1023DA002E2E0D0A005349343433325F53656E642E
:1023EA00204649464F20646174612E2E2E2E0D0A16
:1023FA00002072657620496E746572727570740D6C
:10240A000A002073656E6420496E74657272757075
:10241A00740D0A006D6F646520726567697374656F
:05242A00723A0D0A00EA
:103D4800D3EF9400EE64809480400F7D817C14DC76
:0A3D5800FEDDFAEF1F70E91E80E6A1
:013D6200223E
:073EE400C2C3D2B3D2B22227
:093CAB00900299EFF07D017F0EFB
:103CB40090020CEDF0C2B3EF4480FF123E939002E9
:093CC4000CE0FF123E93D2B32282
:073E1100900298EFF07F041E
:0C3E1800C2B3123E937FFF123E93D2B360
:013E2400227B
:10334E007BFF7A22792A123E39E4FF123E18900250
:10335E0007EFF07BFF7A22793C123E39900207E0AC
:10336E00FF123B537BFF7A227951123E39900207AE
:10337E00E0640860037F01227F01123E189002076D
:10338E00EFF07BFF7A227954123E39900207E0FF6C
:10339E00123B537BFF7A227951123E397F02123E45
:1033AE0018900207EFF0540F70087BFF7A22796CA9
:1033BE008022900207E0540FFFBF01087BFF7A22A4
:1033CE00798B8010900207E0540FFFBF02097BFF3C
:1033DE007A2279A8123E397F09123E18900207EF21
:1033EE00F07BFF7A2279C5123E39900207E0FF1278
:0D33FE003B537BFF7A227951123E397F004C
:01340B00229E
:10327C007D537F75123CB47D4B7F76123CB4E4FDDC
:10328C007F77123CB47D097F6E123CB47DD57F6F85
:10329C00123CB47D2C7F70123CB47D807F58123C64
:1032AC00B47D1F7F6D123CB47D207F72123CB47DC7
:1032BC002C7F1C123CB47D417F20123CB47D607F7E
:1032CC0021123CB47D277F22123CB47D527F231205
:1032DC003CB4E4FD7F24123CB47D047F25123CB445
:1032EC007D407F1D123CB47D0A7F1E123CB47D0FC5
:1032FC007F2A123CB47D037F1F123CB47D607F6932
:10330C00123CB47D0C7F34123CB47D2A7F35123CC8
:10331C00B47D027F33123CB47D2D7F36123CB47DDC
:10332C00D47F37123CB47D8D7F30123CB4E4FD7FEA
:10333C0032123CB47D637F71123CB47DB47F0902C0
:02334C003CB48F
:10340C007BFF7A2279EF123E39123EE47BFF7A235E
:10341C007906123E397F147E00801312334EEF6012
:10342C00127BFF7A23791B123E397FF47E01123D09
:10343C004880E87DCA7F0B123CB47DCA7F0C123CDD
:10344C00B47DCA7F0D123CB47F0A7E00123D487BCE
:10345C00FF7A237937123E397F03123E18123E1140
:10346C00900299EFF07D807F07123CB47F147E00B0
:10347C00123D487F03123E18123E11900299EFF054
:10348C007BFF7A237966123E3912327C7DFF7F05F1
:10349C00123CB47DFF7F06123CB47F03123E18121F
:1034AC003E11900299EFF07D077F05123CB4E4FDCC
:0E34BC007F06123CB47BFF7A237978023E39FA
:103D63007F03123E18123E11123CAB7D057F0712F2
:0B3D73003CB47BFF7A23798F023E39BD
:103C63007F03123E18123E11900299EFF07D027FFE
:103C73000E123CB47D097F07123CB47BFF7A237993
:043C8300A9023E391B
:103D7E007F03123E18123E11123CAB7D017F0712DB
:0B3D8E003CB47BFF7A2379C3023E396E
:10381900900208EBF0A3EAF0A3E9F0900207EFF0B9
:01382900FDA1
:10382A007F3E123CB4E490020BF0900207E0FF9056
:10383A00020BE0FEC3EF6480F8EE64809850259096
:10384A000208E0FBA3E0FAA3E0F9EEFF3395E08F6C
:10385A0082F583121700FD7F7F123CB490020BE0C1
:10386A0004F080C6123C637BFF7A2379DF023E397B
:103622007F07123E18900204EFF07F03123E181239
:103632003E11900299EFF0900298E030E15B7BFF3F
:103642007A2379FB123E397F4B123E18900205EF26
:10365200F0BF0C2EE4900204F0900205E0FF90020D
:1036620004E0C39F501C7F7F123E18900204E024A6
:103672003CF582E43402F583EFF0900204E004F0BA
:1036820080D77D027F08123CB4E4FD7F08123CB46F
:10369200123D6390023A7401F0900298E030E20C1D
:0C36A2007BFF7A24790C123E39123D6344
:0136AE0022F9
:103C87007F07123E1890029CEFF07BFF7A24791E83
:103C9700123E3990029CE0FF123B537BFF7A227958
:043CA70051023E394F
:0B3ED10074696D653A0D0A000D0A00CF
:103C3D00E4FD7FD0123DB4900207EFF07BFF7A3E9A
:103C4D0079D1123E39900207E0FF123B537BFF7A88
:063C5D003E79D9023E3958
:1000260000000000000000000000000000000000CA
:10003600000000000018188888286A4E0CE8E808B6
:1000460008181800000444446525341C0E0F1D349E
:100056006444040000F8F888F8F81090901010FE38
:10006600FE101000001F1F081F1F00000343407FE3
:100076007F0000000020644C0800FEFE929292FE73
:10008600FE00000000303C0F437E7E7E7E427E7E78
:100096007E7E4000000000F8F828F8FAAEACA8F81A
:1000A600F82828000040703F4F42662E3A123A2E3A
:1000B6006642400000202020A0E060FFFFE0C06014
:1000C600381800002030180E0741C0FF7F010306D4
:1000D6000C1810100080C0F0FE0E9090121E1CD05E
:1000E600D01000000000007F7F40414F4E607C5FD3
:1000F6004340400000F8F888F8F81090901010FE81
:10010600FE101000001F1F081F1F00000343407F42
:100116007F0000000000F0F20EECE4242424E4E466
:1001260004FCFC0000007F7F000F0F0909090F4F38
:10013600407F7F0000808282FEFE82828282FEFEF7
:1001460082828000004060381F07000000007F7F29
:100156000000000000001010121E1CF0F0181E1601
:10016600101000000041416131190F07070F1931C6
:1001760061414100002038DFC7444444FCFC44444C
:10018600444404000404040707040404FFFF0404B1
:1001960004040404000000FEFE222222222222225F
:1001A600FEFE000080C0703F0F020202020242C241
:1001B600FF7F0000000000FEFE828282828282FEB5
:1001C600FE000000000000FFFF404040404040FFAE
:1001D600FF000000000000F8F88C8E8B898888F8F4
:1001E600F8000000000000FFFF444444444444FF7C
:1001F600FF0000004044C4C44444445010FFFF10B4
:1002060010F0F000103C3F1314BCF8703E0F41C0D4
:10021600C07F3F00101010FFFFB0B8D868290F2E1E
:1002260068E8B8180242C3FF7F40404242427E7EE1
:100236004242424040505E4E48FFFF484848F8F868
:1002460000FFFF0000003E3E02FFFF323E1E0F4F42
:10025600C0FF7F00000022323AAEA6E26331198960
:1002660081010000004262331B4BC2FE7E020A1A65
:10027600336746002030BCEF733088C8E8B99F8EDC
:10028600A8E8C888226767321292C0703F0F003F05
:100296007F40717100083830FFFF202020FFFF20CB
:1002A600222E2C2004040603FFFFC0703E0F071EFB
:1002B6003860C08000048484C46474DF9F3464C4DE
:1002C60084840400417939003C7C40424E4C4070A5
:1002D600740D3931101C4C643414050706041434AB
:1002E60064541C0C004040414141417F7F414141E3
:1002F6004140400000F8F943424242FAFA42424283
:1003060042FEFE0000FFFF080C06033F3F03064CBB
:10031600C8FF7F000000FEFE42424242FAFA424215
:1003260042C2C20280E07F9FC060381E070140C003
:10033600C07F3F000000F8F8888888FFFF8888881B
:10034600F8F80000808081C54C78303F2F6040402F
:10035600C181808090D27634FFFF3476D2F0FF8F51
:1003660008F8F808829ADE776372DE8E80C0733FE3
:100376003F73C0801010FFFF9090FEFE9292F2F243
:10038600929E9E8042C2FF7F81E07F1FFCFC474712
:1003960044FCFC00404042CECC40E0BE9E82829EA1
:1003A600BEA020200000003FBF98C8436F3C386EB7
:1003B60047C18080001717D5D557577D7D5757D52C
:1003C600D51717004040407F7F5555555555557FE9
:1003D6007F404040404042CECC00FCFCA4A42622F4
:1003E600A3E362000040603F3F785F57584D4747A0
:1003F6004D5850400000FEFE02F2F21212F2F202D6
:10040600FEFE000000007F7F2027272424272720C8
:100416007F7F000020305C4F57545454545454D4BA
:10042600D404040000000000000000000000000FDB
:100436003F70F0F08080C06030182CE7C70C183091
:1004460060C080800000000202020282C2623A1E80
:100456000600000040404242424242FEFE42424204
:10046600424240408080C060301C0F03030F1C30A6
:1004760060C080801010D0FFFF94F4EFAFA4A4AF4B
:10048600EFE40400040703FFFF89CB6B3A1E1E3A14
:100496006BCB8880101090909090909010FFFF107A
:1004A60011171610002060603F3F101010030F1C3C
:1004B6003060F8F800002424242424FCFE222223A1
:1004C60023220000020202020242C2FF7F0202024F
:1004D60002020202000000BEBE2A2AEAEA2A2A3ED8
:1004E6003E0000000044464B4949497F7F4949493F
:1004F600494140000004FFFF2424FFFF04FEFE22C2
:1005060022FEFE0088C86F2F0919BFEF783F0F4201
:10051600C2FF7F0080808080808080808080808095
:1005260080808080000000000000000000000000C5
:100536000000000000000808080808080808080865
:1005460008080000101010101010101010101010D5
:100556001010101000048484848484848484848429
:1005660084840400202020202020202020202020F9
:100576002020202000FCFC0404FCFC0404FCFC04F9
:1005860004FCFC00007F7F2C27232020202123222F
:10059600227F7F000002424242C2FE7E424242C2A7
:1005A600C202020040404040787F47404040407FC2
:1005B6007F40404020202020202021232E2C202058
:1005C60020202020004060301C0F0300000103069D
:1005D6001C7860000000183C243C18000000000055
:1005E60000000000E0380C060203010101010101D0
:1005F60001010101010101010101010101010101E5
:1006060001010101010101010101010101010101D4
:10061600010302060C38E040404040404040404064
:10062600C000FF0000000000000000000000000005
:1006360000000000000000000000000000000000B4
:1006460000000000000000000000000000000000A4
:1006560000000000FF40C000000000000000FF0096
:10066600FF00000000000000000000000000000085
:100676000000000000000000000000000000000074
:100686000000000000000000000000000000000064
:100696000000FF00FF0000F0FFF00000FF00FF0079
:1006A6000000000000000000000000000000000044
:1006B6000000000000000000000000000000000034
:1006C6000000000000000000000000000000000024
:1006D600FF00FF001CFFFFFF1C00FF00FF80000063
:1006E6000000000000000000000000000000000004
:1006F60000000000000000000000000000000000F4
:100706000000000000000000000000000080FF70F4
:100716005F0000FFFFFF00005F700003060C081873
:1007260010101010101010101010101010101010C3
:1007360010101010101010101010101010101010B3
:100746001010101010101018080C161318080810A6
:100756001018081810101008000000000000000013
:100766000000000000000000000000F8F800000093
:10077600000030333300000000100C06100C060099
:1007860000000000000000004040F840F840000073
:10079600043E053F05040000007088FC0830000098
:1007A600001820FF211E0000F008F08070080000ED
:1007B60000211C031E211E0000F0887000000000AE
:1007C6001F2027281F211000000000000000000045
:1007D60080B0F07000000000000000F0FC0E020087
:1007E6000000000F3F70400000061EF8E000000009
:1007F6000060781F070000004040C0F0F0C0404095
:100806000202030F0F030202000000F0F0000000D6
:100816000101011F1F010101000202060400000080
:1008260000000000000000000000000000000000C2
:1008360001010101010101000000000000000000AB
:10084600003030300000000000000000C0F83C0C12
:100856000060783F07010000E0F0180818F0E0009B
:100866000F1F3020301F0F00001010F8F800000096
:100876000020203F3F2020000070780808F8F00094
:1008860000303C2E233130000030388888F8700064
:1008960000183820313F1E000080C060F8F80000C4
:1008A600060705243F3F240400F8F88888880800D6
:1008B60000193921313F1F00E0F098888898180008
:1008C6000F1F3120313F1F0000383808E8F81800A4
:1008D6000000003F3F00000070F8988898F870000C
:1008E6001E3F2121313F1E00F0F8080818F8E000ED
:1008F600313322323B1F07000000C0C0C000000099
:100906000000303030000000000000808000000051
:10091600000080E060000000000080E07018080021
:100926000001030E1C302000404040404040400083
:10093600040404040404040000083870C0800000A5
:100946000020381C060301007078080818F8F0002B
:100956000000303737010000C0F0F8E8E8F8F0E0B2
:10096600071F3F2727371F0B0000E0F8F8E00000BD
:10097600203C3F23233F3C2008F8F88888F8700085
:10098600203F3F20313F1E00E0F03808083838008D
:100996000F1F30202030100008F8F80818F0E0008B
:1009A600203F3F20301F0F0008F8F888E8F81800AD
:1009B600203F3F202333300008F8F888E8E8181075
:1009C600203F3F2003030000C0F0380808383800F5
:1009D600071F3820223E1E0208F8F80808F8F80813
:1009E600203F3F21213F3F20000808F8F808080073
:1009F6000020203F3F202000000808F8F8080800E3
:100A0600C0C080FF7F00000008F8F8C8E838180862
:100A1600203F3F21273E382008F8F8080000000054
:100A2600203F3F202030300008F8F800F8F8080092
:100A3600203F003F003F200008F8F8F8C8F8F80803
:100A4600203F3F231F3F3F00E0F0180818F0E0006A
:100A56000F1F3020301F0F0008F8F80808F8F000C4
:100A6600203F3F2101010000E0F0180818F0E000E7
:100A76000F1F3C247C7F4F0008F8F88888F8700028
:100A8600203F3F21073E38200070F88808181800DC
:100A960000303021233F1E00181808F8F8081818EF
:100AA6000000203F3F20000008F8F80808F8F80882
:100AB600001F3F20203F1F000878F88888F8780834
:100AC60000000F3F3F0F000008F8FCFCF8F8F8089C
:100AD60000073F3F3F3F07000838F8E8E8F81808E6
:100AE60020303C2F2F3E38200838F8C8C8F8380880
:100AF6000000203F3F200000101808C8F838080002
:100B0600303C2F2320301000000000FEFE020200C1
:100B16000000007F7F404000001CFCE00000000059
:100B2600000000031F7C6000000202FEFE000000C1
:100B36000040407F7F00000000000406060400001D
:100B4600000000000000000000000000000000009F
:100B5600808080808080808010161E0E000000003D
:100B660000000000000000000000808080808000FF
:100B7600001D3D26223F3F2008F8F88080800000B7
:100B8600003F3F21203F1F000000808080808000C2
:100B9600001F3F31203111000000808088F8F800E6
:100BA600001F3F21203F3F20000080808080000002
:100BB600001F3F22223313008080F0F88898180027
:100BC60000203F3F202000000000808080808000C1
:100BD600006BFF9497F3600008F8F880808080002F
:100BE600203F3F21203F3F20008080989800000052
:100BF6000020203F3F2020000000808098980000C1
:100C060000C0C080FF7F000008F8F8808080800068
:100C1600203F3F263F392000000808F8F800000072
:100C26000020203F3F2020008080808080808080C0
:100C3600203F3F203F3F203F808080808080800093
:100C4600203F3F2100203F3F000080808080000041
:100C5600001F3F31213F1F00808080808080000080
:100C660080FFFFA1303F1F00000080808080800051
:100C7600001F3F21A0FFFF80808080808080800051
:100C860020203F3F212101000000808080808000DD
:100C960000333724243D1900008080E0E080800086
:100CA6000000001F3F2020008080800080808000A0
:100CB600003F3F20203F3F208080808080808080D2
:100CC60000031F3C3C1F03008080C0C080808080E2
:100CD600000F3F3F3F3F0F00808080808080800074
:100CE60020313F2E3F3120008080808080808080B0
:100CF6008083CF7E3E0F0100008080808080800050
:080D06000021393C27333000C5
:10242F0060C000000000000000000000000000007D
:10243F00000000000000000000000000000000008D
:10244F00000000000000000000000000000000007D
:10245F00000000000000000000000000000000006D
:10246F00000000000000000000000000000000005D
:10247F00000000000000000000000000000000004D
:10248F00000000000000000000000000000000003D
:10249F00000000000000000000000000000000002D
:1024AF00000000000000000000000000000000001D
:1024BF00000000000000000000000000000000000D
:1024CF0000000000000000000000000000000000FD
:1024DF0000000000000000000000000000000000ED
:1024EF000000000060C000C00000000000000000FD
:1024FF0000000000000000000000000000000000CD
:10250F0000000000000000000000000000000000BC
:10251F0000000000000000000000000000000000AC
:10252F00000000000000000000000000000000009C
:10253F00000000000000000000000000000000008C
:10254F00000000000000000000000000000000007C
:10255F00000000000000000000000000000000006C
:10256F00000000000000000000000000000000005C
:10257F00000000000000000000000000000000004C
:10258F00000000000000000000000000000000003C
:10259F00000000000000000000000000000000002C
:0825AF00000000000000000024
:040006007F057E00F4
:10000A00D3EF9400EE9400400F7D147C32DCFEDDC9
:08001A00FAEF1F70EB1E80E8F5
:0100220022BB
:103E7100D3EF9400EE94004007EF1F70F31E80F023
:013E8100221E
:043F020075BB602209
:10392C0090025FE0FF90025EE04440FBE4FD123940
:0C393C0048900262E044B8FBE4FD7F0705
:10394800EF30E002C2C2EF30E102C291EF30E20292
:10395800C292D2C6ED6004D2C58002C2C5C2C1AF50
:10396800038F80C2C6D2C2D291D2927F017E00025A
:02397800000A43
:0739C400900271E0FF7D019C
:1039CB007580FFEFB40104C2C2800EEFB40204C2D3
:1039DB00918006EFB40402C292ED6004D2C580025E
:1039EB00C2C5D2C100D2C600AC80C2C6C2C1D2C24F
:0D39FB00D291D2927F017E00123E71AF0486
:013A0800229B
:023B8700A9078C
:103B8900E4FBE930E009E4FD7F011239CBEFFBE901
:103B990030E10AE4FD7F021239CBEB4FFBE930E259
:0F3BA9000AE4FD7F041239CBEB4FFBEB20E7D191
:013BB80022EA
:103E5F00C2CA7F507E0012000AD2CA7FA07E000223
:023E6F00000A47
:103CCD007F07123B87E4FAEA123941E4F9E4FB7D00
:103CDD00017F0712394809E9B440F20AEAB408E74E
:013CED0022B4
:103C1400C2CB120006123E5F7B3E123944120006EC
:103C24007BC0123944120006123CCD1200067B3FC1
:093C3400123944120006D2CB2221
:103A09007F07123B877B40E4FD7F011239487BBA6F
:103A1900E4FD7F01123948E4FAE4F97BFF7D017F77
:103A29000112394809E9B440F27B40E4FD7F0112F3
:103A39003948EA240344B8FBE4FD7F011239480AF6
:043A4900EAB401D505
:013A4D002256
:103A4E007F07123B877B40E4FD7F021239487BBA29
:103A5E00E4FD7F02123948E4FAE4F97BFF7D017F31
:103A6E000212394809E9B440F27B40E4FD7F0212AC
:103A7E003948EA240344B8FBE4FD7F021239480AB0
:043A8E00EAB401D5C0
:013A92002211
:102F4600900209EBF0A3EAF0A3E9F0900207EFF094
:032F5600A3EDF0F8
:102F5900EF1425E0900207F0ED24FFFFE434FFFEB3
:102F6900EF7802CEC313CE13D8F9FF700790020E83
:102F790004F08016EFB4010890020E7402F0800A82
:102F8900EFB4020690020E7404F0900208E01454A3
:102F990003C454F0F0FE90020EE0FFEE4440FBE45F
:102FA900FD123948E0FF900207E044B8FBE4FD1246
:102FB9003948E490020DF090020CE090020E60187E
:102FC900E0FF900209E0FBA3E475F0011217DEA906
:102FD900F0FA1216E7F48015E0FF900209E0FBA36E
:102FE900E475F0011217DEA9F0FA1216E7FB7D016C
:102FF90012394890020DE004F0E0C3941040B890F3
:10300900020EE0FF900208E04440FBE4FD1239485B
:1030190090020EE0FF900207E00444B8FBE4FD12C1
:103029003948E490020DF090020CE090020E60180D
:10303900E0FF900209E0FBA3E475F0011217DEA995
:10304900F0FA1216E7F48015E0FF900209E0FBA3FD
:10305900E475F0011217DEA9F0FA1216E7FB7D01FB
:0F30690012394890020DE004F0E0C3941040B813
:013078002235
:102CBA0075F010A4245EF9740535F0FA7BFFE0FF85
:0A2CCA00A3E0FD14F0E4900228F0EE
:102CD400900225EBF0A3EAF0A3E9F0900223EFF0D1
:032CE400A3EDF06D
:102CE700EF1425E0900223F0ED24FFFFE434FFFE0C
:102CF700EF7803CEC313CE13D8F9FF700790022ADB
:102D070004F08016EFB4010890022A7402F0800ADA
:102D1700EFB4020690022A7404F0900224E01454DF
:102D27000775F008A4F0FE90022AE0FFEE4440FB8E
:102D3700E4FD123948E0FF900223E044B8FBE4FDCC
:102D4700123948E4900229F0900228E090022A60A4
:102D570018E0FF900225E0FBA3E475F0011217DEEF
:102D6700A9F0FA1216E7F48015E0FF900225E0FBC0
:102D7700A3E475F0011217DEA9F0FA1216E7FB7D3E
:102D870001123948900229E004F0E0C3940840B8E2
:102D970090022AE0FF900224E04440FBE4FD123950
:102DA7004890022AE0FF900223E00444B8FBE4FDC8
:102DB700123948E4900229F0900228E090022A6034
:102DC70018E0FF900225E0FBA3E475F0011217DE7F
:102DD700A9F0FA1216E7F48015E0FF900225E0FB50
:102DE700A3E475F0011217DEA9F0FA1216E7FB7DCE
:102DF70001123948900229E004F0E0C3940840B872
:012E070022A8
:10387A00900207EFF0A3EDF0A3EBF0A3EAF0A3E9BF
:10388A00F0900209E0FBA3E0FAA3E0F91216E76060
:10389A003E75F010A4245EF9740535F0FA7BFF90AA
:1038AA000207E0FFA3E0FD90020CE0122CD0900288
:1038BA0008E004F0E0D3941840097401F09002077C
:1038CA00E004F090020AE475F0011217C880B222EF
:082B510090020BEFF0A3EDF080
:102B590078117C027D017BFF7A0079267E007F0A4D
:102B69001216C1E490021BF0A37409F0E4A3F0A3C8
:102B7900F0A312180E0000000190020DE0FCA3E082
:102B8900FDA3E0FEA3E0FFEC33501690021D740193
:102B9900F090020DA3A3A3E01217F490020D1218EE
:102BA9000290020DE0FCA3E0FDA3E0FEA3E0FFEC30
:102BB9004D4E4F6074E47B0AFAF9F890020DA3A315
:102BC900A3E0123A93AC00AD01AE02AF0390021F2D
:102BD90012180290021FA3A3A3E02430FF90021B46
:102BE900E0FE04F074112EF582E43402F583EFF06F
:102BF90090020DE0FCA3E0FDA3E0FEA3E0FFE47B6F
:102C09000AFAF9F8123A9390020D12180290021B6F
:102C1900E06402708CE0FF04F074112FF582E43453
:102C290002F583742EF0022BAA90021BE0D39403C1
:102C3900502AE0FF04F074112FF582E43402F58381
:102C49007430F090021BE0B402DFFF04F074112F1E
:102C5900F582E43402F583742EF080CD90021DE0F4
:102C6900601490021BE0FF04F074112FF582E43424
:102C790002F583742DF0E490021CF090021BE0FF32
:102C8900A3E0FEC39F502974112EF582E43402F5A6
:102C990083E090020B122CBA90020CE0700A9002A9
:102CA9000BE004F0A37418F090021CE004F080CB50
:012CB90022F8
:08307900900207EFF0A3EDF057
:10308100780D7C027D017BFF7A0079307E007F0A1A
:103091001216C1E4900217F0A37409F0E4A3F0A39F
:1030A100F0A312180E00000001900209E0FCA3E059
:1030B100FDA3E0FEA3E0FFEC33501290021974016E
:1030C100F0900209A3A3A3E01217F480669002090D
:1030D100E0FCA3E0FDA3E0FEA3E0FFEC4D4E4F605A
:1030E1005AE47B0AFAF9F8900209A3A3A3E0123A81
:1030F10093AC00AD01AE02AF0390021B1218029017
:10310100021BA3A3A3E02430FF900217E0FE04F00A
:10311100740D2EF582E43402F583EFF0900209E09C
:10312100FCA3E0FDA3E0FEA3E0FFE47B0AFAF9F8CB
:10313100123A939002091218028092900219E060EB
:1031410014900217E0FF04F0740D2FF582E43402AD
:10315100F583742DF0E4900218F0900217E0FFA3BC
:10316100E0FEC39F5029740D2EF582E43402F583ED
:10317100E0900207122CBA900208E0700A90020750
:0F318100E004F0A37418F0900218E004F080CB83
:01319000221C
:0A2E0800900208EDF0AC07A3EBF018
:102E1200E4900214F0EB24FFFFE434FFFEEF7803AA
:102E2200CEC313CE13D8F904900209F0EC24FFFFAD
:102E3200E434FFFEEF7803CEC313CE13D8F9900229
:102E420010F0900208E0FF14543F900211F0FDEFE1
:102E520024FFFFE434FFFEEF7806CEC313CE13D86F
:102E6200F9FF7401A807088002C333D8FCFF90025F
:102E720012F0900214F0ED4440FBE4FD1239489048
:102E82000210123940E490020EF0900209E0FF9025
:102E9200020EE0C39F4003022F45E4A3F090020A12
:102EA200E0FF90020FE0FEC39F506AEEFF9002081F
:102EB200E02FFFE433CF24FFCF34FFFEEF7806CEBE
:102EC200C313CE13D8F975F00384AFF07401A807C9
:102ED200088002C333D8FCFF900213F0A3E06F60B6
:102EE2000E900213E0FFA3F07B40E4FD12394890FC
:102EF2000213E0FF90020BE0FBA3E475F00112174E
:102F0200DEA9F0FA1216E7FB7D0112394890020F92
:102F1200E004F08088900212E0FF900214F0900228
:102F220011E04440FBE4FD12394890020EE0FF90AC
:102F32000210E02F54070412394190020EE004F00F
:032F4200022E8CD0
:012F45002269
:0F260A00900267EFF0900269EBF0900268EDF03C
:10261900E4900273F0ED14543F900270F0FCED2445
:10262900FFFFE434FFFEEF7806CEC313CE13D8F9CB
:10263900FF7401A807088002C333D8FCFF90027118
:10264900F0900273F0EC4440FBE4FD12394890022B
:1026590067E0141239411239C4E490026EF0900215
:1026690069E0FF90026EE0C39F400302273AE4A3AA
:10267900F090026AE0FF90026FE0FEC39F40030200
:10268900270AEEFF900268E02FFFE433CF24FFCF43
:1026990034FFFEEF7806CEC313CE13D8F975F003D5
:1026A90084AFF07401A807088002C333D8FCFF90F7
:1026B9000272F0A3E06F600E900272E0FFA3F07B5C
:1026C90040E4FD1239489002721239C7AD079002F1
:1026D9006AE0FF90026EE08FF0A4FFA3E07A002F7A
:1026E900FFEA35F0FE90026BE0FBA3E0FAA3E0F904
:1026F9008F828E83ED12173F90026FE004F002265D
:102709007A900271E0FF900273F0900270E0444009
:10271900FBE4FD12394890026EE0FF900267E02F5A
:1027290054071239411239C490026EE004F00226AE
:10273900677F07123B87900270E04440FBE4FD7F0E
:1027490002123948900267E01444B8FBE4FD7F02A5
:10275900123948E490026EF0900269E0FF90026E2F
:10276900E0C39F506EE4A3F090026AE0FF90026F0D
:10277900E0FDC39F503190026EE08FF0A47C002DE4
:10278900FFEC35F0FE90026BE0FBA3E0FAA3E0F961
:102799008F828E83121700FB7D017F0212394890C8
:1027A900026FE004F080C1900270E04440FBE4FD58
:1027B9007F0212394890026EE0FF900267E02F54C1
:1027C9000744B8FBE4FD7F0212394890026EE00429
:0327D900F0808508
:0127DC0022DA
:071C9200900259EDF0AC07D0
:101C9900E4900261F0EC24FFFFE434FFFEEF7803E7
:101CA900CEC313CE13D8F9900262F0EC1454079006
:101CB9000265F0EC2B145407A3F0900265E0FDFFD8
:101CC900EB2FFFE433FEEF7803CEC313CE13D8F91D
:101CD900FFED2B540760047E0180027E00EE2FFF8A
:101CE900900264F0900262E02F14A3F0900259E090
:101CF900FD14543F90025EF0ED24FFFFE434FFFE33
:101D0900EF7806CEC313CE13D8F9FF7401A80708DC
:101D19008002C333D8FC90025FF0900261F0900218
:101D290065E07003021DEA12392C90025F1239C76F
:101D3900E490025CF090025BE0FFA3E0FEC39F40E9
:101D490003021DE2EEFF900259E02FFFE433CF2496
:101D5900FFCF34FFFEEF7806CEC313CE13D8F97543
:101D6900F0038490025DE5F0F0E0FF7401A8070834
:101D79008002C333D8FCFF900260F0A3E06F600ECD
:101D8900900260E0FFA3F07B40E4FD123948900225
:101D9900601239C790025CE0FE2400F582E4340049
:101DA900F583EFF074002EF582E43400F583C083E7
:101DB900C082E0FF900265E0FEC374079EFE747F57
:101DC900A806088003A2E713D8FB5FD082D083F06E
:101DD90090025CE004F0021D3E90025FE090026117
:101DE900F0900266E07003021EBB90025FE0FF9074
:101DF900025EE04440FBE4FD123948900263123967
:101E09004090025F1239C7E490025CF090025BE0F7
:101E1900FFA3E0FEC39F4003021EB3EEFF900259E9
:101E2900E02FFFE433CF24FFCF34FFFEEF7806CE57
:101E3900C313CE13D8F975F0038490025DE5F0F071
:101E4900E0FF7401A807088002C333D8FCFF9002A1
:101E590060F0A3E06F600E900260E0FFA3F07B40AA
:101E6900E4FD1239489002601239C790025CE0FE25
:101E790024C0F582E43400F583EFF074C02EF582B6
:101E8900E43400F583C083C082E0FF900266E0FE7F
:101E990074FFA806088002C333D8FC5FD082D083C0
:101EA900F090025CE004F0021E1590025FE09002DF
:101EB90061F012392CE4FA900264E0FFEAC39F4012
:101EC90003021FD7E490025CF090025BE0FFA3E0FD
:101ED900FEC39F4003021FB3EEFF900259E02FFF9C
:101EE900E433CF24FFCF34FFFEEF7806CEC313CE01
:101EF90013D8F975F0038490025DE5F0F0E0FF7402
:101F090001A807088002C333D8FCFF900260F0A340
:101F1900E06F600E900260E0FFA3F07B40E4FD12E9
:101F29003948900265E0F9602EA3E0602A900264C6
:101F3900E0B40123900260E0FF90025CE0FE24C05F
:101F4900F582E43400F583E0FD74002EF582E43473
:101F590000F583E04D8044E96018EA70159002604D
:101F6900E0FF90025CE02400F582E43400F583E0B0
:101F79008029900266E0601D900264E014B50215A4
:101F8900900260E0FF90025CE024C0F582E4340036
:101F9900F583E08006900260E0FFE4FB7D011239E1
:101FA9004890025CE004F0021ED290025FE0FF90CC
:101FB9000261F090025EE04440FBE4FD1239489072
:0E1FC9000262E02A5407041239410A021EC0C7
:011FD70022E7
:07190D00900249EDF0AC0768
:10191400E4900251F0900257F0EC24FFFFE434FF0E
:10192400FEEF7803CEC313CE13D8F9900252F0EC35
:10193400145407900255F0EC2B145407A3F09002B2
:1019440055E0FDFFEB2FFFE433FEEF7803CEC31326
:10195400CE13D8F9FFED2B540760047E0180027E7C
:1019640000EE2FFF900254F0900252E02F14A3F0E7
:10197400900249E0FD14543F90024EF0ED24FFFF25
:10198400E434FFFEEF7806CEC313CE13D8F9FF7408
:1019940001A807088002C333D8FC90024FF09002DC
:1019A40051F0900255E07003021A7D90024FE0FF5F
:1019B40090024EE04440FBE4FD123948900252127A
:1019C400394090024F1239C7E490024CF090024B18
:1019D400E0FFA3E0FEC39F4003021A75EEFF9002EE
:1019E40049E02FFFE433CF24FFCF34FFFEEF780626
:1019F400CEC313CE13D8F975F0038490024DE5F0ED
:101A0400F0E0FF7401A807088002C333D8FCFF90FC
:101A14000250F0A3E06F600E900250E0FFA3F07B51
:101A240040E4FD1239489002501239C790024CE04C
:101A3400FE2400F582E43400F583EFF074002EF503
:101A440082E43400F583C083C082E0FF900255E055
:101A5400FEC374079EFE7480A806088003A2E713E1
:101A6400D8FB4FD082D083F090024CE004F00219EE
:101A7400D190024FE0900251F0900256E0700302C0
:101A84001B6090024FE0FF90024EE04440FBE4FDF7
:101A940012394890025312394090024F1239C7E468
:101AA40090024CF090024BE0FFA3E0FEC39F400382
:101AB400021B58EEFF900249E02FFFE433CF24FFCE
:101AC400CF34FFFEEF7806CEC313CE13D8F975F0EA
:101AD400038490024DE5F0F0E0FF7401A80708804C
:101AE40002C333D8FCFF900250F0A3E06F600E9065
:101AF4000250E0FFA3F07B40E4FD1239489002500D
:101B04001239C790024CE024C0F582E43400F58316
:101B1400EFF01D900256E0FEEDC39E500AA3E025AF
:101B2400E04401F00D80EC90024CE024C0F582E426
:101B34003400F583C083C082E0FF900257E0FEEFDB
:101B44004ED082D083F0E4900257F090024CE0042F
:101B5400F0021AA890024FE0900251F090024FE078
:101B6400FF90024EE04440FBE4FD123948900252DB
:101B7400123940E4FA900254E0FFEAC39F400302A2
:101B84001C91E490024CF090024BE0FFA3E0FEC3F2
:101B94009F4003021C6DEEFF900249E02FFFE433E7
:101BA400CF24FFCF34FFFEEF7806CEC313CE13D875
:101BB400F975F0038490024DE5F0F0E0FF7401A89C
:101BC40007088002C333D8FCFF900250F0A3E06FF3
:101BD400600E900250E0FFA3F07B40E4FD12394810
:101BE400900255E0F9602EA3E0602A900254E0B41C
:101BF4000123900250E0FF90024CE0FE24C0F582E5
:101C0400E43400F583E0FD74002EF582E43400F53D
:101C140083E05D803CE96018EA7015900250E0FFB3
:101C240090024CE02400F582E43400F583E0802146
:101C3400900256E0601E900254E014B50216900221
:101C440050E0FF90024CE024C0F582E43400F583B8
:101C5400E0FB8007900250E0FF7BFF7D01123948D2
:101C640090024CE004F0021B8B90024FE0FF9002C4
:101C740051F090024EE04440FBE4FD1239489002DA
:0D1C840052E02A5407041239410A021B796C
:011C91002230
:103E8200E4F5CF75CDC030020475CED02275CE4098
:013E9200220D
:0D3E93008FCFE5CD30E7FB75CDC0AFCF225E
:103E2500438920759840758DDC858D8BE4F587D2A7
:043E3500ACD28E225B
:083EDC008F993099FDC2992273
:023B5300AE07BB
:103B5500EEC4540FFDC36480948AED500424308074
:103B65000424F62461FF123EDCEE540FFDC364808D
:103B7500948AED50042430800424F62461FF123E1B
:013B8500DC63
:013B8600221C
:073EEB00EF2430FF023EDC72
:103E39001216E7FF600C123EDC740129F9E43AFA24
:033E490080EE22E6
:0D3BB900900292EBF0A3EAF0A3E9F0AE0752
:103BC600E4FDEDC39E501A900292E0FBA3E0FAA337
:103BD600E0F98D82758300121700FF123EDC0D801E
:013BE600E1FD
:013BE70022BB
:03002300023D2C6F
:063D2C00C0E0C083C0826C
:0F3D320030980CC298C2AF900203E599F0D2AF5F
:073D4100D082D083D0E032F4
:013F06002298
:063EF200000000000022A8
:053EF800D2B7D2B62292
:063DFC00123CEE123D1422
:0F3E0200D2B6D2B7123EF2C2B6123EF2C2B72209
:0C3EAD00C2B6D2B7123EF2D2B6023EF20C
:063D0E00123E02123CEE21
:103D1400D2B7123EF230B608C2B7123EF27F00228A
:083D2400C2B7123EF27F01223A
:0C3EB900C2B6D2B7123EF2C2B7023EF20F
:0C3EC500D2B6D2B7123EF2C2B7023EF2F3
:103CEE00E4FEEF30E703D38001C392B6EF25E0FF89
:0F3CFE00D2B7123EF2C2B7123EF20EEEB408E396
:013D0D002293
:103BE800E4FED2B6FDEE25E0FED2B7123EF230B6C4
:103BF800034401FEC2B7123EF20DEDB408E7EF60D0
:0B3C080005123EB98003123EC5AF0656
:013C1300228E
:103D9900123D0EAC07AF05123CEE123D14AF0312F3
:0A3DA9003CEE123D14123EADAF04D3
:013DB30022ED
:023DB400AC075A
:103DB600123D0EAF05123DFCEC04FF123CEE123D27
:063DC60014E4FF123BE8CB
:013DCC0022D4
:1038DA00AD07123D0EEF7006123EAD7F0122900237
:1038EA0080E0FF123DFCED04FF123CEE123D149005
:1038FA000281E0FF6026B4010BE4FF123BE8EF12FD
:10390A00172D80107F01123BE8EF12172D74012941
:10391A00F9E43AFA900281E014F080D3123EAD7FC6
:02392A00002279
:103AD700123D0EEF7002801E900286E0FF123CEE50
:103AE700123D14900287E060221216E7FF123CEEA7
:103AF700123D14EF7006123EAD7F0122740129F9C1
:103B0700E43AFA900287E014F080D8123EAD7F00C5
:013B1700228B
:1025B7004C023C0000000000000000000000004C3E
:1025C700022E000000000000000000000000410291
:0C25D7003A0041023B0043022B01027459
:013F07002297
:013F08002296
:1031910090023EE0FE6410706CA3E07068A3E0FF53
:1031A10090022BE0FBA3E0FAA3E0F9EF12172D90B8
:1031B1000241E0FF90022BE0FBA3E0FAA3E0F990CB
:1031C1000001EF12173F900242E090000212173FF8
:1031D100900243E090000312173F900244E09000F8
:1031E1000412173F900245E090000512173F90022C
:1031F10046E090000612173F900247E09000071248
:10320100173F7F0122EE6411706E90023FE07068FB
:10321100A3E0FF90022BE0FBA3E0FAA3E0F9EF1299
:10322100172D900241E0FF90022BE0FBA3E0FAA3EF
:10323100E0F9900001EF12173F900242E090000286
:1032410012173F900243E090000312173F9002448F
:10325100E090000412173F900245E090000512171C
:103261003F900246E090000612173F900247E0901F
:0B327100000712173F7F02227F00229F
:103DCD0074656D70313A0D0A000D0A0041444320AF
:083DDD00646174613A0D0A00F3
:0B25E3004802746161626263630000E3
:10358300900274E0FEA3E0FDEDFF900207EEF0A3CE
:10359300EFF07BFF7A3D79CD123E39900274E0FF64
:1035A300123B537BFF7A3D79D6123E39900276E087
:1035B300FEA3E0FDEDFF900209EEF0A3EFF07BFF29
:1035C3007A3D79CD123E39900209A3E0FF123B53B5
:1035D3007BFF7A3D79D6123E39D3900208E0948876
:1035E300900207E0941340077422F0A374B8F0909C
:1035F3000207E0FEA3E0FFE4FCFD90020D121802B7
:103603007D167F02122B51900209E0FEA3E0FFE436
:0F361300FCFD90020D1218027D167F03022B5151
:10397A00900278E0FEA3E0FDEDFBAA06E4FEFDFC62
:10398A00C39DF582EE9CF5837D64AF03AE021217E8
:10399A0061AD82AC831217737BFF7A3D79D9123EEF
:1039AA0039900278E0FF123B53900279E0FF123B14
:0A39BA00537BFF7A3D79D6023E39B7
:100D0E003A004300484F4D4500250000000000000A
:100D1E0000000000000000000000000000000000C5
:100D2E0000000000000000000000000000000000B5
:100D3E0000000000000000000000000000000000A5
:100D4E000000000000000000000000000000000095
:100D5E000000000000000000000000000000000085
:100D6E000000000000000000000000000000000075
:100D7E000000000000000000000000000000000065
:100D8E000000000000000000000000000000F0FF66
:100D9E00F0001CFFFFFF1C00FFFFFF00FF7F3F3F27
:100DAE003F3F3F3F3F3F3F3F3F7FFFFF3F1F1F1FE5
:100DBE001F1F7FFFFFFFFF7F7FFFFFFFFFFFFFFF75
:100DCE00FFFF7F7F3F7F7FFFFFFFFFFFFFFFFFFFE5
:100DDE00FFFFFF3F1F1F1F1F1F3FFFFFFFFFFFFFF5
:100DEE00FFFFFFFFFFFFFFFFFFFFFFFFFFFFFFFF05
:100DFE00FFFFFFFFFFFF3F1F1F1F1F1F3FFFFFFFD5
:100E0E00FF3F3F3F3F3F3F3F3F3F3F3F3F3F3FFF64
:100E1E00FFFFFFFFFFFFFFFFFFFFFFFFFFFF7F3F14
:100E2E003F1F1F1F1F1F1F3F3F7FFFFFFFFFFFFFC4
:100E3E00FFFFFFFFFFFFFFFFFFFFFFFF3F1F1F1F14
:100E4E001F1FBF7F3F1F1F1F1F3FFFFFFFFFFFFF24
:100E5E00FFFFFFFFFFFFFFFFFFFFFFF8F070707057
:100E6E00707000000000000000FF00000000000095
:100E7E00000F030100000080E0FBFFFFFFFFFFF902
:100E8E00F0E0E0C080800081C3FF99818181818183
:100E9E00000000000000000081818181818181E3DA
:100EAE00FFFFFFFFFFFFFFFFFFFFFFFFFFFFFFC182
:100EBE00C0800000000000C0203010102061C17EF4
:100ECE00000000008C8C8C8C000000000000FFFFE6
:100EDE00FF7F1F0F0F0707030101000000E010083E
:100EEE000808081830C00000000001030307070FB0
:100EFE000F1FFFFFFFFFFF3F0F01000000C0300C70
:100F0E000300000000000000010101018101010148
:100F1E000101010183FFFFFFFFFF00000000000041
:100F2E00101010107E8381810000000080406060F0
:100F3E00206040808181818181E7FFFFFFE1C0C099
:100F4E00800000010307CFFFC181818181818080F4
:100F5E00808080808080818181818181C1FFFFFFBF
:100F6E00FFFFFFFFFFFFFFFFFFFFFFFFF7C3810044
:100F7E000080000001070C1830E0C0E0E09B0C0080
:100F8E00000031313131000000000000FFFFFFFF93
:100F9E00FCF8F8C402020202020202838280808000
:100FAE008080C00103020202020202C6FCF8F8FCB5
:100FBE00FFFFFF03000000000000000306C4380816
:100FCE00080C0603078C70000018FF06040C0C0CAE
:100FDE000C3EFFFFFFFFFFFFFC7C7C7CFC7C0000D7
:100FEE000000000000FF000000000F302020204015
:100FFE008001030F1F3F7FFFFFFFFFFF7F3F1F0F8C
:10100E00030101010383E739000000000000E0E066
:10101E00E0E0E000000000000001FFFFFFFFEF83B3
:10102E00010101010103CFFFFFFFFF7F0F07030344
:10103E00020204FE06030F73C18000000102040CBD
:10104E00FCFCC40002020204041E7FFFFFFFFF0F20
:10105E00030101010103FF0101083F61C180000787
:10106E000C081090F0F00804030303070F3FFFFF76
:10107E00FFFFFFFEFE00000000384681808080806A
:10108E00C0607C4300000000010E70C08000008034
:10109E0081EFFFFFFFF9E0E0E0C0C0C0C0C0E0E0BC
:1010AE00E0F0FCFFE0C0C0E0E0E0E0F0F0F8FFF8B8
:1010BE00F0E0E0E0F0F9FFFFFFF0E0E0C0E0E0F08C
:1010CE00F8FCFEFFFFE0C0C0C0C0C0C0C0C0C0C0C2
:1010DE00C0C0C0C0C0C0C0E0FFFFFFFFFFFFFFFFEA
:1010EE00FCFEFEFFFFFFFFFFF9F0E0E0E0E0F0F8AE
:1010FE00FFF9E0C0C0C0C0C3C3C6C6C6C3C3C1C02B
:10110E00C1E7FCF8F0F0F0F8F8FFFFFFF0E0E0E0E8
:10111E00E0E0F0F8FFF0E0C0C0C0C0C1C1C2C2C282
:10112E00C3C1C0C0E7FCF0F0E0F0F0F0FFFFFFFF3E
:10113E00FFFFFFE0C0C0C0C0C0E0FFFFFFFFE0C088
:10114E00C0C0C0C0C0C0C0E0F0FFFFFFFFFFFFFF88
:10115E00FFFFFF1F0F0F0F0F0F0F0F0F0F0F0F0FB1
:10116E000F0F0F0F0F0F03010101030303070707F3
:10117E000F0F0F1F1F1F3F3F3F7F7F7FFFFFFFFFA1
:10118E00FFFFFF3F1F1F1F1F1F1F1F1F1F1F1F1FA1
:10119E001F1F1F1F1F1F070303030707070F0F0F35
:1011AE001F1F1F3F3F3F7F7F7FFFFFFFFFFFFFFFA1
:1011BE00FFFFFFFF3F1F1F1F1F1F1F1F1F1F1F1F91
:1011CE001F1F1F1F1F1F1F070303030707070F0FF5
:1011DE000F1F1F1F3F3F3F7F7F7FFFFFFFFFFFFF61
:1011EE00FFFFFFFF3F1F1F1F1F1F1F1F1F1F1F1F61
:1011FE001F1F1F1F1F1F1F070303030707070F0FC5
:10120E000F1F1F1F3F3F3F7F7F7FFFFFFFFFFFFF30
:10121E00FF80000000000000000000000000000041
:10122E0000000000000000000000000000000000B0
:10123E0000808080C0C0C0E0E0E0F0F1FFFFFFFF63
:10124E00FF00000000000000000000000000000091
:10125E000000000000000000000000000000000080
:10126E0000000000808080C0C0C0E1E3FFFFFFFFF0
:10127E00FFFF000000000000000000000000000062
:10128E000000000000000000000000000000000050
:10129E000000000000808080C0C0C0E1E3FFFFFFBF
:1012AE00FFFF000000000000000000000000000032
:1012BE000000000000000000000000000000000020
:1012CE000000000000808080C0C0C0E1E3FF3F3F0F
:1012DE003F3F3F3F3F3F3F3F3F3F3F3F3F3F3F3F10
:1012EE003F3F3C3838383C3C3C3E3E3E3F3F3F3F24
:1012FE003F3F3F3F3F3F3F3F3F3F3F3F3F3F3F3FF0
:10130E003E3E3E3E3E3E3E3E3E3E3E3E3E3E3E3EEF
:10131E003E3E383030303838383C3C3C3E3E3E3F26
:10132E003F3F3F3F3F3F3F3F3F3F3F3F3F3F3F3FBF
:10133E003F3E3E3E3E3E3E3E3E3E3E3E3E3E3E3EBE
:10134E003E3E3E383030303838383C3C3C3E3E3EF7
:10135E003F3F3F3F3F3F3F3F3F3F3F3F3F3F3F3F8F
:10136E003F3E3E3E3E3E3E3E3E3E3E3E3E3E3E3E8E
:10137E003E3E3E383030303838383C3C3C3E3E3EC7
:0C138E003F3F3F3F3F3F3F3F3F3F3F3F5F
:0E25EE00C10041029500410296004102970093
:0537B700900180EFF01D
:1037BC0078817C017D017BFF7A0D79197E007F82F7
:1037CC001216C1900180E0602FB20030001B9002F5
:1037DC000A7405F0A374FFF0A3740DF0A3749BF0AE
:1037EC007B187D377F11022E0890025B7405F07BED
:1037FC00187D377F11021C9230001190025B74050A
:0C380C00F07B187D377F11121C92C20067
:01381800228D
:1029980090020A743EF0A374FFF0A37405F0A374C8
:1029A800EAF07B2D7D017F01122E087BFF7A0079EA
:1029B8003AE490020CF07D057F01122F467BFF7AE6
:1029C80000795AE490020CF07D067F01122F467BB5
:1029D800FF7A0079BAE490020CF07D077F01122F8C
:1029E800467BFF7A00797AE490020CF07D087F013B
:1029F800122F467BFF7A0D790EE490020CF07D11C0
:102A08007F0112387A90020D12180E000022B87D4C
:102A1800167F01122B517BFF7A0579DAE4900228A0
:102A2800F07D177F01122CD47BFF7A0D7910E4908A
:102A3800020CF07D187F0112387A7BFF7A02799AAE
:102A4800E490020CF07D057F02122F467BFF7A028C
:102A580079BAE490020CF07D067F02122F467BFFC4
:102A68007A0D790EE490020CF07D0D7F0212387A0F
:102A78007BFF7A0279DAE490020CF07D0A7F021279
:102A88002F467BFF7A0279FAE490020CF07D0B7FE7
:102A980002122F467BFF7A04797AE490020CF07DCB
:102AA800057F03122F467BFF7A04799AE490020C83
:102AB800F07D067F03122F467BFF7A0D790EE49096
:102AC800020CF07D0D7F0312387A7BFF7A0179DAE8
:102AD800E490020CF07D0A7F03122F467BFF7A01F7
:102AE80079FAE490020CF07D0B7F03122F467BFFEE
:102AF8007A03791AE490020CF07D027F04122F46C3
:102B08007BFF7A03793AE490020CF07D037F04128C
:102B18002F467BFF7A03799AE490020CF07D067FBA
:102B280004122F467BFF7A0379BAE490020CF07DF9
:102B3800077F04122F467BFF7A0D791290020C74DE
:092B480001F07D137F0402387ACC
:1027DD007BFF7A0079BAE490020CF07D037F011241
:1027ED002F467BFF7A0079DAE490020CF07D047FAE
:1027FD0001122F467BFF7A0179DAE490020CF07D0D
:10280D00057F01122F467BFF7A0179FAE490020CC5
:10281D00F07D067F01122F467BFF7A02791AE49034
:10282D00020CF07D077F01122F467BFF7A02793A69
:10283D00E490020CF07D087F01122F467BFF7A0297
:10284D00795AE490020CF07D097F01122F467BFF2F
:10285D007A02797AE490020CF07D0A7F01122F46FC
:10286D0090020912180E000007E07D0A7F02123057
:10287D00797BFF7A01797AE490020CF07D067F0274
:10288D00122F4690020912180E000000017D0E7FD6
:10289D00021230797BFF7A01799AE490020CF07D77
:1028AD00087F02122F4690020912180E0000000137
:1028BD007D127F021230797BFF7A0179BAE49002A2
:1028CD000CF07D0A7F02122F4690020912180E009D
:1028DD000000177D067F031230797BFF7A0D790E8C
:1028ED00E490020CF07D077F0312387A90020912F2
:1028FD00180E0000003B7D097F031230797BFF7AB3
:10290D000D790EE490020CF07D0A7F0312387A9057
:10291D00020912180E0000003B7D0C7F0312307966
:10292D007BFF7A0479DAE490020CF07D087F0312C4
:10293D002F467BFF7A0479FAE490020CF07D097F33
:10294D0003122F467BFF7A0579BAE490020CF07DD5
:10295D000A7F03122F4690020D12180E000022B8A6
:10296D007D0E7F04122B517BFF7A0579DAE49002FC
:10297D0028F07D0F7F04122CD47BFF7A0D7910E4A3
:0B298D0090020CF07D107F0402387AED
:0A1FD80090028FEDF090028EEFF002
:101FE200E4900290F0AC07EC12153C7BF67A28796B
:101FF2001C7840121495E4FBFA7980783F1213A101
:1020020012157090028FE06005E4900296F0900243
:1020120096E0FEC3EF9E900295F0C36480948050D8
:102022000D9002907401F0900295E0F404F0E490B7
:102032000291F0900295E0FF3395E0FE900291E06C
:10204200C39FEE6480F874809840030221D190020D
:1020520090E0FF9002966005E014F08003E004F047
:10206200900296E024FE604A14606B147003022012
:10207200FC24DE7003022120147003022143147039
:1020820003022165147003022187242860030221C0
:1020920095EF600F90025B742BF07B017D057F2A28
:1020A2000221AF90024B7429F07B017D067F2B0247
:1020B20021C5900290E0600F90025B742DF07B01CD
:1020C2007D047F290221AF90024B742BF07B017DAE
:1020D200057F2A0221C5900290E0600F90025B7496
:1020E2002DF07B017D047F280221AF90024B742DDD
:1020F200F07B017D047F290221C5900290E0600FF0
:1021020090025B742FF07B017D037F270221AF9049
:10211200024B742DF07B017D047F280221C59002C1
:1021220090E0600E90025B742DF07B017D047F05D0
:10213200807B90024B742DF07B017D047F0602218F
:10214200C5900290E0600E90025B742BF07B017DE3
:10215200057F04805890024B742DF07B017D047F33
:10216200058060900290E0600E90025B7429F07B23
:10217200017D067F03803690024B742BF07B017D3C
:10218200057F04803E90024B7429F07B017D067F1F
:10219200038030900290E09002966016E0FFC374D4
:1021A2002B9FFF90025B742FF07B017D03121C9228
:1021B2008014E0FFC3742C9FFF90024B742FF07BBE
:1021C200017D0312190D900291E004F00220359076
:1021D200028EE0FF3395E0FEFDFC90020912180228
:1021E2007D047F021230797BFF7A0D7917E4900229
:1021F2000CF07D057F0212387A90028EE0FFB46304
:102202001E900297E0FEC3EF9EC364809480500F3D
:1022120090024B7408F07B107D097F1112190D900A
:07222200028EE0900297F02C
:012229002292
:103DE50076616C69642064617461207265636569DC
:073DF5007665642E0D0A0043
:0D25FC0041028D00C101440289616263004B
:0C3EA0007FB27EE67D0CDDFEDEFADFF670
:013EAC0022F3
:063E4C00123E52123E522C
:0C3E52007FD97EAB7D49DDFEDEFADFF695
:013E5E002241
:053EFD00D288D2A822CA
:1034CA00123E52438E40123EFD123E25D202123E59
:1034DA0082123EF8123F02123C14123E52123C3D36
:1034EA0012340C123D63D2AF90028DE054F1F030E9
:1034FA009304E0F0802830940C20010990028DE0BA
:10350A004402F0801930940C30010990028DE04495
:10351A0006F0800A20940790028DE04404F090029D
:10352A008DE0540E70C21229989002307410F0E4A3
:10353A00A3F090022E7455F0A374AAF07B017A02CC
:10354A00792E7F0C12381990023AE06017E4F012D3
:10355A003191BF020F7BFF7A3D79E5123E3912396C
:10356A007A123583123C3DC2A6123E4C123CCD1251
:09357A0027DDD2A6123E4C80B000
:10373B0090029AEEF0A3EFF07C277D101217731214
:10374B003EEB90029AE0FEA3E0FF7C037DE81217AC
:10375B00737C007D0A121773AF05123EEB90029A31
:10376B00E0FEA3E0FF7C007D641217737C007D0AF2
:10377B00121773AF05123EEB7F2E123EDC90029AAE
:10378B00E0FEA3E0FF7C007D0A1217737C007D0A2C
:10379B00121773AF05123EEB90029AE0FEA3E0FF07
:0C37AB007C007D0A121773AF05023EEB94
:03000300023B18A5
:103B1800C0E0C0F0C083C082C0D075D000C000C073
:103B280001C002C003C004C005C006C00712362287
:103B3800D007D006D005D004D003D002D001D000E1
:0B3B4800D0D0D082D083D0F0D0E0328B
:10139A000215DCE86480F8E933E83360110460F090
:1013AA00ED33EC337009E8FCE9FDEAFEEBFF2204B9
:1013BA0060DED3EB9FEA9EE99DE8C2E78CF0C2F7B4
:1013CA0095F0400CE8CCF8E9CDF9EACEFAEBCFFB80
:1013DA001215A785D0F05804700320D5B3E804701D
:1013EA00075002B2D50215E692D5EC0460F7E4CCB8
:1013FA00C0E0C398F8603B94186008400DD0E0FB49
:10140A000215BEE4FBFAC9FC8028E830E406E4C908
:10141A00FBE4CAFCE830E305E4C9CACBFCE854079C
:10142A006010F8C3E913F9EA13FAEB13FBEC13FCA7
:10143A00D8F130F52FC3E49CFCEF9BFFEE9AFEED4A
:10144A0099FDD0E0FBEF4E4D4C701222DB030215E2
:10145A00E3EC2CFCEF33FFEE33FEED33FDED30E72A
:10146A00EB0215BEEF2BFFEE3AFEED39FDD0E0FBA5
:10147A0050130BBB00030215E6ED13FDEE13FEEF4E
:08148A0013FFEC13FC0215BE78
:101492000215E6EC5D046005E8590470030215DCF0
:1014A2001215A7580460F6EC4860F2EC7004FDFED9
:1014B200FF22C860DB2481C85009C398600250062D
:1014C2000215E39850CAF582E9294B4A7005AB82AE
:1014D2000215D275F0007C1A7880C3EF9BEE9AED6C
:1014E20099400DC3EF9BFFEE9AFEED99FDE842F0A5
:1014F200DC23ACF0D0E0FFD0E0FED0E0FDAB8220F8
:10150200E7101BEB60BAEC2CFCEF33FFEE33FEED81
:1015120033FD0215BEE803F830E705C0F075F000B0
:10152200EF2FFFEE33FEED33FD40B830E7C280AA65
:1015320075F020800E75F010800575F0087D007E34
:10154200007F003392D530D5031217F4EC334010EC
:10155200EF33FFEE33FEED33FDEC33FCD5F0ED223D
:0E156200E5F0247EA2D513CC92E7CDCEFF2279
:10157000EDD2E7CD33EC3392D524814006E4FFFE73
:10158000FDFC22FCE4CFCECDCC24E0501174FF80D2
:10159000EDC3CC13CCCD13CDCE13CECF13CF04706F
:0715A000F030D5DE0217F464
:1015A700E9D2E7C933E833F892D5EDD2E7CD33EC8A
:0715B70033FC5002B2D52203
:1015BE00EC30E7100FBF000C0EBE00080DBD00048E
:1015CE000BEB6014A2D5EB13FCED92E7FD2274FF3A
:1015DE00FCFDFEFF22E480F8A2D574FF13FC7D8093
:0315EE00E480EFA7
:030000000236AF16
:0C36AF00787FE4F6D8FD7581200236F625
:1015F100E709F608DFFA8046E709F208DFFA803EDC
:1016010088828C83E709F0A3DFFA8032E309F608C8
:10161100DFFA8078E309F208DFFA807088828C8330
:10162100E309F0A3DFFA806489828A83E0A3F608E4
:10163100DFFA805889828A83E0A3F208DFFA804CBE
:1016410080D280FA80C680D4806980F28033801095
:1016510080A680EA809A80A880DA80E280CA8033FE
:1016610089828A83ECFAE493A3C8C582C8CCC58376
:10167100CCF0A3C8C582C8CCC583CCDFE9DEE78046
:101681000D89828A83E493A3F608DFF9ECFAA9F0C5
:10169100EDFB2289828A83ECFAE0A3C8C582C8CC1B
:1016A100C583CCF0A3C8C582C8CCC583CCDFEADE34
:1016B100E880DB89828A83E493A3F208DFF980CC96
:1016C10088F0EF60010E4E60C388F0ED2402B4048F
:1016D1000050B9F582EB2402B4040050AF23234536
:0616E10082239016417304
:1016E700BB010689828A83E0225002E722BBFE0201
:0916F700E32289828A83E4932234
:10170000BB010CE58229F582E5833AF583E022509E
:1017100006E92582F8E622BBFE06E92582F8E222E8
:0D172000E58229F582E5833AF583E4932202
:10172D00BB010689828A83F0225002F722BBFE019B
:02173D00F32295
:10173F00F8BB010DE58229F582E5833AF583E8F0E0
:10174F00225006E92582C8F622BBFE05E92582C88C
:02175F00F22274
:10176100EF8DF0A4A8F0CF8CF0A428CE8DF0A42E9C
:02177100FE2256
:10177300BC000BBE0029EF8DF084FFADF022E4CC5A
:10178300F875F008EF2FFFEE33FEEC33FCEE9DEC23
:10179300984005FCEE9DFE0FD5F0E9E4CEFD22ED69
:1017A300F8F5F0EE8420D21CFEADF075F008EF2FB3
:1017B300FFED33FD4007985006D5F0F222C398FDA4
:0517C3000FD5F0EA2241
:1017C800C5F0F8A3E028F0C5F0F8E58215827002AC
:0617D8001583E038F02249
:1017DE00A3F8E0C5F025F0F0E582158270021583BE
:0617EE00E0C838F0E8221B
:103A9300C2D5E830E70FB2D5E4C39BFBE49AFAE45E
:103AA30099F9E498F8EC30E717B2D5123AC912182D
:103AB3007BE4C39BFBE49AFAE499F9E498F8800366
:103AC30012187B30D50DE4C39FFFE49EFEE49DFDF9
:043AD300E49CFC2251
:0E17F400C3E49FFFE49EFEE49DFDE49CFC2206
:0C180200ECF0A3EDF0A3EEF0A3EFF02259
:10180E00A8828583F0D083D0821218251218251253
:10181E001825121825E473E493A3C583C5F0C58378
:10182E00C8C582C8F0A3C583C5F0C583C8C582C824
:01183E002287
:1036BB000234CAE493A3F8E493A34003F68001F227
:1036CB0008DFF48029E493A3F85407240CC8C33310
:1036DB00C4540F4420C8834004F456800146F6DFDF
:1036EB00E4800B010204081020408090242FE47E1C
:1036FB00019360BCA3FF543F30E509541FFEE493D4
:10370B00A360010ECF54C025E060A840B8E493A39A
:10371B00FAE493A3F8E493A3C8C582C8CAC583CAC5
:10372B00F0A3C8C582C8CAC583CADFE9DEE780BE7D
:0126090000D0
:10183F0075F008758200EF2FFFEE33FECD33CDCC60
:10184F0033CCC58233C5829BED9AEC99E5829840E3
:10185F000CF582EE9BFEED9AFDEC99FC0FD5F0D6C0
:10186F00E4CEFBE4CDFAE4CCF9A88222B800C1B9EA
:10187F000059BA002DEC8BF084CFCECDFCE5F0CB28
:10188F00F97818EF2FFFEE33FEED33FDEC33FCEB61
:10189F0033FB10D703994004EB99FB0FD8E5E4F91C
:1018AF00FA227818EF2FFFEE33FEED33FDEC33FC09
:1018BF00C933C910D7059BE99A4007EC9BFCE99AFD
:1018CF00F90FD8E0E4C9FAE4CCFB2275F010EF2F42
:1018DF00FFEE33FEED33FDCC33CCC833C810D70742
:1018EF009BEC9AE899400AED9BFDEC9AFCE899F87D
:0E18FF000FD5F0DAE4CDFBE4CCFAE4C8F92210
:00000001FF
