:104DD600436865636B205349343433322E2E2E0DCF
:104DE6000A004445564943455F545950453A2030D8
:104DF6007825782E0D0A000D0A004445564943458C
:104E06005F56455253494F4E3A20307825782E0D3D
:104E16000A004445564943455F5354415455533A55
:104E26002061742069646C65206D6F64652E0D0ABF
:104E3600004445564943455F5354415455533A201F
:104E46006174205258206D6F64652E0D0A0044452A
:104E5600564943455F5354415455533A2061742093
:104E66005458206D6F64652E0D0A00437279737471
:104E7600616C204F7363696C6C61746F72204C6F48
:104E860061642043617061636974616E63653A2091
:104E960025780D0A0053493434333220494F2049CE
:104EA6006E69742E2E2E2E2E2E0D0A00494F204985
:104EB6006E697420636F6D706C657465642E0D0A7F
:104EC60000534934343332206973206E6F74206680
:104ED6006F756E642E2E2E2E2E2E0D0A005349341B
:104EE600343332204750494F496E697420636F6DE1
:104EF600706C6574652C636F6E6669672064657691
:104F06006963652E2E2E2E2E2E0D0A00436F6E66B9
:104F160069672052462E2E2E2E2E2E0D0A0053493C
:104F260034343332496E697420636F6D706C657406
:104F3600652E0D0A002072657620496E74657272C0
:104F46007570740D0A002073656E6420496E746571
:104F560072727570740D0A006D6F646520726567F4
:094F660069737465723A0D0A00CA
:1078B500D3EF9400EE64809480400F7D817C14DCCE
:0A78C500FEDDFAEF1F70E91E80E6F9
:0178CF002296
:077B2500C2C3D2B3D2B222A9
:09777F009002CFEFF07D017F0EB6
:1077880090020EEDF0C2B3EF4480FF127A98900297
:097798000EE0FF127A98D2B32230
:0779E0009002CEEFF07F04DE
:0C79E700C2B3127A987FFF127A98D2B3D4
:0179F3002271
:1068E1007BFF7A4D79D6127A1CE4FF1279E7900288
:1068F10009EFF07BFF7A4D79E8127A1C900209E0EA
:10690100FF1275FC7BFF7A4D79FD127A1C9002090A
:10691100E0640860037F01227F011279E790020998
:10692100EFF07BFF7A4E7900127A1C900209E0FFAA
:106931001275FC7BFF7A4D79FD127A1C7F02127968
:10694100E7900209EFF0540F70087BFF7A4E791837
:106951008022900209E0540FFFBF01087BFF7A4EAD
:1069610079378010900209E0540FFFBF02097BFFC5
:106971007A4E7954127A1C7F091279E7900209EF55
:10698100F07BFF7A4E7971127A1C900209E0FF12B6
:0D69910075FC7BFF7A4D79FD127A1C7F00AA
:01699E0022D6
:1065B1007D537F751277887D4B7F76127788E4FD56
:1065C1007F771277887D097F6E1277887DD57F6FFF
:1065D1001277887D2C7F701277887D807F581277A3
:1065E100887D1F7F6D1277887D207F721277887D6D
:1065F1002C7F1C1277887D417F201277887D607FF8
:10660100211277887D277F221277887D527F23127E
:106611007788E4FD7F241277887D047F25127788AF
:106621007D407F1D1277887D0A7F1E1277887D0F3E
:106631007F2A1277887D037F1F1277887D607F69AB
:106641001277887D0C7F341277887D2A7F35127707
:10665100887D027F331277887D2D7F361277887D82
:10666100D47F371277887D8D7F30127788E4FD7F64
:10667100321277887D637F711277887DB47F09023A
:02668100778818
:10699F007BFF7A4E799B127A1C127B257BFF7A4EF6
:1069AF0079B2127A1C7F147E0080131268E1EF60B7
:1069BF00127BFF7A4E79C7127A1C7FF47E01127810
:1069CF00B580E87DCA7F0B1277887DCA7F0C12775E
:1069DF00887DCA7F0D1277887F0A7E001278B57B7B
:1069EF00FF7A4E79E3127A1C7F031279E71279E06E
:1069FF009002CFEFF07D807F071277887F147E00A3
:106A0F001278B57F031279E71279E09002CFEFF099
:106A1F007BFF7A4F7912127A1C1265B17DFF7F05C9
:106A2F001277887DFF7F061277887F031279E7122E
:106A3F0079E09002CFEFF07D077F05127788E4FDB4
:0E6A4F007F061277887BFF7A4F7924027A1C2B
:107A2F007F031279E71279E012777F7D057F0702D6
:027A3F00778846
:1078D0007F031279E71279E09002CFEFF07D027F0B
:0B78E0000E1277887D097F0702778871
:107A41007F031279E71279E012777F7D017F0702C8
:027A5100778834
:1070E90090020AEBF0A3EAF0A3E9F0900209EFF0AD
:0170F900FD99
:1070FA007F3E127788E490020DF0900209E0FF903B
:10710A00020DE0FEC3EF6480F8EE6480985025908B
:10711A00020AE0FBA3E0FAA3E0F9EEFF3395E08F61
:10712A0082F5831216FBFD7F7F12778890020DE0AD
:07713A0004F080C60278D0CA
:106C7C007F071279E7900204EFF07F031279E71295
:106C8C0079E09002CFEFF09002CEE030E15B7BFF39
:106C9C007A4F793B127A1C7F4B1279E7900205EF01
:106CAC00F0BF0C2EE4900204F0900205E0FF90027D
:106CBC0004E0C39F501C7F7F1279E7900204E0240C
:106CCC0054F582E43402F583EFF0900204E004F012
:106CDC0080D77D027F08127788E4FD7F08127788C1
:106CEC00127A2F9002527401F09002CEE030E20C36
:0C6CFC007BFF7A4F794C127A1C127A2F21
:016D08002268
:107738007F071279E79002D4EFF07BFF7A4F795EEA
:10774800127A1C9002D4E0FF1275FC7BFF7A4D7907
:04775800FD027A1C98
:0C352F004902A400000001050107E000B3
:097B1400E4FB7D0E7FD00278EB4A
:10681D00E4FD7FD0127920AD07ED54F0C4540F750F
:10682D00F00AA4FFED540F2F9002A4F07D017FD04C
:10683D00127920AD07ED54F0C4540F75F00AA4FF82
:10684D00ED540F2F9002A5F07D027FD0127920AD6F
:10685D0007ED54F0C4540F75F00AA4FFED540F2F3B
:10686D009002A6F07D047FD0127920AD07ED54F093
:10687D00C4540F75F00AA4FFED540F2F9002A7F02A
:10688D007D037FD01279209002A8EFF07D057FD097
:10689D00127920AD07ED5410C4540F75F00AA4FF02
:1068AD00ED540F2F9002A9F07D067FD0127920AD07
:1068BD0007ED54F0C4540F75F00AA424D0FFE5F091
:1068CD003407FEED540F7C002FFFEC3E9002AAF032
:0368DD00A3EFF036
:0168E0002295
:10668300900215E0FF75F00A84C454F0FEEF75F034
:106693000A84E5F02EFBE4FD7FD01278EB9002161E
:1066A300E0FF75F00A84C454F0FEEF75F00A84E548
:1066B300F02EFB7D017FD01278EB900217E0FF757F
:1066C300F00A84C454F0FEEF75F00A84E5F02EFB63
:1066D3007D027FD01278EB900218E0FF75F00A84F8
:1066E300C454F0FEEF75F00A84E5F02EFB7D047FC1
:1066F300D01278EB900219E0FB7D037FD01278EB88
:1067030090021AE0FF75F00A84C454F0FEEF75F0AE
:106713000A84E5F02EFB7D057FD01278EB90021CF6
:10672300E02430FF90021BE034F8FE7C007D0A1267
:10673300176EEFC4F8540FC868FFAB07E0FEA3E081
:10674300FF7C007D0A12176EEB2DFB7D067FD002C6
:0267530078EBE1
:100026006275737920636865636B2E2E2E0D0A0048
:1000360000000000000000000000000000000000BA
:10004600000000000018188888286A4E0CE8E808A6
:1000560008181800000444446525341C0E0F1D348E
:100066006444040000F8F888F8F81090901010FE28
:10007600FE101000001F1F081F1F00000343407FD3
:100086007F0000000020644C0800FEFE929292FE63
:10009600FE00000000303C0F437E7E7E7E427E7E68
:1000A6007E7E4000000000F8F828F8FAAEACA8F80A
:1000B600F82828000040703F4F42662E3A123A2E2A
:1000C6006642400000202020A0E060FFFFE0C06004
:1000D600381800002030180E0741C0FF7F010306C4
:1000E6000C1810100080C0F0FE0E9090121E1CD04E
:1000F600D01000000000007F7F40414F4E607C5FC3
:100106004340400000F8F888F8F81090901010FE70
:10011600FE101000001F1F081F1F00000343407F32
:100126007F0000000000F0F20EECE4242424E4E456
:1001360004FCFC0000007F7F000F0F0909090F4F28
:10014600407F7F0000808282FEFE82828282FEFEE7
:1001560082828000004060381F07000000007F7F19
:100166000000000000001010121E1CF0F0181E16F1
:10017600101000000041416131190F07070F1931B6
:1001860061414100002038DFC7444444FCFC44443C
:10019600444404000404040707040404FFFF0404A1
:1001A60004040404000000FEFE222222222222224F
:1001B600FEFE000080C0703F0F020202020242C231
:1001C600FF7F0000000000FEFE828282828282FEA5
:1001D600FE000000000000FFFF404040404040FF9E
:1001E600FF000000000000F8F88C8E8B898888F8E4
:1001F600F8000000000000FFFF444444444444FF6C
:10020600FF0000004044C4C44444445010FFFF10A3
:1002160010F0F000103C3F1314BCF8703E0F41C0C4
:10022600C07F3F00101010FFFFB0B8D868290F2E0E
:1002360068E8B8180242C3FF7F40404242427E7ED1
:100246004242424040505E4E48FFFF484848F8F858
:1002560000FFFF0000003E3E02FFFF323E1E0F4F32
:10026600C0FF7F00000022323AAEA6E26331198950
:1002760081010000004262331B4BC2FE7E020A1A55
:10028600336746002030BCEF733088C8E8B99F8ECC
:10029600A8E8C888226767321292C0703F0F003FF5
:1002A6007F40717100083830FFFF202020FFFF20BB
:1002B600222E2C2004040603FFFFC0703E0F071EEB
:1002C6003860C08000048484C46474DF9F3464C4CE
:1002D60084840400417939003C7C40424E4C407095
:1002E600740D3931101C4C6434140507060414349B
:1002F60064541C0C004040414141417F7F414141D3
:100306004140400000F8F943424242FAFA42424272
:1003160042FEFE0000FFFF080C06033F3F03064CAB
:10032600C8FF7F000000FEFE42424242FAFA424205
:1003360042C2C20280E07F9FC060381E070140C0F3
:10034600C07F3F000000F8F8888888FFFF8888880B
:10035600F8F80000808081C54C78303F2F6040401F
:10036600C181808090D27634FFFF3476D2F0FF8F41
:1003760008F8F808829ADE776372DE8E80C0733FD3
:100386003F73C0801010FFFF9090FEFE9292F2F233
:10039600929E9E8042C2FF7F81E07F1FFCFC474702
:1003A60044FCFC00404042CECC40E0BE9E82829E91
:1003B600BEA020200000003FBF98C8436F3C386EA7
:1003C60047C18080001717D5D557577D7D5757D51C
:1003D600D51717004040407F7F5555555555557FD9
:1003E6007F404040404042CECC00FCFCA4A42622E4
:1003F600A3E362000040603F3F785F57584D474790
:100406004D5850400000FEFE02F2F21212F2F202C5
:10041600FEFE000000007F7F2027272424272720B8
:100426007F7F000020305C4F57545454545454D4AA
:10043600D404040000000000000000000000000FCB
:100446003F70F0F08080C06030182CE7C70C183081
:1004560060C080800000000202020282C2623A1E70
:100466000600000040404242424242FEFE424242F4
:10047600424240408080C060301C0F03030F1C3096
:1004860060C080801010D0FFFF94F4EFAFA4A4AF3B
:10049600EFE40400040703FFFF89CB6B3A1E1E3A04
:1004A6006BCB8880101090909090909010FFFF106A
:1004B60011171610002060603F3F101010030F1C2C
:1004C6003060F8F800002424242424FCFE22222391
:1004D60023220000020202020242C2FF7F0202023F
:1004E60002020202000000BEBE2A2AEAEA2A2A3EC8
:1004F6003E0000000044464B4949497F7F4949492F
:10050600494140000004FFFF2424FFFF04FEFE22B1
:1005160022FEFE0088C86F2F0919BFEF783F0F42F1
:10052600C2FF7F0080808080808080808080808085
:1005360080808080000000000000000000000000B5
:100546000000000000000808080808080808080855
:1005560008080000101010101010101010101010C5
:100566001010101000048484848484848484848419
:1005760084840400202020202020202020202020E9
:100586002020202000FCFC0404FCFC0404FCFC04E9
:1005960004FCFC00007F7F2C27232020202123221F
:1005A600227F7F000002424242C2FE7E424242C297
:1005B600C202020040404040787F47404040407FB2
:1005C6007F40404020202020202021232E2C202048
:1005D60020202020004060301C0F0300000103068D
:1005E6001C7860004042CECC00445454547F7F5463
:1005F6005454444000007F7F3010FFFF151555D539
:10060600FF7F000088E87FDFC818D8DC56D3D39672
:100616009CD8D010091919FFFF05FFFF92FFFF5F55
:10062600DFFF7F00000000000001E3FEFCE00000A9
:100636000000000080C060301C0F030000030F3C68
:1006460070C08080109CCC44E4E495B7E664349492
:10065600C4D49C0C02027A7B4143437E7E424243D1
:10066600FBF800000484E4FC5CC4C402F2F282825B
:10067600FEFE808002037F7F103F3F08080808487F
:10068600C8C87F3F4070FFEF646C487F7F48487F53
:100696007F48484001017F7F3111FFFF49494949A1
:1006A600FFFF00004042CECC00809E9E9292929226
:1006B6009E9E800000007F7FB494C464341F1F3464
:1006C60064C48484101010FFFF9090F0F010FFFFB8
:1006D60010F0F0000444C6FF7F0100FFFF427F7F59
:1006E60042FFFF004040C0DF5F55D5D55555555FE9
:1006F6005F40404020607F3F3515FFFFD76F393D93
:100706006FC3808020202020202020FFFF20202073
:10071600202020208080C060301C0F03030F1C3077
:1007260060C08080000000E0E00000FFFF000020C5
:1007360060C08000080C07030040C0FF7F00000077
:1007460000010F0E80E0F8FF0704747455575654E5
:10075600747404000000FFFF03030545C5FD7D0515
:1007660005050303206464B494BFBF809FBFA4A69D
:10077600A23A3800000000FFFF0A0A0A0A4ACAFF26
:100786007F000000404042465CD8C07F7FC0D05802
:100796004E4640408080C060381F0700003F7F40C3
:1007A600404078784060F8FFF7F0B0DC5F77A4F45B
:1007B6005CCC80800000FFFF1F9F92D25B692D36C4
:1007C6001A0800000484848484FCFC70FCCF0B08A7
:1007D600F8F80808007F7F30101888C061371E1EA1
:1007E6003761C08020303CEFE72424E2EE2CBFBF07
:1007F60028EEE6000101017F7F3191CF6F301F1F88
:10080600306FCF80101C0C24242425272624242472
:1008160024141C0C008181C1713F0F01017FFF81EF
:1008260081F1F1000000F8F88888888808FFFF0940
:100836000BCAC80880E07F1F10303F9FC061371E7B
:100846003E67F9F80080E0F8FF073E3E22E2E2222A
:100856003E3E0000010100FFFF31190D07FFFF07B3
:100866000D193120040484E4FC1F27242424A4E465
:1008760064240404020301FFFF020242C2FF7F0256
:100886000202020240445475E7E6745444FCFC44F8
:10089600C4C6424020325ACAFF7F0A9AF27F1F001E
:1008A600FFFF00000202F2F2929292FEFE929292F4
:1008B600F2F202020404FFFF04040407070444C41E
:1008C600FF7F040400020E8CE0E0C0703FCFC80832
:1008D6002838180002027E7F81C060381E07071E76
:1008E6003860C080000202020282C2F2FE4EC2825C
:1008F6000202020010180C06030100FFFF000001AF
:10090600030E0C0010180C87EF7C94949C8F87ECD8
:10091600FC948484040603FFFF0000020E4CC0FF13
:100926007F00000000F8F923222222A2FAFA2222EE
:1009360022FEFE0000FFFF080C0613313F1F004099
:10094600C0FF7F0000E0E0FFFF302888F87F0FE857
:10095600E8088888010100FFFF101C8FC7673B1F4E
:100966001F7AE381203018FFF7545454545454F43A
:10097600F4040400809090D94D5F772525755D4D70
:10098600C58080807E7E5AFEFE5A7E7E2020FFFF36
:10099600222E2C20E9E9696F6765B5F5703E0F0FC9
:1009A6003E70C080404042CECC00000000FFFF00F9
:1009B600000000000000003FBFD868381F07071F6F
:1009C6003860C0800000007F7F4949494949497F16
:1009D6007F00000081C1613D3D61C1FFFF898989BA
:1009E6008989818100028282C26232FAFE262262EF
:1009F60042C28200010101FCFC444445454444FCDA
:100A0600FC0001010484E4FC5CC4E430F8EF27E454
:100A1600F43CECE002037F7F103FBFE07F1F093FFD
:100A26007FC9FF7F101C4C44444445C7C644444418
:100A360044541C0C80C0603E3E60407F7F4444446A
:100A460044444040829A9E97FBFA52D2FE7E12128E
:100A5600F3F11110000101FEFF939393929292FE1F
:100A6600FF0300000040424242C2FE7EC2C2424232
:100A76004240400080C060301C0F03003F7F404072
:100A86004070700000F8F808080888FFFF8808081A
:100A960008F8F80000FFFF080C0603010001034EEA
:100AA600CCFF7F00101C4C643494C56766C4943434
:100AB60064541C0C040406FEFF454444444445FFAC
:100AC600FE06040400000000000000FFFF080808FE
:100AD600080808080000FFFF4141414141414141EA
:100AE600FFFF00002030BCEF6338989090FFFFD9DD
:100AF6004B4A4840226767321212524060331F1C2D
:100B06003663F9F80000F0F0101010FFFF10101017
:100B1600F0F0000000000F0F040404FFFF040404BB
:100B26000F0F0000040404F4F4D4F5A7A6F4D4F4DB
:100B3600F404040400FEFE02123A3E17131A3A7237
:100B4600C2FE7E000000183C243C18000000000095
:100B560000000000E0380C0602030101010101015A
:100B6600010101010101010101010101010101016F
:100B7600010101010101010101010101010101015F
:100B8600010302060C38E0404040404040404040EF
:100B9600C000FF0000000000000000000000000090
:100BA600000000000000000000000000000000003F
:100BB600000000000000000000000000000000002F
:100BC60000000000FF40C000000000000000FF0021
:100BD600FF00000000000000000000000000000010
:100BE60000000000000000000000000000000000FF
:100BF60000000000000000000000000000000000EF
:100C06000000FF00FF0000F0FFF00000FF00FF0003
:100C160000000000000000000000000000000000CE
:100C260000000000000000000000000000000000BE
:100C360000000000000000000000000000000000AE
:100C4600FF00FF001CFFFFFF1C00FF00FF800000ED
:100C5600000000000000000000000000000000008E
:100C6600000000000000000000000000000000007E
:100C76000000000000000000000000000080FF707F
:100C86005F0000FFFFFF00005F700003060C0818FE
:100C9600101010101010101010101010101010104E
:100CA600101010101010101010101010101010103E
:100CB6001010101010101018080C16131808081031
:100CC600101808181010100800000000000000009E
:100CD6000000000000000000000000F8F80000001E
:100CE600000030333300000000100C06100C060024
:100CF60000000000000000004040F840F8400000FE
:100D0600043E053F05040000007088FC0830000022
:100D1600001820FF211E0000F008F0807008000077
:100D260000211C031E211E0000F088700000000038
:100D36001F2027281F2110000000000000000000CF
:100D460080B0F07000000000000000F0FC0E020011
:100D56000000000F3F70400000061EF8E000000093
:100D66000060781F070000004040C0F0F0C040401F
:100D76000202030F0F030202000000F0F000000061
:100D86000101011F1F01010100020206040000000B
:100D9600000000000000000000000000000000004D
:100DA6000101010101010100000000000000000036
:100DB600003030300000000000000000C0F83C0C9D
:100DC6000060783F07010000E0F0180818F0E00026
:100DD6000F1F3020301F0F00001010F8F800000021
:100DE6000020203F3F2020000070780808F8F0001F
:100DF60000303C2E233130000030388888F87000EF
:100E060000183820313F1E000080C060F8F800004E
:100E1600060705243F3F240400F8F8888888080060
:100E260000193921313F1F00E0F098888898180092
:100E36000F1F3120313F1F0000383808E8F818002E
:100E46000000003F3F00000070F8988898F8700096
:100E56001E3F2121313F1E00F0F8080818F8E00077
:100E6600313322323B1F07000000C0C0C000000023
:100E760000003030300000000000008080000000DC
:100E8600000080E060000000000080E070180800AC
:100E96000001030E1C30200040404040404040000E
:100EA600040404040404040000083870C080000030
:100EB6000020381C060301007078080818F8F000B6
:100EC6000000303737010000C0F0F8E8E8F8F0E03D
:100ED600071F3F2727371F0B0000E0F8F8E0000048
:100EE600203C3F23233F3C2008F8F88888F8700010
:100EF600203F3F20313F1E00E0F038080838380018
:100F06000F1F30202030100008F8F80818F0E00015
:100F1600203F3F20301F0F0008F8F888E8F8180037
:100F2600203F3F202333300008F8F888E8E81810FF
:100F3600203F3F2003030000C0F03808083838007F
:100F4600071F3820223E1E0208F8F80808F8F8089D
:100F5600203F3F21213F3F20000808F8F8080800FD
:100F66000020203F3F202000000808F8F80808006D
:100F7600C0C080FF7F00000008F8F8C8E8381808ED
:100F8600203F3F21273E382008F8F80800000000DF
:100F9600203F3F202030300008F8F800F8F808001D
:100FA600203F003F003F200008F8F8F8C8F8F8088E
:100FB600203F3F231F3F3F00E0F0180818F0E000F5
:100FC6000F1F3020301F0F0008F8F80808F8F0004F
:100FD600203F3F2101010000E0F0180818F0E00072
:100FE6000F1F3C247C7F4F0008F8F88888F87000B3
:100FF600203F3F21073E38200070F8880818180067
:1010060000303021233F1E00181808F8F808181879
:101016000000203F3F20000008F8F80808F8F8080C
:10102600001F3F20203F1F000878F88888F87808BE
:1010360000000F3F3F0F000008F8FCFCF8F8F80826
:1010460000073F3F3F3F07000838F8E8E8F8180870
:1010560020303C2F2F3E38200838F8C8C8F838080A
:101066000000203F3F200000101808C8F83808008C
:10107600303C2F2320301000000000FEFE0202004C
:101086000000007F7F404000001CFCE000000000E4
:10109600000000031F7C6000000202FEFE0000004C
:1010A6000040407F7F0000000000040606040000A8
:1010B600000000000000000000000000000000002A
:1010C600808080808080808010161E0E00000000C8
:1010D600000000000000000000008080808080008A
:1010E600001D3D26223F3F2008F8F8808080000042
:1010F600003F3F21203F1F0000008080808080004D
:10110600001F3F31203111000000808088F8F80070
:10111600001F3F21203F3F2000008080808000008C
:10112600001F3F22223313008080F0F888981800B1
:1011360000203F3F2020000000008080808080004B
:10114600006BFF9497F3600008F8F88080808000B9
:10115600203F3F21203F3F200080809898000000DC
:101166000020203F3F20200000008080989800004B
:1011760000C0C080FF7F000008F8F88080808000F3
:10118600203F3F263F392000000808F8F8000000FD
:101196000020203F3F20200080808080808080804B
:1011A600203F3F203F3F203F80808080808080001E
:1011B600203F3F2100203F3F0000808080800000CC
:1011C600001F3F31213F1F0080808080808000000B
:1011D60080FFFFA1303F1F000000808080808000DC
:1011E600001F3F21A0FFFF808080808080808000DC
:1011F60020203F3F21210100000080808080800068
:1012060000333724243D1900008080E0E080800010
:101216000000001F3F20200080808000808080002A
:10122600003F3F20203F3F2080808080808080805C
:1012360000031F3C3C1F03008080C0C0808080806C
:10124600000F3F3F3F3F0F008080808080808000FE
:1012560020313F2E3F31200080808080808080803A
:101266008083CF7E3E0F01000080808080808000DA
:081276000021393C2733300050
:10353B0060C0000000000000000000000000000060
:10354B000000000000000000000000000000000070
:10355B000000000000000000000000000000000060
:10356B000000000000000000000000000000000050
:10357B000000000000000000000000000000000040
:10358B000000000000000000000000000000000030
:10359B000000000000000000000000000000000020
:1035AB000000000000000000000000000000000010
:1035BB000000000000000000000000000000000000
:1035CB0000000000000000000000000000000000F0
:1035DB0000000000000000000000000000000000E0
:1035EB0000000000000000000000000000000000D0
:1035FB000000000060C000C00000000000000000E0
:10360B0000000000000000000000000000000000AF
:10361B00000000000000000000000000000000009F
:10362B00000000000000000000000000000000008F
:10363B00000000000000000000000000000000007F
:10364B00000000000000000000000000000000006F
:10365B00000000000000000000000000000000005F
:10366B00000000000000000000000000000000004F
:10367B00000000000000000000000000000000003F
:10368B00000000000000000000000000000000002F
:10369B00000000000000000000000000000000001F
:1036AB00000000000000000000000000000000000F
:0836BB00000000000000000007
:04787C007F057E0006
:10788000D3EF9400EE9400400F7D147C32DCFEDDDB
:08789000FAEF1F70EB1E80E807
:0178980022CD
:107A6500D3EF9400EE94004007EF1F70F31E80F0F3
:017A750022EE
:047B440043BB6022BD
:1072900090021DE0FF90021CE04440FBE4FD1272EE
:0C72A000AC900220E044B8FBE4FD7F0746
:1072AC00EF30E002C2C2EF30E102C291EF30E202F5
:1072BC00C292D2C6ED6004D2C58002C2C5C2C1AFB3
:1072CC00038F80C2C6D2C2D291D2927F017E0002BD
:0272DC007880B8
:07736E00900294E0FF7D0195
:107375007580FFEFB40104C2C2800EEFB40204C2EF
:10738500918006EFB40402C292ED6004D2C580027A
:10739500C2C5D2C100D2C600AC80C2C6C2C1D2C26B
:0D73A500D291D2927F017E00127A65AF0472
:0173B20022B8
:05708F00900216EFF075
:107094007BFF7A007926127A1CE4900217F09002A2
:1070A40016E030E00DA3E0FBE4FD7F01127375EB05
:1070B4004FF0900216E030E10DA3E0FBE4FD7F0207
:1070C400127375EB4FF0900216E030E20DA3E0FB73
:1070D400E4FD7F04127375EB4FF0127AA59002174A
:0470E400E020E7AC15
:0170E8002285
:107A5300C2CA7F507E00127880D2CA7FA07E000205
:027A6300788029
:1077A1007F0712708FE4FAEA1272A5E4F9E4FB7D17
:1077B100017F071272AC09E9B440F20AEAB408E7A2
:0177C10022A5
:1076E700C2CB12787C127A537B3E1272A812787C36
:1076F7007BC01272A812787C1277A112787C7B3F2C
:097707001272A812787CD2CB2288
:1073B3007F0712708F7B40E4FD7F011272AC7BBAB2
:1073C300E4FD7F011272ACE4FAE4F97BFF7D017FF7
:1073D300011272AC09E9B440F27B40E4FD7F011273
:1073E30072ACEA240344B8FBE4FD7F011272AC0AD9
:0473F300EAB401D522
:0173F7002273
:1073F8007F0712708F7B40E4FD7F021272AC7BBA6C
:10740800E4FD7F021272ACE4FAE4F97BFF7D017FB0
:10741800021272AC09E9B440F27B40E4FD7F02122B
:1074280072ACEA240344B8FBE4FD7F021272AC0A92
:04743800EAB401D5DC
:01743C00222D
:105A6900900223EBF0A3EAF0A3E9F0900221EFF012
:035A7900A3EDF0AA
:105A7C00EF1425E0900221F0ED24FFFFE434FFFE4B
:105A8C00EF7802CEC313CE13D8F9FF70079002281B
:105A9C0004F08016EFB401089002287402F0800A1A
:105AAC00EFB402069002287404F0900222E0145421
:105ABC0003C454F0F0FE900228E0FFEE4440FBE4F7
:105ACC00FD1272ACE0FF900221E044B8FBE4FD1241
:105ADC0072ACE4900227F0900226E0900228601845
:105AEC00E0FF900223E0FBA3E475F0011217D9A9A3
:105AFC00F0FA1216E2F48015E0FF900223E0FBA30B
:105B0C00E475F0011217D9A9F0FA1216E2FB7D0127
:105B1C001272AC900227E004F0E0C3941040B890ED
:105B2C000228E0FF900222E04440FBE4FD1272AC3C
:105B3C00900228E0FF900221E00444B8FBE4FD123F
:105B4C0072ACE4900227F0900226E09002286018D4
:105B5C00E0FF900223E0FBA3E475F0011217D9A932
:105B6C00F0FA1216E2F48015E0FF900223E0FBA39A
:105B7C00E475F0011217D9A9F0FA1216E2FB7D01B7
:0F5B8C001272AC900227E004F0E0C3941040B80E
:015B9B0022E7
:05593000E0900240F0D0
:1059350090023DEBF0A3EAF0A3E9F090023BEFF013
:03594500A3EDF0DF
:10594800EF1425E090023BF0ED24FFFFE434FFFE66
:10595800EF7803CEC313CE13D8F9FF700790024235
:1059680004F08016EFB401089002427402F0800A35
:10597800EFB402069002427404F090023CE0145422
:105988000775F008A4F0FE900242E0FFEE4440FBE9
:10599800E4FD1272ACE0FF90023BE044B8FBE4FD8A
:1059A8001272ACE4900241F0900240E09002426032
:1059B80018E0FF90023DE0FBA3E475F0011217D94F
:1059C800A9F0FA1216E2F48015E0FF90023DE0FB20
:1059D800A3E475F0011217D9A9F0FA1216E2FB7DBB
:1059E800011272AC900241E004F0E0C3940840B8A0
:1059F800900242E0FF90023CE04440FBE4FD12725A
:105A0800AC900242E0FF90023BE00444B8FBE4FDA6
:105A18001272ACE4900241F0900240E090024260C1
:105A280018E0FF90023DE0FBA3E475F0011217D9DE
:105A3800A9F0FA1216E2F48015E0FF90023DE0FBAF
:105A4800A3E475F0011217D9A9F0FA1216E2FB7D4A
:105A5800011272AC900241E004F0E0C3940840B82F
:015A6800221B
:106FD500900217EFF0A3EDF0A3EBF0A3EAF0A3E91D
:106FE500F0900219E0FBA3E0FAA3E0F91216E260C3
:106FF5003D75F010A424CEF9740A35F0FA7BFF90A4
:107005000217E0FFA3E0FD90021C12593090021810
:10701500E004F0E0D3941840097401F0900217E001
:0F70250004F090021AE475F0011217C380B32231
:0850F400900209EFF0A3EDF0BA
:1050FC00780F7C027D017BFF7A0079367E007F0A77
:10510C001216BCE4900219F0A37409F0E4A3F0A306
:10511C00F0A312192C0000000190020BE0FCA3E09C
:10512C00FDA3E0FEA3E0FFEC33501690021B7401CC
:10513C00F090020BA3A3A3E012186B90020B1219B0
:10514C002090020BE0FCA3E0FDA3E0FEA3E0FFEC4B
:10515C004D4E4F6074E47B0AFAF9F890020BA3A34E
:10516C00A3E0127481AC00AD01AE02AF0390021D3E
:10517C0012192090021DA3A3A3E02430FF90021962
:10518C00E0FE04F0740F2EF582E43402F583EFF0A8
:10519C0090020BE0FCA3E0FDA3E0FEA3E0FFE47BA8
:1051AC000AFAF9F812748190020B12192090021964
:1051BC00E06402708CE0FF04F0740F2FF582E4348D
:1051CC0002F583742EF002514D900219E0D3940332
:1051DC00502AE0FF04F0740F2FF582E43402F583BB
:1051EC007430F0900219E0B402DFFF04F0740F2F5A
:1051FC00F582E43402F583742EF080CD90021BE02E
:10520C006014900219E0FF04F0740F2FF582E4345F
:10521C0002F583742DF0E490021AF0900219E0FF6D
:10522C00A3E0FEC39F503F740F2EF582E43402F5C9
:10523C0083E075F010A424CEF9740A35F0FA7BFFE4
:10524C00900209E0FFA3E0FD14F0E4125931900242
:10525C000AE0700A900209E004F0A37418F09002BE
:06526C001AE004F080B519
:015272002219
:0B48E000900221EFF0A3EDF0A3EBF03D
:1048EB0078297C027D017BFF7A0079407E007F0A6C
:1048FB001216BCE4900233F0A37409F0E4A3F0A306
:10490B00F0A312192C00000001900224E0FCA3E09C
:10491B00FDA3E0FEA3E0FFEC3350169002357401CB
:10492B00F0900224A3A3A3E012186B900224121997
:10493B0020900223E0606F900223E0FF14F0EFD38E
:10494B0094005003024A1FE47B0AFAF9F8A3E0FC37
:10495B00A3E0FDA3E0FEA3E0FF127481AC00AD0168
:10496B00AE02AF03900237121920900237A3A3A314
:10497B00E02430FF900233E0FE04F074292EF58220
:10498B00E43402F583EFF0900224E0FCA3E0FDA3F6
:10499B00E0FEA3E0FFE47B0AFAF9F81274819002BF
:1049AB00241219208091900224E0FCA3E0FDA3E0E7
:1049BB00FEA3E0FFEC4D4E4F605AE47B0AFAF9F888
:1049CB00900224A3A3A3E0127481AC00AD01AE024C
:1049DB00AF03900237121920900237A3A3A3E02450
:1049EB0030FF900233E0FE04F074292EF582E4349C
:1049FB0002F583EFF0900224E0FCA3E0FDA3E0FEC0
:104A0B00A3E0FFE47B0AFAF9F812748190022412F6
:104A1B0019208092900235E06014900233E0FF047D
:104A2B00F074292FF582E43402F583742DF0E490B1
:104A3B000234F0900233E0FFA3E0FEC39F504174B9
:104A4B00292EF582E43402F583E075F010A424CE10
:104A5B00F9740A35F0FA7BFF900221E0FFA3E0FD29
:104A6B0014F0900228125930900222E0700A900242
:104A7B0021E004F0A37418F0900234E004F080B34A
:014A8B002208
:0A57F20090020DEDF0AC07A3EBF000
:1057FC00E4900219F0EB24FFFFE434FFFEEF780392
:10580C00CEC313CE13D8F90490020EF0EC24FFFF94
:10581C00E434FFFEEF7803CEC313CE13D8F9900215
:10582C0015F090020DE0FF14543F900216F0FDEFBE
:10583C0024FFFFE434FFFEEF7806CEC313CE13D85B
:10584C00F9FF7401A807088002C333D8FCFF90024B
:10585C0017F0900219F0ED4440FBE4FD1272AC908D
:10586C0002151272A4E4900213F090020EE0FF9065
:10587C000213E0C39F400302592FE4A3F090020FE0
:10588C00E0FF900214E0FEC39F506AEEFF90020D01
:10589C00E02FFFE433CF24FFCF34FFFEEF7806CEAA
:1058AC00C313CE13D8F975F00384AFF07401A807B5
:1058BC00088002C333D8FCFF900218F0A3E06F609D
:1058CC000E900218E0FFA3F07B40E4FD1272AC9046
:1058DC000218E0FF900210E0FBA3E475F001121730
:1058EC00D9A9F0FA1216E2FB7D011272AC900214E7
:1058FC00E004F08088900217E0FF900219F090020B
:10590C0016E04440FBE4FD1272AC900213E0FF90F1
:10591C000215E02F5407041272A5900213E004F054
:03592C00025876A8
:01592F002255
:0F3E600090028AEFF090028CEBF090028BEDF065
:103E6F00E4900296F0ED14543F900293F0FCED2491
:103E7F00FFFFE434FFFEEF7806CEC313CE13D8F95D
:103E8F00FF7401A807088002C333D8FCFF90029487
:103E9F00F0900296F0EC4440FBE4FD1272AC9002FD
:103EAF008AE0141272A512736EE4900291F09002E0
:103EBF008CE0FF900291E0C39F4003023F90E4A388
:103ECF00F090028DE0FF900292E0FEC39F4003024C
:103EDF003F60EEFF90028BE02FFFE433CF24FFCF44
:103EEF0034FFFEEF7806CEC313CE13D8F975F00367
:103EFF0084AFF07401A807088002C333D8FCFF9089
:103F0F000295F0A3E06F600E900295E0FFA3F07BA7
:103F1F0040E4FD1272AC900295127371AD079002DE
:103F2F008DE0FF900291E08FF0A4FFA3E07A002FC5
:103F3F00FFEA35F0FE90028EE0FBA3E0FAA3E0F972
:103F4F008F828E83ED12173A900292E004F0023EB8
:103F5F00D0900294E0FF900296F0900293E04440DC
:103F6F00FBE4FD1272AC900291E0FF90028AE02F09
:103F7F0054071272A512736E900291E004F0023E84
:103F8F00BD7F0712708F900293E04440FBE4FD7FEA
:103F9F00021272AC90028AE01444B8FBE4FD7F0277
:103FAF001272ACE4900291F090028CE0FF900291BB
:103FBF00E0C39F506EE4A3F090028DE0FF90029259
:103FCF00E0FDC39F5031900291E08FF0A47C002D53
:103FDF00FFEC35F0FE90028EE0FBA3E0FAA3E0F9D0
:103FEF008F828E831216FBFB7D017F021272AC90C3
:103FFF000292E004F080C1900293E04440FBE4FDA4
:10400F007F021272AC900291E0FF90028AE02F546F
:10401F000744B8FBE4FD7F021272AC900291E004FA
:03402F00F0808599
:01403200226B
:072EA600900217EDF0AC07EC
:102EAD00E490021FF0EC24FFFFE434FFFEEF780303
:102EBD00CEC313CE13D8F9900220F0EC1454079022
:102ECD000223F0EC2B145407A3F0900223E0FDFF36
:102EDD00EB2FFFE433FEEF7803CEC313CE13D8F9F7
:102EED00FFED2B540760047E0180027E00EE2FFF64
:102EFD00900222F0900220E02F14A3F0900217E030
:102F0D00FD14543F90021CF0ED24FFFFE434FFFE4E
:102F1D00EF7806CEC313CE13D8F9FF7401A80708B6
:102F2D008002C333D8FC90021DF090021FF0900276
:102F3D0023E07003022FFE12729090021D12737126
:102F4D00E490021AF0900219E0FFA3E0FEC39F4047
:102F5D0003022FF6EEFF900217E02FFFE433CF248C
:102F6D00FFCF34FFFEEF7806CEC313CE13D8F9751D
:102F7D00F0038490021BE5F0F0E0FF7401A8070850
:102F8D008002C333D8FCFF90021EF0A3E06F600EE9
:102F9D0090021EE0FFA3F07B40E4FD1272AC9002A4
:102FAD001E12737190021AE0FE2400F582E43400C3
:102FBD00F583EFF074002EF582E43400F583C083C1
:102FCD00C082E0FF900223E0FEC374079EFE747F73
:102FDD00A806088003A2E713D8FB5FD082D083F048
:102FED0090021AE004F0022F5290021DE090021F91
:102FFD00F0900224E070030230CF90021DE0FF90AC
:10300D00021CE04440FBE4FD1272AC9002211272EE
:10301D00A490021D127371E490021AF0900219E04F
:10302D00FFA3E0FEC39F40030230C7EEFF900217DF
:10303D00E02FFFE433CF24FFCF34FFFEEF7806CE31
:10304D00C313CE13D8F975F0038490021BE5F0F08D
:10305D00E0FF7401A807088002C333D8FCFF90027B
:10306D001EF0A3E06F600E90021EE0FFA3F07B4008
:10307D00E4FD1272AC90021E12737190021AE0FE02
:10308D0024C0F582E43400F583EFF074C02EF58290
:10309D00E43400F583C083C082E0FF900224E0FE9B
:1030AD0074FFA806088002C333D8FC5FD082D0839A
:1030BD00F090021AE004F002302990021DE0900217
:1030CD001FF0127290E4FA900222E0FFEAC39F40D3
:1030DD00030231EBE490021AF0900219E0FFA3E035
:1030ED00FEC39F40030231C7EEFF900217E02FFF92
:1030FD00E433CF24FFCF34FFFEEF7806CEC313CEDB
:10310D0013D8F975F0038490021BE5F0F0E0FF741D
:10311D0001A807088002C333D8FCFF90021EF0A35C
:10312D00E06F600E90021EE0FFA3F07B40E4FD1205
:10313D0072AC900223E0F9602EA3E0602A90022287
:10314D00E0B4012390021EE0FF90021AE0FE24C0BD
:10315D00F582E43400F583E0FD74002EF582E4344D
:10316D0000F583E04D8044E96018EA701590021E69
:10317D00E0FF90021AE02400F582E43400F583E0CC
:10318D008029900224E0601D900222E014B5021502
:10319D0090021EE0FF90021AE024C0F582E4340094
:1031AD00F583E0800690021EE0FFE4FB7D011272C4
:1031BD00AC90021AE004F00230E690021DE0FF90A0
:1031CD00021FF090021CE04440FBE4FD1272AC9033
:0E31DD000220E02A5407041272A50A0230D420
:0131EB0022C1
:0727CB00900211EDF0AC07D4
:1027D200E4900219F090021FF0EC24FFFFE434FFB2
:1027E200FEEF7803CEC313CE13D8F990021AF0ECA1
:1027F20014540790021DF0EC2B145407A3F090021E
:102802001DE0FDFFEB2FFFE433FEEF7803CEC31391
:10281200CE13D8F9FFED2B540760047E0180027EAF
:1028220000EE2FFF90021CF090021AE02F14A3F08A
:10283200900211E0FD14543F900216F0ED24FFFFC8
:10284200E434FFFEEF7806CEC313CE13D8F9FF743B
:1028520001A807088002C333D8FC900217F0900247
:1028620019F090021DE0700302293B900217E0FF6D
:10287200900216E04440FBE4FD1272AC90021A1280
:1028820072A4900217127371E4900214F090021372
:10289200E0FFA3E0FEC39F4003022933EEFF900254
:1028A20011E02FFFE433CF24FFCF34FFFEEF780691
:1028B200CEC313CE13D8F975F00384900215E5F058
:1028C200F0E0FF7401A807088002C333D8FCFF9030
:1028D2000218F0A3E06F600E900218E0FFA3F07BF5
:1028E20040E4FD1272AC900218127371900214E06F
:1028F200FE2400F582E43400F583EFF074002EF537
:1029020082E43400F583C083C082E0FF90021DE0C0
:10291200FEC374079EFE7480A806088003A2E71314
:10292200D8FB4FD082D083F0900214E004F002284A
:102932008F900217E0900219F090021EE0700302DD
:102942002A1E900217E0FF900216E04440FBE4FDCD
:102952001272AC90021B1272A4900217127371E4ED
:10296200900214F0900213E0FFA3E0FEC39F400325
:10297200022A16EEFF900211E02FFFE433CF24FF6C
:10298200CF34FFFEEF7806CEC313CE13D8F975F01D
:102992000384900215E5F0F0E0FF7401A8070880B7
:1029A20002C333D8FCFF900218F0A3E06F600E90D0
:1029B2000218E0FFA3F07B40E4FD1272AC90021813
:1029C200127371900214E024C0F582E43400F5839E
:1029D200EFF01D90021EE0FEEDC39E500AA3E0251B
:1029E200E04401F00D80EC900214E024C0F582E492
:1029F2003400F583C083C082E0FF90021FE0FEEF47
:102A02004ED082D083F0E490021FF0900214E004D2
:102A1200F0022966900217E0900219F0900217E086
:102A2200FF900216E04440FBE4FD1272AC90021AE1
:102A32001272A4E4FA90021CE0FFEAC39F40030270
:102A42002B4FE4900214F0900213E0FFA3E0FEC3C8
:102A52009F4003022B2BEEFF900211E02FFFE43385
:102A6200CF24FFCF34FFFEEF7806CEC313CE13D8A8
:102A7200F975F00384900215E5F0F0E0FF7401A807
:102A820007088002C333D8FCFF900218F0A3E06F5E
:102A9200600E900218E0FFA3F07B40E4FD1272ACDE
:102AA20090021DE0F9602EA3E0602A90021CE0B4BF
:102AB2000123900218E0FF900214E0FE24C0F58288
:102AC200E43400F583E0FD74002EF582E43400F571
:102AD20083E05D803CE96018EA7015900218E0FF1F
:102AE200900214E02400F582E43400F583E08021B2
:102AF20090021EE0601E90021CE014B502169002C5
:102B020018E0FF900214E024C0F582E43400F5835B
:102B1200E0FB8007900218E0FF7BFF7D011272ACA0
:102B2200900214E004F0022A49900217E0FF90029A
:102B320019F0900216E04440FBE4FD1272AC9002E0
:0D2B42001AE02A5407041272A50A022A376D
:012B4F002263
:1072DE00A2A282A082A482A182A382C84038127A7E
:1072EE00A5A2A282A082A482A182A382C840242049
:1072FE00A0037F012220A2037F022220A4037F0687
:10730E002220A1037F052220C8037F032220A3038E
:09731E007F04227F00227F00227F
:107A7600E4F5CF75CDC030070475CED02275CE4063
:017A860022DD
:0D7A98008FCFE5CD30E7FB75CDC0AFCF221D
:1079F400438920759840758DDC858D8BE4F587D29D
:047A0400ACD28E2250
:087B1D008F993099FDC29922F5
:0275FC00AE07D8
:1075FE00EEC4540FFDC36480948AED500424308091
:10760E000424F62461FF127B1DEE540FFDC364802B
:10761E00948AED50042430800424F62461FF127BFA
:01762E001D3E
:01762F002238
:077B2C00EF2430FF027B1D76
:107A1C001216E2FF600C127B1D740129F9E43AFA8C
:037A2C0080EE22C7
:0D7662009002CBEBF0A3EAF0A3E9F0AE0735
:10766F00E4FDEDC39E501A9002CBE0FBA3E0FAA31A
:10767F00E0F98D827583001216FBFF127B1D0D80C2
:01768F00E119
:0176900022D7
:03002300027899C7
:06789900C0E0C083C082C4
:0F789F0030980CC298C2AF900203E599F0D2AFB7
:0778AE00D082D083D0E0324C
:067B33000000000000222A
:05000600D2B7D2B622C2
:06000E001277C2127846D1
:0F001400D2B6D2B7127B33C2B6127B33C2B72239
:0C7AD900C2B6D2B7127B33D2B6027B33A8
:067840001200141277C2D1
:10784600D2B7127B3330B608C2B7127B337F002221
:08785600C2B7127B337F01224F
:0C7AE500C2B6D2B7127B33C2B7027B33AB
:0C7AF100D2B6D2B7127B33C2B7027B338F
:1077C200E4FEEF30E703D38001C392B6EF25E0FF7A
:0F77D200D2B7127B33C2B7127B330EEEB408E38B
:0177E1002285
:10769100E4FED2B6FDEE25E0FED2B7127B3330B662
:1076A100034401FEC2B7127B330DEDB408E7EF606E
:0B76B10005127AE58003127AF1AF06A3
:0176BC0022AB
:1078EB00127840AC07AF051277C2127846AF03127D
:0A78FB0077C2127846127AD9AF0462
:01790500225F
:02792000AC07B2
:10792200127840AF0512000EEC04FF1277C21278F3
:0679320046E4FF1276910D
:01793800222C
:1071EC00AD07127840EF7006127AD97F0122900217
:1071FC00B8E0FF12000EED04FF1277C21278469031
:10720C0002B9E0FF6026B4010BE4FF127691EF1295
:10721C00172880107F01127691EF1217287401291C
:10722C00F9E43AFA9002B9E014F080D3127AD97FDB
:02723C0000222E
:10750700127840EF7002801E9002BEE0FF1277C231
:107517001278469002BFE060221216E2FF1277C28D
:10752700127846EF7006127AD97F0122740129F981
:10753700E43AFA9002BFE014F080D8127AD97F00BB
:017547002221
:1036C3004102C6004102C7004102C8004102C900CD
:0436D3004102CA00E6
:0C7AA5007FB27E787D0CDDFEDEFADFF69D
:017AB10022B2
:0C7AB2007FB27EE67D0CDDFEDEFADFF622
:017ABE0022A5
:0C7ABF007FD97EAB7D49DDFEDEFADFF6EC
:017ACB002298
:10763000EF24FE601214601714601C240370209065
:1076400002C6E05401FF229002C6E05402FF2290DD
:1076500002C6E05404FF229002C6E05408FF227FD5
:02766000002206
:10703400EF24FE601D14602D14603D2403704B90FA
:1070440002C6E054FEF090020DA3A3A3E09002C791
:10705400F0229002C6E054FDF090020DA3A3A3E039
:107064009002C8F0229002C6E054FBF090020DA3F7
:10707400A3A3E09002C9F0229002C6E054F7F09076
:0B708400020DA3A3A3E09002CAF022BB
:10743D009002C7E0600414F080079002C6E044019A
:10744D00F09002C8E0600414F080079002C6E0449A
:10745D0002F09002C9E0600414F080079002C6E0CB
:10746D004404F09002CAE0600314F0229002C6E0DA
:04747D004408F022AD
:10732700454550524F4D20736563746F7231206825
:10733700617320646174612E0D0A00454550524FF8
:107347004D20736563746F723220686173206461C6
:1073570074612E0D0A00726F6F6D20697320636C64
:0773670065616E2E0D0A00A6
:0D7ACC00E4F5C7F5C5F5C675C380F5C42205
:1079390075C78375C5018FC4EEF5C375C65A75C67B
:08794900A50000AFC2127ACCC8
:017951002213
:1079060075C78375C5028FC4EEF5C3AF058FC27503
:0A791600C65A75C6A50000027ACC1F
:1079B40075C78375C5038FC4EEF5C375C65A75C6FE
:0679C400A50000027ACCD0
:056B1700900231EFF0D7
:106B1C00E4900234F0A3F0EF30E03FE4900232F066
:106B2C00A3F0900232E0FEA3E0FFC3EE9402502AE1
:106B3C00127939EFF460137BFF7A737927127A1C80
:106B4C00900234E4F0A304F08010900233E004F0DF
:106B5C0070D0900232E004F080C8900231E030E155
:106B6C0046E4A3F0A3F0900232E0FEA3E0FFC3EEF4
:106B7C0094025033E42FFFEE3402FE127939EFF415
:106B8C0060157BFF7A737942127A1C900234E0F024
:106B9C00A3E04402F08010900233E004F070C79040
:106BAC000232E004F080BF900234E07002A3E07087
:106BBC00097BFF7A73795D127A1C900234A3E0FF93
:016BCC0022A6
:0B7B09004E4F2E003A0D0A000D0A003E
:1036D70048027A000000000000000048028202024F
:0636E700020202020202D1
:017B4800221A
:0679CA00C2C47F017E0033
:1079D000EF1FAC0670011E4C6005127B4880F1223F
:06780200D2C47F017E00EC
:10780800EF1FAC0670011E4C600E127B48127B48BD
:09781800127B48127B4880E82233
:10795200D3EF9400EE9400400F7D817C14DCFEDDB9
:08796200FAEF1F70EB1E80E834
:01796A0022FA
:10771000E4FDD2C47F01FE127808C2C47F647E00FB
:10772000127808D2C47F0C7E00127808A2C4E43319
:08773000FD7F587E000278087D
:107A0800C2C4127802A2C4E433FD7F047E00127857
:037A180008AF05AF
:017A1B002248
:107A8700C2C4EF24FF92C47F057E00127808D2C4D7
:017A970022CC
:107821007B081279CAEDC313FD12780230C404ED4E
:0E7831004480FD7F0A7E00127808DBE6AF057A
:01783F002226
:02785E00AD0774
:107860007B081279CAED1392C47F0A7E0012780851
:0B787000D2C41279CCEDC313FDDBE79E
:01787B0022EA
:05723E00900209EFF0D1
:10724300E4FAFFFDFC1277107FCC12785E7F4412C4
:10725300785E7FC87E001279521277107FCC127845
:107263005E7FBE12785E127821AA07127821EFFEA4
:107273007C00E42AFFEC3EFE7D1912175CAC06ADE0
:0C72830007EF7802CEC313CE13D8F9FF3A
:01728F0022DC
:0B758500900209EBF0A3EAF0A3E9F08C
:107590001277107F3312785EE4A3F0127821900204
:1075A00009E0FBA3E0FAA3E0F9A3E0F5827583000C
:1075B000EF12173A90020CE004F0E0C3940840DBAD
:0175C00022A8
:0B7AFD007F089002827402F0A3DFFCFF
:017B0800225A
:106E14009002D0EEF0A3EFF07C277D1012176E12D3
:106E24007B2C9002D0E0FEA3E0FF7C037DE81217E8
:106E34006E7C007D0A12176EAF05127B2C9002D077
:106E4400E0FEA3E0FF7C007D6412176E7C007D0AE7
:106E540012176EAF05127B2C7F2E127B1D9002D071
:106E6400E0FEA3E0FF7C007D0A12176E7C007D0A21
:106E740012176EAF05127B2C9002D0E0FEA3E0FF48
:0C6E84007C007D0A12176EAF05027B2C0B
:056E9000900209EFF083
:106E9500E4A3F0900209E0FFA3E0C39F50687BFFE5
:106EA5007A7B7909127A1C90020AE004FF1275FCBC
:106EB5007BFF7A7B790D127A1CE490020BF090022D
:106EC5000BE0FFC39408502D90020AE075F008A46A
:106ED500247AF582E43402F583E5822FF582E435E0
:106EE50083F583E0FF1275FC7F20127B1D90020B5A
:106EF500E004F080C97BFF7A7B7911127A1C90023D
:066F05000AE004F0808D9B
:016F0B002263
:1036ED004C02540000000000000000000000004CDF
:1036FD000246000000000000000000000000410232
:0C370D00520041025300430243010298A5
:017B49002219
:017B4A002218
:1063EE00900256E0FE6410706CA3E07068A3E0FFAC
:1063FE00900243E0FBA3E0FAA3E0F9EF1217289016
:10640E000259E0FF900243E0FBA3E0FAA3E0F9900B
:10641E000001EF12173A90025AE090000212173A5A
:10642E0090025BE090000312173A90025CE090003D
:10643E000412173A90025DE090000512173A90028E
:10644E005EE090000612173A90025FE0900007128D
:10645E00173A7F0122EE6411706E900257E0706859
:10646E00A3E0FF900243E0FBA3E0FAA3E0F9EF12F2
:10647E001728900259E0FF900243E0FBA3E0FAA335
:10648E00E0F9900001EF12173A90025AE0900002E4
:10649E0012173A90025BE090000312173A90025CDA
:1064AE00E090000412173A90025DE090000512177A
:1064BE003A90025EE090000612173A90025FE0906A
:0B64CE00000712173A7F02227F002215
:1076BD0041444320646174613A0D0A000D0A007063
:1076CD006F73737720646174613A0D0A00666C6F95
:0A76DD007720646174613A0D0A0021
:1037190048029800000000024401FF4402A022B8B8
:0637290022B841029732B4
:1077E2007F0112723E9002A2EEF0A3EFF0D39488D2
:1077F200EE9413400A9002A27422F0A374B8F0220D
:1075480090029CE0FEA3E0FDEDFF900217EEF0A391
:10755800EFF07BFF7A7679BD127A1C90029CE0FFEF
:107568001275FC90029DE0FF1275FC7BFF7A76791C
:0C757800C9127A1C900217E0FEA3E0FF8D
:0175840022E4
:105EEE009002097402F0A37463F0A37402F0A37419
:105EFE0014F012754890020DEEF0A3EFF090020B25
:105F0E00E0FEA3E0FFC390020AE09FFD900209E0CD
:105F1E009EFCE4121532A804A905AA06AB07E4FFFD
:105F2E00FE7DC87CC212147F90020F1219209002BF
:105F3E0009E0FCA3E0FDE412153290020FE0F8A395
:105F4E00E0F9A3E0FAA3E0FB12137612151C9002FF
:105F5E001312192090020DE0FCA3E0FDE41215329D
:105F6E0090020FE0F8A3E0F9A3E0FAA3E0FB12130E
:105F7E0076900213E0F8A3E0F9A3E0FAA3E0FB1297
:105F8E00128512156B900297EFF090029FE0FF20A2
:105F9E00E4089002977464F08009EF20E005E49025
:105FAE000297F0900297E0C3648094805002E4F070
:105FBE00900297E0D3648094E440037464F07BFF16
:105FCE007A7679CC127A1C90029FE0FF1275FC7BD8
:105FDE00FF7A7679C9127A1C7BFF7A7679DA127A91
:105FEE001C90029EE0FF1275FC7BFF7A7679C90247
:025FFE007A1C0B
:106A5D003A0020002A0021003F00484F4D450043D9
:106A6D00003000310032003300340035003600377D
:106A7D0000380039002E0025000000000000000045
:106A8D0000000000000000000000000000000000F9
:106A9D0000000000000000000000000000000000E9
:106AAD0000000000000000000000000000000000D9
:106ABD0000000000000000000000000000000000C9
:106ACD0000000000000000000000000000000000B9
:106ADD0000000000000000000000000000000000A9
:106AED000000000000000000000000000000000099
:106AFD00000000000000000000000000F0FFF000AA
:0A6B0D001CFFFFFF1C00FFFFFF004C
:10372F00C1064102C500C1054102C0004102C101ED
:0C373F004102C2004102C3004102C4006C
:107984009002A0E0FEA3E0FFE4FCFD90020B1219BC
:08799400207D167F010250F472
:10799C009002A2E0FEA3E0FFE4FCFD90020B1219A2
:0879AC00207D0E7F040250F45F
:056F7300900180EFF029
:106F780078817C017D017BFF7A6A79867E007F8239
:106F88001216BC900180E0602FB20530051B9002FC
:106F98000F7405F0A374FFF0A3746BF0A37408F0EA
:106FA8007B187D377F110257F29002197405F07B28
:106FB800187D377F11022EA630051190021974052D
:0C6FC800F07B187D377F11122EA6C20549
:016FD400229A
:1022AC00E490020BF0A37406F0A314F0A312192C03
:1022BC000000000090021212192C00000000900285
:1022CC00C5E0707B90026DE070089002D274210220
:1022DC0027C51277A17BFF7A0579EAE4900226F0F4
:1022EC007D047F01125A697BFF7A06790AE4900219
:1022FC0026F07D057F01125A697BFF7A06792AE464
:10230C00900226F07D067F01125A697BFF7A0679CE
:10231C004AE4900226F07D077F01125A697BFF7A0E
:10232C0006796AE4900226F07D087F01125A697BD7
:10233C00FF7A6A795DE490021CF07D110223D29041
:10234C0002C5E0640360030223DF1277A17BFF7AEE
:10235C000579EAE4900226F07D047F01125A697B2C
:10236C00FF7A06790AE4900226F07D057F01125A65
:10237C00697BFF7A06792AE4900226F07D067F01BC
:10238C00125A697BFF7A08798AE4900226F07D075D
:10239C007F01125A697BFF7A06794AE4900226F093
:1023AC007D087F01125A697BFF7A06796AE49002F4
:1023BC0026F07D097F01125A697BFF7A6A795DE408
:1023CC0090021CF07D137F01126FD590020BE0FF81
:1023DC00124F6F1272DE90020AEFF060F6E0FEB45C
:1023EC0001089002D274100227C5EE6403704F905E
:1023FC00020CE0FF04F0D3EF648094865038E025A3
:10240C00E0FFC374139FFD7BFF7A6A795FE490024F
:10241C001CF07F02126FD590020EE0FCA3E0FDA32E
:10242C00E0FEA3E0FFE47B0AFAF9F8127481900253
:10243C000E121920802090020C7406F08018900265
:10244C000AE0FFB40506A3E014F0800AEFB4060618
:10245C0090020BE004F090020BE0FFD36480948AAE
:10246C004004E4F0800EC3EF648094805006900228
:10247C000B740AF090020BE0FF124F6F90020AE00F
:10248C00640260030223DFA3E0B40A179002C5E0E4
:10249C009002D2700574100227C57421F0A37450F9
:1024AC000226EF90020CE0FF14F0D3EF64809480CE
:1024BC00406790020EE0FCA3E0FDA3E0FEA3E0FF6A
:1024CC00E47B0AFAF9F812181C90020E12192090EB
:1024DC00020EE0F8A3E0F9A3E0FAA3E0FB90020BF4
:1024EC00E0FF3395E0FEFDFCEB2FFFEA3EFEE93DFD
:1024FC00FDE83CFC90020E12192090020CE025E045
:10250C00FFC374119FFD7BFF7A6A7961E490021C12
:10251C00F07F02126FD50223DF9002C5E0640360E6
:10252C00030226097402F090020EE0FCA3E0FDA366
:10253C00E0FEA3E0FFA312192090021974C0F07BF7
:10254C00207D017F01122EA67BFF7A0579EAE490AB
:10255C000226F07D037F01125A697BFF7A0879AA63
:10256C00E4900226F07D047F01125A697BFF7A0801
:10257C0079CAE4900226F07D057F01125A697BFF2F
:10258C007A06790AE4900226F07D067F01125A69D8
:10259C007BFF7A06792AE4900226F07D077F0112F0
:1025AC005A697BFF7A08798AE4900226F07D087FCD
:1025BC0001125A697BFF7A06794AE4900226F07D73
:1025CC00097F01125A697BFF7A06796AE490022628
:1025DC00F07D0A7F01125A697BFF7A6A795DE4907B
:1025EC00021CF07D157F01126FD590020C7406F061
:1025FC0090020E12192C000000000223DF9002C57D
:10260C00E0640260030226F3900212E0FCA3E0FDFA
:10261C00A3E0FEA3E0FF90020EE0F8A3E0F9A3E034
:10262C00FAA3E0FBC3121879703E900212E0FCA3EF
:10263C00E0FDA3E0FEA3E0FF90026E1219207817D4
:10264C007C027D017B017A02796D7E007F0D121672
:10265C00BC7F021243CE9002D27421F0A37450F0CE
:10266C009002C57401F0FF2290021974C0F07B1027
:10267C007D017F11122EA67BFF7A06794AE4900227
:10268C0026F07D057F02125A697BFF7A06796AE48F
:10269C00900226F07D067F02125A697BFF7A087938
:1026AC00EAE4900226F07D077F02125A697BFF7ADA
:1026BC0009790AE4900226F07D087F02125A697BA0
:1026CC00FF7A6A7963E490021CF07D117F02126F2D
:1026DC00D5127ABF9002D27421F0A37450F09002FC
:1026EC00C57404F07F00229002C5E060030223DF72
:1026FC0090020EE0FCA3E0FDA3E0FEA3E0FF90023D
:10270C006EE0F8A3E0F9A3E0FAA3E0FBC312188F84
:10271C00700C9002D27421F0A3E4F07F012290029D
:10272C001974C0F07B107D017F11122EA67BFF7AED
:10273C0006794AE4900226F07D057F02125A697BE5
:10274C00FF7A06796AE4900226F07D067F02125A1F
:10275C00697BFF7A06798AE4900226F07D077F0276
:10276C00125A697BFF7A0679AAE4900226F07D085A
:10277C007F02125A697BFF7A6A7963E490021CF03B
:10278C007D117F02126FD5127ABF90021974C0F0BE
:10279C007B107D017F11122EA690020C7406F09016
:1027AC00020E12192C0000000090020DE014F060D3
:0E27BC00030223DF9002D27410F0A3E4F0FFBA
:0127CA0022EC
:106BCD0090020A7401F0E4A3F01277A1026C6E1228
:106BDD0072DEEF60FA64016004EFB4050A9002D230
:106BED007410F0A3E4F022EFB4032090020AE01435
:106BFD00F0E0FEC36480948150067407F0A3802CEE
:106C0D00EEB4040590020B80238026EFB404299086
:106C1D00020AE004F0E0FED364809487400774011B
:106C2D00F0A3F0803CEEB4050890020B7401F080E7
:106C3D0030E490020BF08029EF64026004EFB4069B
:106C4D002090020AE0FF3395E0FEEFC4F8540FC820
:106C5D0068FFEEC454F04844219002D2F0A3EFF047
:0F6C6D002290020AE0FFA3E0FD121B30026BDC55
:1061120090020B7401F01277A17BFF7A04798AE472
:10612200900226F07D047F01125A697BFF7A04797E
:10613200AAE4900226F07D057F01125A697BFF7A5C
:106142000379AAE4900226F07D067F01125A697B48
:10615200FF7A0379CAE4900226F07D077F01125A82
:106162006990020BE0FF1253EB1272DE90020AEF0B
:10617200F060F6E0FFB401079002D274108051EF94
:10618200B405079002D274218046EFB40313900243
:106192000BE014F0E0C364809480501A7402F08023
:1061A2001590020AE0B4040EA3E004F0E0D3648088
:1061B20094824002E4F090020BE0FF1253EB900253
:1061C2000AE0640270A3A3E0FF700A9002D2742175
:1061D200F0A3E4F022EFB401079002797401800B7E
:1061E20090020BE064027081900279F09002D27406
:1061F20021F0A3E4F078177C027D017B017A027919
:0C6202006DFE7F0D1216BC7F081243CE0B
:01620E00226D
:1042010090020A7403F0E4A3F01277A17BFF7A0114
:1042110079EAE4900226F07D027F01125A697BFF60
:104221007A02790AE4900226F07D037F01125A692D
:104231007BFF7A0679CAE4900226F07D047F0112A1
:104241005A697BFF7A0079CAE4900226F07D057FE6
:1042510001125A697BFF7A0079CAE4900226F07D47
:10426100067F01125A697BFF7A0079EAE4900226FF
:10427100F07D077F01125A697BFF7A0379AAE490E6
:104281000226F07D087F01125A697BFF7A0379CA01
:10429100E4900226F07D097F01125A690243BE12A1
:1042A10072DEEF60FAB401089002D2741002437B0F
:1042B100EFB4051690020AE004F0E0D36480948321
:1042C10050030243BEE4F00243BEEFB4061790026E
:1042D1000AE014F0E0C36480948040030243BE749A
:1042E10003F00243BEEF6403704690020AE0FEB49D
:1042F1000106A3E004F08018EEB4020990020BE07D
:10430100240AF0800BEEB4030790020BE02464F062
:1043110090020BE0FEC364809480400BD3EE648076
:1043210094E450030243BE90020B7464F00243BE56
:10433100EF6404703590020AE0FEB40106A3E014B4
:10434100F08018EEB4020990020BE024F6F0800B25
:10435100EEB4030790020BE0249CF090020BE0C343
:10436100648094805057E4F08053EF6402704E9063
:10437100020AE0700A9002D27421F0A3E4F02290C4
:104381000274E0FF90020BE0FDFB3395E0FAC3EB12
:104391009F7480F86A985025900273EDF09002D2D4
:1043A1007421F0A3E4F078177C027D017B017A028D
:1043B100796DFE7F0D1216BC7F040243CE90020B75
:0D43C100E0FF90020AE0FD125B9C0242A0AA
:1040330090020A7403F0A37464F01277A17BFF7AF1
:104043000179EAE4900226F07D027F01125A697B2E
:10405300FF7A02790AE4900226F07D037F01125A67
:10406300697BFF7A07794AE4900226F07D047F0199
:10407300125A697BFF7A0079CAE4900226F07D0523
:104083007F01125A697BFF7A0079CAE4900226F015
:104093007D067F01125A697BFF7A0079EAE4900278
:1040A30026F07D077F01125A697BFF7A0379AAE420
:1040B300900226F07D087F01125A697BFF7A03790B
:1040C300CAE4900226F07D097F01125A690241F188
:1040D3001272DEEF60FAB401089002D2741002414A
:1040E300AEEFB4051690020AE004F0E0D3648094C6
:1040F3008350030241F1E4F00241F1EFB40617905B
:10410300020AE014F0E0C36480948040030241F1AA
:104113007403F00241F1EF6403704690020AE0FE7B
:10412300B40106A3E004F08018EEB4020990020B78
:10413300E0240AF0800BEEB4030790020BE0246442
:10414300F090020BE0FEC364809480400BD3EE64D6
:104153008094E450030241F190020B7464F0024135
:10416300F1EF6404703590020AE0FEB40106A3E0A7
:1041730014F08018EEB4020990020BE024F6F080EC
:104183000BEEB4030790020BE0249CF090020BE0CB
:10419300C3648094805057E4F08053EF6402704E00
:1041A30090020AE0700A9002D27421F0A3E4F02294
:1041B300900273E0FF90020BE0FDFB3395E0FAD32E
:1041C300EB9F7480F86A984025900274EDF090029A
:1041D300D27421F0A3E4F078177C027D017B017A8D
:1041E30002796DFE7F0D1216BC7F050243CE90024D
:0E41F3000BE0FF90020AE0FD125B9C0240D33D
:1031EC0090020B7401F0780C7C02FDFB7A0279A43E
:1031FC007E007F091216BC1277A17BFF7A0179CA77
:10320C00E4900226F07D047F01125A697BFF7A0557
:10321C00790AE4900226F07D057F01125A697BFF42
:10322C007A01790AE4900226F07D067F01125A6930
:10323C007BFF7A01792AE4900226F07D077F011248
:10324C005A697BFF7A0379AAE4900226F07D087F05
:10325C0001125A697BFF7A0379CAE4900226F07D49
:10326C00097F01125A69900212E0FEA3E0FFE4FC10
:10327C00FD900224121920E4900228F07B047D08B2
:10328C007F021248E07BFF7A01798AE4900226F0F3
:10329C007D057F02125A697BFF7A0179AAE49002BC
:1032AC0026F07D077F02125A697BFF7A0179CAE406
:1032BC00900226F07D097F02125A697BFF7A6A79A7
:1032CC005DE490021CF07D077F03126FD57BFF7AC3
:1032DC006A795DE490021CF07D0A7F03126FD57B46
:1032EC00FF7A0479EAE4900226F07D087F03125AF3
:1032FC00697BFF7A05790AE4900226F07D097F0349
:10330C00125A69122B501272DE90020AEFF060F61C
:10331C00E0FFB401089002D2741002352AEFB40613
:10332C001690020BE004F0E0D36480948950030201
:10333C0034EEE4F00234EE90020AE0FFB40515A37B
:10334C00E014F0E0C36480948040030234EE74090E
:10335C00F00234EEEF6403600302342C90020BE0B5
:10336C00FFB40210900213E004F07053900212E0CC
:10337C0004F0804BEFB40110900213E0240AF0909B
:10338C000212E03400F08037EFB403059002118094
:10339C002BEFB4040590020F8022EFB405059002C8
:1033AC000E8019EFB4060590020D8010EFB40705DE
:1033BC0090020C8007EFB40806900210E004F0D3E2
:1033CC00900213E09433900212E0940840077407C3
:1033DC00F0A374D0F0900211E0D3940C400374016C
:1033EC00F090020FE0D3941F40037401F090020E92
:1033FC00E0D394174002E4F090020DE0D3943B40EC
:10340C0002E4F090020CE0D3943B4002E4F0900212
:10341C0010E0D3940750030234EE7401F00234EE42
:10342C0090020AE0640460030234EEA3E0FFB402ED
:10343C0008900213E024FF800AEFB40110900213ED
:10344C00E024F6F0900212E034FFF08037EFB40382
:10345C0005900211802BEFB4040590020F8022EF2F
:10346C00B4050590020E8019EFB4060590020D808C
:10347C0010EFB4070590020C8007EFB40806900219
:10348C0010E014F0C3900213E094D0900212E09478
:10349C000750077408F0A37433F0900211E0C39442
:1034AC000150037401F090020FE0C39401500374B7
:1034BC0001F090020EE0D3941740037417F09002C1
:1034CC000DE0D3943B4003743BF090020CE0D3949A
:1034DC003B4003743BF0900210E0C3940150037422
:1034EC0007F0122B5090020AE064026003023312C0
:1034FC00A3E0FF70079002D274218022EF64096070
:10350C000302331278157C027D017B017A02790C5F
:10351C00FE7F091216BC1266839002D27421F0A3AE
:02352C00E4F0C9
:01352E00227A
:104C340090020A7401F0E4A3F090026DE090020C7B
:104C4400F09002C5E0640170661277A190020A74C4
:104C540002F07BFF7A0379AAE4900226F07D047FB8
:104C640002125A697BFF7A0379CAE4900226F07D26
:104C7400057F02125A697BFF7A08790AE4900226BA
:104C8400F07D067F02125A697BFF7A08792AE49044
:104C94000226F07D077F02125A697BFF7A6A7963E4
:104CA400E490021CF07D0F7F02126FD5127ABFE4EC
:104CB4009002C5F01277A17BFF7A06794AE490024C
:104CC40026F07D057F01125A697BFF7A06796AE432
:104CD400900226F07D067F01125A697BFF7A0379E0
:104CE400AAE4900226F07D077F01125A697BFF7ABD
:104CF4000379CAE4900226F07D087F01125A690202
:104D04004DC61272DEEF60FAB401089002D274103C
:104D1400024DC1EFB4031690020AE014F0C364809C
:104D240094804003024DC67403F0024DC6EFB404F0
:104D34001490020AE004F0D3648094835003024D7B
:104D4400C6E4F0807DEF64056004EFB4061B9002B6
:104D54000AE06401706C90020CE070047E01800231
:104D64007E0090020CEEF08059EF640270549002C1
:104D74000AE0FFB402109002D27420F0A3E4F09091
:104D840002C57403F022EFB4032890020CE09002F1
:104D94006DF09002D27421F0A3E4F078177C027DC8
:104DA400017B017A02796DFE7F0D1216BC7F010230
:104DB40043CE90020AE0700A9002D27421F0A3E478
:104DC400F02290020CE0FF90020AE0FD123C38024F
:024DD4004D068A
:105CB80090020A7401F01277A17BFF7A07796AE4EF
:105CC800900226F07D047F01125A697BFF7A0779DA
:105CD8008AE4900226F07D057F01125A697BFF7ADB
:105CE8000379AAE4900226F07D067F01125A697BA7
:105CF800FF7A0379CAE4900226F07D077F01125AE1
:105D080069025DC81272DEEF60FAB401089002D22F
:105D18007410025DC3EFB405089002D27421025DCD
:105D2800C3EFB4031790020AE014F0E0C364809450
:105D3800804003025DC87402F0025DC8EFB404122B
:105D480090020AE004F0E0D3648094824072E4F0A8
:105D5800806EEF6402706990020AE0FF700790029B
:105D6800D274218056EFB401289002727401F09029
:105D780002D27421F0A3E4F0C2CB78177C027D0133
:105D88007B017A02796DFE7F0D1216BC7F030243F8
:105D9800CE90020AE0B40228E4900272F0D2CB78E6
:105DA800177C027D017B017A02796DFE7F0D121648
:105DB800BC7F031243CE9002D27421F0A3E4F022F8
:0B5DC80090020AE0FF12554C025D0C37
:1060000090020A7401F0E4A3F01277A17BFF7A09F1
:10601000794AE4900226F07D047F01125A697BFFE1
:106020007A09796AE4900226F07D057F01125A69A7
:106030007BFF7A09798AE4900226F07D067F0112BF
:106040005A697BFF7A0979AAE4900226F07D077FDE
:1060500001125A697BFF7A6A7965E490021CF07D2F
:106060000F7F01126FD50261021272DEEF60FAB487
:1060700001089002D274100260FDEF64056004EF25
:10608000B4061990020AE064017077A3E070047E00
:106090000180027E0090020BEEF08066EFB40313E5
:1060A00090020AE014F0E0C36480948050547402BB
:1060B000F0804FEFB4041290020AE004F0E0D364E1
:1060C000809482403DE4F08039EF640270349002A5
:1060D0000AE0FF70079002D274218021EFB40222FF
:1060E00078177C027D017B017A0279607E007F0D4A
:1060F0001216BCE4FF1243CE9002D27421F0A3E446
:10610000F02290020BE0FF90020AE0FD12527302AF
:026110006069C4
:017B4B002217
:05620F0090020AEFF00F
:10621400A37401F0EFF4600330060DE490020AF079
:106224001277A1124731803F90020AE0FFB40506BD
:10623400A3E004F0800AEFB4060690020BE014F029
:1062440090020BE0FFD36480948340057401F080D6
:106254000EC3EF64809481500690020B7403F09097
:10626400020BE0FF125DD390020D12192C00000006
:106274000A7F011270341272DE90020AEFF0606B32
:1062840090020D12192C0000000A7F011270349044
:10629400020AE0FDB4020FA3E0FFEFC454F0900241
:1062A400D2F0A3E4F022EDB40102804790020AE0A8
:1062B400FFB40506A3E004F0800AEFB406069002DA
:1062C4000BE014F090020BE0FFD36480948340054C
:1062D4007401F0800EC3EF64809481500690020B29
:1062E4007403F090020BE0FF125DD37F011276304D
:0A62F400EF6083E49002D2F0A3F003
:0162FE00227D
:0562FF0090020CEFF01D
:106304009002C0E06F60179002197440F07B107D1A
:10631400717F11122EA690020CE09002C0F0900240
:106324000CE030E2087BFF7A0B792A800D90020C96
:10633400E030E01B7BFF7A0A79CAE4900226F07D04
:106344000A7F02125A697BFF7A0A79EA0263E190B2
:10635400020CE030E13E7BFF7A01794AE4900226A8
:10636400F07D087F02125A697BFF7A01796AE49012
:106374000226F07D097F02125A697BFF7A06798A28
:10638400E4900226F07D0A7F02125A697BFF7A06A6
:1063940079AA804990020CE07BFF30E72A7A0679DB
:1063A400CAE4900226F07D097F02125A697BFF7AC3
:1063B4000079CAE4900226F07D0A7F02125A697BB2
:1063C400FF7A0B790A80167A0279EAE4900226F0C1
:1063D4007D0A7F02125A697BFF7A03790AE49002EC
:0963E40026F07D0B7F02125A69BC
:0163ED00228D
:0571980090020CEFF075
:10719D009002C1E06F60179002197440F07B107D72
:1071AD00717F21122EA690020CE09002C1F0900288
:1071BD000CE07BFF70067A0479CA80057A0179EAC2
:1071CD00E4900226F07D0A7F03125A697BFF7A0252
:0E71DD00790AE4900226F07D0B7F03125A69B6
:0171EB002281
:10473100C20690020F743EF0A374FFF0A3740BF055
:10474100A3745AF07B2D7D017F011257F27BFF7A12
:1047510001790AE4900226F07D057F01125A697BF6
:10476100FF7A01792AE4900226F07D067F01125A30
:10477100697BFF7A6A795DE490021CF07D0D7F010F
:10478100126FD59002A6E0FFE4FCFDFE9002241218
:104791001920E4900228F07B027D107F011248E08D
:1047A1007BFF7A6A795DE490021CF07D117F011232
:1047B1006FD59002A5E0FFE4FCFDFE9002241219E2
:1047C10020E4900228F07B027D137F011248E07BF8
:1047D100FF7A6A795DE490021CF07D147F01126F0B
:1047E100D59002A4E0FFE4FCFDFE90022412192002
:1047F100E4900228F07B027D167F011248E07BFFE6
:104801007A0279AAE4900226F07D057F02125A69A4
:104811007BFF7A0279CAE4900226F07D067F0212BC
:104821005A697BFF7A6A795DE490021CF07D0D7F05
:1048310002126FD59002B3E0FF1262FF7BFF7A0490
:10484100798AE4900226F07D057F03125A697BFF85
:104851007A0479AAE4900226F07D067F03125A6950
:104861007BFF7A6A795DE490021CF07D0D7F031273
:104871006FD5900279E0FF1271987BFF7A03792A54
:10488100E4900226F07D027F04125A697BFF7A03CD
:10489100794AE4900226F07D037F04125A697BFF76
:1048A1007A0379AAE4900226F07D067F04125A6900
:1048B1007BFF7A0379CAE4900226F07D077F041218
:1048C1005A697BFF7A6A796790021C7401F07D1343
:0F48D1007F04126FD5900297E0FF7D0102378AB6
:1039E200D2067BFF7A0079CAE4900226F07D037F3B
:1039F20001125A697BFF7A0079EAE4900226F07D8F
:103A0200047F01125A697BFF7A0179EAE490022667
:103A1200F07D057F01125A697BFF7A02790AE490F0
:103A22000226F07D067F01125A697BFF7A02792A0B
:103A3200E4900226F07D077F01125A697BFF7A0229
:103A4200794AE4900226F07D087F01125A697BFFD1
:103A52007A02796AE4900226F07D097F01125A699E
:103A62007BFF7A02798AE4900226F07D0A7F0112B6
:103A72005A699002AAE0FEA3E0FFE4FCFD90022452
:103A8200121920E4900228F07B047D0A7F0212487A
:103A9200E07BFF7A01798AE4900226F07D067F02BC
:103AA200125A699002A9E0FFE4FCFDFE9002241282
:103AB2001920E4900228F07B027D0E7F021248E07A
:103AC2007BFF7A0179AAE4900226F07D087F021238
:103AD2005A699002A7E0FFE4FCFDFE90022412194D
:103AE20020E4900228F07B027D127F021248E07BE4
:103AF200FF7A0179CAE4900226F07D0A7F02125A07
:103B0200699002A6E0FFE4FCFDFE90022412192057
:103B1200E4900228F07B027D067F031248E07BFFDF
:103B22007A6A795DE490021CF07D077F03126FD5FB
:103B32009002A5E0FFE4FCFDFE900224121920E4AD
:103B4200900228F07B027D097F031248E07BFF7A16
:103B52006A795DE490021CF07D0A7F03126FD590B2
:103B620002A4E0FFE4FCFDFE900224121920E4907E
:103B72000228F07B027D0C7F031248E07BFF7A046F
:103B820079EAE4900226F07D087F03125A697BFFEE
:103B92007A05790AE4900226F07D097F03125A69B8
:103BA2009002A8E014B407005065903BBA75F00388
:103BB200A4C58325F0C58373023BCF023BD7023BEA
:103BC200DF023BE7023BEF023BF7023BFF7BFF7A60
:103BD20005792A802E7BFF7A05794A80267BFF7A37
:103BE20005796A801E7BFF7A05798A80167BFF7AC7
:103BF2000579AA800E7BFF7A0579CA80067BFF7A57
:103C020004796AE4900226F07D0A7F03125A69124F
:103C1200799C7BFF7A0B794AE4900240F07D0F7F1A
:103C2200041259357BFF7A6A796CE490021CF07DAC
:063C3200107F04026FD5B3
:106F0C009002A6E0FFE4FCFDFE900224121920E49E
:106F1C00900228F07B027D107F011248E09002A5C0
:106F2C00E0FFE4FCFDFE900224121920E4900228FC
:106F3C00F07B027D137F011248E09002A4E0FFE495
:106F4C00FCFDFE900224121920E4900228F07B0232
:106F5C007D167F011248E09002B3E0FF1262FF90B1
:076F6C000279E0FF027198B9
:107141009002A6E0FFE4FCFDFE900224121920E467
:10715100900228F07B027D067F031248E09002A591
:10716100E0FFE4FCFDFE900224121920E4900228C5
:10717100F07B027D097F031248E09002A4E0FFE466
:10718100FCFDFE900224121920E4900228F07B02FB
:077191007D0C7F030248E0C2
:105DD300EF24FE6063147003025E912402600302E9
:105DE3005EED7BFF7A03792AE4900226F07D027F41
:105DF30004125A697BFF7A03794AE4900226F07D04
:105E0300037F04125A697BFF7A0379AAE49002267E
:105E1300F07D067F04125A697BFF7A0379CAE49006
:105E23000226F07D077F04125A697BFF7A6A79673D
:105E330090021C7401025EE57BFF7A03792AE490E9
:105E43000226F07D027F04125A697BFF7A03794AA6
:105E5300E4900226F07D037F04125A697BFF7A03E4
:105E630079AA9002267401F07D067F04125A697B99
:105E7300FF7A0379CA9002267401F07D077F04122A
:105E83005A697BFF7A6A7967E490021C80547BFF2E
:105E93007A03792A9002267401F07D027F04125A54
:105EA300697BFF7A03794A9002267401F07D037FB0
:105EB30004125A697BFF7A0379AAE4900226F07DE3
:105EC300067F04125A697BFF7A0379CAE49002269B
:105ED300F07D077F04125A697BFF7A6A7967E49041
:0B5EE300021CF07D137F04126FD5221B
:104F6F00900216EFF07BFF7A6A796E700690021C42
:104F7F00048004E490021CF07D037F03126FD59030
:104F8F000216E07BFF7A6A7970B4010790021C74F5
:104F9F00018004E490021CF07D057F03126FD59011
:104FAF000216E07BFF7A6A7972B4020790021C74D2
:104FBF00018004E490021CF07D077F03126FD590EF
:104FCF000216E07BFF7A6A7974B4030790021C74AF
:104FDF00018004E490021CF07D097F03126FD590CD
:104FEF000216E07BFF7A6A7976B4040790021C748C
:104FFF00018004E490021CF07D0B7F03126FD590AB
:10500F000216E07BFF7A6A7978B4050790021C7468
:10501F00018004E490021CF07D0D7F03126FD59088
:10502F000216E07BFF7A6A797AB4060790021C7445
:10503F00018004E490021CF07D0F7F03126FD59066
:10504F000216E07BFF7A6A797CB4070790021C7422
:10505F00018004E490021CF07D117F03126FD59044
:10506F000216E07BFF7A6A797EB4080790021C74FF
:10507F00018004E490021CF07D137F03126FD59022
:10508F000216E07BFF7A6A7980B4090790021C74DC
:10509F00018004E490021CF07D157F03126FD59000
:1050AF000216E07BFF7A0379EAB40A1A900226749B
:1050BF0001F07D0A7F04125A697BFF7A04790A9006
:1050CF00022674018016E4900226F07D0A7F0412F6
:1050DF005A697BFF7A04790AE4900226F07D0B7FF0
:0550EF0004125A6922C1
:1053EB0090020CEFF064017BFF7A6A7970703E904B
:1053FB00021C04F0FD7F02126FD57BFF7A6A798263
:10540B0090021C7401F07D027F02126FD57BFF7A34
:10541B000179EA9002267401F07D027F02125A692B
:10542B007BFF7A02790A9002267401803AE490029B
:10543B001CF07D017F02126FD57BFF7A6A7982E4C3
:10544B0090021CF07D027F02126FD57BFF7A0179EF
:10545B00EAE4900226F07D027F02125A697BFF7A02
:10546B0002790AE4900226F07D037F02125A6990BA
:10547B00020CE064027BFF7A6A7972703E90021C28
:10548B0004F0FD7F03126FD57BFF7A6A798290025D
:10549B001C7401F07D027F03126FD57BFF7A0479B8
:1054AB00CA9002267401F07D027F03125A697BFFBA
:1054BB007A02790A9002267401803AE490021CF079
:1054CB007D017F03126FD57BFF7A6A7982E49002AC
:1054DB001CF07D027F03126FD57BFF7A0479CAE43F
:1054EB00900226F07D027F03125A697BFF7A0279C4
:1054FB000AE4900226F07D037F03125A6990020C96
:10550B00E07BFF7A0379EA701990022604F07D0A9A
:10551B007F04125A697BFF7A04790A900226740180
:10552B008016E4900226F07D0A7F04125A697BFFF5
:10553B007A04790AE4900226F07D0B7F04125A69F3
:01554B00223D
:10554C0090020BEFF064017BFF7A6A7970703E90E9
:10555C00021C04F0FD7F02126FD57BFF7A6A798200
:10556C0090021C7401F07D027F02126FD57BFF7AD2
:10557C000179EA9002267401F07D027F02125A69C9
:10558C007BFF7A02790A9002267401803AE4900239
:10559C001CF07D017F02126FD57BFF7A6A7982E461
:1055AC0090021CF07D027F02126FD57BFF7A01798D
:1055BC00EAE4900226F07D027F02125A697BFF7AA0
:1055CC0002790AE4900226F07D037F02125A699058
:1055DC00020BE064027BFF7A6A7972703E90021CC7
:1055EC0004F0FD7F03126FD57BFF7A6A79829002FB
:1055FC001C7401F07D027F03126FD57BFF7A017959
:10560C006A9002267401F07D027F03125A697BFFB7
:10561C007A09792A9002267401803AE490021CF0EF
:10562C007D017F03126FD57BFF7A6A7982E4900249
:10563C001CF07D027F03126FD57BFF7A01796AE43F
:10564C00900226F07D027F03125A697BFF7A09795A
:10565C002AE4900226F07D037F03125A6990020B14
:10566C00E07BFF7A0379EA701990022604F07D0A38
:10567C007F04125A697BFF7A04790A90022674011E
:10568C008016E4900226F07D0A7F04125A697BFF93
:10569C007A04790AE4900226F07D0B7F04125A6991
:0156AC0022DB
:055B9C0090020CEDF089
:105BA100EF75F06484A3F0EF75F00A8475F00A8450
:105BB100A3E5F0F0EF75F00A84A3E5F0F090020D93
:105BC100E0FFBD0313E4FCFDFE90022412192090B6
:105BD10002287401F0FB8011E4FCFDFE9002241206
:105BE1001920E4900228F07B017D0A7F021248E02F
:105BF10090020CE090020EB40215E0FFE4FCFDFE01
:105C01009002241219209002287401F0FB8013E005
:105C1100FFE4FCFDFE900224121920E4900228F01A
:105C21007B017D0B7F021248E090020CE090020F95
:105C3100B40115E0FFE4FCFDFE900224121920904E
:105C410002287401F0FB8013E0FFE4FCFDFE9002EA
:105C510024121920E4900228F07B017D0C7F0212AE
:105C610048E090020CE07BFF7A0379EA7019900218
:105C71002604F07D0A7F04125A697BFF7A04790AAF
:105C810090022674018016E4900226F07D0A7F04BA
:105C9100125A697BFF7A04790AE4900226F07D0B9F
:105CA1007F04125A697BFF7A6A7984E490021CF0BE
:075CB1007D0D7F02026FD59B
:102B500078157C027D017B017A02790C7E007F0969
:0B2B60001216BC90020BE090021EF069
:102B6B0090021BE0FAA3E0FB7C007D0AFFAE021291
:102B7B00176E7C007D0A12176E90021FEDF07C0021
:102B8B007D0AAF03AE0212176EA3EDF090021EE0AA
:102B9B00B40116A3E0FFE4FCFDFE90022412192001
:102BAB009002287401F0FB801690021FE0FFE4FCFA
:102BBB00FDFE900224121920E4900228F07B017D87
:102BCB00077F021248E090021EE0900220B402152B
:102BDB00E0FFE4FCFDFE9002241219209002287401
:102BEB0001F0FB8013E0FFE4FCFDFE9002241219C0
:102BFB0020E4900228F07B017D087F021248E090D0
:102C0B00021EE090021AB40313E0FFE4FCFDFE90F9
:102C1B00022412192090022874018010E0FFE4FCBA
:102C2B00FDFE900224121920E4900228F07B027D15
:102C3B000C7F021248E090021EE0900218B40413BD
:102C4B00E0FFE4FCFDFE9002241219209002287490
:102C5B00018010E0FFE4FCFDFE900224121920E439
:102C6B00900228F07B027D107F021248E090021E3A
