:1037F300436865636B205349343433322E2E2E0DC8
:103803000A004445564943455F545950453A2030D0
:103813007825782E0D0A000D0A0044455649434584
:103823005F56455253494F4E3A20307825782E0D36
:103833000A004445564943455F5354415455533A4E
:103843002061742069646C65206D6F64652E0D0AB8
:10385300004445564943455F5354415455533A2018
:103863006174205258206D6F64652E0D0A00444523
:10387300564943455F5354415455533A206174208C
:103883005458206D6F64652E0D0A0043727973746A
:10389300616C204F7363696C6C61746F72204C6F41
:1038A30061642043617061636974616E63653A208A
:1038B30025780D0A0053493434333220494F2049C7
:1038C3006E69742E2E2E2E2E2E0D0A00494F20497E
:1038D3006E697420636F6D706C657465642E0D0A78
:1038E30000534934343332206973206E6F74206679
:1038F3006F756E642E2E2E2E2E2E0D0A0053493414
:10390300343332204750494F496E697420636F6DD9
:10391300706C6574652C636F6E6669672064657689
:103923006963652E2E2E2E2E2E0D0A00436F6E66B2
:1039330069672052462E2E2E2E2E2E0D0A00534935
:1039430034343332496E697420636F6D706C6574FF
:10395300652E0D0A005349343433325F53657420A6
:1039630052784D6F64652E2E2E2E2E2E0D0A005387
:1039730049343433325F5365742054784D6F646532
:103983002E2E2E2E2E2E0D0A005349343433325F41
:103993005365742049646C654D6F64652E2E2E2E1D
:1039A3002E2E0D0A005349343433325F53656E644F
:1039B300204649464F20646174612E2E2E2E0D0A37
:1039C300002072657620496E746572727570740D8D
:1039D3000A002073656E6420496E74657272757097
:1039E300740D0A006D6F6465207265676973746591
:0539F300723A0D0A000C
:1065D900D3EF9400EE64809480400F7D817C14DCBD
:0A65E900FEDDFAEF1F70E91E80E6E8
:0165F3002285
:07683F00C2C3D2B3D2B222A2
:0964C3009002BFEFF07D017F0E95
:1064CC0090020EEDF0C2B3EF4480FF1267B290025F
:0964DC000EE0FF1267B2D2B322F8
:07671E009002BEEFF07F04C2
:0C672500C2B31267B27FFF1267B2D2B39A
:016731002245
:10581B007BFF7A3779F312675AE4FF126725900200
:10582B0009EFF07BFF7A38790512675A900209E08D
:10583B00FF1263147BFF7A38791A12675A900209A8
:10584B00E0640860037F01227F0112672590020943
:10585B00EFF07BFF7A38791D12675A900209E0FF4F
:10586B001263147BFF7A38791A12675A7F02126718
:10587B0025900209EFF0540F70087BFF7A387935C9
:10588B008022900209E0540FFFBF01087BFF7A389A
:10589B0079548010900209E0540FFFBF02097BFF7F
:1058AB007A38797112675A7F09126725900209EFCE
:1058BB00F07BFF7A38798E12675A900209E0FF125B
:0D58CB0063147BFF7A38791A12675A7F0048
:0158D80022AD
:10542A007D537F751264CC7D4B7F761264CCE4FD8C
:10543A007F771264CC7D097F6E1264CC7DD57F6F35
:10544A001264CC7D2C7F701264CC7D807F581264EC
:10545A00CC7D1F7F6D1264CC7D207F721264CC7D5F
:10546A002C7F1C1264CC7D417F201264CC7D607F2E
:10547A00211264CC7D277F221264CC7D527F2312B5
:10548A0064CCE4FD7F241264CC7D047F251264CCB5
:10549A007D407F1D1264CC7D0A7F1E1264CC7D0F75
:1054AA007F2A1264CC7D037F1F1264CC7D607F69E2
:1054BA001264CC7D0C7F341264CC7D2A7F35126451
:1054CA00CC7D027F331264CC7D2D7F361264CC7D75
:1054DA00D47F371264CC7D8D7F301264CCE4FD7F9B
:1054EA00321264CC7D637F711264CC7DB47F090271
:0254FA0064CC80
:1058D9007BFF7A3879B812675A12683F7BFF7A38AA
:1058E90079CF12675A7F147E00801312581BEF601C
:1058F900127BFF7A3879E412675A7FF47E011265C8
:10590900D980E87DCA7F0B1264CC7DCA7F0C1264F2
:10591900CC7DCA7F0D1264CC7F0A7E001265D97BCB
:10592900FF7A39790012675A7F0312672512671EB9
:105939009002BFEFF07D807F071264CC7F147E0058
:105949001265D97F0312672512671E9002BFEFF017
:105959007BFF7A39792F12675A12542A7DFF7F0506
:105969001264CC7DFF7F061264CC7F031267251277
:10597900671E9002BFEFF07D077F051264CCE4FD3E
:0E5989007F061264CC7BFF7A39794102675A9F
:1065F4007F0312672512671E1264C37D057F07128D
:0B66040064CC7BFF7A39795802675A9A
:106458007F0312672512671E9002BFEFF07D027F4F
:106468000E1264CC7D097F071264CC7BFF7A3979E0
:046478007202675AEB
:10660F007F0312672512671E1264C37D017F071275
:0B661F0064CC7BFF7A39798C02675A4B
:105DD30090020AEBF0A3EAF0A3E9F0900209EFF0D6
:015DE300FDC2
:105DE4007F3E1264CCE490020DF0900209E0FF9033
:105DF400020DE0FEC3EF6480F8EE648098502590B5
:105E0400020AE0FBA3E0FAA3E0F9EEFF3395E08F8A
:105E140082F583121A78FD7F7F1264CC90020DE024
:105E240004F080C61264587BFF7A3979A802675A55
:105AF4007F07126725900204EFF07F0312672512D7
:105B0400671E9002BFEFF09002BEE030E15B7BFFC6
:105B14007A3979C412675A7F4B126725900205EFD0
:105B2400F0BF0C2EE4900204F0900205E0FF900216
:105B340004E0C39F501C7F7F126725900204E02479
:105B440053F582E43402F583EFF0900204E004F0AC
:105B540080D77D027F081264CCE4FD7F081264CCF8
:105B64001265F49002517401F09002BEE030E20C30
:0C5B74007BFF7A3979D512675A1265F46C
:015B80002202
:10647C007F071267259002C2EFF07BFF7A3979E72C
:10648C0012675A9002C2E0FF1263147BFF7A3879CC
:04649C001A02675A1F
:0C33990049029B00000001050107E00054
:09682E00E4FB7D0E7FD002662A16
:10569600E4FD7FD012665FAD07ED54F0C4540F757C
:1056A600F00AA4FFED540F2F90029BF07D017FD0EE
:1056B60012665FAD07ED54F0C4540F75F00AA4FFEF
:1056C600ED540F2F90029CF07D027FD012665FADE5
:1056D60007ED54F0C4540F75F00AA4FFED540F2FD4
:1056E60090029DF07D047FD012665FAD07ED54F009
:1056F600C4540F75F00AA4FFED540F2F90029EF0CC
:105706007D037FD012665F90029FEFF07D057FD00C
:1057160012665FAD07ED5410C4540F75F00AA4FF6E
:10572600ED540F2F9002A0F07D067FD012665FAD7C
:1057360007ED54F0C4540F75F00AA424D0FFE5F029
:105746003407FEED540F7C002FFFEC3E9002A1F0D3
:03575600A3EFF0CE
:01575900222D
:1054FC00900292E0FF75F00A84C454F0FEEF75F050
:10550C000A84E5F02EFBE4FD7FD012662A9002930C
:10551C00E0FF75F00A84C454F0FEEF75F00A84E5E0
:10552C00F02EFB7D017FD012662A900294E0FF756D
:10553C00F00A84C454F0FEEF75F00A84E5F02EFBFB
:10554C007D027FD012662A900295E0FF75F00A84E6
:10555C00C454F0FEEF75F00A84E5F02EFB7D047F59
:10556C00D012662A900296E0FB7D037FD012662A49
:10557C00900297E0FF75F00A84C454F0FEEF75F0CA
:10558C000A84E5F02EFB7D057FD012662A900299E5
:10559C00E02430FF900298E034F8FE7C007D0A1283
:1055AC001AEBEFC4F8540FC868FFAB07E0FEA3E09A
:1055BC00FF7C007D0A121AEBEB2DFB7D067FD002DF
:0255CC00662A4D
:1000260000000000000000000000000000000000CA
:10003600000000000018188888286A4E0CE8E808B6
:1000460008181800000444446525341C0E0F1D349E
:100056006444040000F8F888F8F81090901010FE38
:10006600FE101000001F1F081F1F00000343407FE3
:100076007F0000000020644C0800FEFE929292FE73
:10008600FE00000000303C0F437E7E7E7E427E7E78
:100096007E7E4000000000F8F828F8FAAEACA8F81A
:1000A600F82828000040703F4F42662E3A123A2E3A
:1000B6006642400000202020A0E060FFFFE0C06014
:1000C600381800002030180E0741C0FF7F010306D4
:1000D6000C1810100080C0F0FE0E9090121E1CD05E
:1000E600D01000000000007F7F40414F4E607C5FD3
:1000F6004340400000F8F888F8F81090901010FE81
:10010600FE101000001F1F081F1F00000343407F42
:100116007F0000000000F0F20EECE4242424E4E466
:1001260004FCFC0000007F7F000F0F0909090F4F38
:10013600407F7F0000808282FEFE82828282FEFEF7
:1001460082828000004060381F07000000007F7F29
:100156000000000000001010121E1CF0F0181E1601
:10016600101000000041416131190F07070F1931C6
:1001760061414100002038DFC7444444FCFC44444C
:10018600444404000404040707040404FFFF0404B1
:1001960004040404000000FEFE222222222222225F
:1001A600FEFE000080C0703F0F020202020242C241
:1001B600FF7F0000000000FEFE828282828282FEB5
:1001C600FE000000000000FFFF404040404040FFAE
:1001D600FF000000000000F8F88C8E8B898888F8F4
:1001E600F8000000000000FFFF444444444444FF7C
:1001F600FF0000004044C4C44444445010FFFF10B4
:1002060010F0F000103C3F1314BCF8703E0F41C0D4
:10021600C07F3F00101010FFFFB0B8D868290F2E1E
:1002260068E8B8180242C3FF7F40404242427E7EE1
:100236004242424040505E4E48FFFF484848F8F868
:1002460000FFFF0000003E3E02FFFF323E1E0F4F42
:10025600C0FF7F00000022323AAEA6E26331198960
:1002660081010000004262331B4BC2FE7E020A1A65
:10027600336746002030BCEF733088C8E8B99F8EDC
:10028600A8E8C888226767321292C0703F0F003F05
:100296007F40717100083830FFFF202020FFFF20CB
:1002A600222E2C2004040603FFFFC0703E0F071EFB
:1002B6003860C08000048484C46474DF9F3464C4DE
:1002C60084840400417939003C7C40424E4C4070A5
:1002D600740D3931101C4C643414050706041434AB
:1002E60064541C0C004040414141417F7F414141E3
:1002F6004140400000F8F943424242FAFA42424283
:1003060042FEFE0000FFFF080C06033F3F03064CBB
:10031600C8FF7F000000FEFE42424242FAFA424215
:1003260042C2C20280E07F9FC060381E070140C003
:10033600C07F3F000000F8F8888888FFFF8888881B
:10034600F8F80000808081C54C78303F2F6040402F
:10035600C181808090D27634FFFF3476D2F0FF8F51
:1003660008F8F808829ADE776372DE8E80C0733FE3
:100376003F73C0801010FFFF9090FEFE9292F2F243
:10038600929E9E8042C2FF7F81E07F1FFCFC474712
:1003960044FCFC00404042CECC40E0BE9E82829EA1
:1003A600BEA020200000003FBF98C8436F3C386EB7
:1003B60047C18080001717D5D557577D7D5757D52C
:1003C600D51717004040407F7F5555555555557FE9
:1003D6007F404040404042CECC00FCFCA4A42622F4
:1003E600A3E362000040603F3F785F57584D4747A0
:1003F6004D5850400000FEFE02F2F21212F2F202D6
:10040600FEFE000000007F7F2027272424272720C8
:100416007F7F000020305C4F57545454545454D4BA
:10042600D404040000000000000000000000000FDB
:100436003F70F0F08080C06030182CE7C70C183091
:1004460060C080800000000202020282C2623A1E80
:100456000600000040404242424242FEFE42424204
:10046600424240408080C060301C0F03030F1C30A6
:1004760060C080801010D0FFFF94F4EFAFA4A4AF4B
:10048600EFE40400040703FFFF89CB6B3A1E1E3A14
:100496006BCB8880101090909090909010FFFF107A
:1004A60011171610002060603F3F101010030F1C3C
:1004B6003060F8F800002424242424FCFE222223A1
:1004C60023220000020202020242C2FF7F0202024F
:1004D60002020202000000BEBE2A2AEAEA2A2A3ED8
:1004E6003E0000000044464B4949497F7F4949493F
:1004F600494140000004FFFF2424FFFF04FEFE22C2
:1005060022FEFE0088C86F2F0919BFEF783F0F4201
:10051600C2FF7F0080808080808080808080808095
:1005260080808080000000000000000000000000C5
:100536000000000000000808080808080808080865
:1005460008080000101010101010101010101010D5
:100556001010101000048484848484848484848429
:1005660084840400202020202020202020202020F9
:100576002020202000FCFC0404FCFC0404FCFC04F9
:1005860004FCFC00007F7F2C27232020202123222F
:10059600227F7F000002424242C2FE7E424242C2A7
:1005A600C202020040404040787F47404040407FC2
:1005B6007F40404020202020202021232E2C202058
:1005C60020202020004060301C0F0300000103069D
:1005D6001C7860004042CECC00445454547F7F5473
:1005E6005454444000007F7F3010FFFF151555D549
:1005F600FF7F000088E87FDFC818D8DC56D3D39683
:100606009CD8D010091919FFFF05FFFF92FFFF5F65
:10061600DFFF7F00000000000001E3FEFCE00000B9
:100626000000000080C060301C0F030000030F3C78
:1006360070C08080109CCC44E4E495B7E6643494A2
:10064600C4D49C0C02027A7B4143437E7E424243E1
:10065600FBF800000484E4FC5CC4C402F2F282826B
:10066600FEFE808002037F7F103F3F08080808488F
:10067600C8C87F3F4070FFEF646C487F7F48487F63
:100686007F48484001017F7F3111FFFF49494949B1
:10069600FFFF00004042CECC00809E9E9292929236
:1006A6009E9E800000007F7FB494C464341F1F3474
:1006B60064C48484101010FFFF9090F0F010FFFFC8
:1006C60010F0F0000444C6FF7F0100FFFF427F7F69
:1006D60042FFFF004040C0DF5F55D5D55555555FF9
:1006E6005F40404020607F3F3515FFFFD76F393DA3
:1006F6006FC3808020202020202020FFFF20202084
:10070600202020208080C060301C0F03030F1C3087
:1007160060C08080000000E0E00000FFFF000020D5
:1007260060C08000080C07030040C0FF7F00000087
:1007360000010F0E80E0F8FF0704747455575654F5
:10074600747404000000FFFF03030545C5FD7D0525
:1007560005050303206464B494BFBF809FBFA4A6AD
:10076600A23A3800000000FFFF0A0A0A0A4ACAFF36
:100776007F000000404042465CD8C07F7FC0D05812
:100786004E4640408080C060381F0700003F7F40D3
:10079600404078784060F8FFF7F0B0DC5F77A4F46B
:1007A6005CCC80800000FFFF1F9F92D25B692D36D4
:1007B6001A0800000484848484FCFC70FCCF0B08B7
:1007C600F8F80808007F7F30101888C061371E1EB1
:1007D6003761C08020303CEFE72424E2EE2CBFBF17
:1007E60028EEE6000101017F7F3191CF6F301F1F98
:1007F600306FCF80101C0C24242425272624242483
:1008060024141C0C008181C1713F0F01017FFF81FF
:1008160081F1F1000000F8F88888888808FFFF0950
:100826000BCAC80880E07F1F10303F9FC061371E8B
:100836003E67F9F80080E0F8FF073E3E22E2E2223A
:100846003E3E0000010100FFFF31190D07FFFF07C3
:100856000D193120040484E4FC1F27242424A4E475
:1008660064240404020301FFFF020242C2FF7F0266
:100876000202020240445475E7E6745444FCFC4408
:10088600C4C6424020325ACAFF7F0A9AF27F1F002E
:10089600FFFF00000202F2F2929292FEFE92929204
:1008A600F2F202020404FFFF04040407070444C42E
:1008B600FF7F040400020E8CE0E0C0703FCFC80842
:1008C6002838180002027E7F81C060381E07071E86
:1008D6003860C080000202020282C2F2FE4EC2826C
:1008E6000202020010180C06030100FFFF000001BF
:1008F600030E0C0010180C87EF7C94949C8F87ECE9
:10090600FC948484040603FFFF0000020E4CC0FF23
:100916007F00000000F8F923222222A2FAFA2222FE
:1009260022FEFE0000FFFF080C0613313F1F0040A9
:10093600C0FF7F000000183C243C180000000000A7
:1009460000000000E0380C0602030101010101016C
:100956000101010101010101010101010101010181
:100966000101010101010101010101010101010171
:10097600010302060C38E040404040404040404001
:10098600C000FF00000000000000000000000000A2
:100996000000000000000000000000000000000051
:1009A6000000000000000000000000000000000041
:1009B60000000000FF40C000000000000000FF0033
:1009C600FF00000000000000000000000000000022
:1009D6000000000000000000000000000000000011
:1009E6000000000000000000000000000000000001
:1009F6000000FF00FF0000F0FFF00000FF00FF0016
:100A060000000000000000000000000000000000E0
:100A160000000000000000000000000000000000D0
:100A260000000000000000000000000000000000C0
:100A3600FF00FF001CFFFFFF1C00FF00FF800000FF
:100A460000000000000000000000000000000000A0
:100A56000000000000000000000000000000000090
:100A66000000000000000000000000000080FF7091
:100A76005F0000FFFFFF00005F700003060C081810
:100A86001010101010101010101010101010101060
:100A96001010101010101010101010101010101050
:100AA6001010101010101018080C16131808081043
:100AB60010180818101010080000000000000000B0
:100AC6000000000000000000000000F8F800000030
:100AD600000030333300000000100C06100C060036
:100AE60000000000000000004040F840F840000010
:100AF600043E053F05040000007088FC0830000035
:100B0600001820FF211E0000F008F0807008000089
:100B160000211C031E211E0000F08870000000004A
:100B26001F2027281F2110000000000000000000E1
:100B360080B0F07000000000000000F0FC0E020023
:100B46000000000F3F70400000061EF8E0000000A5
:100B56000060781F070000004040C0F0F0C0404031
:100B66000202030F0F030202000000F0F000000073
:100B76000101011F1F01010100020206040000001D
:100B8600000000000000000000000000000000005F
:100B96000101010101010100000000000000000048
:100BA600003030300000000000000000C0F83C0CAF
:100BB6000060783F07010000E0F0180818F0E00038
:100BC6000F1F3020301F0F00001010F8F800000033
:100BD6000020203F3F2020000070780808F8F00031
:100BE60000303C2E233130000030388888F8700001
:100BF60000183820313F1E000080C060F8F8000061
:100C0600060705243F3F240400F8F8888888080072
:100C160000193921313F1F00E0F0988888981800A4
:100C26000F1F3120313F1F0000383808E8F8180040
:100C36000000003F3F00000070F8988898F87000A8
:100C46001E3F2121313F1E00F0F8080818F8E00089
:100C5600313322323B1F07000000C0C0C000000035
:100C660000003030300000000000008080000000EE
:100C7600000080E060000000000080E070180800BE
:100C86000001030E1C302000404040404040400020
:100C9600040404040404040000083870C080000042
:100CA6000020381C060301007078080818F8F000C8
:100CB6000000303737010000C0F0F8E8E8F8F0E04F
:100CC600071F3F2727371F0B0000E0F8F8E000005A
:100CD600203C3F23233F3C2008F8F88888F8700022
:100CE600203F3F20313F1E00E0F03808083838002A
:100CF6000F1F30202030100008F8F80818F0E00028
:100D0600203F3F20301F0F0008F8F888E8F8180049
:100D1600203F3F202333300008F8F888E8E8181011
:100D2600203F3F2003030000C0F038080838380091
:100D3600071F3820223E1E0208F8F80808F8F808AF
:100D4600203F3F21213F3F20000808F8F80808000F
:100D56000020203F3F202000000808F8F80808007F
:100D6600C0C080FF7F00000008F8F8C8E8381808FF
:100D7600203F3F21273E382008F8F80800000000F1
:100D8600203F3F202030300008F8F800F8F808002F
:100D9600203F003F003F200008F8F8F8C8F8F808A0
:100DA600203F3F231F3F3F00E0F0180818F0E00007
:100DB6000F1F3020301F0F0008F8F80808F8F00061
:100DC600203F3F2101010000E0F0180818F0E00084
:100DD6000F1F3C247C7F4F0008F8F88888F87000C5
:100DE600203F3F21073E38200070F8880818180079
:100DF60000303021233F1E00181808F8F80818188C
:100E06000000203F3F20000008F8F80808F8F8081E
:100E1600001F3F20203F1F000878F88888F87808D0
:100E260000000F3F3F0F000008F8FCFCF8F8F80838
:100E360000073F3F3F3F07000838F8E8E8F8180882
:100E460020303C2F2F3E38200838F8C8C8F838081C
:100E56000000203F3F200000101808C8F83808009E
:100E6600303C2F2320301000000000FEFE0202005E
:100E76000000007F7F404000001CFCE000000000F6
:100E8600000000031F7C6000000202FEFE0000005E
:100E96000040407F7F0000000000040606040000BA
:100EA600000000000000000000000000000000003C
:100EB600808080808080808010161E0E00000000DA
:100EC600000000000000000000008080808080009C
:100ED600001D3D26223F3F2008F8F8808080000054
:100EE600003F3F21203F1F0000008080808080005F
:100EF600001F3F31203111000000808088F8F80083
:100F0600001F3F21203F3F2000008080808000009E
:100F1600001F3F22223313008080F0F888981800C3
:100F260000203F3F2020000000008080808080005D
:100F3600006BFF9497F3600008F8F88080808000CB
:100F4600203F3F21203F3F200080809898000000EE
:100F56000020203F3F20200000008080989800005D
:100F660000C0C080FF7F000008F8F8808080800005
:100F7600203F3F263F392000000808F8F80000000F
:100F86000020203F3F20200080808080808080805D
:100F9600203F3F203F3F203F808080808080800030
:100FA600203F3F2100203F3F0000808080800000DE
:100FB600001F3F31213F1F0080808080808000001D
:100FC60080FFFFA1303F1F000000808080808000EE
:100FD600001F3F21A0FFFF808080808080808000EE
:100FE60020203F3F2121010000008080808080007A
:100FF60000333724243D1900008080E0E080800023
:101006000000001F3F20200080808000808080003C
:10101600003F3F20203F3F2080808080808080806E
:1010260000031F3C3C1F03008080C0C0808080807E
:10103600000F3F3F3F3F0F00808080808080800010
:1010460020313F2E3F31200080808080808080804C
:101056008083CF7E3E0F01000080808080808000EC
:081066000021393C2733300062
:1033A50060C00000000000000000000000000000F8
:1033B5000000000000000000000000000000000008
:1033C50000000000000000000000000000000000F8
:1033D50000000000000000000000000000000000E8
:1033E50000000000000000000000000000000000D8
:1033F50000000000000000000000000000000000C8
:1034050000000000000000000000000000000000B7
:1034150000000000000000000000000000000000A7
:103425000000000000000000000000000000000097
:103435000000000000000000000000000000000087
:103445000000000000000000000000000000000077
:103455000000000000000000000000000000000067
:103465000000000060C000C0000000000000000077
:103475000000000000000000000000000000000047
:103485000000000000000000000000000000000037
:103495000000000000000000000000000000000027
:1034A5000000000000000000000000000000000017
:1034B5000000000000000000000000000000000007
:1034C50000000000000000000000000000000000F7
:1034D50000000000000000000000000000000000E7
:1034E50000000000000000000000000000000000D7
:1034F50000000000000000000000000000000000C7
:1035050000000000000000000000000000000000B6
:1035150000000000000000000000000000000000A6
:0835250000000000000000009E
:0465A0007F057E00F5
:1065A400D3EF9400EE9400400F7D147C32DCFEDDCA
:0865B400FAEF1F70EB1E80E8F6
:0165BC0022BC
:10677F00D3EF9400EE94004007EF1F70F31E80F0EC
:01678F0022E7
:04685E0043BB6022B6
:105FE90090021CE0FF90021BE04440FBE4FD1260BC
:0C5FF9000590021FE044B8FBE4FD7F07A8
:10600500EF30E002C2C2EF30E102C291EF30E202AE
:10601500C292D2C6ED6004D2C58002C2C5C2C1AF6C
:10602500038F80C2C6D2C2D291D2927F017E000276
:0260350065A460
:0760CA00900279E0FF7D0167
:1060D1007580FFEFB40104C2C2800EEFB40204C2A6
:1060E100918006EFB40402C292ED6004D2C5800231
:1060F100C2C5D2C100D2C600AC80C2C6C2C1D2C222
:0D610100D291D2927F017E0012677FAF0421
:01610E00226E
:02634800A907A3
:10634A00E4FBE930E009E4FD7F011260D1EFFBE9EB
:10635A0030E10AE4FD7F021260D1EB4FFBE930E243
:0F636A000AE4FD7F041260D1EB4FFBEB20E7D17B
:016379002201
:10676D00C2CA7F507E001265A4D2CA7FA07E0002ED
:02677D0065A411
:1064E5007F07126348E4FAEA125FFEE4F9E4FB7DF4
:1064F500017F0712600509E9B440F20AEAB408E72A
:016505002273
:10640700C2CB1265A012676D7B3E1260011265A0B8
:106417007BC01260011265A01264E51265A07B3F84
:096427001260011265A0D2CB2223
:10610F007F071263487B40E4FD7F011260057BBA75
:10611F00E4FD7F01126005E4FAE4F97BFF7D017F66
:10612F000112600509E9B440F27B40E4FD7F0112E2
:10613F006005EA240344B8FBE4FD7F011260050A01
:04614F00EAB401D5D8
:016153002229
:106154007F071263487B40E4FD7F021260057BBA2F
:10616400E4FD7F02126005E4FAE4F97BFF7D017F20
:106174000212600509E9B440F27B40E4FD7F02129B
:106184006005EA240344B8FBE4FD7F021260050ABB
:04619400EAB401D593
:0161980022E4
:104E0000900222EBF0A3EAF0A3E9F0900220EFF089
:034E1000A3EDF01F
:104E1300EF1425E0900220F0ED24FFFFE434FFFEC1
:104E2300EF7802CEC313CE13D8F9FF700790022791
:104E330004F08016EFB401089002277402F0800A90
:104E4300EFB402069002277404F0900221E0145498
:104E530003C454F0F0FE900227E0FFEE4440FBE46D
:104E6300FD126005E0FF900220E044B8FBE4FD1270
:104E73006005E4900226F0900225E0900227601876
:104E8300E0FF900222E0FBA3E475F001121B56A998
:104E9300F0FA121A5FF48015E0FF900222E0FBA300
:104EA300E475F001121B56A9F0FA121A5FFB7D019B
:104EB300126005900226E004F0E0C3941040B8901D
:104EC3000227E0FF900221E04440FBE4FD1260056D
:104ED300900227E0FF900220E00444B8FBE4FD12B7
:104EE3006005E4900226F0900225E0900227601806
:104EF300E0FF900222E0FBA3E475F001121B56A928
:104F0300F0FA121A5FF48015E0FF900222E0FBA38F
:104F1300E475F001121B56A9F0FA121A5FFB7D012A
:0F4F2300126005900226E004F0E0C3941040B83D
:014F3200225C
:054CC700E090023FF047
:104CCC0090023CEBF0A3EAF0A3E9F090023AEFF08B
:034CDC00A3EDF055
:104CDF00EF1425E090023AF0ED24FFFFE434FFFEDD
:104CEF00EF7803CEC313CE13D8F9FF7007900241AC
:104CFF0004F08016EFB401089002417402F0800AAC
:104D0F00EFB402069002417404F090023BE0145499
:104D1F000775F008A4F0FE900241E0FFEE4440FB5F
:104D2F00E4FD126005E0FF90023AE044B8FBE4FDB9
:104D3F00126005E4900240F090023FE09002416063
:104D4F0018E0FF90023CE0FBA3E475F001121B5644
:104D5F00A9F0FA121A5FF48015E0FF90023CE0FB15
:104D6F00A3E475F001121B56A9F0FA121A5FFB7D2E
:104D7F0001126005900240E004F0E0C3940840B8CF
:104D8F00900241E0FF90023BE04440FBE4FD1260E3
:104D9F0005900241E0FF90023AE00444B8FBE4FDC5
:104DAF00126005E4900240F090023FE090024160F3
:104DBF0018E0FF90023CE0FBA3E475F001121B56D4
:104DCF00A9F0FA121A5FF48015E0FF90023CE0FBA5
:104DDF00A3E475F001121B56A9F0FA121A5FFB7DBE
:104DEF0001126005900240E004F0E0C3940840B85F
:014DFF002291
:105E3400900216EFF0A3EDF0A3EBF0A3EAF0A3E9D0
:105E4400F0900218E0FBA3E0FAA3E0F9121A5F60F5
:105E54003D75F010A424BEF9740835F0FA7BFF9068
:105E64000216E0FFA3E0FD90021B124CC79002173C
:105E7400E004F0E0D3941840097401F0900216E0B5
:0F5E840004F0900219E475F001121B4080B32264
:0845EC00900209EFF0A3EDF0CD
:1045F400780F7C027D017BFF7A0079267E007F0A9A
:10460400121A39E4900219F0A37409F0E4A3F0A398
:10461400F0A3121BEB0000000190020BE0FCA3E0EE
:10462400FDA3E0FEA3E0FFEC33501690021B7401DF
:10463400F090020BA3A3A3E0121BBB90020B121B6E
:10464400DF90020BE0FCA3E0FDA3E0FEA3E0FFEC9F
:104654004D4E4F6074E47B0AFAF9F890020BA3A361
:10466400A3E01261DDAC00AD01AE02AF0390021D08
:10467400121BDF90021DA3A3A3E02430FF900219B4
:10468400E0FE04F0740F2EF582E43402F583EFF0BB
:1046940090020BE0FCA3E0FDA3E0FEA3E0FFE47BBB
:1046A4000AFAF9F81261DD90020B121BDF9002196D
:1046B400E06402708CE0FF04F0740F2FF582E434A0
:1046C40002F583742EF0024645900219E0D3940358
:1046D400502AE0FF04F0740F2FF582E43402F583CE
:1046E4007430F0900219E0B402DFFF04F0740F2F6D
:1046F400F582E43402F583742EF080CD90021BE041
:104704006014900219E0FF04F0740F2FF582E43472
:1047140002F583742DF0E490021AF0900219E0FF80
:10472400A3E0FEC39F503F740F2EF582E43402F5DC
:1047340083E075F010A424BEF9740835F0FA7BFF09
:10474400900209E0FFA3E0FD14F0E4124CC89002CB
:104754000AE0700A900209E004F0A37418F09002D1
:064764001AE004F080B52C
:01476A00222C
:0B3F9E00900220EFF0A3EDF0A3EBF089
:103FA90078287C027D017BFF7A0079307E007F0AC8
:103FB900121A39E4900232F0A37409F0E4A3F0A3D1
:103FC900F0A3121BEB00000001900223E0FCA3E028
:103FD900FDA3E0FEA3E0FFEC335016900234740118
:103FE900F0900223A3A3A3E0121BBB900223121B90
:103FF900DF900222E0606F900222E0FF14F0EFD31D
:10400900940050030240DDE47B0AFAF9F8A3E0FCCE
:10401900A3E0FDA3E0FEA3E0FF1261DDAC00AD016A
:10402900AE02AF03900236121BDF900236A3A3A3A0
:10403900E02430FF900232E0FE04F074282EF5826D
:10404900E43402F583EFF0900223E0FCA3E0FDA342
:10405900E0FEA3E0FFE47B0AFAF9F81261DD9002C1
:1040690023121BDF8091900223E0FCA3E0FDA3E073
:10407900FEA3E0FFEC4D4E4F605AE47B0AFAF9F8D3
:10408900900223A3A3A3E01261DDAC00AD01AE024F
:10409900AF03900236121BDF900236A3A3A3E024DC
:1040A90030FF900232E0FE04F074282EF582E434E9
:1040B90002F583EFF0900223E0FCA3E0FDA3E0FE0C
:1040C900A3E0FFE47B0AFAF9F81261DD90022312FA
:1040D9001BDF8092900234E06014900232E0FF040A
:1040E900F074282FF582E43402F583742DF0E490FE
:1040F9000233F0900232E0FFA3E0FEC39F50417407
:10410900282EF582E43402F583E075F010A424BE6C
:10411900F9740835F0FA7BFF900220E0FFA3E0FD77
:1041290014F0900227124CC7900221E0700A900205
:1041390020E004F0A37418F0900233E004F080B397
:014149002253
:0A4B890090020CEDF0AC07A3EBF076
:104B9300E4900218F0EB24FFFFE434FFFEEF780308
:104BA300CEC313CE13D8F90490020DF0EC24FFFF0B
:104BB300E434FFFEEF7803CEC313CE13D8F990028B
:104BC30014F090020CE0FF14543F900215F0FDEF37
:104BD30024FFFFE434FFFEEF7806CEC313CE13D8D1
:104BE300F9FF7401A807088002C333D8FCFF9002C1
:104BF30016F0900218F0ED4440FBE4FD12600590BE
:104C03000214125FFDE4900212F090020DE0FF9097
:104C13000212E0C39F4003024CC6E4A3F090020ECD
:104C2300E0FF900213E0FEC39F506AEEFF90020C78
:104C3300E02FFFE433CF24FFCF34FFFEEF7806CE1F
:104C4300C313CE13D8F975F00384AFF07401A8072A
:104C5300088002C333D8FCFF900217F0A3E06F6013
:104C63000E900217E0FFA3F07B40E4FD1260059075
:104C73000217E0FF90020FE0FBA3E475F001121BA3
:104C830056A9F0FA121A5FFB7D0112600590021318
:104C9300E004F08088900216E0FF900218F0900282
:104CA30015E04440FBE4FD126005900212E0FF9022
:104CB3000214E02F540704125FFE900212E004F086
:034CC300024C0D93
:014CC60022CB
:0F3DCB0090026FEFF0900271EBF0900270EDF04C
:103DDA00E490027BF0ED14543F900278F0FCED245D
:103DEA00FFFFE434FFFEEF7806CEC313CE13D8F9F3
:103DFA00FF7401A807088002C333D8FCFF90027938
:103E0A00F090027BF0EC4440FBE4FD126005900266
:103E1A006FE014125FFE1260CAE4900276F090021C
:103E2A0071E0FF900276E0C39F4003023EFBE4A3E9
:103E3A00F0900272E0FF900277E0FEC39F40030217
:103E4A003ECBEEFF900270E02FFFE433CF24FFCF8A
:103E5A0034FFFEEF7806CEC313CE13D8F975F003FC
:103E6A0084AFF07401A807088002C333D8FCFF901E
:103E7A00027AF0A3E06F600E90027AE0FFA3F07B73
:103E8A0040E4FD12600590027A1260CDAD079002FF
:103E9A0072E0FF900276E08FF0A4FFA3E07A002F91
:103EAA00FFEA35F0FE900273E0FBA3E0FAA3E0F923
:103EBA008F828E83ED121AB7900277E004F0023EE9
:103ECA003B900279E0FF90027BF0900278E0444058
:103EDA00FBE4FD126005900276E0FF90026FE02F8E
:103EEA005407125FFE1260CA900276E004F0023EA6
:103EFA00287F07126348900278E04440FBE4FD7F84
:103F0A000212600590026FE01444B8FBE4FD7F02E0
:103F1A00126005E4900276F0900271E0FF9002765A
:103F2A00E0C39F506EE4A3F0900272E0FF90027724
:103F3A00E0FDC39F5031900276E08FF0A47C002D03
:103F4A00FFEC35F0FE900273E0FBA3E0FAA3E0F980
:103F5A008F828E83121A78FB7D017F021260059090
:103F6A000277E004F080C1900278E04440FBE4FD6F
:103F7A007F02126005900276E0FF90026FE02F54F4
:103F8A000744B8FBE4FD7F02126005900276E00464
:033F9A00F080852F
:013F9D002201
:07257100900216EDF0AC072B
:10257800E490021EF0EC24FFFFE434FFFEEF780342
:10258800CEC313CE13D8F990021FF0EC1454079061
:102598000222F0EC2B145407A3F0900222E0FDFF76
:1025A800EB2FFFE433FEEF7803CEC313CE13D8F935
:1025B800FFED2B540760047E0180027E00EE2FFFA2
:1025C800900221F090021FE02F14A3F0900216E071
:1025D800FD14543F90021BF0ED24FFFFE434FFFE8E
:1025E800EF7806CEC313CE13D8F9FF7401A80708F5
:1025F8008002C333D8FC90021CF090021EF09002B7
:1026080022E070030226C9125FE990021C1260CD15
:10261800E4900219F0900218E0FFA3E0FEC39F4087
:10262800030226C1EEFF900216E02FFFE433CF2409
:10263800FFCF34FFFEEF7806CEC313CE13D8F9755B
:10264800F0038490021AE5F0F0E0FF7401A807088F
:102658008002C333D8FCFF90021DF0A3E06F600E28
:1026680090021DE0FFA3F07B40E4FD12600590029C
:102678001D1260CD900219E0FE2400F582E43400BA
:10268800F583EFF074002EF582E43400F583C083FF
:10269800C082E0FF900222E0FEC374079EFE747FB2
:1026A800A806088003A2E713D8FB5FD082D083F086
:1026B800900219E004F002261D90021CE090021E10
:1026C800F0900223E0700302279A90021CE0FF902A
:1026D800021BE04440FBE4FD126005900220125FFB
:1026E800FD90021C1260CDE4900219F0900218E0EF
:1026F800FFA3E0FEC39F4003022792EEFF9002165D
:10270800E02FFFE433CF24FFCF34FFFEEF7806CE6F
:10271800C313CE13D8F975F0038490021AE5F0F0CC
:10272800E0FF7401A807088002C333D8FCFF9002B9
:102738001DF0A3E06F600E90021DE0FFA3F07B4048
:10274800E4FD12600590021D1260CD900219E0FEB2
:1027580024C0F582E43400F583EFF074C02EF582CE
:10276800E43400F583C083C082E0FF900223E0FEDA
:1027780074FFA806088002C333D8FC5FD082D083D8
:10278800F0900219E004F00226F490021CE0900296
:102798001EF0125FE9E4FA900221E0FFEAC39F40CD
:1027A800030228B6E4900219F0900218E0FFA3E0B3
:1027B800FEC39F4003022892EEFF900216E02FFF0F
:1027C800E433CF24FFCF34FFFEEF7806CEC313CE19
:1027D80013D8F975F0038490021AE5F0F0E0FF745D
:1027E80001A807088002C333D8FCFF90021DF0A39C
:1027F800E06F600E90021DE0FFA3F07B40E4FD1245
:102808006005900222E0F9602EA3E0602A90022180
:10281800E0B4012390021DE0FF900219E0FE24C0FD
:10282800F582E43400F583E0FD74002EF582E4348B
:1028380000F583E04D8044E96018EA701590021DA8
:10284800E0FF900219E02400F582E43400F583E00B
:102858008029900223E0601D900221E014B5021542
:1028680090021DE0FF900219E024C0F582E43400D4
:10287800F583E0800690021DE0FFE4FB7D01126015
:1028880005900219E004F00227B190021CE0FF90C5
:10289800021EF090021BE04440FBE4FD126005902C
:0E28A800021FE02A540704125FFE0A02279F57
:0128B60022FF
:0721EC00900210EDF0AC07BA
:1021F300E4900218F090021EF0EC24FFFFE434FF99
:10220300FEEF7803CEC313CE13D8F9900219F0EC86
:1022130014540790021CF0EC2B145407A3F0900203
:102223001CE0FDFFEB2FFFE433FEEF7803CEC31377
:10223300CE13D8F9FFED2B540760047E0180027E94
:1022430000EE2FFF90021BF0900219E02F14A3F071
:10225300900210E0FD14543F900215F0ED24FFFFAF
:10226300E434FFFEEF7806CEC313CE13D8F9FF7420
:1022730001A807088002C333D8FC900216F090022D
:1022830018F090021CE0700302235C900216E0FF3A
:10229300900215E04440FBE4FD1260059002191220
:1022A3005FFD9002161260CDE4900213F0900212CB
:1022B300E0FFA3E0FEC39F4003022354EEFF90021E
:1022C30010E02FFFE433CF24FFCF34FFFEEF780677
:1022D300CEC313CE13D8F975F00384900214E5F03E
:1022E300F0E0FF7401A807088002C333D8FCFF9015
:1022F3000217F0A3E06F600E900217E0FFA3F07BDC
:1023030040E4FD1260059002171260CD900213E0C5
:10231300FE2400F582E43400F583EFF074002EF51B
:1023230082E43400F583C083C082E0FF90021CE0A6
:10233300FEC374079EFE7480A806088003A2E713F9
:10234300D8FB4FD082D083F0900213E004F0022236
:10235300B0900216E0900218F090021DE0700302A4
:10236300243F900216E0FF900215E04440FBE4FD99
:1023730012600590021A125FFD9002161260CDE4FE
:10238300900213F0900212E0FFA3E0FEC39F40030C
:10239300022437EEFF900210E02FFFE433CF24FF37
:1023A300CF34FFFEEF7806CEC313CE13D8F975F002
:1023B3000384900214E5F0F0E0FF7401A80708809D
:1023C30002C333D8FCFF900217F0A3E06F600E90B6
:1023D3000217E0FFA3F07B40E4FD126005900217B3
:1023E3001260CD900213E024C0F582E43400F5833B
:1023F300EFF01D90021DE0FEEDC39E500AA3E02501
:10240300E04401F00D80EC900213E024C0F582E477
:102413003400F583C083C082E0FF90021EE0FEEF2C
:102423004ED082D083F0E490021EF0900213E004B9
:10243300F0022387900216E0900218F0900216E053
:10244300FF900215E04440FBE4FD12600590021981
:10245300125FFDE4FA90021BE0FFEAC39F40030210
:102463002570E4900213F0900212E0FFA3E0FEC394
:102473009F400302254CEEFF900210E02FFFE43350
:10248300CF24FFCF34FFFEEF7806CEC313CE13D88D
:10249300F975F00384900214E5F0F0E0FF7401A8ED
:1024A30007088002C333D8FCFF900217F0A3E06F44
:1024B300600E900217E0FFA3F07B40E4FD1260057D
:1024C30090021CE0F9602EA3E0602A90021BE0B4A6
:1024D3000123900217E0FF900213E0FE24C0F5826F
:1024E300E43400F583E0FD74002EF582E43400F556
:1024F30083E05D803CE96018EA7015900217E0FF05
:10250300900213E02400F582E43400F583E0802197
:1025130090021DE0601E90021BE014B502169002AB
:1025230017E0FF900213E024C0F582E43400F58342
:10253300E0FB8007900217E0FF7BFF7D011260053F
:10254300900213E004F002246A900216E0FF900266
:1025530018F0900215E04440FBE4FD126005900280
:0D25630019E02A540704125FFE0A022458F2
:012570002248
:10608100A2A282A082A482A182A382C84038126700
:10609100BFA2A282A082A482A182A382C84024209E
:1060A100A0037F012220A2037F022220A4037F06F6
:1060B1002220A1037F052220C8037F032220A303FE
:0960C1007F04227F00227F0022EF
:10679000E4F5CF75CDC030030475CED02275CE4060
:0167A00022D6
:0D67B2008FCFE5CD30E7FB75CDC0AFCF2216
:10673200438920759840758DDC858D8BE4F587D271
:04674200ACD28E2225
:086837008F993099FDC29922EE
:02631400AE07D2
:10631600EEC4540FFDC36480948AED50042430808B
:106326000424F62461FF126837EE540FFDC364801F
:10633600948AED50042430800424F62461FF126808
:01634600371F
:016347002233
:07684600EF2430FF02683768
:10675A00121A5FFF600C126837740129F9E43AFAD9
:03676A0080EE229C
:0D63AC009002BBEBF0A3EAF0A3E9F0AE070E
:1063B900E4FDEDC39E501A9002BBE0FBA3E0FAA3F3
:1063C900E0F98D82758300121A78FF1268370D8003
:0163D900E1E2
:0163DA0022A0
:030023000265BDB6
:0665BD00C0E0C083C082B3
:0F65C30030980CC298C2AF900203E599F0D2AFA6
:0765D200D082D083D0E0323B
:06684D0000000000002223
:05000600D2B7D2B622C2
:06000E0012650612656A8E
:0F001400D2B6D2B712684DC2B612684DC2B7222B
:0C67F300C2B6D2B712684DD2B602684D93
:066564001200141265068E
:10656A00D2B712684D30B608C2B712684D7F002202
:08657A00C2B712684D7F012237
:0C67FF00C2B6D2B712684DC2B702684D96
:0C680B00D2B6D2B712684DC2B702684D79
:10650600E4FEEF30E703D38001C392B6EF25E0FF48
:0F651600D2B712684DC2B712684D0EEEB408E34B
:016525002253
:1063DB00E4FED2B6FDEE25E0FED2B712684D30B624
:1063EB00034401FEC2B712684D0DEDB408E7EF6030
:0B63FB00051267FF800312680BAF065D
:016406002273
:10662A00126564AC07AF0512650612656AAF0312FC
:0A663A00650612656A1267F3AF04EB
:016644002233
:02665F00AC0786
:10666100126564AF0512000EEC04FF126506126597
:066671006AE4FF1263DB86
:016677002200
:105F4500AD07126564EF70061267F37F01229002B8
:105F5500A8E0FF12000EED04FF12650612656A90B7
:105F650002A9E0FF6026B4010BE4FF1263DBEF1228
:105F75001AA580107F011263DBEF121AA57401299F
:105F8500F9E43AFA9002A9E014F080D31267F37F9E
:025F95000022E8
:10622100126564EF7002801E9002AEE0FF126506F7
:1062310012656A9002AFE06022121A5FFF126506D2
:1062410012656AEF70061267F37F0122740129F962
:10625100E43AFA9002AFE014F080D81267F37F00BD
:01626100221A
:10352D004102B6004102B7004102B8004102B900A4
:04353D004102BA008D
:0C67BF007FB27E787D0CDDFEDEFADFF696
:0167CB0022AB
:0C67CC007FB27EE67D0CDDFEDEFADFF61B
:0167D800229E
:0C67D9007FD97EAB7D49DDFEDEFADFF6E5
:0167E5002291
:10637A00EF24FE601214601714601C24037020902E
:10638A0002B6E05401FF229002B6E05402FF2290C6
:10639A0002B6E05404FF229002B6E05408FF227FBE
:0263AA000022CF
:105E9300EF24FE601D14602D14603D2403704B90AD
:105EA30002B6E054FEF090020CA3A3A3E09002B765
:105EB300F0229002B6E054FDF090020CA3A3A3E0FD
:105EC3009002B8F0229002B6E054FBF090020CA3CB
:105ED300A3A3E09002B9F0229002B6E054F7F09049
:0B5EE300020CA3A3A3E09002BAF0227F
:106199009002B7E0600414F080079002B6E0440171
:1061A900F09002B8E0600414F080079002B6E04471
:1061B90002F09002B9E0600414F080079002B6E0A2
:1061C9004404F09002BAE0600314F0229002B6E0B1
:0461D9004408F02264
:105D0500454550524F4D20736563746F723120685D
:105D1500617320646174612E0D0A00454550524F30
:105D25004D20736563746F723120697320636C65F0
:105D3500616E2E0D0A00454550524F4D2073656327
:105D4500746F72322068616520646174612E0D0A7A
:105D550000454550524F4D20736563746F72322074
:0C5D6500697320636C65616E2E0D0A00EE
:0D67E600E4F5C7F5C5F5C675C380F5C422FE
:1066780075C78375C5018FC4EEF5C375C65A75C64F
:08668800A50000AFC21267E695
:0166900022E7
:1066450075C78375C5028FC4EEF5C3AF058FC275D7
:0A665500C65A75C6A500000267E6EC
:1066F20075C78375C5038FC4EEF5C375C65A75C6D3
:06670200A500000267E69D
:105A4600E490020BF0A3F0E4900209F0A3F09002B8
:105A560009E0FEA3E0FFC3EE94025028126678EF39
:105A6600F460117BFF7A5D790512675A90020BE4A8
:105A7600F0A304F090020AE004F070D2900209E06C
:105A860004F080CA90020BE07002A3E070B97BFFBD
:105A96007A5D792012675AE4900209F0A3F0900229
:105AA60009E0FEA3E0FFC3EE9402502FE42FFFEEC1
:105AB6003402FE126678EFF460117BFF7A5D793B63
:105AC60012675A90020BE4F0A304F090020AE00475
:105AD600F070CB900209E004F080C390020BE070F6
:0E5AE60002A3E070B27BFF7A5D795602675A28
:0B6823004E4F2E003A0D0A000D0A0037
:1035410048025F000000000000000048026702021C
:0635510002020202020268
:016862002213
:06670800C2C47F017E0007
:10670E00EF1FAC0670011E4C600512686280F1220C
:06652600D2C47F017E00DB
:10652C00EF1FAC0670011E4C600E1268621268629E
:09653C0012686212686280E82214
:10669100D3EF9400EE9400400F7D817C14DCFEDD8D
:0866A100FAEF1F70EB1E80E808
:0166A90022CE
:10643000E4FDD2C47F01FE12652CC2C47F647E00DD
:1064400012652CD2C47F0C7E0012652CA2C4E433EA
:08645000FD7F587E0002652C5F
:10674600C2C4126526A2C4E433FD7F047E0012652E
:036756002CAF0560
:01675900221D
:1067A100C2C4EF24FF92C47F057E0012652CD2C4BF
:0167B10022C5
:106545007B08126708EDC313FD12652630C404ED00
:0E6555004480FD7F0A7E0012652CDBE6AF0558
:016563002215
:02658200AD0763
:106584007B08126708ED1392C47F0A7E0012652C03
:0B659400D2C412670AEDC313FDDBE761
:01659F0022D9
:055F9700900209EFF08B
:105F9C00E4FAFFFDFC1264307FCC1265827F441260
:105FAC0065827FC87E001266911264307FCC1265C8
:105FBC00827FBE126582126545AA07126545EFFE07
:105FCC007C00E42AFFEC3EFE7D19121AD9AC06AD1A
:0C5FDC0007EF7802CEC313CE13D8F9FFF4
:015FE8002296
:0B626200900209EBF0A3EAF0A3E9F0C2
:10626D001264307F33126582E4A3F012654590020B
:10627D0009E0FBA3E0FAA3E0F9A3E0F58275830042
:10628D00EF121AB790020CE004F0E0C3940840DB63
:01629D0022DE
:0B6817007F089002677402F0A3DFFC12
:016822002253
:105C0D00900209EEF0A3EFF07C277D10121AEB1233
:105C1D006846900209E0FEA3E0FF7C037DE8121ABE
:105C2D00EB7C007D0A121AEBAF0512684690020953
:105C3D00E0FEA3E0FF7C007D64121AEB7C007D0A80
:105C4D00121AEBAF051268467F2E126837900209C3
:105C5D00E0FEA3E0FF7C007D0A121AEB7C007D0ABA
:105C6D00121AEBAF05126846900209E0FEA3E0FFA1
:0C5C7D007C007D0A121AEBAF050268469D
:055C8900900209EFF09C
:105C8E00E4A3F0900209E0FFA3E0C39F50687BFFFE
:105C9E007A68792312675A90020AE004FF1263149D
:105CAE007BFF7A68792712675AE490020BF0900214
:105CBE000BE0FFC39408502D90020AE075F008A483
:105CCE00245FF582E43402F583E5822FF582E43514
:105CDE0083F583E0FF1263147F2012683790020B66
:105CEE00E004F080C97BFF7A68792B12675A900224
:065CFE000AE004F0808DB5
:015D0400227C
:103557004C02530000000000000000000000004C77
:1035670002450000000000000000000000004102CA
:0C35770051004102520043024201027C5C
:016863002212
:016864002211
:10525A00900255E0FE6410706CA3E07068A3E0FF52
:10526A00900242E0FBA3E0FAA3E0F9EF121AA5903C
:10527A000258E0FF900242E0FBA3E0FAA3E0F990B3
:10528A000001EF121AB7900259E0900002121AB701
:10529A0090025AE0900003121AB790025BE0900065
:1052AA0004121AB790025CE0900005121AB7900235
:1052BA005DE0900006121AB790025EE090000712B5
:1052CA001AB77F0122EE6411706E900256E0706880
:1052DA00A3E0FF900242E0FBA3E0FAA3E0F9EF1299
:1052EA001AA5900258E0FF900242E0FBA3E0FAA35D
:1052FA00E0F9900001EF121AB7900259E09000020B
:10530A00121AB790025AE0900003121AB790025B81
:10531A00E0900004121AB790025CE0900005121A9D
:10532A00B790025DE0900006121AB790025EE09014
:0B533A000007121AB77F02227F00223A
:1066AA0074656D70323A0D0A000D0A0041444320A8
:0866BA00646174613A0D0A00ED
:1035830048027C616162626363000044028422B882
:0235930022B85C
:105EEE007F01125F97900286EEF0A3EFF07BFF7AB0
:105EFE006679AA12675A900286E0FEA3E0FF125C52
:105F0E000D7BFF7A6679B312675AD3900285E094BF
:105F1E0088900284E0941340077422F0A374B8F0C2
:105F2E00D3900287E09488900286E0941340077421
:075F3E0022F0A374B8F02269
:10603700900280E0FEA3E0FDEDFBAA06E4FEFDFC76
:10604700C39DF582EE9CF5837D64AF03AE02121A01
:10605700D9AD82AC83121AEB7BFF7A6679B61267E9
:106067005A900280E0FF126314900281E0FF1263EE
:0A607700147BFF7A6679B302675AC2
:10575A003A0020002A002100484F4D4500430030FE
:10576A00003100320033003400350036003700388B
:10577A000039002E00250000000000000000000093
:10578A00000000000000000000000000000000000F
:10579A0000000000000000000000000000000000FF
:1057AA0000000000000000000000000000000000EF
:1057BA0000000000000000000000000000000000DF
:1057CA0000000000000000000000000000000000CF
:1057DA0000000000000000000000000000000000BF
:1057EA0000000000000000000000000000000000AF
:1057FA000000000000000000000000000105010791
:10580A00E00000F0FFF0001CFFFFFF1C00FFFFFF9D
:01581A00008D
:10359500C10141028D0041028C0044028E0001E20E
:1035A5004041028B01C1004102880041028900416E
:0335B500028A0087
:1066C200900284E0FEA3E0FFE4FCFD90020B121BAB
:0866D200DF7D167F010245EC9B
:1066DA00900286E0FEA3E0FFE4FCFD90020B121B91
:0866EA00DF7D0E7F040245EC88
:055D7100900180EFF03D
:105D760078817C017D017BFF7A5779817E007F8265
:105D8600121A39900180E0602FB20030001B900299
:105D96000E7405F0A374FFF0A37458F0A3740CF00E
:105DA6007B187D377F11024B899002187405F07BB2
:105DB600187D377F11022571300011900218740585
:0C5DC600F07B187D377F11122571C200A0
:015DD20022AE
:101D1700E490020AF0A37406F0A314F0A3121BEBDD
:101D270000000000900211121BEB0000000090025F
:101D37008DE0707B90028CE070089002C0742102E5
:101D470021E61264E57BFF7A0579DAE4900225F053
:101D57007D047F01124E007BFF7A0579FAE4900239
:101D670025F07D057F01124E007BFF7A06791AE484
:101D7700900225F07D067F01124E007BFF7A0679DF
:101D87003AE4900225F07D077F01124E007BFF7A2F
:101D970006795AE4900225F07D087F01124E007BF8
:101DA700FF7A57795AE490021BF07D11021E3D908D
:101DB700028DE064036003021E4A1264E57BFF7A2A
:101DC7000579DAE4900225F07D047F01124E007B4D
:101DD700FF7A0579FAE4900225F07D057F01124E1E
:101DE700007BFF7A06791AE4900225F07D067F01D1
:101DF700124E007BFF7A08797AE4900225F07D077E
:101E07007F01124E007BFF7A06793AE4900225F0B3
:101E17007D087F01124E007BFF7A06795AE4900213
:101E270025F07D097F01124E007BFF7A57795AE42E
:101E370090021BF07D137F01125E3490020AE0FFCF
:101E4700124467126081900209EFF060F6E0FEB479
:101E570001089002C074100221E6EE6403704F90EF
:101E6700020BE0FF04F0D3EF648094865038E0253E
:101E7700E0FFC374139FFD7BFF7A57795CE4900200
:101E87001BF07F02125E3490020DE0FCA3E0FDA37D
:101E9700E0FEA3E0FFE47B0AFAF9F81261DD9002A5
:101EA7000D121BDF802090020B7406F08018900241
:101EB70009E0FFB40506A3E014F0800AEFB40606B4
:101EC70090020AE004F090020AE0FFD36480948A4B
:101ED7004004E4F0800EC3EF6480948050069002C3
:101EE7000A740AF090020AE0FF124467900209E0C0
:101EF70064026003021E4A90020BE0FF14F0D3EF66
:101F070064809480406790020DE0FCA3E0FDA3E0AD
:101F1700FEA3E0FFE47B0AFAF9F8121B6C90020DAE
:101F2700121BDF90020DE0F8A3E0F9A3E0FAA3E0AB
:101F3700FB90020AE0FF3395E0FEFDFCEB2FFFEA82
:101F47003EFEE93DFDE83CFC90020D121BDF9002CE
:101F57000BE025E0FFC374119FFD7BFF7A57795E85
:101F6700E490021BF07F02125E34021E4A90028D3B
:101F7700E0640360030220587402F090020DE0FC55
:101F8700A3E0FDA3E0FEA3E0FFA3121BDF9002186E
:101F970074C0F07B207D017F011225717BFF7A05DC
:101FA70079DAE4900225F07D037F01124E007BFF72
:101FB7007A08799AE4900225F07D047F01124E0099
:101FC7007BFF7A0879BAE4900225F07D057F01123C
:101FD7004E007BFF7A0579FAE4900225F07D067FB3
:101FE70001124E007BFF7A06791AE4900225F07DF4
:101FF700077F01124E007BFF7A08797AE490022569
:10200700F07D087F01124E007BFF7A06793AE49053
:102017000225F07D097F01124E007BFF7A06795A6F
:10202700E4900225F07D0A7F01124E007BFF7A576C
:10203700795AE490021BF07D157F01125E349002FD
:102047000B7406F090020D121BEB00000000021E3D
:102057004A90028DE064026003022116900211E0AB
:10206700FCA3E0FDA3E0FEA3E0FF90020DE0F8A3D0
:10207700E0F9A3E0FAA3E0FBC3121BC970129002B8
:10208700C07421F0A37450F090028D7401F0FF2208
:1020970090021874C0F07B107D017F111225717BAF
:1020A700FF7A06793AE4900225F07D057F02124E09
:1020B700007BFF7A06795AE4900225F07D067F02BD
:1020C700124E007BFF7A0879DAE4900225F07D074B
:1020D7007F02124E007BFF7A0879FAE4900225F01E
:1020E7007D087F02124E007BFF7A577960E49002E9
:1020F7001BF07D117F02125E341267D99002C07403
:1021070021F0A37450F090028D7404F07F002290A8
:10211700028DE06003021E4AA3E0FCA3E0FDA3E0FA
:10212700FEA3E0FF90020DE0F8A3E0F9A3E0FAA315
:10213700E0FBC3121BC9700C9002C07421F0A3E42A
:10214700F07F012290021874C0F07B107D017F118F
:102157001225717BFF7A06793AE4900225F07D0516
:102167007F02124E007BFF7A06795AE4900225F02F
:102177007D067F02124E007BFF7A06797AE4900291
:1021870025F07D077F02124E007BFF7A06799AE4DD
:10219700900225F07D087F02124E007BFF7A577967
:1021A70060E490021BF07D117F02125E341267D942
:1021B70090021874C0F07B1A7D017F11122571906F
:1021C700020B7406F090020D121BEB00000000904A
:1021D700020CE014F06003021E4A9002C07410F073
:0421E700A3E4F0FF7E
:0121EB0022D1
:105997009002097401F0E4A3F01264E5025A381288
:1059A7006081EF60FA64016004EFB4050A9002C0F9
:1059B7007410F0A3E4F022EFB40320900209E0147E
:1059C700F0E0FEC36480948150067406F0A3802C37
:1059D700EEB4040590020A80238026EFB4042990D0
:1059E7000209E004F0E0FED3648094864007740166
:1059F700F0A3F0803CEEB4050890020A7401F08031
:105A070030E490020AF08029EF64026004EFB406E4
:105A170020900209E0FF3395E0FEEFC4F8540FC869
:105A270068FFEEC454F04844219002C0F0A3EFF0A1
:0F5A370022900209E0FFA3E0FD12106E0259A6B3
:1055CE0090020A7401F01264E57BFF7A04797AE4A2
:1055DE00900225F07D047F01124E007BFF7A047944
:1055EE009AE4900225F07D057F01124E007BFF7A32
:1055FE0003799AE4900225F07D067F01124E007B1E
:10560E00FF7A0379BAE4900225F07D077F01124EEE
:10561E000090020AE0FF12476B126081900209EFC0
:10562E00F060F6E0FFB401079002C074108054EFF2
:10563E00B405079002C074218049EFB403139002A1
:10564E000AE014F0E0C364809480501A7402F08073
:10565E0015900209E0B4040EA3E004F0E0D36480D8
:10566E0094824002E4F090020AE0FF12476B90022F
:10567E0009E0640270A3A3E09002C070047421805C
:07568E00027410F0A3E4F028
:0156950022F2
:1042D9009002097403F0E4A3F01264E57BFF7A010C
:1042E90079DAE4900225F07D027F01124E007BFF0E
:1042F9007A0179FAE4900225F07D037F01124E00DC
:104309007BFF7A0679BAE4900225F07D047F0112D9
:104319004E007BFF7A0079BAE4900225F07D057F93
:1043290001124E007BFF7A0079BAE4900225F07DF4
:10433900067F01124E007BFF7A0079DAE4900225AC
:10434900F07D077F01124E007BFF7A03799AE49092
:104359000225F07D087F01124E007BFF7A0379BAAE
:10436900E4900225F07D097F01124E0002445712A4
:104379006081EF60FAB401089002C07410024452DF
:10438900EFB40516900209E004F0E0D36480948349
:104399005003024457E4F0024457EFB40617900261
:1043A90009E014F0E0C36480948040030244577428
:1043B90003F0024457EF64037042900209E0FEB42F
:1043C9000106A3E004F08018EEB4020990020AE0A5
:1043D900240AF0800BEEB4030790020AE02464F08B
:1043E90090020AE0FEC3648094804008D3EE6480A2
:1043F90094E4405A90020A7464F08052EF640470A5
:1044090035900209E0FEB40106A3E014F08018EE2D
:10441900B4020990020AE024F6F0800BEEB4030717
:1044290090020AE0249CF090020AE0C36480948020
:10443900501CE4F08018EFB40214900209E09002D5
:10444900C07004742180027410F0A3E4F022900279
:0E4459000AE0FF900209E0FD124F33024378A3
:10414A009002097403F0A37464F01264E57BFF7AA9
:10415A000179DAE4900225F07D027F01124E007B9C
:10416A00FF7A0179FAE4900225F07D037F01124E6D
:10417A00007BFF7A07793AE4900225F07D047F01FB
:10418A00124E007BFF7A0079BAE4900225F07D0591
:10419A007F01124E007BFF7A0079BAE4900225F083
:1041AA007D067F01124E007BFF7A0079DAE49002E5
:1041BA0025F07D077F01124E007BFF7A03799AE48E
:1041CA00900225F07D087F01124E007BFF7A037969
:1041DA00BAE4900225F07D097F01124E000242C91D
:1041EA00126081EF60FAB401089002C074100242B2
:1041FA00C4EFB40516900209E004F0E0D364809499
:10420A008350030242C9E4F00242C9EFB406179090
:10421A000209E014F0E0C36480948040030242C9BA
:10422A007403F00242C9EF64037042900209E0FE8F
:10423A00B40106A3E004F08018EEB4020990020A61
:10424A00E0240AF0800BEEB4030790020AE024642B
:10425A00F090020AE0FEC3648094804008D3EE64C2
:10426A008094E4405A90020A7464F08052EF640425
:10427A007035900209E0FEB40106A3E014F080183C
:10428A00EEB4020990020AE024F6F0800BEEB403C1
:10429A000790020AE0249CF090020AE0C36480942A
:1042AA0080501CE4F08018EFB40214900209E090E8
:1042BA0002C07004742180027410F0A3E4F022900A
:0F42CA00020AE0FF900209E0FD124F330241EAC1
:1028B70090020A7401F0780B7C02FD7BFF7A58794D
:1028C700037E007F09121A391264E57BFF7A0179CA
:1028D700BAE4900225F07D047F01124E007BFF7A57
:1028E7000479FAE4900225F07D057F01124E007B02
:1028F700FF7A0079FAE4900225F07D067F01124EF7
:10290700007BFF7A01791AE4900225F07D077F01A9
:10291700124E007BFF7A03799AE4900225F07D0836
:102927007F01124E007BFF7A0379BAE4900225F00B
:102937007D097F01124E00900211E0FEA3E0FFE443
:10294700FCFD900223121BDFE4900227F07B047D3D
:10295700087F02123F9E7BFF7A01797AE490022575
:10296700F07D057F02124E007BFF7A01799AE49091
:102977000225F07D067F02124E007BFF7A0179BAAD
:10298700E4900225F07D087F02124E007BFF7A5704
:10299700795AE490021BF07D077F03125E347BFFB8
:1029A7007A57795AE490021BF07D0A7F03125E344E
:1029B7007BFF7A0479DAE4900225F07D087F031221
:1029C7004E007BFF7A0479FAE4900225F07D097FB7
:1029D70003124E00122BDA126081900209EFF060A9
:1029E700F6E0FFB401089002C07410022BD5EFB4D3
:1029F700061690020AE004F0E0D36480948850033E
:102A0700022BBAE4F0022BBA900209E0FFB40515D5
:102A1700A3E014F0E0C3648094804003022BBA74EF
:102A270008F0022BBAEF64036003022AF890020A47
:102A3700E0FFB40210900212E004F070539002110C
:102A4700E004F0804BEFB40110900212E0240AF08A
:102A5700900211E03400F08037EFB40305900210C4
:102A6700802BEFB4040590020E8022EFB405059089
:102A7700020D8019EFB4060590020C8010EFB40721
:102A87000590020B8007EFB4080690020FE004F0F0
:102A9700D3900212E09433900211E0940840077437
:102AA70007F0A374D0F0900210E0D3940C400374A5
:102AB70001F090020EE0D3941F40037401F09002DE
:102AC7000DE0D394174002E4F090020CE0D3943B5E
:102AD7004002E4F090020BE0D3943B4002E4F09014
:102AE700020FE0D394075003022BBA7401F0022BB4
:102AF700BA900209E064046003022BBAA3E0FFB4B2
:102B07000208900212E024FF800AEFB4011090023D
:102B170012E024F6F0900211E034FFF08037EFB4B2
:102B27000305900210802BEFB4040590020E80225B
:102B3700EFB4050590020D8019EFB4060590020C5D
:102B47008010EFB4070590020B8007EFB4080690DA
:102B5700020FE014F0C3900212E094D0900211E04B
:102B6700940750077408F0A37433F0900210E0C381
:102B7700940150037401F090020EE0C394015003D6
:102B87007401F090020DE0D3941740037417F0908E
:102B9700020CE0D3943B4003743BF090020BE0D36C
:102BA700943B4003743BF090020FE0C39401500341
:102BB7007407F0122BDA900209E06402600302291D
:102BC700DEA3E09002C07004742180027410F0A3A9
:022BD700E4F028
:012BD90022D9
:104A2D009002097401F0E4A3F0D20390028DE064CA
:104A3D000170661264E59002097402F07BFF7A033F
:104A4D00799AE4900225F07D047F02124E007BFFDF
:104A5D007A0379BAE4900225F07D057F02124E00AB
:104A6D007BFF7A0779FAE4900225F07D067F02122A
:104A7D004E007BFF7A08791AE4900225F07D077FBE
:104A8D0002124E007BFF7A577960E490021BF07D95
:104A9D000F7F02125E341267D9E490028DF012641A
:104AAD00E57BFF7A06793AE4900225F07D057F01DA
:104ABD00124E007BFF7A06795AE4900225F07D06AE
:104ACD007F01124E007BFF7A03799AE4900225F064
:104ADD007D077F01124E007BFF7A0379BAE49002C5
:104AED0025F07D087F01124E00024B79126081EF97
:104AFD0060FAB401028061EFB40312900209E01470
:104B0D00F0C36480948050647403F0805FEFB4044C
:104B1D0011900209E004F0D364809483404EE4F0D8
:104B2D00804AEF64056004EFB4060C900209E0645E
:104B3D00017039B2038035EF64027030900209E0E4
:104B4D00FFB402109002C07420F0A3E4F090028D27
:104B5D007403F022EFB403079002C074108008EFC5
:104B6D00700A9002C07421F0A3E4F022A203E43392
:0C4B7D00FF900209E0FD1235CB024AF95E
:105345009002097401F01264E57BFF7A07795AE44B
:10535500900225F07D047F01124E007BFF7A0779CC
:105365007AE4900225F07D057F01124E007BFF7ADD
:1053750003799AE4900225F07D067F01124E007BA9
:10538500FF7A0379BAE4900225F07D077F01124E7A
:105395000002541F126081EF60FAB401079002C049
:1053A50074108071EFB405079002C074218066EF18
:1053B500B40313900209E014F0E0C36480948050B4
:1053C500597402F08054EFB40412900209E004F01D
:1053D500E0D3648094824042E4F0803EEF64027042
:1053E50039900209E0FF70079002C074218026EF12
:1053F500B4011290028B7401F09002C07421F0A3E5
:10540500E4F0C2CB22EFB40211E490028BF0D2CBD0
:105415009002C07421F0A3E4F022900209E0FF128B
:0554250048CC02539980
:016865002210
:05516A00900209EFF0C6
:10516F00A37401F0EFF4600330010DE4900209F035
:10517F001264E5123BE7803F900209E0FFB4050699
:10518F00A3E004F0800AEFB4060690020AE014F0E0
:10519F0090020AE0FFD36480948340057401F0808D
:1051AF000EC3EF64809481500690020A7403F0904E
:1051BF00020AE0FF12504F90020C121BEB0000008E
:1051CF000A7F01125E93126081900209EFF0606B0B
:1051DF0090020C121BEB0000000A7F01125E9390ED
:1051EF000209E0FDB4020FA3E0FFEFC454F09002F8
:1051FF00C0F0A3E4F022EDB401028047900209E071
:10520F00FFB40506A3E004F0800AEFB4060690028F
:10521F000AE014F090020AE0FFD364809483400503
:10522F007401F0800EC3EF64809481500690020ADF
:10523F007403F090020AE0FF12504F7F0112637A5D
:0A524F00EF6083E49002C0F0A3F0CA
:015259002232
:103BE700C20190020E743EF0A374FFF0A37409F0B3
:103BF700A3744AF07B2D7D017F01124B897BFF7AED
:103C07000079FAE4900225F07D057F01124E007BD2
:103C1700FF7A01791AE4900225F07D067F01124EA2
:103C2700007BFF7A57795AE490021BF07D0D7F01E4
:103C3700125E3490029DE0FFE4FCFDFE9002231229
:103C47001BDFE4900227F07B027D107F01123F9E6D
:103C57007BFF7A57795AE490021BF07D117F01129E
:103C67005E3490029CE0FFE4FCFDFE900223121BF1
:103C7700DFE4900227F07B027D137F01123F9E7BDA
:103C8700FF7A57795AE490021BF07D147F01125E88
:103C97003490029BE0FFE4FCFDFE900223121BDF41
:103CA700E4900227F07B027D167F01123F9E7BFF87
:103CB7007A02799AE4900225F07D057F02124E0080
:103CC7007BFF7A0279BAE4900225F07D067F021223
:103CD7004E007BFF7A57795AE490021BF07D0D7FE7
:103CE70002125E347BFF7A0279DAE4900225F07DD6
:103CF7000A7F02124E007BFF7A0279FAE4900225CE
:103D0700F07D0B7F02124E007BFF7A04797AE490F4
:103D17000225F07D057F03124E007BFF7A04799A16
:103D2700E4900225F07D067F03124E007BFF7A5751
:103D3700795AE490021BF07D0D7F03125E347BFFFE
:103D47007A0179DAE4900225F07D0A7F03124E00AA
:103D57007BFF7A0179FAE4900225F07D0B7F03124D
:103D67004E007BFF7A03791AE4900225F07D027FEB
:103D770004124E007BFF7A03793AE4900225F07D26
:103D8700037F04124E007BFF7A03799AE4900225A1
:103D9700F07D067F04124E007BFF7A0379BAE49028
:103DA7000225F07D077F04124E007BFF7A57796268
:103DB70090021B7401F07D137F04125E347D017F36
:043DC70037022EEBA6
:10314300D2017BFF7A0079BAE4900225F07D037FF8
:1031530001124E007BFF7A0079DAE4900225F07DBC
:10316300047F01124E007BFF7A0179DAE490022595
:10317300F07D057F01124E007BFF7A0179FAE4901E
:103183000225F07D067F01124E007BFF7A02791A39
:10319300E4900225F07D077F01124E007BFF7A0247
:1031A300793AE4900225F07D087F01124E007BFFFF
:1031B3007A02795AE4900225F07D097F01124E00CC
:1031C3007BFF7A02797AE4900225F07D0A7F01126F
:1031D3004E009002A1E0FEA3E0FFE4FCFD90022379
:1031E300121BDFE4900227F07B047D0A7F02123F6B
:1031F3009E7BFF7A01797AE4900225F07D067F02B7
:10320300124E009002A0E0FFE4FCFDFE90022312A8
:103213001BDFE4900227F07B027D0E7F02123F9EAC
:103223007BFF7A01799AE4900225F07D087F0212F0
:103233004E0090029EE0FFE4FCFDFE900223121B71
:10324300DFE4900227F07B027D127F02123F9E7B18
:10325300FF7A0179BAE4900225F07D0A7F02124ECB
:103263000090029DE0FFE4FCFDFE900223121BDFB1
:10327300E4900227F07B027D067F03123F9E7BFFD3
:103283007A57795AE490021BF07D077F03125E346C
:1032930090029CE0FFE4FCFDFE900223121BDFE49E
:1032A300900227F07B027D097F03123F9E7BFF7A0A
:1032B30057795AE490021BF07D0A7F03125E349023
:1032C300029BE0FFE4FCFDFE900223121BDFE4906F
:1032D3000227F07B027D0C7F03123F9E7BFF7A0463
:1032E30079DAE4900225F07D087F03124E007BFF1C
:1032F3007A0479FAE4900225F07D097F03124E00E7
:1033030090029FE014B40700506590331B75F003DF
:10331300A4C58325F0C583730233300233380233E7
:10332300400233480233500233580233607BFF7A42
:1033330005791A802E7BFF7A05793A80267BFF7AFE
:1033430005795A801E7BFF7A05797A80167BFF7A8E
:1033530005799A800E7BFF7A0579BA80067BFF7A1E
:1033630004795AE4900225F07D0A7F03124E00127D
:1033730066DA7BFF7A09793AE490023FF07D0F7FAA
:1033830004124CCC7BFF7A577967E490021BF07DE3
:06339300107F04025E340D
:10504F00EF24FE606314700302510D24026003020B
:10505F0051697BFF7A03791AE4900225F07D027F74
:10506F0004124E007BFF7A03793AE4900225F07D1B
:10507F00037F04124E007BFF7A03799AE490022596
:10508F00F07D067F04124E007BFF7A0379BAE4901D
:10509F000225F07D077F04124E007BFF7A5779625D
:1050AF0090021B74010251617BFF7A03791AE4901D
:1050BF000225F07D027F04124E007BFF7A03793ABE
:1050CF00E4900225F07D037F04124E007BFF7A03EC
:1050DF00799A9002257401F07D067F04124E007BB1
:1050EF00FF7A0379BA9002257401F07D077F0412CD
:1050FF004E007BFF7A577962E490021B80547BFF4E
:10510F007A03791A9002257401F07D027F04124E02
:10511F00007BFF7A03793A9002257401F07D037FBB
:10512F0004124E007BFF7A03799AE4900225F07DFA
:10513F00067F04124E007BFF7A0379BAE4900225B2
:10514F00F07D077F04124E007BFF7A577962E4905F
:0B515F00021BF07D137F04125E34225F
:10446700900215EFF07BFF7A577969700690021B6F
:10447700048004E490021BF07D037F03125E3490F6
:104487000215E07BFF7A57796BB4010790021B7422
:10449700018004E490021BF07D057F03125E3490D7
:1044A7000215E07BFF7A57796DB4020790021B74FF
:1044B700018004E490021BF07D077F03125E3490B5
:1044C7000215E07BFF7A57796FB4030790021B74DC
:1044D700018004E490021BF07D097F03125E349093
:1044E7000215E07BFF7A577971B4040790021B74B9
:1044F700018004E490021BF07D0B7F03125E349071
:104507000215E07BFF7A577973B4050790021B7495
:10451700018004E490021BF07D0D7F03125E34904E
:104527000215E07BFF7A577975B4060790021B7472
:10453700018004E490021BF07D0F7F03125E34902C
:104547000215E07BFF7A577977B4070790021B744F
:10455700018004E490021BF07D117F03125E34900A
:104567000215E07BFF7A577979B4080790021B742C
:10457700018004E490021BF07D137F03125E3490E8
:104587000215E07BFF7A57797BB4090790021B7409
:10459700018004E490021BF07D157F03125E3490C6
:1045A7000215E07BFF7A0379DAB40A1A90022574C0
:1045B70001F07D0A7F04124E007BFF7A0379FA909F
:1045C700022574018016E4900225F07D0A7F04120B
:1045D7004E007BFF7A0379FAE4900225F07D0B7F8A
:0545E70004124E002249
:10476B0090020BEFF064017BFF7A57796B703E90F0
:10477B00021B04F0FD7F02125E347BFF7A57797DBA
:10478B0090021B7401F07D027F02125E347BFF7A74
:10479B000179DA9002257401F07D027F02124E003E
:1047AB007BFF7A0179FA9002257401803AE490023A
:1047BB001BF07D017F02125E347BFF7A57797DE41B
:1047CB0090021BF07D027F02125E347BFF7A01792F
:1047DB00DAE4900225F07D027F02124E007BFF7A15
:1047EB000179FAE4900225F07D037F02124E0090CE
:1047FB00020BE064027BFF7A57796D703E90021BCF
:10480B0004F0FD7F03125E347BFF7A57797D9002B3
:10481B001B7401F07D027F03125E347BFF7A0479F7
:10482B00BA9002257401F07D027F03124E007BFFCC
:10483B007A0179FA9002257401803AE490021BF018
:10484B007D017F03125E347BFF7A57797DE4900202
:10485B001BF07D027F03125E347BFF7A0479BAE48E
:10486B00900225F07D027F03124E007BFF7A0179C7
:10487B00FAE4900225F07D037F03124E0090020BA9
:10488B00E07BFF7A0379DA701990022504F07D0A38
:10489B007F04124E007BFF7A0379FA900225740194
:1048AB008016E4900225F07D0A7F04124E007BFFF8
:1048BB007A0379FAE4900225F07D0B7F04124E0007
:0148CB0022CA
:1048CC0090020AEFF064017BFF7A57796B703E908F
:1048DC00021B04F0FD7F02125E347BFF7A57797D58
:1048EC0090021B7401F07D027F02125E347BFF7A12
:1048FC000179DA9002257401F07D027F02124E00DC
:10490C007BFF7A0179FA9002257401803AE49002D7
:10491C001BF07D017F02125E347BFF7A57797DE4B8
:10492C0090021BF07D027F02125E347BFF7A0179CC
:10493C00DAE4900225F07D027F02124E007BFF7AB2
:10494C000179FAE4900225F07D037F02124E00906B
:10495C00020AE064027BFF7A57796D703E90021B6D
:10496C0004F0FD7F03125E347BFF7A57797D900251
:10497C001B7401F07D027F03125E347BFF7A017998
:10498C005A9002257401F07D027F03124E007BFFCA
:10499C007A09791A9002257401803AE490021BF08E
:1049AC007D017F03125E347BFF7A57797DE49002A0
:1049BC001BF07D027F03125E347BFF7A01795AE48F
:1049CC00900225F07D027F03124E007BFF7A09795D
:1049DC001AE4900225F07D037F03124E0090020A28
:1049EC00E07BFF7A0379DA701990022504F07D0AD6
:1049FC007F04124E007BFF7A0379FA900225740132
:104A0C008016E4900225F07D0A7F04124E007BFF95
:104A1C007A0379FAE4900225F07D0B7F04124E00A4
:014A2C002267
:054F330090020BEDF0FF
:104F3800EF75F06484A3F0EF75F00A8475F00A84C5
:104F4800A3E5F0F0EF75F00A84A3E5F0F090020C09
:104F5800E0FFBD0313E4FCFDFE900223121BDF906B
:104F680002277401F0FB8011E4FCFDFE900223127D
:104F78001BDFE4900227F07B017D0A7F02123F9E2F
:104F880090020BE090020DB40215E0FFE4FCFDFE78
:104F9800900223121BDF9002277401F0FB8013E0BC
:104FA800FFE4FCFDFE900223121BDFE4900227F0D1
:104FB8007B017D0B7F02123F9E90020BE090020E58
:104FC800B40115E0FFE4FCFDFE900223121BDF9004
:104FD80002277401F0FB8013E0FFE4FCFDFE900261
:104FE80023121BDFE4900227F07B017D0C7F021265
:104FF8003F9E90020BE07BFF7A0379DA70199002EA
:105008002504F07D0A7F04124E007BFF7A0379FAAB
:1050180090022574018016E4900225F07D0A7F0431
:10502800124E007BFF7A0379FAE4900225F07D0B9B
:105038007F04124E007BFF7A57797FE490021BF0C1
:075048007D0D7F02025E34C2
:102BDA0078147C027D017B017A02790B7E007F09E1
:0B2BEA00121A3990020AE090021DF060
:102BF50090021AE0FAA3E0FB7C007D0AFFAE021208
:102C05001AEB7C007D0A121AEB90021EEDF07C0097
:102C15007D0AAF03AE02121AEBA3EDF090021DE0A0
:102C2500B40116A3E0FFE4FCFDFE900223121BDFB6
:102C35009002277401F0FB801690021EE0FFE4FC71
:102C4500FDFE900223121BDFE4900227F07B017D3D
:102C5500077F02123F9E90021DE090021FB40215ED
:102C6500E0FFE4FCFDFE900223121BDF90022774B7
:102C750001F0FB8013E0FFE4FCFDFE900223121B34
:102C8500DFE4900227F07B017D087F02123F9E90D2
:102C9500021DE0900219B40313E0FFE4FCFDFE9071
:102CA5000223121BDF90022774018010E0FFE4FC71
:102CB500FDFE900223121BDFE4900227F07B027DCC
:102CC5000C7F02123F9E90021DE0900217B4041380
:102CD500E0FFE4FCFDFE900223121BDF9002277447
:102CE500018010E0FFE4FCFDFE900223121BDFE4EF
:102CF500900227F07B027D107F02123F9E90021DFD
:102D0500E0900216B40513E0FFE4FCFDFE900223FB
:102D1500121BDF90022774018010E0FFE4FCFDFE2A
:102D2500900223121BDFE4900227F07B027D067FD1
:102D350003123F9E90021DE0900215B40613E0FFBA
:102D4500E4FCFDFE900223121BDF90022774018034
:102D550010E0FFE4FCFDFE900223121BDFE490026D
:102D650027F07B027D097F03123F9E90021DE090B4
:102D75000214B40713E0FFE4FCFDFE900223121BCE
:102D8500DF90022774018010E0FFE4FCFDFE900255
:102D950023121BDFE4900227F07B027D0C7F0312D8
:102DA5003F9E90021DE06408706E900218E014B416
:102DB50007004003022EA7902DCA75F003A4C58312
:102DC50025F0C58373022DDF022DE7022DEF022DBD
:102DD500F7022DFF022E07022E0F7BFF7A05791AC7
:102DE500802E7BFF7A05793A80267BFF7A05795A12
:102DF500801E7BFF7A05797A80167BFF7A05799AA2
:102E0500800E7BFF7A0579BA80067BFF7A04795AB2
:102E15009002257401022E9F900218E014B4070059
:102E25004003022EA7902E3875F003A4C58325F024
:102E3500C58373022E4D022E59022E65022E710294
:102E45002E7D022E89022E957BFF7A05791AE49054
:102E5500022580467BFF7A05793AE4900225803A7F
:102E65007BFF7A05795AE4900225802E7BFF7A054F
:102E7500797AE490022580227BFF7A05799AE4909D
:102E8500022580167BFF7A0579BAE4900225800A2F
:102E95007BFF7A04795AE4900225F07D0A7F0312BC
:102EA5004E0090021DE07BFF7A0379DA70199002DB
:102EB5002504F07D0A7F04124E007BFF7A0379FA20
:102EC50090022574018016E4900225F07D0A7F04A6
:102ED500124E007BFF7A0379FAE4900225F07D0B10
:052EE5007F04124E0005
:012EEA0022C5
:1035CB0090020BEFF0A3EDF06401704790020BE05B
:1035DB007BFF7A01793A60199002257401F07D0620
:1035EB007F02124E007BFF7A01795AE4900225800C
:1035FB0017E4900225F07D067F02124E007BFF7AC6
:10360B0001795A9002257401F07D077F02124E005A
:10361B000236DB90020BE07BFF7A01793A6057E4CC
:10362B00900225F07D067F02124E007BFF7A017916
:10363B005AE4900225F07D077F02124E0090021291
:10364B007401F07B107D517F111221EC90021274EA
:10365B0010F07B017D517F111221EC90021274014D
:10366B00F07B107D617F111221EC9002127410F02F
:10367B007B017D518055E4900225F07D067F02127F
:10368B004E007BFF7A01795AE4900225F07D077F8B
:10369B0002124E009002127401F07B107D617F11BB
:1036AB001221EC9002127410F07B017D617F1112DC
:1036BB0021EC9002127401F07B107D707F111221AE
:1036CB00EC9002127410F07B017D617F201221ECD3
:1036DB0090020CE064027BFF7A07799A703F9002AC
:1036EB002504F07D057F03124E007BFF7A0779BA24
:1036FB009002257401F07D067F03124E007BFF7A4A
:10370B0006793A9002257401F07D077F03124E0073
:10371B007BFF7A06795A9002257401803AE4900275
:10372B0025F07D057F03124E007BFF7A0779BAE403
:10373B00900225F07D067F03124E007BFF7A0679FF
:10374B003AE4900225F07D077F03124E007BFF7A4F
:10375B0006795AE4900225F07D087F03124E009003
:10376B00020CE07BFF7A0379DA701990022504F0E2
:10377B007D0A7F04124E007BFF7A0379FA900225B3
:10378B0074018016E4900225F07D0A7F04124E002E
:10379B007BFF7A0379FAE4900225F07D0B7F04120C
:1037AB004E0090020CE07BFF7A08793AB4031A9032
:1037BB0002257401F07D027F04124E007BFF7A0814
:1037CB00795A90022574018016E4900225F07D024F
:1037DB007F04124E007BFF7A08795AE4900225F0A1
:0837EB007D037F04124E002251
:10106E0090020BEFF0ED60031264E590020BE0FFCF
:10107E00C3648094854003021562EF64017BFF7A9E
:10108E0057796B706390021B04F0FDFF125E347B88
:10109E00FF7A57797D90021B7401F07D02FF125E7C
:1010AE00347BFF7A04797A9002257401F07D02FF79
:1010BE00124E007BFF7A04799A9002257401F07D1E
:1010CE0003FF124E007BFF7A03799A90022574017A
:1010DE00F07D04FF124E007BFF7A0379BA90022551
:1010EE007401F07D05FF8063E490021BF07D017FAB
:1010FE0001125E347BFF7A57797DE490021BF07DFE
:10110E00027F01125E347BFF7A04797AE490022525
:10111E00F07D027F01124E007BFF7A04799AE490F3
:10112E000225F07D037F01124E007BFF7A03799A30
:10113E00E4900225F07D047F01124E007BFF7A03BE
:10114E0079BAE4900225F07D057F01124E009002DF
:10115E000BE064027BFF7A57796D600302121E90DA
:10116E00021B04F0FD7F02125E347BFF7A57797DFD
:10117E0090021B7401F07D027F02125E347BFF7AB7
:10118E000179DA9002257401F07D027F02124E0081
:10119E007BFF7A0179FA9002257401F07D037F02BC
:1011AE00124E007BFF7A0679BA9002257401F07D0B
:1011BE00047F02124E007BFF7A0079BA90022574EA
:1011CE0001F07D057F02124E007BFF7A0079BA9006
:1011DE0002257401F07D067F02124E007BFF7A001D
:1011EE0079DA9002257401F07D077F02124E007BA2
:1011FE00FF7A03799A9002257401F07D087F02121E
:10120E004E007BFF7A0379BA90022574010212C454
:10121E00E490021BF07D017F02125E347BFF7A5751
:10122E00797DE490021BF07D027F02125E347BFF1B
:10123E007A0179DAE4900225F07D027F02124E00E7
:10124E007BFF7A0179FAE4900225F07D037F02128A
:10125E004E007BFF7A0679BAE4900225F07D047F7A
:10126E0002124E007BFF7A0079BAE4900225F07DDF
:10127E00057F02124E007BFF7A0079BAE4900225B8
:10128E00F07D067F02124E007BFF7A0079DAE49041
:10129E000225F07D077F02124E007BFF7A03799ABA
:1012AE00E4900225F07D087F02124E007BFF7A0348
:1012BE0079BAE4900225F07D097F02124E00900269
:1012CE000BE064037BFF7A57796F600302138E90F5
:1012DE00021B04F0FD7F03125E347BFF7A57797D8B
:1012EE0090021B7401F07D027F03125E347BFF7A45
:1012FE000179DA9002257401F07D027F03124E000F
:10130E007BFF7A0179FA9002257401F07D037F0349
:10131E00124E007BFF7A07793A9002257401F07D18
:10132E00047F03124E007BFF7A0079BA9002257477
:10133E0001F07D057F03124E007BFF7A0079BA9093
:10134E0002257401F07D067F03124E007BFF7A00AA
