:10200100436865636B205349343433322E2E2E0DD1
:102011000A004445564943455F545950453A2030DA
:102021007825782E0D0A000D0A004445564943458E
:102031005F56455253494F4E3A20307825782E0D40
:102041000A004445564943455F5354415455533A58
:102051002061742069646C65206D6F64652E0D0AC2
:10206100004445564943455F5354415455533A2022
:102071006174205258206D6F64652E0D0A0044452D
:10208100564943455F5354415455533A2061742096
:102091005458206D6F64652E0D0A00437279737474
:1020A100616C204F7363696C6C61746F72204C6F4B
:1020B10061642043617061636974616E63653A2094
:1020C10025780D0A0053493434333220494F2049D1
:1020D1006E69742E2E2E2E2E2E0D0A00494F204988
:1020E1006E697420636F6D706C657465642E0D0A82
:1020F10000534934343332206973206E6F74206683
:102101006F756E642E2E2E2E2E2E0D0A005349341D
:10211100343332204750494F496E697420636F6DE3
:10212100706C6574652C636F6E6669672064657693
:102131006963652E2E2E2E2E2E0D0A00436F6E66BC
:1021410069672052462E2E2E2E2E2E0D0A0053493F
:1021510034343332496E697420636F6D706C657409
:10216100652E0D0A005349343433325F53657420B0
:1021710052784D6F64652E2E2E2E2E2E0D0A005391
:1021810049343433325F5365742054784D6F64653C
:102191002E2E2E2E2E2E0D0A005349343433325F4B
:1021A1005365742049646C654D6F64652E2E2E2E27
:1021B1002E2E0D0A005349343433325F53656E6459
:1021C100204649464F20646174612E2E2E2E0D0A41
:1021D100006D6F646520696E204953523A0D0A0003
:1021E100496E74657272757074206F63637565648E
:1021F1000D0A002072657620496E746572727570E1
:10220100740D0A002073656E6420496E74657272E4
:102211007570740D0A006D6F64652072656769736E
:072221007465723A0D0A001A
:10380800D3EF9400EE64809480400F7D817C14DCBB
:0A381800FEDDFAEF1F70E91E80E6E6
:013822002283
:07398F00C2C3D2B3D2B22281
:09376B00900277EFF07D017F0E62
:10377400900207EDF0C2B3EF4480FF12393190029A
:0937840007E0FF123931D2B32233
:0738A200900276EFF07F04B5
:0C38A900C2B31239317FFF123931D2B3A3
:0138B50022F0
:102FA1007BFF7A2079011238CAE4FF1238A9900216
:102FB10007EFF07BFF7A2079131238CA900207E0FD
:102FC100FF12361A7BFF7A2079281238CA9002073D
:102FD100E0640860037F01227F011238A990020793
:102FE100EFF07BFF7A20792B1238CA900207E0FFBD
:102FF10012361A7BFF7A2079281238CA7F021238DA
:10300100A9900207EFF0540F70087BFF7A207943F3
:103011008022900207E0540FFFBF01087BFF7A2056
:1030210079628010900207E0540FFFBF02097BFF15
:103031007A20797F1238CA7F091238A9900207EFE6
:10304100F07BFF7A20799C1238CA900207E0FF12C8
:0D305100361A7BFF7A2079281238CA7F00DA
:01305E00224F
:102E06007D537F751237747D4B7F76123774E4FDE0
:102E16007F771237747D097F6E1237747DD57F6F89
:102E26001237747D2C7F701237747D807F5812376D
:102E3600747D1F7F6D1237747D207F721237747D0B
:102E46002C7F1C1237747D417F201237747D607F82
:102E5600211237747D277F221237747D527F231209
:102E66003774E4FD7F241237747D047F251237748E
:102E76007D407F1D1237747D0A7F1E1237747D0FC9
:102E86007F2A1237747D037F1F1237747D607F6936
:102E96001237747D0C7F341237747D2A7F351237D2
:102EA600747D027F331237747D2D7F361237747D21
:102EB600D47F371237747D8D7F30123774E4FD7FEF
:102EC600321237747D637F711237747DB47F0902C5
:022ED60037744F
:10305F007BFF7A2079C61238CA12398F7BFF7A200C
:10306F0079DD1238CA7F147E008013122FA1EF6012
:10307F00127BFF7A2079F21238CA7FF47E01123860
:10308F000880E87DCA7F0B1237747DCA7F0C123718
:10309F00747DCA7F0D1237747F0A7E001238087B49
:1030AF00FF7A21790E1238CA7F031238A91238A27B
:1030BF00900277EFF07D807F071237747F147E00C8
:1030CF001238087F031238A91238A2900277EFF056
:1030DF007BFF7A21793D1238CA122E067DFF7F05BC
:1030EF001237747DFF7F061237747F031238A912CF
:1030FF0038A2900277EFF07D077F05123774E4FD59
:0E310F007F061237747BFF7A21794F0238CA8F
:103823007F031238A91238A212376B7D057F071266
:0B38330037747BFF7A2179660238CAE7
:103723007F031238A91238A2900277EFF07D027F4F
:103733000E1237747D097F071237747BFF7A217964
:04374300800238CAFE
:10383E007F031238A91238A212376B7D017F07124F
:0B384E0037747BFF7A21799A0238CA98
:10328D00900267EBF0A3EAF0A3E9F0900266EFF08D
:01329D00FD33
:10329E007F3E123774E490026AF0900266E0FF906F
:1032AE00026AE0FEC3EF6480F8EE648098502590C9
:1032BE000267E0FBA3E0FAA3E0F9EEFF3395E08F9F
:1032CE0082F583121550FD7F7F12377490026AE0EB
:1032DE0004F080C61237237BFF7A2179B60238CAF2
:102ED8007F071238A9900204EFF07BFF7A2179D29C
:102EE8001238CA900204E0FF12361A7BFF7A207962
:102EF800281238CA7F031238A91238A2900277EF35
:102F0800F07BFF7A2179E11238CA900276E0FF124D
:102F1800361A900277E0FF12361A7BFF7A2079285A
:102F28001238CA900276E030E15B7BFF7A2179F4AF
:102F38001238CA7F4B1238A9900205EFF0BF0C2E49
:102F4800E4900204F0900205E0FF900204E0C39FC1
:102F5800501C7F7F1238A9900204E0243BF582E4DC
:102F68003402F583EFF0900204E004F080D77D028C
:102F78007F08123774E4FD7F0812377412382390E3
:102F880002397401F0900276E030E20C7BFF7A227D
:082F980079051238CA12382332
:012FA000220E
:103747007F071238A9900278EFF07BFF7A2279176A
:103757001238CA900278E0FF12361A7BFF7A207976
:04376700280238CA32
:0B397C0074696D653A0D0A000D0A0029
:1036FD00E4FD7FD0123874900207EFF07BFF7A392A
:10370D00797C1238CA900207E0FF12361A7BFF7AD5
:06371D003979840238CA6C
:100026006275737920636865636B2E2E2E0D0A0048
:1000360000000000000000000000000000000000BA
:10004600000000000018188888286A4E0CE8E808A6
:1000560008181800000444446525341C0E0F1D348E
:100066006444040000F8F888F8F81090901010FE28
:10007600FE101000001F1F081F1F00000343407FD3
:100086007F0000000020644C0800FEFE929292FE63
:10009600FE00000000303C0F437E7E7E7E427E7E68
:1000A6007E7E4000000000F8F828F8FAAEACA8F80A
:1000B600F82828000040703F4F42662E3A123A2E2A
:1000C6006642400000202020A0E060FFFFE0C06004
:1000D600381800002030180E0741C0FF7F010306C4
:1000E6000C1810100080C0F0FE0E9090121E1CD04E
:1000F600D01000000000007F7F40414F4E607C5FC3
:100106004340400000F8F888F8F81090901010FE70
:10011600FE101000001F1F081F1F00000343407F32
:100126007F0000000000F0F20EECE4242424E4E456
:1001360004FCFC0000007F7F000F0F0909090F4F28
:10014600407F7F0000808282FEFE82828282FEFEE7
:1001560082828000004060381F07000000007F7F19
:100166000000000000001010121E1CF0F0181E16F1
:10017600101000000041416131190F07070F1931B6
:1001860061414100002038DFC7444444FCFC44443C
:10019600444404000404040707040404FFFF0404A1
:1001A60004040404000000FEFE222222222222224F
:1001B600FEFE000080C0703F0F020202020242C231
:1001C600FF7F0000000000FEFE828282828282FEA5
:1001D600FE000000000000FFFF404040404040FF9E
:1001E600FF000000000000F8F88C8E8B898888F8E4
:1001F600F8000000000000FFFF444444444444FF6C
:10020600FF0000004044C4C44444445010FFFF10A3
:1002160010F0F000103C3F1314BCF8703E0F41C0C4
:10022600C07F3F00101010FFFFB0B8D868290F2E0E
:1002360068E8B8180242C3FF7F40404242427E7ED1
:100246004242424040505E4E48FFFF484848F8F858
:1002560000FFFF0000003E3E02FFFF323E1E0F4F32
:10026600C0FF7F00000022323AAEA6E26331198950
:1002760081010000004262331B4BC2FE7E020A1A55
:10028600336746002030BCEF733088C8E8B99F8ECC
:10029600A8E8C888226767321292C0703F0F003FF5
:1002A6007F40717100083830FFFF202020FFFF20BB
:1002B600222E2C2004040603FFFFC0703E0F071EEB
:1002C6003860C08000048484C46474DF9F3464C4CE
:1002D60084840400417939003C7C40424E4C407095
:1002E600740D3931101C4C6434140507060414349B
:1002F60064541C0C004040414141417F7F414141D3
:100306004140400000F8F943424242FAFA42424272
:1003160042FEFE0000FFFF080C06033F3F03064CAB
:10032600C8FF7F000000FEFE42424242FAFA424205
:1003360042C2C20280E07F9FC060381E070140C0F3
:10034600C07F3F000000F8F8888888FFFF8888880B
:10035600F8F80000808081C54C78303F2F6040401F
:10036600C181808090D27634FFFF3476D2F0FF8F41
:1003760008F8F808829ADE776372DE8E80C0733FD3
:100386003F73C0801010FFFF9090FEFE9292F2F233
:10039600929E9E8042C2FF7F81E07F1FFCFC474702
:1003A60044FCFC00404042CECC40E0BE9E82829E91
:1003B600BEA020200000003FBF98C8436F3C386EA7
:1003C60047C18080001717D5D557577D7D5757D51C
:1003D600D51717004040407F7F5555555555557FD9
:1003E6007F404040404042CECC00FCFCA4A42622E4
:1003F600A3E362000040603F3F785F57584D474790
:100406004D5850400000FEFE02F2F21212F2F202C5
:10041600FEFE000000007F7F2027272424272720B8
:100426007F7F00000000183C243C180000000000FC
:1004360000000000E0380C06020301010101010181
:100446000101010101010101010101010101010196
:100456000101010101010101010101010101010186
:10046600010302060C38E040404040404040404016
:10047600C000FF00000000000000000000000000B7
:100486000000000000000000000000000000000066
:100496000000000000000000000000000000000056
:1004A60000000000FF40C000000000000000FF0048
:1004B600FF00000000000000000000000000000037
:1004C6000000000000000000000000000000000026
:1004D6000000000000000000000000000000000016
:1004E6000000FF00FF0000F0FFF00000FF00FF002B
:1004F60000000000000000000000000000000000F6
:1005060000000000000000000000000000000000E5
:1005160000000000000000000000000000000000D5
:10052600FF00FF001CFFFFFF1C00FF00FF80000014
:1005360000000000000000000000000000000000B5
:1005460000000000000000000000000000000000A5
:100556000000000000000000000000000080FF70A6
:100566005F0000FFFFFF00005F700003060C081825
:100576001010101010101010101010101010101075
:100586001010101010101010101010101010101065
:100596001010101010101018080C16131808081058
:1005A60010180818101010080000000000000000C5
:1005B6000000000000000000000000F8F800000045
:1005C600000030333300000000100C06100C06004B
:1005D60000000000000000004040F840F840000025
:1005E600043E053F05040000007088FC083000004A
:1005F600001820FF211E0000F008F080700800009F
:1006060000211C031E211E0000F08870000000005F
:100616001F2027281F2110000000000000000000F6
:1006260080B0F07000000000000000F0FC0E020038
:100636000000000F3F70400000061EF8E0000000BA
:100646000060781F070000004040C0F0F0C0404046
:100656000202030F0F030202000000F0F000000088
:100666000101011F1F010101000202060400000032
:100676000000000000000000000000000000000074
:10068600010101010101010000000000000000005D
:10069600003030300000000000000000C0F83C0CC4
:1006A6000060783F07010000E0F0180818F0E0004D
:1006B6000F1F3020301F0F00001010F8F800000048
:1006C6000020203F3F2020000070780808F8F00046
:1006D60000303C2E233130000030388888F8700016
:1006E60000183820313F1E000080C060F8F8000076
:1006F600060705243F3F240400F8F8888888080088
:1007060000193921313F1F00E0F0988888981800B9
:100716000F1F3120313F1F0000383808E8F8180055
:100726000000003F3F00000070F8988898F87000BD
:100736001E3F2121313F1E00F0F8080818F8E0009E
:10074600313322323B1F07000000C0C0C00000004A
:100756000000303030000000000000808000000003
:10076600000080E060000000000080E070180800D3
:100776000001030E1C302000404040404040400035
:10078600040404040404040000083870C080000057
:100796000020381C060301007078080818F8F000DD
:1007A6000000303737010000C0F0F8E8E8F8F0E064
:1007B600071F3F2727371F0B0000E0F8F8E000006F
:1007C600203C3F23233F3C2008F8F88888F8700037
:1007D600203F3F20313F1E00E0F03808083838003F
:1007E6000F1F30202030100008F8F80818F0E0003D
:1007F600203F3F20301F0F0008F8F888E8F818005F
:10080600203F3F202333300008F8F888E8E8181026
:10081600203F3F2003030000C0F0380808383800A6
:10082600071F3820223E1E0208F8F80808F8F808C4
:10083600203F3F21213F3F20000808F8F808080024
:100846000020203F3F202000000808F8F808080094
:10085600C0C080FF7F00000008F8F8C8E838180814
:10086600203F3F21273E382008F8F8080000000006
:10087600203F3F202030300008F8F800F8F8080044
:10088600203F003F003F200008F8F8F8C8F8F808B5
:10089600203F3F231F3F3F00E0F0180818F0E0001C
:1008A6000F1F3020301F0F0008F8F80808F8F00076
:1008B600203F3F2101010000E0F0180818F0E00099
:1008C6000F1F3C247C7F4F0008F8F88888F87000DA
:1008D600203F3F21073E38200070F888081818008E
:1008E60000303021233F1E00181808F8F8081818A1
:1008F6000000203F3F20000008F8F80808F8F80834
:10090600001F3F20203F1F000878F88888F87808E5
:1009160000000F3F3F0F000008F8FCFCF8F8F8084D
:1009260000073F3F3F3F07000838F8E8E8F8180897
:1009360020303C2F2F3E38200838F8C8C8F8380831
:100946000000203F3F200000101808C8F8380800B3
:10095600303C2F2320301000000000FEFE02020073
:100966000000007F7F404000001CFCE0000000000B
:10097600000000031F7C6000000202FEFE00000073
:100986000040407F7F0000000000040606040000CF
:100996000000000000000000000000000000000051
:1009A600808080808080808010161E0E00000000EF
:1009B60000000000000000000000808080808000B1
:1009C600001D3D26223F3F2008F8F8808080000069
:1009D600003F3F21203F1F00000080808080800074
:1009E600001F3F31203111000000808088F8F80098
:1009F600001F3F21203F3F200000808080800000B4
:100A0600001F3F22223313008080F0F888981800D8
:100A160000203F3F20200000000080808080800072
:100A2600006BFF9497F3600008F8F88080808000E0
:100A3600203F3F21203F3F20008080989800000003
:100A46000020203F3F202000000080809898000072
:100A560000C0C080FF7F000008F8F880808080001A
:100A6600203F3F263F392000000808F8F800000024
:100A76000020203F3F202000808080808080808072
:100A8600203F3F203F3F203F808080808080800045
:100A9600203F3F2100203F3F0000808080800000F3
:100AA600001F3F31213F1F00808080808080000032
:100AB60080FFFFA1303F1F00000080808080800003
:100AC600001F3F21A0FFFF80808080808080800003
:100AD60020203F3F2121010000008080808080008F
:100AE60000333724243D1900008080E0E080800038
:100AF6000000001F3F202000808080008080800052
:100B0600003F3F20203F3F20808080808080808083
:100B160000031F3C3C1F03008080C0C08080808093
:100B2600000F3F3F3F3F0F00808080808080800025
:100B360020313F2E3F312000808080808080808061
:100B46008083CF7E3E0F0100008080808080800001
:080B56000021393C2733300077
:1025F30060C00000000000000000000000000000B8
:1026030000000000000000000000000000000000C7
:1026130000000000000000000000000000000000B7
:1026230000000000000000000000000000000000A7
:102633000000000000000000000000000000000097
:102643000000000000000000000000000000000087
:102653000000000000000000000000000000000077
:102663000000000000000000000000000000000067
:102673000000000000000000000000000000000057
:102683000000000000000000000000000000000047
:102693000000000000000000000000000000000037
:1026A3000000000000000000000000000000000027
:1026B3000000000060C000C0000000000000000037
:1026C3000000000000000000000000000000000007
:1026D30000000000000000000000000000000000F7
:1026E30000000000000000000000000000000000E7
:1026F30000000000000000000000000000000000D7
:1027030000000000000000000000000000000000C6
:1027130000000000000000000000000000000000B6
:1027230000000000000000000000000000000000A6
:102733000000000000000000000000000000000096
:102743000000000000000000000000000000000086
:102753000000000000000000000000000000000076
:102763000000000000000000000000000000000066
:0827730000000000000000005E
:040006007F057E00F4
:10000A00D3EF9400EE9400400F7D147C32DCFEDDC9
:08001A00FAEF1F70EB1E80E8F5
:0100220022BB
:1038EF00D3EF9400EE94004007EF1F70F31E80F0AB
:0138FF0022A6
:0439AD0075BB602264
:1033A000900211E0FF900210E04440FBE4FD123374
:0C33B000BC900214E044B8FBE4FD7F0771
:1033BC00EF30E002C2C2EF30E102C291EF30E20224
:1033CC00C292D2C6ED6004D2C58002C2C5C2C1AFE2
:1033DC00038F80C2C6D2C2D291D2927F017E0002EC
:0233EC00000AD5
:07348200900251E0FF7D0103
:103489007580FFEFB40104C2C2800EEFB40204C21A
:10349900918006EFB40402C292ED6004D2C58002A5
:1034A900C2C5D2C100D2C600AC80C2C6C2C1D2C296
:0D34B900D291D2927F017E001238EFAF0455
:0134C60022E3
:0533EE00900207EFF062
:1033F3007BFF7A0079261238CAE4FB900207E0309B
:10340300E009E4FD7F01123489EFFB900207E0300D
:10341300E10AE4FD7F02123489EB4FFB900207E0DF
:1034230030E20AE4FD7F04123489EB4FFB7F1E7EFA
:083433000012000AEB20E7B8CB
:01343B00226E
:1038DD00C2CA7F507E0012000AD2CA7FA07E0002AB
:0238ED00000ACF
:10378D007F071233EEE4FAEA1233B5E4F9E4FB7D78
:10379D00017F071233BC09E9B440F20AEAB408E725
:0137AD0022F9
:1036A900C2CB1200061238DD7B3E1233B812000677
:1036B9007BC01233B812000612378D1200067B3F09
:0A36C9001233B87F057E0002000AEC
:1034C7007F071233EE7B40E4FD7F011233BC7BBAEA
:1034D700E4FD7F011233BCE4FAE4F97BFF7D017F51
:1034E700011233BC09E9B440F27B40E4FD7F0112CD
:1034F70033BCEA240344B8FBE4FD7F011233BC0A62
:04350700EAB401D54C
:01350B00229D
:10350C007F071233EE7B40E4FD7F021233BC7BBAA3
:10351C00E4FD7F021233BCE4FAE4F97BFF7D017F0A
:10352C00021233BC09E9B440F27B40E4FD7F021285
:10353C0033BCEA240344B8FBE4FD7F021233BC0A1B
:04354C00EAB401D507
:013550002258
:102BBB00900209EBF0A3EAF0A3E9F0900207EFF023
:032BCB00A3EDF087
:102BCE00EF1425E0900207F0ED24FFFFE434FFFE42
:102BDE00EF7802CEC313CE13D8F9FF700790020E12
:102BEE0004F08016EFB4010890020E7402F0800A11
:102BFE00EFB4020690020E7404F0900208E0145432
:102C0E0003C454F0F0FE90020EE0FFEE4440FBE4ED
:102C1E00FD1233BCE0FF900207E044B8FBE4FD1266
:102C2E0033BCE490020DF090020CE090020E60189E
:102C3E00E0FF900209E0FBA3E475F0011215C7A9AD
:102C4E00F0FA121537F48015E0FF900209E0FBA3AD
:102C5E00E475F0011215C7A9F0FA121537FB7D01C4
:102C6E001233BC90020DE004F0E0C3941040B89013
:102C7E00020EE0FF900208E04440FBE4FD1233BC7C
:102C8E0090020EE0FF900207E00444B8FBE4FD1250
:102C9E0033BCE490020DF090020CE090020E60182E
:102CAE00E0FF900209E0FBA3E475F0011215C7A93D
:102CBE00F0FA121537F48015E0FF900209E0FBA33D
:102CCE00E475F0011215C7A9F0FA121537FB7D0154
:0F2CDE001233BC90020DE004F0E0C3941040B834
:012CED0022C4
:10292F0075F010A424AEF9740335F0FA7BFFE0FFC5
:0A293F00A3E0FD14F0E4900227F07D
:10294900900224EBF0A3EAF0A3E9F0900222EFF061
:03295900A3EDF0FB
:10295C00EF1425E0900222F0ED24FFFFE434FFFE9B
:10296C00EF7803CEC313CE13D8F9FF70079002296A
:10297C0004F08016EFB401089002297402F0800A6A
:10298C00EFB402069002297404F0900223E0145470
:10299C000775F008A4F0FE900229E0FFEE4440FB1E
:1029AC00E4FD1233BCE0FF900222E044B8FBE4FDEE
:1029BC001233BCE4900228F0900227E090022960C8
:1029CC0018E0FF900224E0FBA3E475F0011215C798
:1029DC00A9F0FA121537F48015E0FF900224E0FB01
:1029EC00A3E475F0011215C7A9F0FA121537FB7D97
:1029FC00011233BC900228E004F0E0C3940840B804
:102A0C00900229E0FF900223E04440FBE4FD1233E6
:102A1C00BC900229E0FF900222E00444B8FBE4FDE4
:102A2C001233BCE4900228F0900227E09002296057
:102A3C0018E0FF900224E0FBA3E475F0011215C727
:102A4C00A9F0FA121537F48015E0FF900224E0FB90
:102A5C00A3E475F0011215C7A9F0FA121537FB7D26
:102A6C00011233BC900228E004F0E0C3940840B893
:012A7C002237
:1032EE0090020AEFF0A3EDF0A3EBF0A3EAF0A3E94E
:1032FE00F090020CE0FBA3E0FAA3E0F912153760A0
:10330E003E75F010A424AEF9740335F0FA7BFF90ED
:10331E00020AE0FFA3E0FD90020FE01229459002A1
:10332E000BE004F0E0D3941840097401F090020A07
:10333E00E004F090020DE475F0011215B180B22296
:0827C600900207EFF0A3EDF013
:1027CE00780D7C027D017BFF7A0079367E007F0AD0
:1027DE00121511E4900217F0A37409F0E4A3F0A30C
:1027EE00F0A31215F700000001900209E0FCA3E02F
:1027FE00FDA3E0FEA3E0FFEC335016900219740126
:10280E00F0900209A3A3A3E01215DD9002091215A0
:10281E00EB900209E0FCA3E0FDA3E0FEA3E0FFECD9
:10282E004D4E4F6074E47B0AFAF9F8900209A3A3A7
:10283E00A3E0123595AC00AD01AE02AF0390021BC2
:10284E001215EB90021BA3A3A3E02430FF900217F6
:10285E00E0FE04F0740D2EF582E43402F583EFF001
:10286E00900209E0FCA3E0FDA3E0FEA3E0FFE47B01
:10287E000AFAF9F81235959002091215EB90021723
:10288E00E06402708CE0FF04F0740D2FF582E434E6
:10289E0002F583742EF002281F900217E0D39403E2
:1028AE00502AE0FF04F0740D2FF582E43402F58314
:1028BE007430F0900217E0B402DFFF04F0740D2FB5
:1028CE00F582E43402F583742EF080CD900219E087
:1028DE006014900217E0FF04F0740D2FF582E434BB
:1028EE0002F583742DF0E4900218F0900217E0FFC9
:1028FE00A3E0FEC39F5029740D2EF582E43402F539
:10290E0083E090020712292F900208E0700A9002CD
:10291E0007E004F0A37418F0900218E004F080CBE6
:01292E002286
:082CEE0090020AEFF0A3EDF0E3
:102CF60078107C027D017BFF7A0079407E007F0A96
:102D0600121511E490021AF0A37409F0E4A3F0A3DB
:102D1600F0A31215F70000000190020CE0FCA3E0FE
:102D2600FDA3E0FEA3E0FFEC33501290021C7401F9
:102D3600F090020CA3A3A3E01215DD806690020CAE
:102D4600E0FCA3E0FDA3E0FEA3E0FFEC4D4E4F60E8
:102D56005AE47B0AFAF9F890020CA3A3A3E0123511
:102D660095AC00AD01AE02AF0390021E1215EB90BA
:102D7600021EA3A3A3E02430FF90021AE0FE04F093
:102D860074102EF582E43402F583EFF090020CE025
:102D9600FCA3E0FDA3E0FEA3E0FFE47B0AFAF9F85A
:102DA60012359590020C1215EB809290021CE06091
:102DB6001490021AE0FF04F074102FF582E4340236
:102DC600F583742DF0E490021BF090021AE0FFA345
:102DD600E0FEC39F502974102EF582E43402F58379
:102DE600E090020A12292F90020BE0700A90020A64
:0F2DF600E004F0A37418F090021BE004F080CB0F
:012E050022AA
:0A2A7D00900208EDF0AC07A3EBF0A7
:102A8700E4900214F0EB24FFFFE434FFFEEF780339
:102A9700CEC313CE13D8F904900209F0EC24FFFF3C
:102AA700E434FFFEEF7803CEC313CE13D8F99002B8
:102AB70010F0900208E0FF14543F900211F0FDEF70
:102AC70024FFFFE434FFFEEF7806CEC313CE13D8FE
:102AD700F9FF7401A807088002C333D8FCFF9002EE
:102AE70012F0900214F0ED4440FBE4FD1233BC9069
:102AF70002101233B4E490020EF0900209E0FF9046
:102B0700020EE0C39F4003022BBAE4A3F090020A2F
:102B1700E0FF90020FE0FEC39F506AEEFF900208AD
:102B2700E02FFFE433CF24FFCF34FFFEEF7806CE4C
:102B3700C313CE13D8F975F00384AFF07401A80757
:102B4700088002C333D8FCFF900213F0A3E06F6044
:102B57000E900213E0FFA3F07B40E4FD1233BC901C
:102B67000213E0FF90020BE0FBA3E475F0011215DE
:102B7700C7A9F0FA121537FB7D011233BC90020F7B
:102B8700E004F08088900212E0FF900214F09002B7
:102B970011E04440FBE4FD1233BC90020EE0FF90CD
:102BA7000210E02F5407041233B590020EE004F030
:032BB700022B01ED
:012BBA0022F8
:0F242000900247EFF0900249EBF0900248EDF088
:10242F00E4900253F0ED14543F900250F0FCED2471
:10243F00FFFFE434FFFEEF7806CEC313CE13D8F9B7
:10244F00FF7401A807088002C333D8FCFF90025124
:10245F00F0900253F0EC4440FBE4FD1233BC9002C9
:10246F0047E0141233B5123482E490024EF090021A
:10247F0049E0FF90024EE0C39F4003022550E4A3C2
:10248F00F090024AE0FF90024FE0FEC39F4003022C
:10249F002520EEFF900248E02FFFE433CF24FFCF3B
:1024AF0034FFFEEF7806CEC313CE13D8F975F003C1
:1024BF0084AFF07401A807088002C333D8FCFF90E3
:1024CF000252F0A3E06F600E900252E0FFA3F07B88
:1024DF0040E4FD1233BC900252123485AD079002D6
:1024EF004AE0FF90024EE08FF0A4FFA3E07A002FA6
:1024FF00FFEA35F0FE90024BE0FBA3E0FAA3E0F910
:10250F008F828E83ED12158F90024FE004F002241C
:10251F0090900251E0FF900253F0900250E044403F
:10252F00FBE4FD1233BC90024EE0FF900247E02F18
:10253F0054071233B512348290024EE004F0022495
:10254F007D7F071233EE900250E04440FBE4FD7FA5
:10255F00021233BC900247E01444B8FBE4FD7F0243
:10256F001233BCE490024EF0900249E0FF90024E0D
:10257F00E0C39F506EE4A3F090024AE0FF90024F39
:10258F00E0FDC39F503190024EE08FF0A47C002DF0
:10259F00FFEC35F0FE90024BE0FBA3E0FAA3E0F96D
:1025AF008F828E83121550FB7D017F021233BC90F8
:1025BF00024FE004F080C1900250E04440FBE4FD84
:1025CF007F021233BC90024EE0FF900247E02F547F
:1025DF000744B8FBE4FD7F021233BC90024EE004C7
:0325EF00F08085F4
:0125F20022C6
:071A7B0090020BEDF0AC0737
:101A8200E4900213F0EC24FFFFE434FFFEEF78034E
:101A9200CEC313CE13D8F9900214F0EC145407906D
:101AA2000217F0EC2B145407A3F0900217E0FDFF8D
:101AB200EB2FFFE433FEEF7803CEC313CE13D8F936
:101AC200FFED2B540760047E0180027E00EE2FFFA3
:101AD200900216F0900214E02F14A3F090020BE093
:101AE200FD14543F900210F0ED24FFFFE434FFFE9A
:101AF200EF7806CEC313CE13D8F9FF7401A80708F6
:101B02008002C333D8FC900211F0900213F09002CD
:101B120017E07003021BD31233A090021112348516
:101B2200E490020EF090020DE0FFA3E0FEC39F409E
:101B320003021BCBEEFF90020BE02FFFE433CF2416
:101B4200FFCF34FFFEEF7806CEC313CE13D8F9755C
:101B5200F0038490020FE5F0F0E0FF7401A807089B
:101B62008002C333D8FCFF900212F0A3E06F600E34
:101B7200900212E0FFA3F07B40E4FD1233BC90021E
:101B82001212348590020EE0FE2400F582E4340045
:101B9200F583EFF074002EF582E43400F583C08300
:101BA200C082E0FF900217E0FEC374079EFE747FBE
:101BB200A806088003A2E713D8FB5FD082D083F087
:101BC20090020EE004F0021B27900211E090021333
:101BD200F0900218E07003021CA4900211E0FF9042
:101BE2000210E04440FBE4FD1233BC9002151233B4
:101BF200B4900211123485E490020EF090020DE0CE
:101C0200FFA3E0FEC39F4003021C9CEEFF90020B69
:101C1200E02FFFE433CF24FFCF34FFFEEF7806CE70
:101C2200C313CE13D8F975F0038490020FE5F0F0D8
:101C3200E0FF7401A807088002C333D8FCFF9002BA
:101C420012F0A3E06F600E900212E0FFA3F07B405F
:101C5200E4FD1233BC90021212348590020EE0FEB3
:101C620024C0F582E43400F583EFF074C02EF582CF
:101C7200E43400F583C083C082E0FF900218E0FEE6
:101C820074FFA806088002C333D8FC5FD082D083D9
:101C9200F090020EE004F0021BFE900211E09002AE
:101CA20013F01233A0E4FA900216E0FFEAC39F4059
:101CB20003021DC0E490020EF090020DE0FFA3E0CB
:101CC200FEC39F4003021D9CEEFF90020BE02FFF1C
:101CD200E433CF24FFCF34FFFEEF7806CEC313CE1A
:101CE20013D8F975F0038490020FE5F0F0E0FF7469
:101CF20001A807088002C333D8FCFF900212F0A3A8
:101D0200E06F600E900212E0FFA3F07B40E4FD1250
:101D120033BC900217E0F9602EA3E0602A9002160D
:101D2200E0B40123900212E0FF90020EE0FE24C014
:101D3200F582E43400F583E0FD74002EF582E4348C
:101D420000F583E04D8044E96018EA7015900212B4
:101D5200E0FF90020EE02400F582E43400F583E017
:101D62008029900218E0601D900216E014B5021559
:101D7200900212E0FF90020EE024C0F582E43400EB
:101D8200F583E08006900212E0FFE4FB7D0112334E
:101D9200BC90020EE004F0021CBB900211E0FF9026
:101DA2000213F0900210E04440FBE4FD1233BC90B9
:0E1DB2000214E02A5407041233B50A021CA9D9
:011DC0002200
:0716F60090020BEDF0AC07C0
:1016FD00E4900213F0900219F0EC24FFFFE434FFA4
:10170D00FEEF7803CEC313CE13D8F9900214F0EC8C
:10171D00145407900217F0EC2B145407A3F0900209
:10172D0017E0FDFFEB2FFFE433FEEF7803CEC3137D
:10173D00CE13D8F9FFED2B540760047E0180027E95
:10174D0000EE2FFF900216F0900214E02F14A3F07C
:10175D0090020BE0FD14543F900210F0ED24FFFFBA
:10176D00E434FFFEEF7806CEC313CE13D8F9FF7421
:10177D0001A807088002C333D8FC900211F0900233
:10178D0013F0900217E07003021866900211E0FF4B
:10179D00900210E04440FBE4FD1233BC90021412A1
:1017AD0033B4900211123485E490020EF090020DC4
:1017BD00E0FFA3E0FEC39F400302185EEEFF900220
:1017CD000BE02FFFE433CF24FFCF34FFFEEF78067D
:1017DD00CEC313CE13D8F975F0038490020FE5F044
:1017ED00F0E0FF7401A807088002C333D8FCFF9016
:1017FD000212F0A3E06F600E900212E0FFA3F07BE7
:10180D0040E4FD1233BC90021212348590020EE0BA
:10181D00FE2400F582E43400F583EFF074002EF51C
:10182D0082E43400F583C083C082E0FF900217E0AC
:10183D00FEC374079EFE7480A806088003A2E713FA
:10184D00D8FB4FD082D083F090020EE004F0021747
:10185D00BA900211E0900213F0900218E0700302AA
:10186D001949900211E0FF900210E04440FBE4FDA5
:10187D001233BC9002151233B4900211123485E468
:10188D0090020EF090020DE0FFA3E0FEC39F400317
:10189D00021941EEFF90020BE02FFFE433CF24FF3E
:1018AD00CF34FFFEEF7806CEC313CE13D8F975F003
:1018BD00038490020FE5F0F0E0FF7401A8070880A3
:1018CD0002C333D8FCFF900212F0A3E06F600E90BC
:1018DD000212E0FFA3F07B40E4FD1233BC90021234
:1018ED0012348590020EE024C0F582E43400F583B5
:1018FD00EFF01D900218E0FEEDC39E500AA3E02507
:10190D00E04401F00D80EC90020EE024C0F582E47D
:10191D003400F583C083C082E0FF900219E0FEEF32
:10192D004ED082D083F0E4900219F090020EE004C4
:10193D00F0021891900211E0900213F0900211E064
:10194D00FF900210E04440FBE4FD1233BC90021402
:10195D001233B4E4FA900216E0FFEAC39F4003028B
:10196D001A7AE490020EF090020DE0FFA3E0FEC3A0
:10197D009F4003021A56EEFF90020BE02FFFE43357
:10198D00CF24FFCF34FFFEEF7806CEC313CE13D88E
:10199D00F975F0038490020FE5F0F0E0FF7401A8F3
:1019AD0007088002C333D8FCFF900212F0A3E06F4A
:1019BD00600E900212E0FFA3F07B40E4FD1233BCF9
:1019CD00900217E0F9602EA3E0602A900216E0B4B1
:1019DD000123900212E0FF90020EE0FE24C0F5827A
:1019ED00E43400F583E0FD74002EF582E43400F557
:1019FD0083E05D803CE96018EA7015900212E0FF0B
:101A0D0090020EE02400F582E43400F583E080219D
:101A1D00900218E0601E900216E014B502169002B6
:101A2D0012E0FF90020EE024C0F582E43400F5834D
:101A3D00E0FB8007900212E0FF7BFF7D011233BCBB
:101A4D0090020EE004F0021974900211E0FF900272
:101A5D0013F0900210E04440FBE4FD1233BC900201
:0D1A6D0014E02A5407041233B50A0219626E
:011A7A002249
:10390000E4F5CF75CDC030010475CED02275CE4020
:013910002294
:0D3931008FCFE5CD30E7FB75CDC0AFCF22C5
:1038B600438920759840758DDC858D8BE4F587D21C
:0438C600ACD28E22D0
:083987008F993099FDC29922CD
:02361A00AE07F9
:10361C00EEC4540FFDC36480948AED5004243080B2
:10362C000424F62461FF123987EE540FFDC3648025
:10363C00948AED50042430800424F62461FF12395E
:01364C0087F6
:01364D00225A
:07399600EF2430FF02398726
:1038CA00121537FF600C123987740129F9E43AFAA4
:0338DA0080EE225B
:0D364E00900270EBF0A3EAF0A3E9F0AE07E4
:10365B00E4FDEDC39E501A900270E0FBA3E0FAA3C9
:10366B00E0F98D82758300121550FF1239870D809A
:01367B00E16D
:01367C00222B
:030023000237ECB5
:0637EC00C0E0C083C082B2
:0F37F20030980CC298C2AF900203E599F0D2AFA5
:07380100D082D083D0E03239
:0139B10022F3
:06399D0000000000002202
:0539A300D2B7D2B622EC
:06388D001237AE1237D421
:0F389300D2B6D2B712399DC2B612399DC2B72232
:0C395800C2B6D2B712399DD2B602399D1A
:0637CE001238931237AE21
:1037D400D2B712399D30B608C2B712399D7F002284
:0837E400C2B712399D7F0122DA
:0C396400C2B6D2B712399DC2B702399D1D
:0C397000D2B6D2B712399DC2B702399D01
:1037AE00E4FEEF30E703D38001C392B6EF25E0FFCE
:0F37BE00D2B712399DC2B712399D0EEEB408E38F
:0137CD0022D9
:10367D00E4FED2B6FDEE25E0FED2B712399D30B68E
:10368D00034401FEC2B712399D0DEDB408E7EF609A
:0B369D00051239648003123970AF067B
:0136A80022FF
:103859001237CEAC07AF051237AE1237D4AF031209
:0A38690037AE1237D4123958AF04FD
:013873002232
:02387400AC079F
:103876001237CEAF0512388DEC04FF1237AE123771
:06388600D4E4FF12367DC0
:01388C002219
:10334E00AD071237CEEF70061239587F0122900268
:10335E0058E0FF12388DED04FF1237AE1237D490BD
:10336E000259E0FF6026B4010BE4FF12367DEF1226
:10337E00157D80107F0112367DEF12157D740129A7
:10338E00F9E43AFA900259E014F080D31239587FDA
:02339E0000220B
:1035D9001237CEEF7002801E90025EE0FF1237AE06
:1035E9001237D490025FE06022121537FF1237AE0E
:1035F9001237D4EF70061239587F0122740129F964
:10360900E43AFA90025FE014F080D81239587F004A
:01361900228E
:10277B004C023B0000000000000000000000004C79
:10278B00022D0000000000000000000000004102CC
:0C279B00390041023A0043022A010260AA
:0139B20022F2
:0139B30022F1
:1031A90090023DE064107069A3E0706590022F748D
:1031B90011F0E4A3F090022AE0FBA3E0FAA3E0F9FE
:1031C900121537900231F090000112155090023219
:1031D900F0900002121550900233F090000312157E
:1031E90050900234F0900004121550900235F0907E
:1031F9000005121550900236F090022D7455F0A377
:1032090074AAF07B017A02792D7F0C12328D7F012D
:103219002290023DE0B41107A3E070037F02227FF0
:02322900002281
:0F39220041444320646174613A0D0A000D0A00AC
:0927A70046026061616262636335
:1036D300900262EFF0A3EDF07BFF7A397922123882
:1036E300CA900262E0FF12361A900263E0FF1236BC
:0A36F3001A7BFF7A39792E0238CADB
:100B5E003A004300484F4D450025000000000000BC
:100B6E000000000000000000000000000000000077
:100B7E000000000000000000000000000000000067
:100B8E000000000000000000000000000000000057
:100B9E000000000000000000000000000000000047
:100BAE000000000000000000000000000000000037
:100BBE000000000000000000000000000000000027
:100BCE000000000000000000000000000000000017
:100BDE000000000000000000000000000000F0FF18
:100BEE00F0001CFFFFFF1C00FFFFFF00FF7F3F3FD9
:100BFE003F3F3F3F3F3F3F3F3F7FFFFF3F1F1F1F97
:100C0E001F1F7FFFFFFFFF7F7FFFFFFFFFFFFFFF26
:100C1E00FFFF7F7F3F7F7FFFFFFFFFFFFFFFFFFF96
:100C2E00FFFFFF3F1F1F1F1F1F3FFFFFFFFFFFFFA6
:100C3E00FFFFFFFFFFFFFFFFFFFFFFFFFFFFFFFFB6
:100C4E00FFFFFFFFFFFF3F1F1F1F1F1F3FFFFFFF86
:100C5E00FF3F3F3F3F3F3F3F3F3F3F3F3F3F3FFF16
:100C6E00FFFFFFFFFFFFFFFFFFFFFFFFFFFF7F3FC6
:100C7E003F1F1F1F1F1F1F3F3F7FFFFFFFFFFFFF76
:100C8E00FFFFFFFFFFFFFFFFFFFFFFFF3F1F1F1FC6
:100C9E001F1FBF7F3F1F1F1F1F3FFFFFFFFFFFFFD6
:100CAE00FFFFFFFFFFFFFFFFFFFFFFF8F070707009
:100CBE00707000000000000000FF00000000000047
:100CCE00000F030100000080E0FBFFFFFFFFFFF9B4
:100CDE00F0E0E0C080800081C3FF99818181818135
:100CEE00000000000000000081818181818181E38C
:100CFE00FFFFFFFFFFFFFFFFFFFFFFFFFFFFFFC134
:100D0E00C0800000000000C0203010102061C17EA5
:100D1E00000000008C8C8C8C000000000000FFFF97
:100D2E00FF7F1F0F0F0707030101000000E01008EF
:100D3E000808081830C00000000001030307070F61
:100D4E000F1FFFFFFFFFFF3F0F01000000C0300C21
:100D5E0003000000000000000101010181010101FA
:100D6E000101010183FFFFFFFFFF000000000000F3
:100D7E00101010107E8381810000000080406060A2
:100D8E00206040808181818181E7FFFFFFE1C0C04B
:100D9E00800000010307CFFFC181818181818080A6
:100DAE00808080808080818181818181C1FFFFFF71
:100DBE00FFFFFFFFFFFFFFFFFFFFFFFFF7C38100F6
:100DCE000080000001070C1830E0C0E0E09B0C0032
:100DDE00000031313131000000000000FFFFFFFF45
:100DEE00FCF8F8C4020202020202028382808080B2
:100DFE008080C00103020202020202C6FCF8F8FC67
:100E0E00FFFFFF03000000000000000306C43808C7
:100E1E00080C0603078C70000018FF06040C0C0C5F
:100E2E000C3EFFFFFFFFFFFFFC7C7C7CFC7C000088
:100E3E000000000000FF000000000F3020202040C6
:100E4E008001030F1F3F7FFFFFFFFFFF7F3F1F0F3D
:100E5E00030101010383E739000000000000E0E018
:100E6E00E0E0E000000000000001FFFFFFFFEF8365
:100E7E00010101010103CFFFFFFFFF7F0F070303F6
:100E8E00020204FE06030F73C18000000102040C6F
:100E9E00FCFCC40002020204041E7FFFFFFFFF0FD2
:100EAE00030101010103FF0101083F61C180000739
:100EBE000C081090F0F00804030303070F3FFFFF28
:100ECE00FFFFFFFEFE00000000384681808080801C
:100EDE00C0607C4300000000010E70C080000080E6
:100EEE0081EFFFFFFFF9E0E0E0C0C0C0C0C0E0E06E
:100EFE00E0F0FCFFE0C0C0E0E0E0E0F0F0F8FFF86A
:100F0E00F0E0E0E0F0F9FFFFFFF0E0E0C0E0E0F03D
:100F1E00F8FCFEFFFFE0C0C0C0C0C0C0C0C0C0C073
:100F2E00C0C0C0C0C0C0C0E0FFFFFFFFFFFFFFFF9B
:100F3E00FCFEFEFFFFFFFFFFF9F0E0E0E0E0F0F85F
:100F4E00FFF9E0C0C0C0C0C3C3C6C6C6C3C3C1C0DC
:100F5E00C1E7FCF8F0F0F0F8F8FFFFFFF0E0E0E09A
:100F6E00E0E0F0F8FFF0E0C0C0C0C0C1C1C2C2C234
:100F7E00C3C1C0C0E7FCF0F0E0F0F0F0FFFFFFFFF0
:100F8E00FFFFFFE0C0C0C0C0C0E0FFFFFFFFE0C03A
:100F9E00C0C0C0C0C0C0C0E0F0FFFFFFFFFFFFFF3A
:100FAE00FFFFFF1F0F0F0F0F0F0F0F0F0F0F0F0F63
:100FBE000F0F0F0F0F0F03010101030303070707A5
:100FCE000F0F0F1F1F1F3F3F3F7F7F7FFFFFFFFF53
:100FDE00FFFFFF3F1F1F1F1F1F1F1F1F1F1F1F1F53
:100FEE001F1F1F1F1F1F070303030707070F0F0FE7
:100FFE001F1F1F3F3F3F7F7F7FFFFFFFFFFFFFFF53
:10100E00FFFFFFFF3F1F1F1F1F1F1F1F1F1F1F1F42
:10101E001F1F1F1F1F1F1F070303030707070F0FA6
:10102E000F1F1F1F3F3F3F7F7F7FFFFFFFFFFFFF12
:10103E00FFFFFFFF3F1F1F1F1F1F1F1F1F1F1F1F12
:10104E001F1F1F1F1F1F1F070303030707070F0F76
:10105E000F1F1F1F3F3F3F7F7F7FFFFFFFFFFFFFE2
:10106E00FF800000000000000000000000000000F3
:10107E000000000000000000000000000000000062
:10108E0000808080C0C0C0E0E0E0F0F1FFFFFFFF15
:10109E00FF00000000000000000000000000000043
:1010AE000000000000000000000000000000000032
:1010BE0000000000808080C0C0C0E1E3FFFFFFFFA2
:1010CE00FFFF000000000000000000000000000014
:1010DE000000000000000000000000000000000002
:1010EE000000000000808080C0C0C0E1E3FFFFFF71
:1010FE00FFFF0000000000000000000000000000E4
:10110E0000000000000000000000000000000000D1
:10111E000000000000808080C0C0C0E1E3FF3F3FC0
:10112E003F3F3F3F3F3F3F3F3F3F3F3F3F3F3F3FC1
:10113E003F3F3C3838383C3C3C3E3E3E3F3F3F3FD5
:10114E003F3F3F3F3F3F3F3F3F3F3F3F3F3F3F3FA1
:10115E003E3E3E3E3E3E3E3E3E3E3E3E3E3E3E3EA1
:10116E003E3E383030303838383C3C3C3E3E3E3FD8
:10117E003F3F3F3F3F3F3F3F3F3F3F3F3F3F3F3F71
:10118E003F3E3E3E3E3E3E3E3E3E3E3E3E3E3E3E70
:10119E003E3E3E383030303838383C3C3C3E3E3EA9
:1011AE003F3F3F3F3F3F3F3F3F3F3F3F3F3F3F3F41
:1011BE003F3E3E3E3E3E3E3E3E3E3E3E3E3E3E3E40
:1011CE003E3E3E383030303838383C3C3C3E3E3E79
:0C11DE003F3F3F3F3F3F3F3F3F3F3F3F11
:0E27B000C10041027300410274004102750035
:05322B00900180EFF0AE
:1032300078817C017D017BFF7A0B79697E007F823A
:10324000121511900180E0602FB20030001B900237
:103250000A7405F0A374FFF0A3740BF0A374EBF0F1
:103260007B187D377F11022A7D90020D7405F07B5B
:10327000187D377F11021A7B30001190020D740502
:0C328000F07B187D377F11121A7BC20012
:01328C00221F
:1022280090020A743EF0A374FFF0A37404F0A37440
:102238003AF07B2D7D017F01122A7D7BFF7A0079A0
:10224800CAE490020CF07D057F01122BBB7BFF7A5C
:102258000079EAE490020CF07D067F01122BBB7B2B
:10226800FF7A0179EAE490020CF07D077F01122BD6
:10227800BB7BFF7A02790AE490020CF07D087F01AB
:10228800122BBB7BFF7A02792AE490020CF07D09BD
:102298007F01122BBB7BFF7A02794AE490020CF093
:1022A8007D0A7F01122BBB7BFF7A02796AE49002D8
:1022B8000CF07D0B7F01122BBB7BFF7A02798AE43D
:1022C80090020CF07D0C7F01122BBB7BFF7A00790A
:1022D8004AE490020CF07D057F02122BBB7BFF7A4B
:1022E80000796AE490020CF07D067F02122BBB7B1A
:1022F800FF7A00798AE490020CF07D077F02122BA6
:10230800BB7BFF7A0079AAE490020CF07D087F027B
:10231800122BBB7BFF7A0B795EE490020FF07D11E4
:102328007F021232EE9002091215F700000C997D17
:10233800167F021227C67BFF7A04792AE4900227C7
:10234800F07D177F021229497BFF7A0B7960E490B0
:10235800020FF07D187F021232EE7BFF7A0279AA13
:10236800E490020CF07D057F03122BBB7BFF7A0201
:1023780079CAE490020CF07D067F03122BBB7BFF29
:102388007A0B795EE490020FF07D117F031232EE32
:102398007BFF7A0279EAE490020CF07D0A7F03124F
:1023A8002BBB7BFF7A03790AE490020CF07D0B7F4C
:1023B80003122BBB7BFF7A03792A90020C7401F07D
:1023C8007D027F04122BBB7BFF7A03794A90020CB3
:1023D8007401F07D037F04122BBB7BFF7A0379AA7B
:1023E80090020C7401F07D067F04122BBB7BFF7AF0
:1023F8000379CA90020C7401F07D077F04122BBB8D
:102408007BFF7A0B796290020F7401F07D127F04D2
:082418001232EE7F32021DC1F9
:051DC100900207EFF0A5
:101DC600E4A3F0AC07EC12138C7BF67A28791C7826
:101DD600401212E5E4FBFA7980783F1211F11213F2
:101DE600C0900274E0FEC3EF9E900273F0C364805D
:101DF6009480500D9002087401F0900273E0F40490
:101E0600F0E4900209F0900273E0FF3395E0FE9053
:101E16000209E0C39FEE6480F87480984003021FB5
:101E2600A8900208E0FF9002746005E014F08003B9
:101E3600E004F0900274E024FE604A14606B1470B3
:101E460003021ED324DE7003021EF7147003021F62
:101E56001A147003021F3C147003021F5E242860CC
:101E660003021F6CEF600F90020D742BF07B017D57
:101E7600057F2A021F8690020D7429F07B017D06DC
:101E86007F2B021F9C900208E0600F90020D742DBC
:101E9600F07B017D047F29021F8690020D742BF0D2
:101EA6007B017D057F2A021F9C900208E0600F904F
:101EB600020D742DF07B017D047F28021F8690029F
:101EC6000D742DF07B017D047F29021F9C90020872
:101ED600E0600F90020D742FF07B017D037F2702D7
:101EE6001F8690020D742DF07B017D047F28021F52
:101EF6009C900208E0600E90020D742DF07B017D2F
:101F0600047F05807B90020D742DF07B017D047F9C
:101F160006021F9C900208E0600E90020D742BF0E2
:101F26007B017D057F04805890020D742DF07B01A6
:101F36007D047F058060900208E0600E90020D74BB
:101F460029F07B017D067F03803690020D742BF00D
:101F56007B017D057F04803E90020D7429F07B0194
:101F66007D067F038030900208E09002746016E0E0
:101F7600FFC3742B9FFF90020D742FF07B017D032E
:101F8600121A7B8014E0FFC3742C9FFF90020D741D
:101F96002FF07B017D031216F6900209E004F00291
:101FA6001E0C900207E0FF3395E0FEFDFC90020C4C
:101FB6001215EB7D047F02122CEE7BFF7A0B7967FC
:101FC600E490020FF07D057F021232EE900207E0E8
:101FD600FFB4631E900275E0FEC3EF9EC364809457
:101FE60080500F90020D7408F07B107D097F11124E
:0A1FF60016F6900207E0900275F065
:0120000022BD
:1039110049535220636F6D706C657465642E0D0A96
:0139210000A5
:0727BE0044026C616263003C
:0C393E007FB27EE67D0CDDFEDEFADFF6D7
:01394A00225A
:0C394B007FD97EAB7D49DDFEDEFADFF6A1
:01395700224D
:0539A800D288D2A82224
:10343C0012394B438E401239A81238B6D2011239C8
:10344C00001239A31239AD1236A912394B1236FDBE
:10345C0012305F123823D2AF12222812394B123697
:10346C00FDC2A6C2C0C2A7C2A512394BD2C0D2A7F8
:06347C00D2A5D2A680E5F6
:0300030002355172
:10355100C0E0C0F0C083C082C0D075D000C000C040
:1035610001C002C003C004C005C006C007122ED8A6
:103571007BFF7A3979111238CAD007D006D005D02D
:1035810004D003D002D001D000D0D0D082D083D0DB
:04359100F0D0E03264
:1011EA0002142CE86480F8E933E83360110460F0F3
:1011FA00ED33EC337009E8FCE9FDEAFEEBFF22046B
:10120A0060DED3EB9FEA9EE99DE8C2E78CF0C2F765
:10121A0095F0400CE8CCF8E9CDF9EACEFAEBCFFB31
:10122A001213F785D0F05804700320D5B3E8047080
:10123A00075002B2D502143692D5EC0460F7E4CC1A
:10124A00C0E0C398F8603B94186008400DD0E0FBFA
:10125A0002140EE4FBFAC9FC8028E830E406E4C96B
:10126A00FBE4CAFCE830E305E4C9CACBFCE854074E
:10127A006010F8C3E913F9EA13FAEB13FBEC13FC59
:10128A00D8F130F52FC3E49CFCEF9BFFEE9AFEEDFC
:10129A0099FDD0E0FBEF4E4D4C701222DB03021495
:1012AA0033EC2CFCEF33FFEE33FEED33FDED30E78C
:1012BA00EB02140EEF2BFFEE3AFEED39FDD0E0FB08
:1012CA0050130BBB0003021436ED13FDEE13FEEFB1
:0812DA0013FFEC13FC02140EDB
:1012E200021436EC5D046005E85904700302142C04
:1012F2001213F7580460F6EC4860F2EC7004FDFE3D
:10130200FF22C860DB2481C85009C39860025006DE
:101312000214339850CAF582E9294B4A7005AB8210
:1013220002142275F0007C1A7880C3EF9BEE9AEDCE
:1013320099400DC3EF9BFFEE9AFEED99FDE842F056
:10134200DC23ACF0D0E0FFD0E0FED0E0FDAB8220A9
:10135200E7101BEB60BAEC2CFCEF33FFEE33FEED33
:1013620033FD02140EE803F830E705C0F075F00013
:10137200EF2FFFEE33FEED33FD40B830E7C280AA17
:1013820075F020800E75F010800575F0087D007EE6
:10139200007F003392D530D5031215DDEC334010B7
:1013A200EF33FFEE33FEED33FDEC33FCD5F0ED22EF
:0E13B200E5F0247EA2D513CC92E7CDCEFF222B
:1013C000EDD2E7CD33EC3392D524814006E4FFFE25
:1013D000FDFC22FCE4CFCECDCC24E0501174FF8084
:1013E000EDC3CC13CCCD13CDCE13CECF13CF047021
:0713F000F030D5DE0215DD2F
:1013F700E9D2E7C933E833F892D5EDD2E7CD33EC3C
:0714070033FC5002B2D522B4
:10140E00EC30E7100FBF000C0EBE00080DBD00043F
:10141E000BEB6014A2D5EB13FCED92E7FD2274FFEB
:10142E00FCFDFEFF22E480F8A2D574FF13FC7D8044
:03143E00E480EF58
:0300000002311DAD
:0C311D00787FE4F6D8FD75812002316453
:10144100E709F608DFFA8046E709F208DFFA803E8D
:1014510088828C83E709F0A3DFFA8032E309F6087A
:10146100DFFA8078E309F208DFFA807088828C83E2
:10147100E309F0A3DFFA806489828A83E0A3F60896
:10148100DFFA805889828A83E0A3F208DFFA804C70
:1014910080D280FA80C680D4806980F28033801047
:1014A10080A680EA809A80A880DA80E280CA8033B0
:1014B10089828A83ECFAE493A3C8C582C8CCC58328
:1014C100CCF0A3C8C582C8CCC583CCDFE9DEE780F8
:1014D1000D89828A83E493A3F608DFF9ECFAA9F077
:1014E100EDFB2289828A83ECFAE0A3C8C582C8CCCD
:1014F100C583CCF0A3C8C582C8CCC583CCDFEADEE6
:10150100E880DB89828A83E493A3F208DFF980CC47
:1015110088F0EF60010E4E60C388F0ED2402B40440
:101521000050B9F582EB2402B4040050AF232345E7
:0615310082239014917367
:10153700BB010689828A83E0225002E722BBFE02B2
:09154700E32289828A83E49322E5
:10155000BB010CE58229F582E5833AF583E0225050
:1015600006E92582F8E622BBFE06E92582F8E2229A
:0D157000E58229F582E5833AF583E49322B4
:10157D00BB010689828A83F0225002F722BBFE014D
:02158D00F32247
:10158F00F8BB010DE58229F582E5833AF583E8F092
:10159F00225006E92582C8F622BBFE05E92582C83E
:0215AF00F22226
:1015B100C5F0F8A3E028F0C5F0F8E58215827002C5
:0615C1001583E038F02262
:1015C700A3F8E0C5F025F0F0E582158270021583D7
:0615D700E0C838F0E82234
:10359500C2D5E830E70FB2D5E4C39BFBE49AFAE461
:1035A50099F9E498F8EC30E717B2D51235CB121635
:1035B50064E4C39BFBE49AFAE499F9E498F8800380
:1035C50012166430D50DE4C39FFFE49EFEE49DFD15
:0435D500E49CFC2254
:0E15DD00C3E49FFFE49EFEE49DFDE49CFC221F
:0C15EB00ECF0A3EDF0A3EEF0A3EFF02273
:1015F700A8828583F0D083D08212160E12160E129F
:10160700160E12160EE473E493A3C583C5F0C583C3
:10161700C8C582C8F0A3C583C5F0C583C8C582C83D
:0116270022A0
:1031290002343CE493A3F8E493A34003F68001F24C
:1031390008DFF48029E493A3F85407240CC8C333A7
:10314900C4540F4420C8834004F456800146F6DF76
:10315900E4800B01020408102040809025F3E47EEE
:10316900019360BCA3FF543F30E509541FFEE4936B
:10317900A360010ECF54C025E060A840B8E493A332
:10318900FAE493A3F8E493A3C8C582C8CAC583CA5D
:10319900F0A3C8C582C8CAC583CADFE9DEE780BE15
:0127C5000013
:1016280075F008758200EF2FFFEE33FECD33CDCC79
:1016380033CCC58233C5829BED9AEC99E5829840FC
:101648000CF582EE9BFEED9AFDEC99FC0FD5F0D6D9
:10165800E4CEFBE4CDFAE4CCF9A88222B800C1B903
:101668000059BA002DEC8BF084CFCECDFCE5F0CB41
:10167800F97818EF2FFFEE33FEED33FDEC33FCEB7A
:1016880033FB10D703994004EB99FB0FD8E5E4F935
:10169800FA227818EF2FFFEE33FEED33FDEC33FC22
:1016A800C933C910D7059BE99A4007EC9BFCE99A16
:1016B800F90FD8E0E4C9FAE4CCFB2275F010EF2F5B
:1016C800FFEE33FEED33FDCC33CCC833C810D7075B
:1016D8009BEC9AE899400AED9BFDEC9AFCE899F896
:0E16E8000FD5F0DAE4CDFBE4CCFAE4C8F92229
:00000001FF
