:102BE900436865636B205349343433322E2E2E0DDE
:102BF9000A004445564943455F545950453A2030E7
:102C09007825782E0D0A000D0A004445564943459A
:102C19005F56455253494F4E3A20307825782E0D4C
:102C29000A004445564943455F5354415455533A64
:102C39002061742069646C65206D6F64652E0D0ACE
:102C4900004445564943455F5354415455533A202E
:102C59006174205258206D6F64652E0D0A00444539
:102C6900564943455F5354415455533A20617420A2
:102C79005458206D6F64652E0D0A00437279737480
:102C8900616C204F7363696C6C61746F72204C6F57
:102C990061642043617061636974616E63653A20A0
:102CA90025780D0A0053493434333220494F2049DD
:102CB9006E69742E2E2E2E2E2E0D0A00494F204994
:102CC9006E697420636F6D706C657465642E0D0A8E
:102CD90000534934343332206973206E6F7420668F
:102CE9006F756E642E2E2E2E2E2E0D0A005349342A
:102CF900343332204750494F496E697420636F6DF0
:102D0900706C6574652C636F6E666967206465769F
:102D19006963652E2E2E2E2E2E0D0A00436F6E66C8
:102D290069672052462E2E2E2E2E2E0D0A0053494B
:102D390034343332496E697420636F6D706C657415
:102D4900652E0D0A005349343433325F53657420BC
:102D590052784D6F64652E2E2E2E2E2E0D0A00539D
:102D690049343433325F5365742054784D6F646548
:102D79002E2E2E2E2E2E0D0A005349343433325F57
:102D89005365742049646C654D6F64652E2E2E2E33
:102D99002E2E0D0A005349343433325F53656E6465
:102DA900204649464F20646174612E2E2E2E0D0A4D
:102DB900002072657620496E746572727570740DA3
:102DC9000A002073656E6420496E746572727570AD
:102DD900740D0A006D6F64652072656769737465A7
:052DE900723A0D0A0022
:104E5200D3EF9400EE64809480400F7D817C14DC5B
:0A4E6200FEDDFAEF1F70E91E80E686
:014E6C002223
:07505B00C2C3D2B3D2B2229E
:094D980090029CEFF07D017F0EFA
:104DA10090020EEDF0C2B3EF4480FF124FE5900286
:094DB1000EE0FF124FE5D2B3221F
:074F670090029BEFF07F04B4
:0C4F6E00C2B3124FE57FFF124FE5D2B333
:014F7A002214
:10414C007BFF7A2B79E9124F8FE4FF124F6E9002AE
:10415C0009EFF07BFF7A2B79FB124F8F900209E06D
:10416C00FF124C347BFF7A2C7910124F8F9002097E
:10417C00E0640860037F01227F01124F6E900209F8
:10418C00EFF07BFF7A2C7913124F8F900209E0FF2E
:10419C00124C347BFF7A2C7910124F8F7F02124F06
:1041AC006E900209EFF0540F70087BFF7A2C792B7C
:1041BC008022900209E0540FFFBF01087BFF7A2C8C
:1041CC00794A8010900209E0540FFFBF02097BFF6F
:1041DC007A2C7967124F8F7F09124F6E900209EF7C
:1041EC00F07BFF7A2C7984124F8F900209E0FF123A
:0D41FC004C347BFF7A2C7910124F8F7F001E
:014209002292
:103EE4007D537F75124DA17D4B7F76124DA1E4FD6C
:103EF4007F77124DA17D097F6E124DA17DD57F6F15
:103F0400124DA17D2C7F70124DA17D807F58124DE2
:103F1400A17D1F7F6D124DA17D207F72124DA17D69
:103F24002C7F1C124DA17D417F20124DA17D607F0D
:103F340021124DA17D277F22124DA17D527F231294
:103F44004DA1E4FD7F24124DA17D047F25124DA1D6
:103F54007D407F1D124DA17D0A7F1E124DA17D0F54
:103F64007F2A124DA17D037F1F124DA17D607F69C1
:103F7400124DA17D0C7F34124DA17D2A7F35124D47
:103F8400A17D027F33124DA17D2D7F36124DA17D7F
:103F9400D47F37124DA17D8D7F30124DA1E4FD7F7A
:103FA40032124DA17D637F71124DA17DB47F090250
:023FB4004DA11D
:10420A007BFF7A2C79AE124F8F12505B7BFF7A2C90
:10421A0079C5124F8F7F147E00801312414CEF60D4
:10422A00127BFF7A2C79DA124F8F7FF47E01124EBD
:10423A005280E87DCA7F0B124DA17DCA7F0C124DB8
:10424A00A17DCA7F0D124DA17F0A7E00124E527BBC
:10425A00FF7A2C79F6124F8F7F03124F6E124F6737
:10426A0090029CEFF07D807F07124DA17F147E00A3
:10427A00124E527F03124F6E124F6790029CEFF05C
:10428A007BFF7A2D7925124F8F123EE47DFF7F0541
:10429A00124DA17DFF7F06124DA17F03124F6E12B0
:1042AA004F6790029CEFF07D077F05124DA1E4FD58
:0E42BA007F06124DA17BFF7A2D7937024F8FC0
:104E6D007F03124F6E124F67124D987D057F07120B
:0B4E7D004DA17BFF7A2D794E024F8F74
:104D50007F03124F6E124F6790029CEFF07D027F2F
:104D60000E124DA17D097F07124DA17BFF7A2D798F
:044D700068024F8FF7
:104E88007F03124F6E124F67124D987D017F0712F4
:0B4E98004DA17BFF7A2D7982024F8F25
:1047860090020AEBF0A3EAF0A3E9F0900209EFF039
:01479600FD25
:104797007F3E124DA1E490020DF0900209E0FF90D8
:1047A700020DE0FEC3EF6480F8EE64809850259018
:1047B700020AE0FBA3E0FAA3E0F9EEFF3395E08FEE
:1047C70082F5831218E0FD7F7F124DA190020DE064
:1047D70004F080C6124D507BFF7A2D799E024F8FD1
:1044C0007F07124F6E900204EFF07F03124F6E12BF
:1044D0004F6790029CEFF090029BE030E15B7BFF26
:1044E0007A2D79BA124F8F7F4B124F6E900205EFE3
:1044F000F0BF0C2EE4900204F0900205E0FF900261
:1045000004E0C39F501C7F7F124F6E900204E02492
:1045100041F582E43402F583EFF0900204E004F008
:1045200080D77D027F08124DA1E4FD7F08124DA1C6
:10453000124E6D90023F7401F090029BE030E20C4D
:0C4540007BFF7A2D79CB124F8F124E6D4D
:01454C00224C
:104D74007F07124F6E90029FEFF07BFF7A2D79DD53
:104D8400124F8F90029FE0FF124C347BFF7A2C79F4
:044D940010024F8F2B
:0C29D60049026F00000001050107E0004D
:09504A00E4FB7D0E7FD0024EA3B1
:10408800E4FD7FD0124ED8AD07ED54F0C4540F753F
:10409800F00AA4FFED540F2F90026FF07D017FD03E
:1040A800124ED8AD07ED54F0C4540F75F00AA4FFB2
:1040B800ED540F2F900270F07D027FD0124ED8ADD4
:1040C80007ED54F0C4540F75F00AA4FFED540F2FF8
:1040D800900271F07D047FD0124ED8AD07ED54F0F8
:1040E800C4540F75F00AA4FFED540F2F900272F01C
:1040F8007D037FD0124ED8900273EFF07D057FD0FC
:10410800124ED8AD07ED5410C4540F75F00AA4FF31
:10411800ED540F2F900274F07D067FD0124ED8AD6B
:1041280007ED54F0C4540F75F00AA424D0FFE5F04D
:104138003407FEED540F7C002FFFEC3E900275F023
:03414800A3EFF0F2
:01414B002251
:103FB600900266E0FF75F00A84C454F0FEEF75F0D7
:103FC6000A84E5F02EFBE4FD7FD0124EA390026733
:103FD600E0FF75F00A84C454F0FEEF75F00A84E53C
:103FE600F02EFB7D017FD0124EA3900268E0FF7594
:103FF600F00A84C454F0FEEF75F00A84E5F02EFB57
:104006007D027FD0124EA3900269E0FF75F00A840C
:10401600C454F0FEEF75F00A84E5F02EFB7D047FB4
:10402600D0124EA390026AE0FB7D037FD0124EA30E
:1040360090026BE0FF75F00A84C454F0FEEF75F051
:104046000A84E5F02EFB7D057FD0124EA390026D0B
:10405600E02430FF90026CE034F8FE7C007D0A120A
:104066001953EFC4F8540FC868FFAB07E0FEA3E08E
:10407600FF7C007D0A121953EB2DFB7D067FD002D3
:024086004EA347
:1000260000000000000000000000000000000000CA
:10003600000000000018188888286A4E0CE8E808B6
:1000460008181800000444446525341C0E0F1D349E
:100056006444040000F8F888F8F81090901010FE38
:10006600FE101000001F1F081F1F00000343407FE3
:100076007F0000000020644C0800FEFE929292FE73
:10008600FE00000000303C0F437E7E7E7E427E7E78
:100096007E7E4000000000F8F828F8FAAEACA8F81A
:1000A600F82828000040703F4F42662E3A123A2E3A
:1000B6006642400000202020A0E060FFFFE0C06014
:1000C600381800002030180E0741C0FF7F010306D4
:1000D6000C1810100080C0F0FE0E9090121E1CD05E
:1000E600D01000000000007F7F40414F4E607C5FD3
:1000F6004340400000F8F888F8F81090901010FE81
:10010600FE101000001F1F081F1F00000343407F42
:100116007F0000000000F0F20EECE4242424E4E466
:1001260004FCFC0000007F7F000F0F0909090F4F38
:10013600407F7F0000808282FEFE82828282FEFEF7
:1001460082828000004060381F07000000007F7F29
:100156000000000000001010121E1CF0F0181E1601
:10016600101000000041416131190F07070F1931C6
:1001760061414100002038DFC7444444FCFC44444C
:10018600444404000404040707040404FFFF0404B1
:1001960004040404000000FEFE222222222222225F
:1001A600FEFE000080C0703F0F020202020242C241
:1001B600FF7F0000000000FEFE828282828282FEB5
:1001C600FE000000000000FFFF404040404040FFAE
:1001D600FF000000000000F8F88C8E8B898888F8F4
:1001E600F8000000000000FFFF444444444444FF7C
:1001F600FF0000004044C4C44444445010FFFF10B4
:1002060010F0F000103C3F1314BCF8703E0F41C0D4
:10021600C07F3F00101010FFFFB0B8D868290F2E1E
:1002260068E8B8180242C3FF7F40404242427E7EE1
:100236004242424040505E4E48FFFF484848F8F868
:1002460000FFFF0000003E3E02FFFF323E1E0F4F42
:10025600C0FF7F00000022323AAEA6E26331198960
:1002660081010000004262331B4BC2FE7E020A1A65
:10027600336746002030BCEF733088C8E8B99F8EDC
:10028600A8E8C888226767321292C0703F0F003F05
:100296007F40717100083830FFFF202020FFFF20CB
:1002A600222E2C2004040603FFFFC0703E0F071EFB
:1002B6003860C08000048484C46474DF9F3464C4DE
:1002C60084840400417939003C7C40424E4C4070A5
:1002D600740D3931101C4C643414050706041434AB
:1002E60064541C0C004040414141417F7F414141E3
:1002F6004140400000F8F943424242FAFA42424283
:1003060042FEFE0000FFFF080C06033F3F03064CBB
:10031600C8FF7F000000FEFE42424242FAFA424215
:1003260042C2C20280E07F9FC060381E070140C003
:10033600C07F3F000000F8F8888888FFFF8888881B
:10034600F8F80000808081C54C78303F2F6040402F
:10035600C181808090D27634FFFF3476D2F0FF8F51
:1003660008F8F808829ADE776372DE8E80C0733FE3
:100376003F73C0801010FFFF9090FEFE9292F2F243
:10038600929E9E8042C2FF7F81E07F1FFCFC474712
:1003960044FCFC00404042CECC40E0BE9E82829EA1
:1003A600BEA020200000003FBF98C8436F3C386EB7
:1003B60047C18080001717D5D557577D7D5757D52C
:1003C600D51717004040407F7F5555555555557FE9
:1003D6007F404040404042CECC00FCFCA4A42622F4
:1003E600A3E362000040603F3F785F57584D4747A0
:1003F6004D5850400000FEFE02F2F21212F2F202D6
:10040600FEFE000000007F7F2027272424272720C8
:100416007F7F000020305C4F57545454545454D4BA
:10042600D404040000000000000000000000000FDB
:100436003F70F0F08080C06030182CE7C70C183091
:1004460060C080800000000202020282C2623A1E80
:100456000600000040404242424242FEFE42424204
:10046600424240408080C060301C0F03030F1C30A6
:1004760060C080801010D0FFFF94F4EFAFA4A4AF4B
:10048600EFE40400040703FFFF89CB6B3A1E1E3A14
:100496006BCB8880101090909090909010FFFF107A
:1004A60011171610002060603F3F101010030F1C3C
:1004B6003060F8F800002424242424FCFE222223A1
:1004C60023220000020202020242C2FF7F0202024F
:1004D60002020202000000BEBE2A2AEAEA2A2A3ED8
:1004E6003E0000000044464B4949497F7F4949493F
:1004F600494140000004FFFF2424FFFF04FEFE22C2
:1005060022FEFE0088C86F2F0919BFEF783F0F4201
:10051600C2FF7F0080808080808080808080808095
:1005260080808080000000000000000000000000C5
:100536000000000000000808080808080808080865
:1005460008080000101010101010101010101010D5
:100556001010101000048484848484848484848429
:1005660084840400202020202020202020202020F9
:100576002020202000FCFC0404FCFC0404FCFC04F9
:1005860004FCFC00007F7F2C27232020202123222F
:10059600227F7F000002424242C2FE7E424242C2A7
:1005A600C202020040404040787F47404040407FC2
:1005B6007F40404020202020202021232E2C202058
:1005C60020202020004060301C0F0300000103069D
:1005D6001C7860004042CECC00445454547F7F5473
:1005E6005454444000007F7F3010FFFF151555D549
:1005F600FF7F000088E87FDFC818D8DC56D3D39683
:100606009CD8D010091919FFFF05FFFF92FFFF5F65
:10061600DFFF7F00000000000001E3FEFCE00000B9
:100626000000000080C060301C0F030000030F3C78
:1006360070C08080109CCC44E4E495B7E6643494A2
:10064600C4D49C0C02027A7B4143437E7E424243E1
:10065600FBF800000484E4FC5CC4C402F2F282826B
:10066600FEFE808002037F7F103F3F08080808488F
:10067600C8C87F3F4070FFEF646C487F7F48487F63
:100686007F48484001017F7F3111FFFF49494949B1
:10069600FFFF00004042CECC00809E9E9292929236
:1006A6009E9E800000007F7FB494C464341F1F3474
:1006B60064C48484101010FFFF9090F0F010FFFFC8
:1006C60010F0F0000444C6FF7F0100FFFF427F7F69
:1006D60042FFFF004040C0DF5F55D5D55555555FF9
:1006E6005F40404020607F3F3515FFFFD76F393DA3
:1006F6006FC3808020202020202020FFFF20202084
:10070600202020208080C060301C0F03030F1C3087
:1007160060C08080000000E0E00000FFFF000020D5
:1007260060C08000080C07030040C0FF7F00000087
:1007360000010F0E80E0F8FF0704747455575654F5
:10074600747404000000FFFF03030545C5FD7D0525
:1007560005050303206464B494BFBF809FBFA4A6AD
:10076600A23A3800000000FFFF0A0A0A0A4ACAFF36
:100776007F000000404042465CD8C07F7FC0D05812
:100786004E4640408080C060381F0700003F7F40D3
:10079600404078780000183C243C18000000000017
:1007A60000000000E0380C0602030101010101010E
:1007B6000101010101010101010101010101010123
:1007C6000101010101010101010101010101010113
:1007D600010302060C38E0404040404040404040A3
:1007E600C000FF0000000000000000000000000044
:1007F60000000000000000000000000000000000F3
:1008060000000000000000000000000000000000E2
:1008160000000000FF40C000000000000000FF00D4
:10082600FF000000000000000000000000000000C3
:1008360000000000000000000000000000000000B2
:1008460000000000000000000000000000000000A2
:100856000000FF00FF0000F0FFF00000FF00FF00B7
:100866000000000000000000000000000000000082
:100876000000000000000000000000000000000072
:100886000000000000000000000000000000000062
:10089600FF00FF001CFFFFFF1C00FF00FF800000A1
:1008A6000000000000000000000000000000000042
:1008B6000000000000000000000000000000000032
:1008C6000000000000000000000000000080FF7033
:1008D6005F0000FFFFFF00005F700003060C0818B2
:1008E6001010101010101010101010101010101002
:1008F60010101010101010101010101010101010F2
:100906001010101010101018080C161318080810E4
:100916001018081810101008000000000000000051
:100926000000000000000000000000F8F8000000D1
:10093600000030333300000000100C06100C0600D7
:1009460000000000000000004040F840F8400000B1
:10095600043E053F05040000007088FC08300000D6
:10096600001820FF211E0000F008F080700800002B
:1009760000211C031E211E0000F0887000000000EC
:100986001F2027281F211000000000000000000083
:1009960080B0F07000000000000000F0FC0E0200C5
:1009A6000000000F3F70400000061EF8E000000047
:1009B6000060781F070000004040C0F0F0C04040D3
:1009C6000202030F0F030202000000F0F000000015
:1009D6000101011F1F0101010002020604000000BF
:1009E6000000000000000000000000000000000001
:1009F60001010101010101000000000000000000EA
:100A0600003030300000000000000000C0F83C0C50
:100A16000060783F07010000E0F0180818F0E000D9
:100A26000F1F3020301F0F00001010F8F8000000D4
:100A36000020203F3F2020000070780808F8F000D2
:100A460000303C2E233130000030388888F87000A2
:100A560000183820313F1E000080C060F8F8000002
:100A6600060705243F3F240400F8F8888888080014
:100A760000193921313F1F00E0F098888898180046
:100A86000F1F3120313F1F0000383808E8F81800E2
:100A96000000003F3F00000070F8988898F870004A
:100AA6001E3F2121313F1E00F0F8080818F8E0002B
:100AB600313322323B1F07000000C0C0C0000000D7
:100AC6000000303030000000000000808000000090
:100AD600000080E060000000000080E07018080060
:100AE6000001030E1C3020004040404040404000C2
:100AF600040404040404040000083870C0800000E4
:100B06000020381C060301007078080818F8F00069
:100B16000000303737010000C0F0F8E8E8F8F0E0F0
:100B2600071F3F2727371F0B0000E0F8F8E00000FB
:100B3600203C3F23233F3C2008F8F88888F87000C3
:100B4600203F3F20313F1E00E0F0380808383800CB
:100B56000F1F30202030100008F8F80818F0E000C9
:100B6600203F3F20301F0F0008F8F888E8F81800EB
:100B7600203F3F202333300008F8F888E8E81810B3
:100B8600203F3F2003030000C0F038080838380033
:100B9600071F3820223E1E0208F8F80808F8F80851
:100BA600203F3F21213F3F20000808F8F8080800B1
:100BB6000020203F3F202000000808F8F808080021
:100BC600C0C080FF7F00000008F8F8C8E8381808A1
:100BD600203F3F21273E382008F8F8080000000093
:100BE600203F3F202030300008F8F800F8F80800D1
:100BF600203F003F003F200008F8F8F8C8F8F80842
:100C0600203F3F231F3F3F00E0F0180818F0E000A8
:100C16000F1F3020301F0F0008F8F80808F8F00002
:100C2600203F3F2101010000E0F0180818F0E00025
:100C36000F1F3C247C7F4F0008F8F88888F8700066
:100C4600203F3F21073E38200070F888081818001A
:100C560000303021233F1E00181808F8F80818182D
:100C66000000203F3F20000008F8F80808F8F808C0
:100C7600001F3F20203F1F000878F88888F8780872
:100C860000000F3F3F0F000008F8FCFCF8F8F808DA
:100C960000073F3F3F3F07000838F8E8E8F8180824
:100CA60020303C2F2F3E38200838F8C8C8F83808BE
:100CB6000000203F3F200000101808C8F838080040
:100CC600303C2F2320301000000000FEFE02020000
:100CD6000000007F7F404000001CFCE00000000098
:100CE600000000031F7C6000000202FEFE00000000
:100CF6000040407F7F00000000000406060400005C
:100D060000000000000000000000000000000000DD
:100D1600808080808080808010161E0E000000007B
:100D2600000000000000000000008080808080003D
:100D3600001D3D26223F3F2008F8F88080800000F5
:100D4600003F3F21203F1F00000080808080800000
:100D5600001F3F31203111000000808088F8F80024
:100D6600001F3F21203F3F20000080808080000040
:100D7600001F3F22223313008080F0F88898180065
:100D860000203F3F202000000000808080808000FF
:100D9600006BFF9497F3600008F8F880808080006D
:100DA600203F3F21203F3F20008080989800000090
:100DB6000020203F3F2020000000808098980000FF
:100DC60000C0C080FF7F000008F8F88080808000A7
:100DD600203F3F263F392000000808F8F8000000B1
:100DE6000020203F3F2020008080808080808080FF
:100DF600203F3F203F3F203F8080808080808000D2
:100E0600203F3F2100203F3F00008080808000007F
:100E1600001F3F31213F1F008080808080800000BE
:100E260080FFFFA1303F1F0000008080808080008F
:100E3600001F3F21A0FFFF8080808080808080008F
:100E460020203F3F2121010000008080808080001B
:100E560000333724243D1900008080E0E0808000C4
:100E66000000001F3F2020008080800080808000DE
:100E7600003F3F20203F3F20808080808080808010
:100E860000031F3C3C1F03008080C0C08080808020
:100E9600000F3F3F3F3F0F008080808080808000B2
:100EA60020313F2E3F3120008080808080808080EE
:100EB6008083CF7E3E0F010000808080808080008E
:080EC6000021393C2733300004
:1029E20060C00000000000000000000000000000C5
:1029F20000000000000000000000000000000000D5
:102A020000000000000000000000000000000000C4
:102A120000000000000000000000000000000000B4
:102A220000000000000000000000000000000000A4
:102A32000000000000000000000000000000000094
:102A42000000000000000000000000000000000084
:102A52000000000000000000000000000000000074
:102A62000000000000000000000000000000000064
:102A72000000000000000000000000000000000054
:102A82000000000000000000000000000000000044
:102A92000000000000000000000000000000000034
:102AA2000000000060C000C0000000000000000044
:102AB2000000000000000000000000000000000014
:102AC2000000000000000000000000000000000004
:102AD20000000000000000000000000000000000F4
:102AE20000000000000000000000000000000000E4
:102AF20000000000000000000000000000000000D4
:102B020000000000000000000000000000000000C3
:102B120000000000000000000000000000000000B3
:102B220000000000000000000000000000000000A3
:102B32000000000000000000000000000000000093
:102B42000000000000000000000000000000000083
:102B52000000000000000000000000000000000073
:082B620000000000000000006B
:044E19007F057E0093
:104E1D00D3EF9400EE9400400F7D147C32DCFEDD68
:084E2D00FAEF1F70EB1E80E894
:014E3500225A
:104FB400D3EF9400EE94004007EF1F70F31E80F0CF
:014FC40022CA
:04507A0075BB602280
:10494500900218E0FF900217E04440FBE4FD124995
:0C4955006190021BE044B8FBE4FD7F070A
:10496100EF30E002C2C2EF30E102C291EF30E20269
:10497100C292D2C6ED6004D2C58002C2C5C2C1AF27
:10498100038F80C2C6D2C2D291D2927F017E000231
:024991004E1DB9
:074A2600900257E0FF7D0143
:104A2D007580FFEFB40104C2C2800EEFB40204C260
:104A3D00918006EFB40402C292ED6004D2C58002EB
:104A4D00C2C5D2C100D2C600AC80C2C6C2C1D2C2DC
:0D4A5D00D291D2927F017E00124FB4AF04BF
:014A6A002229
:024C6800A9079A
:104C6A00E4FBE930E009E4FD7F01124A2DEFFBE99C
:104C7A0030E10AE4FD7F02124A2DEB4FFBE930E2F4
:0F4C8A000AE4FD7F04124A2DEB4FFBEB20E7D12C
:014C990022F8
:104FA200C2CA7F507E00124E1DD2CA7FA07E00026E
:024FB2004E1D92
:104DBA007F07124C68E4FAEA12495AE4F9E4FB7DE7
:104DCA00017F0712496109E9B440F20AEAB408E727
:014DDA0022B6
:104D2700C2CB124E19124FA27B3E12495D124E1989
:104D37007BC012495D124E19124DBA124E197B3FB4
:094D470012495D124E19D2CB2273
:104A6B007F07124C687B40E4FD7F011249617BBAE2
:104A7B00E4FD7F01124961E4FAE4F97BFF7D017FDC
:104A8B000112496109E9B440F27B40E4FD7F011258
:104A9B004961EA240344B8FBE4FD7F011249610A32
:044AAB00EAB401D593
:014AAF0022E4
:104AB0007F07124C687B40E4FD7F021249617BBA9C
:104AC000E4FD7F02124961E4FAE4F97BFF7D017F96
:104AD0000212496109E9B440F27B40E4FD7F021211
:104AE0004961EA240344B8FBE4FD7F021249610AEC
:044AF000EAB401D54E
:014AF400229F
:103AE800900213EBF0A3EAF0A3E9F0900211EFF0D3
:033AF800A3EDF04B
:103AFB00EF1425E0900211F0ED24FFFFE434FFFEFC
:103B0B00EF7802CEC313CE13D8F9FF7007900218CB
:103B1B0004F08016EFB401089002187402F0800ACA
:103B2B00EFB402069002187404F0900212E01454E1
:103B3B0003C454F0F0FE900218E0FFEE4440FBE4A7
:103B4B00FD124961E0FF900211E044B8FBE4FD1265
:103B5B004961E4900217F0900216E0900218601889
:103B6B00E0FF900213E0FBA3E475F0011219BEA96C
:103B7B00F0FA1218C7F48015E0FF900213E0FBA3D4
:103B8B00E475F0011219BEA9F0FA1218C7FB7D01FA
:103B9B00124961900217E004F0E0C3941040B89012
:103BAB000218E0FF900212E04440FBE4FD12496171
:103BBB00900218E0FF900211E00444B8FBE4FD1200
:103BCB004961E4900217F0900216E0900218601819
:103BDB00E0FF900213E0FBA3E475F0011219BEA9FC
:103BEB00F0FA1218C7F48015E0FF900213E0FBA364
:103BFB00E475F0011219BEA9F0FA1218C7FB7D018A
:0F3C0B00124961900217E004F0E0C3941040B832
:013C1A002287
:1035DC0075F010A4241EF9740735F0FA7BFFE0FF98
:0A35EC00A3E0FD14F0E490022DF0BE
:1035F60090022AEBF0A3EAF0A3E9F0900228EFF09C
:03360600A3EDF041
:10360900EF1425E0900228F0ED24FFFFE434FFFEDB
:10361900EF7803CEC313CE13D8F9FF700790022FAA
:1036290004F08016EFB4010890022F7402F0800AAA
:10363900EFB4020690022F7404F0900229E01454AA
:103649000775F008A4F0FE90022FE0FFEE4440FB5E
:10365900E4FD124961E0FF900228E044B8FBE4FD73
:10366900124961E490022EF090022DE090022F6041
:1036790018E0FF90022AE0FBA3E475F0011219BEDD
:10368900A9F0FA1218C7F48015E0FF90022AE0FBAE
:10369900A3E475F0011219BEA9F0FA1218C7FB7D4F
:1036A9000112496190022EE004F0E0C3940840B889
:1036B90090022FE0FF900229E04440FBE4FD12490B
:1036C9006190022FE0FF900228E00444B8FBE4FD7A
:1036D900124961E490022EF090022DE090022F60D1
:1036E90018E0FF90022AE0FBA3E475F0011219BE6D
:1036F900A9F0FA1218C7F48015E0FF90022AE0FB3E
:10370900A3E475F0011219BEA9F0FA1218C7FB7DDE
:103719000112496190022EE004F0E0C3940840B818
:01372900227D
:1047E700900212EFF0A3EDF0A3EBF0A3EAF0A3E938
:1047F700F0900214E0FBA3E0FAA3E0F91218C760F7
:104807003E75F010A4241EF9740735F0FA7BFF906B
:104817000212E0FFA3E0FD900217E01235F29002CA
:1048270013E004F0E0D3941840097401F0900212E9
:10483700E004F0900215E475F0011219A880B22285
:0834730090020BEFF0A3EDF055
:10347B0078117C027D017BFF7A0079267E007F0A22
:10348B001218A1E490021BF0A37409F0E4A3F0A3BB
:10349B00F0A3121A530000000190020DE0FCA3E010
:1034AB00FDA3E0FEA3E0FFEC33501690021D740168
:1034BB00F090020DA3A3A3E0121A2390020D121A8F
:1034CB004790020DE0FCA3E0FDA3E0FEA3E0FFECC0
:1034DB004D4E4F6074E47B0AFAF9F890020DA3A3EA
:1034EB00A3E0124B39AC00AD01AE02AF0390021F4B
:1034FB00121A4790021FA3A3A3E02430FF90021BD4
:10350B00E0FE04F074112EF582E43402F583EFF043
:10351B0090020DE0FCA3E0FDA3E0FEA3E0FFE47B43
:10352B000AFAF9F8124B3990020D121A4790021B46
:10353B00E06402708CE0FF04F074112FF582E43428
:10354B0002F583742EF00234CC90021BE0D394036B
:10355B00502AE0FF04F074112FF582E43402F58356
:10356B007430F090021BE0B402DFFF04F074112FF3
:10357B00F582E43402F583742EF080CD90021DE0C9
:10358B00601490021BE0FF04F074112FF582E434F9
:10359B0002F583742DF0E490021CF090021BE0FF07
:1035AB00A3E0FEC39F502974112EF582E43402F57B
:1035BB0083E090020B1235DC90020CE0700A900253
:1035CB000BE004F0A37418F090021CE004F080CB25
:0135DB0022CD
:0B31750090020FEFF0A3EDF0A3EBF0D1
:1031800078167C027D017BFF7A0079307E007F0A11
:103190001218A1E4900220F0A37409F0E4A3F0A3B4
:1031A000F0A3121A5300000001900212E0FCA3E009
:1031B000FDA3E0FEA3E0FFEC335016900222740161
:1031C000F0900212A3A3A3E0121A23900212121A83
:1031D00047900211E0606F900211E0FF14F0EFD30E
:1031E000940050030232B4E47B0AFAF9F8A3E0FC3D
:1031F000A3E0FDA3E0FEA3E0FF124B39AC00AD015C
:10320000AE02AF03900224121A47900224A3A3A394
:10321000E02430FF900220E0FE04F074162EF582C8
:10322000E43402F583EFF0900212E0FCA3E0FDA38A
:10323000E0FEA3E0FFE47B0AFAF9F8124B399002B2
:1032400012121A478091900212E0FCA3E0FDA3E065
:10325000FEA3E0FFEC4D4E4F605AE47B0AFAF9F80A
:10326000900212A3A3A3E0124B39AC00AD01AE0251
:10327000AF03900224121A47900224A3A3A3E024D0
:1032800030FF900220E0FE04F074162EF582E43444
:1032900002F583EFF0900212E0FCA3E0FDA3E0FE54
:1032A000A3E0FFE47B0AFAF9F8124B3990021212FC
:1032B0001A478092900222E06014900220E0FF04FE
:1032C000F074162FF582E43402F583742DF0E49047
:1032D0000221F0900220E0FFA3E0FEC39F5029747A
:1032E000162EF582E43402F583E090020F1235DCED
:1032F000900210E0700A90020FE004F0A37418F03E
:08330000900221E004F080CBF3
:0133080022A2
:0A39AA0090020CEDF0AC07A3EBF067
:1039B400E4900218F0EB24FFFFE434FFFEEF7803F9
:1039C400CEC313CE13D8F90490020DF0EC24FFFFFC
:1039D400E434FFFEEF7803CEC313CE13D8F990027C
:1039E40014F090020CE0FF14543F900215F0FDEF28
:1039F40024FFFFE434FFFEEF7806CEC313CE13D8C2
:103A0400F9FF7401A807088002C333D8FCFF9002B1
:103A140016F0900218F0ED4440FBE4FD1249619069
:103A24000214124959E4900212F090020DE0FF9042
:103A34000212E0C39F4003023AE7E4A3F090020EAF
:103A4400E0FF900213E0FEC39F506AEEFF90020C69
:103A5400E02FFFE433CF24FFCF34FFFEEF7806CE10
:103A6400C313CE13D8F975F00384AFF07401A8071B
:103A7400088002C333D8FCFF900217F0A3E06F6004
:103A84000E900217E0FFA3F07B40E4FD1249619021
:103A94000217E0FF90020FE0FBA3E475F001121996
:103AA400BEA9F0FA1218C7FB7D01124961900213F6
:103AB400E004F08088900216E0FF900218F0900273
:103AC40015E04440FBE4FD124961900212E0FF90CE
:103AD4000214E02F54070412495A900212E004F031
:033AE400023A2E75
:013AE70022BC
:0F2DEE0090024DEFF090024FEBF090024EEDF09F
:102DFD00E4900259F0ED14543F900256F0FCED248E
:102E0D00FFFFE434FFFEEF7806CEC313CE13D8F9DF
:102E1D00FF7401A807088002C333D8FCFF90025746
:102E2D00F0900259F0EC4440FBE4FD124961900230
:102E3D004DE01412495A124A26E4900254F09002C1
:102E4D004FE0FF900254E0C39F4003022F1EE4A306
:102E5D00F0900250E0FF900255E0FEC39F40030248
:102E6D002EEEEEFF90024EE02FFFE433CF24FFCF86
:102E7D0034FFFEEF7806CEC313CE13D8F975F003E9
:102E8D0084AFF07401A807088002C333D8FCFF900B
:102E9D000258F0A3E06F600E900258E0FFA3F07BA4
:102EAD0040E4FD124961900258124A29AD07900283
:102EBD0050E0FF900254E08FF0A4FFA3E07A002FC2
:102ECD00FFEA35F0FE900251E0FBA3E0FAA3E0F932
:102EDD008F828E83ED12191F900255E004F0022EA1
:102EED005E900257E0FF900259F0900256E0444088
:102EFD00FBE4FD124961900254E0FF90024DE02F7A
:102F0D00540712495A124A26900254E004F0022E38
:102F1D004B7F07124C68900256E04440FBE4FD7F66
:102F2D000212496190024DE01444B8FBE4FD7F02AA
:102F3D00124961E4900254F090024FE0FF90025468
:102F4D00E0C39F506EE4A3F0900250E0FF90025555
:102F5D00E0FDC39F5031900254E08FF0A47C002D12
:102F6D00FFEC35F0FE900251E0FBA3E0FAA3E0F98F
:102F7D008F828E831218E0FB7D017F0212496190D2
:102F8D000255E004F080C1900256E04440FBE4FDA0
:102F9D007F02124961900254E0FF90024DE02F54E0
:102FAD000744B8FBE4FD7F02124961900254E0042E
:032FBD00F080851C
:012FC00022EE
:071ED700900212EDF0AC07D0
:101EDE00E490021AF0EC24FFFFE434FFFEEF7803E7
:101EEE00CEC313CE13D8F990021BF0EC1454079006
:101EFE00021EF0EC2B145407A3F090021EE0FDFF1F
:101F0E00EB2FFFE433FEEF7803CEC313CE13D8F9D5
:101F1E00FFED2B540760047E0180027E00EE2FFF42
:101F2E0090021DF090021BE02F14A3F0900212E01D
:101F3E00FD14543F900217F0ED24FFFFE434FFFE32
:101F4E00EF7806CEC313CE13D8F9FF7401A8070895
:101F5E008002C333D8FC900218F090021AF090025F
:101F6E001EE0700302202F124945900218124A29D2
:101F7E00E4900215F0900214E0FFA3E0FEC39F4030
:101F8E0003022027EEFF900212E02FFFE433CF244E
:101F9E00FFCF34FFFEEF7806CEC313CE13D8F975FC
:101FAE00F00384900216E5F0F0E0FF7401A8070834
:101FBE008002C333D8FCFF900219F0A3E06F600ECD
:101FCE00900219E0FFA3F07B40E4FD1249619002FC
:101FDE0019124A29900215E0FE2400F582E434001D
:101FEE00F583EFF074002EF582E43400F583C083A0
:101FFE00C082E0FF90021EE0FEC374079EFE747F57
:10200E00A806088003A2E713D8FB5FD082D083F026
:10201E00900215E004F0021F83900218E090021A5D
:10202E00F090021FE07003022100900218E0FF9072
:10203E000217E04440FBE4FD12496190021C124974
:10204E0059900218124A29E4900215F0900214E0F9
:10205E00FFA3E0FEC39F40030220F8EEFF900212A2
:10206E00E02FFFE433CF24FFCF34FFFEEF7806CE10
:10207E00C313CE13D8F975F00384900216E5F0F071
:10208E00E0FF7401A807088002C333D8FCFF90025A
:10209E0019F0A3E06F600E900219E0FFA3F07B40F1
:1020AE00E4FD124961900219124A29900215E0FED0
:1020BE0024C0F582E43400F583EFF074C02EF5826F
:1020CE00E43400F583C083C082E0FF90021FE0FE7F
:1020DE0074FFA806088002C333D8FC5FD082D08379
:1020EE00F0900215E004F002205A900218E09002DF
:1020FE001AF0124945E4FA90021DE0FFEAC39F4030
:10210E000302221CE4900215F0900214E0FFA3E0FB
:10211E00FEC39F40030221F8EEFF900212E02FFF54
:10212E00E433CF24FFCF34FFFEEF7806CEC313CEB9
:10213E0013D8F975F00384900216E5F0F0E0FF7401
:10214E0001A807088002C333D8FCFF900219F0A340
:10215E00E06F600E900219E0FFA3F07B40E4FD12E9
:10216E00496190021EE0F9602EA3E0602A90021DE4
:10217E00E0B40123900219E0FF900215E0FE24C0A6
:10218E00F582E43400F583E0FD74002EF582E4342C
:10219E0000F583E04D8044E96018EA70159002194D
:1021AE00E0FF900215E02400F582E43400F583E0B0
:1021BE00802990021FE0601D90021DE014B50215EB
:1021CE00900219E0FF900215E024C0F582E434007D
:1021DE00F583E08006900219E0FFE4FB7D011249D1
:1021EE0061900215E004F0022117900218E0FF90B2
:1021FE00021AF0900217E04440FBE4FD1249619090
:0E220E00021BE02A54070412495A0A02210555
:01221C00229F
:071B5200900210EDF0AC075A
:101B5900E4900218F090021EF0EC24FFFFE434FF39
:101B6900FEEF7803CEC313CE13D8F9900219F0EC27
:101B790014540790021CF0EC2B145407A3F09002A4
:101B89001CE0FDFFEB2FFFE433FEEF7803CEC31318
:101B9900CE13D8F9FFED2B540760047E0180027E35
:101BA90000EE2FFF90021BF0900219E02F14A3F012
:101BB900900210E0FD14543F900215F0ED24FFFF50
:101BC900E434FFFEEF7806CEC313CE13D8F9FF74C1
:101BD90001A807088002C333D8FC900216F09002CE
:101BE90018F090021CE07003021CC2900216E0FF7C
:101BF900900215E04440FBE4FD124961900219127C
:101C09004959900216124A29E4900213F0900212DF
:101C1900E0FFA3E0FEC39F4003021CBAEEFF90025F
:101C290010E02FFFE433CF24FFCF34FFFEEF780617
:101C3900CEC313CE13D8F975F00384900214E5F0DE
:101C4900F0E0FF7401A807088002C333D8FCFF90B5
:101C59000217F0A3E06F600E900217E0FFA3F07B7C
:101C690040E4FD124961900217124A29900213E0DB
:101C7900FE2400F582E43400F583EFF074002EF5BC
:101C890082E43400F583C083C082E0FF90021CE047
:101C9900FEC374079EFE7480A806088003A2E7139A
:101CA900D8FB4FD082D083F0900213E004F0021CDD
:101CB90016900216E0900218F090021DE0700302DF
:101CC9001DA5900216E0FF900215E04440FBE4FDDB
:101CD90012496190021A124959900216124A29E4CE
:101CE900900213F0900212E0FFA3E0FEC39F4003AD
:101CF900021D9DEEFF900210E02FFFE433CF24FF79
:101D0900CF34FFFEEF7806CEC313CE13D8F975F0A2
:101D19000384900214E5F0F0E0FF7401A80708803D
:101D290002C333D8FCFF900217F0A3E06F600E9056
:101D39000217E0FFA3F07B40E4FD1249619002170E
:101D4900124A29900213E024C0F582E43400F58395
:101D5900EFF01D90021DE0FEEDC39E500AA3E025A1
:101D6900E04401F00D80EC900213E024C0F582E418
:101D79003400F583C083C082E0FF90021EE0FEEFCD
:101D89004ED082D083F0E490021EF0900213E0045A
:101D9900F0021CED900216E0900218F0900216E095
:101DA900FF900215E04440FBE4FD124961900219DD
:101DB900124959E4FA90021BE0FFEAC39F4003026B
:101DC9001ED6E4900213F0900212E0FFA3E0FEC3D6
:101DD9009F4003021EB2EEFF900210E02FFFE43392
:101DE900CF24FFCF34FFFEEF7806CEC313CE13D82E
:101DF900F975F00384900214E5F0F0E0FF7401A88E
:101E090007088002C333D8FCFF900217F0A3E06FE4
:101E1900600E900217E0FFA3F07B40E4FD124961D8
:101E290090021CE0F9602EA3E0602A90021BE0B446
:101E39000123900217E0FF900213E0FE24C0F5820F
:101E4900E43400F583E0FD74002EF582E43400F5F6
:101E590083E05D803CE96018EA7015900217E0FFA5
:101E6900900213E02400F582E43400F583E0802138
:101E790090021DE0601E90021BE014B5021690024C
:101E890017E0FF900213E024C0F582E43400F583E3
:101E9900E0FB8007900217E0FF7BFF7D011249619B
:101EA900900213E004F0021DD0900216E0FF9002A8
:101EB90018F0900215E04440FBE4FD1249619002DC
:0D1EC90019E02A54070412495A0A021DBEEE
:011ED60022E9
:1049DD00A2A282A082A482A182A382C84038124FD3
:1049ED00F2A2A282A082A482A182A382C840242026
:1049FD00A0037F012220A2037F022220A4037F06B1
:104A0D002220A1037F052220C8037F032220A303B8
:094A1D007F04227F00227F0022A9
:104FC500E4F5CF75CDC030030475CED02275CE4043
:014FD50022B9
:0D4FE5008FCFE5CD30E7FB75CDC0AFCF22FB
:104F7B00438920759840758DDC858D8BE4F587D240
:044F8B00ACD28E22F4
:085053008F993099FDC29922EA
:024C3400AE07C9
:104C3600EEC4540FFDC36480948AED500424308082
:104C46000424F62461FF125053EE540FFDC3648012
:104C5600948AED50042430800424F62461FF125017
:014C660053FA
:014C6700222A
:07506200EF2430FF02505360
:104F8F001218C7FF600C125053740129F9E43AFA52
:034F9F0080EE227F
:0D4CCC00900298EBF0A3EAF0A3E9F0AE0728
:104CD900E4FDEDC39E501A900298E0FBA3E0FAA30D
:104CE900E0F98D827583001218E0FF1250530D8090
:014CF900E1D9
:014CFA002297
:03002300024E3654
:064E3600C0E0C083C08251
:0F4E3C0030980CC298C2AF900203E599F0D2AF44
:074E4B00D082D083D0E032D9
:065069000000000000221F
:05000600D2B7D2B622C2
:06000E00124DDB124E0151
:0F001400D2B6D2B7125069C2B6125069C2B72223
:0C502600C2B6D2B7125069D2B60250696F
:064DFB00120014124DDB52
:104E0100D2B712506930B608C2B71250697F00227A
:084E1100C2B71250697F0122B3
:0C503200C2B6D2B7125069C2B702506972
:0C503E00D2B6D2B7125069C2B702506956
:104DDB00E4FEEF30E703D38001C392B6EF25E0FF8B
:0F4DEB00D2B7125069C2B71250690EEEB408E386
:014DFA002296
:104CFB00E4FED2B6FDEE25E0FED2B712506930B617
:104D0B00034401FEC2B71250690DEDB408E7EF6022
:0B4D1B0005125032800312503EAF061C
:014D2600226A
:104EA300124DFBAC07AF05124DDB124E01AF0312DF
:0A4EB3004DDB124E01125026AF0431
:014EBD0022D2
:024ED800AC0725
:104EDA00124DFBAF0512000EEC04FF124DDB124E11
:064EEA0001E4FF124CFB85
:014EF000229F
:1048A200AD07124DFBEF70061250267F01229002D7
:1048B20085E0FF12000EED04FF124DDB124E019057
:1048C2000286E0FF6026B4010BE4FF124CFBEF12FC
:1048D200190D80107F01124CFBEF12190D74012982
:1048E200F9E43AFA900286E014F080D31250267F5F
:0248F2000022A2
:104B7D00124DFBEF7002801E90028BE0FF124DDB99
:104B8D00124E0190028CE060221218C7FF124DDB0D
:104B9D00124E01EF70061250267F0122740129F981
:104BAD00E43AFA90028CE014F080D81250267F007F
:014BBD0022D5
:102B6A0041029300410294004102950041029600FD
:042B7A00410297007D
:0C4FF2007FB27E787D0CDDFEDEFADFF67B
:014FFE002290
:0C4FFF007FB27EE67D0CDDFEDEFADFF600
:01500B002282
:0C500C007FD97EAB7D49DDFEDEFADFF6C9
:015018002275
:104C9A00EF24FE601214601714601C240370209025
:104CAA000293E05401FF22900293E05402FF229003
:104CBA000293E05404FF22900293E05408FF227FFB
:024CCA000022C6
:10484700EF24FE601D14602D14603D2403704B900F
:104857000293E054FEF090020CA3A3A3E09002940D
:10486700F022900293E054FDF090020CA3A3A3E082
:10487700900295F022900293E054FBF090020CA373
:10488700A3A3E0900296F022900293E054F7F090F1
:0B489700020CA3A3A3E0900297F02204
:104AF500900294E0600414F08007900293E0440172
:104B0500F0900295E0600414F08007900293E04471
:104B150002F0900296E0600414F08007900293E0A2
:104B25004404F0900297E0600314F022900293E0B1
:044B35004408F0221E
:10465500454550524F4D20736563746F7231206824
:10466500617320646174612E0D0A00454550524FF7
:104675004D20736563746F723120697320636C65B7
:10468500616E2E0D0A00454550524F4D20736563EE
:10469500746F72322068616520646174612E0D0A41
:1046A50000454550524F4D20736563746F7232203B
:0C46B500697320636C65616E2E0D0A00B5
:0D501900E4F5C7F5C5F5C675C380F5C422E2
:104EF10075C78375C5018FC4EEF5C375C65A75C6EE
:084F0100A50000AFC212501917
:014F09002285
:104EBE0075C78375C5028FC4EEF5C3AF058FC27576
:0A4ECE00C65A75C6A500000250196F
:104F510075C78375C5038FC4EEF5C375C65A75C68B
:064F6100A500000250193A
:10438000E490020BF0A3F0E4900209F0A3F0900295
:1043900009E0FEA3E0FFC3EE94025028124EF1EFB5
:1043A000F460117BFF7A467955124F8F90020BE42F
:1043B000F0A304F090020AE004F070D2900209E049
:1043C00004F080CA90020BE07002A3E070B97BFF9A
:1043D0007A467970124F8FE4900209F0A3F09002B0
:1043E00009E0FEA3E0FFC3EE9402502FE42FFFEE9E
:1043F0003402FE124EF1EFF460117BFF7A46798BA6
:10440000124F8F90020BE4F0A304F090020AE00434
:10441000F070CB900209E004F080C390020BE070D2
:0E44200002A3E070B27BFF7A4679A6024F8FAE
:102B7E004C02410000000000000000000000004C6C
:102B8E0002330000000000000000000000004102BF
:0C2B9E003F004102400043023001025A97
:01507E00220F
:01507F00220E
:103D1C00900243E0FE6410706CA3E07068A3E0FFB7
:103D2C00900230E0FBA3E0FAA3E0F9EF12190D903A
:103D3C000246E0FF900230E0FBA3E0FAA3E0F9902A
:103D4C000001EF12191F900247E090000212191F98
:103D5C00900248E090000312191F900249E0900075
:103D6C000412191F90024AE090000512191F9002CC
:103D7C004BE090000612191F90024CE090000712C5
:103D8C00191F7F0122EE6411706E900244E070687E
:103D9C00A3E0FF900230E0FBA3E0FAA3E0F9EF12FE
:103DAC00190D900246E0FF900230E0FBA3E0FAA36D
:103DBC00E0F9900001EF12191F900247E090000209
:103DCC0012191F900248E090000312191F9002492B
:103DDC00E090000412191F90024AE090000512199D
:103DEC001F90024BE090000612191F90024CE090BD
:0B3DFC00000712191F7F02227F002227
:0F4FD60041444320646174613A0D0A000D0A00E2
:102BAA0048025A616162626363000044026222B8A9
:022BBA0022B83F
:1048F40090025AE0FEA3E0FDEDFF900262EEF0A309
:10490400EFF090025CE0FEA3E0FDEDFF900264EEA8
:10491400F0A3EFF0D3900263E09488900262E094F5
:104924001340077422F0A374B8F0D3900265E094A6
:1049340088900264E0941340077422F0A374B8F0E2
:014944002250
:1049930090025EE0FEA3E0FDEDFBAA06E4FEFDFC53
:1049A300C39DF582EE9CF5837D64AF03AE021219BD
:1049B30041AD82AC831219537BFF7A4F79D6124FE4
:1049C3008F90025EE0FF124C3490025FE0FF124CC6
:0A49D300347BFF7A4F79E2024F8F28
:1042C800300031003200330034003500360037004A
:1042D800380039003A0020002A0021002E00484FFB
:1042E8004D450043002500000000000000000000CC
:1042F80000000000000000000000000000000000B6
:1043080000000000000000000000000000000000A5
:104318000000000000000000000000000000000095
:104328000000000000000000000000000000000085
:104338000000000000000000000000000000000075
:104348000000000000000000000000000000000065
:104358000000000000000000000000000000000055
:1043680000000000000000000000F0FFF0001CFF4B
:08437800FFFF1C00FFFFFF0026
:102BBC0041027F00C1014102800044027B0001E21E
:0F2BCC0040C100410278004102790041027A00C5
:05472400900180EFF0A0
:1047290078817C017D017BFF7A4279EF7E007F826F
:104739001218A1900180E0602FB20030001B900296
:104749000E7405F0A374FFF0A37443F0A37471F021
:104759007B187D377F110239AA9002147405F07B0A
:10476900187D377F11021ED730001190021474058D
:0C477900F07B187D377F11121ED7C200A4
:014785002211
:10372A00900211EFF07BFF7A4279C8700690021777
:10373A00048004E4900217F07D037F041247E790A7
:10374A000211E07BFF7A4279CAB40107900217742A
:10375A00018004E4900217F07D057F041247E79088
:10376A000211E07BFF7A4279CCB402079002177407
:10377A00018004E4900217F07D077F041247E79066
:10378A000211E07BFF7A4279CEB4030790021774E4
:10379A00018004E4900217F07D097F041247E79044
:1037AA000211E07BFF7A4279D0B4040790021774C1
:1037BA00018004E4900217F07D0B7F041247E79022
:1037CA000211E07BFF7A4279D2B40507900217749E
:1037DA00018004E4900217F07D0D7F041247E79000
:1037EA000211E07BFF7A4279D4B40607900217747B
:1037FA00018004E4900217F07D0F7F041247E790DE
:10380A000211E07BFF7A4279D6B407079002177457
:10381A00018004E4900217F07D117F041247E790BB
:10382A000211E07BFF7A4279D8B408079002177434
:10383A00018004E4900217F07D137F041247E79099
:10384A000211E07BFF7A4279DAB409079002177411
:10385A00018004E4900217F07D157F041247E722E5
:10221D00E490020AF0A37406F0A314F0A3121A536B
:10222D0000000000900280E070037F0122124DBA81
:10223D007BFF7A0579DAE4900216F07D047F0112B6
:10224D003AE87BFF7A0579FAE4900216F07D057F76
:10225D0001123AE87BFF7A06791AE4900216F07DB6
:10226D00067F01123AE87BFF7A06793AE49002166E
:10227D00F07D077F01123AE87BFF7A06795AE490E8
:10228D000216F07D087F01123AE87BFF7A4279DC75
:10229D00E4900217F07D117F011247E77BFF7A4230
:1022AD0079C89002177401F07D037F041247E77B14
:1022BD00FF7A4279CAE4900217F07D057F04124738
:1022CD00E77BFF7A4279CCE4900217F07D077F041B
:1022DD001247E77BFF7A4279CEE4900217F07D0931
:1022ED007F041247E77BFF7A4279D0E4900217F022
:1022FD007D0B7F041247E77BFF7A4279D2E490028F
:10230D0017F07D0D7F041247E77BFF7A4279D4E405
:10231D00900217F07D0F7F041247E77BFF7A427919
:10232D00D6E4900217F07D117F041247E77BFF7A08
:10233D004279D8E4900217F07D137F041247E77BB2
:10234D00FF7A4279DAE4900217F07D157F040224BA
:10235D00811249DD900209EFF060F6E0FEB401074D
:10236D00E490027FF0FF22EE6403704F90020BE0C9
:10237D00FF04F0D3EF648094865038E025E0FFC36E
:10238D0074139FFD7BFF7A4279DEE4900217F07F94
:10239D00021247E790020DE0FCA3E0FDA3E0FEA3CF
:1023AD00E0FFE47B0AFAF9F8124B3990020D121A8C
:1023BD0047802090020B7406F08018900209E0FF10
:1023CD00B40506A3E014F0800AEFB4060690020AE5
:1023DD00E004F090020AE0FFD3648094894004E4A5
:1023ED00F0800EC3EF64809480500690020A740949
:1023FD00F090020AE0FF12372A900209E0640260B1
:10240D000302235E90020BE0FF14F0D3EF6480947F
:10241D0080406790020DE0FCA3E0FDA3E0FEA3E089
:10242D00FFE47B0AFAF9F81219D490020D121A473B
:10243D0090020DE0F8A3E0F9A3E0FAA3E0FB90020F
:10244D000AE0FF3395E0FEFDFCEB2FFFEA3EFEE9CF
:10245D003DFDE83CFC90020D121A4790020BE02561
:10246D00E0FFC374119FFD7BFF7A4279E0E4900297
:10247D0017F07F021247E702235E90027BE0FCA378
:10248D00E0FDA3E0FEA3E0FF90020DE0F8A3E0F96C
:10249D00A3E0FAA3E0FBC3121A31700990027F7416
:1024AD0002F07F012290021474C0F07B107D017F39
:1024BD0011121ED77BFF7A06793AE4900216F07D51
:1024CD00057F02123AE87BFF7A06795AE4900216EC
:1024DD00F07D067F02123AE87BFF7A06797AE49066
:1024ED000216F07D077F02123AE87BFF7A06799A91
:1024FD00E4900216F07D087F02123AE87BFF7A42E3
:10250D0079E2E4900217F07D117F021247E7125035
:10251D000C90021474C0F07B107D017F11121ED738
:10252D0090020B7406F090020D121A530000000079
:0C253D0090020CE014F0600302235EFF2B
:01254900226F
:080ECE0090020AE0FFA3E0FD21
:100ED60090020CEFF0ED6003124DBA90020CE0FFA9
:100EE600C36480948540030213CAEF64017BFF7AD2
:100EF6004279CA706390021704F0FDFF1247E77B40
:100F0600FF7A4279E49002177401F07D02FF1247DE
:100F1600E77BFF7A04797A9002167401F07D02FF6E
:100F2600123AE87BFF7A04799A9002167401F07DF2
:100F360003FF123AE87BFF7A03799A90021674014E
:100F4600F07D04FF123AE87BFF7A0379BA90021625
:100F56007401F07D05FF8063E4900217F07D017F48
:100F6600011247E77BFF7A4279E4E4900217F07DAD
:100F7600027F011247E77BFF7A04797AE490021632
:100F8600F07D027F01123AE87BFF7A04799AE490B9
:100F96000216F07D037F01123AE87BFF7A03799A05
:100FA600E4900216F07D047F01123AE87BFF7A0393
:100FB60079BAE4900216F07D057F01123AE89002B4
:100FC6000CE064027BFF7A4279CC600302108690C3
:100FD600021704F0FD7F021247E77BFF7A4279E4AD
:100FE6009002177401F07D027F021247E77BFF7AB9
:100FF6000179DA9002167401F07D027F02123AE856
:101006007BFF7A0179FA9002167401F07D037F0264
:10101600123AE87BFF7A0679BA9002167401F07DDF
:10102600047F02123AE87BFF7A0079BA90021674BE
:1010360001F07D057F02123AE87BFF7A0079BA90CB
:1010460002167401F07D067F02123AE87BFF7A00F1
:1010560079DA9002167401F07D077F02123AE87B76
:10106600FF7A03799A9002167401F07D087F0212C6
:101076003AE87BFF7A0379BA900216740102112CC2
:10108600E4900217F07D017F021247E77BFF7A4268
:1010960079E4E4900217F07D027F021247E77BFFB6
:1010A6007A0179DAE4900216F07D027F02123AE8BC
:1010B6007BFF7A0179FAE4900216F07D037F021233
:1010C6003AE87BFF7A0679BAE4900216F07D047F4F
:1010D60002123AE87BFF7A0079BAE4900216F07DB4
:1010E600057F02123AE87BFF7A0079BAE49002168D
:1010F600F07D067F02123AE87BFF7A0079DAE49007
:101106000216F07D077F02123AE87BFF7A03799A8E
:10111600E4900216F07D087F02123AE87BFF7A031C
:1011260079BAE4900216F07D097F02123AE890023D
:101136000CE064037BFF7A4279CE60030211F690DD
:10114600021704F0FD7F031247E77BFF7A4279E43A
:101156009002177401F07D027F031247E77BFF7A46
:101166000179DA9002167401F07D027F03123AE8E3
:101176007BFF7A0179FA9002167401F07D037F03F2
:10118600123AE87BFF7A07793A9002167401F07DED
:10119600047F03123AE87BFF7A0079BA900216744C
:1011A60001F07D057F03123AE87BFF7A0079BA9059
:1011B60002167401F07D067F03123AE87BFF7A007F
:1011C60079DA9002167401F07D077F03123AE87B04
:1011D600FF7A03799A9002167401F07D087F031254
:1011E6003AE87BFF7A0379BA900216740102129CE0
:1011F600E4900217F07D017F031247E77BFF7A42F6
:1012060079E4E4900217F07D027F031247E77BFF43
:101216007A0179DAE4900216F07D027F03123AE849
:101226007BFF7A0179FAE4900216F07D037F0312C0
:101236003AE87BFF7A07793AE4900216F07D047F5C
:1012460003123AE87BFF7A0079BAE4900216F07D41
:10125600057F03123AE87BFF7A0079BAE49002161A
:10126600F07D067F03123AE87BFF7A0079DAE49094
:101276000216F07D077F03123AE87BFF7A03799A1C
:10128600E4900216F07D087F03123AE87BFF7A03AA
:1012960079BAE4900216F07D097F03123AE89002CB
:1012A6000CE064047BFF7A4279D06003021340901D
:1012B600021704F0FD7F041247E77BFF7A4279E4C8
:1012C6009002177401F07D027F041247E77BFF7AD4
:1012D6000179BA9002167401F07D027F04123AE891
:1012E6007BFF7A0479FA9002167401F07D037F047D
:1012F600123AE87BFF7A0079FA9002167401F07DC3
:10130600047F04123AE87BFF7A01791A9002167478
:1013160001F07D057F04123AE87BFF7A03799A9003
:1013260002167401F07D067F04123AE87BFF7A0309
:1013360079BA90021674010213C2E4900217F07D86
:10134600017F041247E77BFF7A4279E4E4900217B3
:10135600F07D027F041247E77BFF7A0179BAE490B9
:101366000216F07D027F04123AE87BFF7A0479FACE
:10137600E4900216F07D037F04123AE87BFF7A00C0
:1013860079FAE4900216F07D047F04123AE87BFFB6
:101396007A01791AE4900216F07D057F04123AE884
:1013A6007BFF7A03799AE4900216F07D067F041299
:1013B6003AE87BFF7A0379BAE4900216F07D077F5C
:1013C6000402157690020CE064057BFF7A4279D21E
:1013D600706390021704F0FDFF1247E77BFF7A4225
:1013E60079E49002177401F07D02FF1247E77BFF54
:1013F6007A06793A9002167401F07D02FF123AE8F5
:101406007BFF7A06795A9002167401F07D03FF126B
:101416003AE87BFF7A03799A9002167401F07D040C
:10142600FF123AE87BFF7A0379BA9002167401F04C
:101436007D05FF8063E4900217F07D017F0112476E
:10144600E77BFF7A4279E4E4900217F07D027F01A0
:101456001247E77BFF7A06793AE4900216F07D029E
:101466007F01123AE87BFF7A06795AE4900216F079
:101476007D037F01123AE87BFF7A03799AE49002B2
:1014860016F07D047F01123AE87BFF7A0379BAE40D
:10149600900216F07D057F01123AE890020CE06496
:1014A600067BFF7A4279D4706490021704F0FD7FC0
:1014B600021247E77BFF7A4279E49002177401F043
:1014C6007D027F021247E77BFF7A07795A90021660
:1014D6007401F07D027F02123AE87BFF7A07797A7F
:1014E6009002167401F07D037F02123AE87BFF7AC0
:1014F60003799A9002167401F07D047F02123AE88D
:101506007BFF7A0379BA9002167401805EE490023A
:1015160017F07D017F021247E77BFF7A4279E4E408
:10152600900217F07D027F021247E77BFF7A077968
:101536005AE4900216F07D027F02123AE87BFF7AA7
:1015460007797AE4900216F07D037F02123AE87B6F
:10155600FF7A03799AE4900216F07D047F02123A2C
:10156600E87BFF7A0379BAE4900216F07D057F02E4
:04157600123AE8221B
:10442E0090020A7401F0E4A3F0124DBA120ECE12ED
:10443E0049DD900209EFF060F6E0FF64016004EFE1
:10444E00B40507E490027FF0FF22900209E0FFB46A
:10445E00031EA3E014F0E0FEC36480948150067442
:10446E0006F0A3802CEEB4040590020B8023802668
:10447E00EFB4042790020AE004F0E0FFD3648094C6
:10448E008640077401F0A3F08011EFB40508900286
:10449E000B7401F08005E490020BF0120ECE900228
:1044AE0009E0FF64026005EF6406708390020AE083
:0144BE00FFFE
:0144BF0022DA
:1033090090020BEFF07BFF7A04797AE4900216F0D1
:103319007D047F01123AE87BFF7A04799AE49002EE
:1033290016F07D057F01123AE87BFF7A03799AE46A
:10333900900216F07D067F01123AE87BFF7A037945
:10334900BAE4900216F07D077F01123AE890020B69
:10335900E064017BFF7A4279CA703E90021704F05B
:10336900FD7F021247E77BFF7A4279E490021774E6
:1033790001F07D027F021247E77BFF7A0179DA903B
:1033890002167401F07D027F02123AE87BFF7A018E
:1033990079FA9002167401803AE4900217F07D01DF
:1033A9007F021247E77BFF7A4279E4E4900217F043
:1033B9007D027F021247E77BFF7A0179DAE4900206
:1033C90016F07D027F02123AE87BFF7A0179FAE46E
:1033D900900216F07D037F02123AE890020BE06436
:1033E900027BFF7A4279CC703E90021704F0FD7F90
:1033F900031247E77BFF7A4279E49002177401F0E0
:103409007D027F031247E77BFF7A0479BA9002169F
:103419007401F07D027F03123AE87BFF7A0179FAA1
:103429009002167401803AE4900217F07D017F033F
:103439001247E77BFF7A4279E4E4900217F07D02B4
:103449007F031247E77BFF7A0479BAE4900216F00A
:103459007D027F03123AE87BFF7A0179FAE4900250
:0A34690016F07D037F03123AE822FB
:1046C10090020A7401F0124DBA90020AE0FF12330F
:1046D100091249DD900209EFF060F6E0FFB401062E
:1046E100E490027FF022EFB4031390020AE014F089
:1046F100E0C364809481501B7402F080169002091B
:10470100E0B4040FA3E004F0E0D36480948240039A
:104711007401F090020AE0FF123309900209E0B43B
:0347210002AF22C2
:01508000220D
:104F0A00900264E0FEA3E0FFE4FCFD90020D121A99
:084F1A00477D167F010234738C
:104F2200900262E0FEA3E0FFE4FCFD90020D121A83
:084F3200477D0E7F0402347379
:103C1B00EF24FE604A046003023CC07BFF7A037909
:103C2B001AE4900216F07D027F04123AE87BFF7AC9
:103C3B0003793AE4900216F07D037F04123AE87B95
:103C4B00FF7A03799A9002167401F07D067F0412B5
:103C5B003AE87BFF7A0379BA900216740180427BB3
:103C6B00FF7A03791A9002167401F07D027F041219
:103C7B003AE87BFF7A03793A9002167401F07D03E0
:103C8B007F04123AE87BFF7A03799AE4900216F0EC
:103C9B007D067F04123AE87BFF7A0379BAE490023F
:103CAB0016F07D077F04123AE87BFF7A4279E6E44F
:103CBB0090021780537BFF7A03791AE4900216F077
:103CCB007D027F04123AE87BFF7A03793AE4900293
:103CDB0016F07D037F04123AE87BFF7A03799AE4AE
:103CEB00900216F07D067F04123AE87BFF7A037987
:103CFB00BAE4900216F07D077F04123AE87BFF7A54
:103D0B004279E69002177401F07D137F041247E7A6
:013D1B002285
:053E0700900209EFF03C
:103E0C00E4A3F0300108124DBA122FC1803E90028B
:103E1C0009E0FFB40506A3E004F0800AEFB406063F
:103E2C0090020AE014F090020AE0FFD364809482BE
:103E3C004004E4F0800EC3EF64809480500690023E
:103E4C000A7402F090020AE0FF123C1B90020C1262
:103E5C001A530000000A7F011248471249DD9002F4
:103E6C0009EFF0606890020C121A530000000A7FF0
:103E7C0001124847900209E0FEB4020C90027F74D4
:103E8C0001F090020AE0FF22EEB401037F002290C1
:103E9C000209E0FFB40506A3E004F0800AEFB406C3
:103EAC000690020AE014F090020AE0FFD3648094BA
:103EBC00824004E4F0800EC3EF648094805006903E
:103ECC00020A7402F090020AE0FF123C1B7F0112FE
:073EDC004C9AEF60867F00A5
:013EE30022BC
:102FC100C20190020E743EF0A374FFF0A37407F0E7
:102FD100A374AAF07B2D7D017F011239AA7BFF7AB0
:102FE10000793AE4900216F07D057F01123AE87B00
:102FF100FF7A00795AE4900216F07D067F01123AB9
:10300100E87BFF7A0079BAE4900216F07D077F0130
:10301100123AE87BFF7A00797AE4900216F07D0893
:103021007F01123AE87BFF7A4279DCE4900217F0E3
:103031007D117F011247E7124F0A7BFF7A07799AC8
:10304100E490022DF07D177F011235F67BFF7A4265
:1030510079EBE4900217F07D187F011247E77BFFBF
:103061007A02799AE4900216F07D057F02123AE81D
:103071007BFF7A0279BAE4900216F07D067F021294
:103081003AE87BFF7A4279DCE4900217F07D0D7F0C
:10309100021247E77BFF7A0279DAE4900216F07DAB
:1030A1000A7F02123AE87BFF7A0279FAE49002166B
:1030B100F07D0B7F02123AE87BFF7A04797AE49083
:1030C1000216F07D057F03123AE87BFF7A04799AB4
:1030D100E4900216F07D067F03123AE87BFF7A4204
:1030E10079DCE4900217F07D0D7F031247E77BFF47
:1030F1007A0179DAE4900216F07D0A7F03123AE848
:103101007BFF7A0179FAE4900216F07D0B7F0312BE
:103111003AE87BFF7A03791AE4900216F07D027F88
:1031210004123AE87BFF7A03793AE4900216F07DC3
:10313100037F04123AE87BFF7A03799AE49002163E
:10314100F07D067F04123AE87BFF7A0379BAE490B6
:103151000216F07D077F04123AE87BFF7A4279E696
:103161009002177401F07D137F041247E77D017F00
:043171003702254AB2
:10279E00D2017BFF7A0079BAE4900216F07D037FB6
:1027AE0001123AE87BFF7A0079DAE4900216F07DA6
:1027BE00047F01123AE87BFF7A0179DAE49002167F
:1027CE00F07D057F01123AE87BFF7A0179FAE490F9
:1027DE000216F07D067F01123AE87BFF7A02791A23
:1027EE00E4900216F07D077F01123AE87BFF7A0231
:1027FE00793AE4900216F07D087F01123AE87BFFE9
:10280E007A02795AE4900216F07D097F01123AE8B5
:10281E007BFF7A02797AE4900216F07D0A7F01122C
:10282E003AE8900275E0FEA3E0FFE4FCFD90021290
:10283E00121A477B047D0A7F021231757BFF7A01E3
:10284E00797AE4900216F07D067F02123AE8900241
:10285E0074E0FFE4FCFDFE900212121A477B027D2B
:10286E000E7F021231757BFF7A01799AE49002167F
:10287E00F07D087F02123AE8900272E0FFE4FCFD60
:10288E00FE900212121A477B027D127F02123175E0
:10289E007BFF7A0179BAE4900216F07D0A7F02126C
:1028AE003AE8900271E0FFE4FCFDFE900212121A6B
:1028BE00477B027D067F031231757BFF7A4279DCFE
:1028CE00E4900217F07D077F031247E7900270E055
:1028DE00FFE4FCFDFE900212121A477B027D097F77
:1028EE00031231757BFF7A4279DCE4900217F07D9A
:1028FE000A7F031247E790026FE0FFE4FCFDFE90B3
:10290E000212121A477B027D0C7F031231757BFF78
:10291E007A0479DAE4900216F07D087F03123AE821
:10292E007BFF7A0479FAE4900216F07D097F031298
:10293E003AE8900273E014B4070050659029587578
:10294E00F003A4C58325F0C5837302296D02297592
:10295E0002297D02298502298D02299502299D7B56
:10296E00FF7A05791A802E7BFF7A05793A80267BCD
:10297E00FF7A05795A801E7BFF7A05797A80167B5D
:10298E00FF7A05799A800E7BFF7A0579BA80067BED
:10299E00FF7A04795AE4900216F07D0A7F03123A08
:1029AE00E8124F227BFF7A07799AE490022DF07D90
:1029BE000F7F041235F67BFF7A4279EBE490021713
:0829CE00F07D107F040247E7D1
:0A254A0090020CEDF090020BEFF090
:10255400E490020DF0AC07EC12171C7BF67A287994
:102564001C7840121675E4FBFA7980783F121581C5
:1025740012175090020CE06005E4900279F090028A
:1025840079E0FEC3EF9E900278F0C364809480509B
:102594000D90020D7401F0900278E0F404F0E490E0
:1025A400020EF0900278E0FF3395E0FE90020EE018
:1025B400C39FEE6480F8748098400302274390021E
:1025C4000DE0FF9002796005E014F08003E004F070
:1025D400900279E024FE604A14606B1470030226B2
:1025E4006E24DE70030226921470030226B5147062
:1025F400030226D71470030226F924286003022755
:1026040007EF600F900214742BF07B017D057F2A85
:102614000227219002127429F07B017D067F2B0290
:10262400273790020DE0600F900214742DF07B01A7
:102634007D047F29022721900212742BF07B017DF7
:10264400057F2A02273790020DE0600F9002147470
:102654002DF07B017D047F28022721900212742D26
:10266400F07B017D047F2902273790020DE0600F83
:10267400900214742FF07B017D037F2702272190A1
:102684000212742DF07B017D047F2802273790020B
:102694000DE0600E900214742DF07B017D047F0523
:1026A400807B900212742DF07B017D047F0602274B
:1026B4003790020DE0600E900214742BF07B017DC4
:1026C400057F048058900212742DF07B017D047FF5
:1026D40005806090020DE0600E9002147429F07B76
:1026E400017D067F038036900212742BF07B017DFE
:1026F400057F04803E9002127429F07B017D067FE1
:1027040003803090020DE09002796016E0FFC374FC
:102714002B9FFF900214742FF07B017D03121ED7B0
:102724008014E0FFC3742C9FFF900212742FF07B7F
:10273400017D03121B5290020EE004F00225A790C3
:10274400020BE0FF3395E0FEFDFC900212121A47E3
:10275400E4FB7D047F021231757BFF7A4279EDE45C
:10276400900217F07D057F021247E790020BE0FF0D
:10277400B4631E90027AE0FEC3EF9EC3648094802B
:10278400500F9002127408F07B107D097F11121B08
:092794005290020BE090027AF071
:01279D002219
:104F3A0076616C6964206461746120726563656975
:074F4A007665642E0D0A00DC
:0D2BDB0041029200C10244028E616263005B
:05507500D288D2A82240
:06506F00758F10D2A9228A
:10386A00E4900208F012500C438E40124F7B124330
:10387A008012507512506FD203124FC512000612F1
:10388A00507A124D2712500C12504A12420A124E06
:10389A006DC289C28BC299D2AF90020C121A530020
:1038AA000000057F02124847122FC11249DDEF605E
:1038BA003FC2CB123E07EF24FE602304702312227C
:1038CA001DEF600812442E900207EFF0900207E005
:1038DA001470031246C1124DBA122FC1800312503E
:1038EA008090020C121A530000000A7F0212484705
:1038FA00900292E054F1F0309304E0F08028309482
:10390A000C200209900292E04402F0801930940CD3
:10391A00300209900292E04406F0800A209407904F
:10392A000292E04404F0900292E0540E7F02124C9C
:10393A009AEF70030238B5D2CB3001469002357443
:10394A0010F0E4A3F09002337455F0A374AAF07B4C
:10395A00017A0279337F0C12478690023FE06017A2
:10396A00E4F0123D1CBF020F7BFF7A4F793A124FE7
:10397A008F1249931248F4124DBA124FF2122FC104
:10398A00800C124088124DBA124FF212279E9002F2
:10399A000C121A530000000A7F021248470238B577
:1045D90090029DEEF0A3EFF07C277D101219531283
:1045E900506290029DE0FEA3E0FF7C037DE8121972
:1045F900537C007D0A121953AF0512506290029D37
:10460900E0FEA3E0FF7C007D641219537C007D0A63
:10461900121953AF051250627F2E12505390029D0A
:10462900E0FEA3E0FF7C007D0A1219537C007D0A9D
:10463900121953AF0512506290029DE0FEA3E0FFEC
:0C4649007C007D0A121953AF050250627C
:03000300024BBEEF
:104BBE00C0E0C0F0C083C082C0D075D000C000C0BD
:104BCE0001C002C003C004C005C006C0071244C025
:104BDE00D007D006D005D004D003D002D001D0002B
:0B4BEE00D0D0D082D083D0F0D0E032D5
:03000B00024BF9AC
:104BF900C0E0C0F0C083C082C0D075D000C000C082
:104C090001C002C003C004C005C006C007124AF5AE
:104C1900D007D006D005D004D003D002D001D000EF
:0B4C2900D0D0D082D083D0F0D0E03299
:10157A000217BCE86480F8E933E83360110460F0CC
:10158A00ED33EC337009E8FCE9FDEAFEEBFF2204D7
:10159A0060DED3EB9FEA9EE99DE8C2E78CF0C2F7D2
:1015AA0095F0400CE8CCF8E9CDF9EACEFAEBCFFB9E
:1015BA0012178785D0F05804700320D5B3E8047059
:1015CA00075002B2D50217C692D5EC0460F7E4CCF4
:1015DA00C0E0C398F8603B94186008400DD0E0FB67
:1015EA0002179EE4FBFAC9FC8028E830E406E4C945
:1015FA00FBE4CAFCE830E305E4C9CACBFCE85407BB
:10160A006010F8C3E913F9EA13FAEB13FBEC13FCC5
:10161A00D8F130F52FC3E49CFCEF9BFFEE9AFEED68
:10162A0099FDD0E0FBEF4E4D4C701222DB030217FE
:10163A00C3EC2CFCEF33FFEE33FEED33FDED30E768
:10164A00EB02179EEF2BFFEE3AFEED39FDD0E0FBE1
:10165A0050130BBB00030217C6ED13FDEE13FEEF8A
:08166A0013FFEC13FC02179EB4
:101672000217C6EC5D046005E8590470030217BC4A
:10168200121787580460F6EC4860F2EC7004FDFE15
:10169200FF22C860DB2481C85009C398600250064B
:1016A2000217C39850CAF582E9294B4A7005AB82EA
:1016B2000217B275F0007C1A7880C3EF9BEE9AEDA8
:1016C20099400DC3EF9BFFEE9AFEED99FDE842F0C3
:1016D200DC23ACF0D0E0FFD0E0FED0E0FDAB822016
:1016E200E7101BEB60BAEC2CFCEF33FFEE33FEEDA0
:1016F20033FD02179EE803F830E705C0F075F000ED
:10170200EF2FFFEE33FEED33FD40B830E7C280AA83
:1017120075F020800E75F010800575F0087D007E52
:10172200007F003392D530D503121A23EC334010D8
:10173200EF33FFEE33FEED33FDEC33FCD5F0ED225B
:0E174200E5F0247EA2D513CC92E7CDCEFF2297
:10175000EDD2E7CD33EC3392D524814006E4FFFE91
:10176000FDFC22FCE4CFCECDCC24E0501174FF80F0
:10177000EDC3CC13CCCD13CDCE13CECF13CF04708D
:07178000F030D5DE021A2350
:10178700E9D2E7C933E833F892D5EDD2E7CD33ECA8
:0717970033FC5002B2D52221
:10179E00EC30E7100FBF000C0EBE00080DBD0004AC
:1017AE000BEB6014A2D5EB13FCED92E7FD2274FF58
:1017BE00FCFDFEFF22E480F8A2D574FF13FC7D80B1
:0317CE00E480EFC5
:0300000002454D69
:0C454D00787FE4F6D8FD758120024594CB
:1017D100E709F608DFFA8046E709F208DFFA803EFA
:1017E10088828C83E709F0A3DFFA8032E309F608E7
:1017F100DFFA8078E309F208DFFA807088828C834F
:10180100E309F0A3DFFA806489828A83E0A3F60802
:10181100DFFA805889828A83E0A3F208DFFA804CDC
:1018210080D280FA80C680D4806980F280338010B3
:1018310080A680EA809A80A880DA80E280CA80331C
:1018410089828A83ECFAE493A3C8C582C8CCC58394
:10185100CCF0A3C8C582C8CCC583CCDFE9DEE78064
:101861000D89828A83E493A3F608DFF9ECFAA9F0E3
:10187100EDFB2289828A83ECFAE0A3C8C582C8CC39
:10188100C583CCF0A3C8C582C8CCC583CCDFEADE52
:10189100E880DB89828A83E493A3F208DFF980CCB4
:1018A10088F0EF60010E4E60C388F0ED2402B404AD
:1018B1000050B9F582EB2402B4040050AF23234554
:0618C10082239018217340
:1018C700BB010689828A83E0225002E722BBFE021F
:0918D700E32289828A83E4932252
:1018E000BB010CE58229F582E5833AF583E02250BD
:1018F00006E92582F8E622BBFE06E92582F8E22207
:0D190000E58229F582E5833AF583E4932220
:10190D00BB010689828A83F0225002F722BBFE01B9
:02191D00F322B3
:10191F00F8BB010DE58229F582E5833AF583E8F0FE
:10192F00225006E92582C8F622BBFE05E92582C8AA
:02193F00F22292
:10194100EF8DF0A4A8F0CF8CF0A428CE8DF0A42EBA
:02195100FE2274
:10195300BC000BBE0029EF8DF084FFADF022E4CC78
:10196300F875F008EF2FFFEE33FEEC33FCEE9DEC41
:10197300984005FCEE9DFE0FD5F0E9E4CEFD22ED87
:10198300F8F5F0EE8420D21CFEADF075F008EF2FD1
:10199300FFED33FD4007985006D5F0F222C398FDC2
:0519A3000FD5F0EA225F
:1019A800C5F0F8A3E028F0C5F0F8E58215827002CA
:0619B8001583E038F02267
:1019BE00A3F8E0C5F025F0F0E582158270021583DC
:0619CE00E0C838F0E82239
:1019D400E88FF0A4CC8BF0A42CFCE98EF0A42CFCB2
:1019E4008AF0EDA42CFCEA8EF0A4CDA8F08BF0A430
:1019F4002DCC3825F0FDE98FF0A42CCD35F0FCEB8F
:101A04008EF0A4FEA9F0EB8FF0A4CFC5F02ECD3953
:0F1A1400FEE43CFCEAA42DCE35F0FDE43CFC22C0
:104B3900C2D5E830E70FB2D5E4C39BFBE49AFAE4A7
:104B490099F9E498F8EC30E717B2D5124B6F121ABD
:104B5900C0E4C39BFBE49AFAE499F9E498F880036A
:104B6900121AC030D50DE4C39FFFE49EFEE49DFDFB
:044B7900E49CFC229A
:0E1A2300C3E49FFFE49EFEE49DFDE49CFC22D4
:101A3100EB9FF5F0EA9E42F0E99D42F0EC6480C82C
:061A410064809845F022CC
:0C1A4700ECF0A3EDF0A3EEF0A3EFF02212
:101A5300A8828583F0D083D082121A6A121A6A127E
:101A63001A6A121A6AE473E493A3C583C5F0C583A3
:101A7300C8C582C8F0A3C583C5F0C583C8C582C8DD
:011A83002240
:1045590002386AE493A3F8E493A34003F68001F2D6
:1045690008DFF48029E493A3F85407240CC8C33363
:10457900C4540F4420C8834004F456800146F6DF32
:10458900E4800B01020408102040809029D6E47EC3
:10459900019360BCA3FF543F30E509541FFEE49327
:1045A900A360010ECF54C025E060A840B8E493A3EE
:1045B900FAE493A3F8E493A3C8C582C8CAC583CA19
:1045C900F0A3C8C582C8CAC583CADFE9DEE780BED1
:012BE80000EC
:101A840075F008758200EF2FFFEE33FECD33CDCC19
:101A940033CCC58233C5829BED9AEC99E58298409C
:101AA4000CF582EE9BFEED9AFDEC99FC0FD5F0D679
:101AB400E4CEFBE4CDFAE4CCF9A88222B800C1B9A3
:101AC4000059BA002DEC8BF084CFCECDFCE5F0CBE1
:101AD400F97818EF2FFFEE33FEED33FDEC33FCEB1A
:101AE40033FB10D703994004EB99FB0FD8E5E4F9D5
:101AF400FA227818EF2FFFEE33FEED33FDEC33FCC2
:101B0400C933C910D7059BE99A4007EC9BFCE99AB5
:101B1400F90FD8E0E4C9FAE4CCFB2275F010EF2FFA
:101B2400FFEE33FEED33FDCC33CCC833C810D707FA
:101B34009BEC9AE899400AED9BFDEC9AFCE899F835
:0E1B44000FD5F0DAE4CDFBE4CCFAE4C8F922C8
:00000001FF
