:1037DD00436865636B205349343433322E2E2E0DDE
:1037ED000A004445564943455F545950453A2030E7
:1037FD007825782E0D0A000D0A004445564943459B
:10380D005F56455253494F4E3A20307825782E0D4C
:10381D000A004445564943455F5354415455533A64
:10382D002061742069646C65206D6F64652E0D0ACE
:10383D00004445564943455F5354415455533A202E
:10384D006174205258206D6F64652E0D0A00444539
:10385D00564943455F5354415455533A20617420A2
:10386D005458206D6F64652E0D0A00437279737480
:10387D00616C204F7363696C6C61746F72204C6F57
:10388D0061642043617061636974616E63653A20A0
:10389D0025780D0A0053493434333220494F2049DD
:1038AD006E69742E2E2E2E2E2E0D0A00494F204994
:1038BD006E697420636F6D706C657465642E0D0A8E
:1038CD0000534934343332206973206E6F7420668F
:1038DD006F756E642E2E2E2E2E2E0D0A005349342A
:1038ED00343332204750494F496E697420636F6DF0
:1038FD00706C6574652C636F6E66696720646576A0
:10390D006963652E2E2E2E2E2E0D0A00436F6E66C8
:10391D0069672052462E2E2E2E2E2E0D0A0053494B
:10392D0034343332496E697420636F6D706C657415
:10393D00652E0D0A005349343433325F53657420BC
:10394D0052784D6F64652E2E2E2E2E2E0D0A00539D
:10395D0049343433325F5365742054784D6F646548
:10396D002E2E2E2E2E2E0D0A005349343433325F57
:10397D005365742049646C654D6F64652E2E2E2E33
:10398D002E2E0D0A005349343433325F53656E6465
:10399D00204649464F20646174612E2E2E2E0D0A4D
:1039AD00002072657620496E746572727570740DA3
:1039BD000A002073656E6420496E746572727570AD
:1039CD00740D0A006D6F64652072656769737465A7
:0539DD00723A0D0A0022
:1063B400D3EF9400EE64809480400F7D817C14DCE4
:0A63C400FEDDFAEF1F70E91E80E60F
:0163CE0022AC
:0765BD00C2C3D2B3D2B22227
:0962FA009002AFEFF07D017F0E70
:1063030090020EEDF0C2B3EF4480FF126547900296
:096313000EE0FF126547D2B3222F
:0764C9009002AEEFF07F042A
:0C64D000C2B31265477FFF126547D2B3CC
:0164DC00229D
:1057AD007BFF7A3779DD1264F1E4FF1264D0900249
:1057BD0009EFF07BFF7A3779EF1264F1900209E07F
:1057CD00FF1261967BFF7A3879041264F190020919
:1057DD00E0640860037F01227F011264D09002090A
:1057ED00EFF07BFF7A3879071264F1900209E0FF40
:1057FD001261967BFF7A3879041264F17F0212648C
:10580D00D0900209EFF0540F70087BFF7A38791FA2
:10581D008022900209E0540FFFBF01087BFF7A3808
:10582D00793E8010900209E0540FFFBF02097BFF03
:10583D007A38795B1264F17F091264D0900209EF16
:10584D00F07BFF7A3879781264F1900209E0FF124B
:0D585D0061967BFF7A3879041264F17F00B8
:01586A00221B
:1053BC007D537F751263037D4B7F76126303E4FD8F
:1053CC007F771263037D097F6E1263037DD57F6F38
:1053DC001263037D2C7F701263037D807F581263F0
:1053EC00037D1F7F6D1263037D207F721263037D2B
:1053FC002C7F1C1263037D417F201263037D607F31
:10540C00211263037D277F221263037D527F2312B7
:10541C006303E4FD7F241263037D047F2512630381
:10542C007D407F1D1263037D0A7F1E1263037D0F77
:10543C007F2A1263037D037F1F1263037D607F69E4
:10544C001263037D0C7F341263037D2A7F35126354
:10545C00037D027F331263037D2D7F361263037D40
:10546C00D47F371263037D8D7F30126303E4FD7F9D
:10547C00321263037D637F711263037DB47F090273
:02548C006303B8
:10586B007BFF7A3879A21264F11265BD7BFF7A381F
:10587B0079B91264F17F147E0080131257ADEF607B
:10588B00127BFF7A3879CE1264F17FF47E011263BA
:10589B00B480E87DCA7F0B1263037DCA7F0C126351
:1058AB00037DCA7F0D1263037F0A7E001263B47BF4
:1058BB00FF7A3879EA1264F17F031264D01264C95B
:1058CB009002AFEFF07D807F071263037F147E00A1
:1058DB001263B47F031264D01264C99002AFEFF06D
:1058EB007BFF7A3979191264F11253BC7DFF7F0566
:1058FB001263037DFF7F061263037F031264D012D2
:10590B0064C99002AFEFF07D077F05126303E4FDDE
:0E591B007F061263037BFF7A39792B0264F159
:1063CF007F031264D01264C91262FA7D057F07122F
:0B63DF0063037BFF7A3979420264F10E
:1062B2007F031264D01264C99002AFEFF07D027FB7
:1062C2000E1263037D097F071263037BFF7A39791C
:0462D2005C0264F115
:1063EA007F031264D01264C91262FA7D017F071218
:0B63FA0063037BFF7A3979760264F1BF
:105CE90090020AEBF0A3EAF0A3E9F0900209EFF0C1
:015CF900FDAD
:105CFA007F3E126303E490020DF0900209E0FF90E8
:105D0A00020DE0FEC3EF6480F8EE6480985025909F
:105D1A00020AE0FBA3E0FAA3E0F9EEFF3395E08F75
:105D2A0082F583121A78FD7F7F12630390020DE0D9
:105D3A0004F080C61262B27BFF7A3979920264F16A
:105A86007F071264D0900204EFF07F031264D012F5
:105A960064C99002AFEFF09002AEE030E15B7BFFAD
:105AA6007A3979AE1264F17F4B1264D0900205EF19
:105AB600F0BF0C2EE4900204F0900205E0FF900285
:105AC60004E0C39F501C7F7F1264D0900204E02440
:105AD60053F582E43402F583EFF0900204E004F01B
:105AE60080D77D027F08126303E4FD7F08126303FB
:105AF6001263CF9002517401F09002AEE030E20CD6
:0C5B06007BFF7A3979BF1264F11263CF83
:015B12002270
:1062D6007F071264D09002B4EFF07BFF7A3979D150
:1062E6001264F19002B4E0FF1261967BFF7A38796E
:0462F600040264F149
:0C35C10049028B00000001050107E0003A
:0965AC00E4FB7D0E7FD0026405C2
:10562800E4FD7FD012643AAD07ED54F0C4540F7511
:10563800F00AA4FFED540F2F90028BF07D017FD06C
:1056480012643AAD07ED54F0C4540F75F00AA4FF84
:10565800ED540F2F90028CF07D027FD012643AAD8A
:1056680007ED54F0C4540F75F00AA4FFED540F2F42
:1056780090028DF07D047FD012643AAD07ED54F0AE
:10568800C4540F75F00AA4FFED540F2F90028EF04A
:105698007D037FD012643A90028FEFF07D057FD0B2
:1056A80012643AAD07ED5410C4540F75F00AA4FF04
:1056B800ED540F2F900290F07D067FD012643AAD22
:1056C80007ED54F0C4540F75F00AA424D0FFE5F098
:1056D8003407FEED540F7C002FFFEC3E900291F052
:0356E800A3EFF03D
:0156EB00229C
:10548E00900282E0FF75F00A84C454F0FEEF75F0CE
:10549E000A84E5F02EFBE4FD7FD0126405900283B2
:1054AE00E0FF75F00A84C454F0FEEF75F00A84E54F
:1054BE00F02EFB7D017FD0126405900284E0FF7513
:1054CE00F00A84C454F0FEEF75F00A84E5F02EFB6A
:1054DE007D027FD0126405900285E0FF75F00A848C
:1054EE00C454F0FEEF75F00A84E5F02EFB7D047FC8
:1054FE00D0126405900286E0FB7D037FD012640516
:10550E00900287E0FF75F00A84C454F0FEEF75F048
:10551E000A84E5F02EFB7D057FD01264059002898A
:10552E00E02430FF900288E034F8FE7C007D0A1201
:10553E001AEBEFC4F8540FC868FFAB07E0FEA3E008
:10554E00FF7C007D0A121AEBEB2DFB7D067FD0024D
:02555E006405E2
:1000260000000000000000000000000000000000CA
:10003600000000000018188888286A4E0CE8E808B6
:1000460008181800000444446525341C0E0F1D349E
:100056006444040000F8F888F8F81090901010FE38
:10006600FE101000001F1F081F1F00000343407FE3
:100076007F0000000020644C0800FEFE929292FE73
:10008600FE00000000303C0F437E7E7E7E427E7E78
:100096007E7E4000000000F8F828F8FAAEACA8F81A
:1000A600F82828000040703F4F42662E3A123A2E3A
:1000B6006642400000202020A0E060FFFFE0C06014
:1000C600381800002030180E0741C0FF7F010306D4
:1000D6000C1810100080C0F0FE0E9090121E1CD05E
:1000E600D01000000000007F7F40414F4E607C5FD3
:1000F6004340400000F8F888F8F81090901010FE81
:10010600FE101000001F1F081F1F00000343407F42
:100116007F0000000000F0F20EECE4242424E4E466
:1001260004FCFC0000007F7F000F0F0909090F4F38
:10013600407F7F0000808282FEFE82828282FEFEF7
:1001460082828000004060381F07000000007F7F29
:100156000000000000001010121E1CF0F0181E1601
:10016600101000000041416131190F07070F1931C6
:1001760061414100002038DFC7444444FCFC44444C
:10018600444404000404040707040404FFFF0404B1
:1001960004040404000000FEFE222222222222225F
:1001A600FEFE000080C0703F0F020202020242C241
:1001B600FF7F0000000000FEFE828282828282FEB5
:1001C600FE000000000000FFFF404040404040FFAE
:1001D600FF000000000000F8F88C8E8B898888F8F4
:1001E600F8000000000000FFFF444444444444FF7C
:1001F600FF0000004044C4C44444445010FFFF10B4
:1002060010F0F000103C3F1314BCF8703E0F41C0D4
:10021600C07F3F00101010FFFFB0B8D868290F2E1E
:1002260068E8B8180242C3FF7F40404242427E7EE1
:100236004242424040505E4E48FFFF484848F8F868
:1002460000FFFF0000003E3E02FFFF323E1E0F4F42
:10025600C0FF7F00000022323AAEA6E26331198960
:1002660081010000004262331B4BC2FE7E020A1A65
:10027600336746002030BCEF733088C8E8B99F8EDC
:10028600A8E8C888226767321292C0703F0F003F05
:100296007F40717100083830FFFF202020FFFF20CB
:1002A600222E2C2004040603FFFFC0703E0F071EFB
:1002B6003860C08000048484C46474DF9F3464C4DE
:1002C60084840400417939003C7C40424E4C4070A5
:1002D600740D3931101C4C643414050706041434AB
:1002E60064541C0C004040414141417F7F414141E3
:1002F6004140400000F8F943424242FAFA42424283
:1003060042FEFE0000FFFF080C06033F3F03064CBB
:10031600C8FF7F000000FEFE42424242FAFA424215
:1003260042C2C20280E07F9FC060381E070140C003
:10033600C07F3F000000F8F8888888FFFF8888881B
:10034600F8F80000808081C54C78303F2F6040402F
:10035600C181808090D27634FFFF3476D2F0FF8F51
:1003660008F8F808829ADE776372DE8E80C0733FE3
:100376003F73C0801010FFFF9090FEFE9292F2F243
:10038600929E9E8042C2FF7F81E07F1FFCFC474712
:1003960044FCFC00404042CECC40E0BE9E82829EA1
:1003A600BEA020200000003FBF98C8436F3C386EB7
:1003B60047C18080001717D5D557577D7D5757D52C
:1003C600D51717004040407F7F5555555555557FE9
:1003D6007F404040404042CECC00FCFCA4A42622F4
:1003E600A3E362000040603F3F785F57584D4747A0
:1003F6004D5850400000FEFE02F2F21212F2F202D6
:10040600FEFE000000007F7F2027272424272720C8
:100416007F7F000020305C4F57545454545454D4BA
:10042600D404040000000000000000000000000FDB
:100436003F70F0F08080C06030182CE7C70C183091
:1004460060C080800000000202020282C2623A1E80
:100456000600000040404242424242FEFE42424204
:10046600424240408080C060301C0F03030F1C30A6
:1004760060C080801010D0FFFF94F4EFAFA4A4AF4B
:10048600EFE40400040703FFFF89CB6B3A1E1E3A14
:100496006BCB8880101090909090909010FFFF107A
:1004A60011171610002060603F3F101010030F1C3C
:1004B6003060F8F800002424242424FCFE222223A1
:1004C60023220000020202020242C2FF7F0202024F
:1004D60002020202000000BEBE2A2AEAEA2A2A3ED8
:1004E6003E0000000044464B4949497F7F4949493F
:1004F600494140000004FFFF2424FFFF04FEFE22C2
:1005060022FEFE0088C86F2F0919BFEF783F0F4201
:10051600C2FF7F0080808080808080808080808095
:1005260080808080000000000000000000000000C5
:100536000000000000000808080808080808080865
:1005460008080000101010101010101010101010D5
:100556001010101000048484848484848484848429
:1005660084840400202020202020202020202020F9
:100576002020202000FCFC0404FCFC0404FCFC04F9
:1005860004FCFC00007F7F2C27232020202123222F
:10059600227F7F000002424242C2FE7E424242C2A7
:1005A600C202020040404040787F47404040407FC2
:1005B6007F40404020202020202021232E2C202058
:1005C60020202020004060301C0F0300000103069D
:1005D6001C7860004042CECC00445454547F7F5473
:1005E6005454444000007F7F3010FFFF151555D549
:1005F600FF7F000088E87FDFC818D8DC56D3D39683
:100606009CD8D010091919FFFF05FFFF92FFFF5F65
:10061600DFFF7F00000000000001E3FEFCE00000B9
:100626000000000080C060301C0F030000030F3C78
:1006360070C08080109CCC44E4E495B7E6643494A2
:10064600C4D49C0C02027A7B4143437E7E424243E1
:10065600FBF800000484E4FC5CC4C402F2F282826B
:10066600FEFE808002037F7F103F3F08080808488F
:10067600C8C87F3F4070FFEF646C487F7F48487F63
:100686007F48484001017F7F3111FFFF49494949B1
:10069600FFFF00004042CECC00809E9E9292929236
:1006A6009E9E800000007F7FB494C464341F1F3474
:1006B60064C48484101010FFFF9090F0F010FFFFC8
:1006C60010F0F0000444C6FF7F0100FFFF427F7F69
:1006D60042FFFF004040C0DF5F55D5D55555555FF9
:1006E6005F40404020607F3F3515FFFFD76F393DA3
:1006F6006FC3808020202020202020FFFF20202084
:10070600202020208080C060301C0F03030F1C3087
:1007160060C08080000000E0E00000FFFF000020D5
:1007260060C08000080C07030040C0FF7F00000087
:1007360000010F0E80E0F8FF0704747455575654F5
:10074600747404000000FFFF03030545C5FD7D0525
:1007560005050303206464B494BFBF809FBFA4A6AD
:10076600A23A3800000000FFFF0A0A0A0A4ACAFF36
:100776007F000000404042465CD8C07F7FC0D05812
:100786004E4640408080C060381F0700003F7F40D3
:10079600404078784060F8FFF7F0B0DC5F77A4F46B
:1007A6005CCC80800000FFFF1F9F92D25B692D36D4
:1007B6001A0800000484848484FCFC70FCCF0B08B7
:1007C600F8F80808007F7F30101888C061371E1EB1
:1007D6003761C08020303CEFE72424E2EE2CBFBF17
:1007E60028EEE6000101017F7F3191CF6F301F1F98
:1007F600306FCF80101C0C24242425272624242483
:1008060024141C0C008181C1713F0F01017FFF81FF
:1008160081F1F1000000F8F88888888808FFFF0950
:100826000BCAC80880E07F1F10303F9FC061371E8B
:100836003E67F9F80080E0F8FF073E3E22E2E2223A
:100846003E3E0000010100FFFF31190D07FFFF07C3
:100856000D193120040484E4FC1F27242424A4E475
:1008660064240404020301FFFF020242C2FF7F0266
:100876000202020240445475E7E6745444FCFC4408
:10088600C4C6424020325ACAFF7F0A9AF27F1F002E
:10089600FFFF00000202F2F2929292FEFE92929204
:1008A600F2F202020404FFFF04040407070444C42E
:1008B600FF7F040400020E8CE0E0C0703FCFC80842
:1008C6002838180002027E7F81C060381E07071E86
:1008D6003860C080000202020282C2F2FE4EC2826C
:1008E6000202020010180C06030100FFFF000001BF
:1008F600030E0C0010180C87EF7C94949C8F87ECE9
:10090600FC948484040603FFFF0000020E4CC0FF23
:100916007F00000000F8F923222222A2FAFA2222FE
:1009260022FEFE0000FFFF080C0613313F1F0040A9
:10093600C0FF7F000000183C243C180000000000A7
:1009460000000000E0380C0602030101010101016C
:100956000101010101010101010101010101010181
:100966000101010101010101010101010101010171
:10097600010302060C38E040404040404040404001
:10098600C000FF00000000000000000000000000A2
:100996000000000000000000000000000000000051
:1009A6000000000000000000000000000000000041
:1009B60000000000FF40C000000000000000FF0033
:1009C600FF00000000000000000000000000000022
:1009D6000000000000000000000000000000000011
:1009E6000000000000000000000000000000000001
:1009F6000000FF00FF0000F0FFF00000FF00FF0016
:100A060000000000000000000000000000000000E0
:100A160000000000000000000000000000000000D0
:100A260000000000000000000000000000000000C0
:100A3600FF00FF001CFFFFFF1C00FF00FF800000FF
:100A460000000000000000000000000000000000A0
:100A56000000000000000000000000000000000090
:100A66000000000000000000000000000080FF7091
:100A76005F0000FFFFFF00005F700003060C081810
:100A86001010101010101010101010101010101060
:100A96001010101010101010101010101010101050
:100AA6001010101010101018080C16131808081043
:100AB60010180818101010080000000000000000B0
:100AC6000000000000000000000000F8F800000030
:100AD600000030333300000000100C06100C060036
:100AE60000000000000000004040F840F840000010
:100AF600043E053F05040000007088FC0830000035
:100B0600001820FF211E0000F008F0807008000089
:100B160000211C031E211E0000F08870000000004A
:100B26001F2027281F2110000000000000000000E1
:100B360080B0F07000000000000000F0FC0E020023
:100B46000000000F3F70400000061EF8E0000000A5
:100B56000060781F070000004040C0F0F0C0404031
:100B66000202030F0F030202000000F0F000000073
:100B76000101011F1F01010100020206040000001D
:100B8600000000000000000000000000000000005F
:100B96000101010101010100000000000000000048
:100BA600003030300000000000000000C0F83C0CAF
:100BB6000060783F07010000E0F0180818F0E00038
:100BC6000F1F3020301F0F00001010F8F800000033
:100BD6000020203F3F2020000070780808F8F00031
:100BE60000303C2E233130000030388888F8700001
:100BF60000183820313F1E000080C060F8F8000061
:100C0600060705243F3F240400F8F8888888080072
:100C160000193921313F1F00E0F0988888981800A4
:100C26000F1F3120313F1F0000383808E8F8180040
:100C36000000003F3F00000070F8988898F87000A8
:100C46001E3F2121313F1E00F0F8080818F8E00089
:100C5600313322323B1F07000000C0C0C000000035
:100C660000003030300000000000008080000000EE
:100C7600000080E060000000000080E070180800BE
:100C86000001030E1C302000404040404040400020
:100C9600040404040404040000083870C080000042
:100CA6000020381C060301007078080818F8F000C8
:100CB6000000303737010000C0F0F8E8E8F8F0E04F
:100CC600071F3F2727371F0B0000E0F8F8E000005A
:100CD600203C3F23233F3C2008F8F88888F8700022
:100CE600203F3F20313F1E00E0F03808083838002A
:100CF6000F1F30202030100008F8F80818F0E00028
:100D0600203F3F20301F0F0008F8F888E8F8180049
:100D1600203F3F202333300008F8F888E8E8181011
:100D2600203F3F2003030000C0F038080838380091
:100D3600071F3820223E1E0208F8F80808F8F808AF
:100D4600203F3F21213F3F20000808F8F80808000F
:100D56000020203F3F202000000808F8F80808007F
:100D6600C0C080FF7F00000008F8F8C8E8381808FF
:100D7600203F3F21273E382008F8F80800000000F1
:100D8600203F3F202030300008F8F800F8F808002F
:100D9600203F003F003F200008F8F8F8C8F8F808A0
:100DA600203F3F231F3F3F00E0F0180818F0E00007
:100DB6000F1F3020301F0F0008F8F80808F8F00061
:100DC600203F3F2101010000E0F0180818F0E00084
:100DD6000F1F3C247C7F4F0008F8F88888F87000C5
:100DE600203F3F21073E38200070F8880818180079
:100DF60000303021233F1E00181808F8F80818188C
:100E06000000203F3F20000008F8F80808F8F8081E
:100E1600001F3F20203F1F000878F88888F87808D0
:100E260000000F3F3F0F000008F8FCFCF8F8F80838
:100E360000073F3F3F3F07000838F8E8E8F8180882
:100E460020303C2F2F3E38200838F8C8C8F838081C
:100E56000000203F3F200000101808C8F83808009E
:100E6600303C2F2320301000000000FEFE0202005E
:100E76000000007F7F404000001CFCE000000000F6
:100E8600000000031F7C6000000202FEFE0000005E
:100E96000040407F7F0000000000040606040000BA
:100EA600000000000000000000000000000000003C
:100EB600808080808080808010161E0E00000000DA
:100EC600000000000000000000008080808080009C
:100ED600001D3D26223F3F2008F8F8808080000054
:100EE600003F3F21203F1F0000008080808080005F
:100EF600001F3F31203111000000808088F8F80083
:100F0600001F3F21203F3F2000008080808000009E
:100F1600001F3F22223313008080F0F888981800C3
:100F260000203F3F2020000000008080808080005D
:100F3600006BFF9497F3600008F8F88080808000CB
:100F4600203F3F21203F3F200080809898000000EE
:100F56000020203F3F20200000008080989800005D
:100F660000C0C080FF7F000008F8F8808080800005
:100F7600203F3F263F392000000808F8F80000000F
:100F86000020203F3F20200080808080808080805D
:100F9600203F3F203F3F203F808080808080800030
:100FA600203F3F2100203F3F0000808080800000DE
:100FB600001F3F31213F1F0080808080808000001D
:100FC60080FFFFA1303F1F000000808080808000EE
:100FD600001F3F21A0FFFF808080808080808000EE
:100FE60020203F3F2121010000008080808080007A
:100FF60000333724243D1900008080E0E080800023
:101006000000001F3F20200080808000808080003C
:10101600003F3F20203F3F2080808080808080806E
:1010260000031F3C3C1F03008080C0C0808080807E
:10103600000F3F3F3F3F0F00808080808080800010
:1010460020313F2E3F31200080808080808080804C
:101056008083CF7E3E0F01000080808080808000EC
:081066000021393C2733300062
:1035CD0060C00000000000000000000000000000CE
:1035DD0000000000000000000000000000000000DE
:1035ED0000000000000000000000000000000000CE
:1035FD0000000000000000000000000000000000BE
:10360D0000000000000000000000000000000000AD
:10361D00000000000000000000000000000000009D
:10362D00000000000000000000000000000000008D
:10363D00000000000000000000000000000000007D
:10364D00000000000000000000000000000000006D
:10365D00000000000000000000000000000000005D
:10366D00000000000000000000000000000000004D
:10367D00000000000000000000000000000000003D
:10368D000000000060C000C000000000000000004D
:10369D00000000000000000000000000000000001D
:1036AD00000000000000000000000000000000000D
:1036BD0000000000000000000000000000000000FD
:1036CD0000000000000000000000000000000000ED
:1036DD0000000000000000000000000000000000DD
:1036ED0000000000000000000000000000000000CD
:1036FD0000000000000000000000000000000000BD
:10370D0000000000000000000000000000000000AC
:10371D00000000000000000000000000000000009C
:10372D00000000000000000000000000000000008C
:10373D00000000000000000000000000000000007C
:08374D00000000000000000074
:04637B007F057E001C
:10637F00D3EF9400EE9400400F7D147C32DCFEDDF1
:08638F00FAEF1F70EB1E80E81D
:0163970022E3
:10651600D3EF9400EE94004007EF1F70F31E80F057
:016526002252
:0465DC0075BB602209
:105EA70090021CE0FF90021BE04440FBE4FD125E01
:0C5EB700C390021FE044B8FBE4FD7F072D
:105EC300EF30E002C2C2EF30E102C291EF30E202F2
:105ED300C292D2C6ED6004D2C58002C2C5C2C1AFB0
:105EE300038F80C2C6D2C2D291D2927F017E0002BA
:025EF300637FCB
:075F8800900269E0FF7D01BA
:105F8F007580FFEFB40104C2C2800EEFB40204C2E9
:105F9F00918006EFB40402C292ED6004D2C5800274
:105FAF00C2C5D2C100D2C600AC80C2C6C2C1D2C265
:0D5FBF00D291D2927F017E00126516AF04D0
:015FCC0022B2
:0261CA00A90723
:1061CC00E4FBE930E009E4FD7F01125F8FEFFBE9AE
:1061DC0030E10AE4FD7F02125F8FEB4FFBE930E206
:0F61EC000AE4FD7F04125F8FEB4FFBEB20E7D13E
:0161FB002281
:10650400C2CA7F507E0012637FD2CA7FA07E00027F
:02651400637FA3
:10631C007F071261CAE4FAEA125EBCE4F9E4FB7D81
:10632C00017F07125EC309E9B440F20AEAB408E738
:01633C00223E
:10628900C2CB12637B1265047B3E125EBF12637B35
:106299007BC0125EBF12637B12631C12637B7B3F60
:0962A900125EBF12637BD2CB220E
:105FCD007F071261CA7B40E4FD7F01125EC37BBA7D
:105FDD00E4FD7F01125EC3E4FAE4F97BFF7D017FEE
:105FED0001125EC309E9B440F27B40E4FD7F01126A
:105FFD005EC3EA240344B8FBE4FD7F01125EC30ACD
:04600D00EAB401D51B
:01601100226C
:106012007F071261CA7B40E4FD7F02125EC37BBA36
:10602200E4FD7F02125EC3E4FAE4F97BFF7D017FA7
:1060320002125EC309E9B440F27B40E4FD7F021222
:106042005EC3EA240344B8FBE4FD7F02125EC30A86
:04605200EAB401D5D6
:016056002227
:104D9200900222EBF0A3EAF0A3E9F0900220EFF0F8
:034DA200A3EDF08E
:104DA500EF1425E0900220F0ED24FFFFE434FFFE30
:104DB500EF7802CEC313CE13D8F9FF700790022700
:104DC50004F08016EFB401089002277402F0800AFF
:104DD500EFB402069002277404F0900221E0145407
:104DE50003C454F0F0FE900227E0FFEE4440FBE4DC
:104DF500FD125EC3E0FF900220E044B8FBE4FD1223
:104E05005EC3E4900226F0900225E0900227601828
:104E1500E0FF900222E0FBA3E475F001121B56A906
:104E2500F0FA121A5FF48015E0FF900222E0FBA36E
:104E3500E475F001121B56A9F0FA121A5FFB7D0109
:104E4500125EC3900226E004F0E0C3941040B890CF
:104E55000227E0FF900221E04440FBE4FD125EC31F
:104E6500900227E0FF900220E00444B8FBE4FD1225
:104E75005EC3E4900226F0900225E09002276018B8
:104E8500E0FF900222E0FBA3E475F001121B56A996
:104E9500F0FA121A5FF48015E0FF900222E0FBA3FE
:104EA500E475F001121B56A9F0FA121A5FFB7D0199
:0F4EB500125EC3900226E004F0E0C3941040B8F0
:014EC40022CB
:054C5900E090023FF0B5
:104C5E0090023CEBF0A3EAF0A3E9F090023AEFF0F9
:034C6E00A3EDF0C3
:104C7100EF1425E090023AF0ED24FFFFE434FFFE4B
:104C8100EF7803CEC313CE13D8F9FF70079002411A
:104C910004F08016EFB401089002417402F0800A1A
:104CA100EFB402069002417404F090023BE0145408
:104CB1000775F008A4F0FE900241E0FFEE4440FBCE
:104CC100E4FD125EC3E0FF90023AE044B8FBE4FD6C
:104CD100125EC3E4900240F090023FE09002416016
:104CE10018E0FF90023CE0FBA3E475F001121B56B3
:104CF100A9F0FA121A5FF48015E0FF90023CE0FB84
:104D0100A3E475F001121B56A9F0FA121A5FFB7D9C
:104D110001125EC3900240E004F0E0C3940840B881
:104D2100900241E0FF90023BE04440FBE4FD125E53
:104D3100C3900241E0FF90023AE00444B8FBE4FD75
:104D4100125EC3E4900240F090023FE090024160A5
:104D510018E0FF90023CE0FBA3E475F001121B5642
:104D6100A9F0FA121A5FF48015E0FF90023CE0FB13
:104D7100A3E475F001121B56A9F0FA121A5FFB7D2C
:104D810001125EC3900240E004F0E0C3940840B811
:014D910022FF
:105D4A00900216EFF0A3EDF0A3EBF0A3EAF0A3E9BB
:105D5A00F0900218E0FBA3E0FAA3E0F9121A5F60E0
:105D6A003D75F010A424BEF9740835F0FA7BFF9053
:105D7A000216E0FFA3E0FD90021B124C5990021795
:105D8A00E004F0E0D3941840097401F0900216E0A0
:0F5D9A0004F0900219E475F001121B4080B3224F
:08457E0090020BEFF0A3EDF039
:1045860078117C027D017BFF7A0079267E007F0A06
:10459600121A39E490021BF0A37409F0E4A3F0A305
:1045A600F0A3121BEB0000000190020DE0FCA3E05B
:1045B600FDA3E0FEA3E0FFEC33501690021D74014C
:1045C600F090020DA3A3A3E0121BBB90020D121BD9
:1045D600DF90020DE0FCA3E0FDA3E0FEA3E0FFEC0C
:1045E6004D4E4F6074E47B0AFAF9F890020DA3A3CE
:1045F600A3E012609BAC00AD01AE02AF0390021FB8
:10460600121BDF90021FA3A3A3E02430FF90021B1E
:10461600E0FE04F074112EF582E43402F583EFF027
:1046260090020DE0FCA3E0FDA3E0FEA3E0FFE47B27
:104636000AFAF9F812609B90020D121BDF90021B1A
:10464600E06402708CE0FF04F074112FF582E4340C
:1046560002F583742EF00245D790021BE0D3940333
:10466600502AE0FF04F074112FF582E43402F5833A
:104676007430F090021BE0B402DFFF04F074112FD7
:10468600F582E43402F583742EF080CD90021DE0AD
:10469600601490021BE0FF04F074112FF582E434DD
:1046A60002F583742DF0E490021CF090021BE0FFEB
:1046B600A3E0FEC39F503F74112EF582E43402F549
:1046C60083E075F010A424BEF9740835F0FA7BFF78
:1046D60090020BE0FFA3E0FD14F0E4124C5A9002A6
:1046E6000CE0700A90020BE004F0A37418F090023C
:0646F6001CE004F080B599
:0146FC00229B
:0B3F3000900220EFF0A3EDF0A3EBF0F7
:103F3B0078287C027D017BFF7A0079307E007F0A36
:103F4B00121A39E4900232F0A37409F0E4A3F0A33F
:103F5B00F0A3121BEB00000001900223E0FCA3E096
:103F6B00FDA3E0FEA3E0FFEC335016900234740186
:103F7B00F0900223A3A3A3E0121BBB900223121BFE
:103F8B00DF900222E0606F900222E0FF14F0EFD38B
:103F9B009400500302406FE47B0AFAF9F8A3E0FCAB
:103FAB00A3E0FDA3E0FEA3E0FF12609BAC00AD011C
:103FBB00AE02AF03900236121BDF900236A3A3A30F
:103FCB00E02430FF900232E0FE04F074282EF582DC
:103FDB00E43402F583EFF0900223E0FCA3E0FDA3B1
:103FEB00E0FEA3E0FFE47B0AFAF9F812609B900273
:103FFB0023121BDF8091900223E0FCA3E0FDA3E0E2
:10400B00FEA3E0FFEC4D4E4F605AE47B0AFAF9F841
:10401B00900223A3A3A3E012609BAC00AD01AE0200
:10402B00AF03900236121BDF900236A3A3A3E0244A
:10403B0030FF900232E0FE04F074282EF582E43457
:10404B0002F583EFF0900223E0FCA3E0FDA3E0FE7A
:10405B00A3E0FFE47B0AFAF9F812609B90022312AB
:10406B001BDF8092900234E06014900232E0FF0478
:10407B00F074282FF582E43402F583742DF0E4906C
:10408B000233F0900232E0FFA3E0FEC39F50417475
:10409B00282EF582E43402F583E075F010A424BEDB
:1040AB00F9740835F0FA7BFF900220E0FFA3E0FDE6
:1040BB0014F0900227124C59900221E0700A9002E2
:1040CB0020E004F0A37418F0900233E004F080B306
:0140DB0022C2
:0A4B1B0090020CEDF0AC07A3EBF0E4
:104B2500E4900218F0EB24FFFFE434FFFEEF780376
:104B3500CEC313CE13D8F90490020DF0EC24FFFF79
:104B4500E434FFFEEF7803CEC313CE13D8F99002F9
:104B550014F090020CE0FF14543F900215F0FDEFA5
:104B650024FFFFE434FFFEEF7806CEC313CE13D83F
:104B7500F9FF7401A807088002C333D8FCFF90022F
:104B850016F0900218F0ED4440FBE4FD125EC39070
:104B95000214125EBBE4900212F090020DE0FF9049
:104BA5000212E0C39F4003024C58E4A3F090020EAA
:104BB500E0FF900213E0FEC39F506AEEFF90020CE7
:104BC500E02FFFE433CF24FFCF34FFFEEF7806CE8E
:104BD500C313CE13D8F975F00384AFF07401A80799
:104BE500088002C333D8FCFF900217F0A3E06F6082
:104BF5000E900217E0FFA3F07B40E4FD125EC39028
:104C05000217E0FF90020FE0FBA3E475F001121B11
:104C150056A9F0FA121A5FFB7D01125EC3900213CA
:104C2500E004F08088900216E0FF900218F09002F0
:104C350015E04440FBE4FD125EC3900212E0FF90D4
:104C45000214E02F540704125EBC900212E004F037
:034C5500024B9F70
:014C58002239
:0F39E20090025FEFF0900261EBF0900260EDF069
:1039F100E490026BF0ED14543F900268F0FCED246A
:103A0100FFFFE434FFFEEF7806CEC313CE13D8F9DF
:103A1100FF7401A807088002C333D8FCFF90026934
:103A2100F090026BF0EC4440FBE4FD125EC39002A7
:103A31005FE014125EBC125F88E4900266F09002AF
:103A410061E0FF900266E0C39F4003023B12E4A3E2
:103A5100F0900262E0FF900267E0FEC39F40030224
:103A61003AE2EEFF900260E02FFFE433CF24FFCF74
:103A710034FFFEEF7806CEC313CE13D8F975F003E9
:103A810084AFF07401A807088002C333D8FCFF900B
:103A9100026AF0A3E06F600E90026AE0FFA3F07B80
:103AA10040E4FD125EC390026A125F8BAD07900283
:103AB10062E0FF900266E08FF0A4FFA3E07A002F9E
:103AC100FFEA35F0FE900263E0FBA3E0FAA3E0F920
:103AD1008F828E83ED121AB7900267E004F0023AEA
:103AE10052900269E0FF90026BF0900268E044405E
:103AF100FBE4FD125EC3900266E0FF90025FE02FDF
:103B01005407125EBC125F88900266E004F0023A2C
:103B11003F7F071261CA900268E04440FBE4FD7FE9
:103B210002125EC390025FE01444B8FBE4FD7F0221
:103B3100125EC3E4900266F0900261E0FF900266BB
:103B4100E0C39F506EE4A3F0900262E0FF90026731
:103B5100E0FDC39F5031900266E08FF0A47C002D00
:103B6100FFEC35F0FE900263E0FBA3E0FAA3E0F97D
:103B71008F828E83121A78FB7D017F02125EC390C1
:103B81000267E004F080C1900268E04440FBE4FD7C
:103B91007F02125EC3900266E0FF90025FE02F5445
:103BA1000744B8FBE4FD7F02125EC3900266E004A5
:033BB100F080851C
:013BB40022EE
:07257100900216EDF0AC072B
:10257800E490021EF0EC24FFFFE434FFFEEF780342
:10258800CEC313CE13D8F990021FF0EC1454079061
:102598000222F0EC2B145407A3F0900222E0FDFF76
:1025A800EB2FFFE433FEEF7803CEC313CE13D8F935
:1025B800FFED2B540760047E0180027E00EE2FFFA2
:1025C800900221F090021FE02F14A3F0900216E071
:1025D800FD14543F90021BF0ED24FFFFE434FFFE8E
:1025E800EF7806CEC313CE13D8F9FF7401A80708F5
:1025F8008002C333D8FC90021CF090021EF09002B7
:1026080022E070030226C9125EA790021C125F8B9B
:10261800E4900219F0900218E0FFA3E0FEC39F4087
:10262800030226C1EEFF900216E02FFFE433CF2409
:10263800FFCF34FFFEEF7806CEC313CE13D8F9755B
:10264800F0038490021AE5F0F0E0FF7401A807088F
:102658008002C333D8FCFF90021DF0A3E06F600E28
:1026680090021DE0FFA3F07B40E4FD125EC39002E0
:102678001D125F8B900219E0FE2400F582E43400FD
:10268800F583EFF074002EF582E43400F583C083FF
:10269800C082E0FF900222E0FEC374079EFE747FB2
:1026A800A806088003A2E713D8FB5FD082D083F086
:1026B800900219E004F002261D90021CE090021E10
:1026C800F0900223E0700302279A90021CE0FF902A
:1026D800021BE04440FBE4FD125EC3900220125E40
:1026E800BB90021C125F8BE4900219F0900218E074
:1026F800FFA3E0FEC39F4003022792EEFF9002165D
:10270800E02FFFE433CF24FFCF34FFFEEF7806CE6F
:10271800C313CE13D8F975F0038490021AE5F0F0CC
:10272800E0FF7401A807088002C333D8FCFF9002B9
:102738001DF0A3E06F600E90021DE0FFA3F07B4048
:10274800E4FD125EC390021D125F8B900219E0FE39
:1027580024C0F582E43400F583EFF074C02EF582CE
:10276800E43400F583C083C082E0FF900223E0FEDA
:1027780074FFA806088002C333D8FC5FD082D083D8
:10278800F0900219E004F00226F490021CE0900296
:102798001EF0125EA7E4FA900221E0FFEAC39F4010
:1027A800030228B6E4900219F0900218E0FFA3E0B3
:1027B800FEC39F4003022892EEFF900216E02FFF0F
:1027C800E433CF24FFCF34FFFEEF7806CEC313CE19
:1027D80013D8F975F0038490021AE5F0F0E0FF745D
:1027E80001A807088002C333D8FCFF90021DF0A39C
:1027F800E06F600E90021DE0FFA3F07B40E4FD1245
:102808005EC3900222E0F9602EA3E0602A900221C4
:10281800E0B4012390021DE0FF900219E0FE24C0FD
:10282800F582E43400F583E0FD74002EF582E4348B
:1028380000F583E04D8044E96018EA701590021DA8
:10284800E0FF900219E02400F582E43400F583E00B
:102858008029900223E0601D900221E014B5021542
:1028680090021DE0FF900219E024C0F582E43400D4
:10287800F583E0800690021DE0FFE4FB7D01125E17
:10288800C3900219E004F00227B190021CE0FF9007
:10289800021EF090021BE04440FBE4FD125EC39070
:0E28A800021FE02A540704125EBC0A02279F9A
:0128B60022FF
:0721EC00900210EDF0AC07BA
:1021F300E4900218F090021EF0EC24FFFFE434FF99
:10220300FEEF7803CEC313CE13D8F9900219F0EC86
:1022130014540790021CF0EC2B145407A3F0900203
:102223001CE0FDFFEB2FFFE433FEEF7803CEC31377
:10223300CE13D8F9FFED2B540760047E0180027E94
:1022430000EE2FFF90021BF0900219E02F14A3F071
:10225300900210E0FD14543F900215F0ED24FFFFAF
:10226300E434FFFEEF7806CEC313CE13D8F9FF7420
:1022730001A807088002C333D8FC900216F090022D
:1022830018F090021CE0700302235C900216E0FF3A
:10229300900215E04440FBE4FD125EC39002191264
:1022A3005EBB900216125F8BE4900213F090021251
:1022B300E0FFA3E0FEC39F4003022354EEFF90021E
:1022C30010E02FFFE433CF24FFCF34FFFEEF780677
:1022D300CEC313CE13D8F975F00384900214E5F03E
:1022E300F0E0FF7401A807088002C333D8FCFF9015
:1022F3000217F0A3E06F600E900217E0FFA3F07BDC
:1023030040E4FD125EC3900217125F8B900213E04C
:10231300FE2400F582E43400F583EFF074002EF51B
:1023230082E43400F583C083C082E0FF90021CE0A6
:10233300FEC374079EFE7480A806088003A2E713F9
:10234300D8FB4FD082D083F0900213E004F0022236
:10235300B0900216E0900218F090021DE0700302A4
:10236300243F900216E0FF900215E04440FBE4FD99
:10237300125EC390021A125EBB900216125F8BE4C8
:10238300900213F0900212E0FFA3E0FEC39F40030C
:10239300022437EEFF900210E02FFFE433CF24FF37
:1023A300CF34FFFEEF7806CEC313CE13D8F975F002
:1023B3000384900214E5F0F0E0FF7401A80708809D
:1023C30002C333D8FCFF900217F0A3E06F600E90B6
:1023D3000217E0FFA3F07B40E4FD125EC3900217F7
:1023E300125F8B900213E024C0F582E43400F5837E
:1023F300EFF01D90021DE0FEEDC39E500AA3E02501
:10240300E04401F00D80EC900213E024C0F582E477
:102413003400F583C083C082E0FF90021EE0FEEF2C
:102423004ED082D083F0E490021EF0900213E004B9
:10243300F0022387900216E0900218F0900216E053
:10244300FF900215E04440FBE4FD125EC3900219C5
:10245300125EBBE4FA90021BE0FFEAC39F40030253
:102463002570E4900213F0900212E0FFA3E0FEC394
:102473009F400302254CEEFF900210E02FFFE43350
:10248300CF24FFCF34FFFEEF7806CEC313CE13D88D
:10249300F975F00384900214E5F0F0E0FF7401A8ED
:1024A30007088002C333D8FCFF900217F0A3E06F44
:1024B300600E900217E0FFA3F07B40E4FD125EC3C1
:1024C30090021CE0F9602EA3E0602A90021BE0B4A6
:1024D3000123900217E0FF900213E0FE24C0F5826F
:1024E300E43400F583E0FD74002EF582E43400F556
:1024F30083E05D803CE96018EA7015900217E0FF05
:10250300900213E02400F582E43400F583E0802197
:1025130090021DE0601E90021BE014B502169002AB
:1025230017E0FF900213E024C0F582E43400F58342
:10253300E0FB8007900217E0FF7BFF7D01125EC383
:10254300900213E004F002246A900216E0FF900266
:1025530018F0900215E04440FBE4FD125EC39002C4
:0D25630019E02A540704125EBC0A02245835
:012570002248
:105F3F00A2A282A082A482A182A382C84038126545
:105F4F0054A2A282A082A482A182A382C84024204C
:105F5F00A0037F012220A2037F022220A4037F0639
:105F6F002220A1037F052220C8037F032220A30341
:095F7F007F04227F00227F002232
:10652700E4F5CF75CDC030030475CED02275CE40CB
:016537002241
:0D6547008FCFE5CD30E7FB75CDC0AFCF2283
:1064DD00438920759840758DDC858D8BE4F587D2C9
:0464ED00ACD28E227D
:0865B5008F993099FDC2992273
:02619600AE0752
:10619800EEC4540FFDC36480948AED50042430800B
:1061A8000424F62461FF1265B5EE540FFDC3648024
:1061B800948AED50042430800424F62461FF12658B
:0161C800B521
:0161C90022B3
:0765C400EF2430FF0265B572
:1064F100121A5FFF600C1265B5740129F9E43AFACA
:0365010080EE2207
:0D622E009002ABEBF0A3EAF0A3E9F0AE079D
:10623B00E4FDEDC39E501A9002ABE0FBA3E0FAA382
:10624B00E0F98D82758300121A78FF1265B50D8007
:01625B00E161
:01625C00221F
:03002300026398DD
:06639800C0E0C083C082DA
:0F639E0030980CC298C2AF900203E599F0D2AFCD
:0763AD00D082D083D0E03262
:0665CB00000000000022A8
:05000600D2B7D2B622C2
:06000E0012633D12636362
:0F001400D2B6D2B71265CBC2B61265CBC2B72235
:0C658800C2B6D2B71265CBD2B60265CB0A
:06635D0012001412633D62
:10636300D2B71265CB30B608C2B71265CB7F002215
:08637300C2B71265CB7F0122C5
:0C659400C2B6D2B71265CBC2B70265CB0D
:0C65A000D2B6D2B71265CBC2B70265CBF1
:10633D00E4FEEF30E703D38001C392B6EF25E0FF13
:0F634D00D2B71265CBC2B71265CB0EEEB408E320
:01635C00221E
:10625D00E4FED2B6FDEE25E0FED2B71265CB30B628
:10626D00034401FEC2B71265CB0DEDB408E7EF6034
:0B627D000512659480031265A0AF06B7
:0162880022F3
:1064050012635DAC07AF0512633D126363AF031200
:0A641500633D126363126588AF0453
:01641F00225A
:02643A00AC07AD
:10643C0012635DAF0512000EEC04FF12633D126394
:06644C0063E4FF12625D33
:016452002227
:105E0400AD0712635DEF70061265887F0122900270
:105E140098E0FF12000EED04FF12633D12636390DD
:105E24000299E0FF6026B4010BE4FF12625DEF12F9
:105E34001AA580107F0112625DEF121AA574012960
:105E4400F9E43AFA900299E014F080D31265887F5D
:025E540000222A
:1060DF0012635DEF7002801E90029EE0FF12633D1F
:1060EF0012636390029FE06022121A5FFF12633DFA
:1060FF00126363EF70061265887F0122740129F91C
:10610F00E43AFA90029FE014F080D81265887F007D
:01611F00225D
:103755004102A6004102A7004102A8004102A900BA
:043765004102AA0073
:0C6554007FB27E787D0CDDFEDEFADFF603
:016560002218
:0C6561007FB27EE67D0CDDFEDEFADFF688
:01656D00220B
:0C656E007FD97EAB7D49DDFEDEFADFF652
:01657A0022FE
:1061FC00EF24FE601214601714601C2403702090AE
:10620C0002A6E05401FF229002A6E05402FF229065
:10621C0002A6E05404FF229002A6E05408FF227F5D
:02622C0000224E
:105DA900EF24FE601D14602D14603D2403704B9098
:105DB90002A6E054FEF090020CA3A3A3E09002A770
:105DC900F0229002A6E054FDF090020CA3A3A3E0F8
:105DD9009002A8F0229002A6E054FBF090020CA3D6
:105DE900A3A3E09002A9F0229002A6E054F7F09054
:0B5DF900020CA3A3A3E09002AAF0227A
:106057009002A7E0600414F080079002A6E04401D4
:10606700F09002A8E0600414F080079002A6E044D4
:1060770002F09002A9E0600414F080079002A6E005
:106087004404F09002AAE0600314F0229002A6E014
:046097004408F022A7
:105C1B00454550524F4D20736563746F7231206848
:105C2B00617320646174612E0D0A00454550524F1B
:105C3B004D20736563746F723120697320636C65DB
:105C4B00616E2E0D0A00454550524F4D2073656312
:105C5B00746F72322068616520646174612E0D0A65
:105C6B0000454550524F4D20736563746F7232205F
:0C5C7B00697320636C65616E2E0D0A00D9
:0D657B00E4F5C7F5C5F5C675C380F5C4226B
:1064530075C78375C5018FC4EEF5C375C65A75C676
:08646300A50000AFC212657B29
:01646B00220E
:1064200075C78375C5028FC4EEF5C3AF058FC275FE
:0A643000C65A75C6A5000002657B80
:1064B30075C78375C5038FC4EEF5C375C65A75C614
:0664C300A5000002657B4C
:1059D800E490020BF0A3F0E4900209F0A3F0900227
:1059E80009E0FEA3E0FFC3EE94025028126453EFCF
:1059F800F460117BFF7A5C791B1264F190020BE46E
:105A0800F0A304F090020AE004F070D2900209E0DA
:105A180004F080CA90020BE07002A3E070B97BFF2B
:105A28007A5C79361264F1E4900209F0A3F09002EE
:105A380009E0FEA3E0FFC3EE9402502FE42FFFEE2F
:105A48003402FE126453EFF460117BFF7A5C7951E3
:105A58001264F190020BE4F0A304F090020AE0044F
:105A6800F070CB900209E004F080C390020BE07064
:0E5A780002A3E070B27BFF7A5C796C0264F1ED
:103769004C02530000000000000000000000004C63
:1037790002450000000000000000000000004102B6
:0C37890051004102520043024201026C58
:0165E0002298
:0165E1002297
:1051EC00900255E0FE6410706CA3E07068A3E0FFC1
:1051FC00900242E0FBA3E0FAA3E0F9EF121AA590AB
:10520C000258E0FF900242E0FBA3E0FAA3E0F99021
:10521C000001EF121AB7900259E0900002121AB76F
:10522C0090025AE0900003121AB790025BE09000D3
:10523C0004121AB790025CE0900005121AB79002A3
:10524C005DE0900006121AB790025EE09000071223
:10525C001AB77F0122EE6411706E900256E07068EE
:10526C00A3E0FF900242E0FBA3E0FAA3E0F9EF1207
:10527C001AA5900258E0FF900242E0FBA3E0FAA3CB
:10528C00E0F9900001EF121AB7900259E090000279
:10529C00121AB790025AE0900003121AB790025BF0
:1052AC00E0900004121AB790025CE0900005121A0C
:1052BC00B790025DE0900006121AB790025EE09083
:0B52CC000007121AB77F02227F0022A9
:0F65380041444320646174613A0D0A000D0A006A
:1037950048026C616162626363000044027422B88E
:0237A50022B848
:105E560090026CE0FEA3E0FDEDFF900274EEF0A36D
:105E6600EFF090026EE0FEA3E0FDEDFF900276EE0D
:105E7600F0A3EFF0D3900275E09488900274E0945A
:105E86001340077422F0A374B8F0D3900277E0941D
:105E960088900276E0941340077422F0A374B8F059
:015EA60022D9
:105EF500900270E0FEA3E0FDEDFBAA06E4FEFDFCCA
:105F0500C39DF582EE9CF5837D64AF03AE02121A44
:105F1500D9AD82AC83121AEB7BFF7A6579381264AE
:105F2500F1900270E0FF126196900271E0FF12613C
:0A5F3500967BFF7A6579440264F15F
:1056EC003A0020002A0021004300484F4D4500306D
:1056FC0000310032003300340035003600370038FA
:10570C000039002E00250000000000000000000001
:10571C00000000000000000000000000000000007D
:10572C00000000000000000000000000000000006D
:10573C00000000000000000000000000000000005D
:10574C00000000000000000000000000000000004D
:10575C00000000000000000000000000000000003D
:10576C00000000000000000000000000000000002D
:10577C00000000000000000000000000000000001D
:10578C0000000000000000000000000001050107FF
:10579C00E00000F0FFF0001CFFFFFF1C00FFFFFF0C
:0157AC0000FC
:1037A700C10141027D0041027C0044027E0001E22A
:1037B7004041027B01C1004102780041027900418A
:0337C700027A0083
:10646C00900276E0FEA3E0FFE4FCFD90020D121B0F
:08647C00DF7D167F0102457E61
:10648400900274E0FEA3E0FFE4FCFD90020D121BF9
:08649400DF7D0E7F0402457E4E
:055C8700900180EFF028
:105C8C0078817C017D017BFF7A5779137E007F82BE
:105C9C00121A39900180E0602FB20030001B900284
:105CAC000E7405F0A374FFF0A37457F0A3749EF068
:105CBC007B187D377F11024B1B9002187405F07B0B
:105CCC00187D377F11022571300011900218740570
:0C5CDC00F07B187D377F11122571C2008B
:015CE8002299
:101D1700E490020AF0A37406F0A314F0A3121BEBDD
:101D270000000000900211121BEB0000000090025F
:101D37007DE0707B90027CE070089002B074210215
:101D470021E612631C7BFF7A0579DAE4900225F01D
:101D57007D047F01124D927BFF7A0579FAE49002A8
:101D670025F07D057F01124D927BFF7A06791AE4F3
:101D7700900225F07D067F01124D927BFF7A06794E
:101D87003AE4900225F07D077F01124D927BFF7A9E
:101D970006795AE4900225F07D087F01124D927B67
:101DA700FF7A5679ECE490021BF07D11021E3D90FC
:101DB700027DE064036003021E4A12631C7BFF7A04
:101DC7000579DAE4900225F07D047F01124D927BBC
:101DD700FF7A0579FAE4900225F07D057F01124D1F
:101DE700927BFF7A06791AE4900225F07D067F013F
:101DF700124D927BFF7A08797AE4900225F07D07ED
:101E07007F01124D927BFF7A06793AE4900225F022
:101E17007D087F01124D927BFF7A06795AE4900282
:101E270025F07D097F01124D927BFF7A5679ECE40C
:101E370090021BF07D137F01125D4A90020AE0FFBA
:101E47001243F9125F3F900209EFF060F6E0FEB42B
:101E570001089002B074100221E6EE6403704F90FF
:101E6700020BE0FF04F0D3EF648094865038E0253E
:101E7700E0FFC374139FFD7BFF7A5679EEE490026F
:101E87001BF07F02125D4A90020DE0FCA3E0FDA368
:101E9700E0FEA3E0FFE47B0AFAF9F812609B9002E8
:101EA7000D121BDF802090020B7406F08018900241
:101EB70009E0FFB40506A3E014F0800AEFB40606B4
:101EC70090020AE004F090020AE0FFD36480948A4B
:101ED7004004E4F0800EC3EF6480948050069002C3
:101EE7000A740AF090020AE0FF1243F9900209E02F
:101EF70064026003021E4A90020BE0FF14F0D3EF66
:101F070064809480406790020DE0FCA3E0FDA3E0AD
:101F1700FEA3E0FFE47B0AFAF9F8121B6C90020DAE
:101F2700121BDF90020DE0F8A3E0F9A3E0FAA3E0AB
:101F3700FB90020AE0FF3395E0FEFDFCEB2FFFEA82
:101F47003EFEE93DFDE83CFC90020D121BDF9002CE
:101F57000BE025E0FFC374119FFD7BFF7A5679F0F4
:101F6700E490021BF07F02125D4A021E4A90027D36
:101F7700E0640360030220587402F090020DE0FC55
:101F8700A3E0FDA3E0FEA3E0FFA3121BDF9002186E
:101F970074C0F07B207D017F011225717BFF7A05DC
:101FA70079DAE4900225F07D037F01124D927BFFE1
:101FB7007A08799AE4900225F07D047F01124D9208
:101FC7007BFF7A0879BAE4900225F07D057F01123C
:101FD7004D927BFF7A0579FAE4900225F07D067F22
:101FE70001124D927BFF7A06791AE4900225F07D63
:101FF700077F01124D927BFF7A08797AE4900225D8
:10200700F07D087F01124D927BFF7A06793AE490C2
:102017000225F07D097F01124D927BFF7A06795ADE
:10202700E4900225F07D0A7F01124D927BFF7A56DC
:1020370079ECE490021BF07D157F01125D4A900256
:102047000B7406F090020D121BEB00000000021E3D
:102057004A90027DE064026003022116900211E0BB
:10206700FCA3E0FDA3E0FEA3E0FF90020DE0F8A3D0
:10207700E0F9A3E0FAA3E0FBC3121BC970129002B8
:10208700B07421F0A37450F090027D7401F0FF2228
:1020970090021874C0F07B107D017F111225717BAF
:1020A700FF7A06793AE4900225F07D057F02124D0A
:1020B700927BFF7A06795AE4900225F07D067F022B
:1020C700124D927BFF7A0879DAE4900225F07D07BA
:1020D7007F02124D927BFF7A0879FAE4900225F08D
:1020E7007D087F02124D927BFF7A5679F2E49002C7
:1020F7001BF07D117F02125D4A12656E9002B0746B
:1021070021F0A37450F090027D7404F07F002290B8
:10211700027DE06003021E4AA3E0FCA3E0FDA3E00A
:10212700FEA3E0FF90020DE0F8A3E0F9A3E0FAA315
:10213700E0FBC3121BC9700C9002B07421F0A3E43A
:10214700F07F012290021874C0F07B107D017F118F
:102157001225717BFF7A06793AE4900225F07D0516
:102167007F02124D927BFF7A06795AE4900225F09E
:102177007D067F02124D927BFF7A06797AE4900200
:1021870025F07D077F02124D927BFF7A06799AE44C
:10219700900225F07D087F02124D927BFF7A5679D7
:1021A700F2E490021BF07D117F02125D4A12656E08
:1021B70090021874C0F07B1A7D017F11122571906F
:1021C700020B7406F090020D121BEB00000000904A
:1021D700020CE014F06003021E4A9002B07410F083
:0421E700A3E4F0FF7E
:0121EB0022D1
:105929009002097401F0E4A3F012631C0259CA122F
:105939005F3FEF60FA64016004EFB4050A9002B0BA
:105949007410F0A3E4F022EFB40320900209E014EC
:10595900F0E0FEC36480948150067406F0A3802CA5
:10596900EEB4040590020A80238026EFB40429903E
:105979000209E004F0E0FED36480948640077401D4
:10598900F0A3F0803CEEB4050890020A7401F0809F
:1059990030E490020AF08029EF64026004EFB40653
:1059A90020900209E0FF3395E0FEEFC4F8540FC8D8
:1059B90068FFEEC454F04844219002B0F0A3EFF020
:0F59C90022900209E0FFA3E0FD12106E02593890
:1055600090020A7401F012631C7BFF7A04797AE4DA
:10557000900225F07D047F01124D927BFF7A047921
:105580009AE4900225F07D057F01124D927BFF7A0F
:1055900003799AE4900225F07D067F01124D927BFB
:1055A000FF7A0379BAE4900225F07D077F01124D5E
:1055B0009290020AE0FF1246FD125F3F900209EF4F
:1055C000F060F6E0FFB401079002B074108054EF71
:1055D000B405079002B074218049EFB40313900220
:1055E0000AE014F0E0C364809480501A7402F080E2
:1055F00015900209E0B4040EA3E004F0E0D3648047
:1056000094824002E4F090020AE0FF1246FD90020C
:1056100009E0640270A3A3E09002B07004742180DA
:07562000027410F0A3E4F096
:015627002260
:10426B009002097403F0E4A3F012631C7BFF7A0144
:10427B0079DAE4900225F07D027F01124D927BFFEB
:10428B007A0179FAE4900225F07D037F01124D92B9
:10429B007BFF7A0679BAE4900225F07D047F011248
:1042AB004D927BFF7A0079BAE4900225F07D057F71
:1042BB0001124D927BFF7A0079BAE4900225F07DD2
:1042CB00067F01124D927BFF7A0079DAE49002258A
:1042DB00F07D077F01124D927BFF7A03799AE49070
:1042EB000225F07D087F01124D927BFF7A0379BA8C
:1042FB00E4900225F07D097F01124D920243E912F1
:10430B005F3FEF60FAB401089002B074100243E40F
:10431B00EFB40516900209E004F0E0D364809483B7
:10432B0050030243E9E4F00243E9EFB406179002AD
:10433B0009E014F0E0C36480948040030243E97405
:10434B0003F00243E9EF64037042900209E0FEB40C
:10435B000106A3E004F08018EEB4020990020AE013
:10436B00240AF0800BEEB4030790020AE02464F0F9
:10437B0090020AE0FEC3648094804008D3EE648010
:10438B0094E4405A90020A7464F08052EF64047013
:10439B0035900209E0FEB40106A3E014F08018EE9C
:1043AB00B4020990020AE024F6F0800BEEB4030786
:1043BB0090020AE0249CF090020AE0C3648094808F
:1043CB00501CE4F08018EFB40214900209E0900244
:1043DB00B07004742180027410F0A3E4F0229002F8
:0E43EB000AE0FF900209E0FD124EC502430AEF
:1040DC009002097403F0A37464F012631C7BFF7AE2
:1040EC000179DAE4900225F07D027F01124D927B7A
:1040FC00FF7A0179FAE4900225F07D037F01124DDD
:10410C00927BFF7A07793AE4900225F07D047F01D7
:10411C00124D927BFF7A0079BAE4900225F07D056E
:10412C007F01124D927BFF7A0079BAE4900225F060
:10413C007D067F01124D927BFF7A0079DAE49002C2
:10414C0025F07D077F01124D927BFF7A03799AE46B
:10415C00900225F07D087F01124D927BFF7A037946
:10416C00BAE4900225F07D097F01124D9202425B68
:10417C00125F3FEF60FAB401089002B07410024273
:10418C0056EFB40516900209E004F0E0D364809475
:10419C0083500302425BE4F002425BEFB4061790DB
:1041AC000209E014F0E0C364809480400302425B97
:1041BC007403F002425BEF64037042900209E0FE6C
:1041CC00B40106A3E004F08018EEB4020990020AD0
:1041DC00E0240AF0800BEEB4030790020AE024649A
:1041EC00F090020AE0FEC3648094804008D3EE6431
:1041FC008094E4405A90020A7464F08052EF640494
:10420C007035900209E0FEB40106A3E014F08018AA
:10421C00EEB4020990020AE024F6F0800BEEB4032F
:10422C000790020AE0249CF090020AE0C364809498
:10423C0080501CE4F08018EFB40214900209E09056
:10424C0002B07004742180027410F0A3E4F0229088
:0F425C00020AE0FF900209E0FD124EC502417C0C
:1028B70090020A7401F0780B7C02FD7BFF7A57794E
:1028C700957E007F09121A3912631C7BFF7A017902
:1028D700BAE4900225F07D047F01124D927BFF7AC6
:1028E7000479FAE4900225F07D057F01124D927B71
:1028F700FF7A0079FAE4900225F07D067F01124DF8
:10290700927BFF7A01791AE4900225F07D077F0117
:10291700124D927BFF7A03799AE4900225F07D08A5
:102927007F01124D927BFF7A0379BAE4900225F07A
:102937007D097F01124D92900211E0FEA3E0FFE4B2
:10294700FCFD900223121BDFE4900227F07B047D3D
:10295700087F02123F307BFF7A01797AE4900225E3
:10296700F07D057F02124D927BFF7A01799AE49000
:102977000225F07D067F02124D927BFF7A0179BA1C
:10298700E4900225F07D087F02124D927BFF7A5674
:1029970079ECE490021BF07D077F03125D4A7BFF11
:1029A7007A5679ECE490021BF07D0A7F03125D4AA8
:1029B7007BFF7A0479DAE4900225F07D087F031221
:1029C7004D927BFF7A0479FAE4900225F07D097F26
:1029D70003124D92122BDA125F3F900209EFF0605B
:1029E700F6E0FFB401089002B07410022BD5EFB4E3
:1029F700061690020AE004F0E0D36480948850033E
:102A0700022BBAE4F0022BBA900209E0FFB40515D5
:102A1700A3E014F0E0C3648094804003022BBA74EF
:102A270008F0022BBAEF64036003022AF890020A47
:102A3700E0FFB40210900212E004F070539002110C
:102A4700E004F0804BEFB40110900212E0240AF08A
:102A5700900211E03400F08037EFB40305900210C4
:102A6700802BEFB4040590020E8022EFB405059089
:102A7700020D8019EFB4060590020C8010EFB40721
:102A87000590020B8007EFB4080690020FE004F0F0
:102A9700D3900212E09433900211E0940840077437
:102AA70007F0A374D0F0900210E0D3940C400374A5
:102AB70001F090020EE0D3941F40037401F09002DE
:102AC7000DE0D394174002E4F090020CE0D3943B5E
:102AD7004002E4F090020BE0D3943B4002E4F09014
:102AE700020FE0D394075003022BBA7401F0022BB4
:102AF700BA900209E064046003022BBAA3E0FFB4B2
:102B07000208900212E024FF800AEFB4011090023D
:102B170012E024F6F0900211E034FFF08037EFB4B2
:102B27000305900210802BEFB4040590020E80225B
:102B3700EFB4050590020D8019EFB4060590020C5D
:102B47008010EFB4070590020B8007EFB4080690DA
:102B5700020FE014F0C3900212E094D0900211E04B
:102B6700940750077408F0A37433F0900210E0C381
:102B7700940150037401F090020EE0C394015003D6
:102B87007401F090020DE0D3941740037417F0908E
:102B9700020CE0D3943B4003743BF090020BE0D36C
:102BA700943B4003743BF090020FE0C39401500341
:102BB7007407F0122BDA900209E06402600302291D
:102BC700DEA3E09002B07004742180027410F0A3B9
:022BD700E4F028
:012BD90022D9
:1049BF009002097401F0E4A3F0D20390027DE06449
:1049CF0001706612631C9002097402F07BFF7A0378
:1049DF00799AE4900225F07D047F02124D927BFFBD
:1049EF007A0379BAE4900225F07D057F02124D9289
:1049FF007BFF7A0779FAE4900225F07D067F021299
:104A0F004D927BFF7A08791AE4900225F07D077F9B
:104A1F0002124D927BFF7A5679F2E490021BF07DE1
:104A2F000F7F02125D4A12656EE490027DF01263F1
:104A3F001C7BFF7A06793AE4900225F07D057F0111
:104A4F00124D927BFF7A06795AE4900225F07D068B
:104A5F007F01124D927BFF7A03799AE4900225F041
:104A6F007D077F01124D927BFF7A0379BAE49002A2
:104A7F0025F07D087F01124D92024B0B125F3FEF25
:104A8F0060FAB401028061EFB40312900209E014DE
:104A9F00F0C36480948050647403F0805FEFB404BB
:104AAF0011900209E004F0D364809483404EE4F047
:104ABF00804AEF64056004EFB4060C900209E064CD
:104ACF00017039B2038035EF64027030900209E053
:104ADF00FFB402109002B07420F0A3E4F090027DB6
:104AEF007403F022EFB403079002B074108008EF44
:104AFF00700A9002B07421F0A3E4F022A203E43311
:0C4B0F00FF900209E0FD123399024A8B6E
:1052D7009002097401F012631C7BFF7A07795AE484
:1052E700900225F07D047F01124D927BFF7A0779AA
:1052F7007AE4900225F07D057F01124D927BFF7ABB
:1053070003799AE4900225F07D067F01124D927B86
:10531700FF7A0379BAE4900225F07D077F01124DE9
:10532700920253B1125F3FEF60FAB401079002B0E7
:1053370074108071EFB405079002B074218066EF96
:10534700B40313900209E014F0E0C3648094805022
:10535700597402F08054EFB40412900209E004F08B
:10536700E0D3648094824042E4F0803EEF640270B0
:1053770039900209E0FF70079002B074218026EF90
:10538700B4011290027B7401F09002B07421F0A373
:10539700E4F0C2CB22EFB40211E490027BF0D2CB4F
:1053A7009002B07421F0A3E4F022900209E0FF120A
:0553B700485E02532BCB
:0165E2002296
:0550FC00900209EFF035
:10510100A37401F0EFF4600330010DE4900209F0A3
:1051110012631C123D7C803F900209E0FFB405063A
:10512100A3E004F0800AEFB4060690020AE014F04E
:1051310090020AE0FFD36480948340057401F080FB
:105141000EC3EF64809481500690020A7403F090BC
:10515100020AE0FF124FE190020C121BEB0000006B
:105161000A7F01125DA9125F3F900209EFF0606BA7
:1051710090020C121BEB0000000A7F01125DA99046
:105181000209E0FDB4020FA3E0FFEFC454F0900266
:10519100B0F0A3E4F022EDB401028047900209E0EF
:1051A100FFB40506A3E004F0800AEFB406069002FE
:1051B1000AE014F090020AE0FFD364809483400572
:1051C1007401F0800EC3EF64809481500690020A4E
:1051D1007403F090020AE0FF124FE17F011261FCBB
:0A51E100EF6083E49002B0F0A3F049
:0151EB0022A1
:103D7C00C20190020E743EF0A374FFF0A37409F01C
:103D8C00A3744AF07B2D7D017F01124B1B7BFF7AC4
:103D9C0000793AE4900225F07D057F01124D927B6B
:103DAC00FF7A00795AE4900225F07D067F01124DCE
:103DBC00927BFF7A0079BAE4900225F07D077F01AF
:103DCC00124D927BFF7A00797AE4900225F07D08FF
:103DDC007F01124D927BFF7A5679ECE490021BF036
:103DEC007D117F01125D4A12646C7BFF7A09793A6E
:103DFC00E490023FF07D177F01124C5E7BFF7A56F8
:103E0C0079F4E490021BF07D187F01125D4A7BFF70
:103E1C007A02799AE4900225F07D057F02124D9288
:103E2C007BFF7A0279BAE4900225F07D067F0212BC
:103E3C004D927BFF7A5679ECE490021BF07D0D7F5E
:103E4C0002125D4A7BFF7A0279DAE4900225F07D5A
:103E5C000A7F02124D927BFF7A0279FAE4900225D6
:103E6C00F07D0B7F02124D927BFF7A04797AE490FD
:103E7C000225F07D057F03124D927BFF7A04799A1F
:103E8C00E4900225F07D067F03124D927BFF7A565B
:103E9C0079ECE490021BF07D0D7F03125D4A7BFFF1
:103EAC007A0179DAE4900225F07D0A7F03124D92B3
:103EBC007BFF7A0179FAE4900225F07D0B7F0312E7
:103ECC004D927BFF7A03791AE4900225F07D027FF4
:103EDC0004124D927BFF7A03793AE4900225F07D2F
:103EEC00037F04124D927BFF7A03799AE4900225AA
:103EFC00F07D067F04124D927BFF7A0379BAE49031
:103F0C000225F07D077F04124D927BFF7A5679F6DD
:103F1C0090021B7401F07D137F04125D4A7D017FBA
:043F2C0037022EEB3F
:10314300D2017BFF7A0079BAE4900225F07D037FF8
:1031530001124D927BFF7A0079DAE4900225F07D2B
:10316300047F01124D927BFF7A0179DAE490022504
:10317300F07D057F01124D927BFF7A0179FAE4908D
:103183000225F07D067F01124D927BFF7A02791AA8
:10319300E4900225F07D077F01124D927BFF7A02B6
:1031A300793AE4900225F07D087F01124D927BFF6E
:1031B3007A02795AE4900225F07D097F01124D923B
:1031C3007BFF7A02797AE4900225F07D0A7F01126F
:1031D3004D92900291E0FEA3E0FFE4FCFD900223F8
:1031E300121BDFE4900227F07B047D0A7F02123F6B
:1031F300307BFF7A01797AE4900225F07D067F0225
:10320300124D92900290E0FFE4FCFDFE9002231227
:103213001BDFE4900227F07B027D0E7F02123F301A
:103223007BFF7A01799AE4900225F07D087F0212F0
:103233004D9290028EE0FFE4FCFDFE900223121BF0
:10324300DFE4900227F07B027D127F02123F307B86
:10325300FF7A0179BAE4900225F07D0A7F02124DCC
:103263009290028DE0FFE4FCFDFE900223121BDF2F
:10327300E4900227F07B027D067F03123F307BFF41
:103283007A5679ECE490021BF07D077F03125D4AC6
:1032930090028CE0FFE4FCFDFE900223121BDFE4AE
:1032A300900227F07B027D097F03123F307BFF7A78
:1032B3005679ECE490021BF07D0A7F03125D4A907D
:1032C300028BE0FFE4FCFDFE900223121BDFE4907F
:1032D3000227F07B027D0C7F03123F307BFF7A04D1
:1032E30079DAE4900225F07D087F03124D927BFF8B
:1032F3007A0479FAE4900225F07D097F03124D9256
:1033030090028FE014B40700506590331B75F003EF
:10331300A4C58325F0C583730233300233380233E7
:10332300400233480233500233580233607BFF7A42
:1033330005791A802E7BFF7A05793A80267BFF7AFE
:1033430005795A801E7BFF7A05797A80167BFF7A8E
:1033530005799A800E7BFF7A0579BA80067BFF7A1E
:1033630004795AE4900225F07D0A7F03124D9212EC
:1033730064847BFF7A09793AE490023FF07D0F7F02
:1033830004124C5E7BFF7A5679F4E490021BF07DC5
:06339300107F04025D4AF8
:104FE100EF24FE606314700302509F2402600302E9
:104FF10050FB7BFF7A03791AE4900225F07D027F52
:1050010004124D927BFF7A03793AE4900225F07DF8
:10501100037F04124D927BFF7A03799AE490022573
:10502100F07D067F04124D927BFF7A0379BAE490FA
:105031000225F07D077F04124D927BFF7A5679F6A7
:1050410090021B74010250F37BFF7A03791AE490FA
:105051000225F07D027F04124D927BFF7A03793A9B
:10506100E4900225F07D037F04124D927BFF7A03C9
:10507100799A9002257401F07D067F04124D927B8E
:10508100FF7A0379BA9002257401F07D077F04123B
:105091004D927BFF7A5679F6E490021B80547BFF98
:1050A1007A03791A9002257401F07D027F04124D72
:1050B100927BFF7A03793A9002257401F07D037F98
:1050C10004124D927BFF7A03799AE4900225F07DD8
:1050D100067F04124D927BFF7A0379BAE490022590
:1050E100F07D077F04124D927BFF7A5679F6E490AA
:0B50F100021BF07D137F04125D4A22B9
:1043F900900215EFF07BFF7A5679FB700690021B4D
:10440900048004E490021BF07D037F03125D4A904F
:104419000215E07BFF7A5679FDB4010790021B74FF
:10442900018004E490021BF07D057F03125D4A9030
:104439000215E07BFF7A5679FFB4020790021B74DC
:10444900018004E490021BF07D077F03125D4A900E
:104459000215E07BFF7A577901B4030790021B74B8
:10446900018004E490021BF07D097F03125D4A90EC
:104479000215E07BFF7A577903B4040790021B7495
:10448900018004E490021BF07D0B7F03125D4A90CA
:104499000215E07BFF7A577905B4050790021B7472
:1044A900018004E490021BF07D0D7F03125D4A90A8
:1044B9000215E07BFF7A577907B4060790021B744F
:1044C900018004E490021BF07D0F7F03125D4A9086
:1044D9000215E07BFF7A577909B4070790021B742C
:1044E900018004E490021BF07D117F03125D4A9064
:1044F9000215E07BFF7A57790BB4080790021B7409
:10450900018004E490021BF07D137F03125D4A9041
:104519000215E07BFF7A57790DB4090790021B74E5
:10452900018004E490021BF07D157F03125D4A901F
:104539000215E07BFF7A0379DAB40A1A900225742E
:1045490001F07D0A7F04124D927BFF7A0379FA907C
:10455900022574018016E4900225F07D0A7F041279
:104569004D927BFF7A0379FAE4900225F07D0B7F67
:0545790004124D922226
:1046FD0090020BEFF064017BFF7A5679FD703E90CE
:10470D00021B04F0FD7F02125D4A7BFF7A57790F81
:10471D0090021B7401F07D027F02125D4A7BFF7ACD
:10472D000179DA9002257401F07D027F02124D921B
:10473D007BFF7A0179FA9002257401803AE49002A8
:10474D001BF07D017F02125D4A7BFF7A57790FE4E2
:10475D0090021BF07D027F02125D4A7BFF7A017988
:10476D00DAE4900225F07D027F02124D927BFF7AF2
:10477D000179FAE4900225F07D037F02124D9290AB
:10478D00020BE064027BFF7A5679FF703E90021BAC
:10479D0004F0FD7F03125D4A7BFF7A57790F90027B
:1047AD001B7401F07D027F03125D4A7BFF7A047951
:1047BD00BA9002257401F07D027F03124D927BFFAA
:1047CD007A0179FA9002257401803AE490021BF087
:1047DD007D017F03125D4A7BFF7A57790FE49002CA
:1047ED001BF07D027F03125D4A7BFF7A0479BAE4E8
:1047FD00900225F07D027F03124D927BFF7A0179A5
:10480D00FAE4900225F07D037F03124D9290020B86
:10481D00E07BFF7A0379DA701990022504F07D0AA6
:10482D007F04124D927BFF7A0379FA900225740171
:10483D008016E4900225F07D0A7F04124D927BFFD5
:10484D007A0379FAE4900225F07D0B7F04124D92E4
:01485D002238
:10485E0090020AEFF064017BFF7A5679FD703E906C
:10486E00021B04F0FD7F02125D4A7BFF7A57790F1F
:10487E0090021B7401F07D027F02125D4A7BFF7A6B
:10488E000179DA9002257401F07D027F02124D92B9
:10489E007BFF7A0179FA9002257401803AE4900246
:1048AE001BF07D017F02125D4A7BFF7A57790FE480
:1048BE0090021BF07D027F02125D4A7BFF7A017926
:1048CE00DAE4900225F07D027F02124D927BFF7A90
:1048DE000179FAE4900225F07D037F02124D929049
:1048EE00020AE064027BFF7A5679FF703E90021B4B
:1048FE0004F0FD7F03125D4A7BFF7A57790F900219
:10490E001B7401F07D027F03125D4A7BFF7A0179F1
:10491E005A9002257401F07D027F03124D927BFFA7
:10492E007A09791A9002257401803AE490021BF0FC
:10493E007D017F03125D4A7BFF7A57790FE4900267
:10494E001BF07D027F03125D4A7BFF7A01795AE4E8
:10495E00900225F07D027F03124D927BFF7A09793A
:10496E001AE4900225F07D037F03124D9290020A05
:10497E00E07BFF7A0379DA701990022504F07D0A44
:10498E007F04124D927BFF7A0379FA90022574010F
:10499E008016E4900225F07D0A7F04124D927BFF73
:1049AE007A0379FAE4900225F07D0B7F04124D9282
:0149BE0022D6
:054EC50090020BEDF06E
:104ECA00EF75F06484A3F0EF75F00A8475F00A8434
:104EDA00A3E5F0F0EF75F00A84A3E5F0F090020C78
:104EEA00E0FFBD0313E4FCFDFE900223121BDF90DA
:104EFA0002277401F0FB8011E4FCFDFE90022312EC
:104F0A001BDFE4900227F07B017D0A7F02123F300B
:104F1A0090020BE090020DB40215E0FFE4FCFDFEE6
:104F2A00900223121BDF9002277401F0FB8013E02A
:104F3A00FFE4FCFDFE900223121BDFE4900227F03F
:104F4A007B017D0B7F02123F3090020BE090020E34
:104F5A00B40115E0FFE4FCFDFE900223121BDF9072
:104F6A0002277401F0FB8013E0FFE4FCFDFE9002CF
:104F7A0023121BDFE4900227F07B017D0C7F0212D3
:104F8A003F3090020BE07BFF7A0379DA70199002C6
:104F9A002504F07D0A7F04124D927BFF7A0379FA89
:104FAA0090022574018016E4900225F07D0A7F04A0
:104FBA00124D927BFF7A0379FAE4900225F07D0B79
:104FCA007F04124D927BFF7A577911E490021BF00D
:074FDA007D0D7F02025D4A1C
:102BDA0078147C027D017B017A02790B7E007F09E1
:0B2BEA00121A3990020AE090021DF060
:102BF50090021AE0FAA3E0FB7C007D0AFFAE021208
:102C05001AEB7C007D0A121AEB90021EEDF07C0097
:102C15007D0AAF03AE02121AEBA3EDF090021DE0A0
:102C2500B40116A3E0FFE4FCFDFE900223121BDFB6
:102C35009002277401F0FB801690021EE0FFE4FC71
:102C4500FDFE900223121BDFE4900227F07B017D3D
:102C5500077F02123F3090021DE090021FB402155B
:102C6500E0FFE4FCFDFE900223121BDF90022774B7
:102C750001F0FB8013E0FFE4FCFDFE900223121B34
:102C8500DFE4900227F07B017D087F02123F309040
:102C9500021DE0900219B40313E0FFE4FCFDFE9071
:102CA5000223121BDF90022774018010E0FFE4FC71
:102CB500FDFE900223121BDFE4900227F07B027DCC
:102CC5000C7F02123F3090021DE0900217B40413EE
:102CD500E0FFE4FCFDFE900223121BDF9002277447
:102CE500018010E0FFE4FCFDFE900223121BDFE4EF
:102CF500900227F07B027D107F02123F3090021D6B
:102D0500E0900216B40513E0FFE4FCFDFE900223FB
:102D1500121BDF90022774018010E0FFE4FCFDFE2A
:102D2500900223121BDFE4900227F07B027D067FD1
:102D350003123F3090021DE0900215B40613E0FF28
:102D4500E4FCFDFE900223121BDF90022774018034
:102D550010E0FFE4FCFDFE900223121BDFE490026D
:102D650027F07B027D097F03123F3090021DE09022
:102D75000214B40713E0FFE4FCFDFE900223121BCE
:102D8500DF90022774018010E0FFE4FCFDFE900255
:102D950023121BDFE4900227F07B027D0C7F0312D8
:102DA5003F3090021DE06408706E900218E014B484
:102DB50007004003022EA7902DCA75F003A4C58312
:102DC50025F0C58373022DDF022DE7022DEF022DBD
:102DD500F7022DFF022E07022E0F7BFF7A05791AC7
:102DE500802E7BFF7A05793A80267BFF7A05795A12
:102DF500801E7BFF7A05797A80167BFF7A05799AA2
:102E0500800E7BFF7A0579BA80067BFF7A04795AB2
:102E15009002257401022E9F900218E014B4070059
:102E25004003022EA7902E3875F003A4C58325F024
:102E3500C58373022E4D022E59022E65022E710294
:102E45002E7D022E89022E957BFF7A05791AE49054
:102E5500022580467BFF7A05793AE4900225803A7F
:102E65007BFF7A05795AE4900225802E7BFF7A054F
:102E7500797AE490022580227BFF7A05799AE4909D
:102E8500022580167BFF7A0579BAE4900225800A2F
:102E95007BFF7A04795AE4900225F07D0A7F0312BC
:102EA5004D9290021DE07BFF7A0379DA701990024A
:102EB5002504F07D0A7F04124D927BFF7A0379FA8F
:102EC50090022574018016E4900225F07D0A7F04A6
:102ED500124D927BFF7A0379FAE4900225F07D0B7F
:052EE5007F04124D9274
:012EEA0022C5
:1033990090020BEFF0A3EDF06401704790020BE08F
:1033A9007BFF7A01793A60199002257401F07D0654
:1033B9007F02124D927BFF7A01795AE490022580AF
:1033C90017E4900225F07D067F02124D927BFF7A69
:1033D90001795A9002257401F07D077F02124D92FE
:1033E9000234A990020BE07BFF7A01793A6057E435
:1033F900900225F07D067F02124D927BFF7A0179BA
:103409005AE4900225F07D077F02124D9290021234
:103419007401F07B107D517F111221EC900212741E
:1034290010F07B017D517F111221EC900212740181
:10343900F07B107D617F111221EC9002127410F063
:103449007B017D518055E4900225F07D067F0212B3
:103459004D927BFF7A01795AE4900225F07D077F2E
:1034690002124D929002127401F07B107D617F115E
:103479001221EC9002127410F07B017D617F111210
:1034890021EC9002127401F07B107D707F111221E2
:10349900EC9002127410F07B017D617F201221EC07
:1034A90090020CE064027BFF7A07799A703F9002E0
:1034B9002504F07D057F03124D927BFF7A0779BAC7
:1034C9009002257401F07D067F03124D927BFF7AED
:1034D90006793A9002257401F07D077F03124D9217
:1034E9007BFF7A06795A9002257401803AE49002AA
:1034F90025F07D057F03124D927BFF7A0779BAE4A7
:10350900900225F07D067F03124D927BFF7A0679A2
:103519003AE4900225F07D077F03124D927BFF7AF2
:1035290006795AE4900225F07D087F03124D9290A6
:10353900020CE07BFF7A0379DA701990022504F016
:103549007D0A7F04124D927BFF7A0379FA90022556
:1035590074018016E4900225F07D0A7F04124D92D1
:103569007BFF7A0379FAE4900225F07D0B7F041240
:103579004D9290020CE07BFF7A08793AB4031A90D5
:1035890002257401F07D027F04124D927BFF7A08B7
:10359900795A90022574018016E4900225F07D0283
:1035A9007F04124D927BFF7A08795AE4900225F044
:0835B9007D037F04124D9222F4
:10106E0090020BEFF0ED600312631C90020BE0FF99
:10107E00C3648094854003021562EF64017BFF7A9E
:10108E005679FD706390021B04F0FDFF125D4A7BE2
:10109E00FF7A57790F90021B7401F07D02FF125DEB
:1010AE004A7BFF7A04797A9002257401F07D02FF63
:1010BE00124D927BFF7A04799A9002257401F07D8D
:1010CE0003FF124D927BFF7A03799A9002257401E9
:1010DE00F07D04FF124D927BFF7A0379BA900225C0
:1010EE007401F07D05FF8063E490021BF07D017FAB
:1010FE0001125D4A7BFF7A57790FE490021BF07D57
:10110E00027F01125D4A7BFF7A04797AE490022510
:10111E00F07D027F01124D927BFF7A04799AE49062
:10112E000225F07D037F01124D927BFF7A03799A9F
:10113E00E4900225F07D047F01124D927BFF7A032D
:10114E0079BAE4900225F07D057F01124D9290024E
:10115E000BE064027BFF7A5679FF600302121E9049
:10116E00021B04F0FD7F02125D4A7BFF7A57790F56
:10117E0090021B7401F07D027F02125D4A7BFF7AA2
:10118E000179DA9002257401F07D027F02124D92F0
:10119E007BFF7A0179FA9002257401F07D037F02BC
:1011AE00124D927BFF7A0679BA9002257401F07D7A
:1011BE00047F02124D927BFF7A0079BA9002257459
:1011CE0001F07D057F02124D927BFF7A0079BA9075
:1011DE0002257401F07D067F02124D927BFF7A008C
:1011EE0079DA9002257401F07D077F02124D927B11
:1011FE00FF7A03799A9002257401F07D087F02121E
:10120E004D927BFF7A0379BA90022574010212C4C3
:10121E00E490021BF07D017F02125D4A7BFF7A573C
:10122E00790FE490021BF07D027F02125D4A7BFF74
:10123E007A0179DAE4900225F07D027F02124D9256
:10124E007BFF7A0179FAE4900225F07D037F02128A
:10125E004D927BFF7A0679BAE4900225F07D047FE9
:10126E0002124D927BFF7A0079BAE4900225F07D4E
:10127E00057F02124D927BFF7A0079BAE490022527
:10128E00F07D067F02124D927BFF7A0079DAE490B0
:10129E000225F07D077F02124D927BFF7A03799A29
:1012AE00E4900225F07D087F02124D927BFF7A03B7
:1012BE0079BAE4900225F07D097F02124D929002D8
:1012CE000BE064037BFF7A577901600302138E9063
:1012DE00021B04F0FD7F03125D4A7BFF7A57790FE4
:1012EE0090021B7401F07D027F03125D4A7BFF7A30
:1012FE000179DA9002257401F07D027F03124D927E
:10130E007BFF7A0179FA9002257401F07D037F0349
:10131E00124D927BFF7A07793A9002257401F07D87
:10132E00047F03124D927BFF7A0079BA90022574E6
:10133E0001F07D057F03124D927BFF7A0079BA9002
:10134E0002257401F07D067F03124D927BFF7A0019
:10135E0079DA9002257401F07D077F03124D927B9E
:10136E00FF7A03799A9002257401F07D087F0312AB
:10137E004D927BFF7A0379BA9002257401021434E0
:10138E00E490021BF07D017F03125D4A7BFF7A57CA
:10139E00790FE490021BF07D027F03125D4A7BFF02
:1013AE007A0179DAE4900225F07D027F03124D92E4
:1013BE007BFF7A0179FAE4900225F07D037F031218
:1013CE004D927BFF7A07793AE4900225F07D047FF7
:1013DE0003124D927BFF7A0079BAE4900225F07DDC
:1013EE00057F03124D927BFF7A0079BAE4900225B5
:1013FE00F07D067F03124D927BFF7A0079DAE4903E
:10140E000225F07D077F03124D927BFF7A03799AB6
:10141E00E4900225F07D087F03124D927BFF7A0344
:10142E0079BAE4900225F07D097F03124D92900265
:10143E000BE064047BFF7A57790360030214D890A3
:10144E00021B04F0FD7F04125D4A7BFF7A57790F71
:10145E0090021B7401F07D027F04125D4A7BFF7ABD
:10146E000179BA9002257401F07D027F04124D922B
:10147E007BFF7A0479FA9002257401F07D037F04D4
:10148E00124D927BFF7A0079FA9002257401F07D5D
:10149E00047F04124D927BFF7A01791A9002257413
:1014AE0001F07D057F04124D927BFF7A03799A90AD
:1014BE0002257401F07D067F04124D927BFF7A03A4
:1014CE0079BA900225740102155AE490021BF07D40
:1014DE00017F04125D4A7BFF7A57790FE490021B5D
:1014EE00F07D027F04125D4A7BFF7A0179BAE490A7
:1014FE000225F07D027F04124D927BFF7A0479FA69
:10150E00E4900225F07D037F04124D927BFF7A005A
:10151E0079FAE4900225F07D047F04124D927BFF50
:10152E007A01791AE4900225F07D057F04124D921E
:10153E007BFF7A03799AE4900225F07D067F0412F0
:10154E004D927BFF7A0379BAE4900225F07D077FF6
:10155E000402170E90020BE064057BFF7A577905A3
:10156E00706390021B04F0FDFF125D4A7BFF7A57F9
:10157E00790F90021B7401F07D02FF125D4A7BFF12
:10158E007A06793A9002257401F07D02FF124D928F
:10159E007BFF7A06795A9002257401F07D03FF12C3
:1015AE004D927BFF7A03799A9002257401F07D04A7
:1015BE00FF124D927BFF7A0379BA9002257401F0E7
:1015CE007D05FF8063E490021BF07D017F01125DBB
:1015DE004A7BFF7A57790FE490021BF07D027F0160
:1015EE00125D4A7BFF7A06793AE4900225F07D027D
:1015FE007F01124D927BFF7A06795AE4900225F014
:10160E007D037F01124D927BFF7A03799AE490025B
:10161E0025F07D047F01124D927BFF7A0379BAE4A7
:10162E00900225F07D057F01124D9290020BE06431
:10163E00067BFF7A577907706490021B04F0FD7FDA
:10164E0002125D4A7BFF7A57790F90021B7401F0EC
:10165E007D027F02125D4A7BFF7A07795A9002253E
