:10317800436865636B205349343433322E2E2E0D49
:103188000A004445564943455F545950453A203052
:103198007825782E0D0A000D0A0044455649434506
:1031A8005F56455253494F4E3A20307825782E0DB8
:1031B8000A004445564943455F5354415455533AD0
:1031C8002061742069646C65206D6F64652E0D0A3A
:1031D800004445564943455F5354415455533A209A
:1031E8006174205258206D6F64652E0D0A004445A5
:1031F800564943455F5354415455533A206174200E
:103208005458206D6F64652E0D0A004372797374EB
:10321800616C204F7363696C6C61746F72204C6FC2
:1032280061642043617061636974616E63653A200B
:1032380025780D0A0053493434333220494F204948
:103248006E69742E2E2E2E2E2E0D0A00494F2049FF
:103258006E697420636F6D706C657465642E0D0AF9
:1032680000534934343332206973206E6F742066FA
:103278006F756E642E2E2E2E2E2E0D0A0053493495
:10328800343332204750494F496E697420636F6D5B
:10329800706C6574652C636F6E666967206465760B
:1032A8006963652E2E2E2E2E2E0D0A00436F6E6634
:1032B80069672052462E2E2E2E2E2E0D0A005349B7
:1032C80034343332496E697420636F6D706C657481
:1032D800652E0D0A005349343433325F5365742028
:1032E80052784D6F64652E2E2E2E2E2E0D0A005309
:1032F80049343433325F5365742054784D6F6465B4
:103308002E2E2E2E2E2E0D0A005349343433325FC2
:103318005365742049646C654D6F64652E2E2E2E9E
:103328002E2E0D0A005349343433325F53656E64D0
:10333800204649464F20646174612E2E2E2E0D0AB8
:10334800002072657620496E746572727570740D0E
:103358000A002073656E6420496E74657272757018
:10336800740D0A006D6F6465207265676973746512
:05337800723A0D0A008D
:1058CE00D3EF9400EE64809480400F7D817C14DCD5
:0A58DE00FEDDFAEF1F70E91E80E600
:0158E800229D
:075AD700C2C3D2B3D2B22218
:095814009002ADEFF07D017F0E62
:10581D0090020EEDF0C2B3EF4480FF125A61900278
:09582D000EE0FF125A61D2B32211
:0759E3009002ACEFF07F041D
:0C59EA00C2B3125A617FFF125A61D2B39F
:0159F600228E
:104C5F007BFF7A317978125A0BE4FF1259EA9002EE
:104C6F0009EFF07BFF7A31798A125A0B900209E033
:104C7F00FF1256B07BFF7A31799F125A0B900209BF
:104C8F00E0640860037F01227F011259EA90020954
:104C9F00EFF07BFF7A3179A2125A0B900209E0FFF5
:104CAF001256B07BFF7A31799F125A0B7F0212593D
:104CBF00EA900209EFF0540F70087BFF7A3179BA4E
:104CCF008022900209E0540FFFBF01087BFF7A3169
:104CDF0079D98010900209E0540FFFBF02097BFFC2
:104CEF007A3179F6125A0B7F091259EA900209EFBD
:104CFF00F07BFF7A327913125A0B900209E0FF1200
:0D4D0F0056B07BFF7A31799F125A0B7F005E
:014D1C002274
:104933007D537F7512581D7D4B7F7612581DE4FD04
:104943007F7712581D7D097F6E12581D7DD57F6FAD
:1049530012581D7D2C7F7012581D7D807F58125870
:104963001D7D1F7F6D12581D7D207F7212581D7D86
:104973002C7F1C12581D7D417F2012581D7D607FA6
:104983002112581D7D277F2212581D7D527F23122D
:10499300581DE4FD7F2412581D7D047F2512581DE8
:1049A3007D407F1D12581D7D0A7F1E12581D7D0FED
:1049B3007F2A12581D7D037F1F12581D7D607F695A
:1049C30012581D7D0C7F3412581D7D2A7F351258D5
:1049D3001D7D027F3312581D7D2D7F3612581D7D9C
:1049E300D47F3712581D7D8D7F3012581DE4FD7F13
:1049F3003212581D7D637F7112581D7DB47F0902E9
:024A0300581D3C
:104D1D007BFF7A32793D125A0B125AD77BFF7A32CA
:104D2D007954125A0B7F147E008013124C5FEF6082
:104D3D00127BFF7A327969125A0B7FF47E01125879
:104D4D00CE80E87DCA7F0B12581D7DCA7F0C12588C
:104D5D001D7DCA7F0D12581D7F0A7E001258CE7B15
:104D6D00FF7A327985125A0B7F031259EA1259E3F1
:104D7D009002ADEFF07D807F0712581D7F147E00ED
:104D8D001258CE7F031259EA1259E39002ADEFF09B
:104D9D007BFF7A3279B4125A0B1249337DFF7F05AE
:104DAD0012581D7DFF7F0612581D7F031259EA12FE
:104DBD0059E39002ADEFF07D077F0512581DE4FD1C
:0E4DCD007F0612581D7BFF7A3279C6025A0B00
:1058E9007F031259EA1259E31258147D057F0712F2
:0B58F900581D7BFF7A3279DD025A0B4C
:1057CC007F031259EA1259E39002ADEFF07D027F8C
:1057DC000E12581D7D097F0712581D7BFF7A3279F6
:0457EC00F7025A0B5B
:105904007F031259EA1259E31258147D017F0712DA
:0B591400581D7BFF7A337911025A0BFB
:1052030090020AEBF0A3EAF0A3E9F0900209EFF0B1
:01521300FD9D
:105214007F3E12581DE490020DF0900209E0FF90C9
:10522400020DE0FEC3EF6480F8EE64809850259090
:10523400020AE0FBA3E0FAA3E0F9EEFF3395E08F66
:1052440082F5831218D8FD7F7F12581D90020DE05D
:1052540004F080C61257CC7BFF7A33792D025A0BA7
:104F38007F071259EA900204EFF07F031259EA1230
:104F480059E39002ADEFF09002ACE030E15B7BFFFB
:104F58007A337949125A0B7F4B1259EA900205EFBE
:104F6800F0BF0C2EE4900204F0900205E0FF9002DE
:104F780004E0C39F501C7F7F1259EA900204E0248A
:104F880053F582E43402F583EFF0900204E004F074
:104F980080D77D027F0812581DE4FD7F0812581D36
:104FA8001258E99002517401F09002ACE030E20C22
:0C4FB8007BFF7A33795A125A0B1258E929
:014FC40022CA
:1057F0007F071259EA9002B2EFF07BFF7A33796C9F
:10580000125A0B9002B2E0FF1256B07BFF7A317948
:045810009F025A0B8E
:0C2F640049028100000001050107E000A7
:095AC600E4FB7D0E7FD002591FA4
:104AD700E4FD7FD0125954AD07ED54F0C4540F755F
:104AE700F00AA4FFED540F2F900281F07D017FD0D3
:104AF700125954AD07ED54F0C4540F75F00AA4FFD2
:104B0700ED540F2F900282F07D027FD0125954ADE1
:104B170007ED54F0C4540F75F00AA4FFED540F2F9E
:104B2700900283F07D047FD0125954AD07ED54F005
:104B3700C4540F75F00AA4FFED540F2F900284F0B0
:104B47007D037FD0125954900285EFF07D057FD009
:104B5700125954AD07ED5410C4540F75F00AA4FF51
:104B6700ED540F2F900286F07D067FD0125954AD79
:104B770007ED54F0C4540F75F00AA424D0FFE5F0F4
:104B87003407FEED540F7C002FFFEC3E900287F0B8
:034B9700A3EFF099
:014B9A0022F8
:104A0500900278E0FF75F00A84C454F0FEEF75F06B
:104A15000A84E5F02EFBE4FD7FD012591F90027940
:104A2500E0FF75F00A84C454F0FEEF75F00A84E5E2
:104A3500F02EFB7D017FD012591F90027AE0FF75A1
:104A4500F00A84C454F0FEEF75F00A84E5F02EFBFD
:104A55007D027FD012591F90027BE0FF75F00A841A
:104A6500C454F0FEEF75F00A84E5F02EFB7D047F5B
:104A7500D012591F90027CE0FB7D037FD012591F95
:104A850090027DE0FF75F00A84C454F0FEEF75F0E6
:104A95000A84E5F02EFB7D057FD012591F90027F19
:104AA500E02430FF90027EE034F8FE7C007D0A129F
:104AB500194BEFC4F8540FC868FFAB07E0FEA3E03D
:104AC500FF7C007D0A12194BEB2DFB7D067FD00282
:024AD500591F67
:1000260000000000000000000000000000000000CA
:10003600000000000018188888286A4E0CE8E808B6
:1000460008181800000444446525341C0E0F1D349E
:100056006444040000F8F888F8F81090901010FE38
:10006600FE101000001F1F081F1F00000343407FE3
:100076007F0000000020644C0800FEFE929292FE73
:10008600FE00000000303C0F437E7E7E7E427E7E78
:100096007E7E4000000000F8F828F8FAAEACA8F81A
:1000A600F82828000040703F4F42662E3A123A2E3A
:1000B6006642400000202020A0E060FFFFE0C06014
:1000C600381800002030180E0741C0FF7F010306D4
:1000D6000C1810100080C0F0FE0E9090121E1CD05E
:1000E600D01000000000007F7F40414F4E607C5FD3
:1000F6004340400000F8F888F8F81090901010FE81
:10010600FE101000001F1F081F1F00000343407F42
:100116007F0000000000F0F20EECE4242424E4E466
:1001260004FCFC0000007F7F000F0F0909090F4F38
:10013600407F7F0000808282FEFE82828282FEFEF7
:1001460082828000004060381F07000000007F7F29
:100156000000000000001010121E1CF0F0181E1601
:10016600101000000041416131190F07070F1931C6
:1001760061414100002038DFC7444444FCFC44444C
:10018600444404000404040707040404FFFF0404B1
:1001960004040404000000FEFE222222222222225F
:1001A600FEFE000080C0703F0F020202020242C241
:1001B600FF7F0000000000FEFE828282828282FEB5
:1001C600FE000000000000FFFF404040404040FFAE
:1001D600FF000000000000F8F88C8E8B898888F8F4
:1001E600F8000000000000FFFF444444444444FF7C
:1001F600FF0000004044C4C44444445010FFFF10B4
:1002060010F0F000103C3F1314BCF8703E0F41C0D4
:10021600C07F3F00101010FFFFB0B8D868290F2E1E
:1002260068E8B8180242C3FF7F40404242427E7EE1
:100236004242424040505E4E48FFFF484848F8F868
:1002460000FFFF0000003E3E02FFFF323E1E0F4F42
:10025600C0FF7F00000022323AAEA6E26331198960
:1002660081010000004262331B4BC2FE7E020A1A65
:10027600336746002030BCEF733088C8E8B99F8EDC
:10028600A8E8C888226767321292C0703F0F003F05
:100296007F40717100083830FFFF202020FFFF20CB
:1002A600222E2C2004040603FFFFC0703E0F071EFB
:1002B6003860C08000048484C46474DF9F3464C4DE
:1002C60084840400417939003C7C40424E4C4070A5
:1002D600740D3931101C4C643414050706041434AB
:1002E60064541C0C004040414141417F7F414141E3
:1002F6004140400000F8F943424242FAFA42424283
:1003060042FEFE0000FFFF080C06033F3F03064CBB
:10031600C8FF7F000000FEFE42424242FAFA424215
:1003260042C2C20280E07F9FC060381E070140C003
:10033600C07F3F000000F8F8888888FFFF8888881B
:10034600F8F80000808081C54C78303F2F6040402F
:10035600C181808090D27634FFFF3476D2F0FF8F51
:1003660008F8F808829ADE776372DE8E80C0733FE3
:100376003F73C0801010FFFF9090FEFE9292F2F243
:10038600929E9E8042C2FF7F81E07F1FFCFC474712
:1003960044FCFC00404042CECC40E0BE9E82829EA1
:1003A600BEA020200000003FBF98C8436F3C386EB7
:1003B60047C18080001717D5D557577D7D5757D52C
:1003C600D51717004040407F7F5555555555557FE9
:1003D6007F404040404042CECC00FCFCA4A42622F4
:1003E600A3E362000040603F3F785F57584D4747A0
:1003F6004D5850400000FEFE02F2F21212F2F202D6
:10040600FEFE000000007F7F2027272424272720C8
:100416007F7F000020305C4F57545454545454D4BA
:10042600D404040000000000000000000000000FDB
:100436003F70F0F08080C06030182CE7C70C183091
:1004460060C080800000000202020282C2623A1E80
:100456000600000040404242424242FEFE42424204
:10046600424240408080C060301C0F03030F1C30A6
:1004760060C080801010D0FFFF94F4EFAFA4A4AF4B
:10048600EFE40400040703FFFF89CB6B3A1E1E3A14
:100496006BCB8880101090909090909010FFFF107A
:1004A60011171610002060603F3F101010030F1C3C
:1004B6003060F8F800002424242424FCFE222223A1
:1004C60023220000020202020242C2FF7F0202024F
:1004D60002020202000000BEBE2A2AEAEA2A2A3ED8
:1004E6003E0000000044464B4949497F7F4949493F
:1004F600494140000004FFFF2424FFFF04FEFE22C2
:1005060022FEFE0088C86F2F0919BFEF783F0F4201
:10051600C2FF7F0080808080808080808080808095
:1005260080808080000000000000000000000000C5
:100536000000000000000808080808080808080865
:1005460008080000101010101010101010101010D5
:100556001010101000048484848484848484848429
:1005660084840400202020202020202020202020F9
:100576002020202000FCFC0404FCFC0404FCFC04F9
:1005860004FCFC00007F7F2C27232020202123222F
:10059600227F7F000002424242C2FE7E424242C2A7
:1005A600C202020040404040787F47404040407FC2
:1005B6007F40404020202020202021232E2C202058
:1005C60020202020004060301C0F0300000103069D
:1005D6001C7860004042CECC00445454547F7F5473
:1005E6005454444000007F7F3010FFFF151555D549
:1005F600FF7F000088E87FDFC818D8DC56D3D39683
:100606009CD8D010091919FFFF05FFFF92FFFF5F65
:10061600DFFF7F00000000000001E3FEFCE00000B9
:100626000000000080C060301C0F030000030F3C78
:1006360070C08080109CCC44E4E495B7E6643494A2
:10064600C4D49C0C02027A7B4143437E7E424243E1
:10065600FBF800000484E4FC5CC4C402F2F282826B
:10066600FEFE808002037F7F103F3F08080808488F
:10067600C8C87F3F4070FFEF646C487F7F48487F63
:100686007F48484001017F7F3111FFFF49494949B1
:10069600FFFF00004042CECC00809E9E9292929236
:1006A6009E9E800000007F7FB494C464341F1F3474
:1006B60064C48484101010FFFF9090F0F010FFFFC8
:1006C60010F0F0000444C6FF7F0100FFFF427F7F69
:1006D60042FFFF004040C0DF5F55D5D55555555FF9
:1006E6005F40404020607F3F3515FFFFD76F393DA3
:1006F6006FC3808020202020202020FFFF20202084
:10070600202020208080C060301C0F03030F1C3087
:1007160060C08080000000E0E00000FFFF000020D5
:1007260060C08000080C07030040C0FF7F00000087
:1007360000010F0E80E0F8FF0704747455575654F5
:10074600747404000000FFFF03030545C5FD7D0525
:1007560005050303206464B494BFBF809FBFA4A6AD
:10076600A23A3800000000FFFF0A0A0A0A4ACAFF36
:100776007F000000404042465CD8C07F7FC0D05812
:100786004E4640408080C060381F0700003F7F40D3
:10079600404078780000183C243C18000000000017
:1007A60000000000E0380C0602030101010101010E
:1007B6000101010101010101010101010101010123
:1007C6000101010101010101010101010101010113
:1007D600010302060C38E0404040404040404040A3
:1007E600C000FF0000000000000000000000000044
:1007F60000000000000000000000000000000000F3
:1008060000000000000000000000000000000000E2
:1008160000000000FF40C000000000000000FF00D4
:10082600FF000000000000000000000000000000C3
:1008360000000000000000000000000000000000B2
:1008460000000000000000000000000000000000A2
:100856000000FF00FF0000F0FFF00000FF00FF00B7
:100866000000000000000000000000000000000082
:100876000000000000000000000000000000000072
:100886000000000000000000000000000000000062
:10089600FF00FF001CFFFFFF1C00FF00FF800000A1
:1008A6000000000000000000000000000000000042
:1008B6000000000000000000000000000000000032
:1008C6000000000000000000000000000080FF7033
:1008D6005F0000FFFFFF00005F700003060C0818B2
:1008E6001010101010101010101010101010101002
:1008F60010101010101010101010101010101010F2
:100906001010101010101018080C161318080810E4
:100916001018081810101008000000000000000051
:100926000000000000000000000000F8F8000000D1
:10093600000030333300000000100C06100C0600D7
:1009460000000000000000004040F840F8400000B1
:10095600043E053F05040000007088FC08300000D6
:10096600001820FF211E0000F008F080700800002B
:1009760000211C031E211E0000F0887000000000EC
:100986001F2027281F211000000000000000000083
:1009960080B0F07000000000000000F0FC0E0200C5
:1009A6000000000F3F70400000061EF8E000000047
:1009B6000060781F070000004040C0F0F0C04040D3
:1009C6000202030F0F030202000000F0F000000015
:1009D6000101011F1F0101010002020604000000BF
:1009E6000000000000000000000000000000000001
:1009F60001010101010101000000000000000000EA
:100A0600003030300000000000000000C0F83C0C50
:100A16000060783F07010000E0F0180818F0E000D9
:100A26000F1F3020301F0F00001010F8F8000000D4
:100A36000020203F3F2020000070780808F8F000D2
:100A460000303C2E233130000030388888F87000A2
:100A560000183820313F1E000080C060F8F8000002
:100A6600060705243F3F240400F8F8888888080014
:100A760000193921313F1F00E0F098888898180046
:100A86000F1F3120313F1F0000383808E8F81800E2
:100A96000000003F3F00000070F8988898F870004A
:100AA6001E3F2121313F1E00F0F8080818F8E0002B
:100AB600313322323B1F07000000C0C0C0000000D7
:100AC6000000303030000000000000808000000090
:100AD600000080E060000000000080E07018080060
:100AE6000001030E1C3020004040404040404000C2
:100AF600040404040404040000083870C0800000E4
:100B06000020381C060301007078080818F8F00069
:100B16000000303737010000C0F0F8E8E8F8F0E0F0
:100B2600071F3F2727371F0B0000E0F8F8E00000FB
:100B3600203C3F23233F3C2008F8F88888F87000C3
:100B4600203F3F20313F1E00E0F0380808383800CB
:100B56000F1F30202030100008F8F80818F0E000C9
:100B6600203F3F20301F0F0008F8F888E8F81800EB
:100B7600203F3F202333300008F8F888E8E81810B3
:100B8600203F3F2003030000C0F038080838380033
:100B9600071F3820223E1E0208F8F80808F8F80851
:100BA600203F3F21213F3F20000808F8F8080800B1
:100BB6000020203F3F202000000808F8F808080021
:100BC600C0C080FF7F00000008F8F8C8E8381808A1
:100BD600203F3F21273E382008F8F8080000000093
:100BE600203F3F202030300008F8F800F8F80800D1
:100BF600203F003F003F200008F8F8F8C8F8F80842
:100C0600203F3F231F3F3F00E0F0180818F0E000A8
:100C16000F1F3020301F0F0008F8F80808F8F00002
:100C2600203F3F2101010000E0F0180818F0E00025
:100C36000F1F3C247C7F4F0008F8F88888F8700066
:100C4600203F3F21073E38200070F888081818001A
:100C560000303021233F1E00181808F8F80818182D
:100C66000000203F3F20000008F8F80808F8F808C0
:100C7600001F3F20203F1F000878F88888F8780872
:100C860000000F3F3F0F000008F8FCFCF8F8F808DA
:100C960000073F3F3F3F07000838F8E8E8F8180824
:100CA60020303C2F2F3E38200838F8C8C8F83808BE
:100CB6000000203F3F200000101808C8F838080040
:100CC600303C2F2320301000000000FEFE02020000
:100CD6000000007F7F404000001CFCE00000000098
:100CE600000000031F7C6000000202FEFE00000000
:100CF6000040407F7F00000000000406060400005C
:100D060000000000000000000000000000000000DD
:100D1600808080808080808010161E0E000000007B
:100D2600000000000000000000008080808080003D
:100D3600001D3D26223F3F2008F8F88080800000F5
:100D4600003F3F21203F1F00000080808080800000
:100D5600001F3F31203111000000808088F8F80024
:100D6600001F3F21203F3F20000080808080000040
:100D7600001F3F22223313008080F0F88898180065
:100D860000203F3F202000000000808080808000FF
:100D9600006BFF9497F3600008F8F880808080006D
:100DA600203F3F21203F3F20008080989800000090
:100DB6000020203F3F2020000000808098980000FF
:100DC60000C0C080FF7F000008F8F88080808000A7
:100DD600203F3F263F392000000808F8F8000000B1
:100DE6000020203F3F2020008080808080808080FF
:100DF600203F3F203F3F203F8080808080808000D2
:100E0600203F3F2100203F3F00008080808000007F
:100E1600001F3F31213F1F008080808080800000BE
:100E260080FFFFA1303F1F0000008080808080008F
:100E3600001F3F21A0FFFF8080808080808080008F
:100E460020203F3F2121010000008080808080001B
:100E560000333724243D1900008080E0E0808000C4
:100E66000000001F3F2020008080800080808000DE
:100E7600003F3F20203F3F20808080808080808010
:100E860000031F3C3C1F03008080C0C08080808020
:100E9600000F3F3F3F3F0F008080808080808000B2
:100EA60020313F2E3F3120008080808080808080EE
:100EB6008083CF7E3E0F010000808080808080008E
:080EC6000021393C2733300004
:102F700060C0000000000000000000000000000031
:102F80000000000000000000000000000000000041
:102F90000000000000000000000000000000000031
:102FA0000000000000000000000000000000000021
:102FB0000000000000000000000000000000000011
:102FC0000000000000000000000000000000000001
:102FD00000000000000000000000000000000000F1
:102FE00000000000000000000000000000000000E1
:102FF00000000000000000000000000000000000D1
:1030000000000000000000000000000000000000C0
:1030100000000000000000000000000000000000B0
:1030200000000000000000000000000000000000A0
:103030000000000060C000C00000000000000000B0
:103040000000000000000000000000000000000080
:103050000000000000000000000000000000000070
:103060000000000000000000000000000000000060
:103070000000000000000000000000000000000050
:103080000000000000000000000000000000000040
:103090000000000000000000000000000000000030
:1030A0000000000000000000000000000000000020
:1030B0000000000000000000000000000000000010
:1030C0000000000000000000000000000000000000
:1030D00000000000000000000000000000000000F0
:1030E00000000000000000000000000000000000E0
:0830F0000000000000000000D8
:045895007F057E000D
:10589900D3EF9400EE9400400F7D147C32DCFEDDE2
:0858A900FAEF1F70EB1E80E80E
:0158B10022D4
:105A3000D3EF9400EE94004007EF1F70F31E80F048
:015A40002243
:045AF60075BB6022FA
:1053C100900218E0FF900217E04440FBE4FD125305
:0C53D100DD90021BE044B8FBE4FD7F0708
:1053DD00EF30E002C2C2EF30E102C291EF30E202E3
:1053ED00C292D2C6ED6004D2C58002C2C5C2C1AFA1
:1053FD00038F80C2C6D2C2D291D2927F017E0002AB
:02540D005899AC
:0754A200900269E0FF7D01AB
:1054A9007580FFEFB40104C2C2800EEFB40204C2DA
:1054B900918006EFB40402C292ED6004D2C5800265
:1054C900C2C5D2C100D2C600AC80C2C6C2C1D2C256
:0D54D900D291D2927F017E00125A30AF04B2
:0154E60022A3
:0256E400A90714
:1056E600E4FBE930E009E4FD7F011254A9EFFBE990
:1056F60030E10AE4FD7F021254A9EB4FFBE930E2E8
:0F5706000AE4FD7F041254A9EB4FFBEB20E7D11F
:015715002271
:105A1E00C2CA7F507E00125899D2CA7FA07E000261
:025A2E00589985
:105836007F071256E4E4FAEA1253D6E4F9E4FB7D54
:10584600017F071253DD09E9B440F20AEAB408E71A
:01585600222F
:1057A300C2CB125895125A1E7B3E1253D9125895EA
:1057B3007BC01253D91258951258361258957B3F15
:0957C3001253D9125895D2CB22E1
:1054E7007F071256E47B40E4FD7F011253DD7BBA50
:1054F700E4FD7F011253DDE4FAE4F97BFF7D017FD0
:10550700011253DD09E9B440F27B40E4FD7F01124B
:1055170053DDEA240344B8FBE4FD7F011253DD0A9F
:04552700EAB401D50C
:01552B00225D
:10552C007F071256E47B40E4FD7F021253DD7BBA09
:10553C00E4FD7F021253DDE4FAE4F97BFF7D017F89
:10554C00021253DD09E9B440F27B40E4FD7F021204
:10555C0053DDEA240344B8FBE4FD7F021253DD0A59
:04556C00EAB401D5C7
:015570002218
:10441600900222EBF0A3EAF0A3E9F0900220EFF07D
:03442600A3EDF013
:10442900EF1425E0900220F0ED24FFFFE434FFFEB5
:10443900EF7802CEC313CE13D8F9FF700790022785
:1044490004F08016EFB401089002277402F0800A84
:10445900EFB402069002277404F0900221E014548C
:1044690003C454F0F0FE900227E0FFEE4440FBE461
:10447900FD1253DDE0FF900220E044B8FBE4FD1299
:1044890053DDE4900226F0900225E090022760189F
:10449900E0FF900222E0FBA3E475F0011219B6A92E
:1044A900F0FA1218BFF48015E0FF900222E0FBA396
:1044B900E475F0011219B6A9F0FA1218BFFB7D01D3
:1044C9001253DD900226E004F0E0C3941040B89046
:1044D9000227E0FF900221E04440FBE4FD1253DD96
:1044E900900227E0FF900220E00444B8FBE4FD12AB
:1044F90053DDE4900226F0900225E090022760182F
:10450900E0FF900222E0FBA3E475F0011219B6A9BD
:10451900F0FA1218BFF48015E0FF900222E0FBA325
:10452900E475F0011219B6A9F0FA1218BFFB7D0162
:0F4539001253DD900226E004F0E0C3941040B866
:014548002250
:0542DD00E090023FF03B
:1042E20090023CEBF0A3EAF0A3E9F090023AEFF07F
:0342F200A3EDF049
:1042F500EF1425E090023AF0ED24FFFFE434FFFED1
:10430500EF7803CEC313CE13D8F9FF70079002419F
:1043150004F08016EFB401089002417402F0800A9F
:10432500EFB402069002417404F090023BE014548D
:104335000775F008A4F0FE900241E0FFEE4440FB53
:10434500E4FD1253DDE0FF90023AE044B8FBE4FDE2
:104355001253DDE4900240F090023FE0900241608C
:1043650018E0FF90023CE0FBA3E475F0011219B6DA
:10437500A9F0FA1218BFF48015E0FF90023CE0FBAB
:10438500A3E475F0011219B6A9F0FA1218BFFB7D66
:10439500011253DD900240E004F0E0C3940840B8F8
:1043A500900241E0FF90023BE04440FBE4FD1253E4
:1043B500DD900241E0FF90023AE00444B8FBE4FDE1
:1043C5001253DDE4900240F090023FE0900241601C
:1043D50018E0FF90023CE0FBA3E475F0011219B66A
:1043E500A9F0FA1218BFF48015E0FF90023CE0FB3B
:1043F500A3E475F0011219B6A9F0FA1218BFFB7DF6
:10440500011253DD900240E004F0E0C3940840B887
:014415002284
:10526400900214EFF0A3EDF0A3EBF0A3EAF0A3E9AE
:10527400F0900216E0FBA3E0FAA3E0F91218BF6075
:105284003D75F010A4241EF9740735F0FA7BFF90E5
:105294000214E0FFA3E0FD9002191242DD90021512
:1052A400E004F0E0D3941840097401F0900214E093
:0F52B40004F0900217E475F0011219A080B322E4
:083D760090020BEFF0A3EDF049
:103D7E0078117C027D017BFF7A0079267E007F0A16
:103D8E00121899E490021BF0A37409F0E4A3F0A3B7
:103D9E00F0A3121A4B0000000190020DE0FCA3E00C
:103DAE00FDA3E0FEA3E0FFEC33501690021D74015C
:103DBE00F090020DA3A3A3E0121A1B90020D121A8B
:103DCE003F90020DE0FCA3E0FDA3E0FEA3E0FFECBC
:103DDE004D4E4F6074E47B0AFAF9F890020DA3A3DE
:103DEE00A3E01255B5AC00AD01AE02AF0390021FB9
:103DFE00121A3F90021FA3A3A3E02430FF90021BD0
:103E0E00E0FE04F074112EF582E43402F583EFF037
:103E1E0090020DE0FCA3E0FDA3E0FEA3E0FFE47B37
:103E2E000AFAF9F81255B590020D121A3F90021BBC
:103E3E00E06402708CE0FF04F074112FF582E4341C
:103E4E0002F583742EF0023DCF90021BE0D3940353
:103E5E00502AE0FF04F074112FF582E43402F5834A
:103E6E007430F090021BE0B402DFFF04F074112FE7
:103E7E00F582E43402F583742EF080CD90021DE0BD
:103E8E00601490021BE0FF04F074112FF582E434ED
:103E9E0002F583742DF0E490021CF090021BE0FFFB
:103EAE00A3E0FEC39F503F74112EF582E43402F559
:103EBE0083E075F010A4241EF9740735F0FA7BFF29
:103ECE0090020BE0FFA3E0FD14F0E41242DE90023C
:103EDE000CE0700A90020BE004F0A37418F090024C
:063EEE001CE004F080B5A9
:013EF40022AB
:0B38B300900220EFF0A3EDF0A3EBF07B
:1038BE0078287C027D017BFF7A0079307E007F0ABA
:1038CE00121899E4900232F0A37409F0E4A3F0A365
:1038DE00F0A3121A4B00000001900223E0FCA3E0BB
:1038EE00FDA3E0FEA3E0FFEC33501690023474010A
:1038FE00F0900223A3A3A3E0121A1B900223121A24
:10390E003F900222E0606F900222E0FF14F0EFD3AE
:10391E00940050030239F2E47B0AFAF9F8A3E0FCB2
:10392E00A3E0FDA3E0FEA3E0FF1255B5AC00AD0190
:10393E00AE02AF03900236121A3F900236A3A3A333
:10394E00E02430FF900232E0FE04F074282EF5825F
:10395E00E43402F583EFF0900223E0FCA3E0FDA334
:10396E00E0FEA3E0FFE47B0AFAF9F81255B59002E7
:10397E0023121A3F8091900223E0FCA3E0FDA3E006
:10398E00FEA3E0FFEC4D4E4F605AE47B0AFAF9F8C5
:10399E00900223A3A3A3E01255B5AC00AD01AE0275
:1039AE00AF03900236121A3F900236A3A3A3E0246F
:1039BE0030FF900232E0FE04F074282EF582E434DB
:1039CE0002F583EFF0900223E0FCA3E0FDA3E0FEFE
:1039DE00A3E0FFE47B0AFAF9F81255B59002231220
:1039EE001A3F8092900234E06014900232E0FF049D
:1039FE00F074282FF582E43402F583742DF0E490F0
:103A0E000233F0900232E0FFA3E0FEC39F504174F8
:103A1E00282EF582E43402F583E075F010A4241EFE
:103A2E00F9740735F0FA7BFF900220E0FFA3E0FD6A
:103A3E0014F09002271242DD900221E0700A9002EB
:103A4E0020E004F0A37418F0900233E004F080B389
:013A5E002245
:0A419F0090020CEDF0AC07A3EBF06A
:1041A900E4900218F0EB24FFFFE434FFFEEF7803FC
:1041B900CEC313CE13D8F90490020DF0EC24FFFFFF
:1041C900E434FFFEEF7803CEC313CE13D8F990027F
:1041D90014F090020CE0FF14543F900215F0FDEF2B
:1041E90024FFFFE434FFFEEF7806CEC313CE13D8C5
:1041F900F9FF7401A807088002C333D8FCFF9002B5
:1042090016F0900218F0ED4440FBE4FD1253DD90E6
:1042190002141253D5E4900212F090020DE0FF90BF
:104229000212E0C39F40030242DCE4A3F090020EB5
:10423900E0FF900213E0FEC39F506AEEFF90020C6C
:10424900E02FFFE433CF24FFCF34FFFEEF7806CE13
:10425900C313CE13D8F975F00384AFF07401A8071E
:10426900088002C333D8FCFF900217F0A3E06F6007
:104279000E900217E0FFA3F07B40E4FD1253DD909E
:104289000217E0FF90020FE0FBA3E475F001121999
:10429900B6A9F0FA1218BFFB7D011253DD90021383
:1042A900E004F08088900216E0FF900218F0900276
:1042B90015E04440FBE4FD1253DD900212E0FF904B
:1042C9000214E02F5407041253D6900212E004F0AE
:0342D9000242237B
:0142DC0022BF
:0F337D0090025FEFF0900261EBF0900260EDF0D4
:10338C00E490026BF0ED14543F900268F0FCED24D5
:10339C00FFFFE434FFFEEF7806CEC313CE13D8F94B
:1033AC00FF7401A807088002C333D8FCFF900269A0
:1033BC00F090026BF0EC4440FBE4FD1253DD900204
:1033CC005FE0141253D61254A2E4900266F09002FD
:1033DC0061E0FF900266E0C39F40030234ADE4A3BA
:1033EC00F0900262E0FF900267E0FEC39F40030290
:1033FC00347DEEFF900260E02FFFE433CF24FFCF4B
:10340C0034FFFEEF7806CEC313CE13D8F975F00354
:10341C0084AFF07401A807088002C333D8FCFF9076
:10342C00026AF0A3E06F600E90026AE0FFA3F07BEB
:10343C0040E4FD1253DD90026A1254A5AD079002D0
:10344C0062E0FF900266E08FF0A4FFA3E07A002F09
:10345C00FFEA35F0FE900263E0FBA3E0FAA3E0F98B
:10346C008F828E83ED121917900267E004F00233FD
:10347C00ED900269E0FF90026BF0900268E044402E
:10348C00FBE4FD1253DD900266E0FF90025FE02F3B
:10349C0054071253D61254A2900266E004F0023381
:1034AC00DA7F071256E4900268E04440FBE4FD7FAB
:1034BC00021253DD90025FE01444B8FBE4FD7F027E
:1034CC001253DDE4900266F0900261E0FF90026618
:1034DC00E0C39F506EE4A3F0900262E0FF9002679D
:1034EC00E0FDC39F5031900266E08FF0A47C002D6C
:1034FC00FFEC35F0FE900263E0FBA3E0FAA3E0F9E9
:10350C008F828E831218D8FB7D017F021253DD90BF
:10351C000267E004F080C1900268E04440FBE4FDE7
:10352C007F021253DD900266E0FF90025FE02F54A1
:10353C000744B8FBE4FD7F021253DD900266E00401
:03354C00F0808587
:01354F002259
:071EFC00900212EDF0AC07AB
:101F0300E490021AF0EC24FFFFE434FFFEEF7803C1
:101F1300CEC313CE13D8F990021BF0EC14540790E0
:101F2300021EF0EC2B145407A3F090021EE0FDFFF9
:101F3300EB2FFFE433FEEF7803CEC313CE13D8F9B0
:101F4300FFED2B540760047E0180027E00EE2FFF1D
:101F530090021DF090021BE02F14A3F0900212E0F8
:101F6300FD14543F900217F0ED24FFFFE434FFFE0D
:101F7300EF7806CEC313CE13D8F9FF7401A8070870
:101F83008002C333D8FC900218F090021AF090023A
:101F93001EE070030220541253C19002181254A57C
:101FA300E4900215F0900214E0FFA3E0FEC39F400B
:101FB3000302204CEEFF900212E02FFFE433CF2404
:101FC300FFCF34FFFEEF7806CEC313CE13D8F975D7
:101FD300F00384900216E5F0F0E0FF7401A807080F
:101FE3008002C333D8FCFF900219F0A3E06F600EA8
:101FF300900219E0FFA3F07B40E4FD1253DD900251
:10200300191254A5900215E0FE2400F582E4340071
:10201300F583EFF074002EF582E43400F583C0837A
:10202300C082E0FF90021EE0FEC374079EFE747F31
:10203300A806088003A2E713D8FB5FD082D083F001
:10204300900215E004F0021FA8900218E090021A13
:10205300F090021FE07003022125900218E0FF9028
:102063000217E04440FBE4FD1253DD90021C1253BF
:10207300D59002181254A5E4900215F0900214E0D2
:10208300FFA3E0FEC39F400302211DEEFF90021257
:10209300E02FFFE433CF24FFCF34FFFEEF7806CEEB
:1020A300C313CE13D8F975F00384900216E5F0F04C
:1020B300E0FF7401A807088002C333D8FCFF900235
:1020C30019F0A3E06F600E900219E0FFA3F07B40CC
:1020D300E4FD1253DD9002191254A5900215E0FE9F
:1020E30024C0F582E43400F583EFF074C02EF5824A
:1020F300E43400F583C083C082E0FF90021FE0FE5A
:1021030074FFA806088002C333D8FC5FD082D08353
:10211300F0900215E004F002207F900218E0900294
:102123001AF01253C1E4FA90021DE0FFEAC39F4084
:1021330003022241E4900215F0900214E0FFA3E0B1
:10214300FEC39F400302221DEEFF900212E02FFF09
:10215300E433CF24FFCF34FFFEEF7806CEC313CE94
:1021630013D8F975F00384900216E5F0F0E0FF74DC
:1021730001A807088002C333D8FCFF900219F0A31B
:10218300E06F600E900219E0FFA3F07B40E4FD12C4
:1021930053DD90021EE0F9602EA3E0602A90021D39
:1021A300E0B40123900219E0FF900215E0FE24C081
:1021B300F582E43400F583E0FD74002EF582E43407
:1021C30000F583E04D8044E96018EA701590021928
:1021D300E0FF900215E02400F582E43400F583E08B
:1021E300802990021FE0601D90021DE014B50215C6
:1021F300900219E0FF900215E024C0F582E4340058
:10220300F583E08006900219E0FFE4FB7D011253A1
:10221300DD900215E004F002213C900218E0FF90EB
:10222300021AF0900217E04440FBE4FD1253DD90E4
:0E223300021BE02A5407041253D60A02212A85
:01224100227A
:071B7700900210EDF0AC0735
:101B7E00E4900218F090021EF0EC24FFFFE434FF14
:101B8E00FEEF7803CEC313CE13D8F9900219F0EC02
:101B9E0014540790021CF0EC2B145407A3F090027F
:101BAE001CE0FDFFEB2FFFE433FEEF7803CEC313F3
:101BBE00CE13D8F9FFED2B540760047E0180027E10
:101BCE0000EE2FFF90021BF0900219E02F14A3F0ED
:101BDE00900210E0FD14543F900215F0ED24FFFF2B
:101BEE00E434FFFEEF7806CEC313CE13D8F9FF749C
:101BFE0001A807088002C333D8FC900216F09002A9
:101C0E0018F090021CE07003021CE7900216E0FF31
:101C1E00900215E04440FBE4FD1253DD90021912D0
:101C2E0053D59002161254A5E4900213F0900212AE
:101C3E00E0FFA3E0FEC39F4003021CDFEEFF900215
:101C4E0010E02FFFE433CF24FFCF34FFFEEF7806F2
:101C5E00CEC313CE13D8F975F00384900214E5F0B9
:101C6E00F0E0FF7401A807088002C333D8FCFF9090
:101C7E000217F0A3E06F600E900217E0FFA3F07B57
:101C8E0040E4FD1253DD9002171254A5900213E0AA
:101C9E00FE2400F582E43400F583EFF074002EF597
:101CAE0082E43400F583C083C082E0FF90021CE022
:101CBE00FEC374079EFE7480A806088003A2E71375
:101CCE00D8FB4FD082D083F0900213E004F0021CB8
:101CDE003B900216E0900218F090021DE070030295
:101CEE001DCA900216E0FF900215E04440FBE4FD91
:101CFE001253DD90021A1253D59002161254A5E417
:101D0E00900213F0900212E0FFA3E0FEC39F400387
:101D1E00021DC2EEFF900210E02FFFE433CF24FF2E
:101D2E00CF34FFFEEF7806CEC313CE13D8F975F07D
:101D3E000384900214E5F0F0E0FF7401A807088018
:101D4E0002C333D8FCFF900217F0A3E06F600E9031
:101D5E000217E0FFA3F07B40E4FD1253DD90021763
:101D6E001254A5900213E024C0F582E43400F583EA
:101D7E00EFF01D90021DE0FEEDC39E500AA3E0257C
:101D8E00E04401F00D80EC900213E024C0F582E4F3
:101D9E003400F583C083C082E0FF90021EE0FEEFA8
:101DAE004ED082D083F0E490021EF0900213E00435
:101DBE00F0021D12900216E0900218F0900216E04A
:101DCE00FF900215E04440FBE4FD1253DD90021932
:101DDE001253D5E4FA90021BE0FFEAC39F400302C0
:101DEE001EFBE4900213F0900212E0FFA3E0FEC38C
:101DFE009F4003021ED7EEFF900210E02FFFE43348
:101E0E00CF24FFCF34FFFEEF7806CEC313CE13D808
:101E1E00F975F00384900214E5F0F0E0FF7401A868
:101E2E0007088002C333D8FCFF900217F0A3E06FBF
:101E3E00600E900217E0FFA3F07B40E4FD1253DD2D
:101E4E0090021CE0F9602EA3E0602A90021BE0B421
:101E5E000123900217E0FF900213E0FE24C0F582EA
:101E6E00E43400F583E0FD74002EF582E43400F5D1
:101E7E0083E05D803CE96018EA7015900217E0FF80
:101E8E00900213E02400F582E43400F583E0802113
:101E9E0090021DE0601E90021BE014B50216900227
:101EAE0017E0FF900213E024C0F582E43400F583BE
:101EBE00E0FB8007900217E0FF7BFF7D011253DDF0
:101ECE00900213E004F0021DF5900216E0FF90025E
:101EDE0018F0900215E04440FBE4FD1253DD900231
:0D1EEE0019E02A5407041253D60A021DE31E
:011EFB0022C4
:10545900A2A282A082A482A182A382C84038125A41
:105469006EA2A282A082A482A182A382C840242023
:10547900A0037F012220A2037F022220A4037F062A
:105489002220A1037F052220C8037F032220A30332
:095499007F04227F00227F002223
:105A4100E4F5CF75CDC030030475CED02275CE40BC
:015A51002232
:0D5A61008FCFE5CD30E7FB75CDC0AFCF2274
:1059F700438920759840758DDC858D8BE4F587D2BA
:045A0700ACD28E226D
:085ACF008F993099FDC2992264
:0256B000AE0743
:1056B200EEC4540FFDC36480948AED5004243080FC
:1056C2000424F62461FF125ACFEE540FFDC3648006
:1056D200948AED50042430800424F62461FF125A87
:0156E200CFF8
:0156E30022A4
:075ADE00EF2430FF025ACF54
:105A0B001218BFFF600C125ACF740129F9E43AFA4D
:035A1B0080EE22F8
:0D5748009002A9EBF0A3EAF0A3E9F0AE0790
:10575500E4FDEDC39E501A9002A9E0FBA3E0FAA375
:10576500E0F98D827583001218D8FF125ACF0D808B
:01577500E152
:015776002210
:030023000258B2CE
:0658B200C0E0C083C082CB
:0F58B80030980CC298C2AF900203E599F0D2AFBE
:0758C700D082D083D0E03253
:065AE50000000000002299
:05000600D2B7D2B622C2
:06000E0012585712587D44
:0F001400D2B6D2B7125AE5C2B6125AE5C2B72217
:0C5AA200C2B6D2B7125AE5D2B6025AE5DD
:0658770012001412585744
:10587D00D2B7125AE530B608C2B7125AE57F0022E8
:08588D00C2B7125AE57F0122A7
:0C5AAE00C2B6D2B7125AE5C2B7025AE5E0
:0C5ABA00D2B6D2B7125AE5C2B7025AE5C4
:10585700E4FEEF30E703D38001C392B6EF25E0FF04
:0F586700D2B7125AE5C2B7125AE50EEEB408E3F3
:01587600220F
:10577700E4FED2B6FDEE25E0FED2B7125AE530B60A
:10578700034401FEC2B7125AE50DEDB408E7EF6016
:0B57970005125AAE8003125ABAAF068A
:0157A20022E4
:10591F00125877AC07AF0512585712587DAF0312C4
:0A592F00585712587D125AA2AF0417
:01593900224B
:02595400AC079E
:10595600125877AF0512000EEC04FF125857125872
:065966007DE4FF125777FB
:01596C002218
:10531E00AD07125877EF7006125AA27F0122900243
:10532E0096E0FF12000EED04FF12585712587D90B2
:10533E000297E0FF6026B4010BE4FF125777EF12DD
:10534E00190580107F01125777EF12190574012984
:10535E00F9E43AFA900297E014F080D3125AA27F41
:02536E0000221B
:1055F900125877EF7002801E90029CE0FF125857F4
:1056090012587D90029DE060221218BFFF12585770
:1056190012587DEF7006125AA27F0122740129F9EE
:10562900E43AFA90029DE014F080D8125AA27F0061
:01563900224E
:1030F8004102A4004102A5004102A6004102A70026
:043108004102A800D8
:0C5A6E007FB27E787D0CDDFEDEFADFF6F4
:015A7A002209
:0C5A7B007FB27EE67D0CDDFEDEFADFF679
:015A870022FC
:0C5A88007FD97EAB7D49DDFEDEFADFF643
:015A940022EF
:10571600EF24FE601214601714601C24037020909E
:1057260002A4E05401FF229002A4E05402FF22905A
:1057360002A4E05404FF229002A4E05408FF227F52
:0257460000223F
:1052C300EF24FE601D14602D14603D2403704B9089
:1052D30002A4E054FEF090020CA3A3A3E09002A565
:1052E300F0229002A4E054FDF090020CA3A3A3E0EB
:1052F3009002A6F0229002A4E054FBF090020CA3CB
:10530300A3A3E09002A7F0229002A4E054F7F09048
:0B531300020CA3A3A3E09002A8F0226C
:105571009002A5E0600414F080079002A4E04401C9
:10558100F09002A6E0600414F080079002A4E044C9
:1055910002F09002A7E0600414F080079002A4E0FA
:1055A1004404F09002A8E0600314F0229002A4E009
:0455B1004408F02298
:1050CD00454550524F4D20736563746F72312068A2
:1050DD00617320646174612E0D0A00454550524F75
:1050ED004D20736563746F723120697320636C6535
:1050FD00616E2E0D0A00454550524F4D207365636C
:10510D00746F72322068616520646174612E0D0ABE
:10511D0000454550524F4D20736563746F723220B8
:0C512D00697320636C65616E2E0D0A0032
:0D5A9500E4F5C7F5C5F5C675C380F5C4225C
:10596D0075C78375C5018FC4EEF5C375C65A75C667
:08597D00A50000AFC2125A950B
:0159850022FF
:10593A0075C78375C5028FC4EEF5C3AF058FC275EF
:0A594A00C65A75C6A50000025A9562
:1059CD0075C78375C5038FC4EEF5C375C65A75C605
:0659DD00A50000025A952E
:104E8A00E490020BF0A3F0E4900209F0A3F0900280
:104E9A0009E0FEA3E0FFC3EE9402502812596DEF19
:104EAA00F460117BFF7A5079CD125A0B90020BE411
:104EBA00F0A304F090020AE004F070D2900209E034
:104ECA0004F080CA90020BE07002A3E070B97BFF85
:104EDA007A5079E8125A0BE4900209F0A3F0900292
:104EEA0009E0FEA3E0FFC3EE9402502FE42FFFEE89
:104EFA003402FE12596DEFF460117BFF7A51790387
:104F0A00125A0B90020BE4F0A304F090020AE00498
:104F1A00F070CB900209E004F080C390020BE070BD
:0E4F2A0002A3E070B27BFF7A51791E025A0B8F
:10310C004C02530000000000000000000000004CC6
:10311C000245000000000000000000000000410219
:0C312C0051004102520043024201026CBB
:015AFA002289
:015AFB002288
:10476500900255E0FE6410706CA3E07068A3E0FF52
:10477500900242E0FBA3E0FAA3E0F9EF12190590DD
:104785000258E0FF900242E0FBA3E0FAA3E0F990B3
:104795000001EF121917900259E090000212191743
:1047A50090025AE090000312191790025BE0900006
:1047B5000412191790025CE0900005121917900277
:1047C5005DE090000612191790025EE09000071256
:1047D50019177F0122EE6411706E900256E0706821
:1047E500A3E0FF900242E0FBA3E0FAA3E0F9EF1299
:1047F5001905900258E0FF900242E0FBA3E0FAA3FE
:10480500E0F9900001EF121917900259E0900002AB
:1048150012191790025AE090000312191790025BC3
:10482500E090000412191790025CE090000512193F
:104835001790025DE090000612191790025EE09055
:0B48450000071219177F02227F0022DB
:0F5A520041444320646174613A0D0A000D0A005B
:1031380048026C616162626363000044027422B8F1
:0231480022B8AB
:1053700090026CE0FEA3E0FDEDFF900274EEF0A35E
:10538000EFF090026EE0FEA3E0FDEDFF900276EEFE
:10539000F0A3EFF0D3900275E09488900274E0944B
:1053A0001340077422F0A374B8F0D3900277E0940E
:1053B00088900276E0941340077422F0A374B8F04A
:0153C00022CA
:10540F00900270E0FEA3E0FDEDFBAA06E4FEFDFCBA
:10541F00C39DF582EE9CF5837D64AF03AE02121936
:10542F0039AD82AC8312194B7BFF7A5A7952125ADB
:10543F000B900270E0FF1256B0900271E0FF12560F
:0A544F00B07BFF7A5A795E025A0B17
:104B9B003A0020002A0021000A0D004300484F4D27
:104BAB004500300031003200330034003500360050
:104BBB003700380039002E002500000000000000EF
:104BCB0000000000000000000000000000000000DA
:104BDB0000000000000000000000000000000000CA
:104BEB0000000000000000000000000000000000BA
:104BFB0000000000000000000000000000000000AA
:104C0B000000000000000000000000000000000099
:104C1B000000000000000000000000000000000089
:104C2B000000000000000000000000000000000079
:104C3B000000000000000000000000000000000168
:104C4B00050107E00000F0FFF0001CFFFFFF1C0058
:044C5B00FFFFFF0058
:10314A00C1014102910044028D0001E240C10041E7
:0B315A00028A0041028B0041028C0041
:10598600900276E0FEA3E0FFE4FCFD90020D121A01
:085996003F7D167F01023D7602
:10599E00900274E0FEA3E0FFE4FCFD90020D121AEB
:0859AE003F7D0E7F04023D76EF
:0551A100900180EFF019
:1051A60078817C017D017BFF7A4B79C57E007F8209
:1051B600121899900180E0602FB20030001B900217
:1051C6000E7405F0A374FFF0A3744CF0A37450F0B2
:1051D6007B187D377F1102419F9002147405F07B86
:1051E600187D377F11021EFC3000119002147405E1
:0C51F600F07B187D377F11121EFCC200F8
:015202002289
:10282400E490020AF0A37406F0A314F0A3121A4B66
:1028340000000000900291E070089002AE74210242
:102844002AB01258367BFF7A0579DAE4900225F033
:102854007D047F011244167BFF7A0579FAE4900225
:1028640025F07D057F011244167BFF7A06791AE470
:10287400900225F07D067F011244167BFF7A0679CB
:102884003AE4900225F07D077F011244167BFF7A1B
:1028940006795AE4900225F07D087F011244167BE4
:1028A400FF7A4B799BE4900219F07D117F0112525B
:1028B4006490020AE0FF12405F125459900209EF3B
:1028C400F060F6E0FEB401089002AE7410022AB083
:1028D400EE6403704F90020BE0FF04F0D3EF6480CA
:1028E40094865038E025E0FFC374139FFD7BFF7A84
:1028F4004B799DE4900219F07F0212526490020D0C
:10290400E0FCA3E0FDA3E0FEA3E0FFE47B0AFAF908
:10291400F81255B590020D121A3F802090020B74E4
:1029240006F08018900209E0FFB40506A3E014F055
:10293400800AEFB4060690020AE004F090020AE06E
:10294400FFD3648094894004E4F0800EC3EF648074
:102954009480500690020A7409F090020AE0FF1273
:10296400405F900209E0640260030228BD90020BFC
:10297400E0FF14F0D3EF64809480406790020DE090
:10298400FCA3E0FDA3E0FEA3E0FFE47B0AFAF9F870
:102994001219CC90020D121A3F90020DE0F8A3E038
:1029A400F9A3E0FAA3E0FB90020AE0FF3395E0FE0E
:1029B400FDFCEB2FFFEA3EFEE93DFDE83CFC900206
:1029C4000D121A3F90020BE025E0FFC374119FFD26
:1029D4007BFF7A4B799FE4900219F07F02125264D4
:1029E4000228BD90028DE0FCA3E0FDA3E0FEA3E07D
:1029F400FF90020DE0F8A3E0F9A3E0FAA3E0FBC323
:102A0400121A29700C9002AE7421F0A3E4F07F0135
:102A14002290021474C0F07B107D017F11121EFC01
:102A24007BFF7A06793AE4900225F07D057F021255
:102A340044167BFF7A06795AE4900225F07D067FDE
:102A4400021244167BFF7A06797AE4900225F07D1F
:102A5400077F021244167BFF7A06799AE4900225D6
:102A6400F07D087F021244167BFF7A4B79A1E49033
:102A74000219F07D117F02125264125A88900214D6
:102A840074C0F07B107D017F11121EFC90020B7448
:102A940006F090020D121A4B0000000090020CE0A8
:102AA40014F060030228BD9002AE7410F0A3E4F0A9
:012AB400FF22
:012AB50022FE
:104DDB009002097401F0E4A3F0125836024E7C12D3
:104DEB005459EF60FA64016004EFB4050A9002AE07
:104DFB007410F0A3E4F022EFB40320900209E01446
:104E0B00F0E0FEC36480948150067406F0A3802CFE
:104E1B00EEB4040590020A80238026EFB404299097
:104E2B000209E004F0E0FED364809486400774012D
:104E3B00F0A3F0803CEEB4050890020A7401F080F8
:104E4B0030E490020AF08029EF64026004EFB406AC
:104E5B0020900209E0FF3395E0FEEFC4F8540FC831
:104E6B0068FFEEC454F04844219002AEF0A3EFF07B
:0F4E7B0022900209E0FFA3E0FD120ECE024DEAE5
:1051390090020A7401F012583690020AE0FF123EFA
:10514900F5125459900209EFF060F6E0FFB401023C
:10515900803CEFB4031390020AE014F0E0C36480CA
:105169009481501B7402F08016900209E0B4040F78
:10517900A3E004F0E0D36480948240037401F090CA
:10518900020AE0FF123EF5900209E0B402B3900270
:07519900AE7410F0A3E4F076
:0151A00022EC
:103BF50090020A7403F0E4A3F01258367BFF7A01B1
:103C050079DAE4900225F07D027F011244167BFFEC
:103C15007A0179FAE4900225F07D037F01124416BA
:103C25007BFF7A0679BAE4900225F07D047F0112C4
:103C350044167BFF7A0079BAE4900225F07D057F72
:103C4500011244167BFF7A0079BAE4900225F07DD3
:103C5500067F011244167BFF7A0079DAE49002258B
:103C6500F07D077F011244167BFF7A03799AE49071
:103C75000225F07D087F011244167BFF7A0379BA8D
:103C8500E4900225F07D097F011244161248501276
:103C95005459900209EFF060F6E0FFB40103023DCC
:103CA5006CEFB4051790020AE004F0E0D364809449
:103CB500835003023D5E7401F0023D5E900209E00F
:103CC500FFB40615A3E014F0E0C3648094814003BB
:103CD500023D5E7403F0023D5EEF640370429002A4
:103CE5000AE0FFB40106A3E004F08018EFB402096E
:103CF50090020BE0240AF0800BEFB4030790020B4F
:103D0500E02464F090020BE0FFC3648094804008D7
:103D1500D3EF648094E4404190020B7464F08039E1
:103D2500900209E064047031A3E0FFB40106A3E04A
:103D350014F08018EFB4020990020BE024F6F0802D
:103D45000BEFB4030790020BE0249CF090020BE00C
:103D5500C3648094805002E4F0124850900209E058
:103D650064026003023C949002AE7410F0A3E4F088
:013D7500222B
:103A5F0090020A7403F0A37464F01258367BFF7A55
:103A6F000179DAE4900225F07D027F011244167B82
:103A7F00FF7A0179FAE4900225F07D037F01124469
:103A8F00167BFF7A07793AE4900225F07D047F01D7
:103A9F001244167BFF7A0079BAE4900225F07D0577
:103AAF007F011244167BFF7A0079BAE4900225F069
:103ABF007D067F011244167BFF7A0079DAE49002CB
:103ACF0025F07D077F011244167BFF7A03799AE474
:103ADF00900225F07D087F011244167BFF7A03794F
:103AEF00BAE4900225F07D097F0112441690020B73
:103AFF00E0FF90020AE0FD12485A12545990020951
:103B0F00EFF060F6E0FFB40103023BEBEFB40517F3
:103B1F0090020AE004F0E0D3648094835003023BE8
:103B2F00D37401F0023BD3900209E0FFB40615A352
:103B3F00E014F0E0C3648094814003023BD374032C
:103B4F00F0023BD3EF6403704290020AE0FFB4012E
:103B5F0006A3E004F08018EFB4020990020BE024F2
:103B6F000AF0800BEFB4030790020BE02464F0908F
:103B7F00020BE0FFC3648094804008D3EF6480940D
:103B8F00E4404190020B7464F08039900209E064C4
:103B9F00047031A3E0FFB40106A3E014F08018EF26
:103BAF00B4020990020BE024F6F0800BEFB4030788
:103BBF0090020BE0249CF090020BE0C36480948091
:103BCF005002E4F090020BE0FF90020AE0FD124871
:103BDF005A900209E064026003023B099002AE743E
:053BEF0010F0A3E4F05A
:013BF40022AE
:1025560078147C027D017B017A02790B7E007F096B
:0B25660012189990020AE090021DF08C
:1025710090021AE0FAA3E0FB7C007D0AFFAE021292
:10258100194B7C007D0A12194B90021EEDF07C0064
:102591007D0AAF03AE0212194BA3EDF090021DE0CC
:1025A100B40116A3E0FFE4FCFDFE900223121A3FE2
:1025B1009002277401F0FB801690021EE0FFE4FCFC
:1025C100FDFE900223121A3FE4900227F07B017D69
:1025D100097F021238B390021DE090021FB4021568
:1025E100E0FFE4FCFDFE900223121A3F90022774E3
:1025F10001F0FB8013E0FFE4FCFDFE900223121AC0
:102601003FE4900227F07B017D0A7F021238B390EC
:10261100021DE0900219B40313E0FFE4FCFDFE90FB
:102621000223121A3F90022774018010E0FFE4FC9C
:10263100FDFE900223121A3FE4900227F07B027DF7
:102641000E7F021238B390021DE0900217B40413FA
:10265100E0FFE4FCFDFE900223121A3F9002277472
:10266100018010E0FFE4FCFDFE900223121A3FE41A
:10267100900227F07B027D127F021238B390021D77
:10268100E0900216B40513E0FFE4FCFDFE90022386
:10269100121A3F90022774018010E0FFE4FCFDFE56
:1026A100900223121A3FE4900227F07B027D067FFD
:1026B100031238B390021DE0900215B40613E0FF37
:1026C100E4FCFDFE900223121A3F90022774018060
:1026D10010E0FFE4FCFDFE900223121A3FE4900299
:1026E10027F07B027D097F031238B390021DE09031
:1026F1000214B40713E0FFE4FCFDFE900223121A5A
:102701003F90022774018010E0FFE4FCFDFE90027F
:1027110023121A3FE4900227F07B027D0C7F031203
:1027210038B390021DE06408706E900218E014B492
:102731000700400302282390274675F003A4C583B0
:1027410025F0C5837302275B02276302276B0227EB
:102751007302277B02278302278B7BFF7A05791A75
:10276100802E7BFF7A05793A80267BFF7A05795A9C
:10277100801E7BFF7A05797A80167BFF7A05799A2C
:10278100800E7BFF7A0579BA80067BFF7A04795A3D
:10279100900225740102281B900218E014B407006E
:1027A10040030228239027B475F003A4C58325F0C4
:1027B100C583730227C90227D50227E10227ED024B
:1027C10027F90228050228117BFF7A05791AE4907E
:1027D100022580467BFF7A05793AE4900225803A0A
:1027E1007BFF7A05795AE4900225802E7BFF7A05DA
:1027F100797AE490022580227BFF7A05799AE49028
:10280100022580167BFF7A0579BAE4900225800AB9
:102811007BFF7A04795AE4900225F07D0A7F031246
:0228210044165B
:012823002292
:1022420090020A7401F0780B7C02FD7BFF7A4C79D4
:10225200477E007F091218991258367BFF7A01795E
:10226200BAE4900225F07D047F011244167BFF7AC6
:102272000479FAE4900225F07D057F011244167B71
:10228200FF7A0079FAE4900225F07D067F0112447C
:10229200167BFF7A01791AE4900225F07D077F010F
:1022A2001244167BFF7A03799AE4900225F07D08A6
:1022B2007F011244167BFF7A0379BAE4900225F07B
:1022C2007D097F01124416900211E0FEA3E0FFE4B3
:1022D200FCFD900223121A3FE4900227F07B047D5A
:1022E2000A7F021238B37BFF7A01797AE4900225E1
:1022F200F07D067F021244167BFF7A01799AE49000
:102302000225F07D087F021244167BFF7A0179BA1A
:10231200E4900225F07D0A7F021244167BFF7A4B7D
:10232200799BE4900219F07D077F031252647BFFD0
:102332007A4B799BE4900219F07D0A7F0312526472
:102342007BFF7A0479DAE4900225F07D087F03129C
:1023520044167BFF7A0479FAE4900225F07D097F26
:1023620003124416122556125459900209EFF060D6
:10237200F6E0FFB4010302254CEFB4061490020A02
:10238200E004F0E0D364809488500302253E0224E6
:1023920076900209E0FFB40515A3E014F0E0C364EF
:1023A200809481400302253E7408F002253EEF64CA
:1023B20003600302247C90020AE0FFB40210900240
:1023C20012E004F07053900211E004F0804BEFB47D
:1023D2000110900212E0240AF0900211E03400F0A1
:1023E2008037EFB40305900210802BEFB404059000
:1023F200020E8022EFB4050590020D8019EFB4069B
:102402000590020C8010EFB4070590020B8007EFD5
:10241200B4080690020FE004F0D3900212E0943365
:10242200900211E0940840077407F0A374D0F09072
:102432000210E0D3940C40037401F090020EE0D33A
:10244200941F40037401F090020DE0D394174002F0
:10245200E4F090020CE0D3943B4002E4F090020BD3
:10246200E0D3943B4002E4F090020FE0D394075093
:102472000302253E7401F002253E900209E0640445
:10248200600302253EA3E0FFB40208900212E0249A
:10249200FF800AEFB40110900212E024F6F09002DD
:1024A20011E034FFF08037EFB40305900210802B67
:1024B200EFB4040590020E8022EFB4050590020DE0
:1024C2008019EFB4060590020C8010EFB407059056
:1024D200020B8007EFB4080690020FE014F0C390DD
:1024E2000212E094D0900211E0940750077408F0B1
:1024F200A37433F0900210E0C3940150037401F00E
:1025020090020EE0C3940150037401F090020DE0BA
:10251200D3941740037417F090020CE0D3943B401D
:1025220003743BF090020BE0D3943B4003743BF006
:1025320090020FE0C3940150037407F012255690E5
:102542000209E0640260030223699002AE7410F093
:03255200A3E4F00F
:012555002263
:015AFC002287
:05466400900209EFF0D7
:10466900A37401F0EFF4600330010DE4900209F046
:104679001258361235508050900209E0FF1256B098
:104689007BFF7A4B79A3125A0B900209E0FFB4051C
:1046990006A3E004F0800AEFB4060690020AE014CB
:1046A900F090020AE0FFD36480948340057401F01E
:1046B900800EC3EF64809481500690020A7403F05F
:1046C90090020AE0FF12454990020C121A4B0000B1
:1046D900000A7F011252C3125459900209EFF06087
:1046E9006B90020C121A4B0000000A7F011252C390
:1046F900900209E0FDB4020FA3E0FFEFC454F0906B
:1047090002AEF0A3E4F022EDB40102804790020961
:10471900E0FFB40506A3E004F0800AEFB4060690B2
:10472900020AE014F090020AE0FFD3648094834007
:10473900057401F0800EC3EF6480948150069002E5
:104749000A7403F090020AE0FF1245497F011257EB
:0B47590016EF6083E49002AEF0A3F0C6
:014764002232
:10355000C20190020E743EF0A374FFF0A37407F052
:10356000A374AAF07B2D7D017F0112419F7BFF7A1E
:1035700000793AE4900225F07D057F011244167B24
:10358000FF7A00795AE4900225F07D067F0112440B
:10359000167BFF7A0079BAE4900225F07D077F015F
:1035A0001244167BFF7A00797AE4900225F07D08B8
:1035B0007F011244167BFF7A4B799BE4900219F04D
:1035C0007D117F011252641259867BFF7A07799A26
:1035D000E490023FF07D177F011242E27BFF7A4BBD
:1035E00079A6E4900219F07D187F011252647BFFE6
:1035F0007A02799AE4900225F07D057F0212441642
:103600007BFF7A0279BAE4900225F07D067F0212F0
:1036100044167BFF7A4B799BE4900219F07D0D7F75
:10362000021252647BFF7A0279DAE4900225F07D7F
:103630000A7F021244167BFF7A0279FAE49002258F
:10364000F07D0B7F021244167BFF7A04797AE490B6
:103650000225F07D057F031244167BFF7A04799AD8
:10366000E4900225F07D067F031244167BFF7A4B1F
:10367000799BE4900219F07D0D7F031252647BFF69
:103680007A0179DAE4900225F07D0A7F031244166C
:103690007BFF7A0179FAE4900225F07D0B7F03121B
:1036A00044167BFF7A03791AE4900225F07D027FAD
:1036B000041244167BFF7A03793AE4900225F07DE8
:1036C000037F041244167BFF7A03799AE490022563
:1036D000F07D067F041244167BFF7A0379BAE490EA
:1036E0000225F07D077F041244167BFF7A4B79A8F0
:1036F0009002197401F07D137F041252647D017FE2
:0437000037022AB6AC
:102D0E00D2017BFF7A0079BAE4900225F07D037F31
:102D1E00011244167BFF7A0079DAE4900225F07DE9
:102D2E00047F011244167BFF7A0179DAE4900225C2
:102D3E00F07D057F011244167BFF7A0179FAE4904B
:102D4E000225F07D067F011244167BFF7A02791A66
:102D5E00E4900225F07D077F011244167BFF7A0274
:102D6E00793AE4900225F07D087F011244167BFF2C
:102D7E007A02795AE4900225F07D097F01124416F9
:102D8E007BFF7A02797AE4900225F07D0A7F0112A8
:102D9E004416900287E0FEA3E0FFE4FCFD900223C0
:102DAE00121A3FE4900227F07B047D0A7F0212384C
:102DBE00B37BFF7A01797AE4900225F07D067F02DB
:102DCE00124416900286E0FFE4FCFDFE90022312F0
:102DDE001A3FE4900227F07B027D0E7F021238B379
:102DEE007BFF7A01799AE4900225F07D087F02122A
:102DFE004416900284E0FFE4FCFDFE900223121ABA
:102E0E003FE4900227F07B027D127F021238B37BE3
:102E1E00FF7A0179BAE4900225F07D0A7F0212440E
:102E2E0016900283E0FFE4FCFDFE900223121A3F8F
:102E3E00E4900227F07B027D067F031238B37BFFFE
:102E4E007A4B799BE4900219F07D077F031252644E
:102E5E00900282E0FFE4FCFDFE900223121A3FE492
:102E6E00900227F07B027D097F031238B37BFF7A35
:102E7E004B799BE4900219F07D0A7F031252649005
:102E8E000281E0FFE4FCFDFE900223121A3FE49063
:102E9E000227F07B027D0C7F031238B37BFF7A048E
:102EAE0079DAE4900225F07D087F031244167BFF49
:102EBE007A0479FAE4900225F07D097F0312441614
:102ECE00900285E014B407005065902EE675F0036D
:102EDE00A4C58325F0C58373022EFB022F03022F98
:102EEE000B022F13022F1B022F23022F2B7BFF7A95
:102EFE0005791A802E7BFF7A05793A80267BFF7A38
:102F0E0005795A801E7BFF7A05797A80167BFF7AC7
:102F1E0005799A800E7BFF7A0579BA80067BFF7A57
:102F2E0004795AE4900225F07D0A7F0312441612AA
:102F3E00599E7BFF7A07799AE490023FF07D0F7FCE
:102F4E00041242E27BFF7A4B79A6E4900219F07DDF
:062F5E00107F0402526422
:10454900EF24FE606314700302460724026003022D
:1045590046637BFF7A03791AE4900225F07D027F96
:10456900041244167BFF7A03793AE4900225F07D20
:10457900037F041244167BFF7A03799AE49002259B
:10458900F07D067F041244167BFF7A0379BAE49022
:104599000225F07D077F041244167BFF7A4B79A828
:1045A900900219740102465B7BFF7A03791AE49041
:1045B9000225F07D027F041244167BFF7A03793AC3
:1045C900E4900225F07D037F041244167BFF7A03F1
:1045D900799A9002257401F07D067F041244167BB6
:1045E900FF7A0379BA9002257401F07D077F0412DE
:1045F90044167BFF7A4B79A8E490021980547BFF1B
:104609007A03791A9002257401F07D027F0412441D
:10461900167BFF7A03793A9002257401F07D037FB6
:10462900041244167BFF7A03799AE4900225F07DFF
:10463900067F041244167BFF7A0379BAE4900225B7
:10464900F07D077F041244167BFF7A4B79A8E4902A
:0B4659000219F07D137F04125264224E
:10405F00900211EFF07BFF7A4B79AD700690021949
:10406F00048004E4900219F07D037F0412526490DF
:10407F000211E07BFF7A4B79AFB4010790021974FC
:10408F00018004E4900219F07D057F0412526490C0
:10409F000211E07BFF7A4B79B1B4020790021974D9
:1040AF00018004E4900219F07D077F04125264909E
:1040BF000211E07BFF7A4B79B3B4030790021974B6
:1040CF00018004E4900219F07D097F04125264907C
:1040DF000211E07BFF7A4B79B5B404079002197493
:1040EF00018004E4900219F07D0B7F04125264905A
:1040FF000211E07BFF7A4B79B7B405079002197470
:10410F00018004E4900219F07D0D7F041252649037
:10411F000211E07BFF7A4B79B9B40607900219744C
:10412F00018004E4900219F07D0F7F041252649015
:10413F000211E07BFF7A4B79BBB407079002197429
:10414F00018004E4900219F07D117F0412526490F3
:10415F000211E07BFF7A4B79BDB408079002197406
:10416F00018004E4900219F07D137F0412526490D1
:10417F000211E07BFF7A4B79BFB4090790021974E3
:10418F00018004E4900219F07D157F04125264221D
:103EF50090020BEFF07BFF7A04797AE4900225F0CB
:103F05007D047F011244167BFF7A04799AE49002BE
:103F150025F07D057F011244167BFF7A03799AE42B
:103F2500900225F07D067F011244167BFF7A037906
:103F3500BAE4900225F07D077F0112441690020B2A
:103F4500E064017BFF7A4B79AF703E90021904F073
:103F5500FD7F021252647BFF7A4B79C1900219747E
:103F650001F07D027F021252647BFF7A0179DA90BB
:103F750002257401F07D027F021244167BFF7A014F
:103F850079FA9002257401803AE4900219F07D01D6
:103F95007F021252647BFF7A4B79C1E4900219F0DB
:103FA5007D027F021252647BFF7A0179DAE4900286
:103FB50025F07D027F021244167BFF7A0179FAE42F
:103FC500900225F07D037F0212441690020BE064F7
:103FD500027BFF7A4B79B1703E90021904F0FD7FA8
:103FE500031252647BFF7A4B79C19002197401F078
:103FF5007D027F031252647BFF7A0479BA90022511
:104005007401F07D027F031244167BFF7A0179FA71
:104015009002257401803AE4900219F07D017F0336
:104025001252647BFF7A4B79C1E4900219F07D024C
:104035007F031252647BFF7A0479BAE4900225F07B
:104045007D027F031244167BFF7A0179FAE4900220
:0A40550025F07D037F0312441622BC
:0A48500090020BE0FF90020AE0FD69
:05485A0090020CEDF0DE
:10485F00EF75F06484A3F0EF75F00A8475F00A84A5
:10486F00A3E5F0F0EF75F00A84A3E5F0F090020DE8
:10487F00E0FFBD0313E4FCFDFE900223121A3F90EC
:10488F0002277401F0FB8011E4FCFDFE900223125D
:10489F001A3FE4900227F07B017D0A7F021238B3A2
:1048AF0090020CE090020EB40215E0FFE4FCFDFE56
:1048BF00900223121A3F9002277401F0FB8013E03D
:1048CF00FFE4FCFDFE900223121A3FE4900227F052
:1048DF007B017D0B7F021238B390020CE090020F28
:1048EF00B40115E0FFE4FCFDFE900223121A3F9085
:1048FF0002277401F0FB8013E0FFE4FCFDFE900241
:10490F0023121A3FE4900227F07B017D0C7F0212E5
:10491F0038B37BFF7A4B79C3E4900219F07D0D7F9A
:04492F0002025264CA
:100ECE0090020BEFF0ED600312583690020BE0FF2C
:100EDE00C36480948540030213C2EF64017BFF7AE2
:100EEE004B79AF706390021904F0FDFF1252647BD0
:100EFE00FF7A4B79C19002197401F07D02FF1252F4
:100F0E00647BFF7A04797A9002257401F07D02FFEA
:100F1E001244167BFF7A04799A9002257401F07DB3
:100F2E0003FF1244167BFF7A03799A90022574010F
:100F3E00F07D04FF1244167BFF7A0379BA900225E6
:100F4E007401F07D05FF8063E4900219F07D017F4E
:100F5E00011252647BFF7A4B79C1E4900219F07D45
:100F6E00027F011252647BFF7A04797AE4900225A3
:100F7E00F07D027F011244167BFF7A04799AE49089
:100F8E000225F07D037F011244167BFF7A03799AC6
:100F9E00E4900225F07D047F011244167BFF7A0354
:100FAE0079BAE4900225F07D057F01124416900275
:100FBE000BE064027BFF7A4B79B1600302107E90E6
:100FCE00021904F0FD7F021252647BFF7A4B79C145
:100FDE009002197401F07D027F021252647BFF7A37
:100FEE000179DA9002257401F07D027F0212441617
:100FFE007BFF7A0179FA9002257401F07D037F025E
:10100E001244167BFF7A0679BA9002257401F07DA0
:10101E00047F021244167BFF7A0079BA900225747F
:10102E0001F07D057F021244167BFF7A0079BA909B
:10103E0002257401F07D067F021244167BFF7A00B2
:10104E0079DA9002257401F07D077F021244167B37
:10105E00FF7A03799A9002257401F07D087F0212BF
:10106E0044167BFF7A0379BA90022574010211248B
:10107E00E4900219F07D017F021252647BFF7A4BDD
:10108E0079C1E4900219F07D027F021252647BFF57
:10109E007A0179DAE4900225F07D027F021244167D
:1010AE007BFF7A0179FAE4900225F07D037F02122C
:1010BE0044167BFF7A0679BAE4900225F07D047F10
:1010CE00021244167BFF7A0079BAE4900225F07D75
:1010DE00057F021244167BFF7A0079BAE49002254E
:1010EE00F07D067F021244167BFF7A0079DAE490D7
:1010FE000225F07D077F021244167BFF7A03799A50
:10110E00E4900225F07D087F021244167BFF7A03DD
:10111E0079BAE4900225F07D097F021244169002FE
:10112E000BE064037BFF7A4B79B360030211EE9000
:10113E00021904F0FD7F031252647BFF7A4B79C1D2
:10114E009002197401F07D027F031252647BFF7AC4
:10115E000179DA9002257401F07D027F03124416A4
:10116E007BFF7A0179FA9002257401F07D037F03EB
:10117E001244167BFF7A07793A9002257401F07DAE
:10118E00047F031244167BFF7A0079BA900225740D
:10119E0001F07D057F031244167BFF7A0079BA9029
:1011AE0002257401F07D067F031244167BFF7A0040
:1011BE0079DA9002257401F07D077F031244167BC5
:1011CE00FF7A03799A9002257401F07D087F03124D
:1011DE0044167BFF7A0379BA9002257401021294A9
:1011EE00E4900219F07D017F031252647BFF7A4B6B
:1011FE0079C1E4900219F07D027F031252647BFFE5
:10120E007A0179DAE4900225F07D027F031244160A
:10121E007BFF7A0179FAE4900225F07D037F0312B9
:10122E0044167BFF7A07793AE4900225F07D047F1D
:10123E00031244167BFF7A0079BAE4900225F07D02
:10124E00057F031244167BFF7A0079BAE4900225DB
:10125E00F07D067F031244167BFF7A0079DAE49064
:10126E000225F07D077F031244167BFF7A03799ADD
:10127E00E4900225F07D087F031244167BFF7A036B
:10128E0079BAE4900225F07D097F0312441690028C
:10129E000BE064047BFF7A4B79B560030213389040
:1012AE00021904F0FD7F041252647BFF7A4B79C160
:1012BE009002197401F07D027F041252647BFF7A52
:1012CE000179BA9002257401F07D027F0412441652
:1012DE007BFF7A0479FA9002257401F07D037F0476
:1012EE001244167BFF7A0079FA9002257401F07D84
:1012FE00047F041244167BFF7A01791A900225743A
:10130E0001F07D057F041244167BFF7A03799A90D3
:10131E0002257401F07D067F041244167BFF7A03CA
:10132E0079BA90022574010213BAE4900219F07D85
:10133E00017F041252647BFF7A4B79C1E49002194B
:10134E00F07D027F041252647BFF7A0179BAE49039
:10135E000225F07D027F041244167BFF7A0479FA8F
:10136E00E4900225F07D037F041244167BFF7A0081
:10137E0079FAE4900225F07D047F041244167BFF77
:10138E007A01791AE4900225F07D057F0412441645
:10139E007BFF7A03799AE4900225F07D067F041292
:1013AE0044167BFF7A0379BAE4900225F07D077F1D
:1013BE000402156E90020BE064057BFF7A4B79B741
:1013CE00706390021904F0FDFF1252647BFF7A4B9A
:1013DE0079C19002197401F07D02FF1252647BFFF5
:1013EE007A06793A9002257401F07D02FF124416B6
:1013FE007BFF7A06795A9002257401F07D03FF1265
:10140E0044167BFF7A03799A9002257401F07D04CD
:10141E00FF1244167BFF7A0379BA9002257401F00D
:10142E007D05FF8063E4900219F07D017F01125269
:10143E00647BFF7A4B79C1E4900219F07D027F0143
:10144E001252647BFF7A06793AE4900225F07D020F
:10145E007F011244167BFF7A06795AE4900225F03A
:10146E007D037F011244167BFF7A03799AE4900282
:10147E0025F07D047F011244167BFF7A0379BAE4CE
:10148E00900225F07D057F0112441690020BE06458
:10149E00067BFF7A4B79B9706490021904F0FD7FD8
:1014AE00021252647BFF7A4B79C19002197401F0DB
:1014BE007D027F021252647BFF7A07795A900225D1
:1014CE007401F07D027F021244167BFF7A07797A4F
:1014DE009002257401F07D037F021244167BFF7A81
:1014EE0003799A9002257401F07D047F021244164E
:1014FE007BFF7A0379BA9002257401805EE4900234
:10150E0019F07D017F021252647BFF7A4B79C1E4A0
:10151E00900219F07D027F021252647BFF7A0779E6
:10152E005AE4900225F07D027F021244167BFF7A68
:10153E0007797AE4900225F07D037F021244167B30
:10154E00FF7A03799AE4900225F07D047F0212441B
:10155E00167BFF7A0379BAE4900225F07D057F02AF
:04156E0012441622EB
:0A2AB60090020CEDF090020BEFF01F
:102AC000E490020DF0AC07EC1217147BF67A28792B
:102AD0001C784012166DE4FBFA7980783F12157964
:102AE00012174890020CE06005E490028BF090020F
:102AF0008BE0FEC3EF9E90028AF0C3648094805006
:102B00000D90020D7401F090028AE0F404F0E4905C
:102B1000020EF090028AE0FF3395E0FE90020EE094
:102B2000C39FEE6480F87480984003022CAF90023B
:102B30000DE0FF90028B6005E014F08003E004F0EC
:102B400090028BE024FE604A14606B147003022B29
:102B5000DA24DE7003022BFE147003022C211470A1
:102B600003022C43147003022C6524286003022CFA
:102B700073EF600F900214742BF07B017D057F2AA8
:102B8000022C8D9002127429F07B017D067F2B02AE
:102B90002CA390020DE0600F900214742DF07B01C5
:102BA0007D047F29022C8D900212742BF07B017D15
:102BB000057F2A022CA390020DE0600F900214748E
:102BC0002DF07B017D047F28022C8D900212742D44
:102BD000F07B017D047F29022CA390020DE0600FA1
:102BE000900214742FF07B017D037F27022C8D90BF
:102BF0000212742DF07B017D047F28022CA3900229
:102C00000DE0600E900214742DF07B017D047F05B1
:102C1000807B900212742DF07B017D047F06022CD4
:102C2000A390020DE0600E900214742BF07B017DE6
:102C3000057F048058900212742DF07B017D047F83
:102C400005806090020DE0600E9002147429F07B04
:102C5000017D067F038036900212742BF07B017D8C
:102C6000057F04803E9002127429F07B017D067F6F
:102C700003803090020DE090028B6016E0FFC37479
:102C80002B9FFF900214742FF07B017D03121EFC1A
:102C90008014E0FFC3742C9FFF900212742FF07B0E
:102CA000017D03121B7790020EE004F0022B1390BB
:102CB000020BE0FF3395E0FEFDFC900223121A3F69
:102CC000E4900227F0FB7D047F021238B37BFF7A89
:102CD0004B79C3E4900219F07D057F021252649093
:102CE000020BE0FFB4631E90028CE0FEC3EF9EC3B4
:102CF00064809480500F9002127408F07B107D095C
:0D2D00007F11121B7790020BE090028CF007
:012D0D0022A3
:053165004202AE000073
:1059B60076616C69642064617461207265636569EF
:0759C6007665642E0D0A0056
:0D316A004102A300C10244029F61626300A4
:055AF100D288D2A822BA
:065AEB00758F10D2A92204
:10370400E4900208F0125A88438E401259F7124E80
:103714008A125AF1125AEBD203125A4112000612BB
:103724005AF61257A3125A88125AC6124D1D12582D
:10373400E9C289C28BC299D2AF90020C121A4B0013
:103744000000057F021252C31235509002AEE070A1
:1037540002A3E07017125459900207EFF06013C2ED
:10376400CB9002AE7410F0A3E4F0800690020774CC
:10377400FFF09002AEE0FEA3E08EF0121A7C3792C6
:10378400100037AB200037B03000000037B3900290
:1037940007E0FF12466490020C121A4B0000000A64
:1037A4007F021252C380081228248003125AFC900C
:1037B40002AEE0FEA3E07008EE24DF7003124DDBDE
:1037C4009002AEE0FEA3E08EF0121A7C37E42110E2
:1037D40037E9212037EE213037F32140000037F656
:1037E400125139800D123BF58008123A5F800312A2
:1037F40022429002A3E054F1F0309304E0F08028D8
:1038040030940C2002099002A3E04402F0801930A5
:10381400940C3002099002A3E04406F0800A20943C
:10382400079002A3E04404F09002A3E0540E7F0248
:10383400125716EF700302374F9002AEE07002A3E6
:10384400E0600302374FD2CB300146900247741038
:10385400F0E4A3F09002457455F0A374AAF07B0140
:103864007A0279457F0C125203900251E06017E40A
:10387400F0124765BF020F7BFF7A5979B6125A0BD3
:1038840012540F125370125836125A6E1235508059
:103894000C124AD7125836125A6E122D0E90020C80
:0F38A400121A4B0000000A7F021252C302374F64
:105051009002B0EEF0A3EFF07C277D1012194B12F5
:105061005ADE9002B0E0FEA3E0FF7C037DE8121956
:105071004B7C007D0A12194BAF05125ADE9002B02B
:10508100E0FEA3E0FF7C007D6412194B7C007D0AE9
:1050910012194BAF05125ADE7F2E125ACF9002B071
:1050A100E0FEA3E0FF7C007D0A12194B7C007D0A23
:1050B10012194BAF05125ADE9002B0E0FEA3E0FFD9
:0C50C1007C007D0A12194BAF05025ADE7C
:0300030002563A68
:10563A00C0E0C0F0C083C082C0D075D000C000C036
:10564A0001C002C003C004C005C006C007124F381B
:10565A00D007D006D005D004D003D002D001D000A4
:0B566A00D0D0D082D083D0F0D0E0324E
:03000B0002567525
:10567500C0E0C0F0C083C082C0D075D000C000C0FB
:1056850001C002C003C004C005C006C007125571A1
:10569500D007D006D005D004D003D002D001D00069
:0B56A500D0D0D082D083D0F0D0E03213
:101572000217B4E86480F8E933E83360110460F0DC
:10158200ED33EC337009E8FCE9FDEAFEEBFF2204DF
:1015920060DED3EB9FEA9EE99DE8C2E78CF0C2F7DA
:1015A20095F0400CE8CCF8E9CDF9EACEFAEBCFFBA6
:1015B20012177F85D0F05804700320D5B3E8047069
:1015C200075002B2D50217BE92D5EC0460F7E4CC04
:1015D200C0E0C398F8603B94186008400DD0E0FB6F
:1015E200021796E4FBFAC9FC8028E830E406E4C955
:1015F200FBE4CAFCE830E305E4C9CACBFCE85407C3
:101602006010F8C3E913F9EA13FAEB13FBEC13FCCD
:10161200D8F130F52FC3E49CFCEF9BFFEE9AFEED70
:1016220099FDD0E0FBEF4E4D4C701222DB03021706
:10163200BBEC2CFCEF33FFEE33FEED33FDED30E778
:10164200EB021796EF2BFFEE3AFEED39FDD0E0FBF1
:1016520050130BBB00030217BEED13FDEE13FEEF9A
:0816620013FFEC13FC021796C4
:10166A000217BEEC5D046005E8590470030217B462
:10167A0012177F580460F6EC4860F2EC7004FDFE25
:10168A00FF22C860DB2481C85009C3986002500653
:10169A000217BB9850CAF582E9294B4A7005AB82FA
:1016AA000217AA75F0007C1A7880C3EF9BEE9AEDB8
:1016BA0099400DC3EF9BFFEE9AFEED99FDE842F0CB
:1016CA00DC23ACF0D0E0FFD0E0FED0E0FDAB82201E
:1016DA00E7101BEB60BAEC2CFCEF33FFEE33FEEDA8
:1016EA0033FD021796E803F830E705C0F075F000FD
:1016FA00EF2FFFEE33FEED33FD40B830E7C280AA8C
:10170A0075F020800E75F010800575F0087D007E5A
:10171A00007F003392D530D503121A1BEC334010E8
:10172A00EF33FFEE33FEED33FDEC33FCD5F0ED2263
:0E173A00E5F0247EA2D513CC92E7CDCEFF229F
:10174800EDD2E7CD33EC3392D524814006E4FFFE99
:10175800FDFC22FCE4CFCECDCC24E0501174FF80F8
:10176800EDC3CC13CCCD13CDCE13CECF13CF047095
:07177800F030D5DE021A1B60
:10177F00E9D2E7C933E833F892D5EDD2E7CD33ECB0
:07178F0033FC5002B2D52229
:10179600EC30E7100FBF000C0EBE00080DBD0004B4
:1017A6000BEB6014A2D5EB13FCED92E7FD2274FF60
:1017B600FCFDFEFF22E480F8A2D574FF13FC7D80B9
:0317C600E480EFCD
:03000000024FC5E7
:0C4FC500787FE4F6D8FD75812002500CC6
:1017C900E709F608DFFA8046E709F208DFFA803E02
:1017D90088828C83E709F0A3DFFA8032E309F608EF
:1017E900DFFA8078E309F208DFFA807088828C8357
:1017F900E309F0A3DFFA806489828A83E0A3F6080B
:10180900DFFA805889828A83E0A3F208DFFA804CE4
:1018190080D280FA80C680D4806980F280338010BB
:1018290080A680EA809A80A880DA80E280CA803324
:1018390089828A83ECFAE493A3C8C582C8CCC5839C
:10184900CCF0A3C8C582C8CCC583CCDFE9DEE7806C
:101859000D89828A83E493A3F608DFF9ECFAA9F0EB
:10186900EDFB2289828A83ECFAE0A3C8C582C8CC41
:10187900C583CCF0A3C8C582C8CCC583CCDFEADE5A
:10188900E880DB89828A83E493A3F208DFF980CCBC
:1018990088F0EF60010E4E60C388F0ED2402B404B5
:1018A9000050B9F582EB2402B4040050AF2323455C
:0618B90082239018197350
:1018BF00BB010689828A83E0225002E722BBFE0227
:0918CF00E32289828A83E493225A
:1018D800BB010CE58229F582E5833AF583E02250C5
:1018E80006E92582F8E622BBFE06E92582F8E2220F
:0D18F800E58229F582E5833AF583E4932229
:10190500BB010689828A83F0225002F722BBFE01C1
:02191500F322BB
:10191700F8BB010DE58229F582E5833AF583E8F006
:10192700225006E92582C8F622BBFE05E92582C8B2
:02193700F2229A
:10193900EF8DF0A4A8F0CF8CF0A428CE8DF0A42EC2
:02194900FE227C
:10194B00BC000BBE0029EF8DF084FFADF022E4CC80
:10195B00F875F008EF2FFFEE33FEEC33FCEE9DEC49
:10196B00984005FCEE9DFE0FD5F0E9E4CEFD22ED8F
:10197B00F8F5F0EE8420D21CFEADF075F008EF2FD9
:10198B00FFED33FD4007985006D5F0F222C398FDCA
:05199B000FD5F0EA2267
:1019A000C5F0F8A3E028F0C5F0F8E58215827002D2
:0619B0001583E038F0226F
:1019B600A3F8E0C5F025F0F0E582158270021583E4
:0619C600E0C838F0E82241
:1019CC00E88FF0A4CC8BF0A42CFCE98EF0A42CFCBA
:1019DC008AF0EDA42CFCEA8EF0A4CDA8F08BF0A438
:1019EC002DCC3825F0FDE98FF0A42CCD35F0FCEB97
:1019FC008EF0A4FEA9F0EB8FF0A4CFC5F02ECD395C
:0F1A0C00FEE43CFCEAA42DCE35F0FDE43CFC22C8
