:103FC400436865636B205349343433322E2E2E0DEF
:103FD4000A004445564943455F545950453A2030F8
:103FE4007825782E0D0A000D0A00444556494345AC
:103FF4005F56455253494F4E3A20307825782E0D5E
:104004000A004445564943455F5354415455533A75
:104014002061742069646C65206D6F64652E0D0ADF
:10402400004445564943455F5354415455533A203F
:104034006174205258206D6F64652E0D0A0044454A
:10404400564943455F5354415455533A20617420B3
:104054005458206D6F64652E0D0A00437279737491
:10406400616C204F7363696C6C61746F72204C6F68
:1040740061642043617061636974616E63653A20B1
:1040840025780D0A0053493434333220494F2049EE
:104094006E69742E2E2E2E2E2E0D0A00494F2049A5
:1040A4006E697420636F6D706C657465642E0D0A9F
:1040B40000534934343332206973206E6F742066A0
:1040C4006F756E642E2E2E2E2E2E0D0A005349343B
:1040D400343332204750494F496E697420636F6D01
:1040E400706C6574652C636F6E66696720646576B1
:1040F4006963652E2E2E2E2E2E0D0A00436F6E66DA
:1041040069672052462E2E2E2E2E2E0D0A0053495C
:1041140034343332496E697420636F6D706C657426
:10412400652E0D0A005349343433325F53657420CD
:1041340052784D6F64652E2E2E2E2E2E0D0A0053AE
:1041440049343433325F5365742054784D6F646559
:104154002E2E2E2E2E2E0D0A005349343433325F68
:104164005365742049646C654D6F64652E2E2E2E44
:104174002E2E0D0A005349343433325F53656E6476
:10418400204649464F20646174612E2E2E2E0D0A5E
:10419400002072657620496E746572727570740DB4
:1041A4000A002073656E6420496E746572727570BE
:1041B400740D0A006D6F64652072656769737465B8
:0541C400723A0D0A0033
:10769E00D3EF9400EE64809480400F7D817C14DCE7
:0A76AE00FEDDFAEF1F70E91E80E612
:0176B80022AF
:07790500C2C3D2B3D2B222CB
:097588009002CCEFF07D017F0EB2
:1075910090020EEDF0C2B3EF4480FF1278789002B2
:0975A1000EE0FF127878D2B3224B
:0777E4009002CBEFF07F04DF
:0C77EB00C2B31278787FFF127878D2B316
:0177F700226F
:10666B007BFF7A3F79C4127820E4FF1277EB90021C
:10667B0009EFF07BFF7A3F79D6127820900209E080
:10668B00FF1273727BFF7A3F79EB1278209002092D
:10669B00E0640860037F01227F011277EB9002090F
:1066AB00EFF07BFF7A3F79EE127820900209E0FF42
:1066BB001273727BFF7A3F79EB1278207F0212778D
:1066CB00EB900209EFF0540F70087BFF7A407906CC
:1066DB008022900209E0540FFFBF01087BFF7A4034
:1066EB0079258010900209E0540FFFBF02097BFF50
:1066FB007A4079421278207F091277EB900209EFEA
:10670B00F07BFF7A40795F127820900209E0FF124C
:0D671B0073727BFF7A3F79EB1278207F00CC
:01672800224E
:106403007D537F751275917D4B7F76127591E4FDF7
:106413007F771275917D097F6E1275917DD57F6FA0
:106423001275917D2C7F701275917D807F58127546
:10643300917D1F7F6D1275917D207F721275917D05
:106443002C7F1C1275917D417F201275917D607F99
:10645300211275917D277F221275917D527F231220
:106463007591E4FD7F241275917D047F251275914A
:106473007D407F1D1275917D0A7F1E1275917D0FE0
:106483007F2A1275917D037F1F1275917D607F694D
:106493001275917D0C7F341275917D2A7F351275AB
:1064A300917D027F331275917D2D7F361275917D1B
:1064B300D47F371275917D8D7F30127591E4FD7F06
:1064C300321275917D637F711275917DB47F0902DC
:0264D3007591C1
:106729007BFF7A4079891278201279057BFF7A40BC
:1067390079A01278207F147E00801312666BEF60B7
:10674900127BFF7A4079B51278207FF47E011276A8
:106759009E80E87DCA7F0B1275917DCA7F0C1275E8
:10676900917DCA7F0D1275917F0A7E0012769E7BFC
:10677900FF7A4079D11278207F031277EB1277E400
:106789009002CCEFF07D807F071275917F147E0017
:1067990012769E7F031277EB1277E49002CCEFF02A
:1067A9007BFF7A4179001278201264037DFF7F050F
:1067B9001275917DFF7F061275917F031277EB1297
:1067C90077E49002CCEFF07D077F05127591E4FD27
:0E67D9007F061275917BFF7A417912027820BB
:1076B9007F031277EB1277E41275887D057F071235
:0B76C90075917BFF7A4179290278203F
:10751D007F031277EB1277E49002CCEFF07D027FC0
:10752D000E1275917D097F071275917BFF7A417956
:04753D00430278206D
:1076D4007F031277EB1277E41275887D017F07121E
:0B76E40075917BFF7A41795D027820F0
:106D500090020AEBF0A3EAF0A3E9F0900209EFF049
:016D6000FD35
:106D61007F3E127591E490020DF0900209E0FF90D0
:106D7100020DE0FEC3EF6480F8EE64809850259028
:106D8100020AE0FBA3E0FAA3E0F9EEFF3395E08FFE
:106D910082F5831215D4FD7F7F12759190020DE06B
:106DA10004F080C612751D7BFF7A41797902782043
:106A06007F071277EB900204EFF07F031277EB1209
:106A160077E49002CCEFF09002CBE030E15B7BFFB5
:106A26007A4179951278207F4B1277EB900205EF29
:106A3600F0BF0C2EE4900204F0900205E0FF9002F5
:106A460004E0C39F501C7F7F1277EB900204E02482
:106A560053F582E43402F583EFF0900204E004F08B
:106A660080D77D027F08127591E4FD7F081275912B
:106A76001276B99002517401F09002CBE030E20C2C
:0C6A86007BFF7A4179A61278201276B9C5
:016A920022E1
:107541007F071277EB9002CFEFF07BFF7A4179B89A
:107551001278209002CFE0FF1273727BFF7A3F799D
:04756100EB027820A1
:0C3B4B004902A200000001050107E00093
:0978F400E4FB7D0E7FD00276EF6B
:1065A700E4FD7FD0127724AD07ED54F0C4540F7586
:1065B700F00AA4FFED540F2F9002A2F07D017FD0C7
:1065C700127724AD07ED54F0C4540F75F00AA4FFF9
:1065D700ED540F2F9002A3F07D027FD0127724ADE8
:1065E70007ED54F0C4540F75F00AA4FFED540F2FB4
:1065F7009002A4F07D047FD0127724AD07ED54F00C
:10660700C4540F75F00AA4FFED540F2F9002A5F0A4
:106617007D037FD01277249002A6EFF07D057FD00F
:10662700127724AD07ED5410C4540F75F00AA4FF78
:10663700ED540F2F9002A7F07D067FD0127724AD7F
:1066470007ED54F0C4540F75F00AA424D0FFE5F009
:106657003407FEED540F7C002FFFEC3E9002A8F0AC
:03666700A3EFF0AE
:01666A00220D
:1064D500900214E0FF75F00A84C454F0FEEF75F0E5
:1064E5000A84E5F02EFBE4FD7FD01276EF900215CD
:1064F500E0FF75F00A84C454F0FEEF75F00A84E5F8
:10650500F02EFB7D017FD01276EF900216E0FF752D
:10651500F00A84C454F0FEEF75F00A84E5F02EFB12
:106525007D027FD01276EF900217E0FF75F00A84A6
:10653500C454F0FEEF75F00A84E5F02EFB7D047F70
:10654500D01276EF900218E0FB7D037FD01276EF34
:10655500900219E0FF75F00A84C454F0FEEF75F05F
:106565000A84E5F02EFB7D057FD01276EF90021BA5
:10657500E02430FF90021AE034F8FE7C007D0A1218
:106585001647EFC4F8540FC868FFAB07E0FEA3E059
:10659500FF7C007D0A121647EB2DFB7D067FD0029E
:0265A50076EF8F
:1000260000000000000000000000000000000000CA
:10003600000000000018188888286A4E0CE8E808B6
:1000460008181800000444446525341C0E0F1D349E
:100056006444040000F8F888F8F81090901010FE38
:10006600FE101000001F1F081F1F00000343407FE3
:100076007F0000000020644C0800FEFE929292FE73
:10008600FE00000000303C0F437E7E7E7E427E7E78
:100096007E7E4000000000F8F828F8FAAEACA8F81A
:1000A600F82828000040703F4F42662E3A123A2E3A
:1000B6006642400000202020A0E060FFFFE0C06014
:1000C600381800002030180E0741C0FF7F010306D4
:1000D6000C1810100080C0F0FE0E9090121E1CD05E
:1000E600D01000000000007F7F40414F4E607C5FD3
:1000F6004340400000F8F888F8F81090901010FE81
:10010600FE101000001F1F081F1F00000343407F42
:100116007F0000000000F0F20EECE4242424E4E466
:1001260004FCFC0000007F7F000F0F0909090F4F38
:10013600407F7F0000808282FEFE82828282FEFEF7
:1001460082828000004060381F07000000007F7F29
:100156000000000000001010121E1CF0F0181E1601
:10016600101000000041416131190F07070F1931C6
:1001760061414100002038DFC7444444FCFC44444C
:10018600444404000404040707040404FFFF0404B1
:1001960004040404000000FEFE222222222222225F
:1001A600FEFE000080C0703F0F020202020242C241
:1001B600FF7F0000000000FEFE828282828282FEB5
:1001C600FE000000000000FFFF404040404040FFAE
:1001D600FF000000000000F8F88C8E8B898888F8F4
:1001E600F8000000000000FFFF444444444444FF7C
:1001F600FF0000004044C4C44444445010FFFF10B4
:1002060010F0F000103C3F1314BCF8703E0F41C0D4
:10021600C07F3F00101010FFFFB0B8D868290F2E1E
:1002260068E8B8180242C3FF7F40404242427E7EE1
:100236004242424040505E4E48FFFF484848F8F868
:1002460000FFFF0000003E3E02FFFF323E1E0F4F42
:10025600C0FF7F00000022323AAEA6E26331198960
:1002660081010000004262331B4BC2FE7E020A1A65
:10027600336746002030BCEF733088C8E8B99F8EDC
:10028600A8E8C888226767321292C0703F0F003F05
:100296007F40717100083830FFFF202020FFFF20CB
:1002A600222E2C2004040603FFFFC0703E0F071EFB
:1002B6003860C08000048484C46474DF9F3464C4DE
:1002C60084840400417939003C7C40424E4C4070A5
:1002D600740D3931101C4C643414050706041434AB
:1002E60064541C0C004040414141417F7F414141E3
:1002F6004140400000F8F943424242FAFA42424283
:1003060042FEFE0000FFFF080C06033F3F03064CBB
:10031600C8FF7F000000FEFE42424242FAFA424215
:1003260042C2C20280E07F9FC060381E070140C003
:10033600C07F3F000000F8F8888888FFFF8888881B
:10034600F8F80000808081C54C78303F2F6040402F
:10035600C181808090D27634FFFF3476D2F0FF8F51
:1003660008F8F808829ADE776372DE8E80C0733FE3
:100376003F73C0801010FFFF9090FEFE9292F2F243
:10038600929E9E8042C2FF7F81E07F1FFCFC474712
:1003960044FCFC00404042CECC40E0BE9E82829EA1
:1003A600BEA020200000003FBF98C8436F3C386EB7
:1003B60047C18080001717D5D557577D7D5757D52C
:1003C600D51717004040407F7F5555555555557FE9
:1003D6007F404040404042CECC00FCFCA4A42622F4
:1003E600A3E362000040603F3F785F57584D4747A0
:1003F6004D5850400000FEFE02F2F21212F2F202D6
:10040600FEFE000000007F7F2027272424272720C8
:100416007F7F000020305C4F57545454545454D4BA
:10042600D404040000000000000000000000000FDB
:100436003F70F0F08080C06030182CE7C70C183091
:1004460060C080800000000202020282C2623A1E80
:100456000600000040404242424242FEFE42424204
:10046600424240408080C060301C0F03030F1C30A6
:1004760060C080801010D0FFFF94F4EFAFA4A4AF4B
:10048600EFE40400040703FFFF89CB6B3A1E1E3A14
:100496006BCB8880101090909090909010FFFF107A
:1004A60011171610002060603F3F101010030F1C3C
:1004B6003060F8F800002424242424FCFE222223A1
:1004C60023220000020202020242C2FF7F0202024F
:1004D60002020202000000BEBE2A2AEAEA2A2A3ED8
:1004E6003E0000000044464B4949497F7F4949493F
:1004F600494140000004FFFF2424FFFF04FEFE22C2
:1005060022FEFE0088C86F2F0919BFEF783F0F4201
:10051600C2FF7F0080808080808080808080808095
:1005260080808080000000000000000000000000C5
:100536000000000000000808080808080808080865
:1005460008080000101010101010101010101010D5
:100556001010101000048484848484848484848429
:1005660084840400202020202020202020202020F9
:100576002020202000FCFC0404FCFC0404FCFC04F9
:1005860004FCFC00007F7F2C27232020202123222F
:10059600227F7F000002424242C2FE7E424242C2A7
:1005A600C202020040404040787F47404040407FC2
:1005B6007F40404020202020202021232E2C202058
:1005C60020202020004060301C0F0300000103069D
:1005D6001C7860004042CECC00445454547F7F5473
:1005E6005454444000007F7F3010FFFF151555D549
:1005F600FF7F000088E87FDFC818D8DC56D3D39683
:100606009CD8D010091919FFFF05FFFF92FFFF5F65
:10061600DFFF7F00000000000001E3FEFCE00000B9
:100626000000000080C060301C0F030000030F3C78
:1006360070C08080109CCC44E4E495B7E6643494A2
:10064600C4D49C0C02027A7B4143437E7E424243E1
:10065600FBF800000484E4FC5CC4C402F2F282826B
:10066600FEFE808002037F7F103F3F08080808488F
:10067600C8C87F3F4070FFEF646C487F7F48487F63
:100686007F48484001017F7F3111FFFF49494949B1
:10069600FFFF00004042CECC00809E9E9292929236
:1006A6009E9E800000007F7FB494C464341F1F3474
:1006B60064C48484101010FFFF9090F0F010FFFFC8
:1006C60010F0F0000444C6FF7F0100FFFF427F7F69
:1006D60042FFFF004040C0DF5F55D5D55555555FF9
:1006E6005F40404020607F3F3515FFFFD76F393DA3
:1006F6006FC3808020202020202020FFFF20202084
:10070600202020208080C060301C0F03030F1C3087
:1007160060C08080000000E0E00000FFFF000020D5
:1007260060C08000080C07030040C0FF7F00000087
:1007360000010F0E80E0F8FF0704747455575654F5
:10074600747404000000FFFF03030545C5FD7D0525
:1007560005050303206464B494BFBF809FBFA4A6AD
:10076600A23A3800000000FFFF0A0A0A0A4ACAFF36
:100776007F000000404042465CD8C07F7FC0D05812
:100786004E4640408080C060381F0700003F7F40D3
:10079600404078784060F8FFF7F0B0DC5F77A4F46B
:1007A6005CCC80800000FFFF1F9F92D25B692D36D4
:1007B6001A0800000484848484FCFC70FCCF0B08B7
:1007C600F8F80808007F7F30101888C061371E1EB1
:1007D6003761C08020303CEFE72424E2EE2CBFBF17
:1007E60028EEE6000101017F7F3191CF6F301F1F98
:1007F600306FCF80101C0C24242425272624242483
:1008060024141C0C008181C1713F0F01017FFF81FF
:1008160081F1F1000000F8F88888888808FFFF0950
:100826000BCAC80880E07F1F10303F9FC061371E8B
:100836003E67F9F80080E0F8FF073E3E22E2E2223A
:100846003E3E0000010100FFFF31190D07FFFF07C3
:100856000D193120040484E4FC1F27242424A4E475
:1008660064240404020301FFFF020242C2FF7F0266
:100876000202020240445475E7E6745444FCFC4408
:10088600C4C6424020325ACAFF7F0A9AF27F1F002E
:10089600FFFF00000202F2F2929292FEFE92929204
:1008A600F2F202020404FFFF04040407070444C42E
:1008B600FF7F040400020E8CE0E0C0703FCFC80842
:1008C6002838180002027E7F81C060381E07071E86
:1008D6003860C080000202020282C2F2FE4EC2826C
:1008E6000202020010180C06030100FFFF000001BF
:1008F600030E0C0010180C87EF7C94949C8F87ECE9
:10090600FC948484040603FFFF0000020E4CC0FF23
:100916007F00000000F8F923222222A2FAFA2222FE
:1009260022FEFE0000FFFF080C0613313F1F0040A9
:10093600C0FF7F0000E0E0FFFF302888F87F0FE867
:10094600E8088888010100FFFF101C8FC7673B1F5E
:100956001F7AE381203018FFF7545454545454F44A
:10096600F4040400809090D94D5F772525755D4D80
:10097600C58080807E7E5AFEFE5A7E7E2020FFFF46
:10098600222E2C20E9E9696F6765B5F5703E0F0FD9
:100996003E70C080404042CECC00000000FFFF0009
:1009A600000000000000003FBFD868381F07071F7F
:1009B6003860C0800000007F7F4949494949497F26
:1009C6007F00000081C1613D3D61C1FFFF898989CA
:1009D6008989818100028282C26232FAFE262262FF
:1009E60042C28200010101FCFC444445454444FCEA
:1009F600FC0001010484E4FC5CC4E430F8EF27E465
:100A0600F43CECE002037F7F103FBFE07F1F093F0D
:100A16007FC9FF7F101C4C44444445C7C644444428
:100A260044541C0C80C0603E3E60407F7F4444447A
:100A360044444040829A9E97FBFA52D2FE7E12129E
:100A4600F3F11110000101FEFF939393929292FE2F
:100A5600FF0300000040424242C2FE7EC2C2424242
:100A66004240400080C060301C0F03003F7F404082
:100A76004070700000F8F808080888FFFF8808082A
:100A860008F8F80000FFFF080C0603010001034EFA
:100A9600CCFF7F00101C4C643494C56766C4943444
:100AA60064541C0C040406FEFF454444444445FFBC
:100AB600FE06040400000000000000FFFF0808080E
:100AC600080808080000FFFF4141414141414141FA
:100AD600FFFF00002030BCEF6338989090FFFFD9ED
:100AE6004B4A4840226767321212524060331F1C3D
:100AF6003663F9F80000F0F0101010FFFF10101028
:100B0600F0F0000000000F0F040404FFFF040404CB
:100B16000F0F0000040404F4F4D4F5A7A6F4D4F4EB
:100B2600F404040400FEFE02123A3E17131A3A7247
:100B3600C2FE7E000000183C243C180000000000A5
:100B460000000000E0380C0602030101010101016A
:100B5600010101010101010101010101010101017F
:100B6600010101010101010101010101010101016F
:100B7600010302060C38E0404040404040404040FF
:100B8600C000FF00000000000000000000000000A0
:100B9600000000000000000000000000000000004F
:100BA600000000000000000000000000000000003F
:100BB60000000000FF40C000000000000000FF0031
:100BC600FF00000000000000000000000000000020
:100BD600000000000000000000000000000000000F
:100BE60000000000000000000000000000000000FF
:100BF6000000FF00FF0000F0FFF00000FF00FF0014
:100C060000000000000000000000000000000000DE
:100C160000000000000000000000000000000000CE
:100C260000000000000000000000000000000000BE
:100C3600FF00FF001CFFFFFF1C00FF00FF800000FD
:100C4600000000000000000000000000000000009E
:100C5600000000000000000000000000000000008E
:100C66000000000000000000000000000080FF708F
:100C76005F0000FFFFFF00005F700003060C08180E
:100C8600101010101010101010101010101010105E
:100C9600101010101010101010101010101010104E
:100CA6001010101010101018080C16131808081041
:100CB60010180818101010080000000000000000AE
:100CC6000000000000000000000000F8F80000002E
:100CD600000030333300000000100C06100C060034
:100CE60000000000000000004040F840F84000000E
:100CF600043E053F05040000007088FC0830000033
:100D0600001820FF211E0000F008F0807008000087
:100D160000211C031E211E0000F088700000000048
:100D26001F2027281F2110000000000000000000DF
:100D360080B0F07000000000000000F0FC0E020021
:100D46000000000F3F70400000061EF8E0000000A3
:100D56000060781F070000004040C0F0F0C040402F
:100D66000202030F0F030202000000F0F000000071
:100D76000101011F1F01010100020206040000001B
:100D8600000000000000000000000000000000005D
:100D96000101010101010100000000000000000046
:100DA600003030300000000000000000C0F83C0CAD
:100DB6000060783F07010000E0F0180818F0E00036
:100DC6000F1F3020301F0F00001010F8F800000031
:100DD6000020203F3F2020000070780808F8F0002F
:100DE60000303C2E233130000030388888F87000FF
:100DF60000183820313F1E000080C060F8F800005F
:100E0600060705243F3F240400F8F8888888080070
:100E160000193921313F1F00E0F0988888981800A2
:100E26000F1F3120313F1F0000383808E8F818003E
:100E36000000003F3F00000070F8988898F87000A6
:100E46001E3F2121313F1E00F0F8080818F8E00087
:100E5600313322323B1F07000000C0C0C000000033
:100E660000003030300000000000008080000000EC
:100E7600000080E060000000000080E070180800BC
:100E86000001030E1C30200040404040404040001E
:100E9600040404040404040000083870C080000040
:100EA6000020381C060301007078080818F8F000C6
:100EB6000000303737010000C0F0F8E8E8F8F0E04D
:100EC600071F3F2727371F0B0000E0F8F8E0000058
:100ED600203C3F23233F3C2008F8F88888F8700020
:100EE600203F3F20313F1E00E0F038080838380028
:100EF6000F1F30202030100008F8F80818F0E00026
:100F0600203F3F20301F0F0008F8F888E8F8180047
:100F1600203F3F202333300008F8F888E8E818100F
:100F2600203F3F2003030000C0F03808083838008F
:100F3600071F3820223E1E0208F8F80808F8F808AD
:100F4600203F3F21213F3F20000808F8F80808000D
:100F56000020203F3F202000000808F8F80808007D
:100F6600C0C080FF7F00000008F8F8C8E8381808FD
:100F7600203F3F21273E382008F8F80800000000EF
:100F8600203F3F202030300008F8F800F8F808002D
:100F9600203F003F003F200008F8F8F8C8F8F8089E
:100FA600203F3F231F3F3F00E0F0180818F0E00005
:100FB6000F1F3020301F0F0008F8F80808F8F0005F
:100FC600203F3F2101010000E0F0180818F0E00082
:100FD6000F1F3C247C7F4F0008F8F88888F87000C3
:100FE600203F3F21073E38200070F8880818180077
:100FF60000303021233F1E00181808F8F80818188A
:101006000000203F3F20000008F8F80808F8F8081C
:10101600001F3F20203F1F000878F88888F87808CE
:1010260000000F3F3F0F000008F8FCFCF8F8F80836
:1010360000073F3F3F3F07000838F8E8E8F8180880
:1010460020303C2F2F3E38200838F8C8C8F838081A
:101056000000203F3F200000101808C8F83808009C
:10106600303C2F2320301000000000FEFE0202005C
:101076000000007F7F404000001CFCE000000000F4
:10108600000000031F7C6000000202FEFE0000005C
:101096000040407F7F0000000000040606040000B8
:1010A600000000000000000000000000000000003A
:1010B600808080808080808010161E0E00000000D8
:1010C600000000000000000000008080808080009A
:1010D600001D3D26223F3F2008F8F8808080000052
:1010E600003F3F21203F1F0000008080808080005D
:1010F600001F3F31203111000000808088F8F80081
:10110600001F3F21203F3F2000008080808000009C
:10111600001F3F22223313008080F0F888981800C1
:1011260000203F3F2020000000008080808080005B
:10113600006BFF9497F3600008F8F88080808000C9
:10114600203F3F21203F3F200080809898000000EC
:101156000020203F3F20200000008080989800005B
:1011660000C0C080FF7F000008F8F8808080800003
:10117600203F3F263F392000000808F8F80000000D
:101186000020203F3F20200080808080808080805B
:10119600203F3F203F3F203F80808080808080002E
:1011A600203F3F2100203F3F0000808080800000DC
:1011B600001F3F31213F1F0080808080808000001B
:1011C60080FFFFA1303F1F000000808080808000EC
:1011D600001F3F21A0FFFF808080808080808000EC
:1011E60020203F3F21210100000080808080800078
:1011F60000333724243D1900008080E0E080800021
:101206000000001F3F20200080808000808080003A
:10121600003F3F20203F3F2080808080808080806C
:1012260000031F3C3C1F03008080C0C0808080807C
:10123600000F3F3F3F3F0F0080808080808080000E
:1012460020313F2E3F31200080808080808080804A
:101256008083CF7E3E0F01000080808080808000EA
:081266000021393C2733300060
:103B570060C000000000000000000000000000003E
:103B6700000000000000000000000000000000004E
:103B7700000000000000000000000000000000003E
:103B8700000000000000000000000000000000002E
:103B9700000000000000000000000000000000001E
:103BA700000000000000000000000000000000000E
:103BB70000000000000000000000000000000000FE
:103BC70000000000000000000000000000000000EE
:103BD70000000000000000000000000000000000DE
:103BE70000000000000000000000000000000000CE
:103BF70000000000000000000000000000000000BE
:103C070000000000000000000000000000000000AD
:103C17000000000060C000C00000000000000000BD
:103C2700000000000000000000000000000000008D
:103C3700000000000000000000000000000000007D
:103C4700000000000000000000000000000000006D
:103C5700000000000000000000000000000000005D
:103C6700000000000000000000000000000000004D
:103C7700000000000000000000000000000000003D
:103C8700000000000000000000000000000000002D
:103C9700000000000000000000000000000000001D
:103CA700000000000000000000000000000000000D
:103CB70000000000000000000000000000000000FD
:103CC70000000000000000000000000000000000ED
:083CD7000000000000000000E5
:047665007F057E001F
:10766900D3EF9400EE9400400F7D147C32DCFEDDF4
:08767900FAEF1F70EB1E80E820
:0176810022E6
:10784500D3EF9400EE94004007EF1F70F31E80F015
:017855002210
:0479240043BB6022DF
:106FBA0090021CE0FF90021BE04440FBE4FD126FCC
:0C6FCA00D690021FE044B8FBE4FD7F07F6
:106FD600EF30E002C2C2EF30E102C291EF30E202CE
:106FE600C292D2C6ED6004D2C58002C2C5C2C1AF8C
:106FF600038F80C2C6D2C2D291D2927F017E000296
:027006007669A9
:0770E200900293E0FF7D0125
:1070E9007580FFEFB40104C2C2800EEFB40204C27E
:1070F900918006EFB40402C292ED6004D2C5800209
:10710900C2C5D2C100D2C600AC80C2C6C2C1D2C2F9
:0D711900D291D2927F017E00127845AF0422
:017126002246
:02740D00A907CD
:10740F00E4FBE930E009E4FD7F011270E9EFFBE9ED
:10741F0030E10AE4FD7F021270E9EB4FFBE930E245
:0F742F000AE4FD7F041270E9EB4FFBEB20E7D17D
:01743E00222B
:10783300C2CA7F507E00127669D2CA7FA07E000240
:02784300766964
:1075AA007F0712740DE4FAEA126FCFE4F9E4FB7D67
:1075BA00017F07126FD609E9B440F20AEAB408E774
:0175CA00229E
:1074CC00C2CB1276651278337B3E126FD212766580
:1074DC007BC0126FD21276651275AA1276657B3F4D
:0974EC00126FD2127665D2CB2298
:107127007F0712740D7B40E4FD7F01126FD67BBA97
:10713700E4FD7F01126FD6E4FAE4F97BFF7D017F5E
:1071470001126FD609E9B440F27B40E4FD7F0112DA
:107157006FD6EA240344B8FBE4FD7F01126FD60A19
:04716700EAB401D5B0
:01716B002201
:10716C007F0712740D7B40E4FD7F02126FD67BBA51
:10717C00E4FD7F02126FD6E4FAE4F97BFF7D017F18
:10718C0002126FD609E9B440F27B40E4FD7F021293
:10719C006FD6EA240344B8FBE4FD7F02126FD60AD3
:0471AC00EAB401D56B
:0171B00022BC
:10594D00900222EBF0A3EAF0A3E9F0900220EFF031
:03595D00A3EDF0C7
:10596000EF1425E0900220F0ED24FFFFE434FFFE69
:10597000EF7802CEC313CE13D8F9FF700790022739
:1059800004F08016EFB401089002277402F0800A38
:10599000EFB402069002277404F0900221E0145440
:1059A00003C454F0F07F0712740D900227E0FF90BB
:1059B0000221E04440FBE4FD126FD6900227E0FF95
:1059C000900220E044B8FBE4FD126FD6E49002267A
:1059D000F0900225E09002276018E0FF900222E09C
:1059E000FBA3E475F0011216B2A9F0FA1215BBF48C
:1059F0008015E0FF900222E0FBA3E475F00112168F
:105A0000B2A9F0FA1215BBFB7D01126FD6900226E7
:105A1000E004F0E0C3941040B8900227E0FF900249
:105A200021E04440FBE4FD126FD6900227E0FF9096
:105A30000220E00444B8FBE4FD126FD6E490022695
:105A4000F0900225E09002276018E0FF900222E02B
:105A5000FBA3E475F0011216B2A9F0FA1215BBF41B
:105A60008015E0FF900222E0FBA3E475F00112161E
:105A7000B2A9F0FA1215BBFB7D01126FD690022677
:095A8000E004F0E0C3941040B80A
:015A890022FA
:055A8A00E090023FF076
:105A8F0090023CEBF0A3EAF0A3E9F090023AEFF0BA
:035A9F00A3EDF084
:105AA200EF1425E090023AF0ED24FFFFE434FFFE0C
:105AB200EF7803CEC313CE13D8F9FF7007900241DB
:105AC20004F08016EFB401089002417402F0800ADB
:105AD200EFB402069002417404F090023BE01454C9
:105AE2000775F008A4F0FE900241E0FFEE4440FB8F
:105AF200E4FD126FD6E0FF90023AE044B8FBE4FD09
:105B0200126FD6E4900240F090023FE090024160B2
:105B120018E0FF90023CE0FBA3E475F0011216B21C
:105B2200A9F0FA1215BBF48015E0FF90023CE0FBED
:105B3200A3E475F0011216B2A9F0FA1215BBFB7DAF
:105B420001126FD6900240E004F0E0C3940840B81E
:105B5200900241E0FF90023BE04440FBE4FD126F03
:105B6200D6900241E0FF90023AE00444B8FBE4FD23
:105B7200126FD6E4900240F090023FE09002416042
:105B820018E0FF90023CE0FBA3E475F0011216B2AC
:105B9200A9F0FA1215BBF48015E0FF90023CE0FB7D
:105BA200A3E475F0011216B2A9F0FA1215BBFB7D3F
:105BB20001126FD6900240E004F0E0C3940840B8AE
:015BC20022C0
:106DB100900216EFF0A3EDF0A3EBF0A3EAF0A3E944
:106DC100F0900218E0FBA3E0FAA3E0F91215BB6012
:106DD1003D75F010A424BEF9740A35F0FA7BFF90DA
:106DE1000216E0FFA3E0FD90021B125A8A900217DF
:106DF100E004F0E0D3941840097401F0900216E029
:0F6E010004F0900219E475F00112169C80B32280
:08511100900209EFF0A3EDF09C
:10511900780F7C027D017BFF7A0079267E007F0A69
:10512900121595E4900219F0A37409F0E4A3F0A311
:10513900F0A31218050000000190020BE0FCA3E0A7
:10514900FDA3E0FEA3E0FFEC33501690021B7401AF
:10515900F090020BA3A3A3E012174490020B1217BD
:10516900F990020BE0FCA3E0FDA3E0FEA3E0FFEC55
:105179004D4E4F6074E47B0AFAF9F890020BA3A331
:10518900A3E01271F5AC00AD01AE02AF0390021DB0
:105199001217F990021DA3A3A3E02430FF9002196E
:1051A900E0FE04F0740F2EF582E43402F583EFF08B
:1051B90090020BE0FCA3E0FDA3E0FEA3E0FFE47B8B
:1051C9000AFAF9F81271F590020B1217F9900219FF
:1051D900E06402708CE0FF04F0740F2FF582E43470
:1051E90002F583742EF002516A900219E0D39403F8
:1051F900502AE0FF04F0740F2FF582E43402F5839E
:105209007430F0900219E0B402DFFF04F0740F2F3C
:10521900F582E43402F583742EF080CD90021BE010
:105229006014900219E0FF04F0740F2FF582E43442
:1052390002F583742DF0E490021AF0900219E0FF50
:10524900A3E0FEC39F503F740F2EF582E43402F5AC
:1052590083E075F010A424BEF9740A35F0FA7BFFD7
:10526900900209E0FFA3E0FD14F0E4125A8B9002CA
:105279000AE0700A900209E004F0A37418F09002A1
:065289001AE004F080B5FC
:01528F0022FC
:0B48EA00900220EFF0A3EDF0A3EBF034
:1048F50078287C027D017BFF7A0079307E007F0A73
:10490500121595E4900232F0A37409F0E4A3F0A324
:10491500F0A312180500000001900223E0FCA3E0BB
:10492500FDA3E0FEA3E0FFEC3350169002347401C2
:10493500F0900223A3A3A3E01217449002231217B9
:10494500F9900222E0606F900222E0FF14F0EFD3AD
:1049550094005003024A29E47B0AFAF9F8A3E0FC23
:10496500A3E0FDA3E0FEA3E0FF1271F5AC00AD01ED
:10497500AE02AF039002361217F9900236A3A3A335
:10498500E02430FF900232E0FE04F074282EF58218
:10499500E43402F583EFF0900223E0FCA3E0FDA3ED
:1049A500E0FEA3E0FFE47B0AFAF9F81271F5900244
:1049B500231217F98091900223E0FCA3E0FDA3E008
:1049C500FEA3E0FFEC4D4E4F605AE47B0AFAF9F87E
:1049D500900223A3A3A3E01271F5AC00AD01AE02D2
:1049E500AF039002361217F9900236A3A3A3E02471
:1049F50030FF900232E0FE04F074282EF582E43494
:104A050002F583EFF0900223E0FCA3E0FDA3E0FEB6
:104A1500A3E0FFE47B0AFAF9F81271F5900223127C
:104A250017F98092900234E06014900232E0FF049E
:104A3500F074282FF582E43402F583742DF0E490A8
:104A45000233F0900232E0FFA3E0FEC39F504174B1
:104A5500282EF582E43402F583E075F010A424BE17
:104A6500F9740A35F0FA7BFF900220E0FFA3E0FD20
:104A750014F0900227125A8A900221E0700A9002DF
:104A850020E004F0A37418F0900233E004F080B342
:014A950022FE
:0A580F0090020CEDF0AC07A3EBF0E3
:10581900E4900218F0EB24FFFFE434FFFEEF780375
:10582900CEC313CE13D8F90490020DF0EC24FFFF78
:10583900E434FFFEEF7803CEC313CE13D8F99002F8
:1058490014F090020CE0FF14543F900215F0FDEFA4
:1058590024FFFFE434FFFEEF7806CEC313CE13D83E
:10586900F9FF7401A807088002C333D8FCFF90022E
:1058790016F0900218F0ED4440FBE4FD126FD6904B
:105889000214126FCEE4900212F090020DE0FF9024
:105899000212E0C39F400302594CE4A3F090020EA8
:1058A900E0FF900213E0FEC39F506AEEFF90020CE6
:1058B900E02FFFE433CF24FFCF34FFFEEF7806CE8D
:1058C900C313CE13D8F975F00384AFF07401A80798
:1058D900088002C333D8FCFF900217F0A3E06F6081
:1058E9000E900217E0FFA3F07B40E4FD126FD69003
:1058F9000217E0FF90020FE0FBA3E475F001121616
:10590900B2A9F0FA1215BBFB7D01126FD6900213F2
:10591900E004F08088900216E0FF900218F09002EF
:1059290015E04440FBE4FD126FD6900212E0FF90AF
:105939000214E02F540704126FCF900212E004F012
:035949000258936E
:01594C002238
:0F41C900900289EFF090028BEBF090028AEDF0FC
:1041D800E4900295F0ED14543F900292F0FCED2427
:1041E800FFFFE434FFFEEF7806CEC313CE13D8F9F1
:1041F800FF7401A807088002C333D8FCFF9002931C
:10420800F0900295F0EC4440FBE4FD126FD690026A
:1042180089E014126FCF1270E2E4900290F09002DD
:104228008BE0FF900290E0C39F40030242F9E4A3B1
:10423800F090028CE0FF900291E0FEC39F400302E1
:1042480042C9EEFF90028AE02FFFE433CF24FFCF6C
:1042580034FFFEEF7806CEC313CE13D8F975F003FA
:1042680084AFF07401A807088002C333D8FCFF901C
:104278000294F0A3E06F600E900294E0FFA3F07B3D
:1042880040E4FD126FD69002941270E5AD079002DB
:104298008CE0FF900290E08FF0A4FFA3E07A002F5B
:1042A800FFEA35F0FE90028DE0FBA3E0FAA3E0F907
:1042B8008F828E83ED121613900291E004F0024271
:1042C80039900293E0FF900295F0900292E044400A
:1042D800FBE4FD126FD6900290E0FF900289E02F78
:1042E8005407126FCF1270E2900290E004F002427D
:1042F800267F0712740D900292E04440FBE4FD7F94
:1043080002126FD6900289E01444B8FBE4FD7F02E4
:10431800126FD6E4900290F090028BE0FF9002902A
:10432800E0C39F506EE4A3F090028CE0FF900291EE
:10433800E0FDC39F5031900290E08FF0A47C002DE7
:10434800FFEC35F0FE90028DE0FBA3E0FAA3E0F964
:104358008F828E831215D4FB7D017F02126FD69057
:104368000291E004F080C1900292E04440FBE4FD39
:104378007F02126FD6900290E0FF900289E02F54DE
:104388000744B8FBE4FD7F02126FD6900290E00468
:03439800F080852D
:01439B0022FF
:072D6600900216EDF0AC072E
:102D6D00E490021EF0EC24FFFFE434FFFEEF780345
:102D7D00CEC313CE13D8F990021FF0EC1454079064
:102D8D000222F0EC2B145407A3F0900222E0FDFF79
:102D9D00EB2FFFE433FEEF7803CEC313CE13D8F938
:102DAD00FFED2B540760047E0180027E00EE2FFFA5
:102DBD00900221F090021FE02F14A3F0900216E074
:102DCD00FD14543F90021BF0ED24FFFFE434FFFE91
:102DDD00EF7806CEC313CE13D8F9FF7401A80708F8
:102DED008002C333D8FC90021CF090021EF09002BA
:102DFD0022E07003022EBE126FBA90021C1270E513
:102E0D00E4900219F0900218E0FFA3E0FEC39F408A
:102E1D0003022EB6EEFF900216E02FFFE433CF240F
:102E2D00FFCF34FFFEEF7806CEC313CE13D8F9755E
:102E3D00F0038490021AE5F0F0E0FF7401A8070892
:102E4D008002C333D8FCFF90021DF0A3E06F600E2B
:102E5D0090021DE0FFA3F07B40E4FD126FD69002BF
:102E6D001D1270E5900219E0FE2400F582E4340095
:102E7D00F583EFF074002EF582E43400F583C08302
:102E8D00C082E0FF900222E0FEC374079EFE747FB5
:102E9D00A806088003A2E713D8FB5FD082D083F089
:102EAD00900219E004F0022E1290021CE090021E16
:102EBD00F0900223E07003022F8F90021CE0FF9030
:102ECD00021BE04440FBE4FD126FD6900220126F0E
:102EDD00CE90021C1270E5E4900219F0900218E0F9
:102EED00FFA3E0FEC39F4003022F87EEFF90021663
:102EFD00E02FFFE433CF24FFCF34FFFEEF7806CE73
:102F0D00C313CE13D8F975F0038490021AE5F0F0CF
:102F1D00E0FF7401A807088002C333D8FCFF9002BC
:102F2D001DF0A3E06F600E90021DE0FFA3F07B404B
:102F3D00E4FD126FD690021D1270E5900219E0FEAD
:102F4D0024C0F582E43400F583EFF074C02EF582D1
:102F5D00E43400F583C083C082E0FF900223E0FEDD
:102F6D0074FFA806088002C333D8FC5FD082D083DB
:102F7D00F0900219E004F0022EE990021CE090029C
:102F8D001EF0126FBAE4FA900221E0FFEAC39F40EF
:102F9D00030230ABE4900219F0900218E0FFA3E0B9
:102FAD00FEC39F4003023087EEFF900216E02FFF15
:102FBD00E433CF24FFCF34FFFEEF7806CEC313CE1C
:102FCD0013D8F975F0038490021AE5F0F0E0FF7460
:102FDD0001A807088002C333D8FCFF90021DF0A39F
:102FED00E06F600E90021DE0FFA3F07B40E4FD1248
:102FFD006FD6900222E0F9602EA3E0602A900221A4
:10300D00E0B4012390021DE0FF900219E0FE24C000
:10301D00F582E43400F583E0FD74002EF582E4348E
:10302D0000F583E04D8044E96018EA701590021DAB
:10303D00E0FF900219E02400F582E43400F583E00E
:10304D008029900223E0601D900221E014B5021545
:10305D0090021DE0FF900219E024C0F582E43400D7
:10306D00F583E0800690021DE0FFE4FB7D01126F09
:10307D00D6900219E004F0022FA690021CE0FF90FA
:10308D00021EF090021BE04440FBE4FD126FD6904F
:0E309D00021FE02A540704126FCF0A022F947C
:0130AB002202
:07268B00900210EDF0AC0716
:10269200E4900218F090021EF0EC24FFFFE434FFF5
:1026A200FEEF7803CEC313CE13D8F9900219F0ECE3
:1026B20014540790021CF0EC2B145407A3F0900260
:1026C2001CE0FDFFEB2FFFE433FEEF7803CEC313D4
:1026D200CE13D8F9FFED2B540760047E0180027EF1
:1026E20000EE2FFF90021BF0900219E02F14A3F0CE
:1026F200900210E0FD14543F900215F0ED24FFFF0C
:10270200E434FFFEEF7806CEC313CE13D8F9FF747C
:1027120001A807088002C333D8FC900216F0900289
:1027220018F090021CE070030227FB900216E0FFF3
:10273200900215E04440FBE4FD126FD6900219129C
:102742006FCE9002161270E5E4900213F09002121E
:10275200E0FFA3E0FEC39F40030227F3EEFF9002D7
:1027620010E02FFFE433CF24FFCF34FFFEEF7806D3
:10277200CEC313CE13D8F975F00384900214E5F09A
:10278200F0E0FF7401A807088002C333D8FCFF9071
:102792000217F0A3E06F600E900217E0FFA3F07B38
:1027A20040E4FD126FD69002171270E5900213E01A
:1027B200FE2400F582E43400F583EFF074002EF578
:1027C20082E43400F583C083C082E0FF90021CE003
:1027D200FEC374079EFE7480A806088003A2E71356
:1027E200D8FB4FD082D083F0900213E004F002278E
:1027F2004F900216E0900218F090021DE070030262
:1028020028DE900216E0FF900215E04440FBE4FD52
:10281200126FD690021A126FCE9002161270E5E471
:10282200900213F0900212E0FFA3E0FEC39F400368
:102832000228D6EEFF900210E02FFFE433CF24FFF0
:10284200CF34FFFEEF7806CEC313CE13D8F975F05E
:102852000384900214E5F0F0E0FF7401A8070880F9
:1028620002C333D8FCFF900217F0A3E06F600E9012
:102872000217E0FFA3F07B40E4FD126FD69002172F
:102882001270E5900213E024C0F582E43400F5836F
:10289200EFF01D90021DE0FEEDC39E500AA3E0255D
:1028A200E04401F00D80EC900213E024C0F582E4D4
:1028B2003400F583C083C082E0FF90021EE0FEEF89
:1028C2004ED082D083F0E490021EF0900213E00416
:1028D200F0022826900216E0900218F0900216E00C
:1028E200FF900215E04440FBE4FD126FD6900219FE
:1028F200126FCEE4FA90021BE0FFEAC39F4003028C
:102902002A0FE4900213F0900212E0FFA3E0FEC34C
:102912009F40030229EBEEFF900210E02FFFE43309
:10292200CF24FFCF34FFFEEF7806CEC313CE13D8E9
:10293200F975F00384900214E5F0F0E0FF7401A849
:1029420007088002C333D8FCFF900217F0A3E06FA0
:10295200600E900217E0FFA3F07B40E4FD126FD6F9
:1029620090021CE0F9602EA3E0602A90021BE0B402
:102972000123900217E0FF900213E0FE24C0F582CB
:10298200E43400F583E0FD74002EF582E43400F5B2
:1029920083E05D803CE96018EA7015900217E0FF61
:1029A200900213E02400F582E43400F583E08021F4
:1029B20090021DE0601E90021BE014B50216900208
:1029C20017E0FF900213E024C0F582E43400F5839F
:1029D200E0FB8007900217E0FF7BFF7D01126FD6BC
:1029E200900213E004F0022909900216E0FF90021F
:1029F20018F0900215E04440FBE4FD126FD69002FD
:0D2A020019E02A540704126FCF0A0228F7CA
:012A0F0022A4
:10705200A2A282A082A482A182A382C8403812780E
:1070620085A2A282A082A482A182A382C8402420F7
:10707200A0037F012220A2037F022220A4037F0615
:107082002220A1037F052220C8037F032220A3031D
:097092007F04227F00227F00220E
:10785600E4F5CF75CDC030060475CED02275CE4086
:0178660022FF
:0D7878008FCFE5CD30E7FB75CDC0AFCF223F
:1077F800438920759840758DDC858D8BE4F587D29B
:04780800ACD28E224E
:0878FD008F993099FDC2992218
:02737200AE0764
:10737400EEC4540FFDC36480948AED50042430801D
:107384000424F62461FF1278FDEE540FFDC36480DB
:10739400948AED50042430800424F62461FF12788A
:0173A400FDEB
:0173A50022C5
:07790C00EF2430FF0278FDBB
:107820001215BBFF600C1278FD740129F9E43AFAD5
:0378300080EE22C5
:0D7471009002C8EBF0A3EAF0A3E9F0AE072B
:10747E00E4FDEDC39E501A9002C8E0FBA3E0FAA310
:10748E00E0F98D827583001215D4FF1278FD0D8000
:01749E00E10C
:01749F0022CA
:03002300027682E0
:06768200C0E0C083C082DD
:0F76880030980CC298C2AF900203E599F0D2AFD0
:07769700D082D083D0E03265
:067913000000000000224C
:05000600D2B7D2B622C2
:06000E001275CB12762FE3
:0F001400D2B6D2B7127913C2B6127913C2B7227D
:0C78B900C2B6D2B7127913D2B60279130E
:067629001200141275CBE3
:10762F00D2B712791330B608C2B71279137F00227E
:08763F00C2B71279137F01228A
:0C78C500C2B6D2B7127913C2B702791311
:0C78D100D2B6D2B7127913C2B7027913F5
:1075CB00E4FEEF30E703D38001C392B6EF25E0FF73
:0F75DB00D2B7127913C2B71279130EEEB408E3C8
:0175EA00227E
:1074A000E4FED2B6FDEE25E0FED2B712791330B677
:1074B000034401FEC2B71279130DEDB408E7EF6083
:0B74C000051278C580031278D1AF06DA
:0174CB00229E
:1076EF00127629AC07AF051275CB12762FAF0312A6
:0A76FF0075CB12762F1278B9AF0494
:01770900225D
:02772400AC07B0
:10772600127629AF0512000EEC04FF1275CB127605
:067736002FE4FF1274A015
:01773C00222A
:106F1600AD07127629EF70061278B97F012290022A
:106F2600AFE0FF12000EED04FF1275CB12762F9024
:106F360002B0E0FF6026B4010BE4FF1274A0EF126A
:106F4600160180107F011274A0EF12160174012938
:106F5600F9E43AFA9002B0E014F080D31278B97FDF
:026F6600002207
:10723900127629EF7002801E9002B5E0FF1275CB1D
:1072490012762F9002B6E060221215BBFF1275CBA1
:1072590012762FEF70061278B97F0122740129F98D
:10726900E43AFA9002B6E014F080D81278B97F00B7
:0172790022F2
:103CDF004102C3004102C4004102C5004102C600B7
:043CEF004102C700C7
:0C7885007FB27E787D0CDDFEDEFADFF6BF
:0178910022D4
:0C7892007FB27EE67D0CDDFEDEFADFF644
:01789E0022C7
:0C789F007FD97EAB7D49DDFEDEFADFF60E
:0178AB0022BA
:10743F00EF24FE601214601714601C240370209058
:10744F0002C3E05401FF229002C3E05402FF2290D6
:10745F0002C3E05404FF229002C3E05408FF227FCE
:02746F000022F9
:106E1000EF24FE601D14602D14603D2403704B9020
:106E200002C3E054FEF090020CA3A3A3E09002C4BE
:106E3000F0229002C3E054FDF090020CA3A3A3E063
:106E40009002C5F0229002C3E054FBF090020CA324
:106E5000A3A3E09002C6F0229002C3E054F7F090A2
:0B6E6000020CA3A3A3E09002C7F022E5
:1071B1009002C4E0600414F080079002C3E044012F
:1071C100F09002C5E0600414F080079002C3E0442F
:1071D10002F09002C6E0600414F080079002C3E060
:1071E1004404F09002C7E0600314F0229002C3E06F
:0471F1004408F0223C
:10709B00454550524F4D20736563746F72312068B4
:1070AB00617320646174612E0D0A00454550524F87
:1070BB004D20736563746F72322068617320646155
:1070CB0074612E0D0A00726F6F6D20697320636CF3
:0770DB0065616E2E0D0A0035
:0D78AC00E4F5C7F5C5F5C675C380F5C42227
:10773D0075C78375C5018FC4EEF5C375C65A75C679
:08774D00A50000AFC21278ACE8
:017755002211
:10770A0075C78375C5028FC4EEF5C3AF058FC27501
:0A771A00C65A75C6A500000278AC3F
:1077B80075C78375C5038FC4EEF5C375C65A75C6FC
:0677C800A500000278ACF0
:0568A100900230EFF051
:1068A600E4900233F0A3F0EF30E03FE4900231F0E1
:1068B600A3F0900231E0FEA3E0FFC3EE9402502A5B
:1068C60012773DEFF460137BFF7A70799B12782084
:1068D600900233E4F0A304F08010900232E004F05A
:1068E60070D0900231E004F080C8900230E030E1D0
:1068F60046E4A3F0A3F0900231E0FEA3E0FFC3EE6E
:1069060094025033E42FFFEE3402FE12773DEFF48B
:1069160060157BFF7A7079B6127820900233E0F02A
:10692600A3E04402F08010900232E004F070C790B9
:106936000231E004F080BF900233E07002A3E07001
:10694600097BFF7A7079D1127820900233A3E0FF99
:01695600221E
:0B78E9004E4F2E003A0D0A000D0A0061
:103CF300480279000000000000000048028102022F
:063D0300020202020202AE
:01792800223C
:0677CE00C2C47F017E0031
:1077D400EF1FAC0670011E4C600512792880F1225F
:0675EB00D2C47F017E0006
:1075F100EF1FAC0670011E4C600E1279281279281B
:0976010012792812792880E82290
:10775600D3EF9400EE9400400F7D817C14DCFEDDB7
:08776600FAEF1F70EB1E80E832
:01776E0022F8
:1074F500E4FDD2C47F01FE1275F1C2C47F647E0033
:107505001275F1D2C47F0C7E001275F1A2C4E4336A
:08751500FD7F587E000275F1B4
:10780C00C2C41275EBA2C4E433FD7F047E00127572
:03781C00F1AF05C4
:01781F002246
:10786700C2C4EF24FF92C47F057E001275F1D2C413
:0178770022EE
:10760A007B081277CEEDC313FD1275EB30C404ED7F
:0E761A004480FD7F0A7E001275F1DBE6AF05AD
:01762800223F
:02764700AD078D
:107649007B081277CEED1392C47F0A7E001275F182
:0B765900D2C41277D0EDC313FDDBE7B5
:017664002203
:056F6800900209EFF0AA
:106F6D00E4FAFFFDFC1274F57FCC1276477F4412D4
:106F7D0076477FC87E001277561274F57FCC127655
:106F8D00477FBE12764712760AAA0712760AEFFEDF
:106F9D007C00E42AFFEC3EFE7D19121635AC06ADE1
:0C6FAD0007EF7802CEC313CE13D8F9FF13
:016FB90022B5
:0B72FB00900209EBF0A3EAF0A3E9F019
:107306001274F57F33127647E4A3F012760A9002E0
:1073160009E0FBA3E0FAA3E0F9A3E0F58275830098
:10732600EF12161390020CE004F0E0C3940840DB61
:017336002234
:0B78DD007F089002817402F0A3DFFC22
:0178E800227D
:106B1F00900209EEF0A3EFF07C277D1012164712BA
:106B2F00790C900209E0FEA3E0FF7C037DE81216CA
:106B3F00477C007D0A121647AF0512790C900209A7
:106B4F00E0FEA3E0FF7C007D641216477C007D0A07
:106B5F00121647AF0512790C7F2E1278FD9002099D
:106B6F00E0FEA3E0FF7C007D0A1216477C007D0A41
:106B7F00121647AF0512790C900209E0FEA3E0FF51
:0C6B8F007C007D0A121647AF0502790C4D
:056B9B00900209EFF07B
:106BA000E4A3F0900209E0FFA3E0C39F50687BFFDD
:106BB0007A7879E912782090020AE004FF12737261
:106BC0007BFF7A7879ED127820E490020BF0900246
:106BD0000BE0FFC39408502D90020AE075F008A462
:106BE0002479F582E43402F583E5822FF582E435D9
:106BF00083F583E0FF1273727F201278FD90020B01
:106C0000E004F080C97BFF7A7879F1127820900255
:066C10000AE004F0808D93
:016C1600225B
:103D09004C02530000000000000000000000004CBD
:103D19000245000000000000000000000000410210
:0C3D290051004102520043024201029688
:01792900223B
:01792A00223A
:10631800900255E0FE6410706CA3E07068A3E0FF83
:10632800900242E0FBA3E0FAA3E0F9EF1216019015
:106338000258E0FF900242E0FBA3E0FAA3E0F990E4
:106348000001EF121613900259E090000212161382
:1063580090025AE090000312161390025BE090003E
:106368000412161390025CE09000051216139002B6
:106378005DE090000612161390025EE0900007128E
:1063880016137F0122EE6411706E900256E0706859
:10639800A3E0FF900242E0FBA3E0FAA3E0F9EF12CA
:1063A8001601900258E0FF900242E0FBA3E0FAA336
:1063B800E0F9900001EF121613900259E0900002E4
:1063C80012161390025AE090000312161390025B03
:1063D800E090000412161390025CE090000512167B
:1063E8001390025DE090000612161390025EE09092
:0B63F80000071216137F02227F002214
:1073DA0074656D70323A0D0A000D0A00414443206B
:1073EA00646174613A0D0A00706F73737720646187
:1073FA0074613A0D0A00666C6F7720646174613AB1
:03740A000D0A0068
:103D350048029600000000024401FF44029E22B89A
:023D450022B8A2
:10727A007F01126F689002A0EEF0A3EFF07BFF7A15
:10728A007379DA1278209002A0E0FEA3E0FF126B75
:10729A001F7BFF7A7379E3127820D39002A1E094DE
:1072AA00889002A0E0941340077422F0A374B8F007
:0172BA0022B1
:1070080090029AE0FEA3E0FDEDFBAA06E4FEFDFC7B
:10701800C39DF582EE9CF5837D64AF03AE02121624
:1070280035AD82AC831216477BFF7A7379E6127806
:107038002090029AE0FF12737290029BE0FF127395
:0A704800727BFF7A7379E30278206F
:1073A6007BFF7A7379F212782090029DE0FF1273C8
:1073B600727BFF7A7379E31278207BFF7A74790007
:1073C60012782090029CE0FF1273727BFF7A737929
:0473D600E302782036
:1067E7003A0020002A0021003F00484F4D45004352
:1067F70000300031003200330034003500360037F6
:1068070000380039002E00250000000000000000BD
:106817000000000000000000000000000000000071
:106827000000000000000000000000000000000061
:106837000000000000000000000000000000000051
:106847000000000000000000000000000000000041
:106857000000000000000000000000000000000031
:106867000000000000000000000000000000000021
:106877000000000000000000000000000000000011
:10688700000000000000000000000000F0FFF00022
:0A6897001CFFFFFF1C00FFFFFF00C5
:103D4700C1054102BC00C1044102B7004102B801EC
:0C3D57004102B9004102BA004102BB0069
:1077880090029EE0FEA3E0FFE4FCFD90020B1217BE
:08779800F97D167F0102511179
:1077A0009002A0E0FEA3E0FFE4FCFD90020B1217A4
:0877B000F97D0E7F0402511166
:056CEE00900180EFF0B1
:106CF30078817C017D017BFF7A6879107E007F8239
:106D0300121595900180E0602FB20430041B9002AD
:106D13000E7405F0A374FFF0A37468F0A37492F0EB
:106D23007B187D377F1102580F9002187405F07B92
:106D3300187D377F11022D663004119002187405F7
:0C6D4300F07B187D377F11122D66C20412
:016D4F002221
:10218500E490020AF0A37406F0A314F0A312180554
:1021950000000000900211121805000000009002D6
:1021A500BCE0707690026CE070030223671275AA9A
:1021B5007BFF7A0579DAE4900225F07D047F011230
:1021C500594D7BFF7A0579FAE4900225F07D057F6C
:1021D5000112594D7BFF7A06791AE4900225F07DAC
:1021E500067F0112594D7BFF7A06793AE490022564
:1021F500F07D077F0112594D7BFF7A06795AE490ED
:102205000225F07D087F0112594D7BFF7A6779E73A
:10221500E490021BF07D110222A69002BCE064034B
:1022250060030222B31275AA7BFF7A0579DAE4907E
:102235000225F07D047F0112594D7BFF7A0579FA5D
:10224500E4900225F07D057F0112594D7BFF7A064A
:10225500791AE4900225F07D067F0112594D7BFF26
:102265007A08797AE4900225F07D077F0112594DAD
:102275007BFF7A06793AE4900225F07D087F01120A
:10228500594D7BFF7A06795AE4900225F07D097F46
:102295000112594D7BFF7A6779E7E490021BF07DC7
:1022A500137F01126DB190020AE0FF124F8C12707C
:1022B50052900209EFF060F6E0FEB40103022680B9
:1022C500EE6403704F90020BE0FF04F0D3EF6480DF
:1022D50094865038E025E0FFC374139FFD7BFF7A99
:1022E5006779E9E490021BF07F02126DB190020D4F
:1022F500E0FCA3E0FDA3E0FEA3E0FFE47B0AFAF91E
:10230500F81271F590020D1217F9802090020B74E6
:1023150006F08018900209E0FFB40506A3E014F06A
:10232500800AEFB4060690020AE004F090020AE083
:10233500FFD36480948A4004E4F0800EC3EF648088
:102345009480500690020A740AF090020AE0FF1287
:102355004F8C900209E0640260030222B3A3E0B44B
:102365000A089002CD742102268590020BE0FF1425
:10237500F0D3EF64809480406790020DE0FCA3E009
:10238500FDA3E0FEA3E0FFE47B0AFAF9F81216F5D7
:1023950090020D1217F990020DE0F8A3E0F9A3E001
:1023A500FAA3E0FB90020AE0FF3395E0FEFDFCEBAB
:1023B5002FFFEA3EFEE93DFDE83CFC90020D1217B9
:1023C500F990020BE025E0FFC374119FFD7BFF7AB6
:1023D5006779EBE490021BF07F02126DB10222B324
:1023E5009002BCE0640360030224C97402F0900209
:1023F5000DE0FCA3E0FDA3E0FEA3E0FFA31217F9A7
:1024050090021874C0F07B207D017F01122D667B40
:10241500FF7A0579DAE4900225F07D037F011259F0
:102425004D7BFF7A08799AE4900225F07D047F01BF
:1024350012594D7BFF7A0879BAE4900225F07D05A3
:102445007F0112594D7BFF7A0579FAE4900225F058
:102455007D067F0112594D7BFF7A06791AE49002B9
:1024650025F07D077F0112594D7BFF7A08797AE4C3
:10247500900225F07D087F0112594D7BFF7A067980
:102485003AE4900225F07D097F0112594D7BFF7AD0
:1024950006795AE4900225F07D0A7F0112594D7B99
:1024A500FF7A6779E7E490021BF07D157F01126DD5
:1024B500B190020B7406F090020D12180500000091
:1024C500000222B39002BCE0640260030225B390CF
:1024D5000211E0FCA3E0FDA3E0FEA3E0FF90020DE6
:1024E500E0F8A3E0F9A3E0FAA3E0FBC312175270EA
:1024F5003E900211E0FCA3E0FDA3E0FEA3E0FF9007
:10250500026D1217F978167C027D017B017A02793A
:102515006C7E007F0D1215957F021247379002CD14
:102525007421F0A37450F09002BC7401F0FF229066
:10253500021874C0F07B107D017F11122D667BFFA0
:102545007A06793AE4900225F07D057F0212594D0D
:102555007BFF7A06795AE4900225F07D067F021208
:10256500594D7BFF7A0879DAE4900225F07D077FE3
:102575000212594D7BFF7A0879FAE4900225F07D25
:10258500087F0212594D7BFF7A6779EDE490021BB3
:10259500F07D117F02126DB112789F9002CD7421EA
:1025A500F0A37450F09002BC7404F07F00229002F6
:1025B500BCE060030222B390020DE0FCA3E0FDA3A2
:1025C500E0FEA3E0FF90026DE0F8A3E0F9A3E0FAD6
:1025D500A3E0FBC3121768700C9002CD7421F0A321
:1025E500E4F07F012290021874C0F07B107D017F1A
:1025F50011122D667BFF7A06793AE4900225F07D6B
:10260500057F0212594D7BFF7A06795AE49002251F
:10261500F07D067F0212594D7BFF7A06797AE490A8
:102625000225F07D077F0212594D7BFF7A06799AC4
:10263500E4900225F07D087F0212594D7BFF7A67F1
:1026450079EDE490021BF07D117F02126DB11278D5
:102655009F90021874C0F07B107D017F11122D66CA
:1026650090020B7406F090020D1218050000000090
:1026750090020CE014F060030222B39002CD7410B6
:05268500F0A3E4F0FFEA
:01268A00222D
:106957009002097401F0E4A3F01275AA0269F81213
:106967007052EF60FA64016004EFB4050A9002CD3B
:106977007410F0A3E4F022EFB40320900209E014AE
:10698700F0E0FEC36480948150067407F0A3802C66
:10699700EEB4040590020A80238026EFB404299000
:1069A7000209E004F0E0FED3648094874007740195
:1069B700F0A3F0803CEEB4050890020A7401F08061
:1069C70030E490020AF08029EF64026004EFB40615
:1069D70020900209E0FF3395E0FEEFC4F8540FC89A
:1069E70068FFEEC454F04844219002CDF0A3EFF0C5
:0F69F70022900209E0FFA3E0FD121A090269666F
:10612B0090020A7401F01275AA7BFF7A04797AE463
:10613B00900225F07D047F0112594D7BFF7A047983
:10614B009AE4900225F07D057F0112594D7BFF7A71
:10615B0003799AE4900225F07D067F0112594D7B5D
:10616B00FF7A0379BAE4900225F07D077F0112597B
:10617B004D90020AE0FF125408127052900209EF80
:10618B00F060F6E0FFB401079002CD74108051EF80
:10619B00B405079002CD74218046EFB4031390022F
:1061AB000AE014F0E0C364809480501A7402F0800B
:1061BB0015900209E0B4040EA3E004F0E0D3648070
:1061CB0094824002E4F090020AE0FF12540890021D
:1061DB0009E0640270A3A3E0FF700A9002CD742162
:1061EB00F0A3E4F022EFB401079002787401800B66
:1061FB0090020AE064027081900278F09002CD74F4
:10620B0021F0A3E4F078167C027D017B017A027900
:0C621B006CFE7F0D1215957F08124737AE
:016227002254
:10456A009002097403F0E4A3F01275AA7BFF7A01A2
:10457A0079DAE4900225F07D027F0112594D7BFF22
:10458A007A0179FAE4900225F07D037F0112594DF0
:10459A007BFF7A0679BAE4900225F07D047F011246
:1045AA00594D7BFF7A0079BAE4900225F07D057FA8
:1045BA000112594D7BFF7A0079BAE4900225F07D09
:1045CA00067F0112594D7BFF7A0079DAE4900225C1
:1045DA00F07D077F0112594D7BFF7A03799AE490A7
:1045EA000225F07D087F0112594D7BFF7A0379BAC3
:1045FA00E4900225F07D097F0112594D02472712E6
:10460A007052EF60FAB401089002CD74100246E4C9
:10461A00EFB40516900209E004F0E0D364809483B5
:10462A005003024727E4F0024727EFB40617900227
:10463A0009E014F0E0C364809480400302472774C1
:10464A0003F0024727EF64037046900209E0FEB4C4
:10465A000106A3E004F08018EEB4020990020AE011
:10466A00240AF0800BEEB4030790020AE02464F0F7
:10467A0090020AE0FEC364809480400BD3EE64800B
:10468A0094E4500302472790020A7464F002472711
:10469A00EF64047035900209E0FEB40106A3E01449
:1046AA00F08018EEB4020990020AE024F6F0800BBA
:1046BA00EEB4030790020AE0249CF090020AE0C3D9
:1046CA00648094805057E4F08053EF6402704E90F7
:1046DA000209E0700A9002CD7421F0A3E4F022905E
:1046EA000273E0FF90020AE0FDFB3395E0FAC3EBA8
:1046FA009F7480F86A985025900272EDF09002CD6E
:10470A007421F0A3E4F078167C027D017B017A0221
:10471A00796CFE7F0D1215957F0402473790020AC5
:0D472A00E0FF900209E0FD125CDF0246098D
:10439C009002097403F0A37464F01275AA7BFF7A7F
:1043AC000179DAE4900225F07D027F0112594D7BF0
:1043BC00FF7A0179FAE4900225F07D037F0112590E
:1043CC004D7BFF7A07793AE4900225F07D047F015A
:1043DC0012594D7BFF7A0079BAE4900225F07D05E5
:1043EC007F0112594D7BFF7A0079BAE4900225F0D7
:1043FC007D067F0112594D7BFF7A0079DAE4900239
:10440C0025F07D077F0112594D7BFF7A03799AE4E1
:10441C00900225F07D087F0112594D7BFF7A0379BC
:10442C00BAE4900225F07D097F0112594D02455ADC
:10443C00127052EF60FAB401089002CD741002456C
:10444C0017EFB40516900209E004F0E0D3648094F1
:10445C0083500302455AE4F002455AEFB406179014
:10446C000209E014F0E0C364809480400302455AD2
:10447C007403F002455AEF64037046900209E0FEA3
:10448C00B40106A3E004F08018EEB4020990020A0D
:10449C00E0240AF0800BEEB4030790020AE02464D7
:1044AC00F090020AE0FEC364809480400BD3EE646B
:1044BC008094E4500302455A90020A7464F0024559
:1044CC005AEF64047035900209E0FEB40106A3E0D3
:1044DC0014F08018EEB4020990020AE024F6F08081
:1044EC000BEEB4030790020AE0249CF090020AE061
:1044FC00C3648094805057E4F08053EF6402704E94
:10450C00900209E0700A9002CD7421F0A3E4F0222D
:10451C00900272E0FF90020AE0FDFB3395E0FAD3C3
:10452C00EB9F7480F86A984025900273EDF090022E
:10453C00CD7421F0A3E4F078167C027D017B017A26
:10454C0002796CFE7F0D1215957F0502473790029C
:0E455C000AE0FF900209E0FD125CDF02443C21
:1030AC0090020A7401F0780B7C02FDFB7A0279A283
:1030BC007E007F091215951275AA7BFF7A0179BAE9
:1030CC00E4900225F07D047F0112594D7BFF7A04B8
:1030DC0079FAE4900225F07D057F0112594D7BFFB2
:1030EC007A0079FAE4900225F07D067F0112594DA1
:1030FC007BFF7A01791AE4900225F07D077F01129B
:10310C00594D7BFF7A03799AE4900225F07D087F74
:10311C000112594D7BFF7A0379BAE4900225F07DB8
:10312C00097F0112594D900211E0FEA3E0FFE4FC6F
:10313C00FD9002231217F9E4900227F07B047D081E
:10314C007F021248EA7BFF7A01797AE4900225F03B
:10315C007D057F0212594D7BFF7A01799AE490022A
:10316C0025F07D077F0212594D7BFF7A0179BAE475
:10317C00900225F07D097F0212594D7BFF7A677909
:10318C00E7E490021BF07D077F03126DB17BFF7AA1
:10319C006779E7E490021BF07D0A7F03126DB17B27
:1031AC00FF7A0479DAE4900225F07D087F03125946
:1031BC004D7BFF7A0479FAE4900225F07D097F03B8
:1031CC0012594D122A10127052900209EFF060F64B
:1031DC00E0FFB401089002CD74100233EAEFB4069C
:1031EC001690020AE004F0E0D36480948950030244
:1031FC0033AEE4F00233AE900209E0FFB40515A340
:10320C00E014F0E0C36480948040030233AE740990
:10321C00F00233AEEF640360030232EC90020AE07A
:10322C00FFB40210900212E004F07053900211E00F
:10323C0004F0804BEFB40110900212E0240AF090DD
:10324C000211E03400F08037EFB4030590021080D7
:10325C002BEFB4040590020E8022EFB4050590020A
:10326C000D8019EFB4060590020C8010EFB4070521
:10327C0090020B8007EFB4080690020FE004F0D325
:10328C00900212E09433900211E094084007740706
:10329C00F0A374D0F0900210E0D3940C40037401AE
:1032AC00F090020EE0D3941F40037401F090020DD5
:1032BC00E0D394174002E4F090020CE0D3943B402E
:1032CC0002E4F090020BE0D3943B4002E4F0900255
:1032DC000FE0D3940750030233AE7401F00233AE07
:1032EC00900209E0640460030233AEA3E0FFB40271
:1032FC0008900212E024FF800AEFB4011090021231
:10330C00E024F6F0900211E034FFF08037EFB403C4
:10331C0005900210802BEFB4040590020E8022EF72
:10332C00B4050590020D8019EFB4060590020C80CF
:10333C0010EFB4070590020B8007EFB4080690025B
:10334C000FE014F0C3900212E094D0900211E094BC
:10335C000750077408F0A37433F0900210E0C39484
:10336C000150037401F090020EE0C39401500374F9
:10337C0001F090020DE0D3941740037417F0900203
:10338C000CE0D3943B4003743BF090020BE0D394DD
:10339C003B4003743BF090020FE0C3940150037464
:1033AC0007F0122A10900209E0640260030231D285
:1033BC00A3E0FF70079002CD74218022EF640960B6
:1033CC00030231D278147C027D017B017A02790BE5
:1033DC00FE7F091215951264D59002CD7421F0A3CD
:0233EC00E4F00B
:0133EE0022BC
:104DEA009002097401F0E4A3F090026CE090020BC7
:104DFA00F09002BCE0640170661275AA9002097410
:104E0A0002F07BFF7A03799AE4900225F07D047F11
:104E1A000212594D7BFF7A0379BAE4900225F07D9C
:104E2A00057F0212594D7BFF7A0779FAE490022531
:104E3A00F07D067F0212594D7BFF7A08791AE490B9
:104E4A000225F07D077F0212594D7BFF7A6779EDC3
:104E5A00E490021BF07D0F7F02126DB112789FE47D
:104E6A009002BCF01275AA7BFF7A06793AE49002A6
:104E7A0025F07D057F0112594D7BFF7A06795AE4A8
:104E8A00900225F07D067F0112594D7BFF7A037946
:104E9A009AE4900225F07D077F0112594D7BFF7A33
:104EAA000379BAE4900225F07D087F0112594D0278
:104EBA004F7C127052EF60FAB401089002CD741060
:104ECA00024F77EFB40316900209E014F0C364802E
:104EDA0094804003024F7C7403F0024F7CEFB404C9
:104EEA0014900209E004F0D3648094835003024FC3
:104EFA007CE4F0807DEF64056004EFB4061B900249
:104F0A0009E06401706C90020BE070047E0180027B
:104F1A007E0090020BEEF08059EF6402705490020A
:104F2A0009E0FFB402109002CD7420F0A3E4F090DF
:104F3A0002BC7403F022EFB4032890020BE0900243
:104F4A006CF09002CD7421F0A3E4F078167C027D17
:104F5A00017B017A02796CFE7F0D1215957F0102A1
:104F6A004737900209E0700A9002CD7421F0A3E459
:104F7A00F02290020BE0FF900209E0FD123D9C0234
:024F8A004EBC1B
:105BC3009002097401F01275AA7BFF7A07795AE4EF
:105BD300900225F07D047F0112594D7BFF7A0779EE
:105BE3007AE4900225F07D057F0112594D7BFF7AFF
:105BF30003799AE4900225F07D067F0112594D7BCB
:105C0300FF7A0379BAE4900225F07D077F011259E8
:105C13004D025CD4127052EF60FAB401089002CDC9
:105C23007410025CCFEFB405089002CD7421025CBE
:105C3300CFEFB40317900209E014F0E0C36480943B
:105C4300804003025CD47402F0025CD4EFB404120B
:105C5300900209E004F0E0D3648094824073E4F09E
:105C6300806FEF6402706A900209E0FF7007900290
:105C7300CD74218057EFB401299002717401F09023
:105C830002CD7421F0A3E4F078167C027D017B0140
:105C93007A02796CFE7F0D1215957F03124737C286
:105CA300CB22900209E0B40228E4900271F0D2CB37
:105CB30078167C027D017B017A02796CFE7F0D12DE
:105CC30015957F031247379002CD7421F0A3E4F0BA
:0C5CD30022900209E0FF125569025C17E4
:105F16009002097401F0E4A3F01275AA7BFF7A09D6
:105F2600793AE4900225F07D047F0112594D7BFFFA
:105F36007A09795AE4900225F07D057F0112594DC0
:105F46007BFF7A09797AE4900225F07D067F0112BB
:105F5600594D7BFF7A09799AE4900225F07D077FF7
:105F66000112594D7BFF7A6779EFE490021BF07DB1
:105F76000F7F01126DB1026018127052EF60FAB411
:105F860001089002CD7410026013EF64056004EFFF
:105F9600B40619900209E064017077A3E070047EEC
:105FA6000180027E0090020AEEF08066EFB40313D1
:105FB600900209E014F0E0C36480948050547402A7
:105FC600F0804FEFB40412900209E004F0E0D364CD
:105FD600809482403DE4F08039EF64027034900290
:105FE60009E0FF70079002CD74218021EFB40222F0
:105FF60078167C027D017B017A02795F7E007F0D37
:10600600121595E4FF1247379002CD7421F0A3E4F0
:10601600F02290020AE0FF900209E0FD125290027F
:026026005F7F9A
:01792B002239
:05622800900209EFF0F7
:10622D00A37401F0EFF4600330050DE4900209F062
:10623D001275AA124A96803F900209E0FFB4050636
:10624D00A3E004F0800AEFB4060690020AE014F011
:10625D0090020AE0FFD36480948340057401F080BE
:10626D000EC3EF64809481500690020A7403F0907F
:10627D00020AE0FF125DFB90020C121805000000EF
:10628D000A7F01126E10127052900209EFF0606BCE
:10629D0090020C1218050000000A7F01126E10907A
:1062AD000209E0FDB4020FA3E0FFEFC454F0900229
:1062BD00CDF0A3E4F022EDB401028047900209E095
:1062CD00FFB40506A3E004F0800AEFB406069002C1
:1062DD000AE014F090020AE0FFD364809483400535
:1062ED007401F0800EC3EF64809481500690020A11
:1062FD007403F090020AE0FF125DFB7F0112743F00
:0A630D00EF6083E49002CDF0A3F0EE
:016317002263
:0560280090020BEFF0F7
:10602D009002B7E06F60179002187440F07B107DFE
:10603D00717F11122D6690020BE09002B7F0900265
:10604D000BE014605C14607324FE7003026106247F
:10605D008460222480600302612A7BFF7A0279DA50
:10606D00E4900225F07D0A7F0212594D7BFF7A02E2
:10607D0079FA02611E7BFF7A0679BAE4900225F067
:10608D007D097F0212594D7BFF7A0079BAE49002A7
:10609D0025F07D0A7F0212594D7BFF7A0A79FA802D
:1060AD00707BFF7A0A79BAE4900225F07D0A7F02AF
:1060BD0012594D7BFF7A0A79DA80567BFF7A017986
:1060CD003AE4900225F07D087F0212594D7BFF7A4C
:1060DD0001795AE4900225F07D097F0212594D7B1A
:1060ED00FF7A06797AE4900225F07D0A7F02125933
:1060FD004D7BFF7A06799A80187BFF7A0B791AE42B
:10610D00900225F07D0A7F0212594D7BFF7A0A79A4
:0D611D00DAE4900225F07D0B7F0212594D4F
:01612A002252
:056EC20090020BEFF04F
:106EC7009002B8E06F60179002187440F07B107D55
:106ED700717F21122D6690020BE09002B8F09002AC
:106EE7000BE07BFF70067A0479BA80057A0179DABC
:106EF700E4900225F07D0A7F0312594D7BFF7A014A
:0E6F070079FAE4900225F07D0B7F0312594DBC
:016F15002259
:104A9600C20590020E743EF0A374FFF0A3740BF0EF
:104AA600A3744AF07B2D7D017F0112580F7BFF7A9C
:104AB6000079FAE4900225F07D057F0112594D7BBD
:104AC600FF7A01791AE4900225F07D067F011259DA
:104AD6004D7BFF7A6779E7E490021BF07D0D7F013D
:104AE600126DB19002A4E0FFE4FCFDFE90022312D9
:104AF60017F9E4900227F07B027D107F011248EA45
:104B06007BFF7A6779E7E490021BF07D117F011243
:104B16006DB19002A3E0FFE4FCFDFE9002231217A4
:104B2600F9E4900227F07B027D137F011248EA7BAD
:104B3600FF7A6779E7E490021BF07D147F01126D1E
:104B4600B19002A2E0FFE4FCFDFE9002231217F9E9
:104B5600E4900227F07B027D167F011248EA7BFF74
:104B66007A02799AE4900225F07D057F0212594D6A
:104B76007BFF7A0279BAE4900225F07D067F021265
:104B8600594D7BFF7A6779E7E490021BF07D0D7F34
:104B960002126DB19002C2E0FF1260287BFF7A0418
:104BA600797AE4900225F07D057F0312594D7BFF4B
:104BB6007A04799AE4900225F07D067F0312594D16
:104BC6007BFF7A6779E7E490021BF07D0D7F031285
:104BD6006DB1900278E0FF126EC27BFF7A03791AFC
:104BE600E4900225F07D027F0412594D7BFF7A0383
:104BF600793AE4900225F07D037F0412594D7BFF3C
:104C06007A03799AE4900225F07D067F0412594DC5
:104C16007BFF7A0379BAE4900225F07D077F0412C0
:104C2600594D7BFF7A6779F190021B7401F07D1371
:0C4C36007F04126DB17D017F3702369DB6
:1038F500D2057BFF7A0079BAE4900225F07D037F3B
:103905000112594D7BFF7A0079DAE4900225F07DAA
:10391500047F0112594D7BFF7A0179DAE490022583
:10392500F07D057F0112594D7BFF7A0179FAE4900C
:103935000225F07D067F0112594D7BFF7A02791A27
:10394500E4900225F07D077F0112594D7BFF7A0235
:10395500793AE4900225F07D087F0112594D7BFFED
:103965007A02795AE4900225F07D097F0112594DBA
:103975007BFF7A02797AE4900225F07D0A7F0112B5
:10398500594D9002A8E0FEA3E0FFE4FCFD90022360
:103995001217F9E4900227F07B047D0A7F02124892
:1039A500EA7BFF7A01797AE4900225F07D067F02B1
:1039B50012594D9002A7E0FFE4FCFDFE9002231290
:1039C50017F9E4900227F07B027D0E7F021248EA88
:1039D5007BFF7A01799AE4900225F07D087F021237
:1039E500594D9002A5E0FFE4FCFDFE90022312175D
:1039F500F9E4900227F07B027D127F021248EA7BF0
:103A0500FF7A0179BAE4900225F07D0A7F02125906
:103A15004D9002A4E0FFE4FCFDFE9002231217F98D
:103A2500E4900227F07B027D067F031248EA7BFFC4
:103A35007A6779E7E490021BF07D077F03126DB189
:103A45009002A3E0FFE4FCFDFE9002231217F9E4C7
:103A5500900227F07B027D097F031248EA7BFF7AFB
:103A65006779E7E490021BF07D0A7F03126DB19040
:103A750002A2E0FFE4FCFDFE9002231217F9E49098
:103A85000227F07B027D0C7F031248EA7BFF7A0454
:103A950079DAE4900225F07D087F0312594D7BFF0A
:103AA5007A0479FAE4900225F07D097F0312594DD5
:103AB5009002A6E014B407005065903ACD75F00366
:103AC500A4C58325F0C58373023AE2023AEA023AB5
:103AD500F2023AFA023B02023B0A023B127BFF7AF0
:103AE50005791A802E7BFF7A05793A80267BFF7A45
:103AF50005795A801E7BFF7A05797A80167BFF7AD5
:103B050005799A800E7BFF7A0579BA80067BFF7A64
:103B150004795AE4900225F07D0A7F0312594D126B
:103B250077A07BFF7A0B793AE490023FF07D0F7F17
:103B350004125A8F7BFF7A6779F6E490021BF07DB9
:063B4500107F04026DB1C7
:106C87009002A4E0FFE4FCFDFE9002231217F9E452
:106C9700900227F07B027D107F011248EA9002A341
:106CA700E0FFE4FCFDFE9002231217F9E4900227AF
:106CB700F07B027D137F011248EA9002A2E0FFE415
:106CC700FCFDFE9002231217F9E4900227F07B02E5
:106CD7007D167F011248EA9002C2E0FF12602890F9
:076CE7000278E0FF026EC21B
:106E6B009002A4E0FFE4FCFDFE9002231217F9E46C
:106E7B00900227F07B027D067F031248EA9002A363
:106E8B00E0FFE4FCFDFE9002231217F9E4900227C9
:106E9B00F07B027D097F031248EA9002A2E0FFE437
:106EAB00FCFDFE9002231217F9E4900227F07B02FF
:076EBB007D0C7F030248EA91
:105DFB00EF24FE6063147003025EB9240260030299
:105E0B005F157BFF7A03791AE4900225F07D027F00
:105E1B000412594D7BFF7A03793AE4900225F07D09
:105E2B00037F0412594D7BFF7A03799AE490022584
:105E3B00F07D067F0412594D7BFF7A0379BAE4900B
:105E4B000225F07D077F0412594D7BFF7A6779F1AC
:105E5B0090021B7401025F0D7BFF7A03791AE490A9
:105E6B000225F07D027F0412594D7BFF7A03793AAC
:105E7B00E4900225F07D037F0412594D7BFF7A03DA
:105E8B00799A9002257401F07D067F0412594D7B9F
:105E9B00FF7A0379BA9002257401F07D077F041213
:105EAB00594D7BFF7A6779F1E490021B80547BFF9D
:105EBB007A03791A9002257401F07D027F0412593E
:105ECB004D7BFF7A03793A9002257401F07D037FB5
:105EDB000412594D7BFF7A03799AE4900225F07DE9
:105EEB00067F0412594D7BFF7A0379BAE4900225A1
:105EFB00F07D077F0412594D7BFF7A6779F1E490AF
:0B5F0B00021BF07D137F04126DB12219
:104F8C00900215EFF07BFF7A6779F8700690021BA0
:104F9C00048004E490021BF07D037F03126DB1903A
:104FAC000215E07BFF7A6779FAB4010790021B7453
:104FBC00018004E490021BF07D057F03126DB1901B
:104FCC000215E07BFF7A6779FCB4020790021B7430
:104FDC00018004E490021BF07D077F03126DB190F9
:104FEC000215E07BFF7A6779FEB4030790021B740D
:104FFC00018004E490021BF07D097F03126DB190D7
:10500C000215E07BFF7A687900B4040790021B74E8
:10501C00018004E490021BF07D0B7F03126DB190B4
:10502C000215E07BFF7A687902B4050790021B74C5
:10503C00018004E490021BF07D0D7F03126DB19092
:10504C000215E07BFF7A687904B4060790021B74A2
:10505C00018004E490021BF07D0F7F03126DB19070
:10506C000215E07BFF7A687906B4070790021B747F
:10507C00018004E490021BF07D117F03126DB1904E
:10508C000215E07BFF7A687908B4080790021B745C
:10509C00018004E490021BF07D137F03126DB1902C
:1050AC000215E07BFF7A68790AB4090790021B7439
:1050BC00018004E490021BF07D157F03126DB1900A
:1050CC000215E07BFF7A0379DAB40A1A9002257490
:1050DC0001F07D0A7F0412594D7BFF7A0379FA9017
:1050EC00022574018016E4900225F07D0A7F0412DB
:1050FC00594D7BFF7A0379FAE4900225F07D0B7F02
:05510C000412594D22C0
:1054080090020BEFF064017BFF7A6779FA703E90A7
:10541800021B04F0FD7F02126DB17BFF7A68790CE4
:1054280090021B7401F07D027F02126DB17BFF7A3E
:105438000179DA9002257401F07D027F0212594D3C
:105448007BFF7A0179FA9002257401803AE4900290
:105458001BF07D017F02126DB17BFF7A68790CE445
:1054680090021BF07D027F02126DB17BFF7A0179F9
:10547800DAE4900225F07D027F0212594D7BFF7A13
:105488000179FAE4900225F07D037F0212594D90CC
:10549800020BE064027BFF7A6779FC703E90021B86
:1054A80004F0FD7F03126DB17BFF7A68790C9002DE
:1054B8001B7401F07D027F03126DB17BFF7A0479C2
:1054C800BA9002257401F07D027F0312594D7BFFCB
:1054D8007A0179FA9002257401803AE490021BF06F
:1054E8007D017F03126DB17BFF7A68790CE490022D
:1054F8001BF07D027F03126DB17BFF7A0479BAE459
:10550800900225F07D027F0312594D7BFF7A0179C5
:10551800FAE4900225F07D037F0312594D90020BA7
:10552800E07BFF7A0379DA701990022504F07D0A8E
:105538007F0412594D7BFF7A0379FA900225740192
:105548008016E4900225F07D0A7F0412594D7BFFF6
:105558007A0379FAE4900225F07D0B7F0412594D05
:015568002220
:1055690090020AEFF064017BFF7A6779FA703E9046
:10557900021B04F0FD7F02126DB17BFF7A68790C82
:1055890090021B7401F07D027F02126DB17BFF7ADC
:105599000179DA9002257401F07D027F0212594DDA
:1055A9007BFF7A0179FA9002257401803AE490022E
:1055B9001BF07D017F02126DB17BFF7A68790CE4E3
:1055C90090021BF07D027F02126DB17BFF7A017997
:1055D900DAE4900225F07D027F0212594D7BFF7AB1
:1055E9000179FAE4900225F07D037F0212594D906A
:1055F900020AE064027BFF7A6779FC703E90021B25
:1056090004F0FD7F03126DB17BFF7A68790C90027B
:105619001B7401F07D027F03126DB17BFF7A017962
:105629005A9002257401F07D027F0312594D7BFFC8
:105639007A09791A9002257401803AE490021BF0E4
:105649007D017F03126DB17BFF7A68790CE49002CA
:105659001BF07D027F03126DB17BFF7A01795AE459
:10566900900225F07D027F0312594D7BFF7A09795B
:105679001AE4900225F07D037F0312594D90020A26
:10568900E07BFF7A0379DA701990022504F07D0A2C
:105699007F0412594D7BFF7A0379FA900225740130
:1056A9008016E4900225F07D0A7F0412594D7BFF94
:1056B9007A0379FAE4900225F07D0B7F0412594DA3
:0156C90022BE
:055CDF0090020BEDF046
:105CE400EF75F06484A3F0EF75F00A8475F00A840C
:105CF400A3E5F0F0EF75F00A84A3E5F0F090020C50
:105D0400E0FFBD0313E4FCFDFE9002231217F9909B
:105D140002277401F0FB8011E4FCFDFE90022312C3
:105D240017F9E4900227F07B017D0A7F021248EA0A
:105D340090020BE090020DB40215E0FFE4FCFDFEBE
:105D44009002231217F99002277401F0FB8013E0EC
:105D5400FFE4FCFDFE9002231217F9E4900227F001
:105D64007B017D0B7F021248EA90020BE090020E49
:105D7400B40115E0FFE4FCFDFE9002231217F99034
:105D840002277401F0FB8013E0FFE4FCFDFE9002A7
:105D9400231217F9E4900227F07B017D0C7F021295
:105DA40048EA90020BE07BFF7A0379DA70199002DB
:105DB4002504F07D0A7F0412594D7BFF7A0379FA9A
:105DC40090022574018016E4900225F07D0A7F0478
:105DD40012594D7BFF7A0379FAE4900225F07D0B8A
:105DE4007F0412594D7BFF7A68790EE490021BF010
:075DF4007D0D7F02026DB17D
:102A100078147C027D017B017A02790B7E007F09AC
:0B2A200012159590020AE090021DF0D4
:102A2B0090021AE0FAA3E0FB7C007D0AFFAE0212D3
:102A3B0016477C007D0A12164790021EEDF07C00B3
:102A4B007D0AAF03AE02121647A3EDF090021DE014
:102A5B00B40116A3E0FFE4FCFDFE9002231217F96C
:102A6B009002277401F0FB801690021EE0FFE4FC3D
:102A7B00FDFE9002231217F9E4900227F07B017DF3
:102A8B00077F021248EA90021DE090021FB4021564
:102A9B00E0FFE4FCFDFE9002231217F9900227746D
:102AAB0001F0FB8013E0FFE4FCFDFE900223121704
:102ABB00F9E4900227F07B017D087F021248EA902F
:102ACB00021DE0900219B40313E0FFE4FCFDFE903D
:102ADB0002231217F990022774018010E0FFE4FC27
:102AEB00FDFE9002231217F9E4900227F07B027D82
:102AFB000C7F021248EA90021DE0900217B40413F7
:102B0B00E0FFE4FCFDFE9002231217F990022774FC
:102B1B00018010E0FFE4FCFDFE9002231217F9E4A4
:102B2B00900227F07B027D107F021248EA90021D73
:102B3B00E0900216B40513E0FFE4FCFDFE900223C7
:102B4B001217F990022774018010E0FFE4FCFDFEE0
:102B5B009002231217F9E4900227F07B027D067F87
:102B6B00031248EA90021DE0900215B40613E0FF31
:102B7B00E4FCFDFE9002231217F9900227740180EA
