:10511D00436865636B205349343433322E2E2E0D84
:10512D000A004445564943455F545950453A20308D
:10513D007825782E0D0A000D0A0044455649434541
:10514D005F56455253494F4E3A20307825782E0DF3
:10515D000A004445564943455F5354415455533A0B
:10516D002061742069646C65206D6F64652E0D0A75
:10517D00004445564943455F5354415455533A20D5
:10518D006174205258206D6F64652E0D0A004445E0
:10519D00564943455F5354415455533A2061742049
:1051AD005458206D6F64652E0D0A00437279737427
:1051BD00616C204F7363696C6C61746F72204C6FFE
:1051CD0061642043617061636974616E63653A2047
:1051DD0025780D0A0053493434333220494F204984
:1051ED006E69742E2E2E2E2E2E0D0A00494F20493B
:1051FD006E697420636F6D706C657465642E0D0A35
:10520D0000534934343332206973206E6F74206635
:10521D006F756E642E2E2E2E2E2E0D0A00534934D0
:10522D00343332204750494F496E697420636F6D96
:10523D00706C6574652C636F6E6669672064657646
:10524D006963652E2E2E2E2E2E0D0A00436F6E666F
:10525D0069672052462E2E2E2E2E2E0D0A005349F2
:10526D0034343332496E697420636F6D706C6574BC
:10527D00652E0D0A002072657620496E7465727276
:10528D007570740D0A002073656E6420496E746527
:10529D0072727570740D0A006D6F646520726567AA
:0952AD0069737465723A0D0A0080
:107B8C00D3EF9400EE64809480400F7D817C14DCF4
:0A7B9C00FEDDFAEF1F70E91E80E61F
:017BA60022BC
:077E2D00C2C3D2B3D2B2229E
:097A5A009002F5EFF07D017F0EB2
:107A6300900231EDF0C2B3EF4480FF127DA090028B
:097A730031E0FF127DA0D2B32224
:077CB4009002F4EFF07F04E1
:0C7CBB00C2B3127DA07FFF127DA0D2B3E7
:017CC700229A
:106967007BFF7A51791D127CF0E4FF127CBB900209
:106977002CEFF07BFF7A51792F127CF090022CE0FC
:10698700FF1278A57BFF7A517944127CF090022C94
:10699700E0640860037F01227F01127CBB90022C18
:1069A700EFF07BFF7A517947127CF090022CE0FFE1
:1069B7001278A57BFF7A517944127CF07F02127C12
:1069C700BB90022CEFF0540F70087BFF7A51795F70
:1069D700802290022CE0540FFFBF01087BFF7A5101
:1069E700797E801090022CE0540FFFBF02097BFFD5
:1069F7007A51799B127CF07F09127CBB90022CEFB5
:106A0700F07BFF7A5179B8127CF090022CE0FF12EC
:0D6A170078A57BFF7A517944127CF07F0056
:016A2400224F
:1066FF007D537F75127A637D4B7F76127A63E4FD4B
:10670F007F77127A637D097F6E127A637DD57F6FF3
:10671F00127A637D2C7F70127A637D807F58127A94
:10672F00637D1F7F6D127A637D207F72127A637D86
:10673F002C7F1C127A637D417F20127A637D607FEC
:10674F0021127A637D277F22127A637D527F231273
:10675F007A63E4FD7F24127A637D047F25127A63C6
:10676F007D407F1D127A637D0A7F1E127A637D0F33
:10677F007F2A127A637D037F1F127A637D607F69A0
:10678F00127A637D0C7F34127A637D2A7F35127AF9
:10679F00637D027F33127A637D2D7F36127A637D9C
:1067AF00D47F37127A637D8D7F30127A63E4FD7F59
:1067BF0032127A637D637F71127A637DB47F09022F
:0267CF007A63EB
:106A25007BFF7A5179E2127CF0127E2D7BFF7A5141
:106A350079F9127CF07F147E008013126967EF608C
:106A4500127BFF7A52790E127CF07FF47E01127B65
:106A55008C80E87DCA7F0B127A637DCA7F0C127A1F
:106A6500637DCA7F0D127A637F0A7E00127B8C7B61
:106A7500FF7A52792A127CF07F03127CBB127CB418
:106A85009002F5EFF07D807F07127A637F147E0018
:106A9500127B8C7F03127CBB127CB49002F5EFF065
:106AA5007BFF7A527959127CF01266FF7DFF7F05D4
:106AB500127A637DFF7F06127A637F03127CBB1215
:106AC5007CB49002F5EFF07D077F05127A63E4FD53
:0E6AD5007F06127A637BFF7A52796B027CF0A7
:107D16007F03127CBB127CB4127A5A7D057F070260
:027D26007A637E
:107BA7007F03127CBB127CB49002F5EFF07D027F5D
:0B7BB7000E127A637D097F07027A63DB
:107D28007F03127CBB127CB4127A5A7D017F070252
:027D38007A636C
:1074270090022DEBF0A3EAF0A3E9F090022CEFF025
:01743700FD57
:107438007F3E127A63E4900230F090022CE0FF90D5
:107448000230E0FEC3EF6480F8EE64809850259027
:10745800022DE0FBA3E0FAA3E0F9EEFF3395E08FFD
:1074680082F5831216EEFD7F7F127A63900230E078
:0774780004F080C6027BA7AF
:106E5A007F07127CBB900204EFF07F03127CBB1207
:106E6A007CB49002F5EFF09002F4E030E15B7BFF36
:106E7A007A527982127CF07F4B127CBB900205EF2A
:106E8A00F0BF0C2EE4900204F0900205E0FF90029D
:106E9A0004E0C39F501C7F7F127CBB900204E02455
:106EAA0077F582E43402F583EFF0900204E004F00F
:106EBA0080D77D027F08127A63E4FD7F08127A6325
:106ECA00127D169002757401F09002F4E030E20C23
:0C6EDA007BFF7A527993127CF0127D1637
:016EE6002289
:107A13007F07127CBB9002FAEFF07BFF7A5279A5C5
:107A2300127CF09002FAE0FF1278A57BFF7A51797D
:047A330044027CF09D
:0C3A75004902C800000001050107E00044
:097E1C00E4FB7D0E7FD0027BC265
:1068A300E4FD7FD0127C10AD07ED54F0C4540F7596
:1068B300F00AA4FFED540F2F9002C8F07D017FD0A2
:1068C300127C10AD07ED54F0C4540F75F00AA4FF09
:1068D300ED540F2F9002C9F07D027FD0127C10ADD2
:1068E30007ED54F0C4540F75F00AA4FFED540F2FB5
:1068F3009002CAF07D047FD0127C10AD07ED54F0F6
:10690300C4540F75F00AA4FFED540F2F9002CBF07F
:106913007D037FD0127C109002CCEFF07D057FD0F9
:10692300127C10AD07ED5410C4540F75F00AA4FF88
:10693300ED540F2F9002CDF07D067FD0127C10AD69
:1069430007ED54F0C4540F75F00AA424D0FFE5F00A
:106953003407FEED540F7C002FFFEC3E9002CEF087
:03696300A3EFF0AF
:01696600220E
:1067D100900238E0FF75F00A84C454F0FEEF75F0C2
:1067E1000A84E5F02EFBE4FD7FD0127BC2900239D2
:1067F100E0FF75F00A84C454F0FEEF75F00A84E5F9
:10680100F02EFB7D017FD0127BC290023AE0FF7532
:10681100F00A84C454F0FEEF75F00A84E5F02EFB13
:106821007D027FD0127BC290023BE0FF75F00A84AB
:10683100C454F0FEEF75F00A84E5F02EFB7D047F71
:10684100D0127BC290023CE0FB7D037FD0127BC261
:1068510090023DE0FF75F00A84C454F0FEEF75F03C
:106861000A84E5F02EFB7D057FD0127BC290023FAA
:10687100E02430FF90023EE034F8FE7C007D0A12F5
:1068810017B6EFC4F8540FC868FFAB07E0FEA3E0EA
:10689100FF7C007D0A1217B6EB2DFB7D067FD0022F
:0268A1007BC2B8
:100026006C6364206275737920636865636B2E2E3A
:100036002E0D0A0000000000000000000000000075
:1000460000000000000000000018188888286A4E8A
:100056000CE8E80808181800000444446525341C18
:100066000E0F1D346444040000F8F888F8F8109068
:10007600901010FEFE101000001F1F081F1F00002A
:100086000343407F7F0000000020644C0800FEFE12
:10009600929292FEFE00000000303C0F437E7E7E70
:1000A6007E427E7E7E7E4000000000F8F828F8FA48
:1000B600AEACA8F8F82828000040703F4F42662EE4
:1000C6003A123A2E6642400000202020A0E060FF4F
:1000D600FFE0C060381800002030180E0741C0FF4E
:1000E6007F0103060C1810100080C0F0FE0E9090E1
:1000F600121E1CD0D01000000000007F7F40414F30
:100106004E607C5F4340400000F8F888F8F8109095
:10011600901010FEFE101000001F1F081F1F000089
:100126000343407F7F0000000000F0F20EECE42461
:100136002424E4E404FCFC0000007F7F000F0F0988
:1001460009090F4F407F7F0000808282FEFE828277
:100156008282FEFE82828000004060381F07000017
:1001660000007F7F0000000000001010121E1CF02F
:10017600F0181E16101000000041416131190F07DA
:10018600070F193161414100002038DFC74444445C
:10019600FCFC444444440400040404070704040427
:1001A600FFFF040404040404000000FEFE222222D1
:1001B60022222222FEFE000080C0703F0F020202B1
:1001C600020242C2FF7F0000000000FEFE82828221
:1001D600828282FEFE000000000000FFFF404040D9
:1001E600404040FFFF000000000000F8F88C8E8BB6
:1001F600898888F8F8000000000000FFFF444444A6
:10020600444444FFFF0000004044C4C444444450F6
:1002160010FFFF1010F0F000103C3F1314BCF870F4
:100226003E0F41C0C07F3F00101010FFFFB0B8D88E
:1002360068290F2E68E8B8180242C3FF7F40404283
:1002460042427E7E4242424040505E4E48FFFF4858
:100256004848F8F800FFFF0000003E3E02FFFF326C
:100266003E1E0F4FC0FF7F00000022323AAEA6E2CC
:100276006331198981010000004262331B4BC2FEC3
:100286007E020A1A336746002030BCEF733088C8F6
:10029600E8B99F8EA8E8C888226767321292C070B4
:1002A6003F0F003F7F40717100083830FFFF20206C
:1002B60020FFFF20222E2C2004040603FFFFC0701F
:1002C6003E0F071E3860C08000048484C46474DF57
:1002D6009F3464C484840400417939003C7C4042E4
:1002E6004E4C4070740D3931101C4C6434140507A3
:1002F6000604143464541C0C004040414141417FC3
:100306007F4141414140400000F8F943424242FAF0
:10031600FA42424242FEFE0000FFFF080C06033F7F
:100326003F03064CC8FF7F000000FEFE42424242E9
:10033600FAFA424242C2C20280E07F9FC060381E83
:10034600070140C0C07F3F000000F8F8888888FF9A
:10035600FF888888F8F80000808081C54C78303F97
:100366002F604040C181808090D27634FFFF347682
:10037600D2F0FF8F08F8F808829ADE776372DE8E75
:1003860080C0733F3F73C0801010FFFF9090FEFE49
:100396009292F2F2929E9E8042C2FF7F81E07F1F80
:1003A600FCFC474744FCFC00404042CECC40E0BE4B
:1003B6009E82829EBEA020200000003FBF98C843B8
:1003C6006F3C386E47C18080001717D5D557577DCB
:1003D6007D5757D5D51717004040407F7F55555557
:1003E6005555557F7F404040404042CECC00FCFCF6
:1003F600A4A42622A3E362000040603F3F785F5733
:10040600584D47474D5850400000FEFE02F2F2128A
:1004160012F2F202FEFE000000007F7F2027272452
:10042600242727207F7F000020305C4F57545454E8
:10043600545454D4D404040000000000000000000A
:100446000000000F3F70F0F08080C06030182CE78D
:10045600C70C183060C080800000000202020282D1
:10046600C2623A1E0600000040404242424242FE3C
:10047600FE424242424240408080C060301C0F0330
:10048600030F1C3060C080801010D0FFFF94F4EF83
:10049600AFA4A4AFEFE40400040703FFFF89CB6B0E
:1004A6003A1E1E3A6BCB88801010909090909090D8
:1004B60010FFFF1011171610002060603F3F10104C
:1004C60010030F1C3060F8F800002424242424FCB8
:1004D600FE22222323220000020202020242C2FF5F
:1004E6007F02020202020202000000BEBE2A2AEABF
:1004F600EA2A2A3E3E0000000044464B4949497F0D
:100506007F494949494140000004FFFF2424FFFF79
:1005160004FEFE2222FEFE0088C86F2F0919BFEFD7
:10052600783F0F42C2FF7F0080808080808080807D
:1005360080808080808080800000000000000000B5
:100546000000000000000000000008080808080875
:1005560008080808080800001010101010101010E5
:1005660010101010101010100004848484848484E9
:100576008484848484840400202020202020202059
:10058600202020202020202000FCFC0404FCFC0469
:1005960004FCFC0404FCFC00007F7F2C27232020A5
:1005A60020212322227F7F000002424242C2FE7E99
:1005B600424242C2C202020040404040787F474069
:1005C6004040407F7F4040402020202020202123A3
:1005D6002E2C202020202020004060301C0F0300FD
:1005E600000103061C7860004042CECC00445454FF
:1005F600547F7F545454444000007F7F3010FFFFE7
:10060600151555D5FF7F000088E87FDFC818D8DCB0
:1006160056D3D3969CD8D010091919FFFF05FFFFB2
:1006260092FFFF5FDFFF7F00000000000001E3FE96
:10063600FCE000000000000080C060301C0F0300DA
:1006460000030F3C70C08080109CCC44E4E495B756
:10065600E6643494C4D49C0C02027A7B4143437E04
:100666007E424243FBF800000484E4FC5CC4C402FE
:10067600F2F28282FEFE808002037F7F103F3F08F7
:1006860008080848C8C87F3F4070FFEF646C487F81
:100696007F48487F7F48484001017F7F3111FFFF37
:1006A60049494949FFFF00004042CECC00809E9E4A
:1006B600929292929E9E800000007F7FB494C464C2
:1006C600341F1F3464C48484101010FFFF9090F010
:1006D600F010FFFF10F0F0000444C6FF7F0100FF9A
:1006E600FF427F7F42FFFF004040C0DF5F55D5D508
:1006F6005555555F5F40404020607F3F3515FFFFF1
:10070600D76F393D6FC3808020202020202020FF16
:10071600FF202020202020208080C060301C0F0376
:10072600030F1C3060C08080000000E0E00000FF86
:10073600FF00002060C08000080C07030040C0FFD7
:100746007F00000000010F0E80E0F8FF07047474BC
:1007560055575654747404000000FFFF0303054503
:10076600C5FD7D0505050303206464B494BFBF8001
:100776009FBFA4A6A23A3800000000FFFF0A0A0A9B
:100786000A4ACAFF7F000000404042465CD8C07F4C
:100796007FC0D0584E4640408080C060381F07005A
:1007A600003F7F40404078784060F8FFF7F0B0DCCB
:1007B6005F77A4F45CCC80800000FFFF1F9F92D27D
:1007C6005B692D361A0800000484848484FCFC705E
:1007D600FCCF0B08F8F80808007F7F30101888C097
:1007E60061371E1E3761C08020303CEFE72424E2CB
:1007F600EE2CBFBF28EEE6000101017F7F3191CFCD
:100806006F301F1F306FCF80101C0C242424252727
:100816002624242424141C0C008181C1713F0F015D
:10082600017FFF8181F1F1000000F8F8888888884F
:1008360008FFFF090BCAC80880E07F1F10303F9FE2
:10084600C061371E3E67F9F80080E0F8FF073E3EBC
:1008560022E2E2223E3E0000010100FFFF31190DB7
:1008660007FFFF070D193120040484E4FC1F272429
:100876002424A4E464240404020301FFFF020242C8
:10088600C2FF7F020202020240445475E7E6745436
:1008960044FCFC44C4C6424020325ACAFF7F0A9A2E
:1008A600F27F1F00FFFF00000202F2F2929292FE18
:1008B600FE929292F2F202020404FFFF040404077D
:1008C600070444C4FF7F040400020E8CE0E0C070FD
:1008D6003FCFC8082838180002027E7F81C06038E2
:1008E6001E07071E3860C080000202020282C2F2A2
:1008F600FE4EC2820202020010180C06030100FF1F
:10090600FF000001030E0C0010180C87EF7C949476
:100916009C8F87ECFC948484040603FFFF0000028E
:100926000E4CC0FF7F00000000F8F923222222A20D
:10093600FAFA222222FEFE0000FFFF080C061331FF
:100946003F1F0040C0FF7F0000E0E0FFFF30288827
:10095600F87F0FE8E8088888010100FFFF101C8F68
:10096600C7673B1F1F7AE381203018FFF7545454A2
:10097600545454F4F4040400809090D94D5F7725C4
:1009860025755D4DC58080807E7E5AFEFE5A7E7E30
:100996002020FFFF222E2C20E9E9696F6765B5F557
:1009A600703E0F0F3E70C080404042CECC0000002B
:1009B60000FFFF00000000000000003FBFD86838BD
:1009C6001F07071F3860C0800000007F7F49494924
:1009D6004949497F7F00000081C1613D3D61C1FFFA
:1009E600FF8989898989818100028282C26232FAFD
:1009F600FE26226242C28200010101FCFC444445FB
:100A0600454444FCFC0001010484E4FC5CC4E4307D
:100A1600F8EF27E4F43CECE002037F7F103FBFE0F1
:100A26007F1F093F7FC9FF7F101C4C44444445C7C4
:100A3600C644444444541C0C80C0603E3E60407F23
:100A46007F44444444444040829A9E97FBFA52D2E3
:100A5600FE7E1212F3F11110000101FEFF93939333
:100A6600929292FEFF0300000040424242C2FE7E86
:100A7600C2C242424240400080C060301C0F0300A8
:100A86003F7F40404070700000F8F808080888FF73
:100A9600FF88080808F8F80000FFFF080C060301A5
:100AA6000001034ECCFF7F00101C4C643494C567D4
:100AB60066C4943464541C0C040406FEFF45444486
:100AC600444445FFFE06040400000000000000FF49
:100AD600FF080808080808080000FFFF41414141D7
:100AE60041414141FFFF00002030BCEF6338989040
:100AF60090FFFFD94B4A4840226767321212524094
:100B060060331F1C3663F9F80000F0F0101010FF78
:100B1600FF101010F0F0000000000F0F040404FF97
:100B2600FF0404040F0F0000040404F4F4D4F5A732
:100B3600A6F4D4F4F404040400FEFE02123A3E17AE
:100B4600131A3A72C2FE7E000000183C243C1800BC
:100B56000000000000000000E0380C06020301015E
:100B6600010101010101010101010101010101016F
:100B7600010101010101010101010101010101015F
:100B860001010101010302060C38E04040404040EB
:100B960040404040C000FF00000000000000000090
:100BA600000000000000000000000000000000003F
:100BB600000000000000000000000000000000002F
:100BC6000000000000000000FF40C0000000000020
:100BD6000000FF00FF000000000000000000000011
:100BE60000000000000000000000000000000000FF
:100BF60000000000000000000000000000000000EF
:100C0600000000000000FF00FF0000F0FFF0000001
:100C1600FF00FF00000000000000000000000000D0
:100C260000000000000000000000000000000000BE
:100C360000000000000000000000000000000000AE
:100C460000000000FF00FF001CFFFFFF1C00FF006C
:100C5600FF8000000000000000000000000000000F
:100C6600000000000000000000000000000000007E
:100C7600000000000000000000000000000000006E
:100C86000080FF705F0000FFFFFF00005F70000341
:100C9600060C08181010101010101010101010105C
:100CA600101010101010101010101010101010103E
:100CB600101010101010101010101018080C161329
:100CC6001808081010180818101010080000000066
:100CD600000000000000000000000000000000F816
:100CE600F8000000000030333300000000100C064E
:100CF600100C060000000000000000004040F84014
:100D0600F8400000043E053F05040000007088FC22
:100D160008300000001820FF211E0000F008F080B7
:100D26007008000000211C031E211E0000F08870C0
:100D3600000000001F2027281F21100000000000CF
:100D46000000000080B0F07000000000000000F01D
:100D5600FC0E02000000000F3F70400000061EF867
:100D6600E00000000060781F070000004040C0F06F
:100D7600F0C040400202030F0F030202000000F021
:100D8600F00000000101011F1F010101000202061F
:100D96000400000000000000000000000000000049
:100DA6000000000001010101010101000000000036
:100DB600000000000030303000000000000000009D
:100DC600C0F83C0C0060783F07010000E0F018080E
:100DD60018F0E0000F1F3020301F0F00001010F831
:100DE600F80000000020203F3F2020000070780817
:100DF60008F8F00000303C2E2331300000303888EF
:100E060088F8700000183820313F1E000080C0604E
:100E1600F8F80000060705243F3F240400F8F88888
:100E26008888080000193921313F1F00E0F09888B2
:100E3600889818000F1F3120313F1F0000383808EE
:100E4600E8F818000000003F3F00000070F898889E
:100E560098F870001E3F2121313F1E00F0F8080867
:100E660018F8E000313322323B1F07000000C0C0F3
:100E7600C00000000000303030000000000000809C
:100E860080000000000080E060000000000080E0BC
:100E9600701808000001030E1C302000404040403E
:100EA60040404000040404040404040000083870B0
:100EB600C08000000020381C060301007078080876
:100EC60018F8F0000000303737010000C0F0F8E8ED
:100ED600E8F8F0E0071F3F2727371F0B0000E0F870
:100EE600F8E00000203C3F23233F3C2008F8F88828
:100EF60088F87000203F3F20313F1E00E0F03808A0
:100F0600083838000F1F30202030100008F8F80885
:100F160018F0E000203F3F20301F0F0008F8F88847
:100F2600E8F81800203F3F202333300008F8F888FF
:100F3600E8E81810203F3F2003030000C0F03808FF
:100F460008383800071F3820223E1E0208F8F80825
:100F560008F8F808203F3F21213F3F20000808F805
:100F6600F80808000020203F3F202000000808F86D
:100F7600F8080800C0C080FF7F00000008F8F8C825
:100F8600E8381808203F3F21273E382008F8F8089F
:100F960000000000203F3F202030300008F8F80015
:100FA600F8F80800203F003F003F200008F8F8F856
:100FB600C8F8F808203F3F231F3F3F00E0F018081D
:100FC60018F0E0000F1F3020301F0F0008F8F80857
:100FD60008F8F000203F3F2101010000E0F018086A
:100FE60018F0E0000F1F3C247C7F4F0008F8F888BB
:100FF60088F87000203F3F21073E38200070F888AF
:101006000818180000303021233F1E00181808F871
:10101600F80818180000203F3F20000008F8F808DC
:1010260008F8F808001F3F20203F1F000878F888BE
:1010360088F8780800000F3F3F0F000008F8FCFC16
:10104600F8F8F80800073F3F3F3F07000838F8E880
:10105600E8F8180820303C2F2F3E38200838F8C80A
:10106600C8F838080000203F3F200000101808C8C4
:10107600F8380800303C2F2320301000000000FE16
:10108600FE0202000000007F7F404000001CFCE0E2
:1010960000000000000000031F7C6000000202FE4A
:1010A600FE0000000040407F7F00000000000406B4
:1010B6000604000000000000000000000000000020
:1010C60000000000808080808080808010161E0EC8
:1010D600000000000000000000000000000080800A
:1010E60080808000001D3D26223F3F2008F8F880C2
:1010F60080800000003F3F21203F1F0000008080CD
:1011060080808000001F3F31203111000000808068
:1011160088F8F800001F3F21203F3F200000808014
:1011260080800000001F3F22223313008080F0F8E9
:101136008898180000203F3F202000000000808093
:1011460080808000006BFF9497F3600008F8F880B9
:1011560080808000203F3F21203F3F2000808098F4
:10116600980000000020203F3F20200000008080E3
:101176009898000000C0C080FF7F000008F8F88043
:1011860080808000203F3F263F392000000808F875
:10119600F80000000020203F3F2020008080808053
:1011A60080808080203F3F203F3F203F808080809E
:1011B60080808000203F3F2100203F3F000080804C
:1011C60080800000001F3F31213F1F00808080800B
:1011D6008080000080FFFFA1303F1F00000080805C
:1011E60080808000001F3F21A0FFFF8080808080DC
:1011F6008080800020203F3F212101000000808068
:101206008080800000333724243D1900008080E070
:10121600E08080000000001F3F20200080808000CA
:1012260080808000003F3F20203F3F2080808080DC
:101236008080808000031F3C3C1F03008080C0C06C
:1012460080808080000F3F3F3F3F0F00808080807E
:101256008080800020313F2E3F31200080808080BA
:10126600808080808083CF7E3E0F0100008080805A
:0C127600808080000021393C27333000CC
:103A810060C0000000000000000000000000000015
:103A91000000000000000000000000000000000025
:103AA1000000000000000000000000000000000015
:103AB1000000000000000000000000000000000005
:103AC10000000000000000000000000000000000F5
:103AD10000000000000000000000000000000000E5
:103AE10000000000000000000000000000000000D5
:103AF10000000000000000000000000000000000C5
:103B010000000000000000000000000000000000B4
:103B110000000000000000000000000000000000A4
:103B21000000000000000000000000000000000094
:103B31000000000000000000000000000000000084
:103B41000000000060C000C0000000000000000094
:103B51000000000000000000000000000000000064
:103B61000000000000000000000000000000000054
:103B71000000000000000000000000000000000044
:103B81000000000000000000000000000000000034
:103B91000000000000000000000000000000000024
:103BA1000000000000000000000000000000000014
:103BB1000000000000000000000000000000000004
:103BC10000000000000000000000000000000000F4
:103BD10000000000000000000000000000000000E4
:103BE10000000000000000000000000000000000D4
:103BF10000000000000000000000000000000000C4
:083C01000000000000000000BB
:047B37007F057E0048
:107B3B00D3EF9400EE9400400F7D147C32DCFEDD1D
:087B4B00FAEF1F70EB1E80E849
:017B5300220F
:107D4C00D3EF9400EE94004007EF1F70F31E80F009
:017D5C002204
:047E520043BB6022AC
:10757700900240E0FF90023FE04440FBE4FD1275BB
:0C75870093900243E044B8FBE4FD7F0752
:10759300EF30E002C2C2EF30E102C291EF30E2020B
:1075A300C292D2C6ED6004D2C58002C2C5C2C1AFC9
:1075B300038F80C2C6D2C2D291D2927F017E0002D3
:0275C3007B3B10
:077655009002C5E0FF7D017A
:10765C007580FFEFB40104C2C2800EEFB40204C205
:10766C00918006EFB40402C292ED6004D2C5800290
:10767C00C2C5D2C100D2C600AC80C2C6C2C1D2C281
:0D768C00D291D2927F017E00127D4CAF049E
:0176990022CE
:0573CD00900239EFF011
:1073D2007BFF7A007926127CF0E490023AF0900268
:1073E20039E030E00DA3E0FBE4FD7F0112765CEBB7
:1073F2004FF0900239E030E10DA3E0FBE4FD7F02A3
:1074020012765CEB4FF0900239E030E20DA3E0FB24
:10741200E4FD7F0412765CEB4FF0127DAD90023AF0
:04742200E020E7ACD3
:017426002243
:107D3A00C2CA7F507E00127B3BD2CA7FA07E00025D
:027D4A007B3B81
:107A7C007F071273CDE4FAEA12758CE4F9E4FB7D0E
:107A8C00017F0712759309E9B440F20AEAB408E7DA
:017A9C0022C7
:1079C200C2CB127B37127D3A7B3E12758F127B3708
:1079D2007BC012758F127B37127A7C127B377B3F0A
:0979E20012758F127B37D2CB2203
:10769A007F071273CD7B40E4FD7F011275937BBA9D
:1076AA00E4FD7F01127593E4FAE4F97BFF7D017F23
:1076BA000112759309E9B440F27B40E4FD7F01129F
:1076CA007593EA240344B8FBE4FD7F011275930A1B
:0476DA00EAB401D538
:0176DE002289
:1076DF007F071273CD7B40E4FD7F021275937BBA57
:1076EF00E4FD7F02127593E4FAE4F97BFF7D017FDD
:1076FF000212759309E9B440F27B40E4FD7F021258
:10770F007593EA240344B8FBE4FD7F021275930AD4
:04771F00EAB401D5F2
:017723002243
:105DB000900246EBF0A3EAF0A3E9F0900244EFF082
:035DC000A3EDF060
:105DC300EF1425E0900244F0ED24FFFFE434FFFEDE
:105DD300EF7802CEC313CE13D8F9FF700790024BAE
:105DE30004F08016EFB4010890024B7402F0800AAD
:105DF300EFB4020690024B7404F0900245E0145491
:105E030003C454F0F0FE90024BE0FFEE4440FBE489
:105E1300FD127593E0FF900244E044B8FBE4FD12E9
:105E23007593E490024AF0900249E090024B6018A7
:105E3300E0FF900246E0FBA3E475F001121821A9EC
:105E4300F0FA1216D5F48015E0FF900246E0FBA3AA
:105E5300E475F001121821A9F0FA1216D5FB7D01A1
:105E630012759390024AE004F0E0C3941040B89096
:105E7300024BE0FF900245E04440FBE4FD127593C2
:105E830090024BE0FF900244E00444B8FBE4FD12AF
:105E93007593E490024AF0900249E090024B601837
:105EA300E0FF900246E0FBA3E475F001121821A97C
:105EB300F0FA1216D5F48015E0FF900246E0FBA33A
:105EC300E475F001121821A9F0FA1216D5FB7D0131
:0F5ED30012759390024AE004F0E0C3941040B8B7
:015EE200229D
:055C7700E0900263F063
:105C7C00900260EBF0A3EAF0A3E9F090025EEFF083
:035C8C00A3EDF095
:105C8F00EF1425E090025EF0ED24FFFFE434FFFEF9
:105C9F00EF7803CEC313CE13D8F9FF7007900265C8
:105CAF0004F08016EFB401089002657402F0800AC8
:105CBF00EFB402069002657404F090025FE0145492
:105CCF000775F008A4F0FE900265E0FFEE4440FB7C
:105CDF00E4FD127593E0FF90025EE044B8FBE4FD33
:105CEF00127593E4900264F0900263E09002656095
:105CFF0018E0FF900260E0FBA3E475F00112182199
:105D0F00A9F0FA1216D5F48015E0FF900260E0FBBF
:105D1F00A3E475F001121821A9F0FA1216D5FB7D34
:105D2F0001127593900264E004F0E0C3940840B848
:105D3F00900265E0FF90025FE04440FBE4FD1275C6
:105D4F0093900265E0FF90025EE00444B8FBE4FD2F
:105D5F00127593E4900264F0900263E09002656024
:105D6F0018E0FF900260E0FBA3E475F00112182128
:105D7F00A9F0FA1216D5F48015E0FF900260E0FB4F
:105D8F00A3E475F001121821A9F0FA1216D5FB7DC4
:105D9F0001127593900264E004F0E0C3940840B8D8
:015DAF0022D1
:1072B80090023AEFF0A3EDF0A3EBF0A3EAF0A3E914
:1072C800F090023CE0FBA3E0FAA3E0F91216D560C7
:1072D8003D75F010A424D2F9740A35F0FA7BFF90BA
:1072E800023AE0FFA3E0FD90023F125C7790023B78
:1072F800E004F0E0D3941840097401F090023AE0F9
:0F73080004F090023DE475F00112180B80B322DF
:08543B0090022CEFF0A3EDF04C
:1054430078327C027D017BFF7A00793A7E007F0A05
:105453001216AFE490023CF0A37409F0E4A3F0A3A6
:10546300F0A31219740000000190022EE0FCA3E0E7
:10547300FDA3E0FEA3E0FFEC33501690023E74015F
:10548300F090022EA3A3A3E01218B390022E1219D8
:105493006890022EE0FCA3E0FDA3E0FEA3E0FFEC96
:1054A3004D4E4F6074E47B0AFAF9F890022EA3A3E1
:1054B300A3E0127768AC00AD01AE02AF03900240E7
:1054C300121968900240A3A3A3E02430FF90023C8A
:1054D300E0FE04F074322EF582E43402F583EFF03B
:1054E30090022EE0FCA3E0FDA3E0FEA3E0FFE47B3B
:1054F3000AFAF9F812776890022E12196890023CA2
:10550300E06402708CE0FF04F074322FF582E4341F
:1055130002F583742EF002549490023CE0D394037A
:10552300502AE0FF04F074322FF582E43402F5834D
:105533007430F090023CE0B402DFFF04F074322FC9
:10554300F582E43402F583742EF080CD90023EE0C0
:10555300601490023CE0FF04F074322FF582E434CF
:1055630002F583742DF0E490023DF090023CE0FFDD
:10557300A3E0FEC39F503F74322EF582E43402F55C
:1055830083E075F010A424D2F9740A35F0FA7BFF96
:1055930090022CE0FFA3E0FD14F0E4125C7890028B
:1055A3002DE0700A90022CE004F0A37418F090022E
:0655B3003DE004F080B5AC
:0155B90022CF
:0B4A8200900244EFF0A3EDF0A3EBF076
:104A8D00784C7C027D017BFF7A0079447E007F0AA1
:104A9D001216AFE4900256F0A37409F0E4A3F0A34C
:104AAD00F0A312197400000001900247E0FCA3E08E
:104ABD00FDA3E0FEA3E0FFEC335016900258740105
:104ACD00F0900247A3A3A3E01218B3900247121966
:104ADD0068900246E0606F900246E0FF14F0EFD35D
:104AED0094005003024BC1E47B0AFAF9F8A3E0FCF1
:104AFD00A3E0FDA3E0FEA3E0FF127768AC00AD01DB
:104B0D00AE02AF0390025A12196890025AA3A3A3E2
:104B1D00E02430FF900256E0FE04F0744C2EF58236
:104B2D00E43402F583EFF0900247E0FCA3E0FDA32F
:104B3D00E0FEA3E0FFE47B0AFAF9F8127768900231
:104B4D00471219688091900247E0FCA3E0FDA3E0B5
:104B5D00FEA3E0FFEC4D4E4F605AE47B0AFAF9F8E4
:104B6D00900247A3A3A3E0127768AC00AD01AE029B
:104B7D00AF0390025A12196890025AA3A3A3E0241E
:104B8D0030FF900256E0FE04F0744C2EF582E434B2
:104B9D0002F583EFF0900247E0FCA3E0FDA3E0FEF9
:104BAD00A3E0FFE47B0AFAF9F81277689002471246
:104BBD0019688092900258E06014900256E0FF044C
:104BCD00F0744C2FF582E43402F583742DF0E490EB
:104BDD000257F0900256E0FFA3E0FEC39F504174D0
:104BED004C2EF582E43402F583E075F010A424D246
:104BFD00F9740A35F0FA7BFF900244E0FFA3E0FD63
:104C0D0014F090024B125C77900245E0700A90020E
:104C1D0044E004F0A37418F0900257E004F080B360
:014C2D002264
:0A5B3900900230EDF0AC07A3EBF092
:105B4300E490023CF0EB24FFFFE434FFFEEF780324
:105B5300CEC313CE13D8F904900231F0EC24FFFF27
:105B6300E434FFFEEF7803CEC313CE13D8F99002CB
:105B730038F0900230E0FF14543F900239F0FDEF0B
:105B830024FFFFE434FFFEEF7806CEC313CE13D811
:105B9300F9FF7401A807088002C333D8FCFF900201
:105BA3003AF090023CF0ED4440FBE4FD1275939013
:105BB300023812758BE4900236F0900231E0FF90C8
:105BC3000236E0C39F4003025C76E4A3F090023206
:105BD300E0FF900237E0FEC39F506AEEFF90023071
:105BE300E02FFFE433CF24FFCF34FFFEEF7806CE60
:105BF300C313CE13D8F975F00384AFF07401A8076B
:105C0300088002C333D8FCFF90023BF0A3E06F602F
:105C13000E90023BE0FFA3F07B40E4FD12759390EE
:105C2300023BE0FF900233E0FBA3E475F00112189E
:105C330021A9F0FA1216D5FB7D0112759390023754
:105C4300E004F0808890023AE0FF90023CF090027A
:105C530039E04440FBE4FD127593900236E0FF9077
:105C63000238E02F54070412758C900236E004F0DA
:035C7300025BBD14
:015C7600220B
:0F4360009002BBEFF09002BDEBF09002BCEDF0CD
:10436F00E49002C7F0ED14543F9002C4F0FCED242A
:10437F00FFFFE434FFFEEF7806CEC313CE13D8F958
:10438F00FF7401A807088002C333D8FCFF9002C551
:10439F00F09002C7F0EC4440FBE4FD1275939002DD
:1043AF00BBE01412758C127655E49002C2F09002A5
:1043BF00BDE0FF9002C2E0C39F4003024490E4A31C
:1043CF00F09002BEE0FF9002C3E0FEC39F400302E5
:1043DF004460EEFF9002BCE02FFFE433CF24FFCF09
:1043EF0034FFFEEF7806CEC313CE13D8F975F00362
:1043FF0084AFF07401A807088002C333D8FCFF9084
:10440F0002C6F0A3E06F600E9002C6E0FFA3F07B40
:10441F0040E4FD1275939002C6127658AD079002D4
:10442F00BEE0FF9002C2E08FF0A4FFA3E07A002F5E
:10443F00FFEA35F0FE9002BFE0FBA3E0FAA3E0F93C
:10444F008F828E83ED1217829002C3E004F0024335
:10445F00D09002C5E0FF9002C7F09002C4E0444044
:10446F00FBE4FD1275939002C2E0FF9002BBE02FB8
:10447F00540712758C1276559002C2E004F0024375
:10448F00BD7F071273CD9002C4E04440FBE4FD7F73
:10449F00021275939002BBE01444B8FBE4FD7F0257
:1044AF00127593E49002C2F09002BDE0FF9002C239
:1044BF00E0C39F506EE4A3F09002BEE0FF9002C3F2
:1044CF00E0FDC39F50319002C2E08FF0A47C002D1D
:1044DF00FFEC35F0FE9002BFE0FBA3E0FAA3E0F99A
:1044EF008F828E831216EEFB7D017F0212759390E1
:1044FF0002C3E004F080C19002C4E04440FBE4FD3D
:10450F007F021275939002C2E0FF9002BBE02F541E
:10451F000744B8FBE4FD7F021275939002C2E004DA
:03452F00F0808594
:014532002266
:072EEE0090023AEDF0AC0781
:102EF500E4900242F0EC24FFFFE434FFFEEF780398
:102F0500CEC313CE13D8F9900243F0EC14540790B6
:102F15000246F0EC2B145407A3F0900246E0FDFFA7
:102F2500EB2FFFE433FEEF7803CEC313CE13D8F9AE
:102F3500FFED2B540760047E0180027E00EE2FFF1B
:102F4500900245F0900243E02F14A3F090023AE07E
:102F5500FD14543F90023FF0ED24FFFFE434FFFEE3
:102F6500EF7806CEC313CE13D8F9FF7401A807086E
:102F75008002C333D8FC900240F0900242F09002E8
:102F850046E070030230461275779002401276587B
:102F9500E490023DF090023CE0FFA3E0FEC39F40B9
:102FA5000302303EEEFF90023AE02FFFE433CF24D8
:102FB500FFCF34FFFEEF7806CEC313CE13D8F975D5
:102FC500F0038490023EE5F0F0E0FF7401A80708E5
:102FD5008002C333D8FCFF900241F0A3E06F600E7E
:102FE500900241E0FFA3F07B40E4FD12759390024F
:102FF5004112765890023DE0FE2400F582E434004B
:10300500F583EFF074002EF582E43400F583C08378
:10301500C082E0FF900246E0FEC374079EFE747F07
:10302500A806088003A2E713D8FB5FD082D083F0FF
:1030350090023DE004F0022F9A900240E090024297
:10304500F0900247E07003023117900240E0FF90D4
:10305500023FE04440FBE4FD127593900244127573
:103065008B900240127658E490023DF090023CE0CD
:10307500FFA3E0FEC39F400302310FEEFF90023A2B
:10308500E02FFFE433CF24FFCF34FFFEEF7806CEE9
:10309500C313CE13D8F975F0038490023EE5F0F022
:1030A500E0FF7401A807088002C333D8FCFF900233
:1030B50041F0A3E06F600E900241E0FFA3F07B407A
:1030C500E4FD12759390024112765890023DE0FEA0
:1030D50024C0F582E43400F583EFF074C02EF58248
:1030E500E43400F583C083C082E0FF900247E0FE30
:1030F50074FFA806088002C333D8FC5FD082D08352
:10310500F090023DE004F0023071900240E0900240
:1031150042F0127577E4FA900245E0FFEAC39F405A
:1031250003023233E490023DF090023CE0FFA3E05D
:10313500FEC39F400302320FEEFF90023AE02FFFDD
:10314500E433CF24FFCF34FFFEEF7806CEC313CE92
:1031550013D8F975F0038490023EE5F0F0E0FF74B2
:1031650001A807088002C333D8FCFF900241F0A3F1
:10317500E06F600E900241E0FFA3F07B40E4FD129A
:103185007593900246E0F9602EA3E0602A9002450F
:10319500E0B40123900241E0FF90023DE0FE24C02F
:1031A500F582E43400F583E0FD74002EF582E43405
:1031B50000F583E04D8044E96018EA7015900241FE
:1031C500E0FF90023DE02400F582E43400F583E061
:1031D5008029900247E0601D900245E014B5021574
:1031E500900241E0FF90023DE024C0F582E4340006
:1031F500F583E08006900241E0FFE4FB7D01127556
:103205009390023DE004F002312E900240E0FF90E1
:103215000242F090023FE04440FBE4FD12759390BA
:0E3225000243E02A54070412758C0A02311C81
:013233002278
:07281300900234EDF0AC0768
:10281A00E490023CF0900242F0EC24FFFFE434FF23
:10282A00FEEF7803CEC313CE13D8F990023DF0EC35
:10283A00145407900240F0EC2B145407A3F09002B2
:10284A0040E0FDFFEB2FFFE433FEEF7803CEC31326
:10285A00CE13D8F9FFED2B540760047E0180027E67
:10286A0000EE2FFF90023FF090023DE02F14A3F0FC
:10287A00900234E0FD14543F900239F0ED24FFFF3A
:10288A00E434FFFEEF7806CEC313CE13D8F9FF74F3
:10289A0001A807088002C333D8FC90023AF09002DC
:1028AA003CF0900240E0700302298390023AE0FF74
:1028BA00900239E04440FBE4FD12759390023D1208
:1028CA00758B90023A127658E4900237F0900236ED
:1028DA00E0FFA3E0FEC39F400302297BEEFF9002C4
:1028EA0034E02FFFE433CF24FFCF34FFFEEF780626
:1028FA00CEC313CE13D8F975F00384900238E5F0ED
:10290A00F0E0FF7401A807088002C333D8FCFF90E7
:10291A00023BF0A3E06F600E90023BE0FFA3F07B66
:10292A0040E4FD12759390023B127658900237E00C
:10293A00FE2400F582E43400F583EFF074002EF5EE
:10294A0082E43400F583C083C082E0FF900240E055
:10295A00FEC374079EFE7480A806088003A2E713CC
:10296A00D8FB4FD082D083F0900237E004F00228DF
:10297A00D790023AE090023CF0900241E0700302E4
:10298A002A6690023AE0FF900239E04440FBE4FDF7
:10299A0012759390023E12758B90023A127658E4A1
:1029AA00900237F0900236E0FFA3E0FEC39F400397
:1029BA00022A5EEEFF900234E02FFFE433CF24FFB9
:1029CA00CF34FFFEEF7806CEC313CE13D8F975F0D5
:1029DA000384900238E5F0F0E0FF7401A80708804C
:1029EA0002C333D8FCFF90023BF0A3E06F600E9065
:1029FA00023BE0FFA3F07B40E4FD12759390023B9B
:102A0A00127658900237E024C0F582E43400F58348
:102A1A00EFF01D900241E0FEEDC39E500AA3E025AF
:102A2A00E04401F00D80EC900237E024C0F582E426
:102A3A003400F583C083C082E0FF900242E0FEEFDB
:102A4A004ED082D083F0E4900242F0900237E00444
:102A5A00F00229AE90023AE090023CF090023AE08D
:102A6A00FF900239E04440FBE4FD12759390023D69
:102A7A0012758BE4FA90023FE0FFEAC39F4003021B
:102A8A002B97E4900237F0900236E0FFA3E0FEC3F2
:102A9A009F4003022B73EEFF900234E02FFFE433D2
:102AAA00CF24FFCF34FFFEEF7806CEC313CE13D860
:102ABA00F975F00384900238E5F0F0E0FF7401A89C
:102ACA0007088002C333D8FCFF90023BF0A3E06FF3
:102ADA00600E90023BE0FFA3F07B40E4FD12759389
:102AEA00900240E0F9602EA3E0602A90023FE0B431
:102AFA00012390023BE0FF900237E0FE24C0F582FA
:102B0A00E43400F583E0FD74002EF582E43400F528
:102B1A0083E05D803CE96018EA701590023BE0FFB3
:102B2A00900237E02400F582E43400F583E0802146
:102B3A00900241E0601E90023FE014B50216900236
:102B4A003BE0FF900237E024C0F582E43400F583CD
:102B5A00E0FB800790023BE0FF7BFF7D011275934B
:102B6A00900237E004F0022A9190023AE0FF9002C4
:102B7A003CF0900239E04440FBE4FD127593900268
:0D2B8A003DE02A54070412758C0A022A7FD0
:012B9700221B
:1075C500A2A282A082A482A182A382C84038127D91
:1075D500ADA2A282A082A482A182A382C840242057
:1075E500A0037F012220A2037F022220A4037F069D
:1075F5002220A1037F052220C8037F032220A303A5
:097605007F04227F00227F002295
:0B7E11004E4F2E003A0D0A000D0A0033
:103C090048029D00000000000000004802A50202D1
:063C190002020202020299
:017E56002209
:067C7200C2C47F017E0088
:107C7800EF1FAC0670011E4C6005127E5680F12283
:067ABD00D2C47F017E002F
:107AC300EF1FAC0670011E4C600E127E56127E56DE
:097AD300127E56127E5680E82254
:107BF700D3EF9400EE9400400F7D817C14DCFEDD12
:087C0700FAEF1F70EB1E80E88C
:017C0F002252
:1079EB00E4FDD2C47F01FE127AC3C2C47F647E0061
:1079FB00127AC3D2C47F0C7E00127AC3A2C4E433C2
:087A0B00FD7F587E00027AC3E2
:107CC800C2C4127ABDA2C4E433FD7F047E00127AD6
:037CD800C3AF0532
:017CDB002286
:107D5D00C2C4EF24FF92C47F057E00127AC3D2C441
:017D6D0022F3
:107ADC007B08127C72EDC313FD127ABD30C404ED29
:0E7AEC004480FD7F0A7E00127AC3DBE6AF0500
:017AFA002269
:027AFB00AD07D5
:107AFD007B08127C72ED1392C47F0A7E00127AC34A
:0B7B0D00D2C4127C74EDC313FDDBE753
:017B1800224A
:0574D30090022CEFF017
:1074D800E4FAFFFDFC1279EB7FCC127AFB7F4412B1
:1074E8007AFB7FC87E00127BF71279EB7FCC127A89
:1074F800FB7FBE127AFB127ADCAA07127ADCEFFE57
:107508007C00E42AFFEC3EFE7D191217A4AC06AD00
:0C75180007EF7802CEC313CE13D8F9FFA2
:017524002244
:0B782E0090022CEBF0A3EAF0A3E9F0BD
:107839001279EB7F33127AFBE4A3F0127ADC90021F
:107849002CE0FBA3E0FAA3E0F9A3E0F5827583003D
:10785900EF12178290022FE004F0E0C3940840DB96
:0178690022FC
:0B7DE1007F089002A57402F0A3DFFCF5
:017DEC002274
:1070F50090022CEEF0A3EFF07C277D101217B6124C
:107105007E3490022CE0FEA3E0FF7C037DE812179D
:10711500B67C007D0A1217B6AF05127E3490022C9C
:10712500E0FEA3E0FF7C007D641217B67C007D0ABB
:107135001217B6AF05127E347F2E127E2590022CD3
:10714500E0FEA3E0FF7C007D0A1217B67C007D0AF5
:107155001217B6AF05127E3490022CE0FEA3E0FFB5
:0C7165007C007D0A1217B6AF05027E34D4
:0571710090022CEFF07C
:10717600E4A3F090022CE0FFA3E0C39F50687BFFDE
:107186007A7E7911127CF090022DE004FF1278A528
:107196007BFF7A7E7915127CF0E490022EF0900245
:1071A6002EE0FFC39408502D90022DE075F008A440
:1071B600249DF582E43402F583E5822FF582E435D9
:1071C60083F583E0FF1278A57F20127E2590022E9C
:1071D600E004F080C97BFF7A7E7919127CF0900278
:0671E6002DE004F0808D95
:0171EC002280
:107D6E00E4F5CF75CDC030080475CED02275CE4067
:017D7E0022E2
:0D7DA0008FCFE5CD30E7FB75CDC0AFCF2212
:107CDC00438920759840758DDC858D8BE4F587D2B2
:047CEC00ACD28E2266
:087E25008F993099FDC29922EA
:0278A500AE072C
:1078A700EEC4540FFDC36480948AED5004243080E5
:1078B7000424F62461FF127E25EE540FFDC3648075
:1078C700948AED50042430800424F62461FF127E4C
:0178D700258B
:0178D800228D
:077E3400EF2430FF027E2560
:107CF0001216D5FF600C127E25740129F9E43AFAB8
:037D000080EE22F0
:0D790B009002EBEBF0A3EAF0A3E9F0AE0769
:10791800E4FDEDC39E501A9002EBE0FBA3E0FAA34E
:10792800E0F98D827583001216EEFF127E250D8018
:01793800E16D
:01793900222B
:03002300027B5409
:067B5400C0E0C083C08206
:0F7B5A0030980CC298C2AF900203E599F0D2AFF9
:077B6900D082D083D0E0328E
:067E3B000000000000221F
:05000600D2B7D2B622C2
:06000E00127A9D127B1F17
:0F001400D2B6D2B7127E3BC2B6127E3BC2B72223
:0C7DED00C2B6D2B7127E3BD2B6027E3B7B
:067B1900120014127A9D17
:107B1F00D2B7127E3B30B608C2B7127E3B7F00222F
:087B2F00C2B7127E3B7F012268
:0C7DF900C2B6D2B7127E3BC2B7027E3B7E
:0C7E0500D2B6D2B7127E3BC2B7027E3B61
:107A9D00E4FEEF30E703D38001C392B6EF25E0FF9C
:0F7AAD00D2B7127E3BC2B7127E3B0EEEB408E397
:017ABC0022A7
:10799600E4FED2B6FDEE25E0FED2B7127E3B30B64F
:1079A600034401FEC2B7127E3B0DEDB408E7EF605B
:0B79B60005127DF98003127E05AF066C
:0179C10022A3
:107BC200127B19AC07AF05127A9D127B1FAF03120D
:0A7BD2007A9D127B1F127DEDAF04B7
:017BDC002286
:027C1000AC07BF
:107C1200127B19AF0512000EEC04FF127A9D127B43
:067C22001FE4FF12799639
:017C28002239
:10752500AD07127B19EF7006127DED7F01229002E7
:10753500DDE0FF12000EED04FF127A9D127B1F9015
:1075450002DEE0FF6026B4010BE4FF127996EF122C
:10755500177080107F01127996EF12177074012948
:10756500F9E43AFA9002DEE014F080D3127DED7F63
:027575000022F2
:1077AC00127B19EF7002801E9002E3E0FF127A9DAB
:1077BC00127B1F9002E4E060221216D5FF127A9D14
:1077CC00127B1FEF7006127DED7F0122740129F9E7
:1077DC00E43AFA9002E4E014F080D8127DED7F00D8
:0177EC00227A
:103C1F004302D60000004102D1004102D20041020E
:0A3C2F00D3004102D4004102D50089
:0C7DAD007FB27E787D0CDDFEDEFADFF692
:017DB90022A7
:0C7DBA007FB27EE67D0CDDFEDEFADFF617
:017DC600229A
:0C7DC7007FD97EAB7D49DDFEDEFADFF6E1
:017DD300228D
:1078D900EF24FE601214601714601C2403702090BA
:1078E90002D1E05401FF229002D1E05402FF22901C
:1078F90002D1E05404FF229002D1E05408FF227F14
:0279090000225A
:10731700EF24FE601D14602D14603D2403704B9014
:1073270002D1E054FEF0900230A3A3A3E09002D272
:10733700F0229002D1E054FDF0900230A3A3A3E025
:107347009002D3F0229002D1E054FBF0900230A3D8
:10735700A3A3E09002D4F0229002D1E054F7F0907A
:0B7367000230A3A3A3E09002D5F022A7
:107724009002D2E0600414F080079002D1E044019A
:10773400F09002D3E0600414F080079002D1E0449A
:1077440002F09002D4E0600414F080079002D1E0CB
:107754004404F09002D5E0600314F0229002D1E0DA
:047764004408F022C3
:107D7F00900002E4121782E41217709000010217AC
:017D8F008271
:107D03009000021216EE64016008900002740112E2
:037D1300178222B2
:107D90009000021216EE6007900002E41217822291
:10793A009000021216EE60261216D5643B701A12D7
:10794A0017709000011216EE900001B4FF06E412BF
:0F795A0017828005740112173D740112171B224A
:067E41009002EFE0FF22B9
:107C88009002F2E075F03CA4FF9002F1E07C002F36
:067C9800FFEC35F0FE22B6
:10760E00454550524F4D20736563746F723120683B
:10761E00617320646174612E0D0A00454550524F0E
:10762E004D20736563746F723220686173206461DC
:10763E0074612E0D0A00726F6F6D20697320636C7A
:07764E0065616E2E0D0A00BC
:0D7DD400E4F5C7F5C5F5C675C380F5C422FA
:107C290075C78375C5018FC4EEF5C375C65A75C688
:087C3900A50000AFC2127DD4CA
:017C41002220
:107BDD0075C78375C5028FC4EEF5C3AF058FC2752A
:0A7BED00C65A75C6A50000027DD43B
:107C9E0075C78375C5038FC4EEF5C375C65A75C611
:067CAE00A50000027DD4D8
:056B9D00900254EFF02E
:106BA200E4900257F0A3F0EF30E03FE4900255F09A
:106BB200A3F0900255E0FEA3E0FFC3EE9402502A38
:106BC200127C29EFF460137BFF7A76790E127CF047
:106BD200900257E4F0A304F08010900256E004F013
:106BE20070D0900255E004F080C8900254E030E189
:106BF20046E4A3F0A3F0900255E0FEA3E0FFC3EE4B
:106C020094025033E42FFFEE3402FE127C29EFF49B
:106C120060157BFF7A767929127CF0900257E0F0BA
:106C2200A3E04402F08010900256E004F070C79096
:106C32000255E004F080BF900257E07002A3E070BA
:106C4200097BFF7A767944127CF0900257A3E0FF29
:016C5200221F
:103C39004C02770000000000000000000000004C6A
:103C490002690000000000000000000000004102BD
:0C3C59007500410276004302660102AFD4
:017E57002208
:017E58002207
:106F7300900279E0FEB41007A3E070037F0122EED4
:106F83006411706E90027AE07068A3E0FF9002666D
:106F9300E0FBA3E0FAA3E0F9EF12177090027CE0A4
:106FA300FF900266E0FBA3E0FAA3E0F9900001EF93
:106FB30012178290027DE090000212178290027EE7
:106FC300E090000312178290027FE09000041217F2
:106FD30082900280E0900005121782900281E09077
:106FE3000006121782900282E09000071217827F38
:056FF30002227F0022D4
:106DB1006C6F63616C2074656D703A0D0A000D0A89
:106DC1000041444320646174613A0D0A006D6178A9
:106DD100206461746120736176652E0D0A0061740F
:106DE1002030206C6576656C2E666C675F66756C0D
:106DF1005F656D7479203A0D0A006D696E206461DA
:106E0100746120736176652E0D0A005254206C6501
:106E110076656C20646174612E0D0A006D696E20C7
:106E2100646174612E0D0A006D6178206461746182
:106E31002E0D0A0063616C207065630D0A00706F8E
:106E410073737720646174613A0D0A00666C6F7721
:096E510020646174613A0D0A002D
:103C65004802AF00000000024401FF4402B722B839
:0A3C750022B84102AE324102AD0058
:1077ED007F011274D39002B9EEF0A3EFF07BFF7A14
:1077FD006D79B1127CF09002B9E0FEA3E0FF12703A
:10780D00F57BFF7A6D79BF127CF0D39002BAE094CC
:10781D00889002B9E0941340077422F0A374B8F075
:01782D002238
:107969007BFF7A6D79C2127CF09002B3E0FF127846
:10797900A59002B4E0FF1278A57BFF7A6D79BF125A
:0D7989007CF09002B3E0FEA3E0FDEDFF22D4
:1037FB0090029AE0FEA3E0FFC3900299E09FFD9038
:10380B000298E09EFCE4121525A804A905AA06ABB4
:10381B0007E4FFFE7DC87C4212148390022C121920
:10382B006890029AE0FCA3E0FDE4121525900230AB
:10383B00121968127969900234EEF0A3EFF090023E
:10384B00B6E05410704F9002AE7464F09002ADE08D
:10385B006003023A4104F0900234E0FFA3E09002CF
:10386B0098CFF0A3EFF07BFF7A6D79CE127CF090BE
:10387B000234E0FFA3E0900298CFF0A3EFF0783A88
:10388B007C027D017B017A0279907E007F0D1216FE
:10389B00AF7F0680799002B6E05401600302396273
:1038AB009002AEF07BFF7A6D79DF127CF09002AD67
:1038BB00E0FF1278A57BFF7A6D79BF127CF0900246
:1038CB00ADE06003023A4104F0900234E0FFA3E064
:1038DB0090029ACFF0A3EFF07BFF7A6D79FB127C0D
:1038EB00F090029AA3E0FF1278A5900234E0FFA3B8
:1038FB00E090029ACFF0A3EFF0783A7C027D017B47
:10390B00017A0279907E007F0D1216AF7F07124D60
:10391B00D690029AE0FEA3E0FFC3900299E09FFDD0
:10392B00900298E09EFCE4121525A804A905AA06AE
:10393B00AB07E4FFFE7DC87C4212148390022C126D
:10394B00196890029AE0FCA3E0FDE41215259002A1
:10395B0030121968023A41E49002ADF0900234E063
:10396B00FCA3E0FDEC121525900230E0F8A3E0F982
:10397B00A3E0FAA3E0FB12128512155E900234EE5F
:10398B00F0A3EFF0C3EE648094805007E490023410
:10399B00F0A3F0900234E0FCA3E0FDEC12152590AF
:1039AB00022CE0F8A3E0F9A3E0FAA3E0FB12137AF0
:1039BB0012155E9002AEEFF0D3946440037464F082
:1039CB007BFF7A6E790C127CF0900234E0FF33951A
:1039DB00E01278A5900234A3E0FF1278A57BFF7A62
:1039EB006D79BF127CF07BFF7A6E791D127CF090A3
:1039FB00029AA3E0FF1278A57BFF7A6D79BF127C48
:103A0B00F07BFF7A6E7929127CF0900298A3E0FF8D
:103A1B001278A57BFF7A6D79BF127CF07BFF7A6EF3
:103A2B007935127CF09002AEE0FF1278A57BFF7A1D
:103A3B006D79BF127CF07BFF7A6E793F127CF09030
:103A4B0002B6E0FF1278A57BFF7A6D79BF127CF08E
:103A5B007BFF7A6E794D127CF09002B5E0FF127805
:0A3A6B00A57BFF7A6D79BF027CF0A5
:106AE3003A0020002A0021003F00484F4D45004353
:106AF30000300031003200330034003500360037F7
:106B030000380039002E00250000000000000000BE
:106B13000000000000000000000000000000000072
:106B23000000000000000000000000000000000062
:106B33000000000000000000000000000000000052
:106B43000000000000000000000000000000000042
:106B53000000000000000000000000000000000032
:106B63000000000000000000000000000000000022
:106B73000000000000000000000000000000000012
:106B8300000000000000000000000000F0FFF00023
:0A6B93001CFFFFFF1C00FFFFFF00C6
:103C7F00C1064102EA00C107C1054102E500410248
:0E3C8F00E6014102E7004102E8004102E900BF
:107C42009002B7E0FEA3E0FFE4FCFD90022E1219C1
:087C5200687D167F0102543B1E
:107C5A009002B9E0FEA3E0FFE4FCFD90022E1219A7
:087C6A00687D0E7F0402543B0B
:05725600900180EFF043
:10725B0078817C017D017BFF7A6B790C7E007F82CC
:10726B001216AF900180E0602FB20530051B900223
:10727B00327405F0A374FFF0A3746BF0A3748EF05B
:10728B007B187D377F11025B3990023C7405F07BD4
:10729B00187D377F11022EEE30051190023C7405DC
:0C72AB00F07B187D377F11122EEEC2051B
:0172B70022B4
:1022F400E490022EF0A37406F0A314F0A312197450
:1023040000000000900235121974000000009002D1
:10231400EAE0707B900290E070089002F67421026B
:10232400280D127A7C7BFF7A0579EEE4900249F05D
:102334007D047F01125DB07BFF7A06790EE4900282
:1023440049F07D057F01125DB07BFF7A06792EE4AA
:10235400900249F07D067F01125DB07BFF7A067919
:102364004EE4900249F07D077F01125DB07BFF7A55
:1023740006796EE4900249F07D087F01125DB07B1E
:10238400FF7A6A79E3E490023FF07D1102241A9007
:1023940002EAE064036003022427127A7C7BFF7A5A
:1023A4000579EEE4900249F07D047F01125DB07B73
:1023B400FF7A06790EE4900249F07D057F01125DF3
:1023C400B07BFF7A06792EE4900249F07D067F0106
:1023D400125DB07BFF7A08798EE4900249F07D07A4
:1023E4007F01125DB07BFF7A06794EE4900249F0DA
:1023F4007D087F01125DB07BFF7A06796EE490025E
:1024040049F07D097F01125DB07BFF7A6A79E3E4CC
:1024140090023FF07D137F011272B890022EE0FF0C
:102424001252B61275C590022DEFF060F6E0FEB4BC
:1024340001089002F6741002280DEE6403704F90A8
:10244400022FE0FF04F0D3EF648094865038E02537
:10245400E0FFC374139FFD7BFF7A6A79E5E4900281
:102464003FF07F021272B8900231E0FCA3E0FDA3BA
:10247400E0FEA3E0FFE47B0AFAF9F8127768900221
:1024840031121968802090022F7406F0801890028F
:102494002DE0FFB40506A3E014F0800AEFB40606AD
:1024A40090022EE004F090022EE0FFD36480948A20
:1024B4004004E4F0800EC3EF6480948050069002E0
:1024C4002E740AF090022EE0FF1252B690022DE014
:1024D40064026003022427A3E0B40A179002EAE02E
:1024E4009002F67005741002280D7421F0A3745044
:1024F40002273790022FE0FF14F0D3EF648094801A
:102504004067900231E0FCA3E0FDA3E0FEA3E0FFFE
:10251400E47B0AFAF9F812186490023112196890EF
:102524000231E0F8A3E0F9A3E0FAA3E0FB90022E65
:10253400E0FF3395E0FEFDFCEB2FFFEA3EFEE93DB4
:10254400FDE83CFC90023112196890022FE025E06E
:10255400FFC374119FFD7BFF7A6A79E7E490023F21
:10256400F07F021272B80224279002EAE06403604A
:10257400030226517402F0900231E0FCA3E0FDA3B3
:10258400E0FEA3E0FFA312196890023C74C0F07B44
:10259400207D017F01122EEE7BFF7A0579EEE49017
:1025A4000249F07D037F01125DB07BFF7A0879AEAA
:1025B400E4900249F07D047F01125DB07BFF7A084C
:1025C40079CEE4900249F07D057F01125DB07BFF76
:1025D4007A06790EE4900249F07D067F01125DB01F
:1025E4007BFF7A06792EE4900249F07D077F011281
:1025F4005DB07BFF7A08798EE4900249F07D087F14
:1026040001125DB07BFF7A06794EE4900249F07DB9
:10261400097F01125DB07BFF7A06796EE49002496E
:10262400F07D0A7F01125DB07BFF7A6A79E3E49062
:10263400023FF07D157F011272B890022F7406F0EC
:10264400900231121974000000000224279002EA5B
:10265400E06402600302273B900235E0FCA3E0FD46
:10266400A3E0FEA3E0FF900231E0F8A3E0F9A3E0C9
:10267400FAA3E0FBC31218C1703E900235E0FCA33C
:10268400E0FDA3E0FEA3E0FF900291121968783AFE
:102694007C027D017B017A0279907E007F0D121607
:1026A400AF7F02124DD69002F67421F0A37450F05D
:1026B4009002EA7401F0FF2290023C74C0F07B1097
:1026C4007D017F11122EEE7BFF7A06794EE4900293
:1026D40049F07D057F02125DB07BFF7A06796EE4D6
:1026E400900249F07D067F02125DB07BFF7A087983
:1026F400EEE4900249F07D077F02125DB07BFF7A21
:1027040009790EE4900249F07D087F02125DB07BE6
:10271400FF7A6A79E9E490023FF07D117F02127238
:10272400B8127DC79002F67421F0A37450F09002A1
:10273400EA7404F07F00229002EAE0600302242796
:10274400900231E0FCA3E0FDA3E0FEA3E0FF9002D1
:1027540091E0F8A3E0F9A3E0FAA3E0FBC31218D7D1
:10276400700C9002F67421F0A3E4F07F0122900231
:102774003C74C0F07B107D017F11122EEE7BFF7A3A
:1027840006794EE4900249F07D057F02125DB07B2C
:10279400FF7A06796EE4900249F07D067F02125DAD
:1027A400B07BFF7A06798EE4900249F07D077F02C0
:1027B400125DB07BFF7A0679AEE4900249F07D08A1
:1027C4007F02125DB07BFF7A6A79E9E490023FF000
:1027D4007D117F021272B8127DC790023C74C0F062
:1027E4007B107D017F11122EEE90022F7406F09063
:1027F400023112197400000000900230E014F060FD
:0E280400030224279002F67410F0A3E4F0FF04
:0128120022A3
:106C530090022D7401F0E4A3F0127A7C026CF4121A
:106C630075C5EF60FA64016004EFB4050A9002F69B
:106C73007410F0A3E4F022EFB4032090022DE0148B
:106C8300F0E0FEC36480948150067407F0A3802C67
:106C9300EEB4040590022E80238026EFB4042990DD
:106CA300022DE004F0E0FED3648094874007740172
:106CB300F0A3F0803CEEB4050890022E7401F0803E
:106CC30030E490022EF08029EF64026004EFB406F2
:106CD3002090022DE0FF3395E0FEEFC4F8540FC877
:106CE30068FFEEC454F04844219002F6F0A3EFF09D
:0F6CF3002290022DE0FFA3E0FD121B78026C62DD
:10634B0090022E7401F0127A7C7BFF7A04798EE432
:10635B00900249F07D047F01125DB07BFF7A0479D6
:10636B00AEE4900249F07D057F01125DB07BFF7AB0
:10637B000379AEE4900249F07D067F01125DB07B9C
:10638B00FF7A0379CEE4900249F07D077F01125D1D
:10639B00B090022EE0FF1257321275C590022DEF0E
:1063AB00F060F6E0FFB401079002F674108051EF35
:1063BB00B405079002F674218046EFB403139002E4
:1063CB002EE014F0E0C364809480501A7402F080C5
:1063DB001590022DE0B4040EA3E004F0E0D364802A
:1063EB0094824002E4F090022EE0FF1257329002AA
:1063FB002DE0640270A3A3E0FF700A9002F67421F3
:10640B00F0A3E4F022EFB4010790029C7401800B1F
:10641B0090022EE06402708190029CF09002F67460
:10642B0021F0A3E4F0783A7C027D017B017A0279BA
:0C643B0090FE7F0D1216AF7F08124DD6A8
:016447002232
:1047010090022D7403F0E4A3F0127A7C7BFF7A010E
:1047110079EEE4900249F07D027F01125DB07BFFEA
:104721007A02790EE4900249F07D037F01125DB0B7
:104731007BFF7A0679CEE4900249F07D047F011275
:104741005DB07BFF7A0079CEE4900249F07D057F70
:1047510001125DB07BFF7A0079CEE4900249F07DD1
:10476100067F01125DB07BFF7A0079EEE490024989
:10477100F07D077F01125DB07BFF7A0379AEE49093
:104781000249F07D087F01125DB07BFF7A0379CE8B
:10479100E4900249F07D097F01125DB00248BE122A
:1047A10075C5EF60FAB401089002F6741002487BF7
:1047B100EFB4051690022DE004F0E0D364809483F9
:1047C10050030248BEE4F00248BEEFB4061790025F
:1047D1002DE014F0E0C36480948040030248BE746D
:1047E10003F00248BEEF6403704690022DE0FEB470
:1047F1000106A3E004F08018EEB4020990022EE055
:10480100240AF0800BEEB4030790022EE02464F03A
:1048110090022EE0FEC364809480400BD3EE64804E
:1048210094E450030248BE90022E7464F00248BE24
:10483100EF6404703590022DE0FEB40106A3E0148C
:10484100F08018EEB4020990022EE024F6F0800BFD
:10485100EEB4030790022EE0249CF090022EE0C3F8
:10486100648094805057E4F08053EF6402704E905E
:10487100022DE0700A9002F67421F0A3E4F0229078
:104881000297E0FF90022EE0FDFB3395E0FAC3EBC7
:104891009F7480F86A985025900296EDF09002F688
:1048A1007421F0A3E4F0783A7C027D017B017A0265
:1048B1007990FE7F0D1216AF7F04024DD690022E25
:0D48C100E0FF90022DE0FD1260020247A012
:1045330090022D7403F0A37464F0127A7C7BFF7AEB
:104543000179EEE4900249F07D027F01125DB07BB8
:10455300FF7A02790EE4900249F07D037F01125D38
:10456300B07BFF7A07794EE4900249F07D047F0126
:10457300125DB07BFF7A0079CEE4900249F07D05AD
:104583007F01125DB07BFF7A0079CEE4900249F09F
:104593007D067F01125DB07BFF7A0079EEE4900225
:1045A30049F07D077F01125DB07BFF7A0379AEE4AA
:1045B300900249F07D087F01125DB07BFF7A037999
:1045C300CEE4900249F07D097F01125DB00246F10D
:1045D3001275C5EF60FAB401089002F67410024632
:1045E300AEEFB4051690022DE004F0E0D36480949E
:1045F3008350030246F1E4F00246F1EFB40617904C
:10460300022DE014F0E0C36480948040030246F17D
:104613007403F00246F1EF6403704690022DE0FE4E
:10462300B40106A3E004F08018EEB4020990022E50
:10463300E0240AF0800BEEB4030790022EE024641A
:10464300F090022EE0FEC364809480400BD3EE64AE
:104653008094E450030246F190022E7464F0024603
:10466300F1EF6404703590022DE0FEB40106A3E07F
:1046730014F08018EEB4020990022EE024F6F080C4
:104683000BEEB4030790022EE0249CF090022EE080
:10469300C3648094805057E4F08053EF6402704EFB
:1046A30090022DE0700A9002F67421F0A3E4F02248
:1046B300900296E0FF90022EE0FDFB3395E0FAD3E3
:1046C300EB9F7480F86A984025900297EDF0900272
:1046D300F67421F0A3E4F0783A7C027D017B017A41
:1046E300027990FE7F0D1216AF7F05024DD6900220
:0E46F3002EE0FF90022DE0FD1260020245D382
:1032340090022E7401F0782F7C02FDFB7A0279C88B
:103244007E007F091216AF127A7C7BFF7A0179CE59
:10325400E4900249F07D047F01125DB07BFF7A05A2
:10326400790EE4900249F07D057F01125DB07BFF89
:103274007A01790EE4900249F07D067F01125DB077
:103284007BFF7A01792EE4900249F07D077F0112D9
:103294005DB07BFF7A0379AEE4900249F07D087F4C
:1032A40001125DB07BFF7A0379CEE4900249F07D90
:1032B400097F01125DB0900235E0FEA3E0FFE4FC5B
:1032C400FD900247121968E490024BF07B047D08DC
:1032D4007F02124A827BFF7A01798EE4900249F0E0
:1032E4007D057F02125DB07BFF7A0179AEE4900226
:1032F40049F07D077F02125DB07BFF7A0179CEE44D
:10330400900249F07D097F02125DB07BFF7A6A79F1
:10331400E3E490023FF07D077F031272B87BFF7AEB
:103324006A79E3E490023FF07D0A7F031272B87B6E
:10333400FF7A0479EEE4900249F07D087F03125D80
:10334400B07BFF7A05790EE4900249F07D097F0392
:10335400125DB0122B981275C590022DEFF060F635
:10336400E0FFB401089002F67410023572EFB4065F
:103374001690022EE004F0E0D36480948950030296
:103384003536E4F002353690022DE0FFB40515A37E
:10339400E014F0E0C364809480400302353674097D
:1033A400F0023536EF6403600302347490022EE0B9
:1033B400FFB40210900236E004F07053900235E03E
:1033C40004F0804BEFB40110900236E0240AF09030
:1033D4000235E03400F08037EFB403059002348006
:1033E4002BEFB404059002328022EFB4050590025D
:1033F400318019EFB406059002308010EFB4070550
:1034040090022F8007EFB40806900233E004F0D353
:10341400900236E09433900235E094084007740734
:10342400F0A374D0F0900234E0D3940C4003740100
:10343400F0900232E0D3941F40037401F090023103
:10344400E0D394174002E4F0900230E0D3943B4080
:1034540002E4F090022FE0D3943B4002E4F09002A7
:1034640033E0D3940750030235367401F002353645
:1034740090022DE064046003023536A3E0FFB40239
:1034840008900236E024FF800AEFB401109002365F
:10349400E024F6F0900235E034FFF08037EFB40317
:1034A40005900234802BEFB404059002328022EFA1
:1034B400B405059002318019EFB4060590023080FE
:1034C40010EFB4070590022F8007EFB408069002AE
:1034D40033E014F0C3900236E094D0900235E094C7
:1034E4000750077408F0A37433F0900234E0C394D7
:1034F4000150037401F0900232E0C394015003744C
:1035040001F0900231E0D3941740037417F0900255
:1035140030E0D3943B4003743BF090022FE0D3940B
:103524003B4003743BF0900233E0C39401500374B6
:1035340007F0122B9890022DE06402600302335AC4
:10354400A3E0FF70079002F674218022EF64096003
:103554000302335A78387C027D017B017A02792F89
:10356400FE7F091216AF1267D19002F67421F0A300
:02357400E4F081
:013576002232
:104F7B0090022D7401F0E4A3F0900290E090022FC8
:104F8B00F09002EAE064017066127A7C90022D7454
:104F9B0002F07BFF7A0379AEE4900249F07D047F47
:104FAB0002125DB07BFF7A0379CEE4900249F07D6B
:104FBB00057F02125DB07BFF7A08790EE4900249FF
:104FCB00F07D067F02125DB07BFF7A08792EE490AC
:104FDB000249F07D077F02125DB07BFF7A6A79E9A7
:104FEB00E490023FF07D0F7F021272B8127DC7E48E
:104FFB009002EAF0127A7C7BFF7A06794EE49002FB
:10500B0049F07D057F01125DB07BFF7A06796EE476
:10501B00900249F07D067F01125DB07BFF7A037928
:10502B00AEE4900249F07D077F01125DB07BFF7A01
:10503B000379CEE4900249F07D087F01125DB00246
:10504B00510D1275C5EF60FAB401089002F6741099
:10505B00025108EFB4031690022DE014F0C36480E4
:10506B009480400302510D7403F002510DEFB40410
:10507B001490022DE004F0D364809483500302510A
:10508B000DE4F0807DEF64056004EFB4061B900225
:10509B002DE06401706C90022FE070047E018002A1
:1050AB007E0090022FEEF08059EF64027054900254
:1050BB002DE0FFB402109002F67420F0A3E4F09000
:1050CB0002EA7403F022EFB4032890022FE090025F
:1050DB0090F09002F67421F0A3E4F0783A7C027D14
:1050EB00017B017A027990FE7F0D1216AF7F0102D0
:1050FB004DD690022DE0700A9002F67421F0A3E4D5
:10510B00F02290022FE0FF90022DE0FD123F3002C3
:02511B00504DF5
:10611E0090022D7401F0127A7C7BFF7A07796EE47F
:10612E00900249F07D047F01125DB07BFF7A077902
:10613E008EE4900249F07D057F01125DB07BFF7AFF
:10614E000379AEE4900249F07D067F01125DB07BCB
:10615E00FF7A0379CEE4900249F07D077F01125D4C
:10616E00B002622E1275C5EF60FAB401089002F605
:10617E007410026229EFB405089002F674210262CF
:10618E0029EFB4031790022DE014F0E0C36480945D
:10619E0080400302622E7402F002622EEFB40412EB
:1061AE0090022DE004F0E0D3648094824072E4F01B
:1061BE00806EEF6402706990022DE0FF700790020E
:1061CE00F674218056EFB401289002957401F09078
:1061DE0002F67421F0A3E4F0C2CB783A7C027D0182
:1061EE007B017A027990FE7F0D1216AF7F03024D6E
:1061FE00D690022DE0B40228E4900295F0D2CB782E
:10620E003A7C027D017B017A027990FE7F0D121697
:10621E00AF7F03124DD69002F67421F0A3E4F02264
:0B622E0090022DE0FF125893026172F5
:1062390090022D7401F0E4A3F0127A7C7BFF7A09B5
:10624900794EE4900249F07D047F01125DB07BFF35
:106259007A09796EE4900249F07D057F01125DB0FB
:106269007BFF7A09798EE4900249F07D067F01125D
:106279005DB07BFF7A0979AEE4900249F07D077F32
:1062890001125DB07BFF7A6A79EBE490023FF07D01
:106299000F7F011272B802633B1275C5EF60FAB441
:1062A90001089002F67410026336EF64056004EF8A
:1062B900B4061990022DE064017077A3E070047EA2
:1062C9000180027E0090022EEEF08066EFB4031387
:1062D90090022DE014F0E0C364809480505474025D
:1062E900F0804FEFB4041290022DE004F0E0D36483
:1062F900809482403DE4F08039EF6402703490026A
:106309002DE0FF70079002F674218021EFB402227C
:10631900783A7C027D017B017A0279837E007F0DC8
:106329001216AFE4FF124DD69002F67421F0A3E4E1
:10633900F02290022EE0FF90022DE0FD1255BA02E4
:0263490062A24E
:017E59002206
:0564480090022DEFF0B1
:10644D00A37401F0EFF4600330060DE490022DF01B
:10645D00127A7C1248CE803F90022DE0FFB40506E3
:10646D00A3E004F0800AEFB4060690022EE014F0CB
:10647D0090022EE0FFD36480948340057401F08078
:10648D000EC3EF64809481500690022E7403F09039
:10649D00022EE0FF125EE39002301219740000002C
:1064AD000A7F011273171275C590022DEFF0606B04
:1064BD009002301219740000000A7F0112731790B8
:1064CD00022DE0FDB4020FA3E0FFEFC454F09002E3
:1064DD00F6F0A3E4F022EDB40102804790022DE026
:1064ED00FFB40506A3E004F0800AEFB4060690029F
:1064FD002EE014F090022EE0FFD3648094834005CB
:10650D007401F0800EC3EF64809481500690022ECA
:10651D007403F090022EE0FF125EE37F011278D932
:0A652D00EF6083E49002F6F0A3F0A3
:016537002241
:0565380090022FEFF0BE
:10653D009002E5E06F601790023C7440F07B107D97
:10654D00717F11122EEE90022FE09002E5F0900275
:10655D002FE030E2087BFF7A0B792E800D90022F11
:10656D00E030E01B7BFF7A0A79CEE4900249F07DA2
:10657D000A7F02125DB07BFF7A0A79EE02661A90ED
:10658D00022FE030E13E7BFF7A01794EE490024923
:10659D00F07D087F02125DB07BFF7A01796EE49089
:1065AD000249F07D097F02125DB07BFF7A06798E7C
:1065BD00E4900249F07D0A7F02125DB07BFF7A06FE
:1065CD0079AE804990022FE07BFF30E72A7A067979
:1065DD00CEE4900249F07D097F02125DB07BFF7A17
:1065ED000079CEE4900249F07D0A7F02125DB07B06
:1065FD00FF7A0B790E80167A0279EEE4900249F05B
:10660D007D0A7F02125DB07BFF7A03790EE4900262
:09661D0049F07D0B7F02125DB013
:016626002251
:05747F0090022FEFF068
:107484009002E6E06F601790023C7440F07B107D40
:10749400717F21122EEE90022FE09002E6F090020E
:1074A4002FE07BFF70067A0479CE80057A0179EEAD
:1074B400E4900249F07D0A7F03125DB07BFF7A02FB
:0E74C400790EE4900249F07D0B7F03125DB05B
:0174D2002297
:1048CE00C206D207900232743EF0A374FFF0A374B6
:1048DE000BF0A3745EF07B2D7D017F01125B397BA3
:1048EE00FF7A01790EE4900249F07D057F01125D99
:1048FE00B07BFF7A01792EE4900249F07D067F01AC
:10490E00125DB07BFF7A6A79E3E490023FF07D0D91
:10491E007F011272B89002CAE0FFE4FCFDFE900225
:10492E0047121968E490024BF07B027D107F011252
:10493E004A827BFF7A6A79E3E490023FF07D117F31
:10494E00011272B89002C9E0FFE4FCFDFE9002472E
:10495E00121968E490024BF07B027D137F01124A1C
:10496E00827BFF7A6A79E3E490023FF07D147F0147
:10497E001272B89002C8E0FFE4FCFDFE90024712EE
:10498E001968E490024BF07B027D167F01124A8279
:10499E007BFF7A0279AEE4900249F07D057F021228
:1049AE005DB07BFF7A0279CEE4900249F07D067FFE
:1049BE0002125DB07BFF7A6A79E3E490023FF07DEC
:1049CE000D7F021272B89002F9E0FF1265387BFF7C
:1049DE007A04798EE4900249F07D057F03125DB072
:1049EE007BFF7A0479AEE4900249F07D067F0312D4
:1049FE005DB07BFF7A6A79E3E490023FF07D0D7F34
:104A0E00031272B890029CE0FF12747F7BFF7A0350
:104A1E00792EE4900249F07D027F04125DB07BFF97
:104A2E007A03794EE4900249F07D037F04125DB063
:104A3E007BFF7A0379AEE4900249F07D067F041283
:104A4E005DB07BFF7A0379CEE4900249F07D077F5B
:104A5E0004125DB07BFF7A6A79ED90023F7401F02B
:104A6E007D137F041272B89002AEE0FF7D01123505
:044A7E0077C20722D2
:103CD500D206D2077BFF7A0079CEE4900249F07DC7
:103CE500037F01125DB07BFF7A0079EEE490024913
:103CF500F07D047F01125DB07BFF7A0179EEE490DF
:103D05000249F07D057F01125DB07BFF7A02790ED5
:103D1500E4900249F07D067F01125DB07BFF7A02D7
:103D2500792EE4900249F07D077F01125DB07BFF9B
:103D35007A02794EE4900249F07D087F01125DB068
:103D45007BFF7A02796EE4900249F07D097F0112CA
:103D55005DB07BFF7A02798EE4900249F07D0A7F9F
:103D650001125DB09002CEE0FEA3E0FFE4FCFD9001
:103D75000247121968E490024BF07B047D0A7F022A
:103D8500124A827BFF7A01798EE4900249F07D0622
:103D95007F02125DB09002CDE0FFE4FCFDFE9002D3
:103DA50047121968E490024BF07B027D0E7F0212E8
:103DB5004A827BFF7A0179AEE4900249F07D087F63
:103DC50002125DB09002CBE0FFE4FCFDFE900247DD
:103DD500121968E490024BF07B027D127F02124AB1
:103DE500827BFF7A0179CEE4900249F07D0A7F0259
:103DF500125DB09002CAE0FFE4FCFDFE900247129E
:103E05001968E490024BF07B027D067F03124A821B
:103E15007BFF7A6A79E3E490023FF07D077F031226
:103E250072B89002C9E0FFE4FCFDFE90024712194A
:103E350068E490024BF07B027D097F03124A827B86
:103E4500FF7A6A79E3E490023FF07D0A7F031272FC
:103E5500B89002C8E0FFE4FCFDFE90024712196825
:103E6500E490024BF07B027D0C7F03124A827BFFBC
:103E75007A0479EEE4900249F07D087F03125DB083
:103E85007BFF7A05790EE4900249F07D097F0312E4
:103E95005DB09002CCE014B407005065903EAF755C
:103EA500F003A4C58325F0C58373023EC4023ECC4E
:103EB500023ED4023EDC023EE4023EEC023EF47BCE
:103EC500FF7A05792E802E7BFF7A05794E80267B39
:103ED500FF7A05796E801E7BFF7A05798E80167BC9
:103EE500FF7A0579AE800E7BFF7A0579CE80067B59
:103EF500FF7A04796EE4900249F07D0A7F03125D32
:103F0500B0127C5A7BFF7A0B794EE4900263F07D08
:103F15000F7F04125C7C7BFF7A6A79F2E490023FA2
:0B3F2500F07D107F041272B8C207226A
:106D0200300703026DB09002F9E030E73A90024793
:106D120012197400000000E490024BF07B027D1017
:106D22007F01124A829002D7E0FFE4FCFDFE90024E
:106D320047121968E490024BF07B027D137F011227
:106D42004A829002D6803D9002CAE0FFE4FCFDFE3A
:106D5200900247121968E490024BF07B027D107F8B
:106D620001124A829002C9E0FFE4FCFDFE90024754
:106D7200121968E490024BF07B027D137F01124AE4
:106D8200829002C8E0FFE4FCFDFE900247121968FF
:106D9200E490024BF07B027D167F01124A82900240
:0F6DA200F9E0FF12653890029CE0FF12747F2227
:107372002007579002CAE0FFE4FCFDFE900247128C
:107382001968E490024BF07B027D067F03124A8269
:107392009002C9E0FFE4FCFDFE900247121968E486
:1073A20090024BF07B027D097F03124A829002C851
:1073B200E0FFE4FCFDFE900247121968E490024BE4
:0B73C200F07B027D0C7F03124A822248
:105EE300D207EF24FE6063147003025FA3240260F1
:105EF30003025FFF7BFF7A03792EE4900249F07D72
:105F0300027F04125DB07BFF7A03794EE49002496D
:105F1300F07D037F04125DB07BFF7A0379AEE490DA
:105F23000249F07D067F04125DB07BFF7A0379CED0
:105F3300E4900249F07D077F04125DB07BFF7A6A2B
:105F430079ED90023F7401025FF77BFF7A03792EAC
:105F5300E4900249F07D027F04125DB07BFF7A0377
:105F6300794EE4900249F07D037F04125DB07BFF1C
:105F73007A0379AE9002497401F07D067F04125DC5
:105F8300B07BFF7A0379CE9002497401F07D077FDD
:105F930004125DB07BFF7A6A79EDE490023F80548E
:105FA3007BFF7A03792E9002497401F07D027F040E
:105FB300125DB07BFF7A03794E9002497401F07D44
:105FC300037F04125DB07BFF7A0379AEE49002494C
:105FD300F07D067F04125DB07BFF7A0379CEE490F7
:105FE3000249F07D077F04125DB07BFF7A6A79ED89
:0F5FF300E490023FF07D137F041272B8C20722C0
:1052B600900239EFF07BFF7A6A79F4700690023F2C
:1052C600048004E490023FF07D037F031272B890DD
:1052D6000239E07BFF7A6A79F6B4010790023F74DF
:1052E600018004E490023FF07D057F031272B890BE
:1052F6000239E07BFF7A6A79F8B4020790023F74BC
:10530600018004E490023FF07D077F031272B8909B
:105316000239E07BFF7A6A79FAB4030790023F7498
:10532600018004E490023FF07D097F031272B89079
:105336000239E07BFF7A6A79FCB4040790023F7475
:10534600018004E490023FF07D0B7F031272B89057
:105356000239E07BFF7A6A79FEB4050790023F7452
:10536600018004E490023FF07D0D7F031272B89035
:105376000239E07BFF7A6B7900B4060790023F742E
:10538600018004E490023FF07D0F7F031272B89013
:105396000239E07BFF7A6B7902B4070790023F740B
:1053A600018004E490023FF07D117F031272B890F1
:1053B6000239E07BFF7A6B7904B4080790023F74E8
:1053C600018004E490023FF07D137F031272B890CF
:1053D6000239E07BFF7A6B7906B4090790023F74C5
:1053E600018004E490023FF07D157F031272B890AD
:1053F6000239E07BFF7A0379EEB40A1A9002497407
:1054060001F07D0A7F04125DB07BFF7A04790E906D
:10541600024974018016E4900249F07D0A7F041265
:105426005DB07BFF7A04790EE4900249F07D0B7F34
:0554360004125DB0222C
:1057320090022FEFF064017BFF7A6A79F6703E9057
:10574200023F04F0FD7F021272B87BFF7A6B790888
:1057520090023F7401F07D027F021272B87BFF7AE1
:105762000179EE9002497401F07D027F02125DB070
:105772007BFF7A02790E9002497401803AE490022A
:105782003FF07D017F021272B87BFF7A6B7908E4E9
:1057920090023FF07D027F021272B87BFF7A01799C
:1057A200EEE4900249F07D027F02125DB07BFF7A47
:1057B20002790EE4900249F07D037F02125DB090FF
:1057C200022FE064027BFF7A6A79F8703E90023F12
:1057D20004F0FD7F031272B87BFF7A6B79089002A6
:1057E2003F7401F07D027F031272B87BFF7A047965
:1057F200CE9002497401F07D027F03125DB07BFFFF
:105802007A02790E9002497401803AE490023FF0E4
:105812007D017F031272B87BFF7A6B7908E49002F4
:105822003FF07D027F031272B87BFF7A0479CEE4E7
:10583200900249F07D027F03125DB07BFF7A02790C
:105842000EE4900249F07D037F03125DB090022FB7
:10585200E07BFF7A0379EE701990024904F07D0A29
:105862007F04125DB07BFF7A04790E9002497401C5
:105872008016E4900249F07D0A7F04125DB07BFF3E
:105882007A04790EE4900249F07D0B7F04125DB038
:0158920022F3
:1058930090022EEFF064017BFF7A6A79F6703E90F6
:1058A300023F04F0FD7F021272B87BFF7A6B790826
:1058B30090023F7401F07D027F021272B87BFF7A7F
:1058C3000179EE9002497401F07D027F02125DB00E
:1058D3007BFF7A02790E9002497401803AE49002C8
:1058E3003FF07D017F021272B87BFF7A6B7908E487
:1058F30090023FF07D027F021272B87BFF7A01793A
:10590300EEE4900249F07D027F02125DB07BFF7AE4
:1059130002790EE4900249F07D037F02125DB0909C
:10592300022EE064027BFF7A6A79F8703E90023FB0
:1059330004F0FD7F031272B87BFF7A6B7908900243
:105943003F7401F07D027F031272B87BFF7A017905
:105953006E9002497401F07D027F03125DB07BFFFC
:105963007A09792E9002497401803AE490023FF05B
:105973007D017F031272B87BFF7A6B7908E4900292
:105983003FF07D027F031272B87BFF7A01796EE4E8
:10599300900249F07D027F03125DB07BFF7A0979A3
:1059A3002EE4900249F07D037F03125DB090022E36
:1059B300E07BFF7A0379EE701990024904F07D0AC7
:1059C3007F04125DB07BFF7A04790E900249740163
