:10205600436865636B205349343433322E2E2E0D7C
:102066000A004445564943455F545950453A203085
:102076007825782E0D0A000D0A0044455649434539
:102086005F56455253494F4E3A20307825782E0DEB
:102096000A004445564943455F5354415455533A03
:1020A6002061742069646C65206D6F64652E0D0A6D
:1020B600004445564943455F5354415455533A20CD
:1020C6006174205258206D6F64652E0D0A004445D8
:1020D600564943455F5354415455533A2061742041
:1020E6005458206D6F64652E0D0A0043727973741F
:1020F600616C204F7363696C6C61746F72204C6FF6
:1021060061642043617061636974616E63653A203E
:1021160025780D0A0053493434333220494F20497B
:102126006E69742E2E2E2E2E2E0D0A00494F204932
:102136006E697420636F6D706C657465642E0D0A2C
:1021460000534934343332206973206E6F7420662D
:102156006F756E642E2E2E2E2E2E0D0A00534934C8
:10216600343332204750494F496E697420636F6D8E
:10217600706C6574652C636F6E666967206465763E
:102186006963652E2E2E2E2E2E0D0A00436F6E6667
:1021960069672052462E2E2E2E2E2E0D0A005349EA
:1021A60034343332496E697420636F6D706C6574B4
:1021B600652E0D0A005349343433325F536574205B
:1021C60052784D6F64652E2E2E2E2E2E0D0A00533C
:1021D60049343433325F5365742054784D6F6465E7
:1021E6002E2E2E2E2E2E0D0A005349343433325FF6
:1021F6005365742049646C654D6F64652E2E2E2ED2
:102206002E2E0D0A005349343433325F53656E6403
:10221600204649464F20646174612E2E2E2E0D0AEB
:10222600002072657620496E746572727570740D41
:102236000A002073656E6420496E7465727275704B
:10224600740D0A006D6F6465207265676973746545
:05225600723A0D0A00C0
:1039DE00D3EF9400EE64809480400F7D817C14DCE4
:0A39EE00FEDDFAEF1F70E91E80E60F
:0139F80022AC
:073B5400C2C3D2B3D2B222BA
:09394100900274EFF07D017F0E8D
:10394A0090020EEDF0C2B3EF4480FF123AF69002F5
:09395A000EE0FF123AF6D2B3228E
:073A7800900273EFF07F04E0
:0C3A7F00C2B3123AF67FFF123AF6D2B33F
:013A8B002218
:1030F3007BFF7A207956123AA0E4FF123A7F9002BE
:1031030009EFF07BFF7A207968123AA0900209E078
:10311300FF1237F07BFF7A20797D123AA0900209E3
:10312300E0640860037F01227F01123A7F90020965
:10313300EFF07BFF7A207980123AA0900209E0FF3A
:103143001237F07BFF7A20797D123AA07F02123A80
:103153007F900209EFF0540F70087BFF7A20799873
:103163008022900209E0540FFFBF01087BFF7A2001
:1031730079B78010900209E0540FFFBF02097BFF6B
:103183007A2079D4123AA07F09123A7F900209EF8C
:10319300F07BFF7A2079F1123AA0900209E0FF1246
:0D31A30037F07BFF7A20797D123AA07F0083
:0131B00022FC
:102F59007D537F7512394A7D4B7F7612394AE4FDDC
:102F69007F7712394A7D097F6E12394A7DD57F6F85
:102F790012394A7D2C7F7012394A7D807F58123967
:102F89004A7D1F7F6D12394A7D207F7212394A7D31
:102F99002C7F1C12394A7D417F2012394A7D607F7E
:102FA9002112394A7D277F2212394A7D527F231205
:102FB900394AE4FD7F2412394A7D047F2512394AB2
:102FC9007D407F1D12394A7D0A7F1E12394A7D0FC5
:102FD9007F2A12394A7D037F1F12394A7D607F6932
:102FE90012394A7D0C7F3412394A7D2A7F351239CC
:102FF9004A7D027F3312394A7D2D7F3612394A7D47
:10300900D47F3712394A7D8D7F3012394AE4FD7FEA
:103019003212394A7D637F7112394A7DB47F0902C0
:02302900394A22
:1031B1007BFF7A21791B123AA0123B547BFF7A21C3
:1031C1007932123AA07F147E0080131230F3EF603F
:1031D100127BFF7A217947123AA07FF47E011239DE
:1031E100DE80E87DCA7F0B12394A7DCA7F0C123915
:1031F1004A7DCA7F0D12394A7F0A7E001239DE7B71
:10320100FF7A217963123AA07F03123A7F123A784A
:10321100900274EFF07D807F0712394A7F147E009F
:103221001239DE7F03123A7F123A78900274EFF07E
:103231007BFF7A217992123AA0122F597DFF7F05E7
:1032410012394A7DFF7F0612394A7F03123A7F12F3
:103251003A78900274EFF07D077F0512394AE4FD58
:0E3261007F0612394A7BFF7A2179A4023AA037
:1039F9007F03123A7F123A781239417D057F071207
:0B3A0900394A7BFF7A2179BB023AA00A
:1038F9007F03123A7F123A78900274EFF07D027FCB
:103909000E12394A7D097F0712394A7BFF7A2179DC
:04391900D5023AA0F9
:103A14007F03123A7F123A781239417D017F0712EF
:0B3A2400394A7BFF7A2179EF023AA0BB
:1034660090020AEBF0A3EAF0A3E9F0900209EFF06C
:01347600FD58
:103477007F3E12394AE490020DF0900209E0FF9076
:10348700020DE0FEC3EF6480F8EE6480985025904B
:10349700020AE0FBA3E0FAA3E0F9EEFF3395E08F21
:1034A70082F583121550FD7F7F12394A90020DE095
:1034B70004F080C61238F97BFF7A22790B023AA012
:10326F007F07123A7F900204EFF07F03123A7F122A
:10327F003A78900274EFF0900273E030E15B7BFFDD
:10328F007A227927123AA07F4B123A7F900205EFEC
:10329F00F0BF0C2EE4900204F0900205E0FF9002C4
:1032AF0004E0C39F501C7F7F123A7F900204E024FA
:1032BF003DF582E43402F583EFF0900204E004F070
:1032CF0080D77D027F0812394AE4FD7F0812394A00
:1032DF001239F990023B7401F0900273E030E20C66
:0C32EF007BFF7A227938123AA01239F9DC
:0132FB0022B0
:10391D007F07123A7F900275EFF07BFF7A22794A8A
:10392D00123AA0900275E0FF1237F07BFF7A2079F2
:04393D007D023AA02D
:0B3B410074696D653A0D0A000D0A0062
:1038D300E4FD7FD0123A4A900209EFF07BFF7A3B76
:1038E3007941123AA0900209E0FF1237F07BFF7A88
:0638F3003B7949023AA0F6
:100026006275737920636865636B2E2E2E0D0A0048
:1000360000000000000000000000000000000000BA
:10004600000000000018188888286A4E0CE8E808A6
:1000560008181800000444446525341C0E0F1D348E
:100066006444040000F8F888F8F81090901010FE28
:10007600FE101000001F1F081F1F00000343407FD3
:100086007F0000000020644C0800FEFE929292FE63
:10009600FE00000000303C0F437E7E7E7E427E7E68
:1000A6007E7E4000000000F8F828F8FAAEACA8F80A
:1000B600F82828000040703F4F42662E3A123A2E2A
:1000C6006642400000202020A0E060FFFFE0C06004
:1000D600381800002030180E0741C0FF7F010306C4
:1000E6000C1810100080C0F0FE0E9090121E1CD04E
:1000F600D01000000000007F7F40414F4E607C5FC3
:100106004340400000F8F888F8F81090901010FE70
:10011600FE101000001F1F081F1F00000343407F32
:100126007F0000000000F0F20EECE4242424E4E456
:1001360004FCFC0000007F7F000F0F0909090F4F28
:10014600407F7F0000808282FEFE82828282FEFEE7
:1001560082828000004060381F07000000007F7F19
:100166000000000000001010121E1CF0F0181E16F1
:10017600101000000041416131190F07070F1931B6
:1001860061414100002038DFC7444444FCFC44443C
:10019600444404000404040707040404FFFF0404A1
:1001A60004040404000000FEFE222222222222224F
:1001B600FEFE000080C0703F0F020202020242C231
:1001C600FF7F0000000000FEFE828282828282FEA5
:1001D600FE000000000000FFFF404040404040FF9E
:1001E600FF000000000000F8F88C8E8B898888F8E4
:1001F600F8000000000000FFFF444444444444FF6C
:10020600FF0000004044C4C44444445010FFFF10A3
:1002160010F0F000103C3F1314BCF8703E0F41C0C4
:10022600C07F3F00101010FFFFB0B8D868290F2E0E
:1002360068E8B8180242C3FF7F40404242427E7ED1
:100246004242424040505E4E48FFFF484848F8F858
:1002560000FFFF0000003E3E02FFFF323E1E0F4F32
:10026600C0FF7F00000022323AAEA6E26331198950
:1002760081010000004262331B4BC2FE7E020A1A55
:10028600336746002030BCEF733088C8E8B99F8ECC
:10029600A8E8C888226767321292C0703F0F003FF5
:1002A6007F40717100083830FFFF202020FFFF20BB
:1002B600222E2C2004040603FFFFC0703E0F071EEB
:1002C6003860C08000048484C46474DF9F3464C4CE
:1002D60084840400417939003C7C40424E4C407095
:1002E600740D3931101C4C6434140507060414349B
:1002F60064541C0C004040414141417F7F414141D3
:100306004140400000F8F943424242FAFA42424272
:1003160042FEFE0000FFFF080C06033F3F03064CAB
:10032600C8FF7F000000FEFE42424242FAFA424205
:1003360042C2C20280E07F9FC060381E070140C0F3
:10034600C07F3F000000F8F8888888FFFF8888880B
:10035600F8F80000808081C54C78303F2F6040401F
:10036600C181808090D27634FFFF3476D2F0FF8F41
:1003760008F8F808829ADE776372DE8E80C0733FD3
:100386003F73C0801010FFFF9090FEFE9292F2F233
:10039600929E9E8042C2FF7F81E07F1FFCFC474702
:1003A60044FCFC00404042CECC40E0BE9E82829E91
:1003B600BEA020200000003FBF98C8436F3C386EA7
:1003C60047C18080001717D5D557577D7D5757D51C
:1003D600D51717004040407F7F5555555555557FD9
:1003E6007F404040404042CECC00FCFCA4A42622E4
:1003F600A3E362000040603F3F785F57584D474790
:100406004D5850400000FEFE02F2F21212F2F202C5
:10041600FEFE000000007F7F2027272424272720B8
:100426007F7F00000000183C243C180000000000FC
:1004360000000000E0380C06020301010101010181
:100446000101010101010101010101010101010196
:100456000101010101010101010101010101010186
:10046600010302060C38E040404040404040404016
:10047600C000FF00000000000000000000000000B7
:100486000000000000000000000000000000000066
:100496000000000000000000000000000000000056
:1004A60000000000FF40C000000000000000FF0048
:1004B600FF00000000000000000000000000000037
:1004C6000000000000000000000000000000000026
:1004D6000000000000000000000000000000000016
:1004E6000000FF00FF0000F0FFF00000FF00FF002B
:1004F60000000000000000000000000000000000F6
:1005060000000000000000000000000000000000E5
:1005160000000000000000000000000000000000D5
:10052600FF00FF001CFFFFFF1C00FF00FF80000014
:1005360000000000000000000000000000000000B5
:1005460000000000000000000000000000000000A5
:100556000000000000000000000000000080FF70A6
:100566005F0000FFFFFF00005F700003060C081825
:100576001010101010101010101010101010101075
:100586001010101010101010101010101010101065
:100596001010101010101018080C16131808081058
:1005A60010180818101010080000000000000000C5
:1005B6000000000000000000000000F8F800000045
:1005C600000030333300000000100C06100C06004B
:1005D60000000000000000004040F840F840000025
:1005E600043E053F05040000007088FC083000004A
:1005F600001820FF211E0000F008F080700800009F
:1006060000211C031E211E0000F08870000000005F
:100616001F2027281F2110000000000000000000F6
:1006260080B0F07000000000000000F0FC0E020038
:100636000000000F3F70400000061EF8E0000000BA
:100646000060781F070000004040C0F0F0C0404046
:100656000202030F0F030202000000F0F000000088
:100666000101011F1F010101000202060400000032
:100676000000000000000000000000000000000074
:10068600010101010101010000000000000000005D
:10069600003030300000000000000000C0F83C0CC4
:1006A6000060783F07010000E0F0180818F0E0004D
:1006B6000F1F3020301F0F00001010F8F800000048
:1006C6000020203F3F2020000070780808F8F00046
:1006D60000303C2E233130000030388888F8700016
:1006E60000183820313F1E000080C060F8F8000076
:1006F600060705243F3F240400F8F8888888080088
:1007060000193921313F1F00E0F0988888981800B9
:100716000F1F3120313F1F0000383808E8F8180055
:100726000000003F3F00000070F8988898F87000BD
:100736001E3F2121313F1E00F0F8080818F8E0009E
:10074600313322323B1F07000000C0C0C00000004A
:100756000000303030000000000000808000000003
:10076600000080E060000000000080E070180800D3
:100776000001030E1C302000404040404040400035
:10078600040404040404040000083870C080000057
:100796000020381C060301007078080818F8F000DD
:1007A6000000303737010000C0F0F8E8E8F8F0E064
:1007B600071F3F2727371F0B0000E0F8F8E000006F
:1007C600203C3F23233F3C2008F8F88888F8700037
:1007D600203F3F20313F1E00E0F03808083838003F
:1007E6000F1F30202030100008F8F80818F0E0003D
:1007F600203F3F20301F0F0008F8F888E8F818005F
:10080600203F3F202333300008F8F888E8E8181026
:10081600203F3F2003030000C0F0380808383800A6
:10082600071F3820223E1E0208F8F80808F8F808C4
:10083600203F3F21213F3F20000808F8F808080024
:100846000020203F3F202000000808F8F808080094
:10085600C0C080FF7F00000008F8F8C8E838180814
:10086600203F3F21273E382008F8F8080000000006
:10087600203F3F202030300008F8F800F8F8080044
:10088600203F003F003F200008F8F8F8C8F8F808B5
:10089600203F3F231F3F3F00E0F0180818F0E0001C
:1008A6000F1F3020301F0F0008F8F80808F8F00076
:1008B600203F3F2101010000E0F0180818F0E00099
:1008C6000F1F3C247C7F4F0008F8F88888F87000DA
:1008D600203F3F21073E38200070F888081818008E
:1008E60000303021233F1E00181808F8F8081818A1
:1008F6000000203F3F20000008F8F80808F8F80834
:10090600001F3F20203F1F000878F88888F87808E5
:1009160000000F3F3F0F000008F8FCFCF8F8F8084D
:1009260000073F3F3F3F07000838F8E8E8F8180897
:1009360020303C2F2F3E38200838F8C8C8F8380831
:100946000000203F3F200000101808C8F8380800B3
:10095600303C2F2320301000000000FEFE02020073
:100966000000007F7F404000001CFCE0000000000B
:10097600000000031F7C6000000202FEFE00000073
:100986000040407F7F0000000000040606040000CF
:100996000000000000000000000000000000000051
:1009A600808080808080808010161E0E00000000EF
:1009B60000000000000000000000808080808000B1
:1009C600001D3D26223F3F2008F8F8808080000069
:1009D600003F3F21203F1F00000080808080800074
:1009E600001F3F31203111000000808088F8F80098
:1009F600001F3F21203F3F200000808080800000B4
:100A0600001F3F22223313008080F0F888981800D8
:100A160000203F3F20200000000080808080800072
:100A2600006BFF9497F3600008F8F88080808000E0
:100A3600203F3F21203F3F20008080989800000003
:100A46000020203F3F202000000080809898000072
:100A560000C0C080FF7F000008F8F880808080001A
:100A6600203F3F263F392000000808F8F800000024
:100A76000020203F3F202000808080808080808072
:100A8600203F3F203F3F203F808080808080800045
:100A9600203F3F2100203F3F0000808080800000F3
:100AA600001F3F31213F1F00808080808080000032
:100AB60080FFFFA1303F1F00000080808080800003
:100AC600001F3F21A0FFFF80808080808080800003
:100AD60020203F3F2121010000008080808080008F
:100AE60000333724243D1900008080E0E080800038
:100AF6000000001F3F202000808080008080800052
:100B0600003F3F20203F3F20808080808080808083
:100B160000031F3C3C1F03008080C0C08080808093
:100B2600000F3F3F3F3F0F00808080808080800025
:100B360020313F2E3F312000808080808080808061
:100B46008083CF7E3E0F0100008080808080800001
:080B56000021393C2733300077
:1026260060C0000000000000000000000000000084
:102636000000000000000000000000000000000094
:102646000000000000000000000000000000000084
:102656000000000000000000000000000000000074
:102666000000000000000000000000000000000064
:102676000000000000000000000000000000000054
:102686000000000000000000000000000000000044
:102696000000000000000000000000000000000034
:1026A6000000000000000000000000000000000024
:1026B6000000000000000000000000000000000014
:1026C6000000000000000000000000000000000004
:1026D60000000000000000000000000000000000F4
:1026E6000000000060C000C0000000000000000004
:1026F60000000000000000000000000000000000D4
:1027060000000000000000000000000000000000C3
:1027160000000000000000000000000000000000B3
:1027260000000000000000000000000000000000A3
:102736000000000000000000000000000000000093
:102746000000000000000000000000000000000083
:102756000000000000000000000000000000000073
:102766000000000000000000000000000000000063
:102776000000000000000000000000000000000053
:102786000000000000000000000000000000000043
:102796000000000000000000000000000000000033
:0827A60000000000000000002B
:040006007F057E00F4
:10000A00D3EF9400EE9400400F7D147C32DCFEDDC9
:08001A00FAEF1F70EB1E80E8F5
:0100220022BB
:103AC500D3EF9400EE94004007EF1F70F31E80F0D3
:013AD50022CE
:043B720075BB60229D
:10357900900213E0FF900212E04440FBE4FD123593
:0C35890095900216E044B8FBE4FD7F07BB
:10359500EF30E002C2C2EF30E102C291EF30E20249
:1035A500C292D2C6ED6004D2C58002C2C5C2C1AF07
:1035B500038F80C2C6D2C2D291D2927F017E000211
:0235C500000AFA
:07361500900253E0FF7D016C
:10361C007580FFEFB40104C2C2800EEFB40204C285
:10362C00918006EFB40402C292ED6004D2C5800210
:10363C00C2C5D2C100D2C600AC80C2C6C2C1D2C201
:0D364C00D291D2927F017E00123AC5AF04E8
:01365900224E
:0535C700900209EFF085
:1035CC007BFF7A007926123AA0E4FB900209E030E6
:1035DC00E009E4FD7F0112361CEFFB900209E0309C
:1035EC00E10AE4FD7F0212361CEB4FFB900209E06E
:1035FC0030E20AE4FD7F0412361CEB4FFB7F1E7E8B
:08360C000012000AEB20E7B8F0
:013614002293
:103AB300C2CA7F507E0012000AD2CA7FA07E0002D3
:023AC300000AF7
:103963007F071235C7E4FAEA12358EE4F9E4FB7DEA
:10397300017F0712359509E9B440F20AEAB408E772
:013983002221
:10387F00C2CB120006123AB37B3E123591120006EC
:10388F007BC01235911200061239631200067B3F7E
:0A389F001235917F057E0002000A39
:10365A007F071235C77B40E4FD7F011235957BBA9F
:10366A00E4FD7F01123595E4FAE4F97BFF7D017FE1
:10367A000112359509E9B440F27B40E4FD7F01125D
:10368A003595EA240344B8FBE4FD7F011235950A17
:04369A00EAB401D5B8
:01369E002209
:10369F007F071235C77B40E4FD7F021235957BBA59
:1036AF00E4FD7F02123595E4FAE4F97BFF7D017F9B
:1036BF000212359509E9B440F27B40E4FD7F021216
:1036CF003595EA240344B8FBE4FD7F021235950AD1
:0436DF00EAB401D573
:0136E30022C4
:102BEE0090020BEBF0A3EAF0A3E9F0900209EFF0EC
:032BFE00A3EDF054
:102C0100EF1425E0900209F0ED24FFFFE434FFFE0C
:102C1100EF7802CEC313CE13D8F9FF7007900210DC
:102C210004F08016EFB401089002107402F0800ADB
:102C3100EFB402069002107404F090020AE01454FA
:102C410003C454F0F0FE900210E0FFEE4440FBE4B8
:102C5100FD123595E0FF900209E044B8FBE4FD1256
:102C61003595E490020FF090020EE090021060188A
:102C7100E0FF90020BE0FBA3E475F00112161CA922
:102C8100F0FA121537F48015E0FF90020BE0FBA378
:102C9100E475F00112161CA9F0FA121537FB7D013B
:102CA10012359590020FE004F0E0C3941040B89003
:102CB1000210E0FF90020AE04440FBE4FD1235956A
:102CC100900210E0FF900209E00444B8FBE4FD1219
:102CD1003595E490020FF090020EE090021060181A
:102CE100E0FF90020BE0FBA3E475F00112161CA9B2
:102CF100F0FA121537F48015E0FF90020BE0FBA308
:102D0100E475F00112161CA9F0FA121537FB7D01CA
:0F2D110012359590020FE004F0E0C3941040B823
:012D20002290
:1029620075F010A424AEF9740335F0FA7BFFE0FF92
:0A297200A3E0FD14F0E4900229F048
:10297C00900226EBF0A3EAF0A3E9F0900224EFF02A
:03298C00A3EDF0C8
:10298F00EF1425E0900224F0ED24FFFFE434FFFE66
:10299F00EF7803CEC313CE13D8F9FF700790022B35
:1029AF0004F08016EFB4010890022B7402F0800A35
:1029BF00EFB4020690022B7404F0900225E0145439
:1029CF000775F008A4F0FE90022BE0FFEE4440FBE9
:1029DF00E4FD123595E0FF900224E044B8FBE4FDDE
:1029EF00123595E490022AF0900229E090022B60B4
:1029FF0018E0FF900226E0FBA3E475F00112161C0D
:102A0F00A9F0FA121537F48015E0FF900226E0FBCB
:102A1F00A3E475F00112161CA9F0FA121537FB7D0D
:102A2F000112359590022AE004F0E0C3940840B8F3
:102A3F0090022BE0FF900225E04440FBE4FD1235AD
:102A4F009590022BE0FF900224E00444B8FBE4FDD4
:102A5F00123595E490022AF0900229E090022B6043
:102A6F0018E0FF900226E0FBA3E475F00112161C9C
:102A7F00A9F0FA121537F48015E0FF900226E0FB5B
:102A8F00A3E475F00112161CA9F0FA121537FB7D9D
:102A9F000112359590022AE004F0E0C3940840B883
:012AAF002204
:1034C70090020CEFF0A3EDF0A3EBF0A3EAF0A3E971
:1034D700F090020EE0FBA3E0FAA3E0F912153760C3
:1034E7003E75F010A424AEF9740335F0FA7BFF9013
:1034F700020CE0FFA3E0FD900211E0122978900290
:103507000DE004F0E0D3941840097401F090020C28
:10351700E004F090020FE475F00112160680B22263
:0827F900900209EFF0A3EDF0DE
:10280100780F7C027D017BFF7A0079367E007F0A9A
:10281100121511E4900219F0A37409F0E4A3F0A3D6
:10282100F0A312164C0000000190020BE0FCA3E0A3
:10283100FDA3E0FEA3E0FFEC33501690021B7401F0
:10284100F090020BA3A3A3E012163290020B121612
:102851004090020BE0FCA3E0FDA3E0FEA3E0FFEC4F
:102861004D4E4F6074E47B0AFAF9F890020BA3A372
:10287100A3E0123728AC00AD01AE02AF0390021DF8
:1028810012164090021DA3A3A3E02430FF90021969
:10289100E0FE04F0740F2EF582E43402F583EFF0CC
:1028A10090020BE0FCA3E0FDA3E0FEA3E0FFE47BCC
:1028B1000AFAF9F812372890020B12164090021901
:1028C100E06402708CE0FF04F0740F2FF582E434B1
:1028D10002F583742EF0022852900219E0D394037A
:1028E100502AE0FF04F0740F2FF582E43402F583DF
:1028F1007430F0900219E0B402DFFF04F0740F2F7E
:10290100F582E43402F583742EF080CD90021BE051
:102911006014900219E0FF04F0740F2FF582E43483
:1029210002F583742DF0E490021AF0900219E0FF91
:10293100A3E0FEC39F5029740F2EF582E43402F503
:1029410083E090020912296290020AE0700A900263
:1029510009E004F0A37418F090021AE004F080CBAF
:012961002253
:082E410090020CEFF0A3EDF08C
:102E490078127C027D017BFF7A0079407E007F0A3F
:102E5900121511E490021CF0A37409F0E4A3F0A385
:102E6900F0A312164C0000000190020EE0FCA3E052
:102E7900FDA3E0FEA3E0FFEC33501290021E7401A3
:102E8900F090020EA3A3A3E0121632806690020E00
:102E9900E0FCA3E0FDA3E0FEA3E0FFEC4D4E4F6094
:102EA9005AE47B0AFAF9F890020EA3A3A3E01237B9
:102EB90028AC00AD01AE02AF03900220121640907B
:102EC9000220A3A3A3E02430FF90021CE0FE04F03B
:102ED90074122EF582E43402F583EFF090020EE0CD
:102EE900FCA3E0FDA3E0FEA3E0FFE47B0AFAF9F806
:102EF90012372890020E121640809290021EE0604E
:102F09001490021CE0FF04F074122FF582E43402DD
:102F1900F583742DF0E490021DF090021CE0FFA3EC
:102F2900E0FEC39F502974122EF582E43402F58322
:102F3900E090020C12296290020DE0700A90020CD6
:0F2F4900E004F0A37418F090021DE004F080CBB8
:012F58002256
:0A2AB00090020AEDF0AC07A3EBF072
:102ABA00E4900216F0EB24FFFFE434FFFEEF780304
:102ACA00CEC313CE13D8F90490020BF0EC24FFFF07
:102ADA00E434FFFEEF7803CEC313CE13D8F9900285
:102AEA0012F090020AE0FF14543F900213F0FDEF37
:102AFA0024FFFFE434FFFEEF7806CEC313CE13D8CB
:102B0A00F9FF7401A807088002C333D8FCFF9002BA
:102B1A0014F0900216F0ED4440FBE4FD1235959056
:102B2A00021212358DE4900210F090020BE0FF9031
:102B3A000210E0C39F4003022BEDE4A3F090020CC5
:102B4A00E0FF900211E0FEC39F506AEEFF90020A76
:102B5A00E02FFFE433CF24FFCF34FFFEEF7806CE19
:102B6A00C313CE13D8F975F00384AFF07401A80724
:102B7A00088002C333D8FCFF900215F0A3E06F600F
:102B8A000E900215E0FFA3F07B40E4FD123595900C
:102B9A000215E0FF90020DE0FBA3E475F0011216A6
:102BAA001CA9F0FA121537FB7D0112359590021116
:102BBA00E004F08088900214E0FF900216F0900280
:102BCA0013E04440FBE4FD123595900210E0FF90BB
:102BDA000212E02F54070412358E900210E004F01E
:032BEA00022B3487
:012BED0022C5
:0F245300900249EFF090024BEBF090024AEDF04F
:10246200E4900255F0ED14543F900252F0FCED243A
:10247200FFFFE434FFFEEF7806CEC313CE13D8F984
:10248200FF7401A807088002C333D8FCFF900253EF
:10249200F0900255F0EC4440FBE4FD1235959002B9
:1024A20049E01412358E123615E4900250F0900273
:1024B2004BE0FF900250E0C39F4003022583E4A358
:1024C200F090024CE0FF900251E0FEC39F400302F5
:1024D2002553EEFF90024AE02FFFE433CF24FFCFD3
:1024E20034FFFEEF7806CEC313CE13D8F975F0038E
:1024F20084AFF07401A807088002C333D8FCFF90B0
:102502000254F0A3E06F600E900254E0FFA3F07B50
:1025120040E4FD123595900254123618AD07900230
:102522004CE0FF900250E08FF0A4FFA3E07A002F6E
:10253200FFEA35F0FE90024DE0FBA3E0FAA3E0F9DA
:102542008F828E83ED12158F900251E004F00224E7
:10255200C3900253E0FF900255F0900252E04440D3
:10256200FBE4FD123595900250E0FF900249E02F06
:10257200540712358E123615900250E004F00224F0
:10258200B07F071235C7900252E04440FBE4FD7F62
:1025920002123595900249E01444B8FBE4FD7F0233
:1025A200123595E4900250F090024BE0FF900250F9
:1025B200E0C39F506EE4A3F090024CE0FF90025102
:1025C200E0FDC39F5031900250E08FF0A47C002DBB
:1025D200FFEC35F0FE90024DE0FBA3E0FAA3E0F938
:1025E2008F828E83121550FB7D017F0212359590EA
:1025F2000251E004F080C1900252E04440FBE4FD4D
:102602007F02123595900250E0FF900249E02F546C
:102612000744B8FBE4FD7F02123595900250E004B6
:03262200F08085C0
:012625002292
:071AD00090020DEDF0AC07E0
:101AD700E4900215F0EC24FFFFE434FFFEEF7803F7
:101AE700CEC313CE13D8F9900216F0EC1454079016
:101AF7000219F0EC2B145407A3F0900219E0FDFF34
:101B0700EB2FFFE433FEEF7803CEC313CE13D8F9E0
:101B1700FFED2B540760047E0180027E00EE2FFF4D
:101B2700900218F0900216E02F14A3F090020DE037
:101B3700FD14543F900212F0ED24FFFFE434FFFE42
:101B4700EF7806CEC313CE13D8F9FF7401A80708A0
:101B57008002C333D8FC900213F0900215F0900274
:101B670019E07003021C28123579900213123618F7
:101B7700E4900210F090020FE0FFA3E0FEC39F4045
:101B870003021C20EEFF90020DE02FFFE433CF2469
:101B9700FFCF34FFFEEF7806CEC313CE13D8F97507
:101BA700F00384900211E5F0F0E0FF7401A8070844
:101BB7008002C333D8FCFF900214F0A3E06F600EDD
:101BC700900214E0FFA3F07B40E4FD1235959002EC
:101BD70014123618900210E0FE2400F582E4340057
:101BE700F583EFF074002EF582E43400F583C083AB
:101BF700C082E0FF900219E0FEC374079EFE747F67
:101C0700A806088003A2E713D8FB5FD082D083F031
:101C1700900210E004F0021B7C900213E090021582
:101C2700F090021AE07003021CF9900213E0FF9093
:101C37000212E04440FBE4FD12359590021712357D
:101C47008D900213123618E4900210F090020FE004
:101C5700FFA3E0FEC39F4003021CF1EEFF90020DBD
:101C6700E02FFFE433CF24FFCF34FFFEEF7806CE1B
:101C7700C313CE13D8F975F00384900211E5F0F081
:101C8700E0FF7401A807088002C333D8FCFF900265
:101C970014F0A3E06F600E900214E0FFA3F07B4006
:101CA700E4FD123595900214123618900210E0FEEA
:101CB70024C0F582E43400F583EFF074C02EF5827A
:101CC700E43400F583C083C082E0FF90021AE0FE8F
:101CD70074FFA806088002C333D8FC5FD082D08384
:101CE700F0900210E004F0021C53900213E09002FF
:101CF70015F0123579E4FA900218E0FFEAC39F4025
:101D070003021E15E4900210F090020FE0FFA3E01B
:101D1700FEC39F4003021DF1EEFF90020DE02FFF6F
:101D2700E433CF24FFCF34FFFEEF7806CEC313CEC4
:101D370013D8F975F00384900211E5F0F0E0FF7411
:101D470001A807088002C333D8FCFF900214F0A350
:101D5700E06F600E900214E0FFA3F07B40E4FD12F9
:101D67003595900219E0F9602EA3E0602A900218D9
:101D7700E0B40123900214E0FF900210E0FE24C0BB
:101D8700F582E43400F583E0FD74002EF582E43437
:101D970000F583E04D8044E96018EA70159002145D
:101DA700E0FF900210E02400F582E43400F583E0C0
:101DB700802990021AE0601D900218E014B5021500
:101DC700900214E0FF900210E024C0F582E4340092
:101DD700F583E08006900214E0FFE4FB7D011235F5
:101DE70095900210E004F0021D10900213E0FF909E
:101DF7000215F0900212E04440FBE4FD1235959085
:0E1E07000216E02A54070412358E0A021CFE51
:011E150022AA
:07174B0090020DEDF0AC0768
:10175200E4900215F090021BF0EC24FFFFE434FF4A
:10176200FEEF7803CEC313CE13D8F9900216F0EC35
:10177200145407900219F0EC2B145407A3F09002B2
:1017820019E0FDFFEB2FFFE433FEEF7803CEC31326
:10179200CE13D8F9FFED2B540760047E0180027E40
:1017A20000EE2FFF900218F0900216E02F14A3F023
:1017B20090020DE0FD14543F900212F0ED24FFFF61
:1017C200E434FFFEEF7806CEC313CE13D8F9FF74CC
:1017D20001A807088002C333D8FC900213F09002DC
:1017E20015F0900219E070030218BB900213E0FF9B
:1017F200900212E04440FBE4FD123595900216126D
:10180200358D900213123618E4900210F090020FF8
:10181200E0FFA3E0FEC39F40030218B3EEFF900275
:101822000DE02FFFE433CF24FFCF34FFFEEF780625
:10183200CEC313CE13D8F975F00384900211E5F0EC
:10184200F0E0FF7401A807088002C333D8FCFF90C0
:101852000214F0A3E06F600E900214E0FFA3F07B8D
:1018620040E4FD123595900214123618900210E0F1
:10187200FE2400F582E43400F583EFF074002EF5C7
:1018820082E43400F583C083C082E0FF900219E055
:10189200FEC374079EFE7480A806088003A2E713A5
:1018A200D8FB4FD082D083F0900210E004F00218EF
:1018B2000F900213E0900215F090021AE0700302FA
:1018C200199E900213E0FF900212E04440FBE4FDF7
:1018D20012359590021712358D900213123618E4C4
:1018E200900210F090020FE0FFA3E0FEC39F4003BE
:1018F200021996EEFF90020DE02FFFE433CF24FF92
:10190200CF34FFFEEF7806CEC313CE13D8F975F0AD
:101912000384900211E5F0F0E0FF7401A80708804B
:1019220002C333D8FCFF900214F0A3E06F600E9064
:101932000214E0FFA3F07B40E4FD123595900214FF
:10194200123618900210E024C0F582E43400F583C8
:10195200EFF01D90021AE0FEEDC39E500AA3E025AF
:10196200E04401F00D80EC900210E024C0F582E426
:101972003400F583C083C082E0FF90021BE0FEEFDB
:101982004ED082D083F0E490021BF0900210E0046B
:10199200F00218E6900213E0900215F0900213E0B4
:1019A200FF900212E04440FBE4FD123595900216CE
:1019B20012358DE4FA900218E0FFEAC39F40030259
:1019C2001ACFE4900210F090020FE0FFA3E0FEC3F2
:1019D2009F4003021AABEEFF90020DE02FFFE433AB
:1019E200CF24FFCF34FFFEEF7806CEC313CE13D839
:1019F200F975F00384900211E5F0F0E0FF7401A89C
:101A020007088002C333D8FCFF900214F0A3E06FF2
:101A1200600E900214E0FFA3F07B40E4FD123595C6
:101A2200900219E0F9602EA3E0602A900218E0B457
:101A32000123900214E0FF900210E0FE24C0F58220
:101A4200E43400F583E0FD74002EF582E43400F501
:101A520083E05D803CE96018EA7015900214E0FFB3
:101A6200900210E02400F582E43400F583E0802146
:101A720090021AE0601E900218E014B5021690025D
:101A820014E0FF900210E024C0F582E43400F583F4
:101A9200E0FB8007900214E0FF7BFF7D0112359589
:101AA200900210E004F00219C9900213E0FF9002C4
:101AB20015F0900212E04440FBE4FD1235959002CD
:0D1AC20016E02A54070412358E0A0219B7E7
:011ACF0022F4
:103AD600E4F5CF75CDC030010475CED02275CE4049
:013AE60022BD
:0D3AF6008FCFE5CD30E7FB75CDC0AFCF22FF
:103A8C00438920759840758DDC858D8BE4F587D244
:043A9C00ACD28E22F8
:083B4C008F993099FDC2992206
:0237F000AE0722
:1037F200EEC4540FFDC36480948AED5004243080DB
:103802000424F62461FF123B4CEE540FFDC3648086
:10381200948AED50042430800424F62461FF123B84
:013822004C59
:013823002282
:073B5B00EF2430FF023B4C98
:103AA000121537FF600C123B4C740129F9E43AFA05
:033AB00080EE2283
:0D38240090026DEBF0A3EAF0A3E9F0AE070F
:10383100E4FDEDC39E501A90026DE0FBA3E0FAA3F4
:10384100E0F98D82758300121550FF123B4C0D80FB
:01385100E195
:013852002253
:030023000239C2DD
:0639C200C0E0C083C082DA
:0F39C80030980CC298C2AF900203E599F0D2AFCD
:0739D700D082D083D0E03262
:013B7600222C
:063B62000000000000223B
:053B6800D2B7D2B62225
:063A63001239841239AA99
:0F3A6900D2B6D2B7123B62C2B6123B62C2B722CC
:0C3B1D00C2B6D2B7123B62D2B6023B62C5
:0639A400123A6912398499
:1039AA00D2B7123B6230B608C2B7123B627F00221E
:0839BA00C2B7123B627F01223B
:0C3B2900C2B6D2B7123B62C2B7023B62C8
:0C3B3500D2B6D2B7123B62C2B7023B62AC
:10398400E4FEEF30E703D38001C392B6EF25E0FFF6
:0F399400D2B7123B62C2B7123B620EEEB408E329
:0139A3002201
:10385300E4FED2B6FDEE25E0FED2B7123B6230B6EF
:10386300034401FEC2B7123B620DEDB408E7EF60FB
:0B38730005123B298003123B35AF0615
:01387E002227
:103A2F001239A4AC07AF051239841239AAAF0312A9
:0A3A3F0039841239AA123B1DAF04AE
:013A4900225A
:023A4A00AC07C7
:103A4C001239A4AF05123A63EC04FF12398412390F
:063A5C00AAE4FF1238533A
:013A62002241
:10352700AD071239A4EF7006123B1D7F01229002EE
:103537005AE0FF123A63ED04FF1239841239AA9058
:10354700025BE0FF6026B4010BE4FF123853EF1271
:10355700157D80107F01123853EF12157D740129F4
:10356700F9E43AFA90025BE014F080D3123B1D7F36
:02357700002230
:1037AF001239A4EF7002801E900260E0FF1239847C
:1037BF001239AA900261E06022121537FF12398484
:1037CF001239AAEF7006123B1D7F0122740129F9ED
:1037DF00E43AFA900261E014F080D8123B1D7F00AA
:0137EF0022B7
:1027AE004C023D0000000000000000000000004C44
:1027BE00022F000000000000000000000000410297
:0C27CE003B0041023C0043022C0102626F
:013B7700222B
:013B7800222A
:102D210090023FE064106003022DDEA3E060030225
:102D31002DDEA3E0FF90022CE0FBA3E0FAA3E0F973
:102D4100EF12157D900242E0FF90022CE0FBA3E020
:102D5100FAA3E0F9900001EF12158F900243E09081
:102D6100000212158F900244E090000312158F901B
:102D71000245E090000412158F900246E090000594
:102D810012158F9002317411F0E4A3F012153790EF
:102D91000233F0900001121550900234F0900002BD
:102DA100121550900235F090000312155090023622
:102DB100F0900004121550900237F09000051215A2
:102DC10050900238F090022F7455F0A374AAF07B52
:102DD100017A02792F7F0C1234667F012290023F23
:102DE100E064117058A3E07054A3E0FF90022CE05E
:102DF100FBA3E0FAA3E0F9EF12157D900242E0FF98
:102E010090022CE0FBA3E0FAA3E0F9900001EF129D
:102E1100158F900243E090000212158F900244E05A
:102E210090000312158F900245E090000412158F57
:102E3100900246E090000512158F7F02227F00224A
:0F3AE70041444320646174613A0D0A000D0A00E6
:0927DA0046026261616262636300
:1038A900900264EFF0A3EDF07BFF7A3A79E7123AE0
:1038B900A0900264E0FF1237F0900265E0FF123732
:0A38C900F07BFF7A3A79F3023AA08F
:100B5E003A004300484F4D450025000000000000BC
:100B6E000000000000000000000000000000000077
:100B7E000000000000000000000000000000000067
:100B8E000000000000000000000000000000000057
:100B9E000000000000000000000000000000000047
:100BAE000000000000000000000000000000000037
:100BBE000000000000000000000000000000000027
:100BCE000000000000000000000000000000000017
:100BDE000000000000000000000000000000F0FF18
:100BEE00F0001CFFFFFF1C00FFFFFF00FF7F3F3FD9
:100BFE003F3F3F3F3F3F3F3F3F7FFFFF3F1F1F1F97
:100C0E001F1F7FFFFFFFFF7F7FFFFFFFFFFFFFFF26
:100C1E00FFFF7F7F3F7F7FFFFFFFFFFFFFFFFFFF96
:100C2E00FFFFFF3F1F1F1F1F1F3FFFFFFFFFFFFFA6
:100C3E00FFFFFFFFFFFFFFFFFFFFFFFFFFFFFFFFB6
:100C4E00FFFFFFFFFFFF3F1F1F1F1F1F3FFFFFFF86
:100C5E00FF3F3F3F3F3F3F3F3F3F3F3F3F3F3FFF16
:100C6E00FFFFFFFFFFFFFFFFFFFFFFFFFFFF7F3FC6
:100C7E003F1F1F1F1F1F1F3F3F7FFFFFFFFFFFFF76
:100C8E00FFFFFFFFFFFFFFFFFFFFFFFF3F1F1F1FC6
:100C9E001F1FBF7F3F1F1F1F1F3FFFFFFFFFFFFFD6
:100CAE00FFFFFFFFFFFFFFFFFFFFFFF8F070707009
:100CBE00707000000000000000FF00000000000047
:100CCE00000F030100000080E0FBFFFFFFFFFFF9B4
:100CDE00F0E0E0C080800081C3FF99818181818135
:100CEE00000000000000000081818181818181E38C
:100CFE00FFFFFFFFFFFFFFFFFFFFFFFFFFFFFFC134
:100D0E00C0800000000000C0203010102061C17EA5
:100D1E00000000008C8C8C8C000000000000FFFF97
:100D2E00FF7F1F0F0F0707030101000000E01008EF
:100D3E000808081830C00000000001030307070F61
:100D4E000F1FFFFFFFFFFF3F0F01000000C0300C21
:100D5E0003000000000000000101010181010101FA
:100D6E000101010183FFFFFFFFFF000000000000F3
:100D7E00101010107E8381810000000080406060A2
:100D8E00206040808181818181E7FFFFFFE1C0C04B
:100D9E00800000010307CFFFC181818181818080A6
:100DAE00808080808080818181818181C1FFFFFF71
:100DBE00FFFFFFFFFFFFFFFFFFFFFFFFF7C38100F6
:100DCE000080000001070C1830E0C0E0E09B0C0032
:100DDE00000031313131000000000000FFFFFFFF45
:100DEE00FCF8F8C4020202020202028382808080B2
:100DFE008080C00103020202020202C6FCF8F8FC67
:100E0E00FFFFFF03000000000000000306C43808C7
:100E1E00080C0603078C70000018FF06040C0C0C5F
:100E2E000C3EFFFFFFFFFFFFFC7C7C7CFC7C000088
:100E3E000000000000FF000000000F3020202040C6
:100E4E008001030F1F3F7FFFFFFFFFFF7F3F1F0F3D
:100E5E00030101010383E739000000000000E0E018
:100E6E00E0E0E000000000000001FFFFFFFFEF8365
:100E7E00010101010103CFFFFFFFFF7F0F070303F6
:100E8E00020204FE06030F73C18000000102040C6F
:100E9E00FCFCC40002020204041E7FFFFFFFFF0FD2
:100EAE00030101010103FF0101083F61C180000739
:100EBE000C081090F0F00804030303070F3FFFFF28
:100ECE00FFFFFFFEFE00000000384681808080801C
:100EDE00C0607C4300000000010E70C080000080E6
:100EEE0081EFFFFFFFF9E0E0E0C0C0C0C0C0E0E06E
:100EFE00E0F0FCFFE0C0C0E0E0E0E0F0F0F8FFF86A
:100F0E00F0E0E0E0F0F9FFFFFFF0E0E0C0E0E0F03D
:100F1E00F8FCFEFFFFE0C0C0C0C0C0C0C0C0C0C073
:100F2E00C0C0C0C0C0C0C0E0FFFFFFFFFFFFFFFF9B
:100F3E00FCFEFEFFFFFFFFFFF9F0E0E0E0E0F0F85F
:100F4E00FFF9E0C0C0C0C0C3C3C6C6C6C3C3C1C0DC
:100F5E00C1E7FCF8F0F0F0F8F8FFFFFFF0E0E0E09A
:100F6E00E0E0F0F8FFF0E0C0C0C0C0C1C1C2C2C234
:100F7E00C3C1C0C0E7FCF0F0E0F0F0F0FFFFFFFFF0
:100F8E00FFFFFFE0C0C0C0C0C0E0FFFFFFFFE0C03A
:100F9E00C0C0C0C0C0C0C0E0F0FFFFFFFFFFFFFF3A
:100FAE00FFFFFF1F0F0F0F0F0F0F0F0F0F0F0F0F63
:100FBE000F0F0F0F0F0F03010101030303070707A5
:100FCE000F0F0F1F1F1F3F3F3F7F7F7FFFFFFFFF53
:100FDE00FFFFFF3F1F1F1F1F1F1F1F1F1F1F1F1F53
:100FEE001F1F1F1F1F1F070303030707070F0F0FE7
:100FFE001F1F1F3F3F3F7F7F7FFFFFFFFFFFFFFF53
:10100E00FFFFFFFF3F1F1F1F1F1F1F1F1F1F1F1F42
:10101E001F1F1F1F1F1F1F070303030707070F0FA6
:10102E000F1F1F1F3F3F3F7F7F7FFFFFFFFFFFFF12
:10103E00FFFFFFFF3F1F1F1F1F1F1F1F1F1F1F1F12
:10104E001F1F1F1F1F1F1F070303030707070F0F76
:10105E000F1F1F1F3F3F3F7F7F7FFFFFFFFFFFFFE2
:10106E00FF800000000000000000000000000000F3
:10107E000000000000000000000000000000000062
:10108E0000808080C0C0C0E0E0E0F0F1FFFFFFFF15
:10109E00FF00000000000000000000000000000043
:1010AE000000000000000000000000000000000032
:1010BE0000000000808080C0C0C0E1E3FFFFFFFFA2
:1010CE00FFFF000000000000000000000000000014
:1010DE000000000000000000000000000000000002
:1010EE000000000000808080C0C0C0E1E3FFFFFF71
:1010FE00FFFF0000000000000000000000000000E4
:10110E0000000000000000000000000000000000D1
:10111E000000000000808080C0C0C0E1E3FF3F3FC0
:10112E003F3F3F3F3F3F3F3F3F3F3F3F3F3F3F3FC1
:10113E003F3F3C3838383C3C3C3E3E3E3F3F3F3FD5
:10114E003F3F3F3F3F3F3F3F3F3F3F3F3F3F3F3FA1
:10115E003E3E3E3E3E3E3E3E3E3E3E3E3E3E3E3EA1
:10116E003E3E383030303838383C3C3C3E3E3E3FD8
:10117E003F3F3F3F3F3F3F3F3F3F3F3F3F3F3F3F71
:10118E003F3E3E3E3E3E3E3E3E3E3E3E3E3E3E3E70
:10119E003E3E3E383030303838383C3C3C3E3E3EA9
:1011AE003F3F3F3F3F3F3F3F3F3F3F3F3F3F3F3F41
:1011BE003F3E3E3E3E3E3E3E3E3E3E3E3E3E3E3E40
:1011CE003E3E3E383030303838383C3C3C3E3E3E79
:0C11DE003F3F3F3F3F3F3F3F3F3F3F3F11
:0E27E300C1004102700041027100410272000B
:05340400900180EFF0D3
:1034090078817C017D017BFF7A0B79697E007F825F
:10341900121511900180E0602FB20030001B90025C
:103429000C7405F0A374FFF0A3740BF0A374EBF014
:103439007B187D377F11022AB090020F7405F07B4B
:10344900187D377F11021AD030001190020F7405D0
:0C345900F07B187D377F11121AD0C200E2
:013465002244
:10225B0090020C743EF0A374FFF0A37404F0A3740B
:10226B003AF07B2D7D017F01122AB07BFF7A00793A
:10227B00CAE490020EF07D057F01122BEE7BFF7AF4
:10228B000079EAE490020EF07D067F01122BEE7BC3
:10229B00FF7A0179EAE490020EF07D077F01122BA1
:1022AB00EE7BFF7A02790AE490020EF07D087F0143
:1022BB00122BEE7BFF7A02792AE490020EF07D0955
:1022CB007F01122BEE7BFF7A02794AE490020EF02B
:1022DB007D0A7F01122BEE7BFF7A02796AE4900272
:1022EB000EF07D0B7F01122BEE7BFF7A02798AE4D5
:1022FB0090020EF07D0C7F01122BEE7BFF7A0079A2
:10230B004AE490020EF07D057F02122BEE7BFF7AE2
:10231B0000796AE490020EF07D067F02122BEE7BB1
:10232B00FF7A00798AE490020EF07D077F02122B70
:10233B00EE7BFF7A0079AAE490020EF07D087F0213
:10234B00122BEE7BFF7A0B795EE4900211F07D117C
:10235B007F021234C790020B12164C00000C997DB1
:10236B00167F021227F97BFF7A04792AE49002295F
:10237B00F07D177F0212297C7BFF7A0B7960E4904A
:10238B000211F07D187F021234C77BFF7A0279AA03
:10239B00E490020EF07D057F03122BEE7BFF7A0299
:1023AB0079CAE490020EF07D067F03122BEE7BFFC1
:1023BB007A0B795EE4900211F07D117F031234C722
:1023CB007BFF7A0279EAE490020EF07D0A7F03121A
:1023DB002BEE7BFF7A03790AE490020EF07D0B7FE4
:1023EB0003122BEE7BFF7A03792A90020E7401F015
:1023FB007D027F04122BEE7BFF7A03794A90020E4B
:10240B007401F07D037F04122BEE7BFF7A0379AA14
:10241B0090020E7401F07D067F04122BEE7BFF7A87
:10242B000379CA90020E7401F07D077F04122BEE24
:10243B007BFF7A0B79629002117401F07D127F049D
:08244B001234C77F32021E1695
:051E1600900209EFF04D
:101E1B00E4A3F0AC07EC12138C7BF67A28791C78D0
:101E2B00401212E5E4FBFA7980783F1211F112139C
:101E3B00C0900271E0FEC3EF9E900270F0C364800D
:101E4B009480500D90020A7401F0900270E0F4043B
:101E5B00F0E490020BF0900270E0FF3395E0FE90FF
:101E6B00020BE0C39FEE6480F87480984003021F5E
:101E7B00FD90020AE0FF9002716005E014F0800310
:101E8B00E004F0900271E024FE604A14606B147061
:101E9B0003021F2824DE7003021F4C147003021F61
:101EAB006F147003021F91147003021FB324286078
:101EBB0003021FC1EF600F90020F742BF07B017DAB
:101ECB00057F2A021FDB90020F7429F07B017D0630
:101EDB007F2B021FF190020AE0600F90020F742D0E
:101EEB00F07B017D047F29021FDB90020F742BF026
:101EFB007B017D057F2A021FF190020AE0600F90A3
:101F0B00020F742DF07B017D047F28021FDB9002F2
:101F1B000F742DF07B017D047F29021FF190020AC3
:101F2B00E0600F90020F742FF07B017D037F27027F
:101F3B001FDB90020F742DF07B017D047F28021FA5
:101F4B00F190020AE0600E90020F742DF07B017D80
:101F5B00047F05807B90020F742DF07B017D047F45
:101F6B0006021FF190020AE0600E90020F742BF034
:101F7B007B017D057F04805890020F742DF07B014F
:101F8B007D047F05806090020AE0600E90020F7462
:101F9B0029F07B017D067F03803690020F742BF0B6
:101FAB007B017D057F04803E90020F7429F07B013D
:101FBB007D067F03803090020AE09002716016E08C
:101FCB00FFC3742B9FFF90020F742FF07B017D03D7
:101FDB00121AD08014E0FFC3742C9FFF90020F7471
:101FEB002FF07B017D0312174B90020BE004F002E4
:101FFB001E61900209E0FF3395E0FEFDFC90020E9E
:10200B001216407D047F02122E417BFF7A0B7967FB
:10201B00E4900211F07D057F021234C7900209E0B3
:10202B00FFB4631E900272E0FEC3EF9EC364809404
:10203B0080500F90020F7408F07B107D097F1112F6
:0A204B00174B900209E0900272F0BA
:012055002268
:10376C0076616C696420646174612072656365695B
:10377C007665642E0D0A0041444320646174613AFD
:10378C000D0A000D0A00504F5320646174613A0D0C
:10379C000A0049535220636F6D706C657465642E1A
:0337AC000D0A0003
:0727F100440269616263000C
:0C3B03007FB27EE67D0CDDFEDEFADFF610
:013B0F002293
:0C3B10007FD97EAB7D49DDFEDEFADFF6DA
:013B1C002286
:053B6D00D288D2A8225D
:10302B00E4900207F0A3F0123B10438E40123B6D6D
:10303B00123A8CD201123AD6123B68123B721238FA
:10304B007F123B101238D31231B11239F9D2AF12B1
:10305B00225B9002317410F0E4A3F090022F7455B0
:10306B00F0A374AAF07B017A02792F7F0C123466DD
:10307B0090023BE06062E4F0122D21BF02097BFF5E
:10308B007A37796C123AA07BFF7A377983123AA0A0
:10309B00900264E0FF1237F0900265E0FF1237F008
:1030AB007BFF7A37798F123AA07BFF7A37799212AE
:1030BB003AA0900267E0FF1237F07BFF7A37798FE7
:1030CB00123AA0900262E0FEA3E0FDEDFF90020732
:1030DB00EEF0A3EFF0123388123B101238D3C2A6D6
:0830EB00123B10D2A602305D79
:10338800900209EEF0A3EFF07C277D101215B11220
:103398003B5B900209E0FEA3E0FF7C037DE8121589
:1033A800B17C007D0A1215B1AF05123B5B90020992
:1033B800E0FEA3E0FF7C007D641215B17C007D0A6D
:1033C8001215B1AF05123B5B7F2E123B4C900209E0
:1033D800E0FEA3E0FF7C007D0A1215B17C007D0AA7
:1033E8001215B1AF05123B5B900209E0FEA3E0FFA6
:0C33F8007C007D0A1215B1AF05023B5BA2
:030003000236E4DE
:1036E400C0E0C0F0C083C082C0D075D000C000C0AC
:1036F40001C002C003C004C005C006C00712326F77
:103704007BFF7A37799E123AA0D007D006D005D035
:1037140004D003D002D001D000D0D0D082D083D046
:04372400F0D0E032CF
:1011EA0002142CE86480F8E933E83360110460F0F3
:1011FA00ED33EC337009E8FCE9FDEAFEEBFF22046B
:10120A0060DED3EB9FEA9EE99DE8C2E78CF0C2F765
:10121A0095F0400CE8CCF8E9CDF9EACEFAEBCFFB31
:10122A001213F785D0F05804700320D5B3E8047080
:10123A00075002B2D502143692D5EC0460F7E4CC1A
:10124A00C0E0C398F8603B94186008400DD0E0FBFA
:10125A0002140EE4FBFAC9FC8028E830E406E4C96B
:10126A00FBE4CAFCE830E305E4C9CACBFCE854074E
:10127A006010F8C3E913F9EA13FAEB13FBEC13FC59
:10128A00D8F130F52FC3E49CFCEF9BFFEE9AFEEDFC
:10129A0099FDD0E0FBEF4E4D4C701222DB03021495
:1012AA0033EC2CFCEF33FFEE33FEED33FDED30E78C
:1012BA00EB02140EEF2BFFEE3AFEED39FDD0E0FB08
:1012CA0050130BBB0003021436ED13FDEE13FEEFB1
:0812DA0013FFEC13FC02140EDB
:1012E200021436EC5D046005E85904700302142C04
:1012F2001213F7580460F6EC4860F2EC7004FDFE3D
:10130200FF22C860DB2481C85009C39860025006DE
:101312000214339850CAF582E9294B4A7005AB8210
:1013220002142275F0007C1A7880C3EF9BEE9AEDCE
:1013320099400DC3EF9BFFEE9AFEED99FDE842F056
:10134200DC23ACF0D0E0FFD0E0FED0E0FDAB8220A9
:10135200E7101BEB60BAEC2CFCEF33FFEE33FEED33
:1013620033FD02140EE803F830E705C0F075F00013
:10137200EF2FFFEE33FEED33FD40B830E7C280AA17
:1013820075F020800E75F010800575F0087D007EE6
:10139200007F003392D530D503121632EC33401061
:1013A200EF33FFEE33FEED33FDEC33FCD5F0ED22EF
:0E13B200E5F0247EA2D513CC92E7CDCEFF222B
:1013C000EDD2E7CD33EC3392D524814006E4FFFE25
:1013D000FDFC22FCE4CFCECDCC24E0501174FF8084
:1013E000EDC3CC13CCCD13CDCE13CECF13CF047021
:0713F000F030D5DE021632D9
:1013F700E9D2E7C933E833F892D5EDD2E7CD33EC3C
:0714070033FC5002B2D522B4
:10140E00EC30E7100FBF000C0EBE00080DBD00043F
:10141E000BEB6014A2D5EB13FCED92E7FD2274FFEB
:10142E00FCFDFEFF22E480F8A2D574FF13FC7D8044
:03143E00E480EF58
:030000000232FCCD
:0C32FC00787FE4F6D8FD75812002334392
:10144100E709F608DFFA8046E709F208DFFA803E8D
:1014510088828C83E709F0A3DFFA8032E309F6087A
:10146100DFFA8078E309F208DFFA807088828C83E2
:10147100E309F0A3DFFA806489828A83E0A3F60896
:10148100DFFA805889828A83E0A3F208DFFA804C70
:1014910080D280FA80C680D4806980F28033801047
:1014A10080A680EA809A80A880DA80E280CA8033B0
:1014B10089828A83ECFAE493A3C8C582C8CCC58328
:1014C100CCF0A3C8C582C8CCC583CCDFE9DEE780F8
:1014D1000D89828A83E493A3F608DFF9ECFAA9F077
:1014E100EDFB2289828A83ECFAE0A3C8C582C8CCCD
:1014F100C583CCF0A3C8C582C8CCC583CCDFEADEE6
:10150100E880DB89828A83E493A3F208DFF980CC47
:1015110088F0EF60010E4E60C388F0ED2402B40440
:101521000050B9F582EB2402B4040050AF232345E7
:0615310082239014917367
:10153700BB010689828A83E0225002E722BBFE02B2
:09154700E32289828A83E49322E5
:10155000BB010CE58229F582E5833AF583E0225050
:1015600006E92582F8E622BBFE06E92582F8E2229A
:0D157000E58229F582E5833AF583E49322B4
:10157D00BB010689828A83F0225002F722BBFE014D
:02158D00F32247
:10158F00F8BB010DE58229F582E5833AF583E8F092
:10159F00225006E92582C8F622BBFE05E92582C83E
:0215AF00F22226
:1015B100BC000BBE0029EF8DF084FFADF022E4CC1E
:1015C100F875F008EF2FFFEE33FEEC33FCEE9DECE7
:1015D100984005FCEE9DFE0FD5F0E9E4CEFD22ED2D
:1015E100F8F5F0EE8420D21CFEADF075F008EF2F77
:1015F100FFED33FD4007985006D5F0F222C398FD68
:051601000FD5F0EA2204
:10160600C5F0F8A3E028F0C5F0F8E582158270026F
:061616001583E038F0220C
:10161C00A3F8E0C5F025F0F0E58215827002158381
:06162C00E0C838F0E822DE
:10372800C2D5E830E70FB2D5E4C39BFBE49AFAE4CC
:1037380099F9E498F8EC30E717B2D512375E12160B
:10374800B9E4C39BFBE49AFAE499F9E498F8800396
:103758001216B930D50DE4C39FFFE49EFEE49DFD2B
:04376800E49CFC22BF
:0E163200C3E49FFFE49EFEE49DFDE49CFC22C9
:0C164000ECF0A3EDF0A3EEF0A3EFF0221D
:10164C00A8828583F0D083D082121663121663129F
:10165C001663121663E473E493A3C583C5F0C583C4
:10166C00C8C582C8F0A3C583C5F0C583C8C582C8E8
:01167C00224B
:1033080002302BE493A3F8E493A34003F68001F280
:1033180008DFF48029E493A3F85407240CC8C333C6
:10332800C4540F4420C8834004F456800146F6DF95
:10333800E4800B0102040810204080902626E47ED9
:10334800019360BCA3FF543F30E509541FFEE4938A
:10335800A360010ECF54C025E060A840B8E493A351
:10336800FAE493A3F8E493A3C8C582C8CAC583CA7C
:10337800F0A3C8C582C8CAC583CADFE9DEE780BE34
:0127F80000E0
:10167D0075F008758200EF2FFFEE33FECD33CDCC24
:10168D0033CCC58233C5829BED9AEC99E5829840A7
:10169D000CF582EE9BFEED9AFDEC99FC0FD5F0D684
:1016AD00E4CEFBE4CDFAE4CCF9A88222B800C1B9AE
:1016BD000059BA002DEC8BF084CFCECDFCE5F0CBEC
:1016CD00F97818EF2FFFEE33FEED33FDEC33FCEB25
:1016DD0033FB10D703994004EB99FB0FD8E5E4F9E0
:1016ED00FA227818EF2FFFEE33FEED33FDEC33FCCD
:1016FD00C933C910D7059BE99A4007EC9BFCE99AC1
:10170D00F90FD8E0E4C9FAE4CCFB2275F010EF2F05
:10171D00FFEE33FEED33FDCC33CCC833C810D70705
:10172D009BEC9AE899400AED9BFDEC9AFCE899F840
:0E173D000FD5F0DAE4CDFBE4CCFAE4C8F922D3
:00000001FF
