:10245000436865636B205349343433322E2E2E0D7E
:102460000A004445564943455F545950453A203087
:102470007825782E0D0A000D0A004445564943453B
:102480005F56455253494F4E3A20307825782E0DED
:102490000A004445564943455F5354415455533A05
:1024A0002061742069646C65206D6F64652E0D0A6F
:1024B000004445564943455F5354415455533A20CF
:1024C0006174205258206D6F64652E0D0A004445DA
:1024D000564943455F5354415455533A2061742043
:1024E0005458206D6F64652E0D0A00437279737421
:1024F000616C204F7363696C6C61746F72204C6FF8
:1025000061642043617061636974616E63653A2040
:1025100025780D0A0053493434333220494F20497D
:102520006E69742E2E2E2E2E2E0D0A00494F204934
:102530006E697420636F6D706C657465642E0D0A2E
:1025400000534934343332206973206E6F7420662F
:102550006F756E642E2E2E2E2E2E0D0A00534934CA
:10256000343332204750494F496E697420636F6D90
:10257000706C6574652C636F6E6669672064657640
:102580006963652E2E2E2E2E2E0D0A00436F6E6669
:1025900069672052462E2E2E2E2E2E0D0A005349EC
:1025A00034343332496E697420636F6D706C6574B6
:1025B000652E0D0A005349343433325F536574205D
:1025C00052784D6F64652E2E2E2E2E2E0D0A00533E
:1025D00049343433325F5365742054784D6F6465E9
:1025E0002E2E2E2E2E2E0D0A005349343433325FF8
:1025F0005365742049646C654D6F64652E2E2E2ED4
:102600002E2E0D0A005349343433325F53656E6405
:10261000204649464F20646174612E2E2E2E0D0AED
:10262000002072657620496E746572727570740D43
:102630000A002073656E6420496E7465727275704D
:10264000740D0A006D6F6465207265676973746547
:05265000723A0D0A00C2
:10440D00D3EF9400EE64809480400F7D817C14DCAA
:0A441D00FEDDFAEF1F70E91E80E6D5
:014427002272
:07460C00C2C3D2B3D2B222F7
:0943530090029AEFF07D017F0E4B
:10435C0090020DEDF0C2B3EF4480FF12458990023C
:09436C000DE0FF124589D2B322D5
:07450B00900299EFF07F041C
:0C451200C2B31245897FFF124589D2B365
:01451E00227A
:103880007BFF7A247950124533E4FF1245129002EF
:1038900008EFF07BFF7A247962124533900208E04A
:1038A000FF12419B7BFF7A247977124533900208FF
:1038B000E0640860037F01227F0112451290020834
:1038C000EFF07BFF7A24797A124533900208E0FF0B
:1038D00012419B7BFF7A2479771245337F02124590
:1038E00012900208EFF0540F70087BFF7A2479924F
:1038F0008022900208E0540FFFBF01087BFF7A246A
:1039000079B18010900208E0540FFFBF02097BFFDD
:103910007A2479CE1245337F09124512900208EFBE
:10392000F07BFF7A2479EB124533900208E0FF1216
:0D393000419B7BFF7A2479771245337F009D
:01393D002267
:103618007D537F7512435C7D4B7F7612435CE4FDDE
:103628007F7712435C7D097F6E12435C7DD57F6F87
:1036380012435C7D2C7F7012435C7D807F5812435F
:103648005C7D1F7F6D12435C7D207F7212435C7D21
:103658002C7F1C12435C7D417F2012435C7D607F80
:103668002112435C7D277F2212435C7D527F231207
:10367800435CE4FD7F2412435C7D047F2512435C98
:103688007D407F1D12435C7D0A7F1E12435C7D0FC7
:103698007F2A12435C7D037F1F12435C7D607F6934
:1036A80012435C7D0C7F3412435C7D2A7F351243C4
:1036B8005C7D027F3312435C7D2D7F3612435C7D37
:1036C800D47F3712435C7D8D7F3012435CE4FD7FED
:1036D8003212435C7D637F7112435C7DB47F0902C3
:0236E800435C41
:10393E007BFF7A25791512453312460C7BFF7A25CB
:10394E00792C1245337F147E008013123880EF607D
:10395E00127BFF7A2579411245337FF47E011244A2
:10396E000D80E87DCA7F0B12435C7DCA7F0C12432B
:10397E005C7DCA7F0D12435C7F0A7E0012440D7B74
:10398E00FF7A25795D1245337F0312451212450BDE
:10399E0090029AEFF07D807F0712435C7F147E00C9
:1039AE0012440D7F0312451212450B90029AEFF04E
:1039BE007BFF7A25798C1245331236187DFF7F05F1
:1039CE0012435C7DFF7F0612435C7F031245121289
:1039DE00450B90029AEFF07D077F0512435CE4FDE4
:0E39EE007F0612435C7BFF7A25799E024533EB
:104428007F0312451212450B1243537D057F071275
:0B443800435C7BFF7A2579B502453319
:10430B007F0312451212450B90029AEFF07D027F4C
:10431B000E12435C7D097F0712435C7BFF7A257984
:04432B00CF02453345
:104443007F0312451212450B1243537D017F07125E
:0B445300435C7BFF7A2579E9024533CA
:103CA900900209EBF0A3EAF0A3E9F0900208EFF023
:013CB900FD0D
:103CBA007F3E12435CE490020CF0900208E0FF9011
:103CCA00020CE0FEC3EF6480F8EE64809850259001
:103CDA000209E0FBA3E0FAA3E0F9EEFF3395E08FD7
:103CEA0082F583121154FD7F7F12435C90020CE02F
:103CFA0004F080C612430B7BFF7A2679050245330E
:103AB2007F07124512900204EFF07F0312451212A3
:103AC200450B90029AEFF0900299E030E15B7BFFA8
:103AD2007A2679211245337F4B124512900205EF67
:103AE200F0BF0C2EE4900204F0900205E0FF900279
:103AF20004E0C39F501C7F7F124512900204E02411
:103B020040F582E43402F583EFF0900204E004F021
:103B120080D77D027F0812435CE4FD7F0812435C7C
:103B220012442890023E7401F0900299E030E20CB7
:0C3B32007BFF7A267932124533124428BA
:013B3E002264
:10432F007F0712451290029DEFF07BFF7A267944AA
:10433F0012453390029DE0FF12419B7BFF7A247957
:04434F007702453379
:0C22410049026E00000001050107E000EA
:0945FB00E4FB7D0E7FD002445E5A
:1037BC00E4FD7FD0124493AD07ED54F0C4540F7563
:1037CC00F00AA4FFED540F2F90026EF07D017FD014
:1037DC00124493AD07ED54F0C4540F75F00AA4FFD6
:1037EC00ED540F2F90026FF07D027FD0124493ADF9
:1037FC0007ED54F0C4540F75F00AA4FFED540F2FCD
:10380C00900270F07D047FD0124493AD07ED54F01C
:10381C00C4540F75F00AA4FFED540F2F900271F0F1
:10382C007D037FD0124493900272EFF07D057FD020
:10383C00124493AD07ED5410C4540F75F00AA4FF55
:10384C00ED540F2F900273F07D067FD0124493AD90
:10385C0007ED54F0C4540F75F00AA424D0FFE5F022
:10386C003407FEED540F7C002FFFEC3E900274F0F9
:03387C00A3EFF0C7
:01387F002226
:1036EA00900265E0FF75F00A84C454F0FEEF75F0AD
:1036FA000A84E5F02EFBE4FD7FD012445E90026658
:10370A00E0FF75F00A84C454F0FEEF75F00A84E510
:10371A00F02EFB7D017FD012445E900267E0FF75B8
:10372A00F00A84C454F0FEEF75F00A84E5F02EFB2B
:10373A007D027FD012445E900268E0FF75F00A8431
:10374A00C454F0FEEF75F00A84E5F02EFB7D047F89
:10375A00D012445E900269E0FB7D037FD012445E82
:10376A0090026AE0FF75F00A84C454F0FEEF75F027
:10377A000A84E5F02EFB7D057FD012445E90026C30
:10378A00E02430FF90026BE034F8FE7C007D0A12E0
:10379A0011C7EFC4F8540FC868FFAB07E0FEA3E0F7
:1037AA00FF7C007D0A1211C7EB2DFB7D067FD0023C
:0237BA00445E6B
:1000260000000000000000000000000000000000CA
:10003600000000000018188888286A4E0CE8E808B6
:1000460008181800000444446525341C0E0F1D349E
:100056006444040000F8F888F8F81090901010FE38
:10006600FE101000001F1F081F1F00000343407FE3
:100076007F0000000020644C0800FEFE929292FE73
:10008600FE00000000303C0F437E7E7E7E427E7E78
:100096007E7E4000000000F8F828F8FAAEACA8F81A
:1000A600F82828000040703F4F42662E3A123A2E3A
:1000B6006642400000202020A0E060FFFFE0C06014
:1000C600381800002030180E0741C0FF7F010306D4
:1000D6000C1810100080C0F0FE0E9090121E1CD05E
:1000E600D01000000000007F7F40414F4E607C5FD3
:1000F6004340400000F8F888F8F81090901010FE81
:10010600FE101000001F1F081F1F00000343407F42
:100116007F0000000000F0F20EECE4242424E4E466
:1001260004FCFC0000007F7F000F0F0909090F4F38
:10013600407F7F0000808282FEFE82828282FEFEF7
:1001460082828000004060381F07000000007F7F29
:100156000000000000001010121E1CF0F0181E1601
:10016600101000000041416131190F07070F1931C6
:1001760061414100002038DFC7444444FCFC44444C
:10018600444404000404040707040404FFFF0404B1
:1001960004040404000000FEFE222222222222225F
:1001A600FEFE000080C0703F0F020202020242C241
:1001B600FF7F0000000000FEFE828282828282FEB5
:1001C600FE000000000000FFFF404040404040FFAE
:1001D600FF000000000000F8F88C8E8B898888F8F4
:1001E600F8000000000000FFFF444444444444FF7C
:1001F600FF0000004044C4C44444445010FFFF10B4
:1002060010F0F000103C3F1314BCF8703E0F41C0D4
:10021600C07F3F00101010FFFFB0B8D868290F2E1E
:1002260068E8B8180242C3FF7F40404242427E7EE1
:100236004242424040505E4E48FFFF484848F8F868
:1002460000FFFF0000003E3E02FFFF323E1E0F4F42
:10025600C0FF7F00000022323AAEA6E26331198960
:1002660081010000004262331B4BC2FE7E020A1A65
:10027600336746002030BCEF733088C8E8B99F8EDC
:10028600A8E8C888226767321292C0703F0F003F05
:100296007F40717100083830FFFF202020FFFF20CB
:1002A600222E2C2004040603FFFFC0703E0F071EFB
:1002B6003860C08000048484C46474DF9F3464C4DE
:1002C60084840400417939003C7C40424E4C4070A5
:1002D600740D3931101C4C643414050706041434AB
:1002E60064541C0C004040414141417F7F414141E3
:1002F6004140400000F8F943424242FAFA42424283
:1003060042FEFE0000FFFF080C06033F3F03064CBB
:10031600C8FF7F000000FEFE42424242FAFA424215
:1003260042C2C20280E07F9FC060381E070140C003
:10033600C07F3F000000F8F8888888FFFF8888881B
:10034600F8F80000808081C54C78303F2F6040402F
:10035600C181808090D27634FFFF3476D2F0FF8F51
:1003660008F8F808829ADE776372DE8E80C0733FE3
:100376003F73C0801010FFFF9090FEFE9292F2F243
:10038600929E9E8042C2FF7F81E07F1FFCFC474712
:1003960044FCFC00404042CECC40E0BE9E82829EA1
:1003A600BEA020200000003FBF98C8436F3C386EB7
:1003B60047C18080001717D5D557577D7D5757D52C
:1003C600D51717004040407F7F5555555555557FE9
:1003D6007F404040404042CECC00FCFCA4A42622F4
:1003E600A3E362000040603F3F785F57584D4747A0
:1003F6004D5850400000FEFE02F2F21212F2F202D6
:10040600FEFE000000007F7F2027272424272720C8
:100416007F7F000020305C4F57545454545454D4BA
:10042600D404040000000000000000000000000FDB
:100436003F70F0F08080C06030182CE7C70C183091
:1004460060C080800000000202020282C2623A1E80
:100456000600000040404242424242FEFE42424204
:10046600424240408080C060301C0F03030F1C30A6
:1004760060C080801010D0FFFF94F4EFAFA4A4AF4B
:10048600EFE40400040703FFFF89CB6B3A1E1E3A14
:100496006BCB8880101090909090909010FFFF107A
:1004A60011171610002060603F3F101010030F1C3C
:1004B6003060F8F800002424242424FCFE222223A1
:1004C60023220000020202020242C2FF7F0202024F
:1004D60002020202000000BEBE2A2AEAEA2A2A3ED8
:1004E6003E0000000044464B4949497F7F4949493F
:1004F600494140000004FFFF2424FFFF04FEFE22C2
:1005060022FEFE0088C86F2F0919BFEF783F0F4201
:10051600C2FF7F0080808080808080808080808095
:1005260080808080000000000000000000000000C5
:100536000000000000000808080808080808080865
:1005460008080000101010101010101010101010D5
:100556001010101000048484848484848484848429
:1005660084840400202020202020202020202020F9
:100576002020202000FCFC0404FCFC0404FCFC04F9
:1005860004FCFC00007F7F2C27232020202123222F
:10059600227F7F000002424242C2FE7E424242C2A7
:1005A600C202020040404040787F47404040407FC2
:1005B6007F40404020202020202021232E2C202058
:1005C60020202020004060301C0F0300000103069D
:1005D6001C7860004042CECC00445454547F7F5473
:1005E6005454444000007F7F3010FFFF151555D549
:1005F600FF7F000088E87FDFC818D8DC56D3D39683
:100606009CD8D010091919FFFF05FFFF92FFFF5F65
:10061600DFFF7F00000000000001E3FEFCE00000B9
:100626000000000080C060301C0F030000030F3C78
:1006360070C08080109CCC44E4E495B7E6643494A2
:10064600C4D49C0C02027A7B4143437E7E424243E1
:10065600FBF800000484E4FC5CC4C402F2F282826B
:10066600FEFE808002037F7F103F3F08080808488F
:10067600C8C87F3F4070FFEF646C487F7F48487F63
:100686007F48484001017F7F3111FFFF49494949B1
:10069600FFFF00004042CECC00809E9E9292929236
:1006A6009E9E800000007F7FB494C464341F1F3474
:1006B60064C484840000183C243C18000000000038
:1006C60000000000E0380C060203010101010101EF
:1006D6000101010101010101010101010101010104
:1006E60001010101010101010101010101010101F4
:1006F600010302060C38E040404040404040404084
:10070600C000FF0000000000000000000000000024
:1007160000000000000000000000000000000000D3
:1007260000000000000000000000000000000000C3
:1007360000000000FF40C000000000000000FF00B5
:10074600FF000000000000000000000000000000A4
:100756000000000000000000000000000000000093
:100766000000000000000000000000000000000083
:100776000000FF00FF0000F0FFF00000FF00FF0098
:100786000000000000000000000000000000000063
:100796000000000000000000000000000000000053
:1007A6000000000000000000000000000000000043
:1007B600FF00FF001CFFFFFF1C00FF00FF80000082
:1007C6000000000000000000000000000000000023
:1007D6000000000000000000000000000000000013
:1007E6000000000000000000000000000080FF7014
:1007F6005F0000FFFFFF00005F700003060C081893
:1008060010101010101010101010101010101010E2
:1008160010101010101010101010101010101010D2
:100826001010101010101018080C161318080810C5
:100836001018081810101008000000000000000032
:100846000000000000000000000000F8F8000000B2
:10085600000030333300000000100C06100C0600B8
:1008660000000000000000004040F840F840000092
:10087600043E053F05040000007088FC08300000B7
:10088600001820FF211E0000F008F080700800000C
:1008960000211C031E211E0000F0887000000000CD
:1008A6001F2027281F211000000000000000000064
:1008B60080B0F07000000000000000F0FC0E0200A6
:1008C6000000000F3F70400000061EF8E000000028
:1008D6000060781F070000004040C0F0F0C04040B4
:1008E6000202030F0F030202000000F0F0000000F6
:1008F6000101011F1F0101010002020604000000A0
:1009060000000000000000000000000000000000E1
:1009160001010101010101000000000000000000CA
:10092600003030300000000000000000C0F83C0C31
:100936000060783F07010000E0F0180818F0E000BA
:100946000F1F3020301F0F00001010F8F8000000B5
:100956000020203F3F2020000070780808F8F000B3
:1009660000303C2E233130000030388888F8700083
:1009760000183820313F1E000080C060F8F80000E3
:10098600060705243F3F240400F8F88888880800F5
:1009960000193921313F1F00E0F098888898180027
:1009A6000F1F3120313F1F0000383808E8F81800C3
:1009B6000000003F3F00000070F8988898F870002B
:1009C6001E3F2121313F1E00F0F8080818F8E0000C
:1009D600313322323B1F07000000C0C0C0000000B8
:1009E6000000303030000000000000808000000071
:1009F600000080E060000000000080E07018080041
:100A06000001030E1C3020004040404040404000A2
:100A1600040404040404040000083870C0800000C4
:100A26000020381C060301007078080818F8F0004A
:100A36000000303737010000C0F0F8E8E8F8F0E0D1
:100A4600071F3F2727371F0B0000E0F8F8E00000DC
:100A5600203C3F23233F3C2008F8F88888F87000A4
:100A6600203F3F20313F1E00E0F0380808383800AC
:100A76000F1F30202030100008F8F80818F0E000AA
:100A8600203F3F20301F0F0008F8F888E8F81800CC
:100A9600203F3F202333300008F8F888E8E8181094
:100AA600203F3F2003030000C0F038080838380014
:100AB600071F3820223E1E0208F8F80808F8F80832
:100AC600203F3F21213F3F20000808F8F808080092
:100AD6000020203F3F202000000808F8F808080002
:100AE600C0C080FF7F00000008F8F8C8E838180882
:100AF600203F3F21273E382008F8F8080000000074
:100B0600203F3F202030300008F8F800F8F80800B1
:100B1600203F003F003F200008F8F8F8C8F8F80822
:100B2600203F3F231F3F3F00E0F0180818F0E00089
:100B36000F1F3020301F0F0008F8F80808F8F000E3
:100B4600203F3F2101010000E0F0180818F0E00006
:100B56000F1F3C247C7F4F0008F8F88888F8700047
:100B6600203F3F21073E38200070F88808181800FB
:100B760000303021233F1E00181808F8F80818180E
:100B86000000203F3F20000008F8F80808F8F808A1
:100B9600001F3F20203F1F000878F88888F8780853
:100BA60000000F3F3F0F000008F8FCFCF8F8F808BB
:100BB60000073F3F3F3F07000838F8E8E8F8180805
:100BC60020303C2F2F3E38200838F8C8C8F838089F
:100BD6000000203F3F200000101808C8F838080021
:100BE600303C2F2320301000000000FEFE020200E1
:100BF6000000007F7F404000001CFCE00000000079
:100C0600000000031F7C6000000202FEFE000000E0
:100C16000040407F7F00000000000406060400003C
:100C260000000000000000000000000000000000BE
:100C3600808080808080808010161E0E000000005C
:100C4600000000000000000000008080808080001E
:100C5600001D3D26223F3F2008F8F88080800000D6
:100C6600003F3F21203F1F000000808080808000E1
:100C7600001F3F31203111000000808088F8F80005
:100C8600001F3F21203F3F20000080808080000021
:100C9600001F3F22223313008080F0F88898180046
:100CA60000203F3F202000000000808080808000E0
:100CB600006BFF9497F3600008F8F880808080004E
:100CC600203F3F21203F3F20008080989800000071
:100CD6000020203F3F2020000000808098980000E0
:100CE60000C0C080FF7F000008F8F8808080800088
:100CF600203F3F263F392000000808F8F800000092
:100D06000020203F3F2020008080808080808080DF
:100D1600203F3F203F3F203F8080808080808000B2
:100D2600203F3F2100203F3F000080808080000060
:100D3600001F3F31213F1F0080808080808000009F
:100D460080FFFFA1303F1F00000080808080800070
:100D5600001F3F21A0FFFF80808080808080800070
:100D660020203F3F212101000000808080808000FC
:100D760000333724243D1900008080E0E0808000A5
:100D86000000001F3F2020008080800080808000BF
:100D9600003F3F20203F3F208080808080808080F1
:100DA60000031F3C3C1F03008080C0C08080808001
:100DB600000F3F3F3F3F0F00808080808080800093
:100DC60020313F2E3F3120008080808080808080CF
:100DD6008083CF7E3E0F010000808080808080006F
:080DE6000021393C27333000E5
:10224D0060C0000000000000000000000000000061
:10225D000000000000000000000000000000000071
:10226D000000000000000000000000000000000061
:10227D000000000000000000000000000000000051
:10228D000000000000000000000000000000000041
:10229D000000000000000000000000000000000031
:1022AD000000000000000000000000000000000021
:1022BD000000000000000000000000000000000011
:1022CD000000000000000000000000000000000001
:1022DD0000000000000000000000000000000000F1
:1022ED0000000000000000000000000000000000E1
:1022FD0000000000000000000000000000000000D1
:10230D000000000060C000C00000000000000000E0
:10231D0000000000000000000000000000000000B0
:10232D0000000000000000000000000000000000A0
:10233D000000000000000000000000000000000090
:10234D000000000000000000000000000000000080
:10235D000000000000000000000000000000000070
:10236D000000000000000000000000000000000060
:10237D000000000000000000000000000000000050
:10238D000000000000000000000000000000000040
:10239D000000000000000000000000000000000030
:1023AD000000000000000000000000000000000020
:1023BD000000000000000000000000000000000010
:0823CD00000000000000000008
:0443D4007F057E00E3
:1043D800D3EF9400EE9400400F7D147C32DCFEDDB8
:0843E800FAEF1F70EB1E80E8E4
:0143F00022AA
:10455800D3EF9400EE94004007EF1F70F31E80F035
:014568002230
:04462B0075BB6022D9
:103E6800900217E0FF900216E04440FBE4FD123E8A
:0C3E78008490021AE044B8FBE4FD7F07D0
:103E8400EF30E002C2C2EF30E102C291EF30E20251
:103E9400C292D2C6ED6004D2C58002C2C5C2C1AF0F
:103EA400038F80C2C6D2C2D291D2927F017E000219
:023EB40043D8F1
:073F4900900256E0FF7D012C
:103F50007580FFEFB40104C2C2800EEFB40204C248
:103F6000918006EFB40402C292ED6004D2C58002D3
:103F7000C2C5D2C100D2C600AC80C2C6C2C1D2C2C4
:0D3F8000D291D2927F017E00124558AF040D
:013F8D002211
:0241CF00A9073E
:1041D100E4FBE930E009E4FD7F01123F50EFFBE928
:1041E10030E10AE4FD7F02123F50EB4FFBE930E280
:0F41F1000AE4FD7F04123F50EB4FFBEB20E7D1B8
:01420000229B
:10454600C2CA7F507E001243D8D2CA7FA07E000224
:0245560043D848
:104375007F071241CFE4FAEA123E7DE4F9E4FB7DC2
:10438500017F07123E8409E9B440F20AEAB408E75E
:014395002205
:1042B900C2CB1243D41245467B3E123E801243D4F0
:1042C9007BC0123E801243D41243751243D47B3F04
:0942D900123E801243D4D2CB2224
:103F8E007F071241CF7B40E4FD7F01123E847BBA56
:103F9E00E4FD7F01123E84E4FAE4F97BFF7D017FAC
:103FAE0001123E8409E9B440F27B40E4FD7F011228
:103FBE003E84EA240344B8FBE4FD7F01123E840AEA
:043FCE00EAB401D57B
:013FD20022CC
:103FD3007F071241CF7B40E4FD7F02123E847BBA10
:103FE300E4FD7F02123E84E4FAE4F97BFF7D017F66
:103FF30002123E8409E9B440F27B40E4FD7F0212E1
:104003003E84EA240344B8FBE4FD7F02123E840AA3
:04401300EAB401D535
:014017002286
:10321C00900212EBF0A3EAF0A3E9F0900210EFF0A9
:03322C00A3EDF01F
:10322F00EF1425E0900210F0ED24FFFFE434FFFED1
:10323F00EF7802CEC313CE13D8F9FF7007900217A1
:10324F0004F08016EFB401089002177402F0800AA0
:10325F00EFB402069002177404F0900211E01454B8
:10326F0003C454F0F0FE900217E0FFEE4440FBE47D
:10327F00FD123E84E0FF900210E044B8FBE4FD1223
:10328F003E84E4900216F0900215E0900217601849
:10329F00E0FF900212E0FBA3E475F001121232A9D5
:1032AF00F0FA12113BF48015E0FF900212E0FBA33D
:1032BF00E475F001121232A9F0FA12113BFB7D01F5
:1032CF00123E84900216E004F0E0C3941040B890D0
:1032DF000217E0FF900211E04440FBE4FD123E8430
:1032EF00900217E0FF900210E00444B8FBE4FD12D7
:1032FF003E84E4900216F0900215E09002176018D9
:10330F00E0FF900212E0FBA3E475F001121232A964
:10331F00F0FA12113BF48015E0FF900212E0FBA3CC
:10332F00E475F001121232A9F0FA12113BFB7D0184
:0F333F00123E84900216E004F0E0C3941040B8F0
:01334E00225C
:102E500075F010A4243EF9740635F0FA7BFFE0FF0C
:0A2E6000A3E0FD14F0E490022CF052
:102E6A00900229EBF0A3EAF0A3E9F0900227EFF031
:032E7A00A3EDF0D5
:102E7D00EF1425E0900227F0ED24FFFFE434FFFE70
:102E8D00EF7803CEC313CE13D8F9FF700790022E3F
:102E9D0004F08016EFB4010890022E7402F0800A3F
:102EAD00EFB4020690022E7404F0900228E0145440
:102EBD000775F008A4F0FE90022EE0FFEE4440FBF3
:102ECD00E4FD123E84E0FF900227E044B8FBE4FDF0
:102EDD00123E84E490022DF090022CE090022E60C0
:102EED0018E0FF900229E0FBA3E475F00112123205
:102EFD00A9F0FA12113BF48015E0FF900229E0FBD6
:102F0D00A3E475F001121232A9F0FA12113BFB7D08
:102F1D0001123E8490022DE004F0E0C3940840B805
:102F2D0090022EE0FF900228E04440FBE4FD123EAB
:102F3D008490022EE0FF900227E00444B8FBE4FDEC
:102F4D00123E84E490022DF090022CE090022E604F
:102F5D0018E0FF900229E0FBA3E475F00112123294
:102F6D00A9F0FA12113BF48015E0FF900229E0FB65
:102F7D00A3E475F001121232A9F0FA12113BFB7D98
:102F8D0001123E8490022DE004F0E0C3940840B895
:012F9D002211
:103D0A00900211EFF0A3EDF0A3EBF0A3EAF0A3E920
:103D1A00F0900213E0FBA3E0FAA3E0F912113B6072
:103D2A003E75F010A4243EF9740635F0FA7BFF9034
:103D3A000211E0FFA3E0FD900216E0122E66900247
:103D4A0012E004F0E0D3941840097401F0900211D3
:103D5A00E004F0900214E475F00112121C80B22201
:082CE70090020AEFF0A3EDF0EA
:102CEF0078107C027D017BFF7A0079267E007F0AB7
:102CFF00121115E490021AF0A37409F0E4A3F0A3E3
:102D0F00F0A31212C70000000190020CE0FCA3E038
:102D1F00FDA3E0FEA3E0FFEC33501690021C7401FC
:102D2F00F090020CA3A3A3E012129790020C1212C0
:102D3F00BB90020CE0FCA3E0FDA3E0FEA3E0FFECE0
:102D4F004D4E4F6074E47B0AFAF9F890020CA3A37E
:102D5F00A3E01240A0AC00AD01AE02AF0390021E83
:102D6F001212BB90021EA3A3A3E02430FF90021AFD
:102D7F00E0FE04F074102EF582E43402F583EFF0D8
:102D8F0090020CE0FCA3E0FDA3E0FEA3E0FFE47BD8
:102D9F000AFAF9F81240A090020C1212BB90021A14
:102DAF00E06402708CE0FF04F074102FF582E434BD
:102DBF0002F583742EF0022D4090021AE0D3940393
:102DCF00502AE0FF04F074102FF582E43402F583EB
:102DDF007430F090021AE0B402DFFF04F074102F89
:102DEF00F582E43402F583742EF080CD90021CE05E
:102DFF00601490021AE0FF04F074102FF582E4348F
:102E0F0002F583742DF0E490021BF090021AE0FF9C
:102E1F00A3E0FEC39F502974102EF582E43402F50F
:102E2F0083E090020A122E5090020BE0700A90027B
:102E3F000AE004F0A37418F090021BE004F080CBBA
:012E4F002260
:0B29DC0090020EEFF0A3EDF0A3EBF073
:1029E70078157C027D017BFF7A0079307E007F0AB3
:1029F700121115E490021FF0A37409F0E4A3F0A3E9
:102A0700F0A31212C700000001900211E0FCA3E03E
:102A1700FDA3E0FEA3E0FFEC335016900221740102
:102A2700F0900211A3A3A3E01212979002111212C1
:102A3700BB900210E0606F900210E0FF14F0EFD33C
:102A470094005003022B1BE47B0AFAF9F8A3E0FC7D
:102A5700A3E0FDA3E0FEA3E0FF1240A0AC00AD01A0
:102A6700AE02AF039002231212BB900223A3A3A3CB
:102A7700E02430FF90021FE0FE04F074152EF5826B
:102A8700E43402F583EFF0900211E0FCA3E0FDA32C
:102A9700E0FEA3E0FFE47B0AFAF9F81240A09002F7
:102AA700111212BB8091900211E0FCA3E0FDA3E09C
:102AB700FEA3E0FFEC4D4E4F605AE47B0AFAF9F8AB
:102AC700900211A3A3A3E01240A0AC00AD01AE0297
:102AD700AF039002231212BB900223A3A3A3E02407
:102AE70030FF90021FE0FE04F074152EF582E434E7
:102AF70002F583EFF0900211E0FCA3E0FDA3E0FEF6
:102B0700A3E0FFE47B0AFAF9F81240A09002111241
:102B170012BB8092900221E0601490021FE0FF0434
:102B2700F074152FF582E43402F583742DF0E490E8
:102B37000220F090021FE0FFA3E0FEC39F5029741C
:102B4700152EF582E43402F583E090020E122E5022
:102B570090020FE0700A90020EE004F0A37418F0E0
:082B6700900220E004F080CB95
:012B6F002243
:0A30DE0090020BEDF0AC07A3EBF03D
:1030E800E4900217F0EB24FFFFE434FFFEEF7803CF
:1030F800CEC313CE13D8F90490020CF0EC24FFFFD2
:10310800E434FFFEEF7803CEC313CE13D8F9900250
:1031180013F090020BE0FF14543F900214F0FDEFFF
:1031280024FFFFE434FFFEEF7806CEC313CE13D896
:10313800F9FF7401A807088002C333D8FCFF900286
:1031480015F0900217F0ED4440FBE4FD123E849028
:103158000213123E7CE4900211F090020CE0FF9002
:103168000211E0C39F400302321BE4A3F090020D5A
:10317800E0FF900212E0FEC39F506AEEFF90020B40
:10318800E02FFFE433CF24FFCF34FFFEEF7806CEE5
:10319800C313CE13D8F975F00384AFF07401A807F0
:1031A800088002C333D8FCFF900216F0A3E06F60DA
:1031B8000E900216E0FFA3F07B40E4FD123E8490DF
:1031C8000216E0FF90020EE0FBA3E475F001121274
:1031D80032A9F0FA12113BFB7D01123E84900212D3
:1031E800E004F08088900215E0FF900217F090024A
:1031F80014E04440FBE4FD123E84900211E0FF908D
:103208000213E02F540704123E7D900211E004F0EF
:033218000231621E
:01321B002290
:0F26550090024CEFF090024EEBF090024DEDF042
:10266400E4900258F0ED14543F900255F0FCED2430
:10267400FFFFE434FFFEEF7806CEC313CE13D8F980
:10268400FF7401A807088002C333D8FCFF900256E8
:10269400F0900258F0EC4440FBE4FD123E849002BA
:1026A4004CE014123E7D123F49E4900253F0900234
:1026B4004EE0FF900253E0C39F4003022785E4A34A
:1026C400F090024FE0FF900254E0FEC39F400302EB
:1026D4002755EEFF90024DE02FFFE433CF24FFCFC8
:1026E40034FFFEEF7806CEC313CE13D8F975F0038A
:1026F40084AFF07401A807088002C333D8FCFF90AC
:102704000257F0A3E06F600E900257E0FFA3F07B46
:1027140040E4FD123E84900257123F4CAD079002F4
:102724004FE0FF900253E08FF0A4FFA3E07A002F64
:10273400FFEA35F0FE900250E0FBA3E0FAA3E0F9D3
:102744008F828E83ED121193900254E004F00226DE
:10275400C5900256E0FF900258F0900255E04440C4
:10276400FBE4FD123E84900253E0FF90024CE02F04
:102774005407123E7D123F49900253E004F00226B2
:10278400B27F071241CF900255E04440FBE4FD7F45
:1027940002123E8490024CE01444B8FBE4FD7F0234
:1027A400123E84E4900253F090024EE0FF900253F4
:1027B400E0C39F506EE4A3F090024FE0FF900254F8
:1027C400E0FDC39F5031900253E08FF0A47C002DB4
:1027D400FFEC35F0FE900250E0FBA3E0FAA3E0F931
:1027E4008F828E83121154FB7D017F02123E8490EE
:1027F4000254E004F080C1900255E04440FBE4FD43
:102804007F02123E84900253E0FF90024CE02F546A
:102814000744B8FBE4FD7F02123E84900253E004B7
:03282400F08085BC
:01282700228E
:07174B00900211EDF0AC0764
:10175200E4900219F0EC24FFFFE434FFFEEF78037B
:10176200CEC313CE13D8F990021AF0EC145407909A
:10177200021DF0EC2B145407A3F090021DE0FDFFB4
:10178200EB2FFFE433FEEF7803CEC313CE13D8F969
:10179200FFED2B540760047E0180027E00EE2FFFD6
:1017A20090021CF090021AE02F14A3F0900211E0B4
:1017B200FD14543F900216F0ED24FFFFE434FFFEC7
:1017C200EF7806CEC313CE13D8F9FF7401A8070829
:1017D2008002C333D8FC900217F0900219F09002F5
:1017E2001DE070030218A3123E68900217123F4CCC
:1017F200E4900214F0900213E0FFA3E0FEC39F40C6
:101802000302189BEEFF900211E02FFFE433CF2476
:10181200FFCF34FFFEEF7806CEC313CE13D8F9758F
:10182200F00384900215E5F0F0E0FF7401A80708C8
:101832008002C333D8FCFF900218F0A3E06F600E61
:10184200900218E0FFA3F07B40E4FD123E84900278
:1018520018123F4C900214E0FE2400F582E434009A
:10186200F583EFF074002EF582E43400F583C08333
:10187200C082E0FF90021DE0FEC374079EFE747FEB
:10188200A806088003A2E713D8FB5FD082D083F0BA
:10189200900214E004F00217F7900217E090021988
:1018A200F090021EE07003021974900217E0FF909C
:1018B2000216E04440FBE4FD123E8490021B123EFD
:1018C2007C900217123F4CE4900214F0900213E055
:1018D200FFA3E0FEC39F400302196CEEFF900211CA
:1018E200E02FFFE433CF24FFCF34FFFEEF7806CEA4
:1018F200C313CE13D8F975F00384900215E5F0F006
:10190200E0FF7401A807088002C333D8FCFF9002ED
:1019120018F0A3E06F600E900218E0FFA3F07B4086
:10192200E4FD123E84900218123F4C900214E0FE35
:1019320024C0F582E43400F583EFF074C02EF58202
:10194200E43400F583C083C082E0FF90021EE0FE13
:1019520074FFA806088002C333D8FC5FD082D0830C
:10196200F0900214E004F00218CE900217E0900208
:1019720019F0123E68E4FA90021CE0FFEAC39F40AD
:1019820003021A90E4900214F0900213E0FFA3E025
:10199200FEC39F4003021A6CEEFF900211E02FFF7C
:1019A200E433CF24FFCF34FFFEEF7806CEC313CE4D
:1019B20013D8F975F00384900215E5F0F0E0FF7496
:1019C20001A807088002C333D8FCFF900218F0A3D5
:1019D200E06F600E900218E0FFA3F07B40E4FD127E
:1019E2003E8490021DE0F9602EA3E0602A90021C62
:1019F200E0B40123900218E0FF900214E0FE24C03C
:101A0200F582E43400F583E0FD74002EF582E434BF
:101A120000F583E04D8044E96018EA7015900218E1
:101A2200E0FF900214E02400F582E43400F583E044
:101A3200802990021EE0601D90021CE014B5021580
:101A4200900218E0FF900214E024C0F582E4340012
:101A5200F583E08006900218E0FFE4FB7D01123E70
:101A620084900214E004F002198B900217E0FF90B8
:101A72000219F0900216E04440FBE4FD123E84900D
:0E1A8200021AE02A540704123E7D0A02197966
:011A90002233
:0713C60090020FEDF0AC07EF
:1013CD00E4900217F090021DF0EC24FFFFE434FFCF
:1013DD00FEEF7803CEC313CE13D8F9900218F0ECBC
:1013ED0014540790021BF0EC2B145407A3F0900239
:1013FD001BE0FDFFEB2FFFE433FEEF7803CEC313AD
:10140D00CE13D8F9FFED2B540760047E0180027EC8
:10141D0000EE2FFF90021AF0900218E02F14A3F0A7
:10142D0090020FE0FD14543F900214F0ED24FFFFE5
:10143D00E434FFFEEF7806CEC313CE13D8F9FF7454
:10144D0001A807088002C333D8FC900215F0900262
:10145D0017F090021BE07003021536900215E0FFA5
:10146D00900214E04440FBE4FD123E8490021812F9
:10147D003E7C900215123F4CE4900212F090021146
:10148D00E0FFA3E0FEC39F400302152EEEFF900286
:10149D000FE02FFFE433CF24FFCF34FFFEEF7806AC
:1014AD00CEC313CE13D8F975F00384900213E5F073
:1014BD00F0E0FF7401A807088002C333D8FCFF9049
:1014CD000216F0A3E06F600E900216E0FFA3F07B12
:1014DD0040E4FD123E84900216123F4C900212E041
:1014ED00FE2400F582E43400F583EFF074002EF550
:1014FD0082E43400F583C083C082E0FF90021BE0DC
:10150D00FEC374079EFE7480A806088003A2E7132D
:10151D00D8FB4FD082D083F0900212E004F0021479
:10152D008A900215E0900217F090021CE070030201
:10153D001619900215E0FF900214E04440FBE4FD03
:10154D00123E84900219123E7C900215123F4CE41B
:10155D00900212F0900211E0FFA3E0FEC39F400342
:10156D00021611EEFF90020FE02FFFE433CF24FFA0
:10157D00CF34FFFEEF7806CEC313CE13D8F975F036
:10158D000384900213E5F0F0E0FF7401A8070880D2
:10159D0002C333D8FCFF900216F0A3E06F600E90EB
:1015AD000216E0FFA3F07B40E4FD123E849002168C
:1015BD00123F4C900212E024C0F582E43400F58312
:1015CD00EFF01D90021CE0FEEDC39E500AA3E02536
:1015DD00E04401F00D80EC900212E024C0F582E4AD
:1015ED003400F583C083C082E0FF90021DE0FEEF62
:1015FD004ED082D083F0E490021DF0900212E004F0
:10160D00F0021561900215E0900217F0900215E0BE
:10161D00FF900214E04440FBE4FD123E849002185A
:10162D00123E7CE4FA90021AE0FFEAC39F400302E7
:10163D00174AE4900212F0900211E0FFA3E0FEC3FE
:10164D009F4003021726EEFF90020FE02FFFE433B9
:10165D00CF24FFCF34FFFEEF7806CEC313CE13D8C1
:10166D00F975F00384900213E5F0F0E0FF7401A822
:10167D0007088002C333D8FCFF900216F0A3E06F79
:10168D00600E900216E0FFA3F07B40E4FD123E8455
:10169D0090021BE0F9602EA3E0602A90021AE0B4DC
:1016AD000123900216E0FF900212E0FE24C0F582A5
:1016BD00E43400F583E0FD74002EF582E43400F58A
:1016CD0083E05D803CE96018EA7015900216E0FF3A
:1016DD00900212E02400F582E43400F583E08021CD
:1016ED0090021CE0601E90021AE014B502169002E2
:1016FD0016E0FF900212E024C0F582E43400F58379
:10170D00E0FB8007900216E0FF7BFF7D01123E8417
:10171D00900212E004F0021644900215E0FF9002D0
:10172D0017F0900214E04440FBE4FD123E84900259
:0D173D0018E02A540704123E7D0A021632FD
:01174A00227C
:103F0000A2A282A082A482A182A382C840381245C4
:103F100096A2A282A082A482A182A382C840242069
:103F2000A0037F012220A2037F022220A4037F0698
:103F30002220A1037F052220C8037F032220A303A0
:093F40007F04227F00227F002291
:10456900E4F5CF75CDC030030475CED02275CE40A9
:01457900221F
:0D4589008FCFE5CD30E7FB75CDC0AFCF2261
:10451F00438920759840758DDC858D8BE4F587D2A6
:04452F00ACD28E225A
:084604008F993099FDC2992243
:02419B00AE076D
:10419D00EEC4540FFDC36480948AED500424308026
:1041AD000424F62461FF124604EE540FFDC364800F
:1041BD00948AED50042430800424F62461FF1246C5
:0141CD0004ED
:0141CE0022CE
:07461300EF2430FF02460412
:1045330012113BFF600C124604740129F9E43AFAA4
:0345430080EE22E5
:0D423300900296EBF0A3EAF0A3E9F0AE07CD
:10424000E4FDEDC39E501A900296E0FBA3E0FAA3B2
:10425000E0F98D82758300121154FF1246040D801F
:01426000E17C
:01426100223A
:030023000243F1A4
:0643F100C0E0C083C082A1
:0F43F70030980CC298C2AF900203E599F0D2AF94
:07440600D082D083D0E03228
:06461A0000000000002278
:05000600D2B7D2B622C2
:06000E001243961243BCF0
:0F001400D2B6D2B712461AC2B612461AC2B722D5
:0C45D700C2B6D2B712461AD2B602461A7B
:0643B600120014124396F0
:1043BC00D2B712461A30B608C2B712461A7F00227C
:0843CC00C2B712461A7F01225C
:0C45E300C2B6D2B712461AC2B702461A7E
:0C45EF00D2B6D2B712461AC2B702461A62
:10439600E4FEEF30E703D38001C392B6EF25E0FFDA
:0F43A600D2B712461AC2B712461A0EEEB408E387
:0143B50022E5
:10426200E4FED2B6FDEE25E0FED2B712461A30B613
:10427200034401FEC2B712461A0DEDB408E7EF601F
:0B428200051245E380031245EFAF0674
:01428D00220E
:10445E001243B6AC07AF051243961243BCAF03121C
:0A446E0043961243BC1245D7AF0479
:014478002221
:02449300AC0774
:104495001243B6AF0512000EEC04FF124396124309
:0644A500BCE4FF124262BC
:0144AB0022EE
:103DC500AD071243B6EF70061245D77F0122900268
:103DD50083E0FF12000EED04FF1243961243BC90E0
:103DE5000284E0FF6026B4010BE4FF124262EF1289
:103DF500118180107F01124262EF12118174012935
:103E0500F9E43AFA900284E014F080D31245D77FA2
:023E1500002289
:1040E4001243B6EF7002801E900289E0FF124396DD
:1040F4001243BC90028AE0602212113BFF124396E5
:104104001243BCEF70061245D77F0122740129F9CE
:10411400E43AFA90028AE014F080D81245D77F007E
:014124002278
:1023D50041029100410292004102930041029400A2
:0423E500410295001C
:0C4596007FB27E787D0CDDFEDEFADFF6E1
:0145A20022F6
:0C45A3007FB27EE67D0CDDFEDEFADFF666
:0145AF0022E9
:0C45B0007FD97EAB7D49DDFEDEFADFF630
:0145BC0022DC
:10420100EF24FE601214601714601C2403702090C8
:104211000291E05401FF22900291E05402FF2290AA
:104221000291E05404FF22900291E05408FF227FA2
:02423100002269
:103D6A00EF24FE601D14602D14603D2403704B90F7
:103D7A000291E054FEF090020BA3A3A3E0900292FA
:103D8A00F022900291E054FDF090020BA3A3A3E06D
:103D9A00900293F022900291E054FBF090020BA360
:103DAA00A3A3E0900294F022900291E054F7F090DD
:0B3DBA00020BA3A3A3E0900295F022EF
:10401800900292E0600414F08007900291E044015D
:10402800F0900293E0600414F08007900291E0445D
:1040380002F0900294E0600414F08007900291E08E
:104048004404F0900295E0600314F022900291E09D
:044058004408F02206
:10428E00454550524F4D206973206E6F7420616CFE
:10429E006C2046462E0D0A00454550524F4D206962
:0B42AE007320636C65616E2E0D0A002A
:0D45BD00E4F5C7F5C5F5C675C380F5C42249
:1044AC0075C78375C5018FC4EEF5C375C65A75C63D
:0844BC00A50000AFC21245BDCE
:0144C40022D5
:1044790075C78375C5028FC4EEF5C3AF058FC275C5
:0A448900C65A75C6A500000245BD25
:1044F50075C78375C5038FC4EEF5C375C65A75C6F2
:06450500A500000245BD07
:10405C00E4FFFE1244F5E4900208F0A3F09002088D
:10406C00E0FEA3E0FFC3EE9402501F1244ACEFF449
:10407C0060087BFF7A42798E8016900209E004F08A
:10408C0070DB900208E004F080D37BFF7A4279A6C3
:03409C0012453397
:01409F0022FE
:1023E9004C02400000000000000000000000004C0A
:1023F900023200000000000000000000000041025D
:0C2409003E0041023F0043022F01025937
:01462F002268
:014630002267
:10345000900242E0FE6410706CA3E07068A3E0FF8D
:1034600090022FE0FBA3E0FAA3E0F9EF12118190A4
:103470000245E0FF90022FE0FBA3E0FAA3E0F99001
:103480000001EF121193900246E090000212119396
:10349000900247E0900003121193900248E09000E0
:1034A00004121193900249E09000051211939002CA
:1034B0004AE090000612119390024BE09000071230
:1034C00011937F0122EE6411706E900243E07068E8
:1034D000A3E0FF90022FE0FBA3E0FAA3E0F9EF12D4
:1034E0001181900245E0FF90022FE0FBA3E0FAA3D8
:1034F000E0F9900001EF121193900246E090000273
:10350000121193900247E090000312119390024829
:10351000E0900004121193900249E090000512110E
:103520009390024AE090000612119390024BE090B3
:0B35300000071211937F02227F00228F
:0F457A0041444320646174613A0D0A000D0A0048
:10241500480259616162626363000044026122B847
:0224250022B8DB
:103E1700900259E0FEA3E0FDEDFF900261EEF0A3F2
:103E2700EFF090025BE0FEA3E0FDEDFF900263EE92
:103E3700F0A3EFF0D3900262E09488900261E094DF
:103E47001340077422F0A374B8F0D3900264E0948F
:103E570088900263E0941340077422F0A374B8F0CB
:013E67002238
:103EB60090025DE0FEA3E0FDEDFBAA06E4FEFDFC3C
:103EC600C39DF582EE9CF5837D64AF03AE021211AD
:103ED600B5AD82AC831211C77BFF7A45797A12455C
:103EE6003390025DE0FF12419B90025EE0FF1241BB
:0A3EF6009B7BFF7A45798602453375
:1039FC00300031003200330034003500360037001F
:103A0C00380039003A0020002A002100484F4D456B
:103A1C000043002500000000000000000000000032
:103A2C00000000000000000000000000000000008A
:103A3C00000000000000000000000000000000007A
:103A4C00000000000000000000000000000000006A
:103A5C00000000000000000000000000000000005A
:103A6C00000000000000000000000000000000004A
:103A7C00000000000000000000000000000000003A
:103A8C00000000000000000000000000000000002A
:103A9C000000000000000000F0FFF0001CFFFFFF22
:063AAC001C00FFFFFF00FB
:1024270041027E00C10144027A0001E240C100413D
:0B2437000277004102780041027900AA
:053C4700900180EFF088
:103C4C0078817C017D017BFF7A3A79217E007F822D
:103C5C00121115900180E0602FB20030001B900211
:103C6C000D7405F0A374FFF0A3743AF0A374A3F0E1
:103C7C007B187D377F110230DE9002137405F07BC8
:103C8C00187D377F1102174B300011900213740509
:0C3C9C00F07B187D377F1112174BC2001F
:013CA80022F9
:102F9E00900210EFF07BFF7A3979FC7006900216E2
:102FAE00048004E4900216F07D037F04123D0A9023
:102FBE000210E07BFF7A3979FEB401079002167495
:102FCE00018004E4900216F07D057F04123D0A9004
:102FDE000210E07BFF7A3A7900B402079002167471
:102FEE00018004E4900216F07D077F04123D0A90E2
:102FFE000210E07BFF7A3A7902B40307900216744E
:10300E00018004E4900216F07D097F04123D0A90BF
:10301E000210E07BFF7A3A7904B40407900216742A
:10302E00018004E4900216F07D0B7F04123D0A909D
:10303E000210E07BFF7A3A7906B405079002167407
:10304E00018004E4900216F07D0D7F04123D0A907B
:10305E000210E07BFF7A3A7908B4060790021674E4
:10306E00018004E4900216F07D0F7F04123D0A9059
:10307E000210E07BFF7A3A790AB4070790021674C1
:10308E00018004E4900216F07D117F04123D0A9037
:10309E000210E07BFF7A3A790CB40807900216749E
:1030AE00018004E4900216F07D137F04123D0A9015
:1030BE000210E07BFF7A3A790EB40907900216747B
:1030CE00018004E4900216F07D157F04123D0A2261
:101A9100E4900209F0A37406F0A314F0A31212C794
:101AA100000000001243757BFF7A0579DAE49002A9
:101AB10015F07D047F0112321C7BFF7A0579FAE46F
:101AC100900215F07D057F0112321C7BFF7A0679A9
:101AD1001AE4900215F07D067F0112321C7BFF7A19
:101AE10006793AE4900215F07D077F0112321C7BE2
:101AF100FF7A06795AE4900215F07D087F011232CF
:101B01001C7BFF7A3A7910E4900216F07D117F0177
:101B1100123D0A7BFF7A3979FC9002167401F07D3F
:101B2100037F04123D0A7BFF7A3979FEE4900216A5
:101B3100F07D057F04123D0A7BFF7A3A7900E4903B
:101B41000216F07D077F04123D0A7BFF7A3A790283
:101B5100E4900216F07D097F04123D0A7BFF7A3A78
:101B61007904E4900216F07D0B7F04123D0A7BFF9D
:101B71007A3A7906E4900216F07D0D7F04123D0A4F
:101B81007BFF7A3A7908E4900216F07D0F7F041208
:101B91003D0A7BFF7A3A790AE4900216F07D117FC3
:101BA10004123D0A7BFF7A3A790CE4900216F07D2B
:101BB100137F04123D0A7BFF7A3A790EE4900216F4
:101BC100F07D157F04021CEC123F00900208EFF03B
:101BD10060F6E0FEB40107E490027EF0FF22EE64BD
:101BE10003704F90020AE0FF04F0D3EF6480948603
:101BF1005038E025E0FFC374139FFD7BFF7A3A79EB
:101C010012E4900216F07F02123D0A90020CE0FCF1
:101C1100A3E0FDA3E0FEA3E0FFE47B0AFAF9F812DA
:101C210040A090020C1212BB802090020A7406F0B0
:101C31008018900208E0FFB40506A3E014F0800AC2
:101C4100EFB40606900209E004F0900209E0FFD328
:101C5100648094894004E4F0800EC3EF6480948032
:101C610050069002097409F0900209E0FF122F9EBC
:101C7100900208E064026003021BC990020AE0FFBF
:101C810014F0D3EF64809480406790020CE0FCA3D1
:101C9100E0FDA3E0FEA3E0FFE47B0AFAF9F81212EB
:101CA1004890020C1212BB90020CE0F8A3E0F9A3D9
:101CB100E0FAA3E0FB900209E0FF3395E0FEFDFCB2
:101CC100EB2FFFEA3EFEE93DFDE83CFC90020C12E1
:101CD10012BB90020AE025E0FFC374119FFD7BFF58
:101CE1007A3A7914E4900216F07F02123D0A021B3F
:101CF100C990027AE0FCA3E0FDA3E0FEA3E0FF901F
:101D0100020CE0F8A3E0F9A3E0FAA3E0FBC312128E
:101D1100A5700990027E7402F07F01229002137473
:101D2100C0F07B107D017F1112174B7BFF7A067982
:101D31003AE4900215F07D057F0212321C7BFF7A96
:101D410006795AE4900215F07D067F0212321C7B5F
:101D5100FF7A06797AE4900215F07D077F0212324C
:101D61001C7BFF7A06799AE4900215F07D087F02C8
:101D710012321C7BFF7A3A7916E4900216F07D113B
:101D81007F02123D0A1245B090021374C0F07B101D
:101D91007D017F1112174B90020A7406F090020C1C
:101DA1001212C70000000090020BE014F060030261
:031DB1001BC9FF4C
:011DB400220C
:0D45CA00C2C91245A3D2C9E490027EF022BE
:014631002266
:1044C500900263E0FEA3E0FFE4FCFD90020C1212F3
:0844D500BB7D167F01022CE7FC
:1044DD00900261E0FEA3E0FFE4FCFD90020C1212DD
:0844ED00BB7D0E7F04022CE7E9
:10334F00EF24FE604A0460030233F47BFF7A0379B3
:10335F001AE4900215F07D027F0412321C7BFF7A73
:10336F0003793AE4900215F07D037F0412321C7B3F
:10337F00FF7A03799A9002157401F07D067F04128B
:10338F00321C7BFF7A0379BA900215740180427B5D
:10339F00FF7A03791A9002157401F07D027F0412EF
:1033AF00321C7BFF7A03793A9002157401F07D038A
:1033BF007F0412321C7BFF7A03799AE4900215F096
:1033CF007D067F0412321C7BFF7A0379BAE49002E8
:1033DF0015F07D077F0412321C7BFF7A3A7918E4CF
:1033EF0090021680537BFF7A03791AE4900215F04E
:1033FF007D027F0412321C7BFF7A03793AE490023C
:10340F0015F07D037F0412321C7BFF7A03799AE457
:10341F00900215F07D067F0412321C7BFF7A037930
:10342F00BAE4900215F07D077F0412321C7BFF7AFD
:10343F003A79189002167401F07D137F04123D0A39
:01344F00225A
:05353B00900208EFF012
:10354000E4A3F0300108124375122828803E90024F
:1035500008E0FFB40506A3E004F0800AEFB4060615
:10356000900209E014F0900209E0FFD36480948295
:103570004004E4F0800EC3EF648094805006900213
:10358000097402F0900209E0FF12334F90020B120F
:1035900012C70000000A7F01123D6A123F0090022C
:1035A00008EFF0606890020B1212C70000000A7F5B
:1035B00001123D6A900208E0FEB4020C90027E7493
:1035C00001F0900209E0FF22EEB401037F00229097
:1035D0000208E0FFB40506A3E004F0800AEFB40699
:1035E00006900209E014F0900209E0FFD364809491
:1035F000824004E4F0800EC3EF6480948050069013
:1036000002097402F0900209E0FF12334F7F0112A9
:073610004201EF60867F001C
:013617002290
:10282800C20190020D743EF0A374FFF0A37406F089
:10283800A374CAF07B2D7D017F011230DE7BFF7A05
:1028480000793AE4900215F07D057F0112321C7B75
:10285800FF7A00795AE4900215F07D067F01123262
:102868001C7BFF7A0079BAE4900215F07D077F019E
:1028780012321C7BFF7A00797AE4900215F07D0809
:102888007F0112321C7BFF7A3A7910E4900216F02D
:102898007D117F01123D0A1244C57BFF7A0679BA81
:1028A800E490022CF07D177F01122E6A7BFF7A3AA2
:1028B800791DE4900216F07D187F01123D0A7BFF16
:1028C8007A02799AE4900215F07D057F0212321C93
:1028D8007BFF7A0279BAE4900215F07D067F021236
:1028E800321C7BFF7A3A7910E4900216F07D0D7F56
:1028F80002123D0A7BFF7A0279DAE4900215F07D34
:102908000A7F0212321C7BFF7A0279FAE4900215E0
:10291800F07D0B7F0212321C7BFF7A04797AE490F7
:102928000215F07D057F0312321C7BFF7A04799A29
:10293800E4900215F07D067F0312321C7BFF7A3A81
:102948007910E4900216F07D0D7F03123D0A7BFF9B
:102958007A0179DAE4900215F07D0A7F0312321CBD
:102968007BFF7A0179FAE4900215F07D0B7F031260
:10297800321C7BFF7A03791AE4900215F07D027FFE
:102988000412321C7BFF7A03793AE4900215F07D39
:10299800037F0412321C7BFF7A03799AE4900215B4
:1029A800F07D067F0412321C7BFF7A0379BAE4902B
:1029B8000215F07D077F0412321C7BFF7A3A7918E2
:1029C8009002167401F07D137F04123D0A7D017F89
:0429D80037021DB5F0
:10200900D2017BFF7A0079BAE4900215F07D037F53
:102019000112321C7BFF7A0079DAE4900215F07D17
:10202900047F0112321C7BFF7A0179DAE4900215F0
:10203900F07D057F0112321C7BFF7A0179FAE49069
:102049000215F07D067F0112321C7BFF7A02791A94
:10205900E4900215F07D077F0112321C7BFF7A02A2
:10206900793AE4900215F07D087F0112321C7BFF5A
:102079007A02795AE4900215F07D097F0112321C27
:102089007BFF7A02797AE4900215F07D0A7F0112CA
:10209900321C900274E0FEA3E0FFE4FCFD90021103
:1020A9001212BB7B047D0A7F021229DC7BFF7A01B5
:1020B900797AE4900215F07D067F0212321C9002B3
:1020C90073E0FFE4FCFDFE9002111212BB7B027D5E
:1020D9000E7F021229DC7BFF7A01799AE4900215BE
:1020E900F07D087F0212321C900271E0FFE4FCFDD2
:1020F900FE9002111212BB7B027D127F021229DCB3
:102109007BFF7A0179BAE4900215F07D0A7F021209
:10211900321C900270E0FFE4FCFDFE9002111212E5
:10212900BB7B027D067F031229DC7BFF7A3A79109B
:10213900E4900216F07D077F03123D0A90026FE0DA
:10214900FFE4FCFDFE9002111212BB7B027D097FA8
:10215900031229DC7BFF7A3A7910E4900216F07DAC
:102169000A7F03123D0A90026EE0FFE4FCFDFE9037
:1021790002111212BB7B027D0C7F031229DC7BFF4B
:102189007A0479DAE4900215F07D087F0312321C93
:102199007BFF7A0479FAE4900215F07D097F031236
:1021A900321C900272E014B4070050659021C37587
:1021B900F003A4C58325F0C583730221D80221E069
:1021C9000221E80221F00221F80222000222087B02
:1021D900FF7A05791A802E7BFF7A05793A80267B6A
:1021E900FF7A05795A801E7BFF7A05797A80167BFA
:1021F900FF7A05799A800E7BFF7A0579BA80067B8A
:10220900FF7A04795AE4900215F07D0A7F031232AD
:102219001C1244DD7BFF7A0679BAE490022CF07D2A
:102229000F7F04122E6A7BFF7A3A791DE490021619
:08223900F07D107F04023D0A54
:0A1DB50090020BEDF090020AEFF02F
:101DBF00E490020CF0AC07EC120F907BF67A2879C6
:101DCF001C7840120EE9E4FBFA7980783F120DF58A
:101DDF00120FC490020BE06005E4900278F09002BD
:101DEF0078E0FEC3EF9E900277F0C364809480503A
:101DFF000D90020C7401F0900277E0F404F0E4907F
:101E0F00020DF0900277E0FF3395E0FE90020DE0B7
:101E1F00C39FEE6480F87480984003021FAE900257
:101E2F000CE0FF9002786005E014F08003E004F00E
:101E3F00900278E024FE604A14606B147003021E57
:101E4F00D924DE7003021EFD147003021F201470CC
:101E5F0003021F42147003021F6424286003021F31
:101E6F0072EF600F900213742BF07B017D057F2AB8
:101E7F00021F8C9002117429F07B017D067F2B02CB
:101E8F001FA290020CE0600F900213742DF07B01E3
:101E9F007D047F29021F8C900211742BF07B017D32
:101EAF00057F2A021FA290020CE0600F90021374AC
:101EBF002DF07B017D047F28021F8C900211742D61
:101ECF00F07B017D047F29021FA290020CE0600FBE
:101EDF00900213742FF07B017D037F27021F8C90DC
:101EEF000211742DF07B017D047F28021FA2900246
:101EFF000CE0600E900213742DF07B017D047F05C2
:101F0F00807B900211742DF07B017D047F06021FF0
:101F1F00A290020CE0600E900213742BF07B017DF7
:101F2F00057F048058900211742DF07B017D047F92
:101F3F0005806090020CE0600E9002137429F07B14
:101F4F00017D067F038036900211742BF07B017D9B
:101F5F00057F04803E9002117429F07B017D067F7E
:101F6F0003803090020CE09002786016E0FFC3749B
:101F7F002B9FFF900213742FF07B017D0312174BE1
:101F8F008014E0FFC3742C9FFF900211742FF07B1D
:101F9F00017D031213C690020DE004F0021E129091
:101FAF00020AE0FF3395E0FEFDFC9002111212BB16
:101FBF00E4FB7D047F021229DC7BFF7A3A791FE470
:101FCF00900216F07D057F02123D0A90020AE0FF93
:101FDF00B4631E900279E0FEC3EF9EC364809480C9
:101FEF00500F9002117408F07B107D097F111213AE
:091FFF00C690020AE0900279F09C
:0120080022B5
:1042E20076616C69642064617461207265636569DA
:1042F2007665642E0D0A00454550524F4D2064618B
:0943020074613A0D0A000D0A0075
:0D24420041029000C10244028C61626300FF
:05462600D288D2A82299
:06462000758F10D2A922E3
:102B7000E4900207F01245B0438E4012451F124008
:102B80005C124626124620D2031245691200061234
:102B9000462B1242B91245B01245FB12393E12447F
:102BA00028C289C28BC299D2AF90020B1212C70001
:102BB0000000057F02123D6A122828123F00EF60D4
:102BC0002DC2CB12353BEF24FE6011047011121A96
:102BD000911245CA1243751228288003124631907B
:102BE000020B1212C7000000057F02123D6A90021C
:102BF00090E054F1F0309304E0F0802830940C2001
:102C00000209900290E04402F0801930940C3002E6
:102C100009900290E04406F0800A20940790029008
:102C2000E04404F0900290E0540E7F02124201EF63
:102C30006089D2CB3001629002347410F0E4A3F0CA
:102C40009002327455F0A374AAF07B017A027932B3
:102C50007F0C123CA990023EE06017E4F012345061
:102C6000BF020F7BFF7A4279E2124533123EB61261
:102C70003E17124375124596122828E4900207F079
:102C8000900207E0FDFF7E00124479900207E00405
:102C9000F0E0C3940A40E9803C1237BC124375123D
:102CA0004596122009E4900207F07BFF7A4279F9F9
:102CB000124533900207E0FF7E001244AC12419BA4
:102CC0007BFF7A437908124533900207E004F0E075
:102CD000C3940A40D590020B1212C7000000027F75
:072CE00002123D6A022BBB4A
:103BCB0090029BEEF0A3EFF07C277D101211C71231
:103BDB00461390029BE0FEA3E0FF7C037DE81211ED
:103BEB00C77C007D0A1211C7AF0512461390029BCA
:103BFB00E0FEA3E0FF7C007D641211C77C007D0A10
:103C0B001211C7AF051246137F2E12460490029B6A
:103C1B00E0FEA3E0FF7C007D0A1211C77C007D0A49
:103C2B001211C7AF0512461390029BE0FEA3E0FFF3
:0C3C3B007C007D0A1211C7AF0502461381
:0300030002412592
:10412500C0E0C0F0C083C082C0D075D000C000C060
:1041350001C002C003C004C005C006C007123AB2E0
:10414500D007D006D005D004D003D002D001D000CE
:0B415500D0D0D082D083D0F0D0E03278
:03000B000241604F
:10416000C0E0C0F0C083C082C0D075D000C000C025
:1041700001C002C003C004C005C006C00712401839
:10418000D007D006D005D004D003D002D001D00093
:0B419000D0D0D082D083D0F0D0E0323D
:100DEE00021030E86480F8E933E83360110460F0F3
:100DFE00ED33EC337009E8FCE9FDEAFEEBFF22046B
:100E0E0060DED3EB9FEA9EE99DE8C2E78CF0C2F765
:100E1E0095F0400CE8CCF8E9CDF9EACEFAEBCFFB31
:100E2E00120FFB85D0F05804700320D5B3E8047080
:100E3E00075002B2D502103A92D5EC0460F7E4CC1A
:100E4E00C0E0C398F8603B94186008400DD0E0FBFA
:100E5E00021012E4FBFAC9FC8028E830E406E4C96B
:100E6E00FBE4CAFCE830E305E4C9CACBFCE854074E
:100E7E006010F8C3E913F9EA13FAEB13FBEC13FC59
:100E8E00D8F130F52FC3E49CFCEF9BFFEE9AFEEDFC
:100E9E0099FDD0E0FBEF4E4D4C701222DB03021099
:100EAE0037EC2CFCEF33FFEE33FEED33FDED30E788
:100EBE00EB021012EF2BFFEE3AFEED39FDD0E0FB08
:100ECE0050130BBB000302103AED13FDEE13FEEFB1
:080EDE0013FFEC13FC021012DB
:100EE60002103AEC5D046005E85904700302103004
:100EF600120FFB580460F6EC4860F2EC7004FDFE3D
:100F0600FF22C860DB2481C85009C39860025006DE
:100F16000210379850CAF582E9294B4A7005AB8210
:100F260002102675F0007C1A7880C3EF9BEE9AEDCE
:100F360099400DC3EF9BFFEE9AFEED99FDE842F056
:100F4600DC23ACF0D0E0FFD0E0FED0E0FDAB8220A9
:100F5600E7101BEB60BAEC2CFCEF33FFEE33FEED33
:100F660033FD021012E803F830E705C0F075F00013
:100F7600EF2FFFEE33FEED33FD40B830E7C280AA17
:100F860075F020800E75F010800575F0087D007EE6
:100F9600007F003392D530D503121297EC33401000
:100FA600EF33FFEE33FEED33FDEC33FCD5F0ED22EF
:0E0FB600E5F0247EA2D513CC92E7CDCEFF222B
:100FC400EDD2E7CD33EC3392D524814006E4FFFE25
:100FD400FDFC22FCE4CFCECDCC24E0501174FF8084
:100FE400EDC3CC13CCCD13CDCE13CECF13CF047021
:070FF400F030D5DE02129778
:100FFB00E9D2E7C933E833F892D5EDD2E7CD33EC3C
:07100B0033FC5002B2D522B4
:10101200EC30E7100FBF000C0EBE00080DBD00043F
:101022000BEB6014A2D5EB13FCED92E7FD2274FFEB
:10103200FCFDFEFF22E480F8A2D574FF13FC7D8044
:03104200E480EF58
:03000000023B3F81
:0C3B3F00787FE4F6D8FD758120023B86FB
:10104500E709F608DFFA8046E709F208DFFA803E8D
:1010550088828C83E709F0A3DFFA8032E309F6087A
:10106500DFFA8078E309F208DFFA807088828C83E2
:10107500E309F0A3DFFA806489828A83E0A3F60896
:10108500DFFA805889828A83E0A3F208DFFA804C70
:1010950080D280FA80C680D4806980F28033801047
:1010A50080A680EA809A80A880DA80E280CA8033B0
:1010B50089828A83ECFAE493A3C8C582C8CCC58328
:1010C500CCF0A3C8C582C8CCC583CCDFE9DEE780F8
:1010D5000D89828A83E493A3F608DFF9ECFAA9F077
:1010E500EDFB2289828A83ECFAE0A3C8C582C8CCCD
:1010F500C583CCF0A3C8C582C8CCC583CCDFEADEE6
:10110500E880DB89828A83E493A3F208DFF980CC47
:1011150088F0EF60010E4E60C388F0ED2402B40440
:101125000050B9F582EB2402B4040050AF232345E7
:0611350082239010957367
:10113B00BB010689828A83E0225002E722BBFE02B2
:09114B00E32289828A83E49322E5
:10115400BB010CE58229F582E5833AF583E0225050
:1011640006E92582F8E622BBFE06E92582F8E2229A
:0D117400E58229F582E5833AF583E49322B4
:10118100BB010689828A83F0225002F722BBFE014D
:02119100F32247
:10119300F8BB010DE58229F582E5833AF583E8F092
:1011A300225006E92582C8F622BBFE05E92582C83E
:0211B300F22226
:1011B500EF8DF0A4A8F0CF8CF0A428CE8DF0A42E4E
:0211C500FE2208
:1011C700BC000BBE0029EF8DF084FFADF022E4CC0C
:1011D700F875F008EF2FFFEE33FEEC33FCEE9DECD5
:1011E700984005FCEE9DFE0FD5F0E9E4CEFD22ED1B
:1011F700F8F5F0EE8420D21CFEADF075F008EF2F65
:10120700FFED33FD4007985006D5F0F222C398FD55
:051217000FD5F0EA22F2
:10121C00C5F0F8A3E028F0C5F0F8E582158270025D
:06122C001583E038F022FA
:10123200A3F8E0C5F025F0F0E5821582700215836F
:06124200E0C838F0E822CC
:10124800E88FF0A4CC8BF0A42CFCE98EF0A42CFC45
:101258008AF0EDA42CFCEA8EF0A4CDA8F08BF0A4C3
:101268002DCC3825F0FDE98FF0A42CCD35F0FCEB22
:101278008EF0A4FEA9F0EB8FF0A4CFC5F02ECD39E7
:0F128800FEE43CFCEAA42DCE35F0FDE43CFC2254
:1040A000C2D5E830E70FB2D5E4C39BFBE49AFAE44B
:1040B00099F9E498F8EC30E717B2D51240D612130C
:1040C00034E4C39BFBE49AFAE499F9E498F880039A
:1040D00012133430D50DE4C39FFFE49EFEE49DFD32
:0440E000E49CFC223E
:0E129700C3E49FFFE49EFEE49DFDE49CFC2268
:1012A500EB9FF5F0EA9E42F0E99D42F0EC6480C8C0
:0612B50064809845F02260
:0C12BB00ECF0A3EDF0A3EEF0A3EFF022A6
:1012C700A8828583F0D083D0821212DE1212DE123A
:1012D70012DE1212DEE473E493A3C583C5F0C5835F
:1012E700C8C582C8F0A3C583C5F0C583C8C582C871
:0112F70022D4
:103B4B00022B70E493A3F8E493A34003F68001F2F5
:103B5B0008DFF48029E493A3F85407240CC8C3337B
:103B6B00C4540F4420C8834004F456800146F6DF4A
:103B7B00E4800B0102040810204080902241E47E77
:103B8B00019360BCA3FF543F30E509541FFEE4933F
:103B9B00A360010ECF54C025E060A840B8E493A306
:103BAB00FAE493A3F8E493A3C8C582C8CAC583CA31
:103BBB00F0A3C8C582C8CAC583CADFE9DEE780BEE9
:01244F00008C
:1012F80075F008758200EF2FFFEE33FECD33CDCCAD
:1013080033CCC58233C5829BED9AEC99E58298402F
:101318000CF582EE9BFEED9AFDEC99FC0FD5F0D60C
:10132800E4CEFBE4CDFAE4CCF9A88222B800C1B936
:101338000059BA002DEC8BF084CFCECDFCE5F0CB74
:10134800F97818EF2FFFEE33FEED33FDEC33FCEBAD
:1013580033FB10D703994004EB99FB0FD8E5E4F968
:10136800FA227818EF2FFFEE33FEED33FDEC33FC55
:10137800C933C910D7059BE99A4007EC9BFCE99A49
:10138800F90FD8E0E4C9FAE4CCFB2275F010EF2F8E
:10139800FFEE33FEED33FDCC33CCC833C810D7078E
:1013A8009BEC9AE899400AED9BFDEC9AFCE899F8C9
:0E13B8000FD5F0DAE4CDFBE4CCFAE4C8F9225C
:00000001FF
