:104E2F00436865636B205349343433322E2E2E0D75
:104E3F000A004445564943455F545950453A20307E
:104E4F007825782E0D0A000D0A0044455649434532
:104E5F005F56455253494F4E3A20307825782E0DE4
:104E6F000A004445564943455F5354415455533AFC
:104E7F002061742069646C65206D6F64652E0D0A66
:104E8F00004445564943455F5354415455533A20C6
:104E9F006174205258206D6F64652E0D0A004445D1
:104EAF00564943455F5354415455533A206174203A
:104EBF005458206D6F64652E0D0A00437279737418
:104ECF00616C204F7363696C6C61746F72204C6FEF
:104EDF0061642043617061636974616E63653A2038
:104EEF0025780D0A0053493434333220494F204975
:104EFF006E69742E2E2E2E2E2E0D0A00494F20492C
:104F0F006E697420636F6D706C657465642E0D0A25
:104F1F0000534934343332206973206E6F74206626
:104F2F006F756E642E2E2E2E2E2E0D0A00534934C1
:104F3F00343332204750494F496E697420636F6D87
:104F4F00706C6574652C636F6E6669672064657637
:104F5F006963652E2E2E2E2E2E0D0A00436F6E6660
:104F6F0069672052462E2E2E2E2E2E0D0A005349E3
:104F7F0034343332496E697420636F6D706C6574AD
:104F8F00652E0D0A002072657620496E7465727267
:104F9F007570740D0A002073656E6420496E746518
:104FAF0072727570740D0A006D6F6465207265679B
:094FBF0069737465723A0D0A0071
:10790F00D3EF9400EE64809480400F7D817C14DC73
:0A791F00FEDDFAEF1F70E91E80E69E
:01792900223B
:077B7F00C2C3D2B3D2B2224F
:0977D9009002C9EFF07D017F0E62
:1077E20090020FEDF0C2B3EF4480FF127AF29002E2
:0977F2000FE0FF127AF2D2B3227B
:077A3A009002C8EFF07F0489
:0C7A4100C2B3127AF27FFF127AF2D2B3C5
:017A4D002216
:10693B007BFF7A4E792F127A76E4FF127A4190021E
:10694B000AEFF07BFF7A4E7941127A7690020AE0D9
:10695B00FF1276567BFF7A4E7956127A7690020AA0
:10696B00E0640860037F01227F01127A4190020AE2
:10697B00EFF07BFF7A4E7959127A7690020AE0FF9C
:10698B001276567BFF7A4E7956127A767F02127AFE
:10699B004190020AEFF0540F70087BFF7A4E797129
:1069AB00802290020AE0540FFFBF01087BFF7A4E52
:1069BB007990801090020AE0540FFFBF02097BFF11
:1069CB007A4E79AD127A767F09127A4190020AEFEC
:1069DB00F07BFF7A4E79CA127A7690020AE0FF12A8
:0D69EB0076567BFF7A4E7956127A767F0041
:0169F800227C
:10660B007D537F751277E27D4B7F761277E2E4FD47
:10661B007F771277E27D097F6E1277E27DD57F6FF0
:10662B001277E27D2C7F701277E27D807F58127794
:10663B00E27D1F7F6D1277E27D207F721277E27D04
:10664B002C7F1C1277E27D417F201277E27D607FE9
:10665B00211277E27D277F221277E27D527F231270
:10666B0077E2E4FD7F241277E27D047F251277E247
:10667B007D407F1D1277E27D0A7F1E1277E27D0F30
:10668B007F2A1277E27D037F1F1277E27D607F699D
:10669B001277E27D0C7F341277E27D2A7F351277F9
:1066AB00E27D027F331277E27D2D7F361277E27D1A
:1066BB00D47F371277E27D8D7F301277E2E4FD7F56
:1066CB00321277E27D637F711277E27DB47F09022C
:0266DB0077E264
:1069F9007BFF7A4E79F4127A76127B7F7BFF7A4F8E
:106A0900790B127A767F147E00801312693BEF604E
:106A1900127BFF7A4F7920127A767FF47E01127900
:106A29000F80E87DCA7F0B1277E27DCA7F0C12774F
:106A3900E27DCA7F0D1277E27F0A7E0012790F7B11
:106A4900FF7A4F793C127A767F03127A41127A3AA9
:106A59009002C9EFF07D807F071277E27F147E00F4
:106A690012790F7F03127A41127A3A9002C9EFF034
:106A79007BFF7A4F796B127A7612660B7DFF7F0561
:106A89001277E27DFF7F061277E27F03127A4112C5
:106A99007A3A9002C9EFF07D077F051277E2E4FDAB
:0E6AA9007F061277E27BFF7A4F797D027A76C4
:107A89007F03127A41127A3A1277D97D057F07026C
:027A990077E292
:10792A007F03127A41127A3A9002C9EFF07D027F00
:0B793A000E1277E27D097F070277E262
:107A9B007F03127A41127A3A1277D97D017F07025E
:027AAB0077E280
:1071430090020BEBF0A3EAF0A3E9F090020AEFF050
:01715300FD3E
:107154007F3E1277E2E490020EF090020AE0FF9084
:10716400020EE0FEC3EF6480F8EE64809850259030
:10717400020BE0FBA3E0FAA3E0F9EEFF3395E08F06
:1071840082F5831216FBFD7F7F1277E290020EE0F8
:0771940004F080C602792A15
:106CD6007F07127A41900204EFF07F03127A411285
:106CE6007A3A9002C9EFF09002C8E030E15B7BFF90
:106CF6007A4F7994127A767F4B127A41900205EF99
:106D0600F0BF0C2EE4900204F0900205E0FF900222
:106D160004E0C39F501C7F7F127A41900204E02456
:106D260055F582E43402F583EFF0900204E004F0B6
:106D360080D77D027F081277E2E4FD7F081277E2B2
:106D4600127A899002537401F09002C8E030E20C86
:0C6D56007BFF7A4F79A5127A76127A89B9
:016D6200220E
:107792007F07127A419002D0EFF07BFF7A4F79B7E0
:1077A200127A769002D0E0FF1276567BFF7A4E79FB
:0477B20056027A768B
:0C3A09004902A500000001050107E000D3
:097B6E00E4FB7D0E7FD002794595
:10687700E4FD7FD0127993AD07ED54F0C4540F7542
:10688700F00AA4FFED540F2F9002A5F07D017FD0F1
:10689700127993AD07ED54F0C4540F75F00AA4FFB5
:1068A700ED540F2F9002A6F07D027FD0127993ADA1
:1068B70007ED54F0C4540F75F00AA4FFED540F2FE1
:1068C7009002A7F07D047FD0127993AD07ED54F0C5
:1068D700C4540F75F00AA4FFED540F2F9002A8F0CF
:1068E7007D037FD01279939002A9EFF07D057FD0C9
:1068F700127993AD07ED5410C4540F75F00AA4FF35
:10690700ED540F2F9002AAF07D067FD0127993AD38
:1069170007ED54F0C4540F75F00AA424D0FFE5F036
:106927003407FEED540F7C002FFFEC3E9002ABF0D6
:03693700A3EFF0DB
:01693A00223A
:1066DD00900216E0FF75F00A84C454F0FEEF75F0D9
:1066ED000A84E5F02EFBE4FD7FD012794590021768
:1066FD00E0FF75F00A84C454F0FEEF75F00A84E5EE
:10670D00F02EFB7D017FD0127945900218E0FF75C8
:10671D00F00A84C454F0FEEF75F00A84E5F02EFB08
:10672D007D027FD0127945900219E0FF75F00A8441
:10673D00C454F0FEEF75F00A84E5F02EFB7D047F66
:10674D00D012794590021AE0FB7D037FD012794576
:10675D0090021BE0FF75F00A84C454F0FEEF75F053
:10676D000A84E5F02EFB7D057FD012794590021D40
:10677D00E02430FF90021CE034F8FE7C007D0A120C
:10678D00176EEFC4F8540FC868FFAB07E0FEA3E027
:10679D00FF7C007D0A12176EEB2DFB7D067FD0026C
:0267AD0079452C
:100026006275737920636865636B2E2E2E0D0A0048
:1000360000000000000000000000000000000000BA
:10004600000000000018188888286A4E0CE8E808A6
:1000560008181800000444446525341C0E0F1D348E
:100066006444040000F8F888F8F81090901010FE28
:10007600FE101000001F1F081F1F00000343407FD3
:100086007F0000000020644C0800FEFE929292FE63
:10009600FE00000000303C0F437E7E7E7E427E7E68
:1000A6007E7E4000000000F8F828F8FAAEACA8F80A
:1000B600F82828000040703F4F42662E3A123A2E2A
:1000C6006642400000202020A0E060FFFFE0C06004
:1000D600381800002030180E0741C0FF7F010306C4
:1000E6000C1810100080C0F0FE0E9090121E1CD04E
:1000F600D01000000000007F7F40414F4E607C5FC3
:100106004340400000F8F888F8F81090901010FE70
:10011600FE101000001F1F081F1F00000343407F32
:100126007F0000000000F0F20EECE4242424E4E456
:1001360004FCFC0000007F7F000F0F0909090F4F28
:10014600407F7F0000808282FEFE82828282FEFEE7
:1001560082828000004060381F07000000007F7F19
:100166000000000000001010121E1CF0F0181E16F1
:10017600101000000041416131190F07070F1931B6
:1001860061414100002038DFC7444444FCFC44443C
:10019600444404000404040707040404FFFF0404A1
:1001A60004040404000000FEFE222222222222224F
:1001B600FEFE000080C0703F0F020202020242C231
:1001C600FF7F0000000000FEFE828282828282FEA5
:1001D600FE000000000000FFFF404040404040FF9E
:1001E600FF000000000000F8F88C8E8B898888F8E4
:1001F600F8000000000000FFFF444444444444FF6C
:10020600FF0000004044C4C44444445010FFFF10A3
:1002160010F0F000103C3F1314BCF8703E0F41C0C4
:10022600C07F3F00101010FFFFB0B8D868290F2E0E
:1002360068E8B8180242C3FF7F40404242427E7ED1
:100246004242424040505E4E48FFFF484848F8F858
:1002560000FFFF0000003E3E02FFFF323E1E0F4F32
:10026600C0FF7F00000022323AAEA6E26331198950
:1002760081010000004262331B4BC2FE7E020A1A55
:10028600336746002030BCEF733088C8E8B99F8ECC
:10029600A8E8C888226767321292C0703F0F003FF5
:1002A6007F40717100083830FFFF202020FFFF20BB
:1002B600222E2C2004040603FFFFC0703E0F071EEB
:1002C6003860C08000048484C46474DF9F3464C4CE
:1002D60084840400417939003C7C40424E4C407095
:1002E600740D3931101C4C6434140507060414349B
:1002F60064541C0C004040414141417F7F414141D3
:100306004140400000F8F943424242FAFA42424272
:1003160042FEFE0000FFFF080C06033F3F03064CAB
:10032600C8FF7F000000FEFE42424242FAFA424205
:1003360042C2C20280E07F9FC060381E070140C0F3
:10034600C07F3F000000F8F8888888FFFF8888880B
:10035600F8F80000808081C54C78303F2F6040401F
:10036600C181808090D27634FFFF3476D2F0FF8F41
:1003760008F8F808829ADE776372DE8E80C0733FD3
:100386003F73C0801010FFFF9090FEFE9292F2F233
:10039600929E9E8042C2FF7F81E07F1FFCFC474702
:1003A60044FCFC00404042CECC40E0BE9E82829E91
:1003B600BEA020200000003FBF98C8436F3C386EA7
:1003C60047C18080001717D5D557577D7D5757D51C
:1003D600D51717004040407F7F5555555555557FD9
:1003E6007F404040404042CECC00FCFCA4A42622E4
:1003F600A3E362000040603F3F785F57584D474790
:100406004D5850400000FEFE02F2F21212F2F202C5
:10041600FEFE000000007F7F2027272424272720B8
:100426007F7F000020305C4F57545454545454D4AA
:10043600D404040000000000000000000000000FCB
:100446003F70F0F08080C06030182CE7C70C183081
:1004560060C080800000000202020282C2623A1E70
:100466000600000040404242424242FEFE424242F4
:10047600424240408080C060301C0F03030F1C3096
:1004860060C080801010D0FFFF94F4EFAFA4A4AF3B
:10049600EFE40400040703FFFF89CB6B3A1E1E3A04
:1004A6006BCB8880101090909090909010FFFF106A
:1004B60011171610002060603F3F101010030F1C2C
:1004C6003060F8F800002424242424FCFE22222391
:1004D60023220000020202020242C2FF7F0202023F
:1004E60002020202000000BEBE2A2AEAEA2A2A3EC8
:1004F6003E0000000044464B4949497F7F4949492F
:10050600494140000004FFFF2424FFFF04FEFE22B1
:1005160022FEFE0088C86F2F0919BFEF783F0F42F1
:10052600C2FF7F0080808080808080808080808085
:1005360080808080000000000000000000000000B5
:100546000000000000000808080808080808080855
:1005560008080000101010101010101010101010C5
:100566001010101000048484848484848484848419
:1005760084840400202020202020202020202020E9
:100586002020202000FCFC0404FCFC0404FCFC04E9
:1005960004FCFC00007F7F2C27232020202123221F
:1005A600227F7F000002424242C2FE7E424242C297
:1005B600C202020040404040787F47404040407FB2
:1005C6007F40404020202020202021232E2C202048
:1005D60020202020004060301C0F0300000103068D
:1005E6001C7860004042CECC00445454547F7F5463
:1005F6005454444000007F7F3010FFFF151555D539
:10060600FF7F000088E87FDFC818D8DC56D3D39672
:100616009CD8D010091919FFFF05FFFF92FFFF5F55
:10062600DFFF7F00000000000001E3FEFCE00000A9
:100636000000000080C060301C0F030000030F3C68
:1006460070C08080109CCC44E4E495B7E664349492
:10065600C4D49C0C02027A7B4143437E7E424243D1
:10066600FBF800000484E4FC5CC4C402F2F282825B
:10067600FEFE808002037F7F103F3F08080808487F
:10068600C8C87F3F4070FFEF646C487F7F48487F53
:100696007F48484001017F7F3111FFFF49494949A1
:1006A600FFFF00004042CECC00809E9E9292929226
:1006B6009E9E800000007F7FB494C464341F1F3464
:1006C60064C48484101010FFFF9090F0F010FFFFB8
:1006D60010F0F0000444C6FF7F0100FFFF427F7F59
:1006E60042FFFF004040C0DF5F55D5D55555555FE9
:1006F6005F40404020607F3F3515FFFFD76F393D93
:100706006FC3808020202020202020FFFF20202073
:10071600202020208080C060301C0F03030F1C3077
:1007260060C08080000000E0E00000FFFF000020C5
:1007360060C08000080C07030040C0FF7F00000077
:1007460000010F0E80E0F8FF0704747455575654E5
:10075600747404000000FFFF03030545C5FD7D0515
:1007660005050303206464B494BFBF809FBFA4A69D
:10077600A23A3800000000FFFF0A0A0A0A4ACAFF26
:100786007F000000404042465CD8C07F7FC0D05802
:100796004E4640408080C060381F0700003F7F40C3
:1007A600404078784060F8FFF7F0B0DC5F77A4F45B
:1007B6005CCC80800000FFFF1F9F92D25B692D36C4
:1007C6001A0800000484848484FCFC70FCCF0B08A7
:1007D600F8F80808007F7F30101888C061371E1EA1
:1007E6003761C08020303CEFE72424E2EE2CBFBF07
:1007F60028EEE6000101017F7F3191CF6F301F1F88
:10080600306FCF80101C0C24242425272624242472
:1008160024141C0C008181C1713F0F01017FFF81EF
:1008260081F1F1000000F8F88888888808FFFF0940
:100836000BCAC80880E07F1F10303F9FC061371E7B
:100846003E67F9F80080E0F8FF073E3E22E2E2222A
:100856003E3E0000010100FFFF31190D07FFFF07B3
:100866000D193120040484E4FC1F27242424A4E465
:1008760064240404020301FFFF020242C2FF7F0256
:100886000202020240445475E7E6745444FCFC44F8
:10089600C4C6424020325ACAFF7F0A9AF27F1F001E
:1008A600FFFF00000202F2F2929292FEFE929292F4
:1008B600F2F202020404FFFF04040407070444C41E
:1008C600FF7F040400020E8CE0E0C0703FCFC80832
:1008D6002838180002027E7F81C060381E07071E76
:1008E6003860C080000202020282C2F2FE4EC2825C
:1008F6000202020010180C06030100FFFF000001AF
:10090600030E0C0010180C87EF7C94949C8F87ECD8
:10091600FC948484040603FFFF0000020E4CC0FF13
:100926007F00000000F8F923222222A2FAFA2222EE
:1009360022FEFE0000FFFF080C0613313F1F004099
:10094600C0FF7F0000E0E0FFFF302888F87F0FE857
:10095600E8088888010100FFFF101C8FC7673B1F4E
:100966001F7AE381203018FFF7545454545454F43A
:10097600F4040400809090D94D5F772525755D4D70
:10098600C58080807E7E5AFEFE5A7E7E2020FFFF36
:10099600222E2C20E9E9696F6765B5F5703E0F0FC9
:1009A6003E70C080404042CECC00000000FFFF00F9
:1009B600000000000000003FBFD868381F07071F6F
:1009C6003860C0800000007F7F4949494949497F16
:1009D6007F00000081C1613D3D61C1FFFF898989BA
:1009E6008989818100028282C26232FAFE262262EF
:1009F60042C28200010101FCFC444445454444FCDA
:100A0600FC0001010484E4FC5CC4E430F8EF27E454
:100A1600F43CECE002037F7F103FBFE07F1F093FFD
:100A26007FC9FF7F101C4C44444445C7C644444418
:100A360044541C0C80C0603E3E60407F7F4444446A
:100A460044444040829A9E97FBFA52D2FE7E12128E
:100A5600F3F11110000101FEFF939393929292FE1F
:100A6600FF0300000040424242C2FE7EC2C2424232
:100A76004240400080C060301C0F03003F7F404072
:100A86004070700000F8F808080888FFFF8808081A
:100A960008F8F80000FFFF080C0603010001034EEA
:100AA600CCFF7F00101C4C643494C56766C4943434
:100AB60064541C0C040406FEFF454444444445FFAC
:100AC600FE06040400000000000000FFFF080808FE
:100AD600080808080000FFFF4141414141414141EA
:100AE600FFFF00002030BCEF6338989090FFFFD9DD
:100AF6004B4A4840226767321212524060331F1C2D
:100B06003663F9F80000F0F0101010FFFF10101017
:100B1600F0F0000000000F0F040404FFFF040404BB
:100B26000F0F0000040404F4F4D4F5A7A6F4D4F4DB
:100B3600F404040400FEFE02123A3E17131A3A7237
:100B4600C2FE7E000000183C243C18000000000095
:100B560000000000E0380C0602030101010101015A
:100B6600010101010101010101010101010101016F
:100B7600010101010101010101010101010101015F
:100B8600010302060C38E0404040404040404040EF
:100B9600C000FF0000000000000000000000000090
:100BA600000000000000000000000000000000003F
:100BB600000000000000000000000000000000002F
:100BC60000000000FF40C000000000000000FF0021
:100BD600FF00000000000000000000000000000010
:100BE60000000000000000000000000000000000FF
:100BF60000000000000000000000000000000000EF
:100C06000000FF00FF0000F0FFF00000FF00FF0003
:100C160000000000000000000000000000000000CE
:100C260000000000000000000000000000000000BE
:100C360000000000000000000000000000000000AE
:100C4600FF00FF001CFFFFFF1C00FF00FF800000ED
:100C5600000000000000000000000000000000008E
:100C6600000000000000000000000000000000007E
:100C76000000000000000000000000000080FF707F
:100C86005F0000FFFFFF00005F700003060C0818FE
:100C9600101010101010101010101010101010104E
:100CA600101010101010101010101010101010103E
:100CB6001010101010101018080C16131808081031
:100CC600101808181010100800000000000000009E
:100CD6000000000000000000000000F8F80000001E
:100CE600000030333300000000100C06100C060024
:100CF60000000000000000004040F840F8400000FE
:100D0600043E053F05040000007088FC0830000022
:100D1600001820FF211E0000F008F0807008000077
:100D260000211C031E211E0000F088700000000038
:100D36001F2027281F2110000000000000000000CF
:100D460080B0F07000000000000000F0FC0E020011
:100D56000000000F3F70400000061EF8E000000093
:100D66000060781F070000004040C0F0F0C040401F
:100D76000202030F0F030202000000F0F000000061
:100D86000101011F1F01010100020206040000000B
:100D9600000000000000000000000000000000004D
:100DA6000101010101010100000000000000000036
:100DB600003030300000000000000000C0F83C0C9D
:100DC6000060783F07010000E0F0180818F0E00026
:100DD6000F1F3020301F0F00001010F8F800000021
:100DE6000020203F3F2020000070780808F8F0001F
:100DF60000303C2E233130000030388888F87000EF
:100E060000183820313F1E000080C060F8F800004E
:100E1600060705243F3F240400F8F8888888080060
:100E260000193921313F1F00E0F098888898180092
:100E36000F1F3120313F1F0000383808E8F818002E
:100E46000000003F3F00000070F8988898F8700096
:100E56001E3F2121313F1E00F0F8080818F8E00077
:100E6600313322323B1F07000000C0C0C000000023
:100E760000003030300000000000008080000000DC
:100E8600000080E060000000000080E070180800AC
:100E96000001030E1C30200040404040404040000E
:100EA600040404040404040000083870C080000030
:100EB6000020381C060301007078080818F8F000B6
:100EC6000000303737010000C0F0F8E8E8F8F0E03D
:100ED600071F3F2727371F0B0000E0F8F8E0000048
:100EE600203C3F23233F3C2008F8F88888F8700010
:100EF600203F3F20313F1E00E0F038080838380018
:100F06000F1F30202030100008F8F80818F0E00015
:100F1600203F3F20301F0F0008F8F888E8F8180037
:100F2600203F3F202333300008F8F888E8E81810FF
:100F3600203F3F2003030000C0F03808083838007F
:100F4600071F3820223E1E0208F8F80808F8F8089D
:100F5600203F3F21213F3F20000808F8F8080800FD
:100F66000020203F3F202000000808F8F80808006D
:100F7600C0C080FF7F00000008F8F8C8E8381808ED
:100F8600203F3F21273E382008F8F80800000000DF
:100F9600203F3F202030300008F8F800F8F808001D
:100FA600203F003F003F200008F8F8F8C8F8F8088E
:100FB600203F3F231F3F3F00E0F0180818F0E000F5
:100FC6000F1F3020301F0F0008F8F80808F8F0004F
:100FD600203F3F2101010000E0F0180818F0E00072
:100FE6000F1F3C247C7F4F0008F8F88888F87000B3
:100FF600203F3F21073E38200070F8880818180067
:1010060000303021233F1E00181808F8F808181879
:101016000000203F3F20000008F8F80808F8F8080C
:10102600001F3F20203F1F000878F88888F87808BE
:1010360000000F3F3F0F000008F8FCFCF8F8F80826
:1010460000073F3F3F3F07000838F8E8E8F8180870
:1010560020303C2F2F3E38200838F8C8C8F838080A
:101066000000203F3F200000101808C8F83808008C
:10107600303C2F2320301000000000FEFE0202004C
:101086000000007F7F404000001CFCE000000000E4
:10109600000000031F7C6000000202FEFE0000004C
:1010A6000040407F7F0000000000040606040000A8
:1010B600000000000000000000000000000000002A
:1010C600808080808080808010161E0E00000000C8
:1010D600000000000000000000008080808080008A
:1010E600001D3D26223F3F2008F8F8808080000042
:1010F600003F3F21203F1F0000008080808080004D
:10110600001F3F31203111000000808088F8F80070
:10111600001F3F21203F3F2000008080808000008C
:10112600001F3F22223313008080F0F888981800B1
:1011360000203F3F2020000000008080808080004B
:10114600006BFF9497F3600008F8F88080808000B9
:10115600203F3F21203F3F200080809898000000DC
:101166000020203F3F20200000008080989800004B
:1011760000C0C080FF7F000008F8F88080808000F3
:10118600203F3F263F392000000808F8F8000000FD
:101196000020203F3F20200080808080808080804B
:1011A600203F3F203F3F203F80808080808080001E
:1011B600203F3F2100203F3F0000808080800000CC
:1011C600001F3F31213F1F0080808080808000000B
:1011D60080FFFFA1303F1F000000808080808000DC
:1011E600001F3F21A0FFFF808080808080808000DC
:1011F60020203F3F21210100000080808080800068
:1012060000333724243D1900008080E0E080800010
:101216000000001F3F20200080808000808080002A
:10122600003F3F20203F3F2080808080808080805C
:1012360000031F3C3C1F03008080C0C0808080806C
:10124600000F3F3F3F3F0F008080808080808000FE
:1012560020313F2E3F31200080808080808080803A
:101266008083CF7E3E0F01000080808080808000DA
:081276000021393C2733300050
:103A150060C0000000000000000000000000000081
:103A25000000000000000000000000000000000091
:103A35000000000000000000000000000000000081
:103A45000000000000000000000000000000000071
:103A55000000000000000000000000000000000061
:103A65000000000000000000000000000000000051
:103A75000000000000000000000000000000000041
:103A85000000000000000000000000000000000031
:103A95000000000000000000000000000000000021
:103AA5000000000000000000000000000000000011
:103AB5000000000000000000000000000000000001
:103AC50000000000000000000000000000000000F1
:103AD5000000000060C000C0000000000000000001
:103AE50000000000000000000000000000000000D1
:103AF50000000000000000000000000000000000C1
:103B050000000000000000000000000000000000B0
:103B150000000000000000000000000000000000A0
:103B25000000000000000000000000000000000090
:103B35000000000000000000000000000000000080
:103B45000000000000000000000000000000000070
:103B55000000000000000000000000000000000060
:103B65000000000000000000000000000000000050
:103B75000000000000000000000000000000000040
:103B85000000000000000000000000000000000030
:083B9500000000000000000028
:0478D6007F057E00AC
:1078DA00D3EF9400EE9400400F7D147C32DCFEDD81
:0878EA00FAEF1F70EB1E80E8AD
:0178F2002273
:107ABF00D3EF9400EE94004007EF1F70F31E80F099
:017ACF002294
:047B9E0043BB602263
:1072EA0090021EE0FF90021DE04440FBE4FD127391
:0C72FA0006900221E044B8FBE4FD7F0791
:10730600EF30E002C2C2EF30E102C291EF30E2029A
:10731600C292D2C6ED6004D2C58002C2C5C2C1AF58
:10732600038F80C2C6D2C2D291D2927F017E000262
:0273360078DA03
:0773C800900295E0FF7D013A
:1073CF007580FFEFB40104C2C2800EEFB40204C295
:1073DF00918006EFB40402C292ED6004D2C5800220
:1073EF00C2C5D2C100D2C600AC80C2C6C2C1D2C211
:0D73FF00D291D2927F017E00127ABFAF04BE
:01740C00225D
:0570E900900217EFF01A
:1070EE007BFF7A007926127A76E4900218F09002ED
:1070FE0017E030E00DA3E0FBE4FD7F011273CFEB50
:10710E004FF0900217E030E10DA3E0FBE4FD7F02AB
:10711E001273CFEB4FF0900217E030E20DA3E0FBBD
:10712E00E4FD7F041273CFEB4FF0127AFF9002183A
:04713E00E020E7ACBA
:01714200222A
:107AAD00C2CA7F507E001278DAD2CA7FA07E000251
:027ABD0078DA75
:1077FB007F071270E9E4FAEA1272FFE4F9E4FB7D09
:10780B00017F0712730609E9B440F20AEAB408E7EC
:01781B00224A
:10774100C2CB1278D6127AAD7B3E1273021278D672
:107751007BC01273021278D61277FB1278D67B3F68
:097761001273021278D6D2CB2279
:10740D007F071270E97B40E4FD7F011273067BBAA2
:10741D00E4FD7F01127306E4FAE4F97BFF7D017F41
:10742D000112730609E9B440F27B40E4FD7F0112BD
:10743D007306EA240344B8FBE4FD7F011273060AC8
:04744D00EAB401D5C7
:017451002218
:107452007F071270E97B40E4FD7F021273067BBA5C
:10746200E4FD7F02127306E4FAE4F97BFF7D017FFB
:107472000212730609E9B440F27B40E4FD7F021276
:107482007306EA240344B8FBE4FD7F021273060A82
:04749200EAB401D582
:0174960022D3
:105AC200900224EBF0A3EAF0A3E9F0900222EFF0B7
:035AD200A3EDF051
:105AD500EF1425E0900222F0ED24FFFFE434FFFEF1
:105AE500EF7802CEC313CE13D8F9FF7007900229C1
:105AF50004F08016EFB401089002297402F0800AC0
:105B0500EFB402069002297404F0900223E01454C5
:105B150003C454F0F0FE900229E0FFEE4440FBE49C
:105B2500FD127306E0FF900222E044B8FBE4FD128B
:105B35007306E4900228F0900227E090022960188D
:105B4500E0FF900224E0FBA3E475F0011217D9A948
:105B5500F0FA1216E2F48015E0FF900224E0FBA3B0
:105B6500E475F0011217D9A9F0FA1216E2FB7D01CE
:105B7500127306900228E004F0E0C3941040B89038
:105B85000229E0FF900223E04440FBE4FD12730686
:105B9500900229E0FF900222E00444B8FBE4FD12E4
:105BA5007306E4900228F0900227E090022960181D
:105BB500E0FF900224E0FBA3E475F0011217D9A9D8
:105BC500F0FA1216E2F48015E0FF900224E0FBA340
:105BD500E475F0011217D9A9F0FA1216E2FB7D015E
:0F5BE500127306900228E004F0E0C3941040B859
:015BF400228E
:05598900E0900241F076
:10598E0090023EEBF0A3EAF0A3E9F090023CEFF0B8
:03599E00A3EDF086
:1059A100EF1425E090023CF0ED24FFFFE434FFFE0C
:1059B100EF7803CEC313CE13D8F9FF7007900243DB
:1059C10004F08016EFB401089002437402F0800ADB
:1059D100EFB402069002437404F090023DE01454C7
:1059E1000775F008A4F0FE900243E0FFEE4440FB8F
:1059F100E4FD127306E0FF90023CE044B8FBE4FDD5
:105A0100127306E4900242F0900241E0900243607A
:105A110018E0FF90023EE0FBA3E475F0011217D9F4
:105A2100A9F0FA1216E2F48015E0FF90023EE0FBC5
:105A3100A3E475F0011217D9A9F0FA1216E2FB7D61
:105A410001127306900242E004F0E0C3940840B8EA
:105A5100900243E0FF90023DE04440FBE4FD1273FD
:105A610006900243E0FF90023CE00444B8FBE4FDF1
:105A7100127306E4900242F0900241E0900243600A
:105A810018E0FF90023EE0FBA3E475F0011217D984
:105A9100A9F0FA1216E2F48015E0FF90023EE0FB55
:105AA100A3E475F0011217D9A9F0FA1216E2FB7DF1
:105AB10001127306900242E004F0E0C3940840B87A
:015AC10022C2
:10702F00900218EFF0A3EDF0A3EBF0A3EAF0A3E9C1
:10703F00F090021AE0FBA3E0FAA3E0F91216E26067
:10704F003D75F010A424CEF9740A35F0FA7BFF9049
:10705F000218E0FFA3E0FD90021D1259899002195A
:10706F00E004F0E0D3941840097401F0900218E0A6
:0F707F0004F090021BE475F0011217C380B322D6
:08514D0090020AEFF0A3EDF05F
:1051550078107C027D017BFF7A0079367E007F0A1C
:105165001216BCE490021AF0A37409F0E4A3F0A3AC
:10517500F0A312192C0000000190020CE0FCA3E042
:10518500FDA3E0FEA3E0FFEC33501690021C740172
:10519500F090020CA3A3A3E012186B90020C121955
:1051A5002090020CE0FCA3E0FDA3E0FEA3E0FFECF1
:1051B5004D4E4F6074E47B0AFAF9F890020CA3A3F4
:1051C500A3E01274DBAC00AD01AE02AF0390021E8A
:1051D50012192090021EA3A3A3E02430FF90021A07
:1051E500E0FE04F074102EF582E43402F583EFF04E
:1051F50090020CE0FCA3E0FDA3E0FEA3E0FFE47B4E
:105205000AFAF9F81274DB90020C12192090021AAE
:10521500E06402708CE0FF04F074102FF582E43432
:1052250002F583742EF00251A690021AE0D394037E
:10523500502AE0FF04F074102FF582E43402F58360
:105245007430F090021AE0B402DFFF04F074102FFE
:10525500F582E43402F583742EF080CD90021CE0D3
:10526500601490021AE0FF04F074102FF582E43404
:1052750002F583742DF0E490021BF090021AE0FF12
:10528500A3E0FEC39F503F74102EF582E43402F56F
:1052950083E075F010A424CEF9740A35F0FA7BFF8B
:1052A50090020AE0FFA3E0FD14F0E412598A90028F
:1052B5000BE0700A90020AE004F0A37418F0900263
:0652C5001BE004F080B5BF
:0152CB0022C0
:0B493900900222EFF0A3EDF0A3EBF0E2
:10494400782A7C027D017BFF7A0079407E007F0A11
:104954001216BCE4900234F0A37409F0E4A3F0A3AB
:10496400F0A312192C00000001900225E0FCA3E042
:10497400FDA3E0FEA3E0FFEC335016900236740171
:10498400F0900225A3A3A3E012186B90022512193C
:1049940020900224E0606F900224E0FF14F0EFD333
:1049A40094005003024A78E47B0AFAF9F8A3E0FC85
:1049B400A3E0FDA3E0FEA3E0FF1274DBAC00AD01B5
:1049C400AE02AF03900238121920900238A3A3A3B9
:1049D400E02430FF900234E0FE04F0742A2EF582C5
:1049E400E43402F583EFF0900225E0FCA3E0FDA39C
:1049F400E0FEA3E0FFE47B0AFAF9F81274DB90020C
:104A0400251219208091900225E0FCA3E0FDA3E08B
:104A1400FEA3E0FFEC4D4E4F605AE47B0AFAF9F82E
:104A2400900225A3A3A3E01274DBAC00AD01AE0297
:104A3400AF03900238121920900238A3A3A3E024F4
:104A440030FF900234E0FE04F0742A2EF582E43440
:104A540002F583EFF0900225E0FCA3E0FDA3E0FE65
:104A6400A3E0FFE47B0AFAF9F81274DB9002251242
:104A740019208092900236E06014900234E0FF0422
:104A8400F0742A2FF582E43402F583742DF0E49057
:104A94000235F0900234E0FFA3E0FEC39F5041745E
:104AA4002A2EF582E43402F583E075F010A424CEB6
:104AB400F9740A35F0FA7BFF900222E0FFA3E0FDCF
:104AC40014F0900229125989900223E0700A90028E
:104AD40022E004F0A37418F0900235E004F080B3EF
:014AE40022AF
:0A584B0090020EEDF0AC07A3EBF0A5
:10585500E490021AF0EB24FFFFE434FFFEEF780337
:10586500CEC313CE13D8F90490020FF0EC24FFFF3A
:10587500E434FFFEEF7803CEC313CE13D8F99002BC
:1058850016F090020EE0FF14543F900217F0FDEF62
:1058950024FFFFE434FFFEEF7806CEC313CE13D802
:1058A500F9FF7401A807088002C333D8FCFF9002F2
:1058B50018F090021AF0ED4440FBE4FD12730690D7
:1058C50002161272FEE4900214F090020FE0FF90AF
:1058D5000214E0C39F4003025988E4A3F09002102C
:1058E500E0FF900215E0FEC39F506AEEFF90020EA6
:1058F500E02FFFE433CF24FFCF34FFFEEF7806CE51
:10590500C313CE13D8F975F00384AFF07401A8075B
:10591500088002C333D8FCFF900219F0A3E06F6042
:105925000E900219E0FFA3F07B40E4FD1273069090
:105935000219E0FF900211E0FBA3E475F0011217D4
:10594500D9A9F0FA1216E2FB7D0112730690021531
:10595500E004F08088900218E0FF90021AF09002AF
:1059650017E04440FBE4FD127306900214E0FF903B
:105975000216E02F5407041272FF900214E004F09F
:035985000258CFF6
:0159880022FC
:0F40690090028BEFF090028DEBF090028CEDF057
:10407800E4900297F0ED14543F900294F0FCED2484
:10408800FFFFE434FFFEEF7806CEC313CE13D8F952
:10409800FF7401A807088002C333D8FCFF9002957B
:1040A800F0900297F0EC4440FBE4FD127306900296
:1040B8008BE0141272FF1273C8E4900292F090021F
:1040C8008DE0FF900292E0C39F4003024199E4A370
:1040D800F090028EE0FF900293E0FEC39F4003023F
:1040E8004169EEFF90028CE02FFFE433CF24FFCF2D
:1040F80034FFFEEF7806CEC313CE13D8F975F0035C
:1041080084AFF07401A807088002C333D8FCFF907D
:104118000296F0A3E06F600E900296E0FFA3F07B9A
:1041280040E4FD1273069002961273CBAD0790021D
:104138008EE0FF900292E08FF0A4FFA3E07A002FB8
:10414800FFEA35F0FE90028FE0FBA3E0FAA3E0F966
:104158008F828E83ED12173A900293E004F00240AA
:10416800D9900295E0FF900297F0900294E04440C5
:10417800FBE4FD127306900292E0FF90028BE02FA1
:1041880054071272FF1273C8900292E004F00240C2
:10419800C67F071270E9900294E04440FBE4FD7F7B
:1041A8000212730690028BE01444B8FBE4FD7F0210
:1041B800127306E4900292F090028DE0FF90029252
:1041C800E0C39F506EE4A3F090028EE0FF9002934C
:1041D800E0FDC39F5031900292E08FF0A47C002D47
:1041E800FFEC35F0FE90028FE0FBA3E0FAA3E0F9C4
:1041F8008F828E831216FBFB7D017F02127306905D
:104208000293E004F080C1900294E04440FBE4FD96
:104218007F02127306900292E0FF90028BE02F5407
:104228000744B8FBE4FD7F02127306900292E00493
:03423800F080858E
:01423B002260
:072EA600900218EDF0AC07EB
:102EAD00E4900220F0EC24FFFFE434FFFEEF780302
:102EBD00CEC313CE13D8F9900221F0EC1454079021
:102ECD000224F0EC2B145407A3F0900224E0FDFF34
:102EDD00EB2FFFE433FEEF7803CEC313CE13D8F9F7
:102EED00FFED2B540760047E0180027E00EE2FFF64
:102EFD00900223F0900221E02F14A3F0900218E02D
:102F0D00FD14543F90021DF0ED24FFFFE434FFFE4D
:102F1D00EF7806CEC313CE13D8F9FF7401A80708B6
:102F2D008002C333D8FC90021EF0900220F0900274
:102F3D0024E07003022FFE1272EA90021E1273CB70
:102F4D00E490021BF090021AE0FFA3E0FEC39F4045
:102F5D0003022FF6EEFF900218E02FFFE433CF248B
:102F6D00FFCF34FFFEEF7806CEC313CE13D8F9751D
:102F7D00F0038490021CE5F0F0E0FF7401A807084F
:102F8D008002C333D8FCFF90021FF0A3E06F600EE8
:102F9D0090021FE0FFA3F07B40E4FD127306900248
:102FAD001F1273CB90021BE0FE2400F582E4340067
:102FBD00F583EFF074002EF582E43400F583C083C1
:102FCD00C082E0FF900224E0FEC374079EFE747F72
:102FDD00A806088003A2E713D8FB5FD082D083F048
:102FED0090021BE004F0022F5290021EE09002208E
:102FFD00F0900225E070030230CF90021EE0FF90AA
:10300D00021DE04440FBE4FD127306900222127291
:10301D00FE90021E1273CBE490021BF090021AE098
:10302D00FFA3E0FEC39F40030230C7EEFF900218DE
:10303D00E02FFFE433CF24FFCF34FFFEEF7806CE31
:10304D00C313CE13D8F975F0038490021CE5F0F08C
:10305D00E0FF7401A807088002C333D8FCFF90027B
:10306D001FF0A3E06F600E90021FE0FFA3F07B4006
:10307D00E4FD12730690021F1273CB90021BE0FE4B
:10308D0024C0F582E43400F583EFF074C02EF58290
:10309D00E43400F583C083C082E0FF900225E0FE9A
:1030AD0074FFA806088002C333D8FC5FD082D0839A
:1030BD00F090021BE004F002302990021EE0900215
:1030CD0020F01272EAE4FA900223E0FFEAC39F4077
:1030DD00030231EBE490021BF090021AE0FFA3E033
:1030ED00FEC39F40030231C7EEFF900218E02FFF91
:1030FD00E433CF24FFCF34FFFEEF7806CEC313CEDB
:10310D0013D8F975F0038490021CE5F0F0E0FF741C
:10311D0001A807088002C333D8FCFF90021FF0A35B
:10312D00E06F600E90021FE0FFA3F07B40E4FD1204
:10313D007306900224E0F9602EA3E0602A9002232A
:10314D00E0B4012390021FE0FF90021BE0FE24C0BB
:10315D00F582E43400F583E0FD74002EF582E4344D
:10316D0000F583E04D8044E96018EA701590021F68
:10317D00E0FF90021BE02400F582E43400F583E0CB
:10318D008029900225E0601D900223E014B5021500
:10319D0090021FE0FF90021BE024C0F582E4340092
:1031AD00F583E0800690021FE0FFE4FB7D011273C2
:1031BD000690021BE004F00230E690021EE0FF9044
:1031CD000220F090021DE04440FBE4FD12730690D6
:0E31DD000221E02A5407041272FF0A0230D4C5
:0131EB0022C1
:0727CB00900212EDF0AC07D3
:1027D200E490021AF0900220F0EC24FFFFE434FFB0
:1027E200FEEF7803CEC313CE13D8F990021BF0ECA0
:1027F20014540790021EF0EC2B145407A3F090021D
:102802001EE0FDFFEB2FFFE433FEEF7803CEC31390
:10281200CE13D8F9FFED2B540760047E0180027EAF
:1028220000EE2FFF90021DF090021BE02F14A3F088
:10283200900212E0FD14543F900217F0ED24FFFFC6
:10284200E434FFFEEF7806CEC313CE13D8F9FF743B
:1028520001A807088002C333D8FC900218F0900246
:102862001AF090021EE0700302293B900218E0FF6A
:10287200900217E04440FBE4FD12730690021B1223
:1028820072FE9002181273CBE4900215F0900214BB
:10289200E0FFA3E0FEC39F4003022933EEFF900254
:1028A20012E02FFFE433CF24FFCF34FFFEEF780690
:1028B200CEC313CE13D8F975F00384900216E5F057
:1028C200F0E0FF7401A807088002C333D8FCFF9030
:1028D2000219F0A3E06F600E900219E0FFA3F07BF3
:1028E20040E4FD1273069002191273CB900215E0B8
:1028F200FE2400F582E43400F583EFF074002EF537
:1029020082E43400F583C083C082E0FF90021EE0BF
:10291200FEC374079EFE7480A806088003A2E71314
:10292200D8FB4FD082D083F0900215E004F0022849
:102932008F900218E090021AF090021FE0700302DA
:102942002A1E900218E0FF900217E04440FBE4FDCB
:1029520012730690021C1272FE9002181273CBE4DC
:10296200900215F0900214E0FFA3E0FEC39F400323
:10297200022A16EEFF900212E02FFFE433CF24FF6B
:10298200CF34FFFEEF7806CEC313CE13D8F975F01D
:102992000384900216E5F0F0E0FF7401A8070880B6
:1029A20002C333D8FCFF900219F0A3E06F600E90CF
:1029B2000219E0FFA3F07B40E4FD127306900219B6
:1029C2001273CB900215E024C0F582E43400F58343
:1029D200EFF01D90021FE0FEEDC39E500AA3E0251A
:1029E200E04401F00D80EC900215E024C0F582E491
:1029F2003400F583C083C082E0FF900220E0FEEF46
:102A02004ED082D083F0E4900220F0900215E004D0
:102A1200F0022966900218E090021AF0900218E083
:102A2200FF900217E04440FBE4FD12730690021B84
:102A32001272FEE4FA90021DE0FFEAC39F40030215
:102A42002B4FE4900215F0900214E0FFA3E0FEC3C6
:102A52009F4003022B2BEEFF900212E02FFFE43384
:102A6200CF24FFCF34FFFEEF7806CEC313CE13D8A8
:102A7200F975F00384900216E5F0F0E0FF7401A806
:102A820007088002C333D8FCFF900219F0A3E06F5D
:102A9200600E900219E0FFA3F07B40E4FD12730682
:102AA20090021EE0F9602EA3E0602A90021DE0B4BD
:102AB2000123900219E0FF900215E0FE24C0F58286
:102AC200E43400F583E0FD74002EF582E43400F571
:102AD20083E05D803CE96018EA7015900219E0FF1E
:102AE200900215E02400F582E43400F583E08021B1
:102AF20090021FE0601E90021DE014B502169002C3
:102B020019E0FF900215E024C0F582E43400F58359
:102B1200E0FB8007900219E0FF7BFF7D0112730644
:102B2200900215E004F0022A49900218E0FF900298
:102B32001AF0900217E04440FBE4FD127306900283
:0D2B42001BE02A5407041272FF0A022A3712
:012B4F002263
:10733800A2A282A082A482A182A382C84038127A23
:10734800FFA2A282A082A482A182A382C840242094
:10735800A0037F012220A2037F022220A4037F062C
:107368002220A1037F052220C8037F032220A30334
:097378007F04227F00227F002225
:0B7B63004E4F2E003A0D0A000D0A00E4
:103B9D0048027B0000000000000000480283020282
:063BAD0002020202020206
:017BA20022C0
:067A0E00C2C47F017E00EE
:107A1400EF1FAC0670011E4C6005127BA280F122A0
:06785C00D2C47F017E0092
:10786200EF1FAC0670011E4C600E127BA2127BA2AF
:09787200127BA2127BA280E82225
:10797A00D3EF9400EE9400400F7D817C14DCFEDD91
:08798A00FAEF1F70EB1E80E80C
:0179920022D2
:10776A00E4FDD2C47F01FE127862C2C47F647E0047
:10777A00127862D2C47F0C7E00127862A2C4E4330B
:08778A00FD7F587E00027862C9
:107A4E00C2C412785CA2C4E433FD7F047E001278B7
:037A5E0062AF050F
:017A61002202
:107AD000C2C4EF24FF92C47F057E00127862D2C434
:017AE0002283
:10787B007B08127A0EEDC313FD12785C30C404ED55
:0E788B004480FD7F0A7E00127862DBE6AF05C6
:0178990022CC
:02789A00AD0738
:10789C007B08127A0EED1392C47F0A7E0012786276
:0B78AC00D2C4127A10EDC313FDDBE71D
:0178B70022AE
:0572460090020AEFF0C8
:10724B00E4FAFFFDFC12776A7FCC12789A7F441226
:10725B00789A7FC87E0012797A12776A7FCC12787F
:10726B009A7FBE12789A12787BAA0712787BEFFE70
:10727B007C00E42AFFEC3EFE7D1912175CAC06ADD8
:0C728B0007EF7802CEC313CE13D8F9FF32
:0172970022D4
:0B75DF0090020AEBF0A3EAF0A3E9F031
:1075EA0012776A7F3312789AE4A3F012787B9002BA
:1075FA000AE0FBA3E0FAA3E0F9A3E0F582758300B1
:10760A00EF12173A90020DE004F0E0C3940840DB51
:01761A00224D
:0B7B33007F089002837402F0A3DFFCC7
:017B3E002224
:106E6E009002CAEEF0A3EFF07C277D1012176E127F
:106E7E007B869002CAE0FEA3E0FF7C037DE812173A
:106E8E006E7C007D0A12176EAF05127B869002CAC9
:106E9E00E0FEA3E0FF7C007D6412176E7C007D0A8D
:106EAE0012176EAF05127B867F2E127B779002CA69
:106EBE00E0FEA3E0FF7C007D0A12176E7C007D0AC7
:106ECE0012176EAF05127B869002CAE0FEA3E0FF9A
:0C6EDE007C007D0A12176EAF05027B8657
:056EEA0090020AEFF028
:106EEF00E4A3F090020AE0FFA3E0C39F50687BFF8A
:106EFF007A7B7963127A7690020BE004FF12765652
:106F0F007BFF7A7B7967127A76E490020CF090021D
:106F1F000CE0FFC39408502D90020BE075F008A40D
:106F2F00247BF582E43402F583E5822FF582E43584
:106F3F0083F583E0FF1276567F20127B7790020C49
:106F4F00E004F080C97BFF7A7B796B127A7690022E
:066F5F000BE004F0808D40
:016F65002209
:107AE100E4F5CF75CDC030070475CED02275CE40F8
:017AF1002272
:0D7AF2008FCFE5CD30E7FB75CDC0AFCF22C3
:107A6200438920759840758DDC858D8BE4F587D22E
:047A7200ACD28E22E2
:087B77008F993099FDC299229B
:02765600AE077D
:10765800EEC4540FFDC36480948AED500424308036
:107668000424F62461FF127B77EE540FFDC3648077
:10767800948AED50042430800424F62461FF127BA0
:01768800778A
:0176890022DE
:077B8600EF2430FF027B77C2
:107A76001216E2FF600C127B77740129F9E43AFAD8
:037A860080EE226D
:0D76BC009002C5EBF0A3EAF0A3E9F0AE07E1
:1076C900E4FDEDC39E501A9002C5E0FBA3E0FAA3C6
:1076D900E0F98D827583001216FBFF127B770D800E
:0176E900E1BF
:0176EA00227D
:030023000278F36D
:0678F300C0E0C083C0826A
:0F78F90030980CC298C2AF900203E599F0D2AF5D
:07790800D082D083D0E032F1
:067B8D00000000000022D0
:05000600D2B7D2B622C2
:06000E0012781C1278BEFE
:0F001400D2B6D2B7127B8DC2B6127B8DC2B72285
:0C7B3F00C2B6D2B7127B8DD2B6027B8D8D
:0678B80012001412781CFE
:1078BE00D2B7127B8D30B608C2B7127B8D7F0022F5
:0878CE00C2B7127B8D7F01227D
:0C7B4B00C2B6D2B7127B8DC2B7027B8D90
:0C7B5700D2B6D2B7127B8DC2B7027B8D74
:10781C00E4FEEF30E703D38001C392B6EF25E0FF1F
:0F782C00D2B7127B8DC2B7127B8D0EEEB408E37C
:01783B00222A
:1076EB00E4FED2B6FDEE25E0FED2B7127B8D30B6AE
:1076FB00034401FEC2B7127B8D0DEDB408E7EF60BA
:0B770B0005127B4B8003127B57AF067A
:017716002250
:107945001278B8AC07AF0512781C1278BEAF0312D7
:0A795500781C1278BE127B3FAF04CD
:01795F002205
:02799300AC073F
:107995001278B8AF0512000EEC04FF12781C1278AD
:0679A500BEE4FF1276EBC8
:0179AB0022B9
:10729800AD071278B8EF7006127B3F7F012290028B
:1072A800B2E0FF12000EED04FF12781C1278BE90B7
:1072B80002B3E0FF6026B4010BE4FF1276EBEF1295
:1072C800172880107F011276EBEF12172874012916
:1072D800F9E43AFA9002B3E014F080D3127B3F7FCE
:0272E800002282
:107561001278B8EF7002801E9002B8E0FF12781C0A
:107571001278BE9002B9E060221216E2FF12781C66
:107581001278BEEF7006127B3F7F0122740129F948
:10759100E43AFA9002B9E014F080D8127B3F7F0000
:0175A10022C7
:103BB3004102C0004102C1004102C2004102C300F0
:043BC3004102C400F7
:0C7AFF007FB27E787D0CDDFEDEFADFF643
:017B0B002257
:0C7B0C007FB27EE67D0CDDFEDEFADFF6C7
:017B1800224A
:0C7B19007FD97EAB7D49DDFEDEFADFF691
:017B2500223D
:10768A00EF24FE601214601714601C24037020900B
:10769A0002C0E05401FF229002C0E05402FF22908F
:1076AA0002C0E05404FF229002C0E05408FF227F87
:0276BA000022AC
:10708E00EF24FE601D14602D14603D2403704B90A0
:10709E0002C0E054FEF090020EA3A3A3E09002C142
:1070AE00F0229002C0E054FDF090020EA3A3A3E0E4
:1070BE009002C2F0229002C0E054FBF090020EA3A8
:1070CE00A3A3E09002C3F0229002C0E054F7F09028
:0B70DE00020EA3A3A3E09002C4F02266
:107497009002C1E0600414F080079002C0E044014C
:1074A700F09002C2E0600414F080079002C0E0444C
:1074B70002F09002C3E0600414F080079002C0E07D
:1074C7004404F09002C4E0600314F0229002C0E08C
:0474D7004408F02253
:10738100454550524F4D20736563746F72312068CB
:10739100617320646174612E0D0A00454550524F9E
:1073A1004D20736563746F7232206861732064616C
:1073B10074612E0D0A00726F6F6D20697320636C0A
:0773C10065616E2E0D0A004C
:0D7B2600E4F5C7F5C5F5C675C380F5C422AA
:1079AC0075C78375C5018FC4EEF5C375C65A75C608
:0879BC00A50000AFC2127B26FA
:0179C40022A0
:1079600075C78375C5028FC4EEF5C3AF058FC275A9
:0A797000C65A75C6A50000027B266A
:107A240075C78375C5038FC4EEF5C375C65A75C68D
:067A3400A50000027B2604
:056B7100900232EFF07C
:106B7600E4900235F0A3F0EF30E03FE4900233F00A
:106B8600A3F0900233E0FEA3E0FFC3EE9402502A86
:106B96001279ACEFF460137BFF7A737981127A76FF
:106BA600900235E4F0A304F08010900234E004F083
:106BB60070D0900233E004F080C8900232E030E1F9
:106BC60046E4A3F0A3F0900233E0FEA3E0FFC3EE99
:106BD60094025033E42FFFEE3402FE1279ACEFF448
:106BE60060157BFF7A73799C127A76900235E0F015
:106BF600A3E04402F08010900234E004F070C790E5
:106C06000233E004F080BF900235E07002A3E0702A
:106C1600097BFF7A7379B7127A76900235A3E0FF83
:016C2600224B
:103BC7004C02550000000000000000000000004CFF
:103BD7000247000000000000000000000000410252
:0C3BE700530041025400430244010299C3
:017BA30022BF
:017BA40022BE
:10644700900257E0FE6410706CA3E07068A3E0FF51
:10645700900244E0FBA3E0FAA3E0F9EF12172890BB
:10646700025AE0FF900244E0FBA3E0FAA3E0F990B0
:106477000001EF12173A90025BE090000212173A00
:1064870090025CE090000312173A90025DE09000E2
:106497000412173A90025EE090000512173A900234
:1064A7005FE090000612173A900260E09000071232
:1064B700173A7F0122EE6411706E900258E07068FF
:1064C700A3E0FF900244E0FBA3E0FAA3E0F9EF1298
:1064D700172890025AE0FF900244E0FBA3E0FAA3DA
:1064E700E0F9900001EF12173A90025BE09000028A
:1064F70012173A90025CE090000312173A90025D7F
:10650700E090000412173A90025EE090000512171F
:106517003A90025FE090000612173A900260E0900E
:0B652700000712173A7F02227F0022BB
:1077170041444320646174613A0D0A000D0A007008
:107727006F73737720646174613A0D0A00666C6F3A
:0A7737007720646174613A0D0A00C6
:103BF30048029900000000024401FF4402A122B8D8
:063C030022B841029832D4
:10783C007F011272469002A3EEF0A3EFF0D394886E
:10784C00EE9413400A9002A37422F0A374B8F022B1
:1075A20090029DE0FEA3E0FDEDFF900218EEF0A335
:1075B200EFF07BFF7A777917127A7690029DE0FFDF
:1075C20012765690029EE0FF1276567BFF7A77790A
:0C75D20023127A76900218E0FEA3E0FF7E
:0175DE00228A
:105F470090020A7402F0A37463F0A37402F0A374BE
:105F570014F01275A290020EEEF0A3EFF090020C6F
:105F6700E0FEA3E0FFC390020BE09FFD90020AE072
:105F77009EFCE4121532A804A905AA06AB07E4FFA4
:105F8700FE7DC87CC212147F900210121920900265
:105F97000AE0FCA3E0FDE4121532900210E0F8A33A
:105FA700E0F9A3E0FAA3E0FB12137612151C9002A6
:105FB7001412192090020EE0FCA3E0FDE412153242
:105FC700900210E0F8A3E0F9A3E0FAA3E0FB1213B4
:105FD70076900214E0F8A3E0F9A3E0FAA3E0FB123D
:105FE700128512156B900298EFF09002A0E0FF2047
:105FF700E4089002987464F08009EF20E005E490CB
:106007000298F0900298E0C3648094805002E4F014
:10601700900298E0D3648094E440037464F07BFFBB
:106027007A777926127A769002A0E0FF1276567B6D
:10603700FF7A777923127A767BFF7A777934127A27
:106047007690029FE0FF1276567BFF7A77792302DC
:026057007A7657
:106AB7003A0020002A0021003F00484F4D4500437F
:106AC7000030003100320033003400350036003723
:106AD70000380039002E00250000000000000000EB
:106AE700000000000000000000000000000000009F
:106AF700000000000000000000000000000000008F
:106B0700000000000000000000000000000000007E
:106B1700000000000000000000000000000000006E
:106B2700000000000000000000000000000000005E
:106B3700000000000000000000000000000000004E
:106B4700000000000000000000000000000000003E
:106B5700000000000000000000000000F0FFF0004F
:0A6B67001CFFFFFF1C00FFFFFF00F2
:103C0900C1064102BF00C1054102BA004102BB0120
:0C3C19004102BC004102BD004102BE009F
:1079DE009002A1E0FEA3E0FFE4FCFD90020C121960
:0879EE00207D167F0102514DBE
:1079F6009002A3E0FEA3E0FFE4FCFD90020C121946
:087A0600207D0E7F0402514DAA
:056FCD00900180EFF0CF
:106FD20078817C017D017BFF7A6A79E07E007F8285
:106FE2001216BC900180E0602FB20530051B9002A2
:106FF200107405F0A374FFF0A3746BF0A37462F035
:107002007B187D377F1102584B90021A7405F07B72
:10701200187D377F11022EA630051190021A7405D1
:0C702200F07B187D377F11122EA6C205EE
:01702E00223F
:1022AC00E490020CF0A37406F0A314F0A312192C02
:1022BC000000000090021312192C00000000900284
:1022CC00BFE0707B90026EE070089002CC7421022B
:1022DC0027C51277FB7BFF7A0579EAE4900227F099
:1022EC007D047F01125AC27BFF7A06790AE49002C0
:1022FC0027F07D057F01125AC27BFF7A06792AE40A
:10230C00900227F07D067F01125AC27BFF7A067974
:10231C004AE4900227F07D077F01125AC27BFF7AB4
:10232C0006796AE4900227F07D087F01125AC27B7D
:10233C00FF7A6A79B7E490021DF07D110223D290E6
:10234C0002BFE0640360030223DF1277FB7BFF7A9A
:10235C000579EAE4900227F07D047F01125AC27BD2
:10236C00FF7A06790AE4900227F07D057F01125A64
:10237C00C27BFF7A06792AE4900227F07D067F0162
:10238C00125AC27BFF7A08798AE4900227F07D0703
:10239C007F01125AC27BFF7A06794AE4900227F039
:1023AC007D087F01125AC27BFF7A06796AE490029B
:1023BC0027F07D097F01125AC27BFF7A6A79B7E454
:1023CC0090021DF07D137F0112702F90020CE0FF24
:1023DC00124FC812733890020BEFF060F6E0FEB4A7
:1023EC0001089002CC74100227C5EE6403704F9064
:1023FC00020DE0FF04F0D3EF648094865038E025A2
:10240C00E0FFC374139FFD7BFF7A6A79B9E49002F5
:10241C001DF07F0212702F90020FE0FCA3E0FDA3D1
:10242C00E0FEA3E0FFE47B0AFAF9F81274DB9002F9
:10243C000F121920802090020D7406F08018900263
:10244C000BE0FFB40506A3E014F0800AEFB4060617
:10245C0090020CE004F090020CE0FFD36480948AAC
:10246C004004E4F0800EC3EF648094805006900228
:10247C000C740AF090020CE0FF124FC890020BE0B3
:10248C00640260030223DFA3E0B40A179002BFE0EA
:10249C009002CC700574100227C57421F0A37450FF
:1024AC000226EF90020DE0FF14F0D3EF64809480CD
:1024BC00406790020FE0FCA3E0FDA3E0FEA3E0FF69
:1024CC00E47B0AFAF9F812181C90020F12192090EA
:1024DC00020FE0F8A3E0F9A3E0FAA3E0FB90020CF2
:1024EC00E0FF3395E0FEFDFCEB2FFFEA3EFEE93DFD
:1024FC00FDE83CFC90020F12192090020DE025E043
:10250C00FFC374119FFD7BFF7A6A79BBE490021DB7
:10251C00F07F0212702F0223DF9002BFE064036091
:10252C00030226097402F090020FE0FCA3E0FDA365
:10253C00E0FEA3E0FFA312192090021A74C0F07BF6
:10254C00207D017F01122EA67BFF7A0579EAE490AB
:10255C000227F07D037F01125AC27BFF7A0879AA09
:10256C00E4900227F07D047F01125AC27BFF7A08A7
:10257C0079CAE4900227F07D057F01125AC27BFFD5
:10258C007A06790AE4900227F07D067F01125AC27E
:10259C007BFF7A06792AE4900227F07D077F0112EF
:1025AC005AC27BFF7A08798AE4900227F07D087F73
:1025BC0001125AC27BFF7A06794AE4900227F07D19
:1025CC00097F01125AC27BFF7A06796AE4900227CE
:1025DC00F07D0A7F01125AC27BFF7A6A79B7E490C8
:1025EC00021DF07D157F0112702F90020D7406F004
:1025FC0090020F12192C000000000223DF9002BF82
:10260C00E0640260030226F3900213E0FCA3E0FDF9
:10261C00A3E0FEA3E0FF90020FE0F8A3E0F9A3E033
:10262C00FAA3E0FBC3121879703E900213E0FCA3EE
:10263C00E0FDA3E0FEA3E0FF90026F1219207818D2
:10264C007C027D017B017A02796E7E007F0D121671
:10265C00BC7F021245D79002CC7421F0A37450F0C9
:10266C009002BF7401F0FF2290021A74C0F07B102C
:10267C007D017F11122EA67BFF7A06794AE4900227
:10268C0027F07D057F02125AC27BFF7A06796AE435
:10269C00900227F07D067F02125AC27BFF7A0879DE
:1026AC00EAE4900227F07D077F02125AC27BFF7A80
:1026BC0009790AE4900227F07D087F02125AC27B46
:1026CC00FF7A6A79BDE490021DF07D117F021270D1
:1026DC002F127B199002CC7421F0A37450F090024D
:1026EC00BF7404F07F00229002BFE060030223DF7E
:1026FC0090020FE0FCA3E0FDA3E0FEA3E0FF90023C
:10270C006FE0F8A3E0F9A3E0FAA3E0FBC312188F83
:10271C00700C9002CC7421F0A3E4F07F01229002A3
:10272C001A74C0F07B107D017F11122EA67BFF7AEC
:10273C0006794AE4900227F07D057F02125AC27B8B
:10274C00FF7A06796AE4900227F07D067F02125A1E
:10275C00C27BFF7A06798AE4900227F07D077F021C
:10276C00125AC27BFF7A0679AAE4900227F07D0800
:10277C007F02125AC27BFF7A6A79BDE490021DF087
:10278C007D117F0212702F127B1990021A74C0F007
:10279C007B107D017F11122EA690020D7406F09015
:1027AC00020F12192C0000000090020EE014F060D1
:0E27BC00030223DF9002CC7410F0A3E4F0FFC0
:0127CA0022EC
:106C270090020B7401F0E4A3F01277FB026CC81218
:106C37007338EF60FA64016004EFB4050A9002CC80
:106C47007410F0A3E4F022EFB4032090020BE014D9
:106C5700F0E0FEC36480948150067407F0A3802C93
:106C6700EEB4040590020C80238026EFB40429902B
:106C7700020BE004F0E0FED36480948740077401C0
:106C8700F0A3F0803CEEB4050890020C7401F0808C
:106C970030E490020CF08029EF64026004EFB40640
:106CA7002090020BE0FF3395E0FEEFC4F8540FC8C5
:106CB70068FFEEC454F04844219002CCF0A3EFF0F3
:0F6CC7002290020BE0FFA3E0FD121B30026C369F
:10616B0090020C7401F01277FB7BFF7A04798AE4BE
:10617B00900227F07D047F01125AC27BFF7A0479CB
:10618B00AAE4900227F07D057F01125AC27BFF7AA9
:10619B000379AAE4900227F07D067F01125AC27B95
:1061AB00FF7A0379CAE4900227F07D077F01125A28
:1061BB00C290020CE0FF12544412733890020BEFA2
:1061CB00F060F6E0FFB401079002CC74108051EF41
:1061DB00B405079002CC74218046EFB403139002F0
:1061EB000CE014F0E0C364809480501A7402F080C9
:1061FB001590020BE0B4040EA3E004F0E0D364802E
:10620B0094824002E4F090020CE0FF12544490029E
:10621B000BE0640270A3A3E0FF700A9002CC742120
:10622B00F0A3E4F022EFB4010790027A7401800B23
:10623B0090020CE06402708190027AF09002CC74B0
:10624B0021F0A3E4F078187C027D017B017A0279BE
:0C625B006EFE7F0D1216BC7F081245D7A6
:016267002214
:10440A0090020B7403F0E4A3F01277FB7BFF7A01AE
:10441A0079EAE4900227F07D027F01125AC27BFFFB
:10442A007A02790AE4900227F07D037F01125AC2C8
:10443A007BFF7A0679CAE4900227F07D047F011295
:10444A005AC27BFF7A0079CAE4900227F07D057F81
:10445A0001125AC27BFF7A0079CAE4900227F07DE2
:10446A00067F01125AC27BFF7A0079EAE49002279A
:10447A00F07D077F01125AC27BFF7A0379AAE49082
:10448A000227F07D087F01125AC27BFF7A0379CA9C
:10449A00E4900227F07D097F01125AC20245C71231
:1044AA007338EF60FAB401089002CC7410024584A4
:1044BA00EFB4051690020BE004F0E0D36480948315
:1044CA0050030245C7E4F00245C7EFB4061790024D
:1044DA000BE014F0E0C36480948040030245C77483
:1044EA0003F00245C7EF6403704690020BE0FEB486
:1044FA000106A3E004F08018EEB4020990020CE071
:10450A00240AF0800BEEB4030790020CE02464F056
:10451A0090020CE0FEC364809480400BD3EE64806A
:10452A0094E450030245C790020C7464F00245C734
:10453A00EF6404703590020BE0FEB40106A3E014A8
:10454A00F08018EEB4020990020CE024F6F0800B19
:10455A00EEB4030790020CE0249CF090020CE0C336
:10456A00648094805057E4F08053EF6402704E9058
:10457A00020BE0700A9002CC7421F0A3E4F02290BE
:10458A000275E0FF90020CE0FDFB3395E0FAC3EB05
:10459A009F7480F86A985025900274EDF09002CCCE
:1045AA007421F0A3E4F078187C027D017B017A0281
:1045BA00796EFE7F0D1216BC7F040245D790020C5D
:0D45CA00E0FF90020BE0FD125BF50244A93A
:10423C0090020B7403F0A37464F01277FB7BFF7A8B
:10424C000179EAE4900227F07D027F01125AC27BC9
:10425C00FF7A02790AE4900227F07D037F01125A5B
:10426C00C27BFF7A07794AE4900227F07D047F0134
:10427C00125AC27BFF7A0079CAE4900227F07D05BE
:10428C007F01125AC27BFF7A0079CAE4900227F0B0
:10429C007D067F01125AC27BFF7A0079EAE4900214
:1042AC0027F07D077F01125AC27BFF7A0379AAE4BB
:1042BC00900227F07D087F01125AC27BFF7A0379A6
:1042CC00CAE4900227F07D097F01125AC20243FA18
:1042DC00127338EF60FAB401089002CC74100243E8
:1042EC00B7EFB4051690020BE004F0E0D3648094B1
:1042FC008350030243FAE4F00243FAEFB40617903A
:10430C00020BE014F0E0C36480948040030243FA93
:10431C007403F00243FAEF6403704690020BE0FE64
:10432C00B40106A3E004F08018EEB4020990020C6C
:10433C00E0240AF0800BEEB4030790020CE0246436
:10434C00F090020CE0FEC364809480400BD3EE64CA
:10435C008094E450030243FA90020C7464F002431C
:10436C00FAEF6404703590020BE0FEB40106A3E092
:10437C0014F08018EEB4020990020CE024F6F080E0
:10438C000BEEB4030790020CE0249CF090020CE0BE
:10439C00C3648094805057E4F08053EF6402704EF5
:1043AC0090020BE0700A9002CC7421F0A3E4F0228E
:1043BC00900274E0FF90020CE0FDFB3395E0FAD321
:1043CC00EB9F7480F86A984025900275EDF090028E
:1043DC00CC7421F0A3E4F078187C027D017B017A87
:1043EC0002796EFE7F0D1216BC7F050245D7900236
:0E43FC000CE0FF90020BE0FD125BF50242DCCC
:1031EC0090020C7401F0780D7C02FDFB7A0279A53B
:1031FC007E007F091216BC1277FB7BFF7A0179CA1D
:10320C00E4900227F07D047F01125AC27BFF7A05FD
:10321C00790AE4900227F07D057F01125AC27BFFE8
:10322C007A01790AE4900227F07D067F01125AC2D6
:10323C007BFF7A01792AE4900227F07D077F011247
:10324C005AC27BFF7A0379AAE4900227F07D087FAB
:10325C0001125AC27BFF7A0379CAE4900227F07DEF
:10326C00097F01125AC2900213E0FEA3E0FFE4FCB6
:10327C00FD900225121920E4900229F07B047D08B0
:10328C007F021249397BFF7A01798AE4900227F098
:10329C007D057F02125AC27BFF7A0179AAE4900263
:1032AC0027F07D077F02125AC27BFF7A0179CAE4AC
:1032BC00900227F07D097F02125AC27BFF7A6A794D
:1032CC00B7E490021DF07D077F0312702F7BFF7A0D
:1032DC006A79B7E490021DF07D0A7F0312702F7B90
:1032EC00FF7A0479EAE4900227F07D087F03125AF2
:1032FC00C27BFF7A05790AE4900227F07D097F03EF
:10330C00125AC2122B5012733890020BEFF060F667
:10331C00E0FFB401089002CC741002352AEFB40619
:10332C001690020CE004F0E0D36480948950030200
:10333C0034EEE4F00234EE90020BE0FFB40515A37A
:10334C00E014F0E0C36480948040030234EE74090E
:10335C00F00234EEEF6403600302342C90020CE0B4
:10336C00FFB40210900214E004F07053900213E0CA
:10337C0004F0804BEFB40110900214E0240AF0909A
:10338C000213E03400F08037EFB403059002128092
:10339C002BEFB404059002108022EFB405059002C7
:1033AC000F8019EFB4060590020E8010EFB40705DC
:1033BC0090020D8007EFB40806900211E004F0D3E0
:1033CC00900214E09433900213E0940840077407C1
:1033DC00F0A374D0F0900212E0D3940C400374016B
:1033EC00F0900210E0D3941F40037401F090020F90
:1033FC00E0D394174002E4F090020EE0D3943B40EB
:10340C0002E4F090020DE0D3943B4002E4F0900211
:10341C0011E0D3940750030234EE7401F00234EE41
:10342C0090020BE0640460030234EEA3E0FFB402EC
:10343C0008900214E024FF800AEFB40110900214EB
:10344C00E024F6F0900213E034FFF08037EFB40381
:10345C0005900212802BEFB404059002108022EF2D
:10346C00B4050590020F8019EFB4060590020E808A
:10347C0010EFB4070590020D8007EFB40806900218
:10348C0011E014F0C3900214E094D0900213E09475
:10349C000750077408F0A37433F0900212E0C39441
:1034AC000150037401F0900210E0C39401500374B6
:1034BC0001F090020FE0D3941740037417F09002C0
:1034CC000EE0D3943B4003743BF090020DE0D39498
:1034DC003B4003743BF0900211E0C3940150037421
:1034EC0007F0122B5090020BE064026003023312BF
:1034FC00A3E0FF70079002CC74218022EF64096076
:10350C000302331278167C027D017B017A02790D5D
:10351C00FE7F091216BC1266DD9002CC7421F0A35A
:02352C00E4F0C9
:01352E00227A
:104C8D0090020B7401F0E4A3F090026EE090020D1F
:104C9D00F09002BFE0640170661277FB90020B7416
:104CAD0002F07BFF7A0379AAE4900227F07D047F5E
:104CBD0002125AC27BFF7A0379CAE4900227F07D73
:104CCD00057F02125AC27BFF7A08790AE490022707
:104CDD00F07D067F02125AC27BFF7A08792AE49092
:104CED000227F07D077F02125AC27BFF7A6A79BDD7
:104CFD00E490021DF07D0F7F0212702F127B19E4DC
:104D0D009002BFF01277FB7BFF7A06794AE490029E
:104D1D0027F07D057F01125AC27BFF7A06796AE47E
:104D2D00900227F07D067F01125AC27BFF7A03792C
:104D3D00AAE4900227F07D077F01125AC27BFF7A09
:104D4D000379CAE4900227F07D087F01125AC2024E
:104D5D004E1F127338EF60FAB401089002CC741034
:104D6D00024E1AEFB4031690020BE014F0C36480E8
:104D7D0094804003024E1F7403F0024E1FEFB404E3
:104D8D001490020BE004F0D3648094835003024E20
:104D9D001FE4F0807DEF64056004EFB4061B900204
:104DAD000BE06401706C90020DE070047E018002D6
:104DBD007E0090020DEEF08059EF64027054900267
:104DCD000BE0FFB402109002CC7420F0A3E4F0903D
:104DDD0002BF7403F022EFB4032890020DE090029D
:104DED006EF09002CC7421F0A3E4F078187C027D73
:104DFD00017B017A02796EFE7F0D1216BC7F0102D6
:104E0D0045D790020BE0700A9002CC7421F0A3E418
:104E1D00F02290020DE0FF90020BE0FD123C5D02CE
:024E2D004D5FD7
:105D110090020B7401F01277FB7BFF7A07796AE43A
:105D2100900227F07D047F01125AC27BFF7A077926
:105D31008AE4900227F07D057F01125AC27BFF7A27
:105D41000379AAE4900227F07D067F01125AC27BF3
:105D5100FF7A0379CAE4900227F07D077F01125A86
:105D6100C2025E21127338EF60FAB401089002CCCE
:105D71007410025E1CEFB405089002CC7421025E1F
:105D81001CEFB4031790020BE014F0E0C36480949D
:105D9100804003025E217402F0025E21EFB404121E
:105DA10090020BE004F0E0D3648094824072E4F04E
:105DB100806EEF6402706990020BE0FF7007900241
:105DC100CC74218056EFB401289002737401F090D5
:105DD10002CC7421F0A3E4F0C2CB78187C027D01DF
:105DE1007B017A02796EFE7F0D1216BC7F0302459C
:105DF100D790020BE0B40228E4900273F0D2CB7882
:105E0100187C027D017B017A02796EFE7F0D1216EC
:105E1100BC7F031245D79002CC7421F0A3E4F02299
:0B5E210090020BE0FF1255A5025D652A
:1060590090020B7401F0E4A3F01277FB7BFF7A093D
:10606900794AE4900227F07D047F01125AC27BFF2E
:106079007A09796AE4900227F07D057F01125AC2F4
:106089007BFF7A09798AE4900227F07D067F011265
:106099005AC27BFF7A0979AAE4900227F07D077F2B
:1060A90001125AC27BFF7A6A79BFE490021DF07D22
:1060B9000F7F0112702F02615B127338EF60FAB41F
:1060C90001089002CC7410026156EF64056004EF78
:1060D900B4061990020BE064017077A3E070047EA6
:1060E9000180027E0090020CEEF08066EFB403138B
:1060F90090020BE014F0E0C3648094805054740261
:10610900F0804FEFB4041290020BE004F0E0D36486
:10611900809482403DE4F08039EF6402703490024B
:106129000BE0FF70079002CC74218021EFB40222AA
:1061390078187C027D017B017A0279617E007F0DEE
:106149001216BCE4FF1245D79002CC7421F0A3E4E7
:10615900F02290020CE0FF90020BE0FD1252CC02FB
:0261690060C212
:017BA50022BD
:0562680090020BEFF0B5
:10626D00A37401F0EFF4600330060DE490020BF01F
:10627D001277FB12478A803F90020BE0FFB40506B0
:10628D00A3E004F0800AEFB4060690020CE014F0CF
:10629D0090020CE0FFD36480948340057401F0807C
:1062AD000EC3EF64809481500690020C7403F0903D
:1062BD00020CE0FF125E2C90020E12192C00000051
:1062CD000A7F0112708E12733890020BEFF0606B23
:1062DD0090020E12192C0000000A7F0112708E9090
:1062ED00020BE0FDB4020FA3E0FFEFC454F09002E7
:1062FD00CCF0A3E4F022EDB40102804790020BE054
:10630D00FFB40506A3E004F0800AEFB40606900280
:10631D000CE014F090020CE0FFD3648094834005F0
:10632D007401F0800EC3EF64809481500690020CCE
:10633D007403F090020CE0FF125E2C7F0112768A3E
:0A634D00EF6083E49002CCF0A3F0AF
:016357002223
:0563580090020DEFF0C2
:10635D009002BAE06F601790021A7440F07B107DC6
:10636D00717F11122EA690020DE09002BAF09002EC
:10637D000DE030E2087BFF7A0B792A800D90020D3B
:10638D00E030E01B7BFF7A0A79CAE4900227F07DAA
:10639D000A7F02125AC27BFF7A0A79EA02643A90A6
:1063AD00020DE030E13E7BFF7A01794AE49002274D
:1063BD00F07D087F02125AC27BFF7A01796AE49060
:1063CD000227F07D097F02125AC27BFF7A06798A75
:1063DD00E4900227F07D0A7F02125AC27BFF7A06F3
:1063ED0079AA804990020DE07BFF30E72A7A067981
:1063FD00CAE4900227F07D097F02125AC27BFF7A10
:10640D000079CAE4900227F07D0A7F02125AC27BFE
:10641D00FF7A0B790A80167A0279EAE4900227F066
:10642D007D0A7F02125AC27BFF7A03790AE4900239
:09643D0027F07D0B7F02125AC208
:016446002233
:0571F20090020DEFF01A
:1071F7009002BBE06F601790021A7440F07B107D1D
:10720700717F21122EA690020DE09002BBF0900232
:107217000DE07BFF70067A0479CA80057A0179EA66
:10722700E4900227F07D0A7F03125AC27BFF7A029D
:0E723700790AE4900227F07D0B7F03125AC201
:017245002226
:10478A00C206900210743EF0A374FFF0A3740BF0FB
:10479A00A3745AF07B2D7D017F0112584B7BFF7A5F
:1047AA0001790AE4900227F07D057F01125AC27B43
:1047BA00FF7A01792AE4900227F07D067F01125AD6
:1047CA00C27BFF7A6A79B7E490021DF07D0D7F0102
:1047DA0012702F9002A7E0FFE4FCFDFE9002251262
:1047EA001920E4900229F07B027D107F01124939D9
:1047FA007BFF7A6A79B7E490021DF07D117F01127E
:10480A00702F9002A6E0FFE4FCFDFE90022512192B
:10481A0020E4900229F07B027D137F011249397B43
:10482A00FF7A6A79B7E490021DF07D147F01127055
:10483A002F9002A5E0FFE4FCFDFE9002251219204C
:10484A00E4900229F07B027D167F011249397BFF31
:10485A007A0279AAE4900227F07D057F02125AC2F1
:10486A007BFF7A0279CAE4900227F07D067F021262
:10487A005AC27BFF7A6A79B7E490021DF07D0D7FF8
:10488A000212702F9002CFE0FF1263587BFF7A0466
:10489A00798AE4900227F07D057F03125AC27BFFD2
:1048AA007A0479AAE4900227F07D067F03125AC29D
:1048BA007BFF7A6A79B7E490021DF07D0D7F0312BF
:1048CA00702F90027AE0FF1271F27BFF7A03792A45
:1048DA00E4900227F07D027F04125AC27BFF7A031A
:1048EA00794AE4900227F07D037F04125AC27BFFC3
:1048FA007A0379AAE4900227F07D067F04125AC24D
:10490A007BFF7A0379CAE4900227F07D077F0412BD
:10491A005AC27BFF7A6A79C190021D7401F07D1335
:0F492A007F0412702F900298E0FF7D0102352F5D
:1037B300D2067BFF7A0079CAE4900227F07D037F6B
:1037C30001125AC27BFF7A0079EAE4900227F07D66
:1037D300047F01125AC27BFF7A0179EAE49002273F
:1037E300F07D057F01125AC27BFF7A02790AE490C9
:1037F3000227F07D067F01125AC27BFF7A02792AE3
:10380300E4900227F07D077F01125AC27BFF7A0200
:10381300794AE4900227F07D087F01125AC27BFFA8
:103823007A02796AE4900227F07D097F01125AC275
:103833007BFF7A02798AE4900227F07D0A7F0112E6
:103843005AC29002ABE0FEA3E0FFE4FCFD90022528
:10385300121920E4900229F07B047D0A7F021249A9
:10386300397BFF7A01798AE4900227F07D067F0293
:10387300125AC29002AAE0FFE4FCFDFE9002251258
:103883001920E4900229F07B027D0E7F0212493950
:103893007BFF7A0179AAE4900227F07D087F021268
:1038A3005AC29002A8E0FFE4FCFDFE900225121923
:1038B30020E4900229F07B027D127F021249397BBA
:1038C300FF7A0179CAE4900227F07D0A7F02125A37
:1038D300C29002A7E0FFE4FCFDFE9002251219202E
:1038E300E4900229F07B027D067F031249397BFFB6
:1038F3007A6A79B7E490021DF07D077F0312702F77
:103903009002A6E0FFE4FCFDFE900225121920E4DC
:10391300900229F07B027D097F031249397BFF7AEC
:103923006A79B7E490021DF07D0A7F0312702F902D
:1039330002A5E0FFE4FCFDFE900225121920E490AD
:103943000229F07B027D0C7F031249397BFF7A0445
:1039530079EAE4900227F07D087F03125AC27BFFC5
:103963007A05790AE4900227F07D097F03125AC28F
:103973009002A9E014B40700506590398B75F003E9
:10398300A4C58325F0C583730239A00239A802397F
:10399300B00239B80239C00239C80239D07BFF7A84
:1039A30005792A802E7BFF7A05794A80267BFF7A68
:1039B30005796A801E7BFF7A05798A80167BFF7AF8
:1039C3000579AA800E7BFF7A0579CA80067BFF7A88
:1039D30004796AE4900227F07D0A7F03125AC21227
:1039E30079F67BFF7A0B794AE4900241F07D0F7FF1
:1039F3000412598E7BFF7A6A79C6E490021DF07D2A
:063A0300107F0402702F89
:106F66009002A7E0FFE4FCFDFE900225121920E442
:106F7600900229F07B027D107F011249399002A60A
:106F8600E0FFE4FCFDFE900225121920E4900229A0
:106F9600F07B027D137F011249399002A5E0FFE4E0
:106FA600FCFDFE900225121920E4900229F07B02D6
:106FB6007D167F011249399002CFE0FF1263589087
:076FC600027AE0FF0271F204
:10719B009002A7E0FFE4FCFDFE900225121920E40B
:1071AB00900229F07B027D067F031249399002A6DB
:1071BB00E0FFE4FCFDFE900225121920E490022969
:1071CB00F07B027D097F031249399002A5E0FFE4B1
:1071DB00FCFDFE900225121920E4900229F07B029F
:0771EB007D0C7F030249390E
:105E2C00EF24FE6063147003025EEA240260030236
:105E3C005F467BFF7A03792AE4900227F07D027F8C
:105E4C0004125AC27BFF7A03794AE4900227F07D50
:105E5C00037F04125AC27BFF7A0379AAE4900227CB
:105E6C00F07D067F04125AC27BFF7A0379CAE49054
:105E7C000227F07D077F04125AC27BFF7A6A79C130
:105E8C0090021D7401025F3E7BFF7A03792AE49035
:105E9C000227F07D027F04125AC27BFF7A03794AF3
:105EAC00E4900227F07D037F04125AC27BFF7A0331
:105EBC0079AA9002277401F07D067F04125AC27BE6
:105ECC00FF7A0379CA9002277401F07D077F0412D0
:105EDC005AC27BFF7A6A79C1E490021D80547BFF21
:105EEC007A03792A9002277401F07D027F04125AFA
:105EFC00C27BFF7A03794A9002277401F07D037FFD
:105F0C0004125AC27BFF7A0379AAE4900227F07D2F
:105F1C00067F04125AC27BFF7A0379CAE4900227E7
:105F2C00F07D077F04125AC27BFF7A6A79C1E49034
:0B5F3C00021DF07D137F0412702F2265
:104FC800900217EFF07BFF7A6A79C8700690021D8D
:104FD800048004E490021DF07D037F0312702F907B
:104FE8000217E07BFF7A6A79CAB4010790021D7440
:104FF800018004E490021DF07D057F0312702F905C
:105008000217E07BFF7A6A79CCB4020790021D741C
:10501800018004E490021DF07D077F0312702F9039
:105028000217E07BFF7A6A79CEB4030790021D74F9
:10503800018004E490021DF07D097F0312702F9017
:105048000217E07BFF7A6A79D0B4040790021D74D6
:10505800018004E490021DF07D0B7F0312702F90F5
:105068000217E07BFF7A6A79D2B4050790021D74B3
:10507800018004E490021DF07D0D7F0312702F90D3
:105088000217E07BFF7A6A79D4B4060790021D7490
:10509800018004E490021DF07D0F7F0312702F90B1
:1050A8000217E07BFF7A6A79D6B4070790021D746D
:1050B800018004E490021DF07D117F0312702F908F
:1050C8000217E07BFF7A6A79D8B4080790021D744A
:1050D800018004E490021DF07D137F0312702F906D
:1050E8000217E07BFF7A6A79DAB4090790021D7427
:1050F800018004E490021DF07D157F0312702F904B
:105108000217E07BFF7A0379EAB40A1A900227743F
:1051180001F07D0A7F04125AC27BFF7A04790A9053
:10512800022774018016E4900227F07D0A7F04129A
:105138005AC27BFF7A04790AE4900227F07D0B7F3C
:0551480004125AC2220E
:1054440090020DEFF064017BFF7A6A79CA703E9096
:10545400021D04F0FD7F0212702F7BFF7A6A79DC53
:1054640090021D7401F07D027F0212702F7BFF7A7F
:105474000179EA9002277401F07D027F02125AC278
:105484007BFF7A02790A9002277401803AE4900241
:105494001DF07D017F0212702F7BFF7A6A79DCE4B4
:1054A40090021DF07D027F0212702F7BFF7A01793A
:1054B400EAE4900227F07D027F02125AC27BFF7A4F
:1054C40002790AE4900227F07D037F02125AC29007
:1054D400020DE064027BFF7A6A79CC703E90021D73
:1054E40004F0FD7F0312702F7BFF7A6A79DC90024F
:1054F4001D7401F07D027F0312702F7BFF7A047903
:10550400CA9002277401F07D027F03125AC27BFF06
:105514007A02790A9002277401803AE490021DF01D
:105524007D017F0312702F7BFF7A6A79DCE490029D
:105534001DF07D027F0312702F7BFF7A0479CAE489
:10554400900227F07D027F03125AC27BFF7A027910
:105554000AE4900227F07D037F03125AC290020DE1
:10556400E07BFF7A0379EA701990022704F07D0A40
:105574007F04125AC27BFF7A04790A9002277401CD
:105584008016E4900227F07D0A7F04125AC27BFF42
:105594007A04790AE4900227F07D0B7F04125AC240
:0155A40022E4
:1055A50090020CEFF064017BFF7A6A79CA703E9035
:1055B500021D04F0FD7F0212702F7BFF7A6A79DCF1
:1055C50090021D7401F07D027F0212702F7BFF7A1D
:1055D5000179EA9002277401F07D027F02125AC216
:1055E5007BFF7A02790A9002277401803AE49002DF
:1055F5001DF07D017F0212702F7BFF7A6A79DCE452
:1056050090021DF07D027F0212702F7BFF7A0179D7
:10561500EAE4900227F07D027F02125AC27BFF7AEC
:1056250002790AE4900227F07D037F02125AC290A4
:10563500020CE064027BFF7A6A79CC703E90021D11
:1056450004F0FD7F0312702F7BFF7A6A79DC9002EC
:105655001D7401F07D027F0312702F7BFF7A0179A3
:105665006A9002277401F07D027F03125AC27BFF04
:105675007A09792A9002277401803AE490021DF094
:105685007D017F0312702F7BFF7A6A79DCE490023B
:105695001DF07D027F0312702F7BFF7A01796AE48A
:1056A500900227F07D027F03125AC27BFF7A0979A7
:1056B5002AE4900227F07D037F03125AC290020C60
:1056C500E07BFF7A0379EA701990022704F07D0ADE
:1056D5007F04125AC27BFF7A04790A90022774016B
:1056E5008016E4900227F07D0A7F04125AC27BFFE0
:1056F5007A04790AE4900227F07D0B7F04125AC2DE
:015705002281
:055BF50090020DEDF02F
:105BFA00EF75F06484A3F0EF75F00A8475F00A84F7
:105C0A00A3E5F0F0EF75F00A84A3E5F0F090020E38
:105C1A00E0FFBD0313E4FCFDFE900225121920905B
:105C2A0002297401F0FB8011E4FCFDFE90022512AA
:105C3A001920E4900229F07B017D0A7F021249397A
:105C4A0090020DE090020FB40215E0FFE4FCFDFEA5
:105C5A009002251219209002297401F0FB8013E0AA
:105C6A00FFE4FCFDFE900225121920E4900229F0BF
:105C7A007B017D0B7F0212493990020DE0900210E0
:105C8A00B40115E0FFE4FCFDFE90022512192090F4
:105C9A0002297401F0FB8013E0FFE4FCFDFE900290
:105CAA0025121920E4900229F07B017D0C7F021253
:105CBA00493990020DE07BFF7A0379EA7019900264
:105CCA002704F07D0A7F04125AC27BFF7A04790AFC
:105CDA0090022774018016E4900227F07D0A7F045F
:105CEA00125AC27BFF7A04790AE4900227F07D0BEC
:105CFA007F04125AC27BFF7A6A79DEE490021DF0B1
:075D0A007D0D7F0202702FE6
:102B500078167C027D017B017A02790D7E007F0967
:0B2B60001216BC90020CE090021FF067
:102B6B0090021CE0FAA3E0FB7C007D0AFFAE021290
:102B7B00176E7C007D0A12176E900220EDF07C0020
:102B8B007D0AAF03AE0212176EA3EDF090021FE0A9
:102B9B00B40116A3E0FFE4FCFDFE90022512192000
:102BAB009002297401F0FB8016900220E0FFE4FCF8
:102BBB00FDFE900225121920E4900229F07B017D85
:102BCB00077F0212493990021FE0900221B40215CF
:102BDB00E0FFE4FCFDFE90022512192090022974FF
:102BEB0001F0FB8013E0FFE4FCFDFE9002251219BF
:102BFB0020E4900229F07B017D087F021249399075
:102C0B00021FE090021BB40313E0FFE4FCFDFE90F7
:102C1B00022512192090022974018010E0FFE4FCB8
:102C2B00FDFE900225121920E4900229F07B027D13
:102C3B000C7F0212493990021FE0900219B4041361
:102C4B00E0FFE4FCFDFE900225121920900229748E
:102C5B00018010E0FFE4FCFDFE900225121920E438
:102C6B00900229F07B027D107F0212493990021FDE
